{
  "contractName": "ERC1155PresetMinterPauser",
  "abi": [
    {
      "inputs": [
        {
          "internalType": "string",
          "name": "uri",
          "type": "string"
        }
      ],
      "stateMutability": "nonpayable",
      "type": "constructor"
    },
    {
      "anonymous": false,
      "inputs": [
        {
          "indexed": true,
          "internalType": "address",
          "name": "account",
          "type": "address"
        },
        {
          "indexed": true,
          "internalType": "address",
          "name": "operator",
          "type": "address"
        },
        {
          "indexed": false,
          "internalType": "bool",
          "name": "approved",
          "type": "bool"
        }
      ],
      "name": "ApprovalForAll",
      "type": "event"
    },
    {
      "anonymous": false,
      "inputs": [
        {
          "indexed": false,
          "internalType": "address",
          "name": "account",
          "type": "address"
        }
      ],
      "name": "Paused",
      "type": "event"
    },
    {
      "anonymous": false,
      "inputs": [
        {
          "indexed": true,
          "internalType": "bytes32",
          "name": "role",
          "type": "bytes32"
        },
        {
          "indexed": true,
          "internalType": "bytes32",
          "name": "previousAdminRole",
          "type": "bytes32"
        },
        {
          "indexed": true,
          "internalType": "bytes32",
          "name": "newAdminRole",
          "type": "bytes32"
        }
      ],
      "name": "RoleAdminChanged",
      "type": "event"
    },
    {
      "anonymous": false,
      "inputs": [
        {
          "indexed": true,
          "internalType": "bytes32",
          "name": "role",
          "type": "bytes32"
        },
        {
          "indexed": true,
          "internalType": "address",
          "name": "account",
          "type": "address"
        },
        {
          "indexed": true,
          "internalType": "address",
          "name": "sender",
          "type": "address"
        }
      ],
      "name": "RoleGranted",
      "type": "event"
    },
    {
      "anonymous": false,
      "inputs": [
        {
          "indexed": true,
          "internalType": "bytes32",
          "name": "role",
          "type": "bytes32"
        },
        {
          "indexed": true,
          "internalType": "address",
          "name": "account",
          "type": "address"
        },
        {
          "indexed": true,
          "internalType": "address",
          "name": "sender",
          "type": "address"
        }
      ],
      "name": "RoleRevoked",
      "type": "event"
    },
    {
      "anonymous": false,
      "inputs": [
        {
          "indexed": true,
          "internalType": "address",
          "name": "operator",
          "type": "address"
        },
        {
          "indexed": true,
          "internalType": "address",
          "name": "from",
          "type": "address"
        },
        {
          "indexed": true,
          "internalType": "address",
          "name": "to",
          "type": "address"
        },
        {
          "indexed": false,
          "internalType": "uint256[]",
          "name": "ids",
          "type": "uint256[]"
        },
        {
          "indexed": false,
          "internalType": "uint256[]",
          "name": "values",
          "type": "uint256[]"
        }
      ],
      "name": "TransferBatch",
      "type": "event"
    },
    {
      "anonymous": false,
      "inputs": [
        {
          "indexed": true,
          "internalType": "address",
          "name": "operator",
          "type": "address"
        },
        {
          "indexed": true,
          "internalType": "address",
          "name": "from",
          "type": "address"
        },
        {
          "indexed": true,
          "internalType": "address",
          "name": "to",
          "type": "address"
        },
        {
          "indexed": false,
          "internalType": "uint256",
          "name": "id",
          "type": "uint256"
        },
        {
          "indexed": false,
          "internalType": "uint256",
          "name": "value",
          "type": "uint256"
        }
      ],
      "name": "TransferSingle",
      "type": "event"
    },
    {
      "anonymous": false,
      "inputs": [
        {
          "indexed": false,
          "internalType": "string",
          "name": "value",
          "type": "string"
        },
        {
          "indexed": true,
          "internalType": "uint256",
          "name": "id",
          "type": "uint256"
        }
      ],
      "name": "URI",
      "type": "event"
    },
    {
      "anonymous": false,
      "inputs": [
        {
          "indexed": false,
          "internalType": "address",
          "name": "account",
          "type": "address"
        }
      ],
      "name": "Unpaused",
      "type": "event"
    },
    {
      "inputs": [],
      "name": "DEFAULT_ADMIN_ROLE",
      "outputs": [
        {
          "internalType": "bytes32",
          "name": "",
          "type": "bytes32"
        }
      ],
      "stateMutability": "view",
      "type": "function",
      "constant": true
    },
    {
      "inputs": [],
      "name": "MINTER_ROLE",
      "outputs": [
        {
          "internalType": "bytes32",
          "name": "",
          "type": "bytes32"
        }
      ],
      "stateMutability": "view",
      "type": "function",
      "constant": true
    },
    {
      "inputs": [],
      "name": "PAUSER_ROLE",
      "outputs": [
        {
          "internalType": "bytes32",
          "name": "",
          "type": "bytes32"
        }
      ],
      "stateMutability": "view",
      "type": "function",
      "constant": true
    },
    {
      "inputs": [
        {
          "internalType": "address",
          "name": "account",
          "type": "address"
        },
        {
          "internalType": "uint256",
          "name": "id",
          "type": "uint256"
        }
      ],
      "name": "balanceOf",
      "outputs": [
        {
          "internalType": "uint256",
          "name": "",
          "type": "uint256"
        }
      ],
      "stateMutability": "view",
      "type": "function",
      "constant": true
    },
    {
      "inputs": [
        {
          "internalType": "address[]",
          "name": "accounts",
          "type": "address[]"
        },
        {
          "internalType": "uint256[]",
          "name": "ids",
          "type": "uint256[]"
        }
      ],
      "name": "balanceOfBatch",
      "outputs": [
        {
          "internalType": "uint256[]",
          "name": "",
          "type": "uint256[]"
        }
      ],
      "stateMutability": "view",
      "type": "function",
      "constant": true
    },
    {
      "inputs": [
        {
          "internalType": "address",
          "name": "account",
          "type": "address"
        },
        {
          "internalType": "uint256",
          "name": "id",
          "type": "uint256"
        },
        {
          "internalType": "uint256",
          "name": "value",
          "type": "uint256"
        }
      ],
      "name": "burn",
      "outputs": [],
      "stateMutability": "nonpayable",
      "type": "function"
    },
    {
      "inputs": [
        {
          "internalType": "address",
          "name": "account",
          "type": "address"
        },
        {
          "internalType": "uint256[]",
          "name": "ids",
          "type": "uint256[]"
        },
        {
          "internalType": "uint256[]",
          "name": "values",
          "type": "uint256[]"
        }
      ],
      "name": "burnBatch",
      "outputs": [],
      "stateMutability": "nonpayable",
      "type": "function"
    },
    {
      "inputs": [
        {
          "internalType": "bytes32",
          "name": "role",
          "type": "bytes32"
        }
      ],
      "name": "getRoleAdmin",
      "outputs": [
        {
          "internalType": "bytes32",
          "name": "",
          "type": "bytes32"
        }
      ],
      "stateMutability": "view",
      "type": "function",
      "constant": true
    },
    {
      "inputs": [
        {
          "internalType": "bytes32",
          "name": "role",
          "type": "bytes32"
        },
        {
          "internalType": "uint256",
          "name": "index",
          "type": "uint256"
        }
      ],
      "name": "getRoleMember",
      "outputs": [
        {
          "internalType": "address",
          "name": "",
          "type": "address"
        }
      ],
      "stateMutability": "view",
      "type": "function",
      "constant": true
    },
    {
      "inputs": [
        {
          "internalType": "bytes32",
          "name": "role",
          "type": "bytes32"
        }
      ],
      "name": "getRoleMemberCount",
      "outputs": [
        {
          "internalType": "uint256",
          "name": "",
          "type": "uint256"
        }
      ],
      "stateMutability": "view",
      "type": "function",
      "constant": true
    },
    {
      "inputs": [
        {
          "internalType": "bytes32",
          "name": "role",
          "type": "bytes32"
        },
        {
          "internalType": "address",
          "name": "account",
          "type": "address"
        }
      ],
      "name": "grantRole",
      "outputs": [],
      "stateMutability": "nonpayable",
      "type": "function"
    },
    {
      "inputs": [
        {
          "internalType": "bytes32",
          "name": "role",
          "type": "bytes32"
        },
        {
          "internalType": "address",
          "name": "account",
          "type": "address"
        }
      ],
      "name": "hasRole",
      "outputs": [
        {
          "internalType": "bool",
          "name": "",
          "type": "bool"
        }
      ],
      "stateMutability": "view",
      "type": "function",
      "constant": true
    },
    {
      "inputs": [
        {
          "internalType": "address",
          "name": "account",
          "type": "address"
        },
        {
          "internalType": "address",
          "name": "operator",
          "type": "address"
        }
      ],
      "name": "isApprovedForAll",
      "outputs": [
        {
          "internalType": "bool",
          "name": "",
          "type": "bool"
        }
      ],
      "stateMutability": "view",
      "type": "function",
      "constant": true
    },
    {
      "inputs": [],
      "name": "paused",
      "outputs": [
        {
          "internalType": "bool",
          "name": "",
          "type": "bool"
        }
      ],
      "stateMutability": "view",
      "type": "function",
      "constant": true
    },
    {
      "inputs": [
        {
          "internalType": "bytes32",
          "name": "role",
          "type": "bytes32"
        },
        {
          "internalType": "address",
          "name": "account",
          "type": "address"
        }
      ],
      "name": "renounceRole",
      "outputs": [],
      "stateMutability": "nonpayable",
      "type": "function"
    },
    {
      "inputs": [
        {
          "internalType": "bytes32",
          "name": "role",
          "type": "bytes32"
        },
        {
          "internalType": "address",
          "name": "account",
          "type": "address"
        }
      ],
      "name": "revokeRole",
      "outputs": [],
      "stateMutability": "nonpayable",
      "type": "function"
    },
    {
      "inputs": [
        {
          "internalType": "address",
          "name": "from",
          "type": "address"
        },
        {
          "internalType": "address",
          "name": "to",
          "type": "address"
        },
        {
          "internalType": "uint256[]",
          "name": "ids",
          "type": "uint256[]"
        },
        {
          "internalType": "uint256[]",
          "name": "amounts",
          "type": "uint256[]"
        },
        {
          "internalType": "bytes",
          "name": "data",
          "type": "bytes"
        }
      ],
      "name": "safeBatchTransferFrom",
      "outputs": [],
      "stateMutability": "nonpayable",
      "type": "function"
    },
    {
      "inputs": [
        {
          "internalType": "address",
          "name": "from",
          "type": "address"
        },
        {
          "internalType": "address",
          "name": "to",
          "type": "address"
        },
        {
          "internalType": "uint256",
          "name": "id",
          "type": "uint256"
        },
        {
          "internalType": "uint256",
          "name": "amount",
          "type": "uint256"
        },
        {
          "internalType": "bytes",
          "name": "data",
          "type": "bytes"
        }
      ],
      "name": "safeTransferFrom",
      "outputs": [],
      "stateMutability": "nonpayable",
      "type": "function"
    },
    {
      "inputs": [
        {
          "internalType": "address",
          "name": "operator",
          "type": "address"
        },
        {
          "internalType": "bool",
          "name": "approved",
          "type": "bool"
        }
      ],
      "name": "setApprovalForAll",
      "outputs": [],
      "stateMutability": "nonpayable",
      "type": "function"
    },
    {
      "inputs": [
        {
          "internalType": "uint256",
          "name": "",
          "type": "uint256"
        }
      ],
      "name": "uri",
      "outputs": [
        {
          "internalType": "string",
          "name": "",
          "type": "string"
        }
      ],
      "stateMutability": "view",
      "type": "function",
      "constant": true
    },
    {
      "inputs": [
        {
          "internalType": "address",
          "name": "to",
          "type": "address"
        },
        {
          "internalType": "uint256",
          "name": "id",
          "type": "uint256"
        },
        {
          "internalType": "uint256",
          "name": "amount",
          "type": "uint256"
        },
        {
          "internalType": "bytes",
          "name": "data",
          "type": "bytes"
        }
      ],
      "name": "mint",
      "outputs": [],
      "stateMutability": "nonpayable",
      "type": "function"
    },
    {
      "inputs": [
        {
          "internalType": "address",
          "name": "to",
          "type": "address"
        },
        {
          "internalType": "uint256[]",
          "name": "ids",
          "type": "uint256[]"
        },
        {
          "internalType": "uint256[]",
          "name": "amounts",
          "type": "uint256[]"
        },
        {
          "internalType": "bytes",
          "name": "data",
          "type": "bytes"
        }
      ],
      "name": "mintBatch",
      "outputs": [],
      "stateMutability": "nonpayable",
      "type": "function"
    },
    {
      "inputs": [],
      "name": "pause",
      "outputs": [],
      "stateMutability": "nonpayable",
      "type": "function"
    },
    {
      "inputs": [],
      "name": "unpause",
      "outputs": [],
      "stateMutability": "nonpayable",
      "type": "function"
    },
    {
      "inputs": [
        {
          "internalType": "bytes4",
          "name": "interfaceId",
          "type": "bytes4"
        }
      ],
      "name": "supportsInterface",
      "outputs": [
        {
          "internalType": "bool",
          "name": "",
          "type": "bool"
        }
      ],
      "stateMutability": "view",
      "type": "function",
      "constant": true
    }
  ],
  "bytecode": "0x60806040523480156200001157600080fd5b506040516200319d3803806200319d8339810160408190526200003491620002f2565b806200004981640100000000620000f3810204565b506005805460ff191690556200007c60006200006d64010000000062000105810204565b64010000000062000109810204565b620000b47f9f2df0fed2c77648de5860a4cc508cd0818c85b8b8a1ab4ceeef8d981c8956a66200006d64010000000062000105810204565b620000ec7f65d7a28e3265b37a6474929f336521b332c1681b933f6cb9f3376673440d862a6200006d64010000000062000105810204565b5062000540565b60046200010182826200046e565b5050565b3390565b6200010182826401000000006200011e810204565b62000138828264010000000062000b076200016582021704565b600082815260016020526040902062000160908264010000000062000b8b6200020182021704565b505050565b6200017a82826401000000006200022a810204565b6200010157600082815260208181526040808320600160a060020a03851684529091529020805460ff19166001179055620001bd64010000000062000105810204565b600160a060020a031681600160a060020a0316837f2f8788117e7eff1d82e926ec794901d17c78024a50270940304540a733656f0d60405160405180910390a45050565b60006200022183600160a060020a03841664010000000062000253810204565b90505b92915050565b600091825260208281526040808420600160a060020a0393909316845291905290205460ff1690565b60006200026a8383640100000000620002ab810204565b620002a25750815460018181018455600084815260208082209093018490558454848252828601909352604090209190915562000224565b50600062000224565b60009081526001919091016020526040902054151590565b7f4e487b7100000000000000000000000000000000000000000000000000000000600052604160045260246000fd5b600060208083850312156200030657600080fd5b82516001604060020a03808211156200031e57600080fd5b818501915085601f8301126200033357600080fd5b815181811115620003485762000348620002c3565b604051601f8201601f19908116603f01168101908382118183101715620003735762000373620002c3565b8160405282815288868487010111156200038c57600080fd5b600093505b82841015620003b0578484018601518185018701529285019262000391565b600086848301015280965050505050505092915050565b600281046001821680620003dc57607f821691505b60208210810362000416577f4e487b7100000000000000000000000000000000000000000000000000000000600052602260045260246000fd5b50919050565b601f82111562000160576000818152602081206020601f86010481016020861015620004455750805b6020601f860104820191505b81811015620004665782815560010162000451565b505050505050565b81516001604060020a038111156200048a576200048a620002c3565b620004a2816200049b8454620003c7565b846200041c565b602080601f831160018114620004de5760008415620004c15750858301515b60028086026008870290910a600019041982161786555062000466565b600085815260208120601f198616915b828110156200050f57888601518255948401946001909101908401620004ee565b50858210156200053057878501516008601f88160260020a60001904191681555b5050505050600202600101905550565b612c4d80620005506000396000f3fe608060405234801561001057600080fd5b506004361061018f576000357c010000000000000000000000000000000000000000000000000000000090048063731133e9116100fb578063ca15c873116100b4578063e63ab1e91161008e578063e63ab1e914610375578063e985e9c51461039c578063f242432a146103d8578063f5298aca146103eb57600080fd5b8063ca15c87314610328578063d53913931461033b578063d547741f1461036257600080fd5b8063731133e9146102b45780638456cb59146102c75780639010d07c146102cf57806391d14854146102fa578063a217fddf1461030d578063a22cb4651461031557600080fd5b80632f2ff15d1161014d5780632f2ff15d1461024857806336568abe1461025b5780633f4ba83a1461026e5780634e1273f4146102765780635c975abb146102965780636b20c454146102a157600080fd5b8062fdd58e1461019457806301ffc9a7146101ba5780630e89341c146101dd5780631f7fdffa146101fd578063248a9ca3146102125780632eb2c2d614610235575b600080fd5b6101a76101a2366004611f77565b6103fe565b6040519081526020015b60405180910390f35b6101cd6101c8366004611fb7565b6104af565b60405190151581526020016101b1565b6101f06101eb366004611fd4565b6104ba565b6040516101b1919061203d565b61021061020b36600461219c565b61054e565b005b6101a7610220366004611fd4565b60009081526020819052604090206001015490565b610210610243366004612235565b6105ff565b6102106102563660046122df565b61064e565b6102106102693660046122df565b610678565b610210610707565b61028961028436600461230b565b6107b0565b6040516101b1919061240e565b60055460ff166101cd565b6102106102af366004612421565b6108f1565b6102106102c2366004612495565b610937565b610210610943565b6102e26102dd3660046124ea565b6109ea565b604051600160a060020a0390911681526020016101b1565b6101cd6103083660046122df565b610a09565b6101a7600081565b61021061032336600461250c565b610a32565b6101a7610336366004611fd4565b610a3d565b6101a77f9f2df0fed2c77648de5860a4cc508cd0818c85b8b8a1ab4ceeef8d981c8956a681565b6102106103703660046122df565b610a54565b6101a77f65d7a28e3265b37a6474929f336521b332c1681b933f6cb9f3376673440d862a81565b6101cd6103aa366004612548565b600160a060020a03918216600090815260036020908152604080832093909416825291909152205460ff1690565b6102106103e6366004612572565b610a79565b6102106103f93660046125d7565b610ac1565b6000600160a060020a0383166104845760405160e560020a62461bcd02815260206004820152602a60248201527f455243313135353a2061646472657373207a65726f206973206e6f742061207660448201527f616c6964206f776e65720000000000000000000000000000000000000000000060648201526084015b60405180910390fd5b506000818152600260209081526040808320600160a060020a03861684529091529020545b92915050565b60006104a982610ba0565b6060600480546104c99061260a565b80601f01602080910402602001604051908101604052809291908181526020018280546104f59061260a565b80156105425780601f1061051757610100808354040283529160200191610542565b820191906000526020600020905b81548152906001019060200180831161052557829003601f168201915b50505050509050919050565b6105787f9f2df0fed2c77648de5860a4cc508cd0818c85b8b8a1ab4ceeef8d981c8956a633610a09565b6105ed5760405160e560020a62461bcd02815260206004820152603860248201527f455243313135355072657365744d696e7465725061757365723a206d7573742060448201527f68617665206d696e74657220726f6c6520746f206d696e740000000000000000606482015260840161047b565b6105f984848484610c12565b50505050565b600160a060020a03851633148061061b575061061b85336103aa565b61063a5760405160e560020a62461bcd02815260040161047b90612647565b6106478585858585610d73565b5050505050565b60008281526020819052604090206001015461066981610f29565b6106738383610f36565b505050565b600160a060020a03811633146106f95760405160e560020a62461bcd02815260206004820152602f60248201527f416363657373436f6e74726f6c3a2063616e206f6e6c792072656e6f756e636560448201527f20726f6c657320666f722073656c660000000000000000000000000000000000606482015260840161047b565b6107038282610f58565b5050565b6107317f65d7a28e3265b37a6474929f336521b332c1681b933f6cb9f3376673440d862a33610a09565b6107a65760405160e560020a62461bcd02815260206004820152603b60248201527f455243313135355072657365744d696e7465725061757365723a206d7573742060448201527f686176652070617573657220726f6c6520746f20756e70617573650000000000606482015260840161047b565b6107ae610f7a565b565b6060815183511461082c5760405160e560020a62461bcd02815260206004820152602960248201527f455243313135353a206163636f756e747320616e6420696473206c656e67746860448201527f206d69736d617463680000000000000000000000000000000000000000000000606482015260840161047b565b6000835167ffffffffffffffff81111561084857610848612050565b604051908082528060200260200182016040528015610871578160200160208202803683370190505b50905060005b84518110156108e9576108bc858281518110610895576108956126a4565b60200260200101518583815181106108af576108af6126a4565b60200260200101516103fe565b8282815181106108ce576108ce6126a4565b60209081029190910101526108e2816126d6565b9050610877565b509392505050565b600160a060020a03831633148061090d575061090d83336103aa565b61092c5760405160e560020a62461bcd02815260040161047b90612647565b610673838383610fcc565b6105f984848484611174565b61096d7f65d7a28e3265b37a6474929f336521b332c1681b933f6cb9f3376673440d862a33610a09565b6109e25760405160e560020a62461bcd02815260206004820152603960248201527f455243313135355072657365744d696e7465725061757365723a206d7573742060448201527f686176652070617573657220726f6c6520746f20706175736500000000000000606482015260840161047b565b6107ae611262565b6000828152600160205260408120610a02908361129f565b9392505050565b600091825260208281526040808420600160a060020a0393909316845291905290205460ff1690565b6107033383836112ab565b60008181526001602052604081206104a9906113a2565b600082815260208190526040902060010154610a6f81610f29565b6106738383610f58565b600160a060020a038516331480610a955750610a9585336103aa565b610ab45760405160e560020a62461bcd02815260040161047b90612647565b61064785858585856113ac565b600160a060020a038316331480610add5750610add83336103aa565b610afc5760405160e560020a62461bcd02815260040161047b90612647565b6106738383836114ee565b610b118282610a09565b61070357600082815260208181526040808320600160a060020a03851684529091529020805460ff19166001179055610b473390565b600160a060020a031681600160a060020a0316837f2f8788117e7eff1d82e926ec794901d17c78024a50270940304540a733656f0d60405160405180910390a45050565b6000610a0283600160a060020a038416611610565b6000600160e060020a031982167fd9b67a26000000000000000000000000000000000000000000000000000000001480610c035750600160e060020a031982167f0e89341c00000000000000000000000000000000000000000000000000000000145b806104a957506104a98261165f565b600160a060020a038416610c3b5760405160e560020a62461bcd02815260040161047b906126ef565b8151835114610c5f5760405160e560020a62461bcd02815260040161047b9061274c565b33610c6f8160008787878761169d565b60005b8451811015610d0b57838181518110610c8d57610c8d6126a4565b602002602001015160026000878481518110610cab57610cab6126a4565b60200260200101518152602001908152602001600020600088600160a060020a0316600160a060020a031681526020019081526020016000206000828254610cf391906127a9565b90915550819050610d03816126d6565b915050610c72565b5084600160a060020a03166000600160a060020a031682600160a060020a03167f4a39dc06d4c0dbc64b70af90fd698a233a518aa5d07e595d983b8c0526c8f7fb8787604051610d5c9291906127bc565b60405180910390a4610647816000878787876116ab565b8151835114610d975760405160e560020a62461bcd02815260040161047b9061274c565b600160a060020a038416610dc05760405160e560020a62461bcd02815260040161047b906127ea565b33610dcf81878787878761169d565b60005b8451811015610ebb576000858281518110610def57610def6126a4565b602002602001015190506000858381518110610e0d57610e0d6126a4565b6020908102919091018101516000848152600283526040808220600160a060020a038e168352909352919091205490915081811015610e615760405160e560020a62461bcd02815260040161047b90612847565b6000838152600260209081526040808320600160a060020a038e8116855292528083208585039055908b16825281208054849290610ea09084906127a9565b9250508190555050505080610eb4906126d6565b9050610dd2565b5084600160a060020a031686600160a060020a031682600160a060020a03167f4a39dc06d4c0dbc64b70af90fd698a233a518aa5d07e595d983b8c0526c8f7fb8787604051610f0b9291906127bc565b60405180910390a4610f218187878787876116ab565b505050505050565b610f33813361184a565b50565b610f408282610b07565b60008281526001602052604090206106739082610b8b565b610f6282826118b1565b60008281526001602052604090206106739082611916565b610f8261192b565b6005805460ff191690557f5db9ee0a495bf2e6ff9c91a7834c1ba4fdd244a5e8aa4e537bd38aeae4b073aa335b604051600160a060020a03909116815260200160405180910390a1565b600160a060020a038316610ff55760405160e560020a62461bcd02815260040161047b906128a4565b80518251146110195760405160e560020a62461bcd02815260040161047b9061274c565b600033905061103c8185600086866040518060200160405280600081525061169d565b60005b835181101561110757600084828151811061105c5761105c6126a4565b60200260200101519050600084838151811061107a5761107a6126a4565b6020908102919091018101516000848152600283526040808220600160a060020a038c1683529093529190912054909150818110156110ce5760405160e560020a62461bcd02815260040161047b90612901565b6000928352600260209081526040808520600160a060020a038b16865290915290922091039055806110ff816126d6565b91505061103f565b506000600160a060020a031684600160a060020a031682600160a060020a03167f4a39dc06d4c0dbc64b70af90fd698a233a518aa5d07e595d983b8c0526c8f7fb86866040516111589291906127bc565b60405180910390a46040805160208101909152600090526105f9565b600160a060020a03841661119d5760405160e560020a62461bcd02815260040161047b906126ef565b3360006111a985611980565b905060006111b685611980565b90506111c78360008985858961169d565b6000868152600260209081526040808320600160a060020a038b168452909152812080548792906111f99084906127a9565b90915550506040805187815260208101879052600160a060020a03808a1692600092918716917fc3d58168c5ae7397731d063d5bbf3d657854427343f4c083240f7aacaa2d0f62910160405180910390a4611259836000898989896119cb565b50505050505050565b61126a611abb565b6005805460ff191660011790557f62e78cea01bee320cd4e420270b5ea74000d11b0c9f74754ebdbfc544b05a258610faf3390565b6000610a028383611b11565b81600160a060020a031683600160a060020a0316036113355760405160e560020a62461bcd02815260206004820152602960248201527f455243313135353a2073657474696e6720617070726f76616c2073746174757360448201527f20666f722073656c660000000000000000000000000000000000000000000000606482015260840161047b565b600160a060020a03838116600081815260036020908152604080832094871680845294825291829020805460ff191686151590811790915591519182527f17307eab39ab6107e8899845ad3d59bd9653f200f220920489ca2b5937696c31910160405180910390a3505050565b60006104a9825490565b600160a060020a0384166113d55760405160e560020a62461bcd02815260040161047b906127ea565b3360006113e185611980565b905060006113ee85611980565b90506113fe83898985858961169d565b6000868152600260209081526040808320600160a060020a038c168452909152902054858110156114445760405160e560020a62461bcd02815260040161047b90612847565b6000878152600260209081526040808320600160a060020a038d8116855292528083208985039055908a168252812080548892906114839084906127a9565b90915550506040805188815260208101889052600160a060020a03808b16928c821692918816917fc3d58168c5ae7397731d063d5bbf3d657854427343f4c083240f7aacaa2d0f62910160405180910390a46114e3848a8a8a8a8a6119cb565b505050505050505050565b600160a060020a0383166115175760405160e560020a62461bcd02815260040161047b906128a4565b33600061152384611980565b9050600061153084611980565b90506115508387600085856040518060200160405280600081525061169d565b6000858152600260209081526040808320600160a060020a038a168452909152902054848110156115965760405160e560020a62461bcd02815260040161047b90612901565b6000868152600260209081526040808320600160a060020a038b81168086529184528285208a8703905582518b81529384018a90529092908816917fc3d58168c5ae7397731d063d5bbf3d657854427343f4c083240f7aacaa2d0f62910160405180910390a4604080516020810190915260009052611259565b6000818152600183016020526040812054611657575081546001818101845560008481526020808220909301849055845484825282860190935260409020919091556104a9565b5060006104a9565b6000600160e060020a031982167f5a05180f0000000000000000000000000000000000000000000000000000000014806104a957506104a982611b3b565b610f21868686868686611ba2565b600160a060020a0384163b15610f21576040517fbc197c81000000000000000000000000000000000000000000000000000000008152600160a060020a0385169063bc197c8190611708908990899088908890889060040161295e565b6020604051808303816000875af1925050508015611743575060408051601f3d908101601f19168201909252611740918101906129bc565b60015b6117fe5761174f6129d9565b806308c379a00361178b5750611763612a12565b8061176e575061178d565b8060405160e560020a62461bcd02815260040161047b919061203d565b505b60405160e560020a62461bcd02815260206004820152603460248201527f455243313135353a207472616e7366657220746f206e6f6e204552433131353560448201527f526563656976657220696d706c656d656e746572000000000000000000000000606482015260840161047b565b600160e060020a031981167fbc197c8100000000000000000000000000000000000000000000000000000000146112595760405160e560020a62461bcd02815260040161047b90612a9c565b6118548282610a09565b6107035761186c81600160a060020a03166014611c1e565b611877836020611c1e565b604051602001611888929190612af9565b60408051601f198184030181529082905260e560020a62461bcd02825261047b9160040161203d565b6118bb8282610a09565b1561070357600082815260208181526040808320600160a060020a0385168085529252808320805460ff1916905551339285917ff6391f5c32d9c69d2a47ea670b442974b53935d1edc7fd64eb21e047a839171b9190a45050565b6000610a0283600160a060020a038416611e68565b60055460ff166107ae5760405160e560020a62461bcd02815260206004820152601460248201527f5061757361626c653a206e6f7420706175736564000000000000000000000000604482015260640161047b565b604080516001808252818301909252606091600091906020808301908036833701905050905082816000815181106119ba576119ba6126a4565b602090810291909101015292915050565b600160a060020a0384163b15610f21576040517ff23a6e61000000000000000000000000000000000000000000000000000000008152600160a060020a0385169063f23a6e6190611a289089908990889088908890600401612b7a565b6020604051808303816000875af1925050508015611a63575060408051601f3d908101601f19168201909252611a60918101906129bc565b60015b611a6f5761174f6129d9565b600160e060020a031981167ff23a6e6100000000000000000000000000000000000000000000000000000000146112595760405160e560020a62461bcd02815260040161047b90612a9c565b60055460ff16156107ae5760405160e560020a62461bcd02815260206004820152601060248201527f5061757361626c653a2070617573656400000000000000000000000000000000604482015260640161047b565b6000826000018281548110611b2857611b286126a4565b9060005260206000200154905092915050565b6000600160e060020a031982167f7965db0b0000000000000000000000000000000000000000000000000000000014806104a957507f01ffc9a700000000000000000000000000000000000000000000000000000000600160e060020a03198316146104a9565b60055460ff1615610f215760405160e560020a62461bcd02815260206004820152602c60248201527f455243313135355061757361626c653a20746f6b656e207472616e736665722060448201527f7768696c65207061757365640000000000000000000000000000000000000000606482015260840161047b565b60606000611c2d836002612bbd565b611c389060026127a9565b67ffffffffffffffff811115611c5057611c50612050565b6040519080825280601f01601f191660200182016040528015611c7a576020820181803683370190505b5090507f300000000000000000000000000000000000000000000000000000000000000081600081518110611cb157611cb16126a4565b60200101907effffffffffffffffffffffffffffffffffffffffffffffffffffffffffffff1916908160001a9053507f780000000000000000000000000000000000000000000000000000000000000081600181518110611d1457611d146126a4565b60200101907effffffffffffffffffffffffffffffffffffffffffffffffffffffffffffff1916908160001a9053506000611d50846002612bbd565b611d5b9060016127a9565b90505b6001811115611e16577f303132333435363738396162636465660000000000000000000000000000000085600f1660108110611d9c57611d9c6126a4565b1a7f010000000000000000000000000000000000000000000000000000000000000002828281518110611dd157611dd16126a4565b60200101907effffffffffffffffffffffffffffffffffffffffffffffffffffffffffffff1916908160001a905350601090940493611e0f81612bd4565b9050611d5e565b508315610a025760405160e560020a62461bcd02815260206004820181905260248201527f537472696e67733a20686578206c656e67746820696e73756666696369656e74604482015260640161047b565b60008181526001830160205260408120548015611f51576000611e8c600183612beb565b8554909150600090611ea090600190612beb565b9050818114611f05576000866000018281548110611ec057611ec06126a4565b9060005260206000200154905080876000018481548110611ee357611ee36126a4565b6000918252602080832090910192909255918252600188019052604090208390555b8554869080611f1657611f16612bfe565b6001900381819060005260206000200160009055905585600101600086815260200190815260200160002060009055600193505050506104a9565b60009150506104a9565b8035600160a060020a0381168114611f7257600080fd5b919050565b60008060408385031215611f8a57600080fd5b611f9383611f5b565b946020939093013593505050565b600160e060020a031981168114610f3357600080fd5b600060208284031215611fc957600080fd5b8135610a0281611fa1565b600060208284031215611fe657600080fd5b5035919050565b60005b83811015612008578181015183820152602001611ff0565b50506000910152565b60008151808452612029816020860160208601611fed565b601f01601f19169290920160200192915050565b602081526000610a026020830184612011565b60e060020a634e487b7102600052604160045260246000fd5b601f8201601f1916810167ffffffffffffffff8111828210171561208f5761208f612050565b6040525050565b600067ffffffffffffffff8211156120b0576120b0612050565b5060209081020190565b600082601f8301126120cb57600080fd5b813560206120d882612096565b6040516120e58282612069565b838152928202850182019282810191508684111561210257600080fd5b8286015b8481101561211d5780358352918301918301612106565b509695505050505050565b600082601f83011261213957600080fd5b813567ffffffffffffffff81111561215357612153612050565b60405161216a601f8301601f191660200182612069565b81815284602083860101111561217f57600080fd5b816020850160208301376000918101602001919091529392505050565b600080600080608085870312156121b257600080fd5b6121bb85611f5b565b9350602085013567ffffffffffffffff808211156121d857600080fd5b6121e4888389016120ba565b945060408701359150808211156121fa57600080fd5b612206888389016120ba565b9350606087013591508082111561221c57600080fd5b5061222987828801612128565b91505092959194509250565b600080600080600060a0868803121561224d57600080fd5b61225686611f5b565b945061226460208701611f5b565b9350604086013567ffffffffffffffff8082111561228157600080fd5b61228d89838a016120ba565b945060608801359150808211156122a357600080fd5b6122af89838a016120ba565b935060808801359150808211156122c557600080fd5b506122d288828901612128565b9150509295509295909350565b600080604083850312156122f257600080fd5b8235915061230260208401611f5b565b90509250929050565b6000806040838503121561231e57600080fd5b823567ffffffffffffffff8082111561233657600080fd5b818501915085601f83011261234a57600080fd5b8135602061235782612096565b6040516123648282612069565b838152928202850182019282810191508984111561238157600080fd5b948201945b838610156123a65761239786611f5b565b82529482019490820190612386565b965050860135925050808211156123bc57600080fd5b506123c9858286016120ba565b9150509250929050565b600081518084526020808501945080840160005b83811015612403578151875295820195908201906001016123e7565b509495945050505050565b602081526000610a0260208301846123d3565b60008060006060848603121561243657600080fd5b61243f84611f5b565b9250602084013567ffffffffffffffff8082111561245c57600080fd5b612468878388016120ba565b9350604086013591508082111561247e57600080fd5b5061248b868287016120ba565b9150509250925092565b600080600080608085870312156124ab57600080fd5b6124b485611f5b565b93506020850135925060408501359150606085013567ffffffffffffffff8111156124de57600080fd5b61222987828801612128565b600080604083850312156124fd57600080fd5b50508035926020909101359150565b6000806040838503121561251f57600080fd5b61252883611f5b565b91506020830135801515811461253d57600080fd5b809150509250929050565b6000806040838503121561255b57600080fd5b61256483611f5b565b915061230260208401611f5b565b600080600080600060a0868803121561258a57600080fd5b61259386611f5b565b94506125a160208701611f5b565b93506040860135925060608601359150608086013567ffffffffffffffff8111156125cb57600080fd5b6122d288828901612128565b6000806000606084860312156125ec57600080fd5b6125f584611f5b565b95602085013595506040909401359392505050565b60028104600182168061261e57607f821691505b6020821081036126415760e060020a634e487b7102600052602260045260246000fd5b50919050565b6020808252602f908201527f455243313135353a2063616c6c6572206973206e6f7420746f6b656e206f776e60408201527f6572206e6f7220617070726f7665640000000000000000000000000000000000606082015260800190565b60e060020a634e487b7102600052603260045260246000fd5b60e060020a634e487b7102600052601160045260246000fd5b6000600182016126e8576126e86126bd565b5060010190565b60208082526021908201527f455243313135353a206d696e7420746f20746865207a65726f2061646472657360408201527f7300000000000000000000000000000000000000000000000000000000000000606082015260800190565b60208082526028908201527f455243313135353a2069647320616e6420616d6f756e7473206c656e6774682060408201527f6d69736d61746368000000000000000000000000000000000000000000000000606082015260800190565b808201808211156104a9576104a96126bd565b6040815260006127cf60408301856123d3565b82810360208401526127e181856123d3565b95945050505050565b60208082526025908201527f455243313135353a207472616e7366657220746f20746865207a65726f20616460408201527f6472657373000000000000000000000000000000000000000000000000000000606082015260800190565b6020808252602a908201527f455243313135353a20696e73756666696369656e742062616c616e636520666f60408201527f72207472616e7366657200000000000000000000000000000000000000000000606082015260800190565b60208082526023908201527f455243313135353a206275726e2066726f6d20746865207a65726f206164647260408201527f6573730000000000000000000000000000000000000000000000000000000000606082015260800190565b60208082526024908201527f455243313135353a206275726e20616d6f756e7420657863656564732062616c60408201527f616e636500000000000000000000000000000000000000000000000000000000606082015260800190565b6000600160a060020a03808816835280871660208401525060a0604083015261298a60a08301866123d3565b828103606084015261299c81866123d3565b905082810360808401526129b08185612011565b98975050505050505050565b6000602082840312156129ce57600080fd5b8151610a0281611fa1565b600060033d1115612a0f5760046000803e7c01000000000000000000000000000000000000000000000000000000006000510490505b90565b600060443d1015612a205790565b6040516003193d81016004833e81513d67ffffffffffffffff8160248401118184111715612a5057505050505090565b8285019150815181811115612a685750505050505090565b843d8701016020828501011115612a825750505050505090565b612a9160208286010187612069565b509095945050505050565b60208082526028908201527f455243313135353a204552433131353552656365697665722072656a6563746560408201527f6420746f6b656e73000000000000000000000000000000000000000000000000606082015260800190565b7f416363657373436f6e74726f6c3a206163636f756e7420000000000000000000815260008351612b31816017850160208801611fed565b7f206973206d697373696e6720726f6c65200000000000000000000000000000006017918401918201528351612b6e816028840160208801611fed565b01602801949350505050565b6000600160a060020a03808816835280871660208401525084604083015283606083015260a06080830152612bb260a0830184612011565b979650505050505050565b80820281158282048414176104a9576104a96126bd565b600081612be357612be36126bd565b506000190190565b818103818111156104a9576104a96126bd565b60e060020a634e487b7102600052603160045260246000fdfea2646970667358221220c9410fc2e276b6d76e26b74d3f69c73cce5445a3698a80268c5145a23570069c64736f6c63430008110033",
  "immutableReferences": {},
  "source": "// SPDX-License-Identifier: MIT\r\n// OpenZeppelin Contracts (last updated v4.5.0) (token/ERC1155/presets/ERC1155PresetMinterPauser.sol)\r\n\r\npragma solidity ^0.8.0;\r\n\r\nimport \"@openzeppelin/contracts/token/ERC1155/ERC1155.sol\";\r\nimport \"@openzeppelin/contracts/token/ERC1155/extensions/ERC1155Burnable.sol\";\r\nimport \"@openzeppelin/contracts/token/ERC1155/extensions/ERC1155Pausable.sol\";\r\nimport \"@openzeppelin/contracts/access/AccessControlEnumerable.sol\";\r\nimport \"@openzeppelin/contracts/utils/Context.sol\";\r\n\r\n/**\r\n * @dev {ERC1155} token, including:\r\n *\r\n *  - ability for holders to burn (destroy) their tokens\r\n *  - a minter role that allows for token minting (creation)\r\n *  - a pauser role that allows to stop all token transfers\r\n *\r\n * This contract uses {AccessControl} to lock permissioned functions using the\r\n * different roles - head to its documentation for details.\r\n *\r\n * The account that deploys the contract will be granted the minter and pauser\r\n * roles, as well as the default admin role, which will let it grant both minter\r\n * and pauser roles to other accounts.\r\n *\r\n * _Deprecated in favor of https://wizard.openzeppelin.com/[Contracts Wizard]._\r\n */\r\ncontract ERC1155PresetMinterPauser is Context, AccessControlEnumerable, ERC1155Burnable, ERC1155Pausable {\r\n    bytes32 public constant MINTER_ROLE = keccak256(\"MINTER_ROLE\");\r\n    bytes32 public constant PAUSER_ROLE = keccak256(\"PAUSER_ROLE\");\r\n\r\n    /**\r\n     * @dev Grants `DEFAULT_ADMIN_ROLE`, `MINTER_ROLE`, and `PAUSER_ROLE` to the account that\r\n     * deploys the contract.\r\n     */\r\n    constructor(string memory uri) ERC1155(uri) {\r\n        _setupRole(DEFAULT_ADMIN_ROLE, _msgSender());\r\n\r\n        _setupRole(MINTER_ROLE, _msgSender());\r\n        _setupRole(PAUSER_ROLE, _msgSender());\r\n    }\r\n\r\n    /**\r\n     * @dev Creates `amount` new tokens for `to`, of token type `id`.\r\n     *\r\n     * See {ERC1155-_mint}.\r\n     *\r\n     * Requirements:\r\n     *\r\n     * - the caller must have the `MINTER_ROLE`.\r\n     */\r\n    function mint(\r\n        address to,\r\n        uint256 id,\r\n        uint256 amount,\r\n        bytes memory data\r\n    ) public virtual {\r\n        //require(hasRole(MINTER_ROLE, _msgSender()), \"ERC1155PresetMinterPauser: must have minter role to mint\");\r\n\r\n        _mint(to, id, amount, data);\r\n    }\r\n\r\n    /**\r\n     * @dev xref:ROOT:erc1155.adoc#batch-operations[Batched] variant of {mint}.\r\n     */\r\n    function mintBatch(\r\n        address to,\r\n        uint256[] memory ids,\r\n        uint256[] memory amounts,\r\n        bytes memory data\r\n    ) public virtual {\r\n        require(hasRole(MINTER_ROLE, _msgSender()), \"ERC1155PresetMinterPauser: must have minter role to mint\");\r\n\r\n        _mintBatch(to, ids, amounts, data);\r\n    }\r\n\r\n    /**\r\n     * @dev Pauses all token transfers.\r\n     *\r\n     * See {ERC1155Pausable} and {Pausable-_pause}.\r\n     *\r\n     * Requirements:\r\n     *\r\n     * - the caller must have the `PAUSER_ROLE`.\r\n     */\r\n    function pause() public virtual {\r\n        require(hasRole(PAUSER_ROLE, _msgSender()), \"ERC1155PresetMinterPauser: must have pauser role to pause\");\r\n        _pause();\r\n    }\r\n\r\n    /**\r\n     * @dev Unpauses all token transfers.\r\n     *\r\n     * See {ERC1155Pausable} and {Pausable-_unpause}.\r\n     *\r\n     * Requirements:\r\n     *\r\n     * - the caller must have the `PAUSER_ROLE`.\r\n     */\r\n    function unpause() public virtual {\r\n        require(hasRole(PAUSER_ROLE, _msgSender()), \"ERC1155PresetMinterPauser: must have pauser role to unpause\");\r\n        _unpause();\r\n    }\r\n\r\n    /**\r\n     * @dev See {IERC165-supportsInterface}.\r\n     */\r\n    function supportsInterface(bytes4 interfaceId)\r\n        public\r\n        view\r\n        virtual\r\n        override(AccessControlEnumerable, ERC1155)\r\n        returns (bool)\r\n    {\r\n        return super.supportsInterface(interfaceId);\r\n    }\r\n\r\n    function _beforeTokenTransfer(\r\n        address operator,\r\n        address from,\r\n        address to,\r\n        uint256[] memory ids,\r\n        uint256[] memory amounts,\r\n        bytes memory data\r\n    ) internal virtual override(ERC1155, ERC1155Pausable) {\r\n        super._beforeTokenTransfer(operator, from, to, ids, amounts, data);\r\n    }\r\n}\r\n",
  "sourcePath": "C:\\Users\\prami\\Documents\\Thesis\\supp_chain\\truffle\\contracts\\ERC1155PresetMinterPauser.sol",
  "compiler": {
    "name": "solc",
    "version": "0.8.17+commit.8df45f5f.Emscripten.clang"
  },
  "schemaVersion": "3.4.10",
  "updatedAt": "2022-11-09T10:44:02.130Z",
  "networkType": "ethereum",
  "devdoc": {
    "details": "{ERC1155} token, including:  - ability for holders to burn (destroy) their tokens  - a minter role that allows for token minting (creation)  - a pauser role that allows to stop all token transfers This contract uses {AccessControl} to lock permissioned functions using the different roles - head to its documentation for details. The account that deploys the contract will be granted the minter and pauser roles, as well as the default admin role, which will let it grant both minter and pauser roles to other accounts. _Deprecated in favor of https://wizard.openzeppelin.com/[Contracts Wizard]._",
    "kind": "dev",
    "methods": {
      "balanceOf(address,uint256)": {
        "details": "See {IERC1155-balanceOf}. Requirements: - `account` cannot be the zero address."
      },
      "balanceOfBatch(address[],uint256[])": {
        "details": "See {IERC1155-balanceOfBatch}. Requirements: - `accounts` and `ids` must have the same length."
      },
      "constructor": {
        "details": "Grants `DEFAULT_ADMIN_ROLE`, `MINTER_ROLE`, and `PAUSER_ROLE` to the account that deploys the contract."
      },
      "getRoleAdmin(bytes32)": {
        "details": "Returns the admin role that controls `role`. See {grantRole} and {revokeRole}. To change a role's admin, use {_setRoleAdmin}."
      },
      "getRoleMember(bytes32,uint256)": {
        "details": "Returns one of the accounts that have `role`. `index` must be a value between 0 and {getRoleMemberCount}, non-inclusive. Role bearers are not sorted in any particular way, and their ordering may change at any point. WARNING: When using {getRoleMember} and {getRoleMemberCount}, make sure you perform all queries on the same block. See the following https://forum.openzeppelin.com/t/iterating-over-elements-on-enumerableset-in-openzeppelin-contracts/2296[forum post] for more information."
      },
      "getRoleMemberCount(bytes32)": {
        "details": "Returns the number of accounts that have `role`. Can be used together with {getRoleMember} to enumerate all bearers of a role."
      },
      "grantRole(bytes32,address)": {
        "details": "Grants `role` to `account`. If `account` had not been already granted `role`, emits a {RoleGranted} event. Requirements: - the caller must have ``role``'s admin role. May emit a {RoleGranted} event."
      },
      "hasRole(bytes32,address)": {
        "details": "Returns `true` if `account` has been granted `role`."
      },
      "isApprovedForAll(address,address)": {
        "details": "See {IERC1155-isApprovedForAll}."
      },
      "mint(address,uint256,uint256,bytes)": {
        "details": "Creates `amount` new tokens for `to`, of token type `id`. See {ERC1155-_mint}. Requirements: - the caller must have the `MINTER_ROLE`."
      },
      "mintBatch(address,uint256[],uint256[],bytes)": {
        "details": "xref:ROOT:erc1155.adoc#batch-operations[Batched] variant of {mint}."
      },
      "pause()": {
        "details": "Pauses all token transfers. See {ERC1155Pausable} and {Pausable-_pause}. Requirements: - the caller must have the `PAUSER_ROLE`."
      },
      "paused()": {
        "details": "Returns true if the contract is paused, and false otherwise."
      },
      "renounceRole(bytes32,address)": {
        "details": "Revokes `role` from the calling account. Roles are often managed via {grantRole} and {revokeRole}: this function's purpose is to provide a mechanism for accounts to lose their privileges if they are compromised (such as when a trusted device is misplaced). If the calling account had been revoked `role`, emits a {RoleRevoked} event. Requirements: - the caller must be `account`. May emit a {RoleRevoked} event."
      },
      "revokeRole(bytes32,address)": {
        "details": "Revokes `role` from `account`. If `account` had been granted `role`, emits a {RoleRevoked} event. Requirements: - the caller must have ``role``'s admin role. May emit a {RoleRevoked} event."
      },
      "safeBatchTransferFrom(address,address,uint256[],uint256[],bytes)": {
        "details": "See {IERC1155-safeBatchTransferFrom}."
      },
      "safeTransferFrom(address,address,uint256,uint256,bytes)": {
        "details": "See {IERC1155-safeTransferFrom}."
      },
      "setApprovalForAll(address,bool)": {
        "details": "See {IERC1155-setApprovalForAll}."
      },
      "supportsInterface(bytes4)": {
        "details": "See {IERC165-supportsInterface}."
      },
      "unpause()": {
        "details": "Unpauses all token transfers. See {ERC1155Pausable} and {Pausable-_unpause}. Requirements: - the caller must have the `PAUSER_ROLE`."
      },
      "uri(uint256)": {
        "details": "See {IERC1155MetadataURI-uri}. This implementation returns the same URI for *all* token types. It relies on the token type ID substitution mechanism https://eips.ethereum.org/EIPS/eip-1155#metadata[defined in the EIP]. Clients calling this function must replace the `\\{id\\}` substring with the actual token type ID."
      }
    },
    "version": 1
  },
  "userdoc": {
    "kind": "user",
    "methods": {},
    "version": 1
  }
}