{
  "contractName": "ERC1155PresetMinterPauser",
  "abi": [
    {
      "inputs": [
        {
          "internalType": "string",
          "name": "uri",
          "type": "string"
        }
      ],
      "stateMutability": "nonpayable",
      "type": "constructor"
    },
    {
      "anonymous": false,
      "inputs": [
        {
          "indexed": true,
          "internalType": "address",
          "name": "account",
          "type": "address"
        },
        {
          "indexed": true,
          "internalType": "address",
          "name": "operator",
          "type": "address"
        },
        {
          "indexed": false,
          "internalType": "bool",
          "name": "approved",
          "type": "bool"
        }
      ],
      "name": "ApprovalForAll",
      "type": "event"
    },
    {
      "anonymous": false,
      "inputs": [
        {
          "indexed": false,
          "internalType": "address",
          "name": "account",
          "type": "address"
        }
      ],
      "name": "Paused",
      "type": "event"
    },
    {
      "anonymous": false,
      "inputs": [
        {
          "indexed": true,
          "internalType": "bytes32",
          "name": "role",
          "type": "bytes32"
        },
        {
          "indexed": true,
          "internalType": "bytes32",
          "name": "previousAdminRole",
          "type": "bytes32"
        },
        {
          "indexed": true,
          "internalType": "bytes32",
          "name": "newAdminRole",
          "type": "bytes32"
        }
      ],
      "name": "RoleAdminChanged",
      "type": "event"
    },
    {
      "anonymous": false,
      "inputs": [
        {
          "indexed": true,
          "internalType": "bytes32",
          "name": "role",
          "type": "bytes32"
        },
        {
          "indexed": true,
          "internalType": "address",
          "name": "account",
          "type": "address"
        },
        {
          "indexed": true,
          "internalType": "address",
          "name": "sender",
          "type": "address"
        }
      ],
      "name": "RoleGranted",
      "type": "event"
    },
    {
      "anonymous": false,
      "inputs": [
        {
          "indexed": true,
          "internalType": "bytes32",
          "name": "role",
          "type": "bytes32"
        },
        {
          "indexed": true,
          "internalType": "address",
          "name": "account",
          "type": "address"
        },
        {
          "indexed": true,
          "internalType": "address",
          "name": "sender",
          "type": "address"
        }
      ],
      "name": "RoleRevoked",
      "type": "event"
    },
    {
      "anonymous": false,
      "inputs": [
        {
          "indexed": true,
          "internalType": "address",
          "name": "operator",
          "type": "address"
        },
        {
          "indexed": true,
          "internalType": "address",
          "name": "from",
          "type": "address"
        },
        {
          "indexed": true,
          "internalType": "address",
          "name": "to",
          "type": "address"
        },
        {
          "indexed": false,
          "internalType": "uint256[]",
          "name": "ids",
          "type": "uint256[]"
        },
        {
          "indexed": false,
          "internalType": "uint256[]",
          "name": "values",
          "type": "uint256[]"
        }
      ],
      "name": "TransferBatch",
      "type": "event"
    },
    {
      "anonymous": false,
      "inputs": [
        {
          "indexed": true,
          "internalType": "address",
          "name": "operator",
          "type": "address"
        },
        {
          "indexed": true,
          "internalType": "address",
          "name": "from",
          "type": "address"
        },
        {
          "indexed": true,
          "internalType": "address",
          "name": "to",
          "type": "address"
        },
        {
          "indexed": false,
          "internalType": "uint256",
          "name": "id",
          "type": "uint256"
        },
        {
          "indexed": false,
          "internalType": "uint256",
          "name": "value",
          "type": "uint256"
        }
      ],
      "name": "TransferSingle",
      "type": "event"
    },
    {
      "anonymous": false,
      "inputs": [
        {
          "indexed": false,
          "internalType": "string",
          "name": "value",
          "type": "string"
        },
        {
          "indexed": true,
          "internalType": "uint256",
          "name": "id",
          "type": "uint256"
        }
      ],
      "name": "URI",
      "type": "event"
    },
    {
      "anonymous": false,
      "inputs": [
        {
          "indexed": false,
          "internalType": "address",
          "name": "account",
          "type": "address"
        }
      ],
      "name": "Unpaused",
      "type": "event"
    },
    {
      "inputs": [],
      "name": "DEFAULT_ADMIN_ROLE",
      "outputs": [
        {
          "internalType": "bytes32",
          "name": "",
          "type": "bytes32"
        }
      ],
      "stateMutability": "view",
      "type": "function",
      "constant": true
    },
    {
      "inputs": [],
      "name": "MINTER_ROLE",
      "outputs": [
        {
          "internalType": "bytes32",
          "name": "",
          "type": "bytes32"
        }
      ],
      "stateMutability": "view",
      "type": "function",
      "constant": true
    },
    {
      "inputs": [],
      "name": "PAUSER_ROLE",
      "outputs": [
        {
          "internalType": "bytes32",
          "name": "",
          "type": "bytes32"
        }
      ],
      "stateMutability": "view",
      "type": "function",
      "constant": true
    },
    {
      "inputs": [
        {
          "internalType": "address",
          "name": "account",
          "type": "address"
        },
        {
          "internalType": "uint256",
          "name": "id",
          "type": "uint256"
        }
      ],
      "name": "balanceOf",
      "outputs": [
        {
          "internalType": "uint256",
          "name": "",
          "type": "uint256"
        }
      ],
      "stateMutability": "view",
      "type": "function",
      "constant": true
    },
    {
      "inputs": [
        {
          "internalType": "address[]",
          "name": "accounts",
          "type": "address[]"
        },
        {
          "internalType": "uint256[]",
          "name": "ids",
          "type": "uint256[]"
        }
      ],
      "name": "balanceOfBatch",
      "outputs": [
        {
          "internalType": "uint256[]",
          "name": "",
          "type": "uint256[]"
        }
      ],
      "stateMutability": "view",
      "type": "function",
      "constant": true
    },
    {
      "inputs": [
        {
          "internalType": "address",
          "name": "account",
          "type": "address"
        },
        {
          "internalType": "uint256",
          "name": "id",
          "type": "uint256"
        },
        {
          "internalType": "uint256",
          "name": "value",
          "type": "uint256"
        }
      ],
      "name": "burn",
      "outputs": [],
      "stateMutability": "nonpayable",
      "type": "function"
    },
    {
      "inputs": [
        {
          "internalType": "address",
          "name": "account",
          "type": "address"
        },
        {
          "internalType": "uint256[]",
          "name": "ids",
          "type": "uint256[]"
        },
        {
          "internalType": "uint256[]",
          "name": "values",
          "type": "uint256[]"
        }
      ],
      "name": "burnBatch",
      "outputs": [],
      "stateMutability": "nonpayable",
      "type": "function"
    },
    {
      "inputs": [
        {
          "internalType": "bytes32",
          "name": "role",
          "type": "bytes32"
        }
      ],
      "name": "getRoleAdmin",
      "outputs": [
        {
          "internalType": "bytes32",
          "name": "",
          "type": "bytes32"
        }
      ],
      "stateMutability": "view",
      "type": "function",
      "constant": true
    },
    {
      "inputs": [
        {
          "internalType": "bytes32",
          "name": "role",
          "type": "bytes32"
        },
        {
          "internalType": "uint256",
          "name": "index",
          "type": "uint256"
        }
      ],
      "name": "getRoleMember",
      "outputs": [
        {
          "internalType": "address",
          "name": "",
          "type": "address"
        }
      ],
      "stateMutability": "view",
      "type": "function",
      "constant": true
    },
    {
      "inputs": [
        {
          "internalType": "bytes32",
          "name": "role",
          "type": "bytes32"
        }
      ],
      "name": "getRoleMemberCount",
      "outputs": [
        {
          "internalType": "uint256",
          "name": "",
          "type": "uint256"
        }
      ],
      "stateMutability": "view",
      "type": "function",
      "constant": true
    },
    {
      "inputs": [
        {
          "internalType": "bytes32",
          "name": "role",
          "type": "bytes32"
        },
        {
          "internalType": "address",
          "name": "account",
          "type": "address"
        }
      ],
      "name": "grantRole",
      "outputs": [],
      "stateMutability": "nonpayable",
      "type": "function"
    },
    {
      "inputs": [
        {
          "internalType": "bytes32",
          "name": "role",
          "type": "bytes32"
        },
        {
          "internalType": "address",
          "name": "account",
          "type": "address"
        }
      ],
      "name": "hasRole",
      "outputs": [
        {
          "internalType": "bool",
          "name": "",
          "type": "bool"
        }
      ],
      "stateMutability": "view",
      "type": "function",
      "constant": true
    },
    {
      "inputs": [
        {
          "internalType": "address",
          "name": "account",
          "type": "address"
        },
        {
          "internalType": "address",
          "name": "operator",
          "type": "address"
        }
      ],
      "name": "isApprovedForAll",
      "outputs": [
        {
          "internalType": "bool",
          "name": "",
          "type": "bool"
        }
      ],
      "stateMutability": "view",
      "type": "function",
      "constant": true
    },
    {
      "inputs": [],
      "name": "paused",
      "outputs": [
        {
          "internalType": "bool",
          "name": "",
          "type": "bool"
        }
      ],
      "stateMutability": "view",
      "type": "function",
      "constant": true
    },
    {
      "inputs": [
        {
          "internalType": "bytes32",
          "name": "role",
          "type": "bytes32"
        },
        {
          "internalType": "address",
          "name": "account",
          "type": "address"
        }
      ],
      "name": "renounceRole",
      "outputs": [],
      "stateMutability": "nonpayable",
      "type": "function"
    },
    {
      "inputs": [
        {
          "internalType": "bytes32",
          "name": "role",
          "type": "bytes32"
        },
        {
          "internalType": "address",
          "name": "account",
          "type": "address"
        }
      ],
      "name": "revokeRole",
      "outputs": [],
      "stateMutability": "nonpayable",
      "type": "function"
    },
    {
      "inputs": [
        {
          "internalType": "address",
          "name": "from",
          "type": "address"
        },
        {
          "internalType": "address",
          "name": "to",
          "type": "address"
        },
        {
          "internalType": "uint256[]",
          "name": "ids",
          "type": "uint256[]"
        },
        {
          "internalType": "uint256[]",
          "name": "amounts",
          "type": "uint256[]"
        },
        {
          "internalType": "bytes",
          "name": "data",
          "type": "bytes"
        }
      ],
      "name": "safeBatchTransferFrom",
      "outputs": [],
      "stateMutability": "nonpayable",
      "type": "function"
    },
    {
      "inputs": [
        {
          "internalType": "address",
          "name": "from",
          "type": "address"
        },
        {
          "internalType": "address",
          "name": "to",
          "type": "address"
        },
        {
          "internalType": "uint256",
          "name": "id",
          "type": "uint256"
        },
        {
          "internalType": "uint256",
          "name": "amount",
          "type": "uint256"
        },
        {
          "internalType": "bytes",
          "name": "data",
          "type": "bytes"
        }
      ],
      "name": "safeTransferFrom",
      "outputs": [],
      "stateMutability": "nonpayable",
      "type": "function"
    },
    {
      "inputs": [
        {
          "internalType": "address",
          "name": "operator",
          "type": "address"
        },
        {
          "internalType": "bool",
          "name": "approved",
          "type": "bool"
        }
      ],
      "name": "setApprovalForAll",
      "outputs": [],
      "stateMutability": "nonpayable",
      "type": "function"
    },
    {
      "inputs": [
        {
          "internalType": "uint256",
          "name": "",
          "type": "uint256"
        }
      ],
      "name": "uri",
      "outputs": [
        {
          "internalType": "string",
          "name": "",
          "type": "string"
        }
      ],
      "stateMutability": "view",
      "type": "function",
      "constant": true
    },
    {
      "inputs": [
        {
          "internalType": "address",
          "name": "to",
          "type": "address"
        },
        {
          "internalType": "uint256",
          "name": "id",
          "type": "uint256"
        },
        {
          "internalType": "uint256",
          "name": "amount",
          "type": "uint256"
        },
        {
          "internalType": "bytes",
          "name": "data",
          "type": "bytes"
        }
      ],
      "name": "mint",
      "outputs": [],
      "stateMutability": "nonpayable",
      "type": "function"
    },
    {
      "inputs": [
        {
          "internalType": "address",
          "name": "to",
          "type": "address"
        },
        {
          "internalType": "uint256[]",
          "name": "ids",
          "type": "uint256[]"
        },
        {
          "internalType": "uint256[]",
          "name": "amounts",
          "type": "uint256[]"
        },
        {
          "internalType": "bytes",
          "name": "data",
          "type": "bytes"
        }
      ],
      "name": "mintBatch",
      "outputs": [],
      "stateMutability": "nonpayable",
      "type": "function"
    },
    {
      "inputs": [],
      "name": "pause",
      "outputs": [],
      "stateMutability": "nonpayable",
      "type": "function"
    },
    {
      "inputs": [],
      "name": "unpause",
      "outputs": [],
      "stateMutability": "nonpayable",
      "type": "function"
    },
    {
      "inputs": [
        {
          "internalType": "bytes4",
          "name": "interfaceId",
          "type": "bytes4"
        }
      ],
      "name": "supportsInterface",
      "outputs": [
        {
          "internalType": "bool",
          "name": "",
          "type": "bool"
        }
      ],
      "stateMutability": "view",
      "type": "function",
      "constant": true
    }
  ],
  "bytecode": "0x60806040523480156200001157600080fd5b50604051620054ec380380620054ec833981810160405281019062000037919062000550565b8062000049816200011260201b60201c565b506000600560006101000a81548160ff021916908315150217905550620000896000801b6200007d6200012760201b60201c565b6200012f60201b60201c565b620000ca7f9f2df0fed2c77648de5860a4cc508cd0818c85b8b8a1ab4ceeef8d981c8956a6620000be6200012760201b60201c565b6200012f60201b60201c565b6200010b7f65d7a28e3265b37a6474929f336521b332c1681b933f6cb9f3376673440d862a620000ff6200012760201b60201c565b6200012f60201b60201c565b50620008d3565b8060049081620001239190620007ec565b5050565b600033905090565b6200014182826200014560201b60201c565b5050565b6200015c82826200018d60201b62000e081760201c565b6200018881600160008581526020019081526020016000206200027e60201b62000ee81790919060201c565b505050565b6200019f8282620002b660201b60201c565b6200027a57600160008084815260200190815260200160002060000160008373ffffffffffffffffffffffffffffffffffffffff1673ffffffffffffffffffffffffffffffffffffffff16815260200190815260200160002060006101000a81548160ff0219169083151502179055506200021f6200012760201b60201c565b73ffffffffffffffffffffffffffffffffffffffff168173ffffffffffffffffffffffffffffffffffffffff16837f2f8788117e7eff1d82e926ec794901d17c78024a50270940304540a733656f0d60405160405180910390a45b5050565b6000620002ae836000018373ffffffffffffffffffffffffffffffffffffffff1660001b6200032060201b60201c565b905092915050565b600080600084815260200190815260200160002060000160008373ffffffffffffffffffffffffffffffffffffffff1673ffffffffffffffffffffffffffffffffffffffff16815260200190815260200160002060009054906101000a900460ff16905092915050565b60006200033483836200039a60201b60201c565b6200038f57826000018290806001815401808255809150506001900390600052602060002001600090919091909150558260000180549050836001016000848152602001908152602001600020819055506001905062000394565b600090505b92915050565b600080836001016000848152602001908152602001600020541415905092915050565b6000604051905090565b600080fd5b600080fd5b600080fd5b600080fd5b6000601f19601f8301169050919050565b7f4e487b7100000000000000000000000000000000000000000000000000000000600052604160045260246000fd5b6200042682620003db565b810181811067ffffffffffffffff82111715620004485762000447620003ec565b5b80604052505050565b60006200045d620003bd565b90506200046b82826200041b565b919050565b600067ffffffffffffffff8211156200048e576200048d620003ec565b5b6200049982620003db565b9050602081019050919050565b60005b83811015620004c6578082015181840152602081019050620004a9565b60008484015250505050565b6000620004e9620004e38462000470565b62000451565b905082815260208101848484011115620005085762000507620003d6565b5b62000515848285620004a6565b509392505050565b600082601f830112620005355762000534620003d1565b5b815162000547848260208601620004d2565b91505092915050565b600060208284031215620005695762000568620003c7565b5b600082015167ffffffffffffffff8111156200058a5762000589620003cc565b5b62000598848285016200051d565b91505092915050565b600081519050919050565b7f4e487b7100000000000000000000000000000000000000000000000000000000600052602260045260246000fd5b60006002820490506001821680620005f457607f821691505b6020821081036200060a5762000609620005ac565b5b50919050565b60008190508160005260206000209050919050565b60006020601f8301049050919050565b600082821b905092915050565b600060088302620006747fffffffffffffffffffffffffffffffffffffffffffffffffffffffffffffffff8262000635565b62000680868362000635565b95508019841693508086168417925050509392505050565b6000819050919050565b6000819050919050565b6000620006cd620006c7620006c18462000698565b620006a2565b62000698565b9050919050565b6000819050919050565b620006e983620006ac565b62000701620006f882620006d4565b84845462000642565b825550505050565b600090565b6200071862000709565b62000725818484620006de565b505050565b5b818110156200074d57620007416000826200070e565b6001810190506200072b565b5050565b601f8211156200079c57620007668162000610565b620007718462000625565b8101602085101562000781578190505b62000799620007908562000625565b8301826200072a565b50505b505050565b600082821c905092915050565b6000620007c160001984600802620007a1565b1980831691505092915050565b6000620007dc8383620007ae565b9150826002028217905092915050565b620007f782620005a1565b67ffffffffffffffff811115620008135762000812620003ec565b5b6200081f8254620005db565b6200082c82828562000751565b600060209050601f8311600181146200086457600084156200084f578287015190505b6200085b8582620007ce565b865550620008cb565b601f198416620008748662000610565b60005b828110156200089e5784890151825560018201915060208501945060208101905062000877565b86831015620008be5784890151620008ba601f891682620007ae565b8355505b6001600288020188555050505b505050505050565b614c0980620008e36000396000f3fe608060405234801561001057600080fd5b50600436106101725760003560e01c8063731133e9116100de578063ca15c87311610097578063e63ab1e911610071578063e63ab1e914610445578063e985e9c514610463578063f242432a14610493578063f5298aca146104af57610172565b8063ca15c873146103db578063d53913931461040b578063d547741f1461042957610172565b8063731133e91461031b5780638456cb59146103375780639010d07c1461034157806391d1485414610371578063a217fddf146103a1578063a22cb465146103bf57610172565b80632f2ff15d116101305780632f2ff15d1461026f57806336568abe1461028b5780633f4ba83a146102a75780634e1273f4146102b15780635c975abb146102e15780636b20c454146102ff57610172565b8062fdd58e1461017757806301ffc9a7146101a75780630e89341c146101d75780631f7fdffa14610207578063248a9ca3146102235780632eb2c2d614610253575b600080fd5b610191600480360381019061018c9190612fb6565b6104cb565b60405161019e9190613005565b60405180910390f35b6101c160048036038101906101bc9190613078565b610594565b6040516101ce91906130c0565b60405180910390f35b6101f160048036038101906101ec91906130db565b6105a6565b6040516101fe9190613198565b60405180910390f35b610221600480360381019061021c91906133b7565b61063a565b005b61023d600480360381019061023891906134a8565b6106bc565b60405161024a91906134e4565b60405180910390f35b61026d600480360381019061026891906134ff565b6106db565b005b610289600480360381019061028491906135ce565b61077c565b005b6102a560048036038101906102a091906135ce565b61079d565b005b6102af610820565b005b6102cb60048036038101906102c691906136d1565b61089a565b6040516102d89190613807565b60405180910390f35b6102e96109b3565b6040516102f691906130c0565b60405180910390f35b61031960048036038101906103149190613829565b6109ca565b005b610335600480360381019061033091906138b4565b610a67565b005b61033f610a79565b005b61035b60048036038101906103569190613937565b610af3565b6040516103689190613986565b60405180910390f35b61038b600480360381019061038691906135ce565b610b22565b60405161039891906130c0565b60405180910390f35b6103a9610b8c565b6040516103b691906134e4565b60405180910390f35b6103d960048036038101906103d491906139cd565b610b93565b005b6103f560048036038101906103f091906134a8565b610ba9565b6040516104029190613005565b60405180910390f35b610413610bcd565b60405161042091906134e4565b60405180910390f35b610443600480360381019061043e91906135ce565b610bf1565b005b61044d610c12565b60405161045a91906134e4565b60405180910390f35b61047d60048036038101906104789190613a0d565b610c36565b60405161048a91906130c0565b60405180910390f35b6104ad60048036038101906104a89190613a4d565b610cca565b005b6104c960048036038101906104c49190613ae4565b610d6b565b005b60008073ffffffffffffffffffffffffffffffffffffffff168373ffffffffffffffffffffffffffffffffffffffff160361053b576040517f08c379a000000000000000000000000000000000000000000000000000000000815260040161053290613ba9565b60405180910390fd5b6002600083815260200190815260200160002060008473ffffffffffffffffffffffffffffffffffffffff1673ffffffffffffffffffffffffffffffffffffffff16815260200190815260200160002054905092915050565b600061059f82610f18565b9050919050565b6060600480546105b590613bf8565b80601f01602080910402602001604051908101604052809291908181526020018280546105e190613bf8565b801561062e5780601f106106035761010080835404028352916020019161062e565b820191906000526020600020905b81548152906001019060200180831161061157829003601f168201915b50505050509050919050565b61066b7f9f2df0fed2c77648de5860a4cc508cd0818c85b8b8a1ab4ceeef8d981c8956a6610666610ffa565b610b22565b6106aa576040517f08c379a00000000000000000000000000000000000000000000000000000000081526004016106a190613c9b565b60405180910390fd5b6106b684848484611002565b50505050565b6000806000838152602001908152602001600020600101549050919050565b6106e3610ffa565b73ffffffffffffffffffffffffffffffffffffffff168573ffffffffffffffffffffffffffffffffffffffff161480610729575061072885610723610ffa565b610c36565b5b610768576040517f08c379a000000000000000000000000000000000000000000000000000000000815260040161075f90613d2d565b60405180910390fd5b610775858585858561122f565b5050505050565b610785826106bc565b61078e816115c8565b61079883836115dc565b505050565b6107a5610ffa565b73ffffffffffffffffffffffffffffffffffffffff168173ffffffffffffffffffffffffffffffffffffffff1614610812576040517f08c379a000000000000000000000000000000000000000000000000000000000815260040161080990613dbf565b60405180910390fd5b61081c8282611610565b5050565b6108517f65d7a28e3265b37a6474929f336521b332c1681b933f6cb9f3376673440d862a61084c610ffa565b610b22565b610890576040517f08c379a000000000000000000000000000000000000000000000000000000000815260040161088790613e51565b60405180910390fd5b610898611644565b565b606081518351146108e0576040517f08c379a00000000000000000000000000000000000000000000000000000000081526004016108d790613ee3565b60405180910390fd5b6000835167ffffffffffffffff8111156108fd576108fc6131bf565b5b60405190808252806020026020018201604052801561092b5781602001602082028036833780820191505090505b50905060005b84518110156109a8576109788582815181106109505761094f613f03565b5b602002602001015185838151811061096b5761096a613f03565b5b60200260200101516104cb565b82828151811061098b5761098a613f03565b5b602002602001018181525050806109a190613f61565b9050610931565b508091505092915050565b6000600560009054906101000a900460ff16905090565b6109d2610ffa565b73ffffffffffffffffffffffffffffffffffffffff168373ffffffffffffffffffffffffffffffffffffffff161480610a185750610a1783610a12610ffa565b610c36565b5b610a57576040517f08c379a0000000000000000000000000000000000000000000000000000000008152600401610a4e90613d2d565b60405180910390fd5b610a628383836116a7565b505050565b610a7384848484611977565b50505050565b610aaa7f65d7a28e3265b37a6474929f336521b332c1681b933f6cb9f3376673440d862a610aa5610ffa565b610b22565b610ae9576040517f08c379a0000000000000000000000000000000000000000000000000000000008152600401610ae09061401b565b60405180910390fd5b610af1611b28565b565b6000610b1a8260016000868152602001908152602001600020611b8b90919063ffffffff16565b905092915050565b600080600084815260200190815260200160002060000160008373ffffffffffffffffffffffffffffffffffffffff1673ffffffffffffffffffffffffffffffffffffffff16815260200190815260200160002060009054906101000a900460ff16905092915050565b6000801b81565b610ba5610b9e610ffa565b8383611ba5565b5050565b6000610bc660016000848152602001908152602001600020611d11565b9050919050565b7f9f2df0fed2c77648de5860a4cc508cd0818c85b8b8a1ab4ceeef8d981c8956a681565b610bfa826106bc565b610c03816115c8565b610c0d8383611610565b505050565b7f65d7a28e3265b37a6474929f336521b332c1681b933f6cb9f3376673440d862a81565b6000600360008473ffffffffffffffffffffffffffffffffffffffff1673ffffffffffffffffffffffffffffffffffffffff16815260200190815260200160002060008373ffffffffffffffffffffffffffffffffffffffff1673ffffffffffffffffffffffffffffffffffffffff16815260200190815260200160002060009054906101000a900460ff16905092915050565b610cd2610ffa565b73ffffffffffffffffffffffffffffffffffffffff168573ffffffffffffffffffffffffffffffffffffffff161480610d185750610d1785610d12610ffa565b610c36565b5b610d57576040517f08c379a0000000000000000000000000000000000000000000000000000000008152600401610d4e90613d2d565b60405180910390fd5b610d648585858585611d26565b5050505050565b610d73610ffa565b73ffffffffffffffffffffffffffffffffffffffff168373ffffffffffffffffffffffffffffffffffffffff161480610db95750610db883610db3610ffa565b610c36565b5b610df8576040517f08c379a0000000000000000000000000000000000000000000000000000000008152600401610def90613d2d565b60405180910390fd5b610e03838383612039565b505050565b610e128282610b22565b610ee457600160008084815260200190815260200160002060000160008373ffffffffffffffffffffffffffffffffffffffff1673ffffffffffffffffffffffffffffffffffffffff16815260200190815260200160002060006101000a81548160ff021916908315150217905550610e89610ffa565b73ffffffffffffffffffffffffffffffffffffffff168173ffffffffffffffffffffffffffffffffffffffff16837f2f8788117e7eff1d82e926ec794901d17c78024a50270940304540a733656f0d60405160405180910390a45b5050565b6000610f10836000018373ffffffffffffffffffffffffffffffffffffffff1660001b612281565b905092915050565b60007fd9b67a26000000000000000000000000000000000000000000000000000000007bffffffffffffffffffffffffffffffffffffffffffffffffffffffff1916827bffffffffffffffffffffffffffffffffffffffffffffffffffffffff19161480610fe357507f0e89341c000000000000000000000000000000000000000000000000000000007bffffffffffffffffffffffffffffffffffffffffffffffffffffffff1916827bffffffffffffffffffffffffffffffffffffffffffffffffffffffff1916145b80610ff35750610ff2826122f1565b5b9050919050565b600033905090565b600073ffffffffffffffffffffffffffffffffffffffff168473ffffffffffffffffffffffffffffffffffffffff1603611071576040517f08c379a0000000000000000000000000000000000000000000000000000000008152600401611068906140ad565b60405180910390fd5b81518351146110b5576040517f08c379a00000000000000000000000000000000000000000000000000000000081526004016110ac9061413f565b60405180910390fd5b60006110bf610ffa565b90506110d08160008787878761236b565b60005b845181101561118a578381815181106110ef576110ee613f03565b5b60200260200101516002600087848151811061110e5761110d613f03565b5b6020026020010151815260200190815260200160002060008873ffffffffffffffffffffffffffffffffffffffff1673ffffffffffffffffffffffffffffffffffffffff1681526020019081526020016000206000828254611170919061415f565b92505081905550808061118290613f61565b9150506110d3565b508473ffffffffffffffffffffffffffffffffffffffff16600073ffffffffffffffffffffffffffffffffffffffff168273ffffffffffffffffffffffffffffffffffffffff167f4a39dc06d4c0dbc64b70af90fd698a233a518aa5d07e595d983b8c0526c8f7fb8787604051611202929190614193565b60405180910390a461121981600087878787612381565b61122881600087878787612389565b5050505050565b8151835114611273576040517f08c379a000000000000000000000000000000000000000000000000000000000815260040161126a9061413f565b60405180910390fd5b600073ffffffffffffffffffffffffffffffffffffffff168473ffffffffffffffffffffffffffffffffffffffff16036112e2576040517f08c379a00000000000000000000000000000000000000000000000000000000081526004016112d99061423c565b60405180910390fd5b60006112ec610ffa565b90506112fc81878787878761236b565b60005b845181101561152557600085828151811061131d5761131c613f03565b5b60200260200101519050600085838151811061133c5761133b613f03565b5b6020026020010151905060006002600084815260200190815260200160002060008b73ffffffffffffffffffffffffffffffffffffffff1673ffffffffffffffffffffffffffffffffffffffff1681526020019081526020016000205490506000810361140f57816002600085815260200190815260200160002060008b73ffffffffffffffffffffffffffffffffffffffff1673ffffffffffffffffffffffffffffffffffffffff1681526020019081526020016000206000828254611403919061415f565b92505081905550611511565b81811015611452576040517f08c379a0000000000000000000000000000000000000000000000000000000008152600401611449906142ce565b60405180910390fd5b8181036002600085815260200190815260200160002060008c73ffffffffffffffffffffffffffffffffffffffff1673ffffffffffffffffffffffffffffffffffffffff16815260200190815260200160002081905550816002600085815260200190815260200160002060008b73ffffffffffffffffffffffffffffffffffffffff1673ffffffffffffffffffffffffffffffffffffffff1681526020019081526020016000206000828254611509919061415f565b925050819055505b5050508061151e90613f61565b90506112ff565b508473ffffffffffffffffffffffffffffffffffffffff168673ffffffffffffffffffffffffffffffffffffffff168273ffffffffffffffffffffffffffffffffffffffff167f4a39dc06d4c0dbc64b70af90fd698a233a518aa5d07e595d983b8c0526c8f7fb878760405161159c929190614193565b60405180910390a46115b2818787878787612381565b6115c0818787878787612389565b505050505050565b6115d9816115d4610ffa565b612560565b50565b6115e68282610e08565b61160b8160016000858152602001908152602001600020610ee890919063ffffffff16565b505050565b61161a82826125fd565b61163f81600160008581526020019081526020016000206126de90919063ffffffff16565b505050565b61164c61270e565b6000600560006101000a81548160ff0219169083151502179055507f5db9ee0a495bf2e6ff9c91a7834c1ba4fdd244a5e8aa4e537bd38aeae4b073aa611690610ffa565b60405161169d9190613986565b60405180910390a1565b600073ffffffffffffffffffffffffffffffffffffffff168373ffffffffffffffffffffffffffffffffffffffff1603611716576040517f08c379a000000000000000000000000000000000000000000000000000000000815260040161170d90614360565b60405180910390fd5b805182511461175a576040517f08c379a00000000000000000000000000000000000000000000000000000000081526004016117519061413f565b60405180910390fd5b6000611764610ffa565b90506117848185600086866040518060200160405280600081525061236b565b60005b83518110156118d35760008482815181106117a5576117a4613f03565b5b6020026020010151905060008483815181106117c4576117c3613f03565b5b6020026020010151905060006002600084815260200190815260200160002060008973ffffffffffffffffffffffffffffffffffffffff1673ffffffffffffffffffffffffffffffffffffffff16815260200190815260200160002054905081811015611866576040517f08c379a000000000000000000000000000000000000000000000000000000000815260040161185d906143f2565b60405180910390fd5b8181036002600085815260200190815260200160002060008a73ffffffffffffffffffffffffffffffffffffffff1673ffffffffffffffffffffffffffffffffffffffff1681526020019081526020016000208190555050505080806118cb90613f61565b915050611787565b50600073ffffffffffffffffffffffffffffffffffffffff168473ffffffffffffffffffffffffffffffffffffffff168273ffffffffffffffffffffffffffffffffffffffff167f4a39dc06d4c0dbc64b70af90fd698a233a518aa5d07e595d983b8c0526c8f7fb868660405161194b929190614193565b60405180910390a461197181856000868660405180602001604052806000815250612381565b50505050565b600073ffffffffffffffffffffffffffffffffffffffff168473ffffffffffffffffffffffffffffffffffffffff16036119e6576040517f08c379a00000000000000000000000000000000000000000000000000000000081526004016119dd906140ad565b60405180910390fd5b60006119f0610ffa565b905060006119fd85612757565b90506000611a0a85612757565b9050611a1b8360008985858961236b565b846002600088815260200190815260200160002060008973ffffffffffffffffffffffffffffffffffffffff1673ffffffffffffffffffffffffffffffffffffffff1681526020019081526020016000206000828254611a7b919061415f565b925050819055508673ffffffffffffffffffffffffffffffffffffffff16600073ffffffffffffffffffffffffffffffffffffffff168473ffffffffffffffffffffffffffffffffffffffff167fc3d58168c5ae7397731d063d5bbf3d657854427343f4c083240f7aacaa2d0f628989604051611af9929190614412565b60405180910390a4611b1083600089858589612381565b611b1f836000898989896127d1565b50505050505050565b611b306129a8565b6001600560006101000a81548160ff0219169083151502179055507f62e78cea01bee320cd4e420270b5ea74000d11b0c9f74754ebdbfc544b05a258611b74610ffa565b604051611b819190613986565b60405180910390a1565b6000611b9a83600001836129f2565b60001c905092915050565b8173ffffffffffffffffffffffffffffffffffffffff168373ffffffffffffffffffffffffffffffffffffffff1603611c13576040517f08c379a0000000000000000000000000000000000000000000000000000000008152600401611c0a906144ad565b60405180910390fd5b80600360008573ffffffffffffffffffffffffffffffffffffffff1673ffffffffffffffffffffffffffffffffffffffff16815260200190815260200160002060008473ffffffffffffffffffffffffffffffffffffffff1673ffffffffffffffffffffffffffffffffffffffff16815260200190815260200160002060006101000a81548160ff0219169083151502179055508173ffffffffffffffffffffffffffffffffffffffff168373ffffffffffffffffffffffffffffffffffffffff167f17307eab39ab6107e8899845ad3d59bd9653f200f220920489ca2b5937696c3183604051611d0491906130c0565b60405180910390a3505050565b6000611d1f82600001612a1d565b9050919050565b600073ffffffffffffffffffffffffffffffffffffffff168473ffffffffffffffffffffffffffffffffffffffff1603611d95576040517f08c379a0000000000000000000000000000000000000000000000000000000008152600401611d8c9061423c565b60405180910390fd5b6000611d9f610ffa565b90506000611dac85612757565b90506000611db985612757565b9050611dc983898985858961236b565b60006002600088815260200190815260200160002060008a73ffffffffffffffffffffffffffffffffffffffff1673ffffffffffffffffffffffffffffffffffffffff16815260200190815260200160002054905060008103611e9257856002600089815260200190815260200160002060008a73ffffffffffffffffffffffffffffffffffffffff1673ffffffffffffffffffffffffffffffffffffffff1681526020019081526020016000206000828254611e86919061415f565b92505081905550611f94565b85811015611ed5576040517f08c379a0000000000000000000000000000000000000000000000000000000008152600401611ecc906142ce565b60405180910390fd5b8581036002600089815260200190815260200160002060008b73ffffffffffffffffffffffffffffffffffffffff1673ffffffffffffffffffffffffffffffffffffffff16815260200190815260200160002081905550856002600089815260200190815260200160002060008a73ffffffffffffffffffffffffffffffffffffffff1673ffffffffffffffffffffffffffffffffffffffff1681526020019081526020016000206000828254611f8c919061415f565b925050819055505b8773ffffffffffffffffffffffffffffffffffffffff168973ffffffffffffffffffffffffffffffffffffffff168573ffffffffffffffffffffffffffffffffffffffff167fc3d58168c5ae7397731d063d5bbf3d657854427343f4c083240f7aacaa2d0f628a8a60405161200a929190614412565b60405180910390a4612020848a8a86868a612381565b61202e848a8a8a8a8a6127d1565b505050505050505050565b600073ffffffffffffffffffffffffffffffffffffffff168373ffffffffffffffffffffffffffffffffffffffff16036120a8576040517f08c379a000000000000000000000000000000000000000000000000000000000815260040161209f90614360565b60405180910390fd5b60006120b2610ffa565b905060006120bf84612757565b905060006120cc84612757565b90506120ec8387600085856040518060200160405280600081525061236b565b60006002600087815260200190815260200160002060008873ffffffffffffffffffffffffffffffffffffffff1673ffffffffffffffffffffffffffffffffffffffff16815260200190815260200160002054905084811015612184576040517f08c379a000000000000000000000000000000000000000000000000000000000815260040161217b906143f2565b60405180910390fd5b8481036002600088815260200190815260200160002060008973ffffffffffffffffffffffffffffffffffffffff1673ffffffffffffffffffffffffffffffffffffffff16815260200190815260200160002081905550600073ffffffffffffffffffffffffffffffffffffffff168773ffffffffffffffffffffffffffffffffffffffff168573ffffffffffffffffffffffffffffffffffffffff167fc3d58168c5ae7397731d063d5bbf3d657854427343f4c083240f7aacaa2d0f628989604051612252929190614412565b60405180910390a461227884886000868660405180602001604052806000815250612381565b50505050505050565b600061228d8383612a2e565b6122e65782600001829080600181540180825580915050600190039060005260206000200160009091909190915055826000018054905083600101600084815260200190815260200160002081905550600190506122eb565b600090505b92915050565b60007f5a05180f000000000000000000000000000000000000000000000000000000007bffffffffffffffffffffffffffffffffffffffffffffffffffffffff1916827bffffffffffffffffffffffffffffffffffffffffffffffffffffffff19161480612364575061236382612a51565b5b9050919050565b612379868686868686612acb565b505050505050565b505050505050565b6123a88473ffffffffffffffffffffffffffffffffffffffff16612b29565b15612558578373ffffffffffffffffffffffffffffffffffffffff1663bc197c8187878686866040518663ffffffff1660e01b81526004016123ee959493929190614522565b6020604051808303816000875af192505050801561242a57506040513d601f19601f82011682018060405250810190612427919061459f565b60015b6124cf576124366145d9565b806308c379a003612492575061244a6145fb565b806124555750612494565b806040517f08c379a00000000000000000000000000000000000000000000000000000000081526004016124899190613198565b60405180910390fd5b505b6040517f08c379a00000000000000000000000000000000000000000000000000000000081526004016124c6906146fd565b60405180910390fd5b63bc197c8160e01b7bffffffffffffffffffffffffffffffffffffffffffffffffffffffff1916817bffffffffffffffffffffffffffffffffffffffffffffffffffffffff191614612556576040517f08c379a000000000000000000000000000000000000000000000000000000000815260040161254d9061478f565b60405180910390fd5b505b505050505050565b61256a8282610b22565b6125f95761258f8173ffffffffffffffffffffffffffffffffffffffff166014612b4c565b61259d8360001c6020612b4c565b6040516020016125ae929190614883565b6040516020818303038152906040526040517f08c379a00000000000000000000000000000000000000000000000000000000081526004016125f09190613198565b60405180910390fd5b5050565b6126078282610b22565b156126da57600080600084815260200190815260200160002060000160008373ffffffffffffffffffffffffffffffffffffffff1673ffffffffffffffffffffffffffffffffffffffff16815260200190815260200160002060006101000a81548160ff02191690831515021790555061267f610ffa565b73ffffffffffffffffffffffffffffffffffffffff168173ffffffffffffffffffffffffffffffffffffffff16837ff6391f5c32d9c69d2a47ea670b442974b53935d1edc7fd64eb21e047a839171b60405160405180910390a45b5050565b6000612706836000018373ffffffffffffffffffffffffffffffffffffffff1660001b612d88565b905092915050565b6127166109b3565b612755576040517f08c379a000000000000000000000000000000000000000000000000000000000815260040161274c90614909565b60405180910390fd5b565b60606000600167ffffffffffffffff811115612776576127756131bf565b5b6040519080825280602002602001820160405280156127a45781602001602082028036833780820191505090505b50905082816000815181106127bc576127bb613f03565b5b60200260200101818152505080915050919050565b6127f08473ffffffffffffffffffffffffffffffffffffffff16612b29565b156129a0578373ffffffffffffffffffffffffffffffffffffffff1663f23a6e6187878686866040518663ffffffff1660e01b8152600401612836959493929190614929565b6020604051808303816000875af192505050801561287257506040513d601f19601f8201168201806040525081019061286f919061459f565b60015b6129175761287e6145d9565b806308c379a0036128da57506128926145fb565b8061289d57506128dc565b806040517f08c379a00000000000000000000000000000000000000000000000000000000081526004016128d19190613198565b60405180910390fd5b505b6040517f08c379a000000000000000000000000000000000000000000000000000000000815260040161290e906146fd565b60405180910390fd5b63f23a6e6160e01b7bffffffffffffffffffffffffffffffffffffffffffffffffffffffff1916817bffffffffffffffffffffffffffffffffffffffffffffffffffffffff19161461299e576040517f08c379a00000000000000000000000000000000000000000000000000000000081526004016129959061478f565b60405180910390fd5b505b505050505050565b6129b06109b3565b156129f0576040517f08c379a00000000000000000000000000000000000000000000000000000000081526004016129e7906149cf565b60405180910390fd5b565b6000826000018281548110612a0a57612a09613f03565b5b9060005260206000200154905092915050565b600081600001805490509050919050565b600080836001016000848152602001908152602001600020541415905092915050565b60007f7965db0b000000000000000000000000000000000000000000000000000000007bffffffffffffffffffffffffffffffffffffffffffffffffffffffff1916827bffffffffffffffffffffffffffffffffffffffffffffffffffffffff19161480612ac45750612ac382612e9c565b5b9050919050565b612ad9868686868686612f06565b612ae16109b3565b15612b21576040517f08c379a0000000000000000000000000000000000000000000000000000000008152600401612b1890614a61565b60405180910390fd5b505050505050565b6000808273ffffffffffffffffffffffffffffffffffffffff163b119050919050565b606060006002836002612b5f9190614a81565b612b69919061415f565b67ffffffffffffffff811115612b8257612b816131bf565b5b6040519080825280601f01601f191660200182016040528015612bb45781602001600182028036833780820191505090505b5090507f300000000000000000000000000000000000000000000000000000000000000081600081518110612bec57612beb613f03565b5b60200101907effffffffffffffffffffffffffffffffffffffffffffffffffffffffffffff1916908160001a9053507f780000000000000000000000000000000000000000000000000000000000000081600181518110612c5057612c4f613f03565b5b60200101907effffffffffffffffffffffffffffffffffffffffffffffffffffffffffffff1916908160001a90535060006001846002612c909190614a81565b612c9a919061415f565b90505b6001811115612d3a577f3031323334353637383961626364656600000000000000000000000000000000600f861660108110612cdc57612cdb613f03565b5b1a60f81b828281518110612cf357612cf2613f03565b5b60200101907effffffffffffffffffffffffffffffffffffffffffffffffffffffffffffff1916908160001a905350600485901c945080612d3390614adb565b9050612c9d565b5060008414612d7e576040517f08c379a0000000000000000000000000000000000000000000000000000000008152600401612d7590614b50565b60405180910390fd5b8091505092915050565b60008083600101600084815260200190815260200160002054905060008114612e90576000600182612dba9190614b70565b9050600060018660000180549050612dd29190614b70565b9050818114612e41576000866000018281548110612df357612df2613f03565b5b9060005260206000200154905080876000018481548110612e1757612e16613f03565b5b90600052602060002001819055508387600101600083815260200190815260200160002081905550505b85600001805480612e5557612e54614ba4565b5b600190038181906000526020600020016000905590558560010160008681526020019081526020016000206000905560019350505050612e96565b60009150505b92915050565b60007f01ffc9a7000000000000000000000000000000000000000000000000000000007bffffffffffffffffffffffffffffffffffffffffffffffffffffffff1916827bffffffffffffffffffffffffffffffffffffffffffffffffffffffff1916149050919050565b505050505050565b6000604051905090565b600080fd5b600080fd5b600073ffffffffffffffffffffffffffffffffffffffff82169050919050565b6000612f4d82612f22565b9050919050565b612f5d81612f42565b8114612f6857600080fd5b50565b600081359050612f7a81612f54565b92915050565b6000819050919050565b612f9381612f80565b8114612f9e57600080fd5b50565b600081359050612fb081612f8a565b92915050565b60008060408385031215612fcd57612fcc612f18565b5b6000612fdb85828601612f6b565b9250506020612fec85828601612fa1565b9150509250929050565b612fff81612f80565b82525050565b600060208201905061301a6000830184612ff6565b92915050565b60007fffffffff0000000000000000000000000000000000000000000000000000000082169050919050565b61305581613020565b811461306057600080fd5b50565b6000813590506130728161304c565b92915050565b60006020828403121561308e5761308d612f18565b5b600061309c84828501613063565b91505092915050565b60008115159050919050565b6130ba816130a5565b82525050565b60006020820190506130d560008301846130b1565b92915050565b6000602082840312156130f1576130f0612f18565b5b60006130ff84828501612fa1565b91505092915050565b600081519050919050565b600082825260208201905092915050565b60005b83811015613142578082015181840152602081019050613127565b60008484015250505050565b6000601f19601f8301169050919050565b600061316a82613108565b6131748185613113565b9350613184818560208601613124565b61318d8161314e565b840191505092915050565b600060208201905081810360008301526131b2818461315f565b905092915050565b600080fd5b7f4e487b7100000000000000000000000000000000000000000000000000000000600052604160045260246000fd5b6131f78261314e565b810181811067ffffffffffffffff82111715613216576132156131bf565b5b80604052505050565b6000613229612f0e565b905061323582826131ee565b919050565b600067ffffffffffffffff821115613255576132546131bf565b5b602082029050602081019050919050565b600080fd5b600061327e6132798461323a565b61321f565b905080838252602082019050602084028301858111156132a1576132a0613266565b5b835b818110156132ca57806132b68882612fa1565b8452602084019350506020810190506132a3565b5050509392505050565b600082601f8301126132e9576132e86131ba565b5b81356132f984826020860161326b565b91505092915050565b600080fd5b600067ffffffffffffffff821115613322576133216131bf565b5b61332b8261314e565b9050602081019050919050565b82818337600083830152505050565b600061335a61335584613307565b61321f565b90508281526020810184848401111561337657613375613302565b5b613381848285613338565b509392505050565b600082601f83011261339e5761339d6131ba565b5b81356133ae848260208601613347565b91505092915050565b600080600080608085870312156133d1576133d0612f18565b5b60006133df87828801612f6b565b945050602085013567ffffffffffffffff811115613400576133ff612f1d565b5b61340c878288016132d4565b935050604085013567ffffffffffffffff81111561342d5761342c612f1d565b5b613439878288016132d4565b925050606085013567ffffffffffffffff81111561345a57613459612f1d565b5b61346687828801613389565b91505092959194509250565b6000819050919050565b61348581613472565b811461349057600080fd5b50565b6000813590506134a28161347c565b92915050565b6000602082840312156134be576134bd612f18565b5b60006134cc84828501613493565b91505092915050565b6134de81613472565b82525050565b60006020820190506134f960008301846134d5565b92915050565b600080600080600060a0868803121561351b5761351a612f18565b5b600061352988828901612f6b565b955050602061353a88828901612f6b565b945050604086013567ffffffffffffffff81111561355b5761355a612f1d565b5b613567888289016132d4565b935050606086013567ffffffffffffffff81111561358857613587612f1d565b5b613594888289016132d4565b925050608086013567ffffffffffffffff8111156135b5576135b4612f1d565b5b6135c188828901613389565b9150509295509295909350565b600080604083850312156135e5576135e4612f18565b5b60006135f385828601613493565b925050602061360485828601612f6b565b9150509250929050565b600067ffffffffffffffff821115613629576136286131bf565b5b602082029050602081019050919050565b600061364d6136488461360e565b61321f565b905080838252602082019050602084028301858111156136705761366f613266565b5b835b8181101561369957806136858882612f6b565b845260208401935050602081019050613672565b5050509392505050565b600082601f8301126136b8576136b76131ba565b5b81356136c884826020860161363a565b91505092915050565b600080604083850312156136e8576136e7612f18565b5b600083013567ffffffffffffffff81111561370657613705612f1d565b5b613712858286016136a3565b925050602083013567ffffffffffffffff81111561373357613732612f1d565b5b61373f858286016132d4565b9150509250929050565b600081519050919050565b600082825260208201905092915050565b6000819050602082019050919050565b61377e81612f80565b82525050565b60006137908383613775565b60208301905092915050565b6000602082019050919050565b60006137b482613749565b6137be8185613754565b93506137c983613765565b8060005b838110156137fa5781516137e18882613784565b97506137ec8361379c565b9250506001810190506137cd565b5085935050505092915050565b6000602082019050818103600083015261382181846137a9565b905092915050565b60008060006060848603121561384257613841612f18565b5b600061385086828701612f6b565b935050602084013567ffffffffffffffff81111561387157613870612f1d565b5b61387d868287016132d4565b925050604084013567ffffffffffffffff81111561389e5761389d612f1d565b5b6138aa868287016132d4565b9150509250925092565b600080600080608085870312156138ce576138cd612f18565b5b60006138dc87828801612f6b565b94505060206138ed87828801612fa1565b93505060406138fe87828801612fa1565b925050606085013567ffffffffffffffff81111561391f5761391e612f1d565b5b61392b87828801613389565b91505092959194509250565b6000806040838503121561394e5761394d612f18565b5b600061395c85828601613493565b925050602061396d85828601612fa1565b9150509250929050565b61398081612f42565b82525050565b600060208201905061399b6000830184613977565b92915050565b6139aa816130a5565b81146139b557600080fd5b50565b6000813590506139c7816139a1565b92915050565b600080604083850312156139e4576139e3612f18565b5b60006139f285828601612f6b565b9250506020613a03858286016139b8565b9150509250929050565b60008060408385031215613a2457613a23612f18565b5b6000613a3285828601612f6b565b9250506020613a4385828601612f6b565b9150509250929050565b600080600080600060a08688031215613a6957613a68612f18565b5b6000613a7788828901612f6b565b9550506020613a8888828901612f6b565b9450506040613a9988828901612fa1565b9350506060613aaa88828901612fa1565b925050608086013567ffffffffffffffff811115613acb57613aca612f1d565b5b613ad788828901613389565b9150509295509295909350565b600080600060608486031215613afd57613afc612f18565b5b6000613b0b86828701612f6b565b9350506020613b1c86828701612fa1565b9250506040613b2d86828701612fa1565b9150509250925092565b7f455243313135353a2061646472657373207a65726f206973206e6f742061207660008201527f616c6964206f776e657200000000000000000000000000000000000000000000602082015250565b6000613b93602a83613113565b9150613b9e82613b37565b604082019050919050565b60006020820190508181036000830152613bc281613b86565b9050919050565b7f4e487b7100000000000000000000000000000000000000000000000000000000600052602260045260246000fd5b60006002820490506001821680613c1057607f821691505b602082108103613c2357613c22613bc9565b5b50919050565b7f455243313135355072657365744d696e7465725061757365723a206d7573742060008201527f68617665206d696e74657220726f6c6520746f206d696e740000000000000000602082015250565b6000613c85603883613113565b9150613c9082613c29565b604082019050919050565b60006020820190508181036000830152613cb481613c78565b9050919050565b7f455243313135353a2063616c6c6572206973206e6f7420746f6b656e206f776e60008201527f6572206e6f7220617070726f7665640000000000000000000000000000000000602082015250565b6000613d17602f83613113565b9150613d2282613cbb565b604082019050919050565b60006020820190508181036000830152613d4681613d0a565b9050919050565b7f416363657373436f6e74726f6c3a2063616e206f6e6c792072656e6f756e636560008201527f20726f6c657320666f722073656c660000000000000000000000000000000000602082015250565b6000613da9602f83613113565b9150613db482613d4d565b604082019050919050565b60006020820190508181036000830152613dd881613d9c565b9050919050565b7f455243313135355072657365744d696e7465725061757365723a206d7573742060008201527f686176652070617573657220726f6c6520746f20756e70617573650000000000602082015250565b6000613e3b603b83613113565b9150613e4682613ddf565b604082019050919050565b60006020820190508181036000830152613e6a81613e2e565b9050919050565b7f455243313135353a206163636f756e747320616e6420696473206c656e67746860008201527f206d69736d617463680000000000000000000000000000000000000000000000602082015250565b6000613ecd602983613113565b9150613ed882613e71565b604082019050919050565b60006020820190508181036000830152613efc81613ec0565b9050919050565b7f4e487b7100000000000000000000000000000000000000000000000000000000600052603260045260246000fd5b7f4e487b7100000000000000000000000000000000000000000000000000000000600052601160045260246000fd5b6000613f6c82612f80565b91507fffffffffffffffffffffffffffffffffffffffffffffffffffffffffffffffff8203613f9e57613f9d613f32565b5b600182019050919050565b7f455243313135355072657365744d696e7465725061757365723a206d7573742060008201527f686176652070617573657220726f6c6520746f20706175736500000000000000602082015250565b6000614005603983613113565b915061401082613fa9565b604082019050919050565b6000602082019050818103600083015261403481613ff8565b9050919050565b7f455243313135353a206d696e7420746f20746865207a65726f2061646472657360008201527f7300000000000000000000000000000000000000000000000000000000000000602082015250565b6000614097602183613113565b91506140a28261403b565b604082019050919050565b600060208201905081810360008301526140c68161408a565b9050919050565b7f455243313135353a2069647320616e6420616d6f756e7473206c656e6774682060008201527f6d69736d61746368000000000000000000000000000000000000000000000000602082015250565b6000614129602883613113565b9150614134826140cd565b604082019050919050565b600060208201905081810360008301526141588161411c565b9050919050565b600061416a82612f80565b915061417583612f80565b925082820190508082111561418d5761418c613f32565b5b92915050565b600060408201905081810360008301526141ad81856137a9565b905081810360208301526141c181846137a9565b90509392505050565b7f455243313135353a207472616e7366657220746f20746865207a65726f20616460008201527f6472657373000000000000000000000000000000000000000000000000000000602082015250565b6000614226602583613113565b9150614231826141ca565b604082019050919050565b6000602082019050818103600083015261425581614219565b9050919050565b7f455243313135353a20696e73756666696369656e742062616c616e636520666f60008201527f72207472616e7366657200000000000000000000000000000000000000000000602082015250565b60006142b8602a83613113565b91506142c38261425c565b604082019050919050565b600060208201905081810360008301526142e7816142ab565b9050919050565b7f455243313135353a206275726e2066726f6d20746865207a65726f206164647260008201527f6573730000000000000000000000000000000000000000000000000000000000602082015250565b600061434a602383613113565b9150614355826142ee565b604082019050919050565b600060208201905081810360008301526143798161433d565b9050919050565b7f455243313135353a206275726e20616d6f756e7420657863656564732062616c60008201527f616e636500000000000000000000000000000000000000000000000000000000602082015250565b60006143dc602483613113565b91506143e782614380565b604082019050919050565b6000602082019050818103600083015261440b816143cf565b9050919050565b60006040820190506144276000830185612ff6565b6144346020830184612ff6565b9392505050565b7f455243313135353a2073657474696e6720617070726f76616c2073746174757360008201527f20666f722073656c660000000000000000000000000000000000000000000000602082015250565b6000614497602983613113565b91506144a28261443b565b604082019050919050565b600060208201905081810360008301526144c68161448a565b9050919050565b600081519050919050565b600082825260208201905092915050565b60006144f4826144cd565b6144fe81856144d8565b935061450e818560208601613124565b6145178161314e565b840191505092915050565b600060a0820190506145376000830188613977565b6145446020830187613977565b818103604083015261455681866137a9565b9050818103606083015261456a81856137a9565b9050818103608083015261457e81846144e9565b90509695505050505050565b6000815190506145998161304c565b92915050565b6000602082840312156145b5576145b4612f18565b5b60006145c38482850161458a565b91505092915050565b60008160e01c9050919050565b600060033d11156145f85760046000803e6145f56000516145cc565b90505b90565b600060443d106146885761460d612f0e565b60043d036004823e80513d602482011167ffffffffffffffff82111715614635575050614688565b808201805167ffffffffffffffff8111156146535750505050614688565b80602083010160043d038501811115614670575050505050614688565b61467f826020018501866131ee565b82955050505050505b90565b7f455243313135353a207472616e7366657220746f206e6f6e204552433131353560008201527f526563656976657220696d706c656d656e746572000000000000000000000000602082015250565b60006146e7603483613113565b91506146f28261468b565b604082019050919050565b60006020820190508181036000830152614716816146da565b9050919050565b7f455243313135353a204552433131353552656365697665722072656a6563746560008201527f6420746f6b656e73000000000000000000000000000000000000000000000000602082015250565b6000614779602883613113565b91506147848261471d565b604082019050919050565b600060208201905081810360008301526147a88161476c565b9050919050565b600081905092915050565b7f416363657373436f6e74726f6c3a206163636f756e7420000000000000000000600082015250565b60006147f06017836147af565b91506147fb826147ba565b601782019050919050565b600061481182613108565b61481b81856147af565b935061482b818560208601613124565b80840191505092915050565b7f206973206d697373696e6720726f6c6520000000000000000000000000000000600082015250565b600061486d6011836147af565b915061487882614837565b601182019050919050565b600061488e826147e3565b915061489a8285614806565b91506148a582614860565b91506148b18284614806565b91508190509392505050565b7f5061757361626c653a206e6f7420706175736564000000000000000000000000600082015250565b60006148f3601483613113565b91506148fe826148bd565b602082019050919050565b60006020820190508181036000830152614922816148e6565b9050919050565b600060a08201905061493e6000830188613977565b61494b6020830187613977565b6149586040830186612ff6565b6149656060830185612ff6565b818103608083015261497781846144e9565b90509695505050505050565b7f5061757361626c653a2070617573656400000000000000000000000000000000600082015250565b60006149b9601083613113565b91506149c482614983565b602082019050919050565b600060208201905081810360008301526149e8816149ac565b9050919050565b7f455243313135355061757361626c653a20746f6b656e207472616e736665722060008201527f7768696c65207061757365640000000000000000000000000000000000000000602082015250565b6000614a4b602c83613113565b9150614a56826149ef565b604082019050919050565b60006020820190508181036000830152614a7a81614a3e565b9050919050565b6000614a8c82612f80565b9150614a9783612f80565b9250817fffffffffffffffffffffffffffffffffffffffffffffffffffffffffffffffff0483118215151615614ad057614acf613f32565b5b828202905092915050565b6000614ae682612f80565b915060008203614af957614af8613f32565b5b600182039050919050565b7f537472696e67733a20686578206c656e67746820696e73756666696369656e74600082015250565b6000614b3a602083613113565b9150614b4582614b04565b602082019050919050565b60006020820190508181036000830152614b6981614b2d565b9050919050565b6000614b7b82612f80565b9150614b8683612f80565b9250828203905081811115614b9e57614b9d613f32565b5b92915050565b7f4e487b7100000000000000000000000000000000000000000000000000000000600052603160045260246000fdfea2646970667358221220ae50bd35045e784b994611fc30d7e1ece3e01a6646c1caf64b3d29d51e7c331964736f6c63430008100033",
  "immutableReferences": {},
  "source": "// SPDX-License-Identifier: MIT\n// OpenZeppelin Contracts (last updated v4.5.0) (token/ERC1155/presets/ERC1155PresetMinterPauser.sol)\n\npragma solidity ^0.8.0;\n\nimport \"@openzeppelin/contracts/token/ERC1155/ERC1155.sol\";\nimport \"@openzeppelin/contracts/token/ERC1155/extensions/ERC1155Burnable.sol\";\nimport \"@openzeppelin/contracts/token/ERC1155/extensions/ERC1155Pausable.sol\";\nimport \"@openzeppelin/contracts/access/AccessControlEnumerable.sol\";\nimport \"@openzeppelin/contracts/utils/Context.sol\";\n\n/**\n * @dev {ERC1155} token, including:\n *\n *  - ability for holders to burn (destroy) their tokens\n *  - a minter role that allows for token minting (creation)\n *  - a pauser role that allows to stop all token transfers\n *\n * This contract uses {AccessControl} to lock permissioned functions using the\n * different roles - head to its documentation for details.\n *\n * The account that deploys the contract will be granted the minter and pauser\n * roles, as well as the default admin role, which will let it grant both minter\n * and pauser roles to other accounts.\n *\n * _Deprecated in favor of https://wizard.openzeppelin.com/[Contracts Wizard]._\n */\ncontract ERC1155PresetMinterPauser is Context, AccessControlEnumerable, ERC1155Burnable, ERC1155Pausable {\n    bytes32 public constant MINTER_ROLE = keccak256(\"MINTER_ROLE\");\n    bytes32 public constant PAUSER_ROLE = keccak256(\"PAUSER_ROLE\");\n\n    /**\n     * @dev Grants `DEFAULT_ADMIN_ROLE`, `MINTER_ROLE`, and `PAUSER_ROLE` to the account that\n     * deploys the contract.\n     */\n    constructor(string memory uri) ERC1155(uri) {\n        _setupRole(DEFAULT_ADMIN_ROLE, _msgSender());\n\n        _setupRole(MINTER_ROLE, _msgSender());\n        _setupRole(PAUSER_ROLE, _msgSender());\n    }\n\n    /**\n     * @dev Creates `amount` new tokens for `to`, of token type `id`.\n     *\n     * See {ERC1155-_mint}.\n     *\n     * Requirements:\n     *\n     * - the caller must have the `MINTER_ROLE`.\n     */\n    function mint(\n        address to,\n        uint256 id,\n        uint256 amount,\n        bytes memory data\n    ) public virtual {\n        //require(hasRole(MINTER_ROLE, _msgSender()), \"ERC1155PresetMinterPauser: must have minter role to mint\");\n\n        _mint(to, id, amount, data);\n    }\n\n    /**\n     * @dev xref:ROOT:erc1155.adoc#batch-operations[Batched] variant of {mint}.\n     */\n    function mintBatch(\n        address to,\n        uint256[] memory ids,\n        uint256[] memory amounts,\n        bytes memory data\n    ) public virtual {\n        require(hasRole(MINTER_ROLE, _msgSender()), \"ERC1155PresetMinterPauser: must have minter role to mint\");\n\n        _mintBatch(to, ids, amounts, data);\n    }\n\n    /**\n     * @dev Pauses all token transfers.\n     *\n     * See {ERC1155Pausable} and {Pausable-_pause}.\n     *\n     * Requirements:\n     *\n     * - the caller must have the `PAUSER_ROLE`.\n     */\n    function pause() public virtual {\n        require(hasRole(PAUSER_ROLE, _msgSender()), \"ERC1155PresetMinterPauser: must have pauser role to pause\");\n        _pause();\n    }\n\n    /**\n     * @dev Unpauses all token transfers.\n     *\n     * See {ERC1155Pausable} and {Pausable-_unpause}.\n     *\n     * Requirements:\n     *\n     * - the caller must have the `PAUSER_ROLE`.\n     */\n    function unpause() public virtual {\n        require(hasRole(PAUSER_ROLE, _msgSender()), \"ERC1155PresetMinterPauser: must have pauser role to unpause\");\n        _unpause();\n    }\n\n    /**\n     * @dev See {IERC165-supportsInterface}.\n     */\n    function supportsInterface(bytes4 interfaceId)\n        public\n        view\n        virtual\n        override(AccessControlEnumerable, ERC1155)\n        returns (bool)\n    {\n        return super.supportsInterface(interfaceId);\n    }\n\n    function _beforeTokenTransfer(\n        address operator,\n        address from,\n        address to,\n        uint256[] memory ids,\n        uint256[] memory amounts,\n        bytes memory data\n    ) internal virtual override(ERC1155, ERC1155Pausable) {\n        super._beforeTokenTransfer(operator, from, to, ids, amounts, data);\n    }\n}\n",
  "sourcePath": "/home/prams25/thesisB/composo/supp_chain/truffle/contracts/ERC1155PresetMinterPauser.sol",
  "compiler": {
    "name": "solc",
    "version": "0.8.16+commit.07a7930e.Emscripten.clang"
  },
  "schemaVersion": "3.4.7",
  "updatedAt": "2022-08-17T12:53:01.665Z",
  "networkType": "ethereum",
  "devdoc": {
    "details": "{ERC1155} token, including:  - ability for holders to burn (destroy) their tokens  - a minter role that allows for token minting (creation)  - a pauser role that allows to stop all token transfers This contract uses {AccessControl} to lock permissioned functions using the different roles - head to its documentation for details. The account that deploys the contract will be granted the minter and pauser roles, as well as the default admin role, which will let it grant both minter and pauser roles to other accounts. _Deprecated in favor of https://wizard.openzeppelin.com/[Contracts Wizard]._",
    "kind": "dev",
    "methods": {
      "balanceOf(address,uint256)": {
        "details": "See {IERC1155-balanceOf}. Requirements: - `account` cannot be the zero address."
      },
      "balanceOfBatch(address[],uint256[])": {
        "details": "See {IERC1155-balanceOfBatch}. Requirements: - `accounts` and `ids` must have the same length."
      },
      "constructor": {
        "details": "Grants `DEFAULT_ADMIN_ROLE`, `MINTER_ROLE`, and `PAUSER_ROLE` to the account that deploys the contract."
      },
      "getRoleAdmin(bytes32)": {
        "details": "Returns the admin role that controls `role`. See {grantRole} and {revokeRole}. To change a role's admin, use {_setRoleAdmin}."
      },
      "getRoleMember(bytes32,uint256)": {
        "details": "Returns one of the accounts that have `role`. `index` must be a value between 0 and {getRoleMemberCount}, non-inclusive. Role bearers are not sorted in any particular way, and their ordering may change at any point. WARNING: When using {getRoleMember} and {getRoleMemberCount}, make sure you perform all queries on the same block. See the following https://forum.openzeppelin.com/t/iterating-over-elements-on-enumerableset-in-openzeppelin-contracts/2296[forum post] for more information."
      },
      "getRoleMemberCount(bytes32)": {
        "details": "Returns the number of accounts that have `role`. Can be used together with {getRoleMember} to enumerate all bearers of a role."
      },
      "grantRole(bytes32,address)": {
        "details": "Grants `role` to `account`. If `account` had not been already granted `role`, emits a {RoleGranted} event. Requirements: - the caller must have ``role``'s admin role. May emit a {RoleGranted} event."
      },
      "hasRole(bytes32,address)": {
        "details": "Returns `true` if `account` has been granted `role`."
      },
      "isApprovedForAll(address,address)": {
        "details": "See {IERC1155-isApprovedForAll}."
      },
      "mint(address,uint256,uint256,bytes)": {
        "details": "Creates `amount` new tokens for `to`, of token type `id`. See {ERC1155-_mint}. Requirements: - the caller must have the `MINTER_ROLE`."
      },
      "mintBatch(address,uint256[],uint256[],bytes)": {
        "details": "xref:ROOT:erc1155.adoc#batch-operations[Batched] variant of {mint}."
      },
      "pause()": {
        "details": "Pauses all token transfers. See {ERC1155Pausable} and {Pausable-_pause}. Requirements: - the caller must have the `PAUSER_ROLE`."
      },
      "paused()": {
        "details": "Returns true if the contract is paused, and false otherwise."
      },
      "renounceRole(bytes32,address)": {
        "details": "Revokes `role` from the calling account. Roles are often managed via {grantRole} and {revokeRole}: this function's purpose is to provide a mechanism for accounts to lose their privileges if they are compromised (such as when a trusted device is misplaced). If the calling account had been revoked `role`, emits a {RoleRevoked} event. Requirements: - the caller must be `account`. May emit a {RoleRevoked} event."
      },
      "revokeRole(bytes32,address)": {
        "details": "Revokes `role` from `account`. If `account` had been granted `role`, emits a {RoleRevoked} event. Requirements: - the caller must have ``role``'s admin role. May emit a {RoleRevoked} event."
      },
      "safeBatchTransferFrom(address,address,uint256[],uint256[],bytes)": {
        "details": "See {IERC1155-safeBatchTransferFrom}."
      },
      "safeTransferFrom(address,address,uint256,uint256,bytes)": {
        "details": "See {IERC1155-safeTransferFrom}."
      },
      "setApprovalForAll(address,bool)": {
        "details": "See {IERC1155-setApprovalForAll}."
      },
      "supportsInterface(bytes4)": {
        "details": "See {IERC165-supportsInterface}."
      },
      "unpause()": {
        "details": "Unpauses all token transfers. See {ERC1155Pausable} and {Pausable-_unpause}. Requirements: - the caller must have the `PAUSER_ROLE`."
      },
      "uri(uint256)": {
        "details": "See {IERC1155MetadataURI-uri}. This implementation returns the same URI for *all* token types. It relies on the token type ID substitution mechanism https://eips.ethereum.org/EIPS/eip-1155#metadata[defined in the EIP]. Clients calling this function must replace the `\\{id\\}` substring with the actual token type ID."
      }
    },
    "version": 1
  },
  "userdoc": {
    "kind": "user",
    "methods": {},
    "version": 1
  }
}