{
  "contractName": "ERC998ERC1155TopDown",
  "abi": [
    {
      "inputs": [
        {
          "internalType": "string",
          "name": "name",
          "type": "string"
        },
        {
          "internalType": "string",
          "name": "symbol",
          "type": "string"
        },
        {
          "internalType": "string",
          "name": "baseURI",
          "type": "string"
        }
      ],
      "stateMutability": "nonpayable",
      "type": "constructor"
    },
    {
      "anonymous": false,
      "inputs": [
        {
          "indexed": true,
          "internalType": "address",
          "name": "owner",
          "type": "address"
        },
        {
          "indexed": true,
          "internalType": "address",
          "name": "approved",
          "type": "address"
        },
        {
          "indexed": true,
          "internalType": "uint256",
          "name": "tokenId",
          "type": "uint256"
        }
      ],
      "name": "Approval",
      "type": "event"
    },
    {
      "anonymous": false,
      "inputs": [
        {
          "indexed": true,
          "internalType": "address",
          "name": "owner",
          "type": "address"
        },
        {
          "indexed": true,
          "internalType": "address",
          "name": "operator",
          "type": "address"
        },
        {
          "indexed": false,
          "internalType": "bool",
          "name": "approved",
          "type": "bool"
        }
      ],
      "name": "ApprovalForAll",
      "type": "event"
    },
    {
      "anonymous": false,
      "inputs": [
        {
          "indexed": true,
          "internalType": "address",
          "name": "from",
          "type": "address"
        },
        {
          "indexed": true,
          "internalType": "uint256",
          "name": "toTokenId",
          "type": "uint256"
        },
        {
          "indexed": true,
          "internalType": "address",
          "name": "childContract",
          "type": "address"
        },
        {
          "indexed": false,
          "internalType": "uint256",
          "name": "childTokenId",
          "type": "uint256"
        },
        {
          "indexed": false,
          "internalType": "uint256",
          "name": "amount",
          "type": "uint256"
        }
      ],
      "name": "ReceivedChild",
      "type": "event"
    },
    {
      "anonymous": false,
      "inputs": [
        {
          "indexed": true,
          "internalType": "address",
          "name": "from",
          "type": "address"
        },
        {
          "indexed": true,
          "internalType": "address",
          "name": "to",
          "type": "address"
        },
        {
          "indexed": true,
          "internalType": "uint256",
          "name": "tokenId",
          "type": "uint256"
        }
      ],
      "name": "Transfer",
      "type": "event"
    },
    {
      "anonymous": false,
      "inputs": [
        {
          "indexed": true,
          "internalType": "uint256",
          "name": "fromTokenId",
          "type": "uint256"
        },
        {
          "indexed": true,
          "internalType": "address",
          "name": "to",
          "type": "address"
        },
        {
          "indexed": true,
          "internalType": "address",
          "name": "childContract",
          "type": "address"
        },
        {
          "indexed": false,
          "internalType": "uint256[]",
          "name": "childTokenIds",
          "type": "uint256[]"
        },
        {
          "indexed": false,
          "internalType": "uint256[]",
          "name": "amounts",
          "type": "uint256[]"
        }
      ],
      "name": "TransferBatchChild",
      "type": "event"
    },
    {
      "anonymous": false,
      "inputs": [
        {
          "indexed": true,
          "internalType": "uint256",
          "name": "fromTokenId",
          "type": "uint256"
        },
        {
          "indexed": true,
          "internalType": "address",
          "name": "to",
          "type": "address"
        },
        {
          "indexed": true,
          "internalType": "address",
          "name": "childContract",
          "type": "address"
        },
        {
          "indexed": false,
          "internalType": "uint256",
          "name": "childTokenId",
          "type": "uint256"
        },
        {
          "indexed": false,
          "internalType": "uint256",
          "name": "amount",
          "type": "uint256"
        }
      ],
      "name": "TransferSingleChild",
      "type": "event"
    },
    {
      "inputs": [
        {
          "internalType": "uint256",
          "name": "",
          "type": "uint256"
        },
        {
          "internalType": "address",
          "name": "",
          "type": "address"
        },
        {
          "internalType": "uint256",
          "name": "",
          "type": "uint256"
        }
      ],
      "name": "_balances",
      "outputs": [
        {
          "internalType": "uint256",
          "name": "",
          "type": "uint256"
        }
      ],
      "stateMutability": "view",
      "type": "function",
      "constant": true
    },
    {
      "inputs": [
        {
          "internalType": "address",
          "name": "to",
          "type": "address"
        },
        {
          "internalType": "uint256",
          "name": "tokenId",
          "type": "uint256"
        }
      ],
      "name": "approve",
      "outputs": [],
      "stateMutability": "nonpayable",
      "type": "function"
    },
    {
      "inputs": [
        {
          "internalType": "address",
          "name": "owner",
          "type": "address"
        }
      ],
      "name": "balanceOf",
      "outputs": [
        {
          "internalType": "uint256",
          "name": "",
          "type": "uint256"
        }
      ],
      "stateMutability": "view",
      "type": "function",
      "constant": true
    },
    {
      "inputs": [
        {
          "internalType": "uint256",
          "name": "tokenId",
          "type": "uint256"
        }
      ],
      "name": "getApproved",
      "outputs": [
        {
          "internalType": "address",
          "name": "",
          "type": "address"
        }
      ],
      "stateMutability": "view",
      "type": "function",
      "constant": true
    },
    {
      "inputs": [
        {
          "internalType": "address",
          "name": "owner",
          "type": "address"
        },
        {
          "internalType": "address",
          "name": "operator",
          "type": "address"
        }
      ],
      "name": "isApprovedForAll",
      "outputs": [
        {
          "internalType": "bool",
          "name": "",
          "type": "bool"
        }
      ],
      "stateMutability": "view",
      "type": "function",
      "constant": true
    },
    {
      "inputs": [],
      "name": "name",
      "outputs": [
        {
          "internalType": "string",
          "name": "",
          "type": "string"
        }
      ],
      "stateMutability": "view",
      "type": "function",
      "constant": true
    },
    {
      "inputs": [
        {
          "internalType": "uint256",
          "name": "tokenId",
          "type": "uint256"
        }
      ],
      "name": "ownerOf",
      "outputs": [
        {
          "internalType": "address",
          "name": "",
          "type": "address"
        }
      ],
      "stateMutability": "view",
      "type": "function",
      "constant": true
    },
    {
      "inputs": [
        {
          "internalType": "address",
          "name": "from",
          "type": "address"
        },
        {
          "internalType": "address",
          "name": "to",
          "type": "address"
        },
        {
          "internalType": "uint256",
          "name": "tokenId",
          "type": "uint256"
        }
      ],
      "name": "safeTransferFrom",
      "outputs": [],
      "stateMutability": "nonpayable",
      "type": "function"
    },
    {
      "inputs": [
        {
          "internalType": "address",
          "name": "from",
          "type": "address"
        },
        {
          "internalType": "address",
          "name": "to",
          "type": "address"
        },
        {
          "internalType": "uint256",
          "name": "tokenId",
          "type": "uint256"
        },
        {
          "internalType": "bytes",
          "name": "data",
          "type": "bytes"
        }
      ],
      "name": "safeTransferFrom",
      "outputs": [],
      "stateMutability": "nonpayable",
      "type": "function"
    },
    {
      "inputs": [
        {
          "internalType": "address",
          "name": "operator",
          "type": "address"
        },
        {
          "internalType": "bool",
          "name": "approved",
          "type": "bool"
        }
      ],
      "name": "setApprovalForAll",
      "outputs": [],
      "stateMutability": "nonpayable",
      "type": "function"
    },
    {
      "inputs": [
        {
          "internalType": "bytes4",
          "name": "interfaceId",
          "type": "bytes4"
        }
      ],
      "name": "supportsInterface",
      "outputs": [
        {
          "internalType": "bool",
          "name": "",
          "type": "bool"
        }
      ],
      "stateMutability": "view",
      "type": "function",
      "constant": true
    },
    {
      "inputs": [],
      "name": "symbol",
      "outputs": [
        {
          "internalType": "string",
          "name": "",
          "type": "string"
        }
      ],
      "stateMutability": "view",
      "type": "function",
      "constant": true
    },
    {
      "inputs": [
        {
          "internalType": "uint256",
          "name": "tokenId",
          "type": "uint256"
        }
      ],
      "name": "tokenURI",
      "outputs": [
        {
          "internalType": "string",
          "name": "",
          "type": "string"
        }
      ],
      "stateMutability": "view",
      "type": "function",
      "constant": true
    },
    {
      "inputs": [
        {
          "internalType": "address",
          "name": "from",
          "type": "address"
        },
        {
          "internalType": "address",
          "name": "to",
          "type": "address"
        },
        {
          "internalType": "uint256",
          "name": "tokenId",
          "type": "uint256"
        }
      ],
      "name": "transferFrom",
      "outputs": [],
      "stateMutability": "nonpayable",
      "type": "function"
    },
    {
      "inputs": [
        {
          "internalType": "uint256",
          "name": "tokenId",
          "type": "uint256"
        },
        {
          "internalType": "address",
          "name": "childContract",
          "type": "address"
        },
        {
          "internalType": "uint256",
          "name": "childTokenId",
          "type": "uint256"
        }
      ],
      "name": "childBalance",
      "outputs": [
        {
          "internalType": "uint256",
          "name": "",
          "type": "uint256"
        }
      ],
      "stateMutability": "view",
      "type": "function",
      "constant": true
    },
    {
      "inputs": [
        {
          "internalType": "uint256",
          "name": "tokenId",
          "type": "uint256"
        }
      ],
      "name": "childContractsFor",
      "outputs": [
        {
          "internalType": "address[]",
          "name": "",
          "type": "address[]"
        }
      ],
      "stateMutability": "view",
      "type": "function",
      "constant": true
    },
    {
      "inputs": [
        {
          "internalType": "uint256",
          "name": "tokenId",
          "type": "uint256"
        },
        {
          "internalType": "address",
          "name": "childContract",
          "type": "address"
        }
      ],
      "name": "childIdsForOn",
      "outputs": [
        {
          "internalType": "uint256[]",
          "name": "",
          "type": "uint256[]"
        }
      ],
      "stateMutability": "view",
      "type": "function",
      "constant": true
    },
    {
      "inputs": [
        {
          "internalType": "uint256",
          "name": "fromTokenId",
          "type": "uint256"
        },
        {
          "internalType": "address",
          "name": "to",
          "type": "address"
        },
        {
          "internalType": "address",
          "name": "childContract",
          "type": "address"
        },
        {
          "internalType": "uint256",
          "name": "childTokenId",
          "type": "uint256"
        },
        {
          "internalType": "uint256",
          "name": "amount",
          "type": "uint256"
        },
        {
          "internalType": "bytes",
          "name": "data",
          "type": "bytes"
        }
      ],
      "name": "safeTransferChildFrom",
      "outputs": [],
      "stateMutability": "nonpayable",
      "type": "function"
    },
    {
      "inputs": [
        {
          "internalType": "uint256",
          "name": "tokenID",
          "type": "uint256"
        }
      ],
      "name": "getOwner",
      "outputs": [
        {
          "internalType": "address",
          "name": "",
          "type": "address"
        }
      ],
      "stateMutability": "view",
      "type": "function",
      "constant": true
    },
    {
      "inputs": [],
      "name": "getMsgSender",
      "outputs": [
        {
          "internalType": "address",
          "name": "",
          "type": "address"
        }
      ],
      "stateMutability": "view",
      "type": "function",
      "constant": true
    },
    {
      "inputs": [
        {
          "internalType": "uint256",
          "name": "fromTokenId",
          "type": "uint256"
        },
        {
          "internalType": "address",
          "name": "to",
          "type": "address"
        },
        {
          "internalType": "address",
          "name": "childContract",
          "type": "address"
        },
        {
          "internalType": "uint256[]",
          "name": "childTokenIds",
          "type": "uint256[]"
        },
        {
          "internalType": "uint256[]",
          "name": "amounts",
          "type": "uint256[]"
        },
        {
          "internalType": "bytes",
          "name": "data",
          "type": "bytes"
        }
      ],
      "name": "safeBatchTransferChildFrom",
      "outputs": [],
      "stateMutability": "nonpayable",
      "type": "function"
    },
    {
      "inputs": [
        {
          "internalType": "address",
          "name": "operator",
          "type": "address"
        },
        {
          "internalType": "address",
          "name": "from",
          "type": "address"
        },
        {
          "internalType": "uint256",
          "name": "id",
          "type": "uint256"
        },
        {
          "internalType": "uint256",
          "name": "amount",
          "type": "uint256"
        },
        {
          "internalType": "bytes",
          "name": "data",
          "type": "bytes"
        }
      ],
      "name": "onERC1155Received",
      "outputs": [
        {
          "internalType": "bytes4",
          "name": "",
          "type": "bytes4"
        }
      ],
      "stateMutability": "nonpayable",
      "type": "function"
    },
    {
      "inputs": [
        {
          "internalType": "address",
          "name": "operator",
          "type": "address"
        },
        {
          "internalType": "address",
          "name": "from",
          "type": "address"
        },
        {
          "internalType": "uint256",
          "name": "tokenId",
          "type": "uint256"
        },
        {
          "internalType": "bytes",
          "name": "data",
          "type": "bytes"
        }
      ],
      "name": "onERC721Received",
      "outputs": [
        {
          "internalType": "bytes4",
          "name": "",
          "type": "bytes4"
        }
      ],
      "stateMutability": "nonpayable",
      "type": "function"
    },
    {
      "inputs": [
        {
          "internalType": "address",
          "name": "operator",
          "type": "address"
        },
        {
          "internalType": "address",
          "name": "from",
          "type": "address"
        },
        {
          "internalType": "uint256[]",
          "name": "ids",
          "type": "uint256[]"
        },
        {
          "internalType": "uint256[]",
          "name": "values",
          "type": "uint256[]"
        },
        {
          "internalType": "bytes",
          "name": "data",
          "type": "bytes"
        }
      ],
      "name": "onERC1155BatchReceived",
      "outputs": [
        {
          "internalType": "bytes4",
          "name": "",
          "type": "bytes4"
        }
      ],
      "stateMutability": "nonpayable",
      "type": "function"
    }
  ],
  "bytecode": "0x60806040523480156200001157600080fd5b506040516200495d3803806200495d833981810160405281019062000037919062000223565b828281600090816200004a919062000527565b5080600190816200005c919062000527565b5050506200006f6200007960201b60201c565b505050506200060e565b606060405180602001604052806000815250905090565b6000604051905090565b600080fd5b600080fd5b600080fd5b600080fd5b6000601f19601f8301169050919050565b7f4e487b7100000000000000000000000000000000000000000000000000000000600052604160045260246000fd5b620000f982620000ae565b810181811067ffffffffffffffff821117156200011b576200011a620000bf565b5b80604052505050565b60006200013062000090565b90506200013e8282620000ee565b919050565b600067ffffffffffffffff821115620001615762000160620000bf565b5b6200016c82620000ae565b9050602081019050919050565b60005b83811015620001995780820151818401526020810190506200017c565b60008484015250505050565b6000620001bc620001b68462000143565b62000124565b905082815260208101848484011115620001db57620001da620000a9565b5b620001e884828562000179565b509392505050565b600082601f830112620002085762000207620000a4565b5b81516200021a848260208601620001a5565b91505092915050565b6000806000606084860312156200023f576200023e6200009a565b5b600084015167ffffffffffffffff81111562000260576200025f6200009f565b5b6200026e86828701620001f0565b935050602084015167ffffffffffffffff8111156200029257620002916200009f565b5b620002a086828701620001f0565b925050604084015167ffffffffffffffff811115620002c457620002c36200009f565b5b620002d286828701620001f0565b9150509250925092565b600081519050919050565b7f4e487b7100000000000000000000000000000000000000000000000000000000600052602260045260246000fd5b600060028204905060018216806200032f57607f821691505b602082108103620003455762000344620002e7565b5b50919050565b60008190508160005260206000209050919050565b60006020601f8301049050919050565b600082821b905092915050565b600060088302620003af7fffffffffffffffffffffffffffffffffffffffffffffffffffffffffffffffff8262000370565b620003bb868362000370565b95508019841693508086168417925050509392505050565b6000819050919050565b6000819050919050565b60006200040862000402620003fc84620003d3565b620003dd565b620003d3565b9050919050565b6000819050919050565b6200042483620003e7565b6200043c62000433826200040f565b8484546200037d565b825550505050565b600090565b6200045362000444565b6200046081848462000419565b505050565b5b8181101562000488576200047c60008262000449565b60018101905062000466565b5050565b601f821115620004d757620004a1816200034b565b620004ac8462000360565b81016020851015620004bc578190505b620004d4620004cb8562000360565b83018262000465565b50505b505050565b600082821c905092915050565b6000620004fc60001984600802620004dc565b1980831691505092915050565b6000620005178383620004e9565b9150826002028217905092915050565b6200053282620002dc565b67ffffffffffffffff8111156200054e576200054d620000bf565b5b6200055a825462000316565b620005678282856200048c565b600060209050601f8311600181146200059f57600084156200058a578287015190505b62000596858262000509565b86555062000606565b601f198416620005af866200034b565b60005b82811015620005d957848901518255600182019150602085019450602081019050620005b2565b86831015620005f95784890151620005f5601f891682620004e9565b8355505b6001600288020188555050505b505050505050565b61433f806200061e6000396000f3fe608060405234801561001057600080fd5b50600436106101585760003560e01c806370a08231116100c3578063bc197c811161007c578063bc197c81146103fb578063c41a360a1461042b578063c87b56dd1461045b578063e985e9c51461048b578063eeaf2f09146104bb578063f23a6e61146104eb57610158565b806370a08231146103275780637a6ce2e11461035757806389e7e2f21461037557806395d89b41146103a5578063a22cb465146103c3578063b88d4fde146103df57610158565b80632676608c116101155780632676608c1461024357806332085b651461027357806342842e0e1461028f57806342cf6e74146102ab57806360d4d23a146102c75780636352211e146102f757610158565b806301ffc9a71461015d57806306fdde031461018d578063081812fc146101ab578063095ea7b3146101db578063150b7a02146101f757806323b872dd14610227575b600080fd5b61017760048036038101906101729190612a1d565b61051b565b6040516101849190612a65565b60405180910390f35b6101956105fd565b6040516101a29190612b10565b60405180910390f35b6101c560048036038101906101c09190612b68565b61068f565b6040516101d29190612bd6565b60405180910390f35b6101f560048036038101906101f09190612c1d565b6106d5565b005b610211600480360381019061020c9190612d92565b6107ec565b60405161021e9190612e24565b60405180910390f35b610241600480360381019061023c9190612e3f565b6108d6565b005b61025d60048036038101906102589190612e92565b610936565b60405161026a9190612f90565b60405180910390f35b61028d6004803603810190610288919061307a565b610add565b005b6102a960048036038101906102a49190612e3f565b610d88565b005b6102c560048036038101906102c0919061315b565b610da8565b005b6102e160048036038101906102dc9190613204565b610fc1565b6040516102ee9190613266565b60405180910390f35b610311600480360381019061030c9190612b68565b61102e565b60405161031e9190612bd6565b60405180910390f35b610341600480360381019061033c9190613281565b6110df565b60405161034e9190613266565b60405180910390f35b61035f611196565b60405161036c9190612bd6565b60405180910390f35b61038f600480360381019061038a9190612b68565b6111a5565b60405161039c919061336c565b60405180910390f35b6103ad6112c2565b6040516103ba9190612b10565b60405180910390f35b6103dd60048036038101906103d891906133ba565b611354565b005b6103f960048036038101906103f49190612d92565b61136a565b005b610415600480360381019061041091906133fa565b6113cc565b6040516104229190612e24565b60405180910390f35b61044560048036038101906104409190612b68565b611591565b6040516104529190612bd6565b60405180910390f35b61047560048036038101906104709190612b68565b6115a3565b6040516104829190612b10565b60405180910390f35b6104a560048036038101906104a091906134c9565b61160b565b6040516104b29190612a65565b60405180910390f35b6104d560048036038101906104d09190613204565b61169f565b6040516104e29190613266565b60405180910390f35b61050560048036038101906105009190613509565b6116d1565b6040516105129190612e24565b60405180910390f35b60007f80ac58cd000000000000000000000000000000000000000000000000000000007bffffffffffffffffffffffffffffffffffffffffffffffffffffffff1916827bffffffffffffffffffffffffffffffffffffffffffffffffffffffff191614806105e657507f5b5e139f000000000000000000000000000000000000000000000000000000007bffffffffffffffffffffffffffffffffffffffffffffffffffffffff1916827bffffffffffffffffffffffffffffffffffffffffffffffffffffffff1916145b806105f657506105f5826117da565b5b9050919050565b60606000805461060c906135cf565b80601f0160208091040260200160405190810160405280929190818152602001828054610638906135cf565b80156106855780601f1061065a57610100808354040283529160200191610685565b820191906000526020600020905b81548152906001019060200180831161066857829003601f168201915b5050505050905090565b600061069a82611844565b6004600083815260200190815260200160002060009054906101000a900473ffffffffffffffffffffffffffffffffffffffff169050919050565b60006106e08261102e565b90508073ffffffffffffffffffffffffffffffffffffffff168373ffffffffffffffffffffffffffffffffffffffff1603610750576040517f08c379a000000000000000000000000000000000000000000000000000000000815260040161074790613672565b60405180910390fd5b8073ffffffffffffffffffffffffffffffffffffffff1661076f61188f565b73ffffffffffffffffffffffffffffffffffffffff16148061079e575061079d8161079861188f565b61160b565b5b6107dd576040517f08c379a00000000000000000000000000000000000000000000000000000000081526004016107d490613704565b60405180910390fd5b6107e78383611897565b505050565b60006020825114610832576040517f08c379a0000000000000000000000000000000000000000000000000000000008152600401610829906137bc565b60405180910390fd5b60008060206000369050610846919061380b565b9050803591506108598233876001611950565b3373ffffffffffffffffffffffffffffffffffffffff16828773ffffffffffffffffffffffffffffffffffffffff167fa18753b0660a8be2cdae03468c860b47c2926433ab16917f323544652803032d8860016040516108ba929190613884565b60405180910390a463150b7a0260e01b92505050949350505050565b6108e76108e161188f565b82611aeb565b610926576040517f08c379a000000000000000000000000000000000000000000000000000000000815260040161091d9061391f565b60405180910390fd5b610931838383611b80565b505050565b606060006109926009600086815260200190815260200160002060008573ffffffffffffffffffffffffffffffffffffffff1673ffffffffffffffffffffffffffffffffffffffff168152602001908152602001600020611de6565b67ffffffffffffffff8111156109ab576109aa612c67565b5b6040519080825280602002602001820160405280156109d95781602001602082028036833780820191505090505b50905060005b610a376009600087815260200190815260200160002060008673ffffffffffffffffffffffffffffffffffffffff1673ffffffffffffffffffffffffffffffffffffffff168152602001908152602001600020611de6565b811015610ad257610aa0816009600088815260200190815260200160002060008773ffffffffffffffffffffffffffffffffffffffff1673ffffffffffffffffffffffffffffffffffffffff168152602001908152602001600020611dfb90919063ffffffff16565b828281518110610ab357610ab261393f565b5b6020026020010181815250508080610aca9061396e565b9150506109df565b508091505092915050565b8151835114610b21576040517f08c379a0000000000000000000000000000000000000000000000000000000008152600401610b1890613a28565b60405180910390fd5b600073ffffffffffffffffffffffffffffffffffffffff168573ffffffffffffffffffffffffffffffffffffffff1603610b90576040517f08c379a0000000000000000000000000000000000000000000000000000000008152600401610b8790613aba565b60405180910390fd5b6000610b9a61188f565b90508073ffffffffffffffffffffffffffffffffffffffff16610bbc8861102e565b73ffffffffffffffffffffffffffffffffffffffff161480610bec5750610beb610be58861102e565b8261160b565b5b610c2b576040517f08c379a0000000000000000000000000000000000000000000000000000000008152600401610c2290613b4c565b60405180910390fd5b610c3a81888888888888611e15565b60005b8451811015610ca3576000858281518110610c5b57610c5a61393f565b5b602002602001015190506000858381518110610c7a57610c7961393f565b5b60200260200101519050610c908a898484611e1e565b505080610c9c9061396e565b9050610c3d565b508473ffffffffffffffffffffffffffffffffffffffff16632eb2c2d630888787876040518663ffffffff1660e01b8152600401610ce5959493929190613bc1565b600060405180830381600087803b158015610cff57600080fd5b505af1158015610d13573d6000803e3d6000fd5b505050508473ffffffffffffffffffffffffffffffffffffffff168673ffffffffffffffffffffffffffffffffffffffff16887f5572be9c1bc39e4e277a34f64ccd0e84456dac3f33b0b1c458c12c402c6326a98787604051610d77929190613c29565b60405180910390a450505050505050565b610da38383836040518060200160405280600081525061136a565b505050565b600073ffffffffffffffffffffffffffffffffffffffff168573ffffffffffffffffffffffffffffffffffffffff1603610e17576040517f08c379a0000000000000000000000000000000000000000000000000000000008152600401610e0e90613aba565b60405180910390fd5b6000610e2161188f565b90508073ffffffffffffffffffffffffffffffffffffffff16610e438861102e565b73ffffffffffffffffffffffffffffffffffffffff161480610e735750610e72610e6c8861102e565b8261160b565b5b610eb2576040517f08c379a0000000000000000000000000000000000000000000000000000000008152600401610ea990613b4c565b60405180910390fd5b610ed181888888610ec289612102565b610ecb89612102565b88611e15565b610edd87868686611e1e565b8473ffffffffffffffffffffffffffffffffffffffff1663f242432a30888787876040518663ffffffff1660e01b8152600401610f1e959493929190613c60565b600060405180830381600087803b158015610f3857600080fd5b505af1158015610f4c573d6000803e3d6000fd5b505050508473ffffffffffffffffffffffffffffffffffffffff168673ffffffffffffffffffffffffffffffffffffffff16887f9d6259404dec52b3d5d220f5b8e5d05cc05ec908e1bc320aa46793e3091e51948787604051610fb0929190613cba565b60405180910390a450505050505050565b60006006600085815260200190815260200160002060008473ffffffffffffffffffffffffffffffffffffffff1673ffffffffffffffffffffffffffffffffffffffff16815260200190815260200160002060008381526020019081526020016000205490509392505050565b6000806002600084815260200190815260200160002060009054906101000a900473ffffffffffffffffffffffffffffffffffffffff169050600073ffffffffffffffffffffffffffffffffffffffff168173ffffffffffffffffffffffffffffffffffffffff16036110d6576040517f08c379a00000000000000000000000000000000000000000000000000000000081526004016110cd90613d2f565b60405180910390fd5b80915050919050565b60008073ffffffffffffffffffffffffffffffffffffffff168273ffffffffffffffffffffffffffffffffffffffff160361114f576040517f08c379a000000000000000000000000000000000000000000000000000000000815260040161114690613dc1565b60405180910390fd5b600360008373ffffffffffffffffffffffffffffffffffffffff1673ffffffffffffffffffffffffffffffffffffffff168152602001908152602001600020549050919050565b60006111a061188f565b905090565b606060006111c46008600085815260200190815260200160002061217c565b67ffffffffffffffff8111156111dd576111dc612c67565b5b60405190808252806020026020018201604052801561120b5781602001602082028036833780820191505090505b50905060005b61122c6008600086815260200190815260200160002061217c565b8110156112b857611258816008600087815260200190815260200160002061219190919063ffffffff16565b82828151811061126b5761126a61393f565b5b602002602001019073ffffffffffffffffffffffffffffffffffffffff16908173ffffffffffffffffffffffffffffffffffffffff168152505080806112b09061396e565b915050611211565b5080915050919050565b6060600180546112d1906135cf565b80601f01602080910402602001604051908101604052809291908181526020018280546112fd906135cf565b801561134a5780601f1061131f5761010080835404028352916020019161134a565b820191906000526020600020905b81548152906001019060200180831161132d57829003601f168201915b5050505050905090565b61136661135f61188f565b83836121ab565b5050565b61137b61137561188f565b83611aeb565b6113ba576040517f08c379a00000000000000000000000000000000000000000000000000000000081526004016113b19061391f565b60405180910390fd5b6113c684848484612317565b50505050565b60006020825114611412576040517f08c379a0000000000000000000000000000000000000000000000000000000008152600401611409906137bc565b60405180910390fd5b8251845114611456576040517f08c379a000000000000000000000000000000000000000000000000000000000815260040161144d90613e53565b60405180910390fd5b6114668660003088888888611e15565b6000806020600036905061147a919061380b565b90508035915060005b865181101561157b576114cc83338984815181106114a4576114a361393f565b5b60200260200101518985815181106114bf576114be61393f565b5b6020026020010151611950565b3373ffffffffffffffffffffffffffffffffffffffff16838973ffffffffffffffffffffffffffffffffffffffff167fa18753b0660a8be2cdae03468c860b47c2926433ab16917f323544652803032d8a858151811061152f5761152e61393f565b5b60200260200101518a868151811061154a5761154961393f565b5b6020026020010151604051611560929190613cba565b60405180910390a480806115739061396e565b915050611483565b5063bc197c8160e01b9250505095945050505050565b600061159c8261102e565b9050919050565b60606115ae82611844565b60006115b8612373565b905060008151116115d85760405180602001604052806000815250611603565b806115e28461238a565b6040516020016115f3929190613eaf565b6040516020818303038152906040525b915050919050565b6000600560008473ffffffffffffffffffffffffffffffffffffffff1673ffffffffffffffffffffffffffffffffffffffff16815260200190815260200160002060008373ffffffffffffffffffffffffffffffffffffffff1673ffffffffffffffffffffffffffffffffffffffff16815260200190815260200160002060009054906101000a900460ff16905092915050565b600660205282600052604060002060205281600052604060002060205280600052604060002060009250925050505481565b60006020825114611717576040517f08c379a000000000000000000000000000000000000000000000000000000000815260040161170e906137bc565b60405180910390fd5b611737866000308861172889612102565b61173189612102565b88611e15565b6000806020600036905061174b919061380b565b90508035915061175d82338888611950565b3373ffffffffffffffffffffffffffffffffffffffff16828873ffffffffffffffffffffffffffffffffffffffff167fa18753b0660a8be2cdae03468c860b47c2926433ab16917f323544652803032d89896040516117bd929190613cba565b60405180910390a463f23a6e6160e01b9250505095945050505050565b60007f01ffc9a7000000000000000000000000000000000000000000000000000000007bffffffffffffffffffffffffffffffffffffffffffffffffffffffff1916827bffffffffffffffffffffffffffffffffffffffffffffffffffffffff1916149050919050565b61184d816124ea565b61188c576040517f08c379a000000000000000000000000000000000000000000000000000000000815260040161188390613d2f565b60405180910390fd5b50565b600033905090565b816004600083815260200190815260200160002060006101000a81548173ffffffffffffffffffffffffffffffffffffffff021916908373ffffffffffffffffffffffffffffffffffffffff160217905550808273ffffffffffffffffffffffffffffffffffffffff1661190a8361102e565b73ffffffffffffffffffffffffffffffffffffffff167f8c5be1e5ebec7d5bd14f71427d1e84f3dd0314c0f7b2291e5b200ac8c7c3b92560405160405180910390a45050565b611975836008600087815260200190815260200160002061255690919063ffffffff16565b6119a05761199e836008600087815260200190815260200160002061258690919063ffffffff16565b505b60006006600086815260200190815260200160002060008573ffffffffffffffffffffffffffffffffffffffff1673ffffffffffffffffffffffffffffffffffffffff16815260200190815260200160002060008481526020019081526020016000205403611a6d57611a6b826009600087815260200190815260200160002060008673ffffffffffffffffffffffffffffffffffffffff1673ffffffffffffffffffffffffffffffffffffffff1681526020019081526020016000206125b690919063ffffffff16565b505b806006600086815260200190815260200160002060008573ffffffffffffffffffffffffffffffffffffffff1673ffffffffffffffffffffffffffffffffffffffff16815260200190815260200160002060008481526020019081526020016000206000828254611ade9190613ed3565b9250508190555050505050565b600080611af78361102e565b90508073ffffffffffffffffffffffffffffffffffffffff168473ffffffffffffffffffffffffffffffffffffffff161480611b395750611b38818561160b565b5b80611b7757508373ffffffffffffffffffffffffffffffffffffffff16611b5f8461068f565b73ffffffffffffffffffffffffffffffffffffffff16145b91505092915050565b8273ffffffffffffffffffffffffffffffffffffffff16611ba08261102e565b73ffffffffffffffffffffffffffffffffffffffff1614611bf6576040517f08c379a0000000000000000000000000000000000000000000000000000000008152600401611bed90613f79565b60405180910390fd5b600073ffffffffffffffffffffffffffffffffffffffff168273ffffffffffffffffffffffffffffffffffffffff1603611c65576040517f08c379a0000000000000000000000000000000000000000000000000000000008152600401611c5c9061400b565b60405180910390fd5b611c708383836125d0565b611c7b600082611897565b6001600360008573ffffffffffffffffffffffffffffffffffffffff1673ffffffffffffffffffffffffffffffffffffffff1681526020019081526020016000206000828254611ccb919061380b565b925050819055506001600360008473ffffffffffffffffffffffffffffffffffffffff1673ffffffffffffffffffffffffffffffffffffffff1681526020019081526020016000206000828254611d229190613ed3565b92505081905550816002600083815260200190815260200160002060006101000a81548173ffffffffffffffffffffffffffffffffffffffff021916908373ffffffffffffffffffffffffffffffffffffffff160217905550808273ffffffffffffffffffffffffffffffffffffffff168473ffffffffffffffffffffffffffffffffffffffff167fddf252ad1be2c89b69c2b068fc378daa952ba7f163c4a11628f55a4df523b3ef60405160405180910390a4611de18383836125d5565b505050565b6000611df4826000016125da565b9050919050565b6000611e0a83600001836125eb565b60001c905092915050565b50505050505050565b600081141580611e8f5750806006600086815260200190815260200160002060008573ffffffffffffffffffffffffffffffffffffffff1673ffffffffffffffffffffffffffffffffffffffff16815260200190815260200160002060008481526020019081526020016000205410155b611ece576040517f08c379a0000000000000000000000000000000000000000000000000000000008152600401611ec59061409d565b60405180910390fd5b806006600086815260200190815260200160002060008573ffffffffffffffffffffffffffffffffffffffff1673ffffffffffffffffffffffffffffffffffffffff16815260200190815260200160002060008481526020019081526020016000206000828254611f3f919061380b565b9250508190555060006006600086815260200190815260200160002060008573ffffffffffffffffffffffffffffffffffffffff1673ffffffffffffffffffffffffffffffffffffffff168152602001908152602001600020600084815260200190815260200160002054036120fc5761201184600760008673ffffffffffffffffffffffffffffffffffffffff1673ffffffffffffffffffffffffffffffffffffffff168152602001908152602001600020600085815260200190815260200160002061261690919063ffffffff16565b50612074826009600087815260200190815260200160002060008673ffffffffffffffffffffffffffffffffffffffff1673ffffffffffffffffffffffffffffffffffffffff16815260200190815260200160002061261690919063ffffffff16565b5060006120cf6009600087815260200190815260200160002060008673ffffffffffffffffffffffffffffffffffffffff1673ffffffffffffffffffffffffffffffffffffffff168152602001908152602001600020611de6565b036120fb576120f9836008600087815260200190815260200160002061263090919063ffffffff16565b505b5b50505050565b60606000600167ffffffffffffffff81111561212157612120612c67565b5b60405190808252806020026020018201604052801561214f5781602001602082028036833780820191505090505b50905082816000815181106121675761216661393f565b5b60200260200101818152505080915050919050565b600061218a826000016125da565b9050919050565b60006121a083600001836125eb565b60001c905092915050565b8173ffffffffffffffffffffffffffffffffffffffff168373ffffffffffffffffffffffffffffffffffffffff1603612219576040517f08c379a000000000000000000000000000000000000000000000000000000000815260040161221090614109565b60405180910390fd5b80600560008573ffffffffffffffffffffffffffffffffffffffff1673ffffffffffffffffffffffffffffffffffffffff16815260200190815260200160002060008473ffffffffffffffffffffffffffffffffffffffff1673ffffffffffffffffffffffffffffffffffffffff16815260200190815260200160002060006101000a81548160ff0219169083151502179055508173ffffffffffffffffffffffffffffffffffffffff168373ffffffffffffffffffffffffffffffffffffffff167f17307eab39ab6107e8899845ad3d59bd9653f200f220920489ca2b5937696c318360405161230a9190612a65565b60405180910390a3505050565b612322848484611b80565b61232e84848484612660565b61236d576040517f08c379a00000000000000000000000000000000000000000000000000000000081526004016123649061419b565b60405180910390fd5b50505050565b606060405180602001604052806000815250905090565b6060600082036123d1576040518060400160405280600181526020017f300000000000000000000000000000000000000000000000000000000000000081525090506124e5565b600082905060005b600082146124035780806123ec9061396e565b915050600a826123fc91906141ea565b91506123d9565b60008167ffffffffffffffff81111561241f5761241e612c67565b5b6040519080825280601f01601f1916602001820160405280156124515781602001600182028036833780820191505090505b5090505b600085146124de5760018261246a919061380b565b9150600a85612479919061421b565b60306124859190613ed3565b60f81b81838151811061249b5761249a61393f565b5b60200101907effffffffffffffffffffffffffffffffffffffffffffffffffffffffffffff1916908160001a905350600a856124d791906141ea565b9450612455565b8093505050505b919050565b60008073ffffffffffffffffffffffffffffffffffffffff166002600084815260200190815260200160002060009054906101000a900473ffffffffffffffffffffffffffffffffffffffff1673ffffffffffffffffffffffffffffffffffffffff1614159050919050565b600061257e836000018373ffffffffffffffffffffffffffffffffffffffff1660001b6127e7565b905092915050565b60006125ae836000018373ffffffffffffffffffffffffffffffffffffffff1660001b61280a565b905092915050565b60006125c8836000018360001b61280a565b905092915050565b505050565b505050565b600081600001805490509050919050565b60008260000182815481106126035761260261393f565b5b9060005260206000200154905092915050565b6000612628836000018360001b61287a565b905092915050565b6000612658836000018373ffffffffffffffffffffffffffffffffffffffff1660001b61287a565b905092915050565b60006126818473ffffffffffffffffffffffffffffffffffffffff1661298e565b156127da578373ffffffffffffffffffffffffffffffffffffffff1663150b7a026126aa61188f565b8786866040518563ffffffff1660e01b81526004016126cc949392919061424c565b6020604051808303816000875af192505050801561270857506040513d601f19601f8201168201806040525081019061270591906142ad565b60015b61278a573d8060008114612738576040519150601f19603f3d011682016040523d82523d6000602084013e61273d565b606091505b506000815103612782576040517f08c379a00000000000000000000000000000000000000000000000000000000081526004016127799061419b565b60405180910390fd5b805181602001fd5b63150b7a0260e01b7bffffffffffffffffffffffffffffffffffffffffffffffffffffffff1916817bffffffffffffffffffffffffffffffffffffffffffffffffffffffff1916149150506127df565b600190505b949350505050565b600080836001016000848152602001908152602001600020541415905092915050565b600061281683836127e7565b61286f578260000182908060018154018082558091505060019003906000526020600020016000909190919091505582600001805490508360010160008481526020019081526020016000208190555060019050612874565b600090505b92915050565b600080836001016000848152602001908152602001600020549050600081146129825760006001826128ac919061380b565b90506000600186600001805490506128c4919061380b565b90508181146129335760008660000182815481106128e5576128e461393f565b5b90600052602060002001549050808760000184815481106129095761290861393f565b5b90600052602060002001819055508387600101600083815260200190815260200160002081905550505b85600001805480612947576129466142da565b5b600190038181906000526020600020016000905590558560010160008681526020019081526020016000206000905560019350505050612988565b60009150505b92915050565b6000808273ffffffffffffffffffffffffffffffffffffffff163b119050919050565b6000604051905090565b600080fd5b600080fd5b60007fffffffff0000000000000000000000000000000000000000000000000000000082169050919050565b6129fa816129c5565b8114612a0557600080fd5b50565b600081359050612a17816129f1565b92915050565b600060208284031215612a3357612a326129bb565b5b6000612a4184828501612a08565b91505092915050565b60008115159050919050565b612a5f81612a4a565b82525050565b6000602082019050612a7a6000830184612a56565b92915050565b600081519050919050565b600082825260208201905092915050565b60005b83811015612aba578082015181840152602081019050612a9f565b60008484015250505050565b6000601f19601f8301169050919050565b6000612ae282612a80565b612aec8185612a8b565b9350612afc818560208601612a9c565b612b0581612ac6565b840191505092915050565b60006020820190508181036000830152612b2a8184612ad7565b905092915050565b6000819050919050565b612b4581612b32565b8114612b5057600080fd5b50565b600081359050612b6281612b3c565b92915050565b600060208284031215612b7e57612b7d6129bb565b5b6000612b8c84828501612b53565b91505092915050565b600073ffffffffffffffffffffffffffffffffffffffff82169050919050565b6000612bc082612b95565b9050919050565b612bd081612bb5565b82525050565b6000602082019050612beb6000830184612bc7565b92915050565b612bfa81612bb5565b8114612c0557600080fd5b50565b600081359050612c1781612bf1565b92915050565b60008060408385031215612c3457612c336129bb565b5b6000612c4285828601612c08565b9250506020612c5385828601612b53565b9150509250929050565b600080fd5b600080fd5b7f4e487b7100000000000000000000000000000000000000000000000000000000600052604160045260246000fd5b612c9f82612ac6565b810181811067ffffffffffffffff82111715612cbe57612cbd612c67565b5b80604052505050565b6000612cd16129b1565b9050612cdd8282612c96565b919050565b600067ffffffffffffffff821115612cfd57612cfc612c67565b5b612d0682612ac6565b9050602081019050919050565b82818337600083830152505050565b6000612d35612d3084612ce2565b612cc7565b905082815260208101848484011115612d5157612d50612c62565b5b612d5c848285612d13565b509392505050565b600082601f830112612d7957612d78612c5d565b5b8135612d89848260208601612d22565b91505092915050565b60008060008060808587031215612dac57612dab6129bb565b5b6000612dba87828801612c08565b9450506020612dcb87828801612c08565b9350506040612ddc87828801612b53565b925050606085013567ffffffffffffffff811115612dfd57612dfc6129c0565b5b612e0987828801612d64565b91505092959194509250565b612e1e816129c5565b82525050565b6000602082019050612e396000830184612e15565b92915050565b600080600060608486031215612e5857612e576129bb565b5b6000612e6686828701612c08565b9350506020612e7786828701612c08565b9250506040612e8886828701612b53565b9150509250925092565b60008060408385031215612ea957612ea86129bb565b5b6000612eb785828601612b53565b9250506020612ec885828601612c08565b9150509250929050565b600081519050919050565b600082825260208201905092915050565b6000819050602082019050919050565b612f0781612b32565b82525050565b6000612f198383612efe565b60208301905092915050565b6000602082019050919050565b6000612f3d82612ed2565b612f478185612edd565b9350612f5283612eee565b8060005b83811015612f83578151612f6a8882612f0d565b9750612f7583612f25565b925050600181019050612f56565b5085935050505092915050565b60006020820190508181036000830152612faa8184612f32565b905092915050565b600067ffffffffffffffff821115612fcd57612fcc612c67565b5b602082029050602081019050919050565b600080fd5b6000612ff6612ff184612fb2565b612cc7565b9050808382526020820190506020840283018581111561301957613018612fde565b5b835b81811015613042578061302e8882612b53565b84526020840193505060208101905061301b565b5050509392505050565b600082601f83011261306157613060612c5d565b5b8135613071848260208601612fe3565b91505092915050565b60008060008060008060c08789031215613097576130966129bb565b5b60006130a589828a01612b53565b96505060206130b689828a01612c08565b95505060406130c789828a01612c08565b945050606087013567ffffffffffffffff8111156130e8576130e76129c0565b5b6130f489828a0161304c565b935050608087013567ffffffffffffffff811115613115576131146129c0565b5b61312189828a0161304c565b92505060a087013567ffffffffffffffff811115613142576131416129c0565b5b61314e89828a01612d64565b9150509295509295509295565b60008060008060008060c08789031215613178576131776129bb565b5b600061318689828a01612b53565b965050602061319789828a01612c08565b95505060406131a889828a01612c08565b94505060606131b989828a01612b53565b93505060806131ca89828a01612b53565b92505060a087013567ffffffffffffffff8111156131eb576131ea6129c0565b5b6131f789828a01612d64565b9150509295509295509295565b60008060006060848603121561321d5761321c6129bb565b5b600061322b86828701612b53565b935050602061323c86828701612c08565b925050604061324d86828701612b53565b9150509250925092565b61326081612b32565b82525050565b600060208201905061327b6000830184613257565b92915050565b600060208284031215613297576132966129bb565b5b60006132a584828501612c08565b91505092915050565b600081519050919050565b600082825260208201905092915050565b6000819050602082019050919050565b6132e381612bb5565b82525050565b60006132f583836132da565b60208301905092915050565b6000602082019050919050565b6000613319826132ae565b61332381856132b9565b935061332e836132ca565b8060005b8381101561335f57815161334688826132e9565b975061335183613301565b925050600181019050613332565b5085935050505092915050565b60006020820190508181036000830152613386818461330e565b905092915050565b61339781612a4a565b81146133a257600080fd5b50565b6000813590506133b48161338e565b92915050565b600080604083850312156133d1576133d06129bb565b5b60006133df85828601612c08565b92505060206133f0858286016133a5565b9150509250929050565b600080600080600060a08688031215613416576134156129bb565b5b600061342488828901612c08565b955050602061343588828901612c08565b945050604086013567ffffffffffffffff811115613456576134556129c0565b5b6134628882890161304c565b935050606086013567ffffffffffffffff811115613483576134826129c0565b5b61348f8882890161304c565b925050608086013567ffffffffffffffff8111156134b0576134af6129c0565b5b6134bc88828901612d64565b9150509295509295909350565b600080604083850312156134e0576134df6129bb565b5b60006134ee85828601612c08565b92505060206134ff85828601612c08565b9150509250929050565b600080600080600060a08688031215613525576135246129bb565b5b600061353388828901612c08565b955050602061354488828901612c08565b945050604061355588828901612b53565b935050606061356688828901612b53565b925050608086013567ffffffffffffffff811115613587576135866129c0565b5b61359388828901612d64565b9150509295509295909350565b7f4e487b7100000000000000000000000000000000000000000000000000000000600052602260045260246000fd5b600060028204905060018216806135e757607f821691505b6020821081036135fa576135f96135a0565b5b50919050565b7f4552433732313a20617070726f76616c20746f2063757272656e74206f776e6560008201527f7200000000000000000000000000000000000000000000000000000000000000602082015250565b600061365c602183612a8b565b915061366782613600565b604082019050919050565b6000602082019050818103600083015261368b8161364f565b9050919050565b7f4552433732313a20617070726f76652063616c6c6572206973206e6f7420746f60008201527f6b656e206f776e6572206e6f7220617070726f76656420666f7220616c6c0000602082015250565b60006136ee603e83612a8b565b91506136f982613692565b604082019050919050565b6000602082019050818103600083015261371d816136e1565b9050919050565b7f4552433939383a2064617461206d75737420636f6e7461696e2074686520756e60008201527f697175652075696e7432353620746f6b656e496420746f207472616e7366657260208201527f20746865206368696c6420746f6b656e20746f00000000000000000000000000604082015250565b60006137a6605383612a8b565b91506137b182613724565b606082019050919050565b600060208201905081810360008301526137d581613799565b9050919050565b7f4e487b7100000000000000000000000000000000000000000000000000000000600052601160045260246000fd5b600061381682612b32565b915061382183612b32565b9250828203905081811115613839576138386137dc565b5b92915050565b6000819050919050565b6000819050919050565b600061386e6138696138648461383f565b613849565b612b32565b9050919050565b61387e81613853565b82525050565b60006040820190506138996000830185613257565b6138a66020830184613875565b9392505050565b7f4552433732313a2063616c6c6572206973206e6f7420746f6b656e206f776e6560008201527f72206e6f7220617070726f766564000000000000000000000000000000000000602082015250565b6000613909602e83612a8b565b9150613914826138ad565b604082019050919050565b60006020820190508181036000830152613938816138fc565b9050919050565b7f4e487b7100000000000000000000000000000000000000000000000000000000600052603260045260246000fd5b600061397982612b32565b91507fffffffffffffffffffffffffffffffffffffffffffffffffffffffffffffffff82036139ab576139aa6137dc565b5b600182019050919050565b7f4552433939383a2069647320616e6420616d6f756e7473206c656e677468206d60008201527f69736d6174636800000000000000000000000000000000000000000000000000602082015250565b6000613a12602783612a8b565b9150613a1d826139b6565b604082019050919050565b60006020820190508181036000830152613a4181613a05565b9050919050565b7f4552433939383a207472616e7366657220746f20746865207a65726f2061646460008201527f7265737300000000000000000000000000000000000000000000000000000000602082015250565b6000613aa4602483612a8b565b9150613aaf82613a48565b604082019050919050565b60006020820190508181036000830152613ad381613a97565b9050919050565b7f4552433939383a2063616c6c6572206973206e6f74206f776e6572206e6f722060008201527f617070726f766564000000000000000000000000000000000000000000000000602082015250565b6000613b36602883612a8b565b9150613b4182613ada565b604082019050919050565b60006020820190508181036000830152613b6581613b29565b9050919050565b600081519050919050565b600082825260208201905092915050565b6000613b9382613b6c565b613b9d8185613b77565b9350613bad818560208601612a9c565b613bb681612ac6565b840191505092915050565b600060a082019050613bd66000830188612bc7565b613be36020830187612bc7565b8181036040830152613bf58186612f32565b90508181036060830152613c098185612f32565b90508181036080830152613c1d8184613b88565b90509695505050505050565b60006040820190508181036000830152613c438185612f32565b90508181036020830152613c578184612f32565b90509392505050565b600060a082019050613c756000830188612bc7565b613c826020830187612bc7565b613c8f6040830186613257565b613c9c6060830185613257565b8181036080830152613cae8184613b88565b90509695505050505050565b6000604082019050613ccf6000830185613257565b613cdc6020830184613257565b9392505050565b7f4552433732313a20696e76616c696420746f6b656e2049440000000000000000600082015250565b6000613d19601883612a8b565b9150613d2482613ce3565b602082019050919050565b60006020820190508181036000830152613d4881613d0c565b9050919050565b7f4552433732313a2061646472657373207a65726f206973206e6f74206120766160008201527f6c6964206f776e65720000000000000000000000000000000000000000000000602082015250565b6000613dab602983612a8b565b9150613db682613d4f565b604082019050919050565b60006020820190508181036000830152613dda81613d9e565b9050919050565b7f455243313135353a2069647320616e642076616c756573206c656e677468206d60008201527f69736d6174636800000000000000000000000000000000000000000000000000602082015250565b6000613e3d602783612a8b565b9150613e4882613de1565b604082019050919050565b60006020820190508181036000830152613e6c81613e30565b9050919050565b600081905092915050565b6000613e8982612a80565b613e938185613e73565b9350613ea3818560208601612a9c565b80840191505092915050565b6000613ebb8285613e7e565b9150613ec78284613e7e565b91508190509392505050565b6000613ede82612b32565b9150613ee983612b32565b9250828201905080821115613f0157613f006137dc565b5b92915050565b7f4552433732313a207472616e736665722066726f6d20696e636f72726563742060008201527f6f776e6572000000000000000000000000000000000000000000000000000000602082015250565b6000613f63602583612a8b565b9150613f6e82613f07565b604082019050919050565b60006020820190508181036000830152613f9281613f56565b9050919050565b7f4552433732313a207472616e7366657220746f20746865207a65726f2061646460008201527f7265737300000000000000000000000000000000000000000000000000000000602082015250565b6000613ff5602483612a8b565b915061400082613f99565b604082019050919050565b6000602082019050818103600083015261402481613fe8565b9050919050565b7f4552433939383a20696e73756666696369656e74206368696c642062616c616e60008201527f636520666f72207472616e736665720000000000000000000000000000000000602082015250565b6000614087602f83612a8b565b91506140928261402b565b604082019050919050565b600060208201905081810360008301526140b68161407a565b9050919050565b7f4552433732313a20617070726f766520746f2063616c6c657200000000000000600082015250565b60006140f3601983612a8b565b91506140fe826140bd565b602082019050919050565b60006020820190508181036000830152614122816140e6565b9050919050565b7f4552433732313a207472616e7366657220746f206e6f6e20455243373231526560008201527f63656976657220696d706c656d656e7465720000000000000000000000000000602082015250565b6000614185603283612a8b565b915061419082614129565b604082019050919050565b600060208201905081810360008301526141b481614178565b9050919050565b7f4e487b7100000000000000000000000000000000000000000000000000000000600052601260045260246000fd5b60006141f582612b32565b915061420083612b32565b9250826142105761420f6141bb565b5b828204905092915050565b600061422682612b32565b915061423183612b32565b925082614241576142406141bb565b5b828206905092915050565b60006080820190506142616000830187612bc7565b61426e6020830186612bc7565b61427b6040830185613257565b818103606083015261428d8184613b88565b905095945050505050565b6000815190506142a7816129f1565b92915050565b6000602082840312156142c3576142c26129bb565b5b60006142d184828501614298565b91505092915050565b7f4e487b7100000000000000000000000000000000000000000000000000000000600052603160045260246000fdfea26469706673582212204fd46fa84e315af47ab599da17ecfd4c7457887291563442b95d7cf73a71291364736f6c63430008110033",
  "immutableReferences": {},
  "source": "// SPDX-License-Identifier: UNLICENSED\r\n\r\npragma solidity ^0.8.0;\r\n\r\n/*\r\n// for remix\r\nimport \"https://github.com/OpenZeppelin/openzeppelin-contracts/blob/master/contracts/token/ERC1155/ERC1155.sol\";\r\nimport \"https://github.com/OpenZeppelin/openzeppelin-contracts/blob/master/contracts/token/ERC1155/ERC1155Receiver.sol\";\r\nimport \"https://github.com/OpenZeppelin/openzeppelin-contracts/blob/master/contracts/token/ERC721/ERC721.sol\";\r\nimport \"https://github.com/OpenZeppelin/openzeppelin-contracts/blob/master/contracts/utils/EnumerableSet.sol\";\r\n*/\r\n\r\nimport \"@openzeppelin/contracts/token/ERC1155/ERC1155.sol\";\r\nimport \"@openzeppelin/contracts/token/ERC1155/IERC1155Receiver.sol\";\r\nimport \"@openzeppelin/contracts/token/ERC721/ERC721.sol\";\r\nimport \"@openzeppelin/contracts/token/ERC721/IERC721Receiver.sol\";\r\nimport \"@openzeppelin/contracts/utils/structs/EnumerableSet.sol\";\r\n\r\nimport \"./IERC998ERC1155TopDown.sol\";\r\n\r\ncontract ERC998ERC1155TopDown is ERC721, IERC1155Receiver, IERC998ERC1155TopDown, IERC721Receiver {\r\n    using EnumerableSet for EnumerableSet.AddressSet;\r\n    using EnumerableSet for EnumerableSet.UintSet;\r\n\r\n    mapping(uint256 => mapping(address => mapping(uint256 => uint256))) public _balances;\r\n    mapping(address => mapping(uint256 => EnumerableSet.UintSet)) private _holdersOf;\r\n\r\n    mapping(uint256 => EnumerableSet.AddressSet) private _childContract;\r\n    mapping(uint256 => mapping(address => EnumerableSet.UintSet)) private _childsForChildContract;\r\n\r\n    constructor(string memory name, string memory symbol, string memory baseURI) ERC721(name, symbol) public {\r\n        _baseURI();\r\n    }\r\n\r\n    /**\r\n     * @dev Gives child balance for a specific child contract and child id .\r\n     */\r\n    function childBalance(uint256 tokenId, address childContract, uint256 childTokenId) external view override returns(uint256) {\r\n        return _balances[tokenId][childContract][childTokenId];\r\n    }\r\n\r\n    /**\r\n     * @dev Gives list of child contract where token ID has childs.\r\n     */\r\n    function childContractsFor(uint256 tokenId) override external view returns (address[] memory) {\r\n        address[] memory childContracts = new address[](_childContract[tokenId].length());\r\n\r\n        for(uint256 i = 0; i < _childContract[tokenId].length(); i++) {\r\n            childContracts[i] = _childContract[tokenId].at(i);\r\n        }\r\n\r\n        return childContracts;\r\n    }\r\n\r\n    /**\r\n     * @dev Gives list of owned child ID on a child contract by token ID.\r\n     */\r\n    function childIdsForOn(uint256 tokenId, address childContract) override external view returns (uint256[] memory) {\r\n        uint256[] memory childTokenIds = new uint256[](_childsForChildContract[tokenId][childContract].length());\r\n\r\n        for(uint256 i = 0; i < _childsForChildContract[tokenId][childContract].length(); i++) {\r\n            childTokenIds[i] = _childsForChildContract[tokenId][childContract].at(i);\r\n        }\r\n\r\n        return childTokenIds;\r\n    }\r\n\r\n    /**\r\n     * @dev Transfers child token from a token ID.\r\n     */\r\n    function safeTransferChildFrom(uint256 fromTokenId, address to, address childContract, uint256 childTokenId, uint256 amount, bytes memory data) public override {\r\n        require(to != address(0), \"ERC998: transfer to the zero address\");\r\n\r\n        address operator = _msgSender();\r\n        require(\r\n            ownerOf(fromTokenId) == operator ||\r\n            isApprovedForAll(ownerOf(fromTokenId), operator),\r\n            \"ERC998: caller is not owner nor approved\"\r\n        );\r\n\r\n        _beforeChildTransfer(operator, fromTokenId, to, childContract, _asSingletonArray(childTokenId), _asSingletonArray(amount), data);\r\n\r\n        _removeChild(fromTokenId, childContract, childTokenId, amount);\r\n\r\n        // TODO: maybe check if to == this\r\n        ERC1155(childContract).safeTransferFrom(address(this), to, childTokenId, amount, data);\r\n        emit TransferSingleChild(fromTokenId, to, childContract, childTokenId, amount);\r\n    }\r\n\r\n    function getOwner(uint256 tokenID) external view returns(address){\r\n        return ownerOf(tokenID);\r\n    }\r\n\r\n    function getMsgSender() external view returns(address){\r\n        return _msgSender();\r\n    }\r\n\r\n\r\n\r\n    /**\r\n     * @dev Transfers batch of child tokens from a token ID.\r\n     */\r\n    function safeBatchTransferChildFrom(uint256 fromTokenId, address to, address childContract, uint256[] memory childTokenIds, uint256[] memory amounts, bytes memory data) public override {\r\n        require(childTokenIds.length == amounts.length, \"ERC998: ids and amounts length mismatch\");\r\n        require(to != address(0), \"ERC998: transfer to the zero address\");\r\n\r\n        address operator = _msgSender();\r\n        require(\r\n            ownerOf(fromTokenId) == operator ||\r\n            isApprovedForAll(ownerOf(fromTokenId), operator),\r\n            \"ERC998: caller is not owner nor approved\"\r\n        );\r\n\r\n        _beforeChildTransfer(operator, fromTokenId, to, childContract, childTokenIds, amounts, data);\r\n\r\n        for (uint256 i = 0; i < childTokenIds.length; ++i) {\r\n            uint256 childTokenId = childTokenIds[i];\r\n            uint256 amount = amounts[i];\r\n\r\n            _removeChild(fromTokenId, childContract, childTokenId, amount);\r\n        }\r\n        ERC1155(childContract).safeBatchTransferFrom(address(this), to, childTokenIds, amounts, data);\r\n        emit TransferBatchChild(fromTokenId, to, childContract, childTokenIds, amounts);\r\n    }\r\n\r\n    /**\r\n     * @dev Receives a child token, the receiver token ID must be encoded in the\r\n     * field data.\r\n     */\r\n    function onERC1155Received(address operator, address from, uint256 id, uint256 amount, bytes memory data) virtual public override returns(bytes4) {\r\n        require(data.length == 32, \"ERC998: data must contain the unique uint256 tokenId to transfer the child token to\");\r\n        _beforeChildTransfer(operator, 0, address(this), from, _asSingletonArray(id), _asSingletonArray(amount), data);\r\n\r\n        uint256 _receiverTokenId;\r\n        uint256 _index = msg.data.length - 32;\r\n        assembly {_receiverTokenId := calldataload(_index)}\r\n\r\n        _receiveChild(_receiverTokenId, msg.sender, id, amount);\r\n        emit ReceivedChild(from, _receiverTokenId, msg.sender, id, amount);\r\n\r\n        return this.onERC1155Received.selector;\r\n    }\r\n\r\n    /**\r\n     * @dev Receives a child token, the receiver token ID must be encoded in the\r\n     * field data.\r\n     */\r\n    function onERC721Received(address operator, address from, uint256 tokenId, bytes memory data) virtual public override returns(bytes4) {\r\n        require(data.length == 32, \"ERC998: data must contain the unique uint256 tokenId to transfer the child token to\");\r\n\r\n        uint256 _receiverTokenId;\r\n        uint256 _index = msg.data.length - 32;\r\n        assembly {_receiverTokenId := calldataload(_index)}\r\n\r\n        _receiveChild(_receiverTokenId, msg.sender, tokenId, 1);\r\n        emit ReceivedChild(from, _receiverTokenId, msg.sender, tokenId, 1);\r\n\r\n        return this.onERC721Received.selector;\r\n    }\r\n\r\n    /**\r\n     * @dev Receives a batch of child tokens, the receiver token ID must be\r\n     * encoded in the field data.\r\n     */\r\n    function onERC1155BatchReceived(address operator, address from, uint256[] memory ids, uint256[] memory values, bytes memory data) virtual public override returns(bytes4) {\r\n        require(data.length == 32, \"ERC998: data must contain the unique uint256 tokenId to transfer the child token to\");\r\n        require(ids.length == values.length, \"ERC1155: ids and values length mismatch\");\r\n        _beforeChildTransfer(operator, 0, address(this), from, ids, values, data);\r\n\r\n        uint256 _receiverTokenId;\r\n        uint256 _index = msg.data.length - 32;\r\n        assembly {_receiverTokenId := calldataload(_index)}\r\n        for(uint256 i = 0; i < ids.length; i++) {\r\n            _receiveChild(_receiverTokenId, msg.sender, ids[i], values[i]);\r\n            emit ReceivedChild(from, _receiverTokenId, msg.sender, ids[i], values[i]);\r\n        }\r\n        return this.onERC1155BatchReceived.selector;\r\n    }\r\n\r\n    function _receiveChild(uint256 tokenId, address childContract, uint256 childTokenId, uint256 amount) internal virtual {\r\n        if(!_childContract[tokenId].contains(childContract)) {\r\n            _childContract[tokenId].add(childContract);\r\n        }\r\n        if(_balances[tokenId][childContract][childTokenId] == 0) {\r\n            _childsForChildContract[tokenId][childContract].add(childTokenId);\r\n        }\r\n        _balances[tokenId][childContract][childTokenId] += amount;\r\n    }\r\n\r\n    function _removeChild(uint256 tokenId, address childContract, uint256 childTokenId, uint256 amount) internal virtual {\r\n        require(amount != 0 || _balances[tokenId][childContract][childTokenId] >= amount, \"ERC998: insufficient child balance for transfer\");\r\n        _balances[tokenId][childContract][childTokenId] -= amount;\r\n        if(_balances[tokenId][childContract][childTokenId] == 0) {\r\n            _holdersOf[childContract][childTokenId].remove(tokenId);\r\n            _childsForChildContract[tokenId][childContract].remove(childTokenId);\r\n            if(_childsForChildContract[tokenId][childContract].length() == 0) {\r\n                _childContract[tokenId].remove(childContract);\r\n            }\r\n        }\r\n    }\r\n\r\n    function _beforeChildTransfer(\r\n        address operator,\r\n        uint256 fromTokenId,\r\n        address to,\r\n        address childContract,\r\n        uint256[] memory ids,\r\n        uint256[] memory amounts,\r\n        bytes memory data\r\n    )\r\n        internal virtual\r\n    { }\r\n\r\n    function _asSingletonArray(uint256 element) private pure returns (uint256[] memory) {\r\n        uint256[] memory array = new uint256[](1);\r\n        array[0] = element;\r\n\r\n        return array;\r\n    }\r\n}\r\n",
  "sourcePath": "C:\\Users\\prami\\Documents\\Thesis\\supp_chain\\truffle\\contracts\\ERC998ERC1155TopDown.sol",
  "compiler": {
    "name": "solc",
    "version": "0.8.17+commit.8df45f5f.Emscripten.clang"
  },
  "schemaVersion": "3.4.10",
  "updatedAt": "2022-10-16T12:33:45.365Z",
  "networkType": "ethereum",
  "devdoc": {
    "kind": "dev",
    "methods": {
      "approve(address,uint256)": {
        "details": "See {IERC721-approve}."
      },
      "balanceOf(address)": {
        "details": "See {IERC721-balanceOf}."
      },
      "childBalance(uint256,address,uint256)": {
        "details": "Gives child balance for a specific child contract and child id ."
      },
      "childContractsFor(uint256)": {
        "details": "Gives list of child contract where token ID has childs."
      },
      "childIdsForOn(uint256,address)": {
        "details": "Gives list of owned child ID on a child contract by token ID."
      },
      "getApproved(uint256)": {
        "details": "See {IERC721-getApproved}."
      },
      "isApprovedForAll(address,address)": {
        "details": "See {IERC721-isApprovedForAll}."
      },
      "name()": {
        "details": "See {IERC721Metadata-name}."
      },
      "onERC1155BatchReceived(address,address,uint256[],uint256[],bytes)": {
        "details": "Receives a batch of child tokens, the receiver token ID must be encoded in the field data."
      },
      "onERC1155Received(address,address,uint256,uint256,bytes)": {
        "details": "Receives a child token, the receiver token ID must be encoded in the field data."
      },
      "onERC721Received(address,address,uint256,bytes)": {
        "details": "Receives a child token, the receiver token ID must be encoded in the field data."
      },
      "ownerOf(uint256)": {
        "details": "See {IERC721-ownerOf}."
      },
      "safeBatchTransferChildFrom(uint256,address,address,uint256[],uint256[],bytes)": {
        "details": "Transfers batch of child tokens from a token ID."
      },
      "safeTransferChildFrom(uint256,address,address,uint256,uint256,bytes)": {
        "details": "Transfers child token from a token ID."
      },
      "safeTransferFrom(address,address,uint256)": {
        "details": "See {IERC721-safeTransferFrom}."
      },
      "safeTransferFrom(address,address,uint256,bytes)": {
        "details": "See {IERC721-safeTransferFrom}."
      },
      "setApprovalForAll(address,bool)": {
        "details": "See {IERC721-setApprovalForAll}."
      },
      "supportsInterface(bytes4)": {
        "details": "See {IERC165-supportsInterface}."
      },
      "symbol()": {
        "details": "See {IERC721Metadata-symbol}."
      },
      "tokenURI(uint256)": {
        "details": "See {IERC721Metadata-tokenURI}."
      },
      "transferFrom(address,address,uint256)": {
        "details": "See {IERC721-transferFrom}."
      }
    },
    "version": 1
  },
  "userdoc": {
    "kind": "user",
    "methods": {},
    "version": 1
  }
}