{
  "contractName": "ERC998ERC1155TopDownPresetMinterPauser",
  "abi": [
    {
      "inputs": [
        {
          "internalType": "string",
          "name": "name",
          "type": "string"
        },
        {
          "internalType": "string",
          "name": "symbol",
          "type": "string"
        },
        {
          "internalType": "string",
          "name": "baseURI",
          "type": "string"
        }
      ],
      "stateMutability": "nonpayable",
      "type": "constructor"
    },
    {
      "anonymous": false,
      "inputs": [
        {
          "indexed": true,
          "internalType": "address",
          "name": "owner",
          "type": "address"
        },
        {
          "indexed": true,
          "internalType": "address",
          "name": "approved",
          "type": "address"
        },
        {
          "indexed": true,
          "internalType": "uint256",
          "name": "tokenId",
          "type": "uint256"
        }
      ],
      "name": "Approval",
      "type": "event"
    },
    {
      "anonymous": false,
      "inputs": [
        {
          "indexed": true,
          "internalType": "address",
          "name": "owner",
          "type": "address"
        },
        {
          "indexed": true,
          "internalType": "address",
          "name": "operator",
          "type": "address"
        },
        {
          "indexed": false,
          "internalType": "bool",
          "name": "approved",
          "type": "bool"
        }
      ],
      "name": "ApprovalForAll",
      "type": "event"
    },
    {
      "anonymous": false,
      "inputs": [
        {
          "indexed": false,
          "internalType": "address",
          "name": "account",
          "type": "address"
        }
      ],
      "name": "Paused",
      "type": "event"
    },
    {
      "anonymous": false,
      "inputs": [
        {
          "indexed": true,
          "internalType": "address",
          "name": "from",
          "type": "address"
        },
        {
          "indexed": true,
          "internalType": "uint256",
          "name": "toTokenId",
          "type": "uint256"
        },
        {
          "indexed": true,
          "internalType": "address",
          "name": "childContract",
          "type": "address"
        },
        {
          "indexed": false,
          "internalType": "uint256",
          "name": "childTokenId",
          "type": "uint256"
        },
        {
          "indexed": false,
          "internalType": "uint256",
          "name": "amount",
          "type": "uint256"
        }
      ],
      "name": "ReceivedChild",
      "type": "event"
    },
    {
      "anonymous": false,
      "inputs": [
        {
          "indexed": true,
          "internalType": "bytes32",
          "name": "role",
          "type": "bytes32"
        },
        {
          "indexed": true,
          "internalType": "bytes32",
          "name": "previousAdminRole",
          "type": "bytes32"
        },
        {
          "indexed": true,
          "internalType": "bytes32",
          "name": "newAdminRole",
          "type": "bytes32"
        }
      ],
      "name": "RoleAdminChanged",
      "type": "event"
    },
    {
      "anonymous": false,
      "inputs": [
        {
          "indexed": true,
          "internalType": "bytes32",
          "name": "role",
          "type": "bytes32"
        },
        {
          "indexed": true,
          "internalType": "address",
          "name": "account",
          "type": "address"
        },
        {
          "indexed": true,
          "internalType": "address",
          "name": "sender",
          "type": "address"
        }
      ],
      "name": "RoleGranted",
      "type": "event"
    },
    {
      "anonymous": false,
      "inputs": [
        {
          "indexed": true,
          "internalType": "bytes32",
          "name": "role",
          "type": "bytes32"
        },
        {
          "indexed": true,
          "internalType": "address",
          "name": "account",
          "type": "address"
        },
        {
          "indexed": true,
          "internalType": "address",
          "name": "sender",
          "type": "address"
        }
      ],
      "name": "RoleRevoked",
      "type": "event"
    },
    {
      "anonymous": false,
      "inputs": [
        {
          "indexed": true,
          "internalType": "address",
          "name": "from",
          "type": "address"
        },
        {
          "indexed": true,
          "internalType": "address",
          "name": "to",
          "type": "address"
        },
        {
          "indexed": true,
          "internalType": "uint256",
          "name": "tokenId",
          "type": "uint256"
        }
      ],
      "name": "Transfer",
      "type": "event"
    },
    {
      "anonymous": false,
      "inputs": [
        {
          "indexed": true,
          "internalType": "uint256",
          "name": "fromTokenId",
          "type": "uint256"
        },
        {
          "indexed": true,
          "internalType": "address",
          "name": "to",
          "type": "address"
        },
        {
          "indexed": true,
          "internalType": "address",
          "name": "childContract",
          "type": "address"
        },
        {
          "indexed": false,
          "internalType": "uint256[]",
          "name": "childTokenIds",
          "type": "uint256[]"
        },
        {
          "indexed": false,
          "internalType": "uint256[]",
          "name": "amounts",
          "type": "uint256[]"
        }
      ],
      "name": "TransferBatchChild",
      "type": "event"
    },
    {
      "anonymous": false,
      "inputs": [
        {
          "indexed": true,
          "internalType": "uint256",
          "name": "fromTokenId",
          "type": "uint256"
        },
        {
          "indexed": true,
          "internalType": "address",
          "name": "to",
          "type": "address"
        },
        {
          "indexed": true,
          "internalType": "address",
          "name": "childContract",
          "type": "address"
        },
        {
          "indexed": false,
          "internalType": "uint256",
          "name": "childTokenId",
          "type": "uint256"
        },
        {
          "indexed": false,
          "internalType": "uint256",
          "name": "amount",
          "type": "uint256"
        }
      ],
      "name": "TransferSingleChild",
      "type": "event"
    },
    {
      "anonymous": false,
      "inputs": [
        {
          "indexed": false,
          "internalType": "address",
          "name": "account",
          "type": "address"
        }
      ],
      "name": "Unpaused",
      "type": "event"
    },
    {
      "inputs": [],
      "name": "DEFAULT_ADMIN_ROLE",
      "outputs": [
        {
          "internalType": "bytes32",
          "name": "",
          "type": "bytes32"
        }
      ],
      "stateMutability": "view",
      "type": "function",
      "constant": true
    },
    {
      "inputs": [],
      "name": "MINTER_ROLE",
      "outputs": [
        {
          "internalType": "bytes32",
          "name": "",
          "type": "bytes32"
        }
      ],
      "stateMutability": "view",
      "type": "function",
      "constant": true
    },
    {
      "inputs": [],
      "name": "PAUSER_ROLE",
      "outputs": [
        {
          "internalType": "bytes32",
          "name": "",
          "type": "bytes32"
        }
      ],
      "stateMutability": "view",
      "type": "function",
      "constant": true
    },
    {
      "inputs": [
        {
          "internalType": "uint256",
          "name": "",
          "type": "uint256"
        },
        {
          "internalType": "address",
          "name": "",
          "type": "address"
        },
        {
          "internalType": "uint256",
          "name": "",
          "type": "uint256"
        }
      ],
      "name": "_balances",
      "outputs": [
        {
          "internalType": "uint256",
          "name": "",
          "type": "uint256"
        }
      ],
      "stateMutability": "view",
      "type": "function",
      "constant": true
    },
    {
      "inputs": [
        {
          "internalType": "address",
          "name": "to",
          "type": "address"
        },
        {
          "internalType": "uint256",
          "name": "tokenId",
          "type": "uint256"
        }
      ],
      "name": "approve",
      "outputs": [],
      "stateMutability": "nonpayable",
      "type": "function"
    },
    {
      "inputs": [
        {
          "internalType": "address",
          "name": "owner",
          "type": "address"
        }
      ],
      "name": "balanceOf",
      "outputs": [
        {
          "internalType": "uint256",
          "name": "",
          "type": "uint256"
        }
      ],
      "stateMutability": "view",
      "type": "function",
      "constant": true
    },
    {
      "inputs": [
        {
          "internalType": "uint256",
          "name": "tokenId",
          "type": "uint256"
        },
        {
          "internalType": "address",
          "name": "childContract",
          "type": "address"
        },
        {
          "internalType": "uint256",
          "name": "childTokenId",
          "type": "uint256"
        }
      ],
      "name": "childBalance",
      "outputs": [
        {
          "internalType": "uint256",
          "name": "",
          "type": "uint256"
        }
      ],
      "stateMutability": "view",
      "type": "function",
      "constant": true
    },
    {
      "inputs": [
        {
          "internalType": "uint256",
          "name": "tokenId",
          "type": "uint256"
        }
      ],
      "name": "childContractsFor",
      "outputs": [
        {
          "internalType": "address[]",
          "name": "",
          "type": "address[]"
        }
      ],
      "stateMutability": "view",
      "type": "function",
      "constant": true
    },
    {
      "inputs": [
        {
          "internalType": "uint256",
          "name": "tokenId",
          "type": "uint256"
        },
        {
          "internalType": "address",
          "name": "childContract",
          "type": "address"
        }
      ],
      "name": "childIdsOwned",
      "outputs": [
        {
          "internalType": "uint256[]",
          "name": "",
          "type": "uint256[]"
        }
      ],
      "stateMutability": "view",
      "type": "function",
      "constant": true
    },
    {
      "inputs": [
        {
          "internalType": "uint256",
          "name": "tokenId",
          "type": "uint256"
        }
      ],
      "name": "getApproved",
      "outputs": [
        {
          "internalType": "address",
          "name": "",
          "type": "address"
        }
      ],
      "stateMutability": "view",
      "type": "function",
      "constant": true
    },
    {
      "inputs": [
        {
          "internalType": "uint256",
          "name": "tokenID",
          "type": "uint256"
        },
        {
          "internalType": "uint256",
          "name": "childTokenID",
          "type": "uint256"
        }
      ],
      "name": "getChildContract",
      "outputs": [
        {
          "internalType": "address",
          "name": "",
          "type": "address"
        }
      ],
      "stateMutability": "view",
      "type": "function",
      "constant": true
    },
    {
      "inputs": [
        {
          "internalType": "uint256",
          "name": "tokenID",
          "type": "uint256"
        }
      ],
      "name": "getIsERC1155",
      "outputs": [
        {
          "internalType": "bool",
          "name": "",
          "type": "bool"
        }
      ],
      "stateMutability": "view",
      "type": "function",
      "constant": true
    },
    {
      "inputs": [],
      "name": "getMsgSender",
      "outputs": [
        {
          "internalType": "address",
          "name": "",
          "type": "address"
        }
      ],
      "stateMutability": "view",
      "type": "function",
      "constant": true
    },
    {
      "inputs": [
        {
          "internalType": "uint256",
          "name": "tokenID",
          "type": "uint256"
        }
      ],
      "name": "getOwner",
      "outputs": [
        {
          "internalType": "address",
          "name": "",
          "type": "address"
        }
      ],
      "stateMutability": "view",
      "type": "function",
      "constant": true
    },
    {
      "inputs": [
        {
          "internalType": "bytes32",
          "name": "role",
          "type": "bytes32"
        }
      ],
      "name": "getRoleAdmin",
      "outputs": [
        {
          "internalType": "bytes32",
          "name": "",
          "type": "bytes32"
        }
      ],
      "stateMutability": "view",
      "type": "function",
      "constant": true
    },
    {
      "inputs": [],
      "name": "getRootOwners",
      "outputs": [
        {
          "internalType": "uint256[]",
          "name": "",
          "type": "uint256[]"
        }
      ],
      "stateMutability": "view",
      "type": "function",
      "constant": true
    },
    {
      "inputs": [
        {
          "internalType": "uint256",
          "name": "tokenId",
          "type": "uint256"
        }
      ],
      "name": "getTokenURI",
      "outputs": [
        {
          "internalType": "string",
          "name": "",
          "type": "string"
        }
      ],
      "stateMutability": "view",
      "type": "function",
      "constant": true
    },
    {
      "inputs": [
        {
          "internalType": "bytes32",
          "name": "role",
          "type": "bytes32"
        },
        {
          "internalType": "address",
          "name": "account",
          "type": "address"
        }
      ],
      "name": "grantRole",
      "outputs": [],
      "stateMutability": "nonpayable",
      "type": "function"
    },
    {
      "inputs": [
        {
          "internalType": "bytes32",
          "name": "role",
          "type": "bytes32"
        },
        {
          "internalType": "address",
          "name": "account",
          "type": "address"
        }
      ],
      "name": "hasRole",
      "outputs": [
        {
          "internalType": "bool",
          "name": "",
          "type": "bool"
        }
      ],
      "stateMutability": "view",
      "type": "function",
      "constant": true
    },
    {
      "inputs": [
        {
          "internalType": "address",
          "name": "owner",
          "type": "address"
        },
        {
          "internalType": "address",
          "name": "operator",
          "type": "address"
        }
      ],
      "name": "isApprovedForAll",
      "outputs": [
        {
          "internalType": "bool",
          "name": "",
          "type": "bool"
        }
      ],
      "stateMutability": "view",
      "type": "function",
      "constant": true
    },
    {
      "inputs": [
        {
          "internalType": "uint256",
          "name": "",
          "type": "uint256"
        }
      ],
      "name": "isERC1155",
      "outputs": [
        {
          "internalType": "bool",
          "name": "",
          "type": "bool"
        }
      ],
      "stateMutability": "view",
      "type": "function",
      "constant": true
    },
    {
      "inputs": [
        {
          "internalType": "uint256",
          "name": "",
          "type": "uint256"
        }
      ],
      "name": "isERC721",
      "outputs": [
        {
          "internalType": "bool",
          "name": "",
          "type": "bool"
        }
      ],
      "stateMutability": "view",
      "type": "function",
      "constant": true
    },
    {
      "inputs": [],
      "name": "name",
      "outputs": [
        {
          "internalType": "string",
          "name": "",
          "type": "string"
        }
      ],
      "stateMutability": "view",
      "type": "function",
      "constant": true
    },
    {
      "inputs": [
        {
          "internalType": "address",
          "name": "operator",
          "type": "address"
        },
        {
          "internalType": "address",
          "name": "from",
          "type": "address"
        },
        {
          "internalType": "uint256[]",
          "name": "ids",
          "type": "uint256[]"
        },
        {
          "internalType": "uint256[]",
          "name": "values",
          "type": "uint256[]"
        },
        {
          "internalType": "bytes",
          "name": "data",
          "type": "bytes"
        }
      ],
      "name": "onERC1155BatchReceived",
      "outputs": [
        {
          "internalType": "bytes4",
          "name": "",
          "type": "bytes4"
        }
      ],
      "stateMutability": "nonpayable",
      "type": "function"
    },
    {
      "inputs": [
        {
          "internalType": "address",
          "name": "operator",
          "type": "address"
        },
        {
          "internalType": "address",
          "name": "from",
          "type": "address"
        },
        {
          "internalType": "uint256",
          "name": "id",
          "type": "uint256"
        },
        {
          "internalType": "uint256",
          "name": "amount",
          "type": "uint256"
        },
        {
          "internalType": "bytes",
          "name": "data",
          "type": "bytes"
        }
      ],
      "name": "onERC1155Received",
      "outputs": [
        {
          "internalType": "bytes4",
          "name": "",
          "type": "bytes4"
        }
      ],
      "stateMutability": "nonpayable",
      "type": "function"
    },
    {
      "inputs": [
        {
          "internalType": "address",
          "name": "operator",
          "type": "address"
        },
        {
          "internalType": "address",
          "name": "from",
          "type": "address"
        },
        {
          "internalType": "uint256",
          "name": "tokenId",
          "type": "uint256"
        },
        {
          "internalType": "bytes",
          "name": "data",
          "type": "bytes"
        }
      ],
      "name": "onERC721Received",
      "outputs": [
        {
          "internalType": "bytes4",
          "name": "",
          "type": "bytes4"
        }
      ],
      "stateMutability": "nonpayable",
      "type": "function"
    },
    {
      "inputs": [
        {
          "internalType": "uint256",
          "name": "tokenId",
          "type": "uint256"
        }
      ],
      "name": "ownerOf",
      "outputs": [
        {
          "internalType": "address",
          "name": "",
          "type": "address"
        }
      ],
      "stateMutability": "view",
      "type": "function",
      "constant": true
    },
    {
      "inputs": [],
      "name": "paused",
      "outputs": [
        {
          "internalType": "bool",
          "name": "",
          "type": "bool"
        }
      ],
      "stateMutability": "view",
      "type": "function",
      "constant": true
    },
    {
      "inputs": [
        {
          "internalType": "bytes32",
          "name": "role",
          "type": "bytes32"
        },
        {
          "internalType": "address",
          "name": "account",
          "type": "address"
        }
      ],
      "name": "renounceRole",
      "outputs": [],
      "stateMutability": "nonpayable",
      "type": "function"
    },
    {
      "inputs": [
        {
          "internalType": "bytes32",
          "name": "role",
          "type": "bytes32"
        },
        {
          "internalType": "address",
          "name": "account",
          "type": "address"
        }
      ],
      "name": "revokeRole",
      "outputs": [],
      "stateMutability": "nonpayable",
      "type": "function"
    },
    {
      "inputs": [
        {
          "internalType": "uint256",
          "name": "",
          "type": "uint256"
        }
      ],
      "name": "rootOwners",
      "outputs": [
        {
          "internalType": "uint256",
          "name": "",
          "type": "uint256"
        }
      ],
      "stateMutability": "view",
      "type": "function",
      "constant": true
    },
    {
      "inputs": [
        {
          "internalType": "uint256",
          "name": "fromTokenId",
          "type": "uint256"
        },
        {
          "internalType": "address",
          "name": "to",
          "type": "address"
        },
        {
          "internalType": "address",
          "name": "childContract",
          "type": "address"
        },
        {
          "internalType": "uint256[]",
          "name": "childTokenIds",
          "type": "uint256[]"
        },
        {
          "internalType": "uint256[]",
          "name": "amounts",
          "type": "uint256[]"
        },
        {
          "internalType": "bytes",
          "name": "data",
          "type": "bytes"
        }
      ],
      "name": "safeBatchTransferChildFrom",
      "outputs": [],
      "stateMutability": "nonpayable",
      "type": "function"
    },
    {
      "inputs": [
        {
          "internalType": "uint256",
          "name": "fromTokenId",
          "type": "uint256"
        },
        {
          "internalType": "uint256",
          "name": "root",
          "type": "uint256"
        },
        {
          "internalType": "address",
          "name": "to",
          "type": "address"
        },
        {
          "internalType": "address",
          "name": "childContract",
          "type": "address"
        },
        {
          "internalType": "uint256",
          "name": "childTokenId",
          "type": "uint256"
        },
        {
          "internalType": "uint256",
          "name": "amount",
          "type": "uint256"
        },
        {
          "internalType": "bytes",
          "name": "data",
          "type": "bytes"
        }
      ],
      "name": "safeTransferChildFrom",
      "outputs": [],
      "stateMutability": "nonpayable",
      "type": "function"
    },
    {
      "inputs": [
        {
          "internalType": "address",
          "name": "from",
          "type": "address"
        },
        {
          "internalType": "address",
          "name": "to",
          "type": "address"
        },
        {
          "internalType": "uint256",
          "name": "tokenId",
          "type": "uint256"
        }
      ],
      "name": "safeTransferFrom",
      "outputs": [],
      "stateMutability": "nonpayable",
      "type": "function"
    },
    {
      "inputs": [
        {
          "internalType": "address",
          "name": "from",
          "type": "address"
        },
        {
          "internalType": "address",
          "name": "to",
          "type": "address"
        },
        {
          "internalType": "uint256",
          "name": "tokenId",
          "type": "uint256"
        },
        {
          "internalType": "bytes",
          "name": "data",
          "type": "bytes"
        }
      ],
      "name": "safeTransferFrom",
      "outputs": [],
      "stateMutability": "nonpayable",
      "type": "function"
    },
    {
      "inputs": [
        {
          "internalType": "address",
          "name": "operator",
          "type": "address"
        },
        {
          "internalType": "bool",
          "name": "approved",
          "type": "bool"
        }
      ],
      "name": "setApprovalForAll",
      "outputs": [],
      "stateMutability": "nonpayable",
      "type": "function"
    },
    {
      "inputs": [
        {
          "internalType": "uint256",
          "name": "tokenID",
          "type": "uint256"
        }
      ],
      "name": "setIsERC1155",
      "outputs": [],
      "stateMutability": "nonpayable",
      "type": "function"
    },
    {
      "inputs": [
        {
          "internalType": "uint256",
          "name": "id",
          "type": "uint256"
        }
      ],
      "name": "setRootOwner",
      "outputs": [],
      "stateMutability": "nonpayable",
      "type": "function"
    },
    {
      "inputs": [
        {
          "internalType": "uint256",
          "name": "tokenId",
          "type": "uint256"
        },
        {
          "internalType": "string",
          "name": "_tokenURI",
          "type": "string"
        }
      ],
      "name": "setTokenURI",
      "outputs": [],
      "stateMutability": "nonpayable",
      "type": "function"
    },
    {
      "inputs": [],
      "name": "symbol",
      "outputs": [
        {
          "internalType": "string",
          "name": "",
          "type": "string"
        }
      ],
      "stateMutability": "view",
      "type": "function",
      "constant": true
    },
    {
      "inputs": [
        {
          "internalType": "uint256",
          "name": "tokenId",
          "type": "uint256"
        }
      ],
      "name": "tokenURI",
      "outputs": [
        {
          "internalType": "string",
          "name": "",
          "type": "string"
        }
      ],
      "stateMutability": "view",
      "type": "function",
      "constant": true
    },
    {
      "inputs": [
        {
          "internalType": "uint256",
          "name": "",
          "type": "uint256"
        }
      ],
      "name": "token_URI",
      "outputs": [
        {
          "internalType": "string",
          "name": "",
          "type": "string"
        }
      ],
      "stateMutability": "view",
      "type": "function",
      "constant": true
    },
    {
      "inputs": [
        {
          "internalType": "address",
          "name": "from",
          "type": "address"
        },
        {
          "internalType": "address",
          "name": "to",
          "type": "address"
        },
        {
          "internalType": "uint256",
          "name": "tokenId",
          "type": "uint256"
        }
      ],
      "name": "transferFrom",
      "outputs": [],
      "stateMutability": "nonpayable",
      "type": "function"
    },
    {
      "inputs": [
        {
          "internalType": "address",
          "name": "to",
          "type": "address"
        },
        {
          "internalType": "uint256",
          "name": "tokenId",
          "type": "uint256"
        }
      ],
      "name": "mint",
      "outputs": [],
      "stateMutability": "nonpayable",
      "type": "function"
    },
    {
      "inputs": [
        {
          "internalType": "uint256",
          "name": "tokenId",
          "type": "uint256"
        }
      ],
      "name": "burn",
      "outputs": [],
      "stateMutability": "nonpayable",
      "type": "function"
    },
    {
      "inputs": [],
      "name": "pause",
      "outputs": [],
      "stateMutability": "nonpayable",
      "type": "function"
    },
    {
      "inputs": [],
      "name": "unpause",
      "outputs": [],
      "stateMutability": "nonpayable",
      "type": "function"
    },
    {
      "inputs": [
        {
          "internalType": "bytes4",
          "name": "interfaceId",
          "type": "bytes4"
        }
      ],
      "name": "supportsInterface",
      "outputs": [
        {
          "internalType": "bool",
          "name": "",
          "type": "bool"
        }
      ],
      "stateMutability": "view",
      "type": "function",
      "constant": true
    }
  ],
  "bytecode": "0x60806040523480156200001157600080fd5b5060405162004169380380620041698339810160408190526200003491620002f4565b828282828260016200004783826200042d565b5060026200005682826200042d565b5050506200007262000122640100000000026401000000009004565b5050600f805460ff1916905550620000a9905060006200009a64010000000062000134810204565b64010000000062000138810204565b620000e17f9f2df0fed2c77648de5860a4cc508cd0818c85b8b8a1ab4ceeef8d981c8956a66200009a64010000000062000134810204565b620001197f65d7a28e3265b37a6474929f336521b332c1681b933f6cb9f3376673440d862a6200009a64010000000062000134810204565b505050620004ff565b60408051602081019091526000815290565b3390565b6200014d828264010000000062000151810204565b5050565b620001668282640100000000620001ed810204565b6200014d57600082815260208181526040808320600160a060020a03851684529091529020805460ff19166001179055620001a964010000000062000134810204565b600160a060020a031681600160a060020a0316837f2f8788117e7eff1d82e926ec794901d17c78024a50270940304540a733656f0d60405160405180910390a45050565b600091825260208281526040808420600160a060020a0393909316845291905290205460ff1690565b7f4e487b7100000000000000000000000000000000000000000000000000000000600052604160045260246000fd5b600082601f8301126200025757600080fd5b81516001604060020a038082111562000274576200027462000216565b604051601f8301601f19908116603f011681019082821181831017156200029f576200029f62000216565b81604052838152602092508683858801011115620002bc57600080fd5b600091505b83821015620002e05785820183015181830184015290820190620002c1565b600093810190920192909252949350505050565b6000806000606084860312156200030a57600080fd5b83516001604060020a03808211156200032257600080fd5b620003308783880162000245565b945060208601519150808211156200034757600080fd5b620003558783880162000245565b935060408601519150808211156200036c57600080fd5b506200037b8682870162000245565b9150509250925092565b6002810460018216806200039a57607f821691505b602082108103620003d4577f4e487b7100000000000000000000000000000000000000000000000000000000600052602260045260246000fd5b50919050565b601f82111562000428576000818152602081206020601f86010481016020861015620004035750805b6020601f860104820191505b8181101562000424578281556001016200040f565b5050505b505050565b81516001604060020a0381111562000449576200044962000216565b62000461816200045a845462000385565b84620003da565b602080601f8311600181146200049d5760008415620004805750858301515b60028086026008870290910a600019041982161786555062000424565b600085815260208120601f198616915b82811015620004ce57888601518255948401946001909101908401620004ad565b5085821015620004ef57878501516008601f88160260020a60001904191681555b5050505050600202600101905550565b613c5a806200050f6000396000f3fe608060405234801561001057600080fd5b50600436106102bc576000357c0100000000000000000000000000000000000000000000000000000000900480636f9bc25b11610184578063a22cb465116100eb578063d547741f116100a4578063d547741f146106b3578063e2edee2b146106c6578063e63ab1e9146106ef578063e985e9c514610716578063eeaf2f0914610729578063f23a6e611461075a57600080fd5b8063a22cb4651461062d578063b88d4fde14610640578063bc197c8114610653578063c41a360a14610666578063c87b56dd14610679578063d53913931461068c57600080fd5b806389e7e2f21161013d57806389e7e2f2146105b45780638f1cc0de146105d457806391d14854146105e757806395d89b41146105fa5780639fb64d8314610602578063a217fddf1461062557600080fd5b80636f9bc25b1461050a57806370a082311461052d5780637a6ce2e1146105405780637a7c792f146105465780638456cb5914610589578063849c968c1461059157600080fd5b806332085b651161022857806342966c68116101e157806342966c68146104745780635c975abb146104875780635fa030211461049257806360d4d23a146104b25780636352211e146104ef57806366ceb7b81461050257600080fd5b806332085b651461040d57806336568abe146104205780633bb3a24d146104335780633f4ba83a1461044657806340c10f191461044e57806342842e0e1461046157600080fd5b8063150b7a021161027a578063150b7a0214610372578063162094c41461039e57806317dd7623146103b157806323b872dd146103c4578063248a9ca3146103d75780632f2ff15d146103fa57600080fd5b80626174ca146102c157806301ffc9a7146102e757806306fdde031461030a578063081812fc1461031f578063095ea7b31461034a5780630ef347a51461035f575b600080fd5b6102d46102cf366004612f0c565b61076d565b6040519081526020015b60405180910390f35b6102fa6102f5366004612f3b565b61078e565b60405190151581526020016102de565b61031261079f565b6040516102de9190612fa8565b61033261032d366004612f0c565b610831565b604051600160a060020a0390911681526020016102de565b61035d610358366004612fd7565b610858565b005b61031261036d366004612f0c565b610994565b6103856103803660046130c3565b610a2e565b604051600160e060020a031990911681526020016102de565b61035d6103ac36600461312b565b610aeb565b6103326103bf366004613186565b610b03565b61035d6103d23660046131a8565b610bae565b6102d46103e5366004612f0c565b60009081526020819052604090206001015490565b61035d6104083660046131e4565b610be3565b61035d61041b36600461328f565b610c08565b61035d61042e3660046131e4565b610e44565b610312610441366004612f0c565b610ed3565b61035d610f75565b61035d61045c366004612fd7565b611020565b61035d61046f3660046131a8565b61102a565b61035d610482366004612f0c565b611045565b600f5460ff166102fa565b6104a56104a03660046131e4565b6110cf565b6040516102de919061337c565b6102d46104c036600461338f565b6000928352600760209081526040808520600160a060020a039490941685529281528284209184525290205490565b6103326104fd366004612f0c565b6111da565b6104a5611242565b6102fa610518366004612f0c565b600c6020526000908152604090205460ff1681565b6102d461053b3660046133b4565b611299565b33610332565b61035d610554366004612f0c565b600e80546001810182556000919091527fbb7b4a454dc3493923482f07822329ed19e8244eff582cc204f8554c3620c3fd0155565b61035d611336565b6102fa61059f366004612f0c565b6000908152600c602052604090205460ff1690565b6105c76105c2366004612f0c565b6113dd565b6040516102de91906133cf565b61035d6105e236600461341c565b6114b8565b6102fa6105f53660046131e4565b611711565b61031261173a565b6102fa610610366004612f0c565b600b6020526000908152604090205460ff1681565b6102d4600081565b61035d61063b3660046134a1565b611749565b61035d61064e3660046130c3565b611754565b6103856106613660046134dd565b61178f565b610332610674366004612f0c565b611966565b610312610687366004612f0c565b611971565b6102d47f9f2df0fed2c77648de5860a4cc508cd0818c85b8b8a1ab4ceeef8d981c8956a681565b61035d6106c13660046131e4565b6119e5565b61035d6106d4366004612f0c565b6000908152600c60205260409020805460ff19166001179055565b6102d47f65d7a28e3265b37a6474929f336521b332c1681b933f6cb9f3376673440d862a81565b6102fa610724366004613587565b611a0a565b6102d461073736600461338f565b600760209081526000938452604080852082529284528284209052825290205481565b6103856107683660046135b1565b611a38565b600e818154811061077d57600080fd5b600091825260209091200154905081565b600061079982611b04565b92915050565b6060600180546107ae90613616565b80601f01602080910402602001604051908101604052809291908181526020018280546107da90613616565b80156108275780601f106107fc57610100808354040283529160200191610827565b820191906000526020600020905b81548152906001019060200180831161080a57829003601f168201915b5050505050905090565b600061083c82611b76565b50600090815260056020526040902054600160a060020a031690565b6000610863826111da565b905080600160a060020a031683600160a060020a0316036108f45760405160e560020a62461bcd02815260206004820152602160248201527f4552433732313a20617070726f76616c20746f2063757272656e74206f776e6560448201527f720000000000000000000000000000000000000000000000000000000000000060648201526084015b60405180910390fd5b33600160a060020a038216148061091057506109108133611a0a565b6109855760405160e560020a62461bcd02815260206004820152603e60248201527f4552433732313a20617070726f76652063616c6c6572206973206e6f7420746f60448201527f6b656e206f776e6572206e6f7220617070726f76656420666f7220616c6c000060648201526084016108eb565b61098f8383611bdd565b505050565b600d60205260009081526040902080546109ad90613616565b80601f01602080910402602001604051908101604052809291908181526020018280546109d990613616565b8015610a265780601f106109fb57610100808354040283529160200191610a26565b820191906000526020600020905b815481529060010190602001808311610a0957829003601f168201915b505050505081565b60008151602014610a545760405160e560020a62461bcd0281526004016108eb90613653565b600080610a626020366136ef565b905080359150610a758233876001611c58565b604080518681526001602082015233918491600160a060020a038a16917fa18753b0660a8be2cdae03468c860b47c2926433ab16917f323544652803032d910160405180910390a4507f150b7a02000000000000000000000000000000000000000000000000000000009150505b949350505050565b6000828152600d6020526040902061098f8282613750565b6000805b6000848152600960205260409020610b1e90611d32565b811015610ba4576000848152600a6020908152604080832060099092528220610b6d92869291610b4e9086611d3c565b600160a060020a03168152602081019190915260400160002090611d48565b15610b92576000848152600960205260409020610b8a9082611d3c565b915050610799565b80610b9c81613816565b915050610b07565b5060009392505050565b610bb9335b82611d60565b610bd85760405160e560020a62461bcd0281526004016108eb9061382f565b61098f838383611dbe565b600082815260208190526040902060010154610bfe81611fa9565b61098f8383611fb3565b8151835114610c825760405160e560020a62461bcd02815260206004820152602760248201527f4552433939383a2069647320616e6420616d6f756e7473206c656e677468206d60448201527f69736d617463680000000000000000000000000000000000000000000000000060648201526084016108eb565b600160a060020a038516610cab5760405160e560020a62461bcd0281526004016108eb9061388c565b3380610cb6886111da565b600160a060020a03161480610cd85750610cd8610cd2886111da565b82611a0a565b610cf75760405160e560020a62461bcd0281526004016108eb906138e9565b610d0681888888888888612037565b60005b8451811015610d6d576000858281518110610d2657610d26613946565b602002602001015190506000858381518110610d4457610d44613946565b60200260200101519050610d5a8a8984846120bc565b505080610d6690613816565b9050610d09565b506040517f2eb2c2d6000000000000000000000000000000000000000000000000000000008152600160a060020a03861690632eb2c2d690610dbb9030908a9089908990899060040161395f565b600060405180830381600087803b158015610dd557600080fd5b505af1158015610de9573d6000803e3d6000fd5b5050505084600160a060020a031686600160a060020a0316887f5572be9c1bc39e4e277a34f64ccd0e84456dac3f33b0b1c458c12c402c6326a98787604051610e339291906139bd565b60405180910390a450505050505050565b600160a060020a0381163314610ec55760405160e560020a62461bcd02815260206004820152602f60248201527f416363657373436f6e74726f6c3a2063616e206f6e6c792072656e6f756e636560448201527f20726f6c657320666f722073656c66000000000000000000000000000000000060648201526084016108eb565b610ecf828261227b565b5050565b6000818152600d60205260409020805460609190610ef090613616565b80601f0160208091040260200160405190810160405280929190818152602001828054610f1c90613616565b8015610f695780601f10610f3e57610100808354040283529160200191610f69565b820191906000526020600020905b815481529060010190602001808311610f4c57829003601f168201915b50505050509050919050565b610f9f7f65d7a28e3265b37a6474929f336521b332c1681b933f6cb9f3376673440d862a33611711565b611016576040805160e560020a62461bcd0281526020600482015260248101919091527f4552433732315072657365744d696e7465725061757365724175746f49643a2060448201527f6d75737420686176652070617573657220726f6c6520746f20756e706175736560648201526084016108eb565b61101e6122e0565b565b610ecf8282612332565b61098f83838360405180602001604052806000815250611754565b61104e33610bb3565b6110c35760405160e560020a62461bcd02815260206004820152603060248201527f4552433732314275726e61626c653a2063616c6c6572206973206e6f74206f7760448201527f6e6572206e6f7220617070726f7665640000000000000000000000000000000060648201526084016108eb565b6110cc81612493565b50565b6000828152600a60209081526040808320600160a060020a03851684529091528120606091906110fe90611d32565b67ffffffffffffffff81111561111657611116613001565b60405190808252806020026020018201604052801561113f578160200160208202803683370190505b50905060005b6000858152600a60209081526040808320600160a060020a0388168452909152902061117090611d32565b8110156111d2576000858152600a60209081526040808320600160a060020a038816845290915290206111a39082611d3c565b8282815181106111b5576111b5613946565b6020908102919091010152806111ca81613816565b915050611145565b509392505050565b600081815260036020526040812054600160a060020a0316806107995760405160e560020a62461bcd02815260206004820152601860248201527f4552433732313a20696e76616c696420746f6b656e204944000000000000000060448201526064016108eb565b6060600e80548060200260200160405190810160405280929190818152602001828054801561082757602002820191906000526020600020905b81548152602001906001019080831161127c575050505050905090565b6000600160a060020a03821661131a5760405160e560020a62461bcd02815260206004820152602960248201527f4552433732313a2061646472657373207a65726f206973206e6f74206120766160448201527f6c6964206f776e6572000000000000000000000000000000000000000000000060648201526084016108eb565b50600160a060020a031660009081526004602052604090205490565b6113607f65d7a28e3265b37a6474929f336521b332c1681b933f6cb9f3376673440d862a33611711565b6113d55760405160e560020a62461bcd02815260206004820152603e60248201527f4552433732315072657365744d696e7465725061757365724175746f49643a2060448201527f6d75737420686176652070617573657220726f6c6520746f207061757365000060648201526084016108eb565b61101e612547565b6000818152600960205260408120606091906113f890611d32565b67ffffffffffffffff81111561141057611410613001565b604051908082528060200260200182016040528015611439578160200160208202803683370190505b50905060005b600084815260096020526040902061145690611d32565b8110156114b15760008481526009602052604090206114759082611d3c565b82828151811061148757611487613946565b600160a060020a0390921660209283029190910190910152806114a981613816565b91505061143f565b5092915050565b600160a060020a0385166114e15760405160e560020a62461bcd0281526004016108eb9061388c565b33806114ec886111da565b600160a060020a0316146115155760405160e560020a62461bcd0281526004016108eb906138e9565b6115348189888861152589612584565b61152e89612584565b88612037565b611540888686866120bc565b6000848152600c602052604090205460ff1615611632576040517ff242432a000000000000000000000000000000000000000000000000000000008152600160a060020a0386169063f242432a906115a49030908a908990899089906004016139eb565b600060405180830381600087803b1580156115be57600080fd5b505af11580156115d2573d6000803e3d6000fd5b5050505084600160a060020a031686600160a060020a0316897f9d6259404dec52b3d5d220f5b8e5d05cc05ec908e1bc320aa46793e3091e51948787604051611625929190918252602082015260400190565b60405180910390a4611707565b6040517fb88d4fde000000000000000000000000000000000000000000000000000000008152600160a060020a0386169063b88d4fde9061167d9030908a9089908890600401613a23565b600060405180830381600087803b15801561169757600080fd5b505af11580156116ab573d6000803e3d6000fd5b5050505084600160a060020a031686600160a060020a0316897f9d6259404dec52b3d5d220f5b8e5d05cc05ec908e1bc320aa46793e3091e519487876040516116fe929190918252602082015260400190565b60405180910390a45b5050505050505050565b600091825260208281526040808420600160a060020a0393909316845291905290205460ff1690565b6060600280546107ae90613616565b610ecf3383836125cf565b61175e3383611d60565b61177d5760405160e560020a62461bcd0281526004016108eb9061382f565b611789848484846126a0565b50505050565b600081516020146117b55760405160e560020a62461bcd0281526004016108eb90613653565b825184511461182f5760405160e560020a62461bcd02815260206004820152602760248201527f455243313135353a2069647320616e642076616c756573206c656e677468206d60448201527f69736d617463680000000000000000000000000000000000000000000000000060648201526084016108eb565b61183f8660003088888888612037565b60008061184d6020366136ef565b90508035915060005b86518110156119385761189d833389848151811061187657611876613946565b602002602001015189858151811061189057611890613946565b6020026020010151611c58565b33600160a060020a03168389600160a060020a03167fa18753b0660a8be2cdae03468c860b47c2926433ab16917f323544652803032d8a85815181106118e5576118e5613946565b60200260200101518a86815181106118ff576118ff613946565b602002602001015160405161191e929190918252602082015260400190565b60405180910390a48061193081613816565b915050611856565b507fbc197c810000000000000000000000000000000000000000000000000000000098975050505050505050565b6000610799826111da565b606061197c82611b76565b600061199360408051602081019091526000815290565b905060008151116119b357604051806020016040528060008152506119de565b806119bd846126d6565b6040516020016119ce929190613a5f565b6040516020818303038152906040525b9392505050565b600082815260208190526040902060010154611a0081611fa9565b61098f838361227b565b600160a060020a03918216600090815260066020908152604080832093909416825291909152205460ff1690565b60008151602014611a5e5760405160e560020a62461bcd0281526004016108eb90613653565b611a6f866000308861152589612584565b600080611a7d6020366136ef565b905080359150611a8f82338888611c58565b604080518781526020810187905233918491600160a060020a038b16917fa18753b0660a8be2cdae03468c860b47c2926433ab16917f323544652803032d910160405180910390a4507ff23a6e6100000000000000000000000000000000000000000000000000000000979650505050505050565b6000600160e060020a031982167f80ac58cd000000000000000000000000000000000000000000000000000000001480611b675750600160e060020a031982167f5b5e139f00000000000000000000000000000000000000000000000000000000145b80610799575061079982612812565b600081815260036020526040902054600160a060020a03166110cc5760405160e560020a62461bcd02815260206004820152601860248201527f4552433732313a20696e76616c696420746f6b656e204944000000000000000060448201526064016108eb565b6000818152600560205260409020805473ffffffffffffffffffffffffffffffffffffffff1916600160a060020a0384169081179091558190611c1f826111da565b600160a060020a03167f8c5be1e5ebec7d5bd14f71427d1e84f3dd0314c0f7b2291e5b200ac8c7c3b92560405160405180910390a45050565b6000848152600960205260409020611c709084612879565b611c8e576000848152600960205260409020611c8c908461289b565b505b6000848152600760209081526040808320600160a060020a038716845282528083208584529091528120549003611ced576000848152600a60209081526040808320600160a060020a03871684529091529020611ceb90836128b0565b505b6000848152600760209081526040808320600160a060020a0387168452825280832085845290915281208054839290611d27908490613a8e565b909155505050505050565b6000610799825490565b60006119de83836128bc565b600081815260018301602052604081205415156119de565b600080611d6c836111da565b905080600160a060020a031684600160a060020a03161480611d935750611d938185611a0a565b80610ae3575083600160a060020a0316611dac84610831565b600160a060020a031614949350505050565b82600160a060020a0316611dd1826111da565b600160a060020a031614611e505760405160e560020a62461bcd02815260206004820152602560248201527f4552433732313a207472616e736665722066726f6d20696e636f72726563742060448201527f6f776e657200000000000000000000000000000000000000000000000000000060648201526084016108eb565b600160a060020a038216611ece5760405160e560020a62461bcd028152602060048201526024808201527f4552433732313a207472616e7366657220746f20746865207a65726f2061646460448201527f726573730000000000000000000000000000000000000000000000000000000060648201526084016108eb565b611ed98383836128e6565b611ee4600082611bdd565b600160a060020a0383166000908152600460205260408120805460019290611f0d9084906136ef565b9091555050600160a060020a0382166000908152600460205260408120805460019290611f3b908490613a8e565b9091555050600081815260036020526040808220805473ffffffffffffffffffffffffffffffffffffffff1916600160a060020a0386811691821790925591518493918716917fddf252ad1be2c89b69c2b068fc378daa952ba7f163c4a11628f55a4df523b3ef91a4505050565b6110cc8133612962565b611fbd8282611711565b610ecf57600082815260208181526040808320600160a060020a03851684529091529020805460ff19166001179055611ff33390565b600160a060020a031681600160a060020a0316837f2f8788117e7eff1d82e926ec794901d17c78024a50270940304540a733656f0d60405160405180910390a45050565b600f5460ff16156120b35760405160e560020a62461bcd02815260206004820152602b60248201527f4552433939385061757361626c653a206368696c64207472616e73666572207760448201527f68696c652070617573656400000000000000000000000000000000000000000060648201526084016108eb565b50505050505050565b6000848152600760209081526040808320600160a060020a0387168452825280832085845290915290205481111561215f5760405160e560020a62461bcd02815260206004820152602f60248201527f4552433939383a20696e73756666696369656e74206368696c642062616c616e60448201527f636520666f72207472616e73666572000000000000000000000000000000000060648201526084016108eb565b6000848152600760209081526040808320600160a060020a03871684528252808320858452909152812080548392906121999084906136ef565b90915550506000848152600760209081526040808320600160a060020a03871684528252808320858452909152812054900361178957600160a060020a038316600090815260086020908152604080832085845290915290206121fc90856129c9565b506000848152600a60209081526040808320600160a060020a0387168452909152902061222990836129c9565b506000848152600a60209081526040808320600160a060020a0387168452909152902061225590611d32565b60000361178957600084815260096020526040902061227490846129d5565b5050505050565b6122858282611711565b15610ecf57600082815260208181526040808320600160a060020a0385168085529252808320805460ff1916905551339285917ff6391f5c32d9c69d2a47ea670b442974b53935d1edc7fd64eb21e047a839171b9190a45050565b6122e86129ea565b600f805460ff191690557f5db9ee0a495bf2e6ff9c91a7834c1ba4fdd244a5e8aa4e537bd38aeae4b073aa335b604051600160a060020a03909116815260200160405180910390a1565b600160a060020a03821661238b5760405160e560020a62461bcd02815260206004820181905260248201527f4552433732313a206d696e7420746f20746865207a65726f206164647265737360448201526064016108eb565b600081815260036020526040902054600160a060020a0316156123f35760405160e560020a62461bcd02815260206004820152601c60248201527f4552433732313a20746f6b656e20616c7265616479206d696e7465640000000060448201526064016108eb565b6123ff600083836128e6565b600160a060020a0382166000908152600460205260408120805460019290612428908490613a8e565b9091555050600081815260036020526040808220805473ffffffffffffffffffffffffffffffffffffffff1916600160a060020a03861690811790915590518392907fddf252ad1be2c89b69c2b068fc378daa952ba7f163c4a11628f55a4df523b3ef908290a45050565b600061249e826111da565b90506124ac816000846128e6565b6124b7600083611bdd565b600160a060020a03811660009081526004602052604081208054600192906124e09084906136ef565b9091555050600082815260036020526040808220805473ffffffffffffffffffffffffffffffffffffffff1916905551839190600160a060020a038416907fddf252ad1be2c89b69c2b068fc378daa952ba7f163c4a11628f55a4df523b3ef908390a45050565b61254f612a3f565b600f805460ff191660011790557f62e78cea01bee320cd4e420270b5ea74000d11b0c9f74754ebdbfc544b05a2586123153390565b604080516001808252818301909252606091600091906020808301908036833701905050905082816000815181106125be576125be613946565b602090810291909101015292915050565b81600160a060020a031683600160a060020a0316036126335760405160e560020a62461bcd02815260206004820152601960248201527f4552433732313a20617070726f766520746f2063616c6c65720000000000000060448201526064016108eb565b600160a060020a03838116600081815260066020908152604080832094871680845294825291829020805460ff191686151590811790915591519182527f17307eab39ab6107e8899845ad3d59bd9653f200f220920489ca2b5937696c31910160405180910390a3505050565b6126ab848484611dbe565b6126b784848484612a95565b6117895760405160e560020a62461bcd0281526004016108eb90613aa1565b60608160000361271957505060408051808201909152600181527f3000000000000000000000000000000000000000000000000000000000000000602082015290565b8160005b8115612743578061272d81613816565b915061273c9050600a83613b17565b915061271d565b60008167ffffffffffffffff81111561275e5761275e613001565b6040519080825280601f01601f191660200182016040528015612788576020820181803683370190505b5090505b8415610ae35761279d6001836136ef565b91506127aa600a86613b2b565b6127b5906030613a8e565b7f0100000000000000000000000000000000000000000000000000000000000000028183815181106127e9576127e9613946565b6020010190600160f860020a031916908160001a90535061280b600a86613b17565b945061278c565b6000600160e060020a031982167f7965db0b00000000000000000000000000000000000000000000000000000000148061079957507f01ffc9a700000000000000000000000000000000000000000000000000000000600160e060020a0319831614610799565b600160a060020a038116600090815260018301602052604081205415156119de565b60006119de83600160a060020a038416612bc8565b60006119de8383612bc8565b60008260000182815481106128d3576128d3613946565b9060005260206000200154905092915050565b600f5460ff161561098f5760405160e560020a62461bcd02815260206004820152602b60248201527f4552433732315061757361626c653a20746f6b656e207472616e73666572207760448201527f68696c652070617573656400000000000000000000000000000000000000000060648201526084016108eb565b61296c8282611711565b610ecf5761298481600160a060020a03166014612c17565b61298f836020612c17565b6040516020016129a0929190613b3f565b60408051601f198184030181529082905260e560020a62461bcd0282526108eb91600401612fa8565b60006119de8383612e19565b60006119de83600160a060020a038416612e19565b600f5460ff1661101e5760405160e560020a62461bcd02815260206004820152601460248201527f5061757361626c653a206e6f742070617573656400000000000000000000000060448201526064016108eb565b600f5460ff161561101e5760405160e560020a62461bcd02815260206004820152601060248201527f5061757361626c653a207061757365640000000000000000000000000000000060448201526064016108eb565b6000600160a060020a0384163b15612bc0576040517f150b7a02000000000000000000000000000000000000000000000000000000008152600160a060020a0385169063150b7a0290612af2903390899088908890600401613a23565b6020604051808303816000875af1925050508015612b2d575060408051601f3d908101601f19168201909252612b2a91810190613bc0565b60015b612b8d573d808015612b5b576040519150601f19603f3d011682016040523d82523d6000602084013e612b60565b606091505b508051600003612b855760405160e560020a62461bcd0281526004016108eb90613aa1565b805181602001fd5b600160e060020a0319167f150b7a0200000000000000000000000000000000000000000000000000000000149050610ae3565b506001610ae3565b6000818152600183016020526040812054612c0f57508154600181810184556000848152602080822090930184905584548482528286019093526040902091909155610799565b506000610799565b60606000612c26836002613bdd565b612c31906002613a8e565b67ffffffffffffffff811115612c4957612c49613001565b6040519080825280601f01601f191660200182016040528015612c73576020820181803683370190505b5090507f300000000000000000000000000000000000000000000000000000000000000081600081518110612caa57612caa613946565b6020010190600160f860020a031916908160001a9053507f780000000000000000000000000000000000000000000000000000000000000081600181518110612cf557612cf5613946565b6020010190600160f860020a031916908160001a9053506000612d19846002613bdd565b612d24906001613a8e565b90505b6001811115612dc7577f303132333435363738396162636465660000000000000000000000000000000085600f1660108110612d6557612d65613946565b1a7f010000000000000000000000000000000000000000000000000000000000000002828281518110612d9a57612d9a613946565b6020010190600160f860020a031916908160001a905350601090940493612dc081613bf4565b9050612d27565b5083156119de5760405160e560020a62461bcd02815260206004820181905260248201527f537472696e67733a20686578206c656e67746820696e73756666696369656e7460448201526064016108eb565b60008181526001830160205260408120548015612f02576000612e3d6001836136ef565b8554909150600090612e51906001906136ef565b9050818114612eb6576000866000018281548110612e7157612e71613946565b9060005260206000200154905080876000018481548110612e9457612e94613946565b6000918252602080832090910192909255918252600188019052604090208390555b8554869080612ec757612ec7613c0b565b600190038181906000526020600020016000905590558560010160008681526020019081526020016000206000905560019350505050610799565b6000915050610799565b600060208284031215612f1e57600080fd5b5035919050565b600160e060020a0319811681146110cc57600080fd5b600060208284031215612f4d57600080fd5b81356119de81612f25565b60005b83811015612f73578181015183820152602001612f5b565b50506000910152565b60008151808452612f94816020860160208601612f58565b601f01601f19169290920160200192915050565b6020815260006119de6020830184612f7c565b8035600160a060020a0381168114612fd257600080fd5b919050565b60008060408385031215612fea57600080fd5b612ff383612fbb565b946020939093013593505050565b60e060020a634e487b7102600052604160045260246000fd5b604051601f8201601f1916810167ffffffffffffffff8111828210171561304357613043613001565b604052919050565b600067ffffffffffffffff83111561306557613065613001565b613078601f8401601f191660200161301a565b905082815283838301111561308c57600080fd5b828260208301376000602084830101529392505050565b600082601f8301126130b457600080fd5b6119de8383356020850161304b565b600080600080608085870312156130d957600080fd5b6130e285612fbb565b93506130f060208601612fbb565b925060408501359150606085013567ffffffffffffffff81111561311357600080fd5b61311f878288016130a3565b91505092959194509250565b6000806040838503121561313e57600080fd5b82359150602083013567ffffffffffffffff81111561315c57600080fd5b8301601f8101851361316d57600080fd5b61317c8582356020840161304b565b9150509250929050565b6000806040838503121561319957600080fd5b50508035926020909101359150565b6000806000606084860312156131bd57600080fd5b6131c684612fbb565b92506131d460208501612fbb565b9150604084013590509250925092565b600080604083850312156131f757600080fd5b8235915061320760208401612fbb565b90509250929050565b600082601f83011261322157600080fd5b8135602067ffffffffffffffff82111561323d5761323d613001565b80820261324b82820161301a565b928352848101820192828101908785111561326557600080fd5b83870192505b848310156132845782358252918301919083019061326b565b979650505050505050565b60008060008060008060c087890312156132a857600080fd5b863595506132b860208801612fbb565b94506132c660408801612fbb565b9350606087013567ffffffffffffffff808211156132e357600080fd5b6132ef8a838b01613210565b9450608089013591508082111561330557600080fd5b6133118a838b01613210565b935060a089013591508082111561332757600080fd5b5061333489828a016130a3565b9150509295509295509295565b600081518084526020808501945080840160005b8381101561337157815187529582019590820190600101613355565b509495945050505050565b6020815260006119de6020830184613341565b6000806000606084860312156133a457600080fd5b833592506131d460208501612fbb565b6000602082840312156133c657600080fd5b6119de82612fbb565b6020808252825182820181905260009190848201906040850190845b81811015613410578351600160a060020a0316835292840192918401916001016133eb565b50909695505050505050565b600080600080600080600060e0888a03121561343757600080fd5b873596506020880135955061344e60408901612fbb565b945061345c60608901612fbb565b93506080880135925060a0880135915060c088013567ffffffffffffffff81111561348657600080fd5b6134928a828b016130a3565b91505092959891949750929550565b600080604083850312156134b457600080fd5b6134bd83612fbb565b9150602083013580151581146134d257600080fd5b809150509250929050565b600080600080600060a086880312156134f557600080fd5b6134fe86612fbb565b945061350c60208701612fbb565b9350604086013567ffffffffffffffff8082111561352957600080fd5b61353589838a01613210565b9450606088013591508082111561354b57600080fd5b61355789838a01613210565b9350608088013591508082111561356d57600080fd5b5061357a888289016130a3565b9150509295509295909350565b6000806040838503121561359a57600080fd5b6135a383612fbb565b915061320760208401612fbb565b600080600080600060a086880312156135c957600080fd5b6135d286612fbb565b94506135e060208701612fbb565b93506040860135925060608601359150608086013567ffffffffffffffff81111561360a57600080fd5b61357a888289016130a3565b60028104600182168061362a57607f821691505b60208210810361364d5760e060020a634e487b7102600052602260045260246000fd5b50919050565b60208082526053908201527f4552433939383a2064617461206d75737420636f6e7461696e2074686520756e60408201527f697175652075696e7432353620746f6b656e496420746f207472616e7366657260608201527f20746865206368696c6420746f6b656e20746f00000000000000000000000000608082015260a00190565b60e060020a634e487b7102600052601160045260246000fd5b81810381811115610799576107996136d6565b601f82111561098f576000818152602081206020601f860104810160208610156137295750805b6020601f860104820191505b8181101561374857828155600101613735565b505050505050565b815167ffffffffffffffff81111561376a5761376a613001565b61377e816137788454613616565b84613702565b602080601f8311600181146137b7576000841561379b5750858301515b60028086026008870290910a6000190419821617865550613748565b600085815260208120601f198616915b828110156137e6578886015182559484019460019091019084016137c7565b508582101561380657878501516008601f88160260020a60001904191681555b5050505050600202600101905550565b600060018201613828576138286136d6565b5060010190565b6020808252602e908201527f4552433732313a2063616c6c6572206973206e6f7420746f6b656e206f776e6560408201527f72206e6f7220617070726f766564000000000000000000000000000000000000606082015260800190565b60208082526024908201527f4552433939383a207472616e7366657220746f20746865207a65726f2061646460408201527f7265737300000000000000000000000000000000000000000000000000000000606082015260800190565b60208082526028908201527f4552433939383a2063616c6c6572206973206e6f74206f776e6572206e6f722060408201527f617070726f766564000000000000000000000000000000000000000000000000606082015260800190565b60e060020a634e487b7102600052603260045260246000fd5b6000600160a060020a03808816835280871660208401525060a0604083015261398b60a0830186613341565b828103606084015261399d8186613341565b905082810360808401526139b18185612f7c565b98975050505050505050565b6040815260006139d06040830185613341565b82810360208401526139e28185613341565b95945050505050565b6000600160a060020a03808816835280871660208401525084604083015283606083015260a0608083015261328460a0830184612f7c565b6000600160a060020a03808716835280861660208401525083604083015260806060830152613a556080830184612f7c565b9695505050505050565b60008351613a71818460208801612f58565b835190830190613a85818360208801612f58565b01949350505050565b80820180821115610799576107996136d6565b60208082526032908201527f4552433732313a207472616e7366657220746f206e6f6e20455243373231526560408201527f63656976657220696d706c656d656e7465720000000000000000000000000000606082015260800190565b60e060020a634e487b7102600052601260045260246000fd5b600082613b2657613b26613afe565b500490565b600082613b3a57613b3a613afe565b500690565b7f416363657373436f6e74726f6c3a206163636f756e7420000000000000000000815260008351613b77816017850160208801612f58565b7f206973206d697373696e6720726f6c65200000000000000000000000000000006017918401918201528351613bb4816028840160208801612f58565b01602801949350505050565b600060208284031215613bd257600080fd5b81516119de81612f25565b8082028115828204841417610799576107996136d6565b600081613c0357613c036136d6565b506000190190565b60e060020a634e487b7102600052603160045260246000fdfea26469706673582212204c86bc9e6722ca4acfb7bc5f7e2e58bbc919dea1def256ee54ac368f8decc6fe64736f6c63430008110033",
  "immutableReferences": {},
  "source": "// SPDX-License-Identifier: MIT\r\n\r\npragma solidity ^0.8.0;\r\n\r\n/* import \"https://github.com/OpenZeppelin/openzeppelin-contracts/blob/master/contracts/access/AccessControl.sol\";\r\nimport \"https://github.com/OpenZeppelin/openzeppelin-contracts/blob/master/contracts/GSN/Context.sol\";\r\nimport \"https://github.com/OpenZeppelin/openzeppelin-contracts/blob/master/contracts/utils/Pausable.sol\"; */\r\n\r\nimport \"@openzeppelin/contracts/access/AccessControl.sol\";\r\nimport \"@openzeppelin/contracts/utils/Context.sol\";\r\nimport \"@openzeppelin/contracts/security/Pausable.sol\";\r\n\r\nimport \"./ERC998ERC1155TopDown.sol\";\r\n\r\n/**\r\n * @dev {ERC998} token, including:\r\n *\r\n *  - ability for holders to burn (destroy) their tokens\r\n *  - a minter role that allows for token minting (creation)\r\n *  - a pauser role that allows to stop all token transfers\r\n *\r\n * This contract uses {AccessControl} to lock permissioned functions using the\r\n * different roles - head to its documentation for details.\r\n *\r\n * The account that deploys the contract will be granted the minter and pauser\r\n * roles, as well as the default admin role, which will let it grant both minter\r\n * and pauser roles to other accounts.\r\n */\r\ncontract ERC998ERC1155TopDownPresetMinterPauser is Context, AccessControl, ERC998ERC1155TopDown, Pausable {\r\n    bytes32 public constant MINTER_ROLE = keccak256(\"MINTER_ROLE\");\r\n    bytes32 public constant PAUSER_ROLE = keccak256(\"PAUSER_ROLE\");\r\n\r\n    /**\r\n     * @dev Grants `DEFAULT_ADMIN_ROLE`, `MINTER_ROLE` and `PAUSER_ROLE` to the\r\n     * account that deploys the contract.\r\n     *\r\n     * Token URIs will be autogenerated based on `baseURI` and their token IDs.\r\n     * See {ERC721-tokenURI}.\r\n     */\r\n    constructor(string memory name, string memory symbol, string memory baseURI) public ERC998ERC1155TopDown(name, symbol, baseURI) {\r\n        _setupRole(DEFAULT_ADMIN_ROLE, _msgSender());\r\n        _setupRole(MINTER_ROLE, _msgSender());\r\n        _setupRole(PAUSER_ROLE, _msgSender());\r\n    }\r\n\r\n    /**\r\n     * @dev Creates a new token for `to`. The token URI autogenerated based on\r\n     * the base URI passed at construction and the token ID.\r\n     *\r\n     * See {ERC721-_mint}.\r\n     *\r\n     * Requirements:\r\n     *\r\n     * - the caller must have the `MINTER_ROLE`.\r\n     */\r\n    function mint(address to, uint256 tokenId) public virtual {\r\n        //require(hasRole(MINTER_ROLE, _msgSender()), \"ERC721: must have minter role to mint in ERC998\");\r\n\r\n        // We cannot just use balanceOf to create the new tokenId because tokens\r\n        // can be burned (destroyed), so we need a separate counter.\r\n        _mint(to, tokenId);\r\n    }\r\n\r\n\r\n    /**\r\n     * @dev Burns `tokenId`. See {ERC721-_burn}.\r\n     *\r\n     * Requirements:\r\n     *\r\n     * - The caller must own `tokenId` or be an approved operator.\r\n     */\r\n    function burn(uint256 tokenId) public virtual {\r\n        //solhint-disable-next-line max-line-length\r\n        require(_isApprovedOrOwner(_msgSender(), tokenId), \"ERC721Burnable: caller is not owner nor approved\");\r\n        _burn(tokenId);\r\n    }\r\n\r\n    /**\r\n     * @dev Pauses all token transfers.\r\n     *\r\n     * See {ERC721Pausable} and {Pausable-_pause}.\r\n     *\r\n     * Requirements:\r\n     *\r\n     * - the caller must have the `PAUSER_ROLE`.\r\n     */\r\n    function pause() public virtual {\r\n        require(hasRole(PAUSER_ROLE, _msgSender()), \"ERC721PresetMinterPauserAutoId: must have pauser role to pause\");\r\n        _pause();\r\n    }\r\n\r\n    /**\r\n     * @dev Unpauses all token transfers.\r\n     *\r\n     * See {ERC721Pausable} and {Pausable-_unpause}.\r\n     *\r\n     * Requirements:\r\n     *\r\n     * - the caller must have the `PAUSER_ROLE`.\r\n     */\r\n    function unpause() public virtual {\r\n        require(hasRole(PAUSER_ROLE, _msgSender()), \"ERC721PresetMinterPauserAutoId: must have pauser role to unpause\");\r\n        _unpause();\r\n    }\r\n\r\n    /**\r\n     * @dev See {ERC721-_beforeTokenTransfer}.\r\n     *\r\n     * Requirements:\r\n     *\r\n     * - the contract must not be paused.\r\n     */\r\n    function _beforeTokenTransfer(address from, address to, uint256 tokenId) internal virtual override {\r\n        require(!paused(), \"ERC721Pausable: token transfer while paused\");\r\n\r\n        super._beforeTokenTransfer(from, to, tokenId);\r\n    }\r\n\r\n    function _beforeChildTransfer(\r\n        address operator,\r\n        uint256 fromTokenId,\r\n        address to,\r\n        address childContract,\r\n        uint256[] memory ids,\r\n        uint256[] memory amounts,\r\n        bytes memory data\r\n    )\r\n        internal virtual override\r\n    {\r\n        require(!paused(), \"ERC998Pausable: child transfer while paused\");\r\n\r\n        super._beforeChildTransfer(operator, fromTokenId, to, childContract, ids, amounts, data);\r\n    }\r\n\r\n    function supportsInterface(bytes4 interfaceId) public view virtual override(ERC721, IERC165, AccessControl) returns (bool) {\r\n        return super.supportsInterface(interfaceId);\r\n    }\r\n}\r\n",
  "sourcePath": "C:\\Users\\prami\\Documents\\Thesis\\supp_chain\\truffle\\contracts\\ERC998ERC1155TopDownPresetMinterPauser.sol",
  "compiler": {
    "name": "solc",
    "version": "0.8.17+commit.8df45f5f.Emscripten.clang"
  },
  "schemaVersion": "3.4.10",
  "updatedAt": "2022-11-09T10:44:02.078Z",
  "networkType": "ethereum",
  "devdoc": {
    "details": "{ERC998} token, including:  - ability for holders to burn (destroy) their tokens  - a minter role that allows for token minting (creation)  - a pauser role that allows to stop all token transfers This contract uses {AccessControl} to lock permissioned functions using the different roles - head to its documentation for details. The account that deploys the contract will be granted the minter and pauser roles, as well as the default admin role, which will let it grant both minter and pauser roles to other accounts.",
    "kind": "dev",
    "methods": {
      "approve(address,uint256)": {
        "details": "See {IERC721-approve}."
      },
      "balanceOf(address)": {
        "details": "See {IERC721-balanceOf}."
      },
      "burn(uint256)": {
        "details": "Burns `tokenId`. See {ERC721-_burn}. Requirements: - The caller must own `tokenId` or be an approved operator."
      },
      "childBalance(uint256,address,uint256)": {
        "details": "Gives child balance for a specific child contract and child id ."
      },
      "childContractsFor(uint256)": {
        "details": "Gives list of child contract where token ID has childs."
      },
      "childIdsOwned(uint256,address)": {
        "details": "Gives list of owned child ID on a child contract by parent token ID and child contract."
      },
      "constructor": {
        "details": "Grants `DEFAULT_ADMIN_ROLE`, `MINTER_ROLE` and `PAUSER_ROLE` to the account that deploys the contract. Token URIs will be autogenerated based on `baseURI` and their token IDs. See {ERC721-tokenURI}."
      },
      "getApproved(uint256)": {
        "details": "See {IERC721-getApproved}."
      },
      "getChildContract(uint256,uint256)": {
        "details": "Returns the contract address of the child token ID, given a parent and child token ID."
      },
      "getIsERC1155(uint256)": {
        "details": "gets true if tokenID is ERC1155"
      },
      "getMsgSender()": {
        "details": "Wrapper function to get message sender."
      },
      "getOwner(uint256)": {
        "details": "Returns the owner of the token specified by tokenId. Wrapper function for ERC721 function ownerOf(). "
      },
      "getRoleAdmin(bytes32)": {
        "details": "Returns the admin role that controls `role`. See {grantRole} and {revokeRole}. To change a role's admin, use {_setRoleAdmin}."
      },
      "getRootOwners()": {
        "details": "gets root owners"
      },
      "grantRole(bytes32,address)": {
        "details": "Grants `role` to `account`. If `account` had not been already granted `role`, emits a {RoleGranted} event. Requirements: - the caller must have ``role``'s admin role. May emit a {RoleGranted} event."
      },
      "hasRole(bytes32,address)": {
        "details": "Returns `true` if `account` has been granted `role`."
      },
      "isApprovedForAll(address,address)": {
        "details": "See {IERC721-isApprovedForAll}."
      },
      "mint(address,uint256)": {
        "details": "Creates a new token for `to`. The token URI autogenerated based on the base URI passed at construction and the token ID. See {ERC721-_mint}. Requirements: - the caller must have the `MINTER_ROLE`."
      },
      "name()": {
        "details": "See {IERC721Metadata-name}."
      },
      "onERC1155BatchReceived(address,address,uint256[],uint256[],bytes)": {
        "details": "Receives a batch of child tokens, the receiver token ID must be encoded in the field data."
      },
      "onERC1155Received(address,address,uint256,uint256,bytes)": {
        "details": "Receives a child token, the receiver token ID must be encoded in the field data."
      },
      "onERC721Received(address,address,uint256,bytes)": {
        "details": "Receives a child 998 token, the receiver token ID must be encoded in the field data."
      },
      "ownerOf(uint256)": {
        "details": "See {IERC721-ownerOf}."
      },
      "pause()": {
        "details": "Pauses all token transfers. See {ERC721Pausable} and {Pausable-_pause}. Requirements: - the caller must have the `PAUSER_ROLE`."
      },
      "paused()": {
        "details": "Returns true if the contract is paused, and false otherwise."
      },
      "renounceRole(bytes32,address)": {
        "details": "Revokes `role` from the calling account. Roles are often managed via {grantRole} and {revokeRole}: this function's purpose is to provide a mechanism for accounts to lose their privileges if they are compromised (such as when a trusted device is misplaced). If the calling account had been revoked `role`, emits a {RoleRevoked} event. Requirements: - the caller must be `account`. May emit a {RoleRevoked} event."
      },
      "revokeRole(bytes32,address)": {
        "details": "Revokes `role` from `account`. If `account` had been granted `role`, emits a {RoleRevoked} event. Requirements: - the caller must have ``role``'s admin role. May emit a {RoleRevoked} event."
      },
      "safeBatchTransferChildFrom(uint256,address,address,uint256[],uint256[],bytes)": {
        "details": "Transfers batch of child tokens from a token ID."
      },
      "safeTransferChildFrom(uint256,uint256,address,address,uint256,uint256,bytes)": {
        "details": "Transfers child token from a token ID."
      },
      "safeTransferFrom(address,address,uint256)": {
        "details": "See {IERC721-safeTransferFrom}."
      },
      "safeTransferFrom(address,address,uint256,bytes)": {
        "details": "See {IERC721-safeTransferFrom}."
      },
      "setApprovalForAll(address,bool)": {
        "details": "See {IERC721-setApprovalForAll}."
      },
      "setIsERC1155(uint256)": {
        "details": "Sets isERC1155 array "
      },
      "setRootOwner(uint256)": {
        "details": "set root owner"
      },
      "symbol()": {
        "details": "See {IERC721Metadata-symbol}."
      },
      "tokenURI(uint256)": {
        "details": "See {IERC721Metadata-tokenURI}."
      },
      "transferFrom(address,address,uint256)": {
        "details": "See {IERC721-transferFrom}."
      },
      "unpause()": {
        "details": "Unpauses all token transfers. See {ERC721Pausable} and {Pausable-_unpause}. Requirements: - the caller must have the `PAUSER_ROLE`."
      }
    },
    "version": 1
  },
  "userdoc": {
    "kind": "user",
    "methods": {},
    "version": 1
  }
}