{
  "contractName": "ERC998ERC1155TopDown",
  "abi": [
    {
      "inputs": [
        {
          "internalType": "string",
          "name": "name",
          "type": "string"
        },
        {
          "internalType": "string",
          "name": "symbol",
          "type": "string"
        },
        {
          "internalType": "string",
          "name": "baseURI",
          "type": "string"
        }
      ],
      "stateMutability": "nonpayable",
      "type": "constructor"
    },
    {
      "anonymous": false,
      "inputs": [
        {
          "indexed": true,
          "internalType": "address",
          "name": "owner",
          "type": "address"
        },
        {
          "indexed": true,
          "internalType": "address",
          "name": "approved",
          "type": "address"
        },
        {
          "indexed": true,
          "internalType": "uint256",
          "name": "tokenId",
          "type": "uint256"
        }
      ],
      "name": "Approval",
      "type": "event"
    },
    {
      "anonymous": false,
      "inputs": [
        {
          "indexed": true,
          "internalType": "address",
          "name": "owner",
          "type": "address"
        },
        {
          "indexed": true,
          "internalType": "address",
          "name": "operator",
          "type": "address"
        },
        {
          "indexed": false,
          "internalType": "bool",
          "name": "approved",
          "type": "bool"
        }
      ],
      "name": "ApprovalForAll",
      "type": "event"
    },
    {
      "anonymous": false,
      "inputs": [
        {
          "indexed": true,
          "internalType": "address",
          "name": "from",
          "type": "address"
        },
        {
          "indexed": true,
          "internalType": "uint256",
          "name": "toTokenId",
          "type": "uint256"
        },
        {
          "indexed": true,
          "internalType": "address",
          "name": "childContract",
          "type": "address"
        },
        {
          "indexed": false,
          "internalType": "uint256",
          "name": "childTokenId",
          "type": "uint256"
        },
        {
          "indexed": false,
          "internalType": "uint256",
          "name": "amount",
          "type": "uint256"
        }
      ],
      "name": "ReceivedChild",
      "type": "event"
    },
    {
      "anonymous": false,
      "inputs": [
        {
          "indexed": true,
          "internalType": "address",
          "name": "from",
          "type": "address"
        },
        {
          "indexed": true,
          "internalType": "address",
          "name": "to",
          "type": "address"
        },
        {
          "indexed": true,
          "internalType": "uint256",
          "name": "tokenId",
          "type": "uint256"
        }
      ],
      "name": "Transfer",
      "type": "event"
    },
    {
      "anonymous": false,
      "inputs": [
        {
          "indexed": true,
          "internalType": "uint256",
          "name": "fromTokenId",
          "type": "uint256"
        },
        {
          "indexed": true,
          "internalType": "address",
          "name": "to",
          "type": "address"
        },
        {
          "indexed": true,
          "internalType": "address",
          "name": "childContract",
          "type": "address"
        },
        {
          "indexed": false,
          "internalType": "uint256[]",
          "name": "childTokenIds",
          "type": "uint256[]"
        },
        {
          "indexed": false,
          "internalType": "uint256[]",
          "name": "amounts",
          "type": "uint256[]"
        }
      ],
      "name": "TransferBatchChild",
      "type": "event"
    },
    {
      "anonymous": false,
      "inputs": [
        {
          "indexed": true,
          "internalType": "uint256",
          "name": "fromTokenId",
          "type": "uint256"
        },
        {
          "indexed": true,
          "internalType": "address",
          "name": "to",
          "type": "address"
        },
        {
          "indexed": true,
          "internalType": "address",
          "name": "childContract",
          "type": "address"
        },
        {
          "indexed": false,
          "internalType": "uint256",
          "name": "childTokenId",
          "type": "uint256"
        },
        {
          "indexed": false,
          "internalType": "uint256",
          "name": "amount",
          "type": "uint256"
        }
      ],
      "name": "TransferSingleChild",
      "type": "event"
    },
    {
      "inputs": [
        {
          "internalType": "uint256",
          "name": "",
          "type": "uint256"
        },
        {
          "internalType": "address",
          "name": "",
          "type": "address"
        },
        {
          "internalType": "uint256",
          "name": "",
          "type": "uint256"
        }
      ],
      "name": "_balances",
      "outputs": [
        {
          "internalType": "uint256",
          "name": "",
          "type": "uint256"
        }
      ],
      "stateMutability": "view",
      "type": "function",
      "constant": true
    },
    {
      "inputs": [
        {
          "internalType": "address",
          "name": "to",
          "type": "address"
        },
        {
          "internalType": "uint256",
          "name": "tokenId",
          "type": "uint256"
        }
      ],
      "name": "approve",
      "outputs": [],
      "stateMutability": "nonpayable",
      "type": "function"
    },
    {
      "inputs": [
        {
          "internalType": "address",
          "name": "owner",
          "type": "address"
        }
      ],
      "name": "balanceOf",
      "outputs": [
        {
          "internalType": "uint256",
          "name": "",
          "type": "uint256"
        }
      ],
      "stateMutability": "view",
      "type": "function",
      "constant": true
    },
    {
      "inputs": [
        {
          "internalType": "uint256",
          "name": "tokenId",
          "type": "uint256"
        }
      ],
      "name": "getApproved",
      "outputs": [
        {
          "internalType": "address",
          "name": "",
          "type": "address"
        }
      ],
      "stateMutability": "view",
      "type": "function",
      "constant": true
    },
    {
      "inputs": [
        {
          "internalType": "address",
          "name": "owner",
          "type": "address"
        },
        {
          "internalType": "address",
          "name": "operator",
          "type": "address"
        }
      ],
      "name": "isApprovedForAll",
      "outputs": [
        {
          "internalType": "bool",
          "name": "",
          "type": "bool"
        }
      ],
      "stateMutability": "view",
      "type": "function",
      "constant": true
    },
    {
      "inputs": [],
      "name": "name",
      "outputs": [
        {
          "internalType": "string",
          "name": "",
          "type": "string"
        }
      ],
      "stateMutability": "view",
      "type": "function",
      "constant": true
    },
    {
      "inputs": [
        {
          "internalType": "uint256",
          "name": "tokenId",
          "type": "uint256"
        }
      ],
      "name": "ownerOf",
      "outputs": [
        {
          "internalType": "address",
          "name": "",
          "type": "address"
        }
      ],
      "stateMutability": "view",
      "type": "function",
      "constant": true
    },
    {
      "inputs": [
        {
          "internalType": "address",
          "name": "from",
          "type": "address"
        },
        {
          "internalType": "address",
          "name": "to",
          "type": "address"
        },
        {
          "internalType": "uint256",
          "name": "tokenId",
          "type": "uint256"
        }
      ],
      "name": "safeTransferFrom",
      "outputs": [],
      "stateMutability": "nonpayable",
      "type": "function"
    },
    {
      "inputs": [
        {
          "internalType": "address",
          "name": "from",
          "type": "address"
        },
        {
          "internalType": "address",
          "name": "to",
          "type": "address"
        },
        {
          "internalType": "uint256",
          "name": "tokenId",
          "type": "uint256"
        },
        {
          "internalType": "bytes",
          "name": "data",
          "type": "bytes"
        }
      ],
      "name": "safeTransferFrom",
      "outputs": [],
      "stateMutability": "nonpayable",
      "type": "function"
    },
    {
      "inputs": [
        {
          "internalType": "address",
          "name": "operator",
          "type": "address"
        },
        {
          "internalType": "bool",
          "name": "approved",
          "type": "bool"
        }
      ],
      "name": "setApprovalForAll",
      "outputs": [],
      "stateMutability": "nonpayable",
      "type": "function"
    },
    {
      "inputs": [
        {
          "internalType": "bytes4",
          "name": "interfaceId",
          "type": "bytes4"
        }
      ],
      "name": "supportsInterface",
      "outputs": [
        {
          "internalType": "bool",
          "name": "",
          "type": "bool"
        }
      ],
      "stateMutability": "view",
      "type": "function",
      "constant": true
    },
    {
      "inputs": [],
      "name": "symbol",
      "outputs": [
        {
          "internalType": "string",
          "name": "",
          "type": "string"
        }
      ],
      "stateMutability": "view",
      "type": "function",
      "constant": true
    },
    {
      "inputs": [
        {
          "internalType": "uint256",
          "name": "tokenId",
          "type": "uint256"
        }
      ],
      "name": "tokenURI",
      "outputs": [
        {
          "internalType": "string",
          "name": "",
          "type": "string"
        }
      ],
      "stateMutability": "view",
      "type": "function",
      "constant": true
    },
    {
      "inputs": [
        {
          "internalType": "address",
          "name": "from",
          "type": "address"
        },
        {
          "internalType": "address",
          "name": "to",
          "type": "address"
        },
        {
          "internalType": "uint256",
          "name": "tokenId",
          "type": "uint256"
        }
      ],
      "name": "transferFrom",
      "outputs": [],
      "stateMutability": "nonpayable",
      "type": "function"
    },
    {
      "inputs": [
        {
          "internalType": "uint256",
          "name": "tokenId",
          "type": "uint256"
        },
        {
          "internalType": "address",
          "name": "childContract",
          "type": "address"
        },
        {
          "internalType": "uint256",
          "name": "childTokenId",
          "type": "uint256"
        }
      ],
      "name": "childBalance",
      "outputs": [
        {
          "internalType": "uint256",
          "name": "",
          "type": "uint256"
        }
      ],
      "stateMutability": "view",
      "type": "function",
      "constant": true
    },
    {
      "inputs": [
        {
          "internalType": "uint256",
          "name": "tokenId",
          "type": "uint256"
        }
      ],
      "name": "childContractsFor",
      "outputs": [
        {
          "internalType": "address[]",
          "name": "",
          "type": "address[]"
        }
      ],
      "stateMutability": "view",
      "type": "function",
      "constant": true
    },
    {
      "inputs": [
        {
          "internalType": "uint256",
          "name": "tokenId",
          "type": "uint256"
        },
        {
          "internalType": "address",
          "name": "childContract",
          "type": "address"
        }
      ],
      "name": "childIdsOwned",
      "outputs": [
        {
          "internalType": "uint256[]",
          "name": "",
          "type": "uint256[]"
        }
      ],
      "stateMutability": "view",
      "type": "function",
      "constant": true
    },
    {
      "inputs": [
        {
          "internalType": "uint256",
          "name": "fromTokenId",
          "type": "uint256"
        },
        {
          "internalType": "address",
          "name": "to",
          "type": "address"
        },
        {
          "internalType": "address",
          "name": "childContract",
          "type": "address"
        },
        {
          "internalType": "uint256",
          "name": "childTokenId",
          "type": "uint256"
        },
        {
          "internalType": "uint256",
          "name": "amount",
          "type": "uint256"
        },
        {
          "internalType": "bytes",
          "name": "data",
          "type": "bytes"
        }
      ],
      "name": "safeTransferChildFrom",
      "outputs": [],
      "stateMutability": "nonpayable",
      "type": "function"
    },
    {
      "inputs": [
        {
          "internalType": "uint256",
          "name": "tokenID",
          "type": "uint256"
        }
      ],
      "name": "getOwner",
      "outputs": [
        {
          "internalType": "address",
          "name": "",
          "type": "address"
        }
      ],
      "stateMutability": "view",
      "type": "function",
      "constant": true
    },
    {
      "inputs": [
        {
          "internalType": "uint256",
          "name": "tokenID",
          "type": "uint256"
        },
        {
          "internalType": "uint256",
          "name": "childTokenID",
          "type": "uint256"
        }
      ],
      "name": "getChildContract",
      "outputs": [
        {
          "internalType": "address",
          "name": "",
          "type": "address"
        }
      ],
      "stateMutability": "view",
      "type": "function",
      "constant": true
    },
    {
      "inputs": [],
      "name": "getMsgSender",
      "outputs": [
        {
          "internalType": "address",
          "name": "",
          "type": "address"
        }
      ],
      "stateMutability": "view",
      "type": "function",
      "constant": true
    },
    {
      "inputs": [
        {
          "internalType": "uint256",
          "name": "fromTokenId",
          "type": "uint256"
        },
        {
          "internalType": "address",
          "name": "to",
          "type": "address"
        },
        {
          "internalType": "address",
          "name": "childContract",
          "type": "address"
        },
        {
          "internalType": "uint256[]",
          "name": "childTokenIds",
          "type": "uint256[]"
        },
        {
          "internalType": "uint256[]",
          "name": "amounts",
          "type": "uint256[]"
        },
        {
          "internalType": "bytes",
          "name": "data",
          "type": "bytes"
        }
      ],
      "name": "safeBatchTransferChildFrom",
      "outputs": [],
      "stateMutability": "nonpayable",
      "type": "function"
    },
    {
      "inputs": [
        {
          "internalType": "address",
          "name": "operator",
          "type": "address"
        },
        {
          "internalType": "address",
          "name": "from",
          "type": "address"
        },
        {
          "internalType": "uint256",
          "name": "id",
          "type": "uint256"
        },
        {
          "internalType": "uint256",
          "name": "amount",
          "type": "uint256"
        },
        {
          "internalType": "bytes",
          "name": "data",
          "type": "bytes"
        }
      ],
      "name": "onERC1155Received",
      "outputs": [
        {
          "internalType": "bytes4",
          "name": "",
          "type": "bytes4"
        }
      ],
      "stateMutability": "nonpayable",
      "type": "function"
    },
    {
      "inputs": [
        {
          "internalType": "address",
          "name": "operator",
          "type": "address"
        },
        {
          "internalType": "address",
          "name": "from",
          "type": "address"
        },
        {
          "internalType": "uint256",
          "name": "tokenId",
          "type": "uint256"
        },
        {
          "internalType": "bytes",
          "name": "data",
          "type": "bytes"
        }
      ],
      "name": "onERC721Received",
      "outputs": [
        {
          "internalType": "bytes4",
          "name": "",
          "type": "bytes4"
        }
      ],
      "stateMutability": "nonpayable",
      "type": "function"
    },
    {
      "inputs": [
        {
          "internalType": "address",
          "name": "operator",
          "type": "address"
        },
        {
          "internalType": "address",
          "name": "from",
          "type": "address"
        },
        {
          "internalType": "uint256[]",
          "name": "ids",
          "type": "uint256[]"
        },
        {
          "internalType": "uint256[]",
          "name": "values",
          "type": "uint256[]"
        },
        {
          "internalType": "bytes",
          "name": "data",
          "type": "bytes"
        }
      ],
      "name": "onERC1155BatchReceived",
      "outputs": [
        {
          "internalType": "bytes4",
          "name": "",
          "type": "bytes4"
        }
      ],
      "stateMutability": "nonpayable",
      "type": "function"
    }
  ],
  "bytecode": "0x60806040523480156200001157600080fd5b5060405162004b0338038062004b03833981810160405281019062000037919062000223565b828281600090816200004a919062000527565b5080600190816200005c919062000527565b5050506200006f6200007960201b60201c565b505050506200060e565b606060405180602001604052806000815250905090565b6000604051905090565b600080fd5b600080fd5b600080fd5b600080fd5b6000601f19601f8301169050919050565b7f4e487b7100000000000000000000000000000000000000000000000000000000600052604160045260246000fd5b620000f982620000ae565b810181811067ffffffffffffffff821117156200011b576200011a620000bf565b5b80604052505050565b60006200013062000090565b90506200013e8282620000ee565b919050565b600067ffffffffffffffff821115620001615762000160620000bf565b5b6200016c82620000ae565b9050602081019050919050565b60005b83811015620001995780820151818401526020810190506200017c565b60008484015250505050565b6000620001bc620001b68462000143565b62000124565b905082815260208101848484011115620001db57620001da620000a9565b5b620001e884828562000179565b509392505050565b600082601f830112620002085762000207620000a4565b5b81516200021a848260208601620001a5565b91505092915050565b6000806000606084860312156200023f576200023e6200009a565b5b600084015167ffffffffffffffff81111562000260576200025f6200009f565b5b6200026e86828701620001f0565b935050602084015167ffffffffffffffff8111156200029257620002916200009f565b5b620002a086828701620001f0565b925050604084015167ffffffffffffffff811115620002c457620002c36200009f565b5b620002d286828701620001f0565b9150509250925092565b600081519050919050565b7f4e487b7100000000000000000000000000000000000000000000000000000000600052602260045260246000fd5b600060028204905060018216806200032f57607f821691505b602082108103620003455762000344620002e7565b5b50919050565b60008190508160005260206000209050919050565b60006020601f8301049050919050565b600082821b905092915050565b600060088302620003af7fffffffffffffffffffffffffffffffffffffffffffffffffffffffffffffffff8262000370565b620003bb868362000370565b95508019841693508086168417925050509392505050565b6000819050919050565b6000819050919050565b60006200040862000402620003fc84620003d3565b620003dd565b620003d3565b9050919050565b6000819050919050565b6200042483620003e7565b6200043c62000433826200040f565b8484546200037d565b825550505050565b600090565b6200045362000444565b6200046081848462000419565b505050565b5b8181101562000488576200047c60008262000449565b60018101905062000466565b5050565b601f821115620004d757620004a1816200034b565b620004ac8462000360565b81016020851015620004bc578190505b620004d4620004cb8562000360565b83018262000465565b50505b505050565b600082821c905092915050565b6000620004fc60001984600802620004dc565b1980831691505092915050565b6000620005178383620004e9565b9150826002028217905092915050565b6200053282620002dc565b67ffffffffffffffff8111156200054e576200054d620000bf565b5b6200055a825462000316565b620005678282856200048c565b600060209050601f8311600181146200059f57600084156200058a578287015190505b62000596858262000509565b86555062000606565b601f198416620005af866200034b565b60005b82811015620005d957848901518255600182019150602085019450602081019050620005b2565b86831015620005f95784890151620005f5601f891682620004e9565b8355505b6001600288020188555050505b505050505050565b6144e5806200061e6000396000f3fe608060405234801561001057600080fd5b50600436106101735760003560e01c80636352211e116100de578063b88d4fde11610097578063c87b56dd11610071578063c87b56dd146104a6578063e985e9c5146104d6578063eeaf2f0914610506578063f23a6e611461053657610173565b8063b88d4fde1461042a578063bc197c8114610446578063c41a360a1461047657610173565b80636352211e1461034257806370a08231146103725780637a6ce2e1146103a257806389e7e2f2146103c057806395d89b41146103f0578063a22cb4651461040e57610173565b806323b872dd1161013057806323b872dd1461027257806332085b651461028e57806342842e0e146102aa57806342cf6e74146102c65780635fa03021146102e257806360d4d23a1461031257610173565b806301ffc9a71461017857806306fdde03146101a8578063081812fc146101c6578063095ea7b3146101f6578063150b7a021461021257806317dd762314610242575b600080fd5b610192600480360381019061018d9190612b83565b610566565b60405161019f9190612bcb565b60405180910390f35b6101b0610648565b6040516101bd9190612c76565b60405180910390f35b6101e060048036038101906101db9190612cce565b6106da565b6040516101ed9190612d3c565b60405180910390f35b610210600480360381019061020b9190612d83565b610720565b005b61022c60048036038101906102279190612ef8565b610837565b6040516102399190612f8a565b60405180910390f35b61025c60048036038101906102579190612fa5565b610921565b6040516102699190612d3c565b60405180910390f35b61028c60048036038101906102879190612fe5565b610a22565b005b6102a860048036038101906102a39190613100565b610a82565b005b6102c460048036038101906102bf9190612fe5565b610d2d565b005b6102e060048036038101906102db91906131e1565b610d4d565b005b6102fc60048036038101906102f7919061328a565b610f66565b6040516103099190613388565b60405180910390f35b61032c600480360381019061032791906133aa565b61110d565b604051610339919061340c565b60405180910390f35b61035c60048036038101906103579190612cce565b61117a565b6040516103699190612d3c565b60405180910390f35b61038c60048036038101906103879190613427565b61122b565b604051610399919061340c565b60405180910390f35b6103aa6112e2565b6040516103b79190612d3c565b60405180910390f35b6103da60048036038101906103d59190612cce565b6112f1565b6040516103e79190613512565b60405180910390f35b6103f861140e565b6040516104059190612c76565b60405180910390f35b61042860048036038101906104239190613560565b6114a0565b005b610444600480360381019061043f9190612ef8565b6114b6565b005b610460600480360381019061045b91906135a0565b611518565b60405161046d9190612f8a565b60405180910390f35b610490600480360381019061048b9190612cce565b6116dd565b60405161049d9190612d3c565b60405180910390f35b6104c060048036038101906104bb9190612cce565b6116ef565b6040516104cd9190612c76565b60405180910390f35b6104f060048036038101906104eb919061366f565b611757565b6040516104fd9190612bcb565b60405180910390f35b610520600480360381019061051b91906133aa565b6117eb565b60405161052d919061340c565b60405180910390f35b610550600480360381019061054b91906136af565b61181d565b60405161055d9190612f8a565b60405180910390f35b60007f80ac58cd000000000000000000000000000000000000000000000000000000007bffffffffffffffffffffffffffffffffffffffffffffffffffffffff1916827bffffffffffffffffffffffffffffffffffffffffffffffffffffffff1916148061063157507f5b5e139f000000000000000000000000000000000000000000000000000000007bffffffffffffffffffffffffffffffffffffffffffffffffffffffff1916827bffffffffffffffffffffffffffffffffffffffffffffffffffffffff1916145b80610641575061064082611926565b5b9050919050565b60606000805461065790613775565b80601f016020809104026020016040519081016040528092919081815260200182805461068390613775565b80156106d05780601f106106a5576101008083540402835291602001916106d0565b820191906000526020600020905b8154815290600101906020018083116106b357829003601f168201915b5050505050905090565b60006106e582611990565b6004600083815260200190815260200160002060009054906101000a900473ffffffffffffffffffffffffffffffffffffffff169050919050565b600061072b8261117a565b90508073ffffffffffffffffffffffffffffffffffffffff168373ffffffffffffffffffffffffffffffffffffffff160361079b576040517f08c379a000000000000000000000000000000000000000000000000000000000815260040161079290613818565b60405180910390fd5b8073ffffffffffffffffffffffffffffffffffffffff166107ba6119db565b73ffffffffffffffffffffffffffffffffffffffff1614806107e957506107e8816107e36119db565b611757565b5b610828576040517f08c379a000000000000000000000000000000000000000000000000000000000815260040161081f906138aa565b60405180910390fd5b61083283836119e3565b505050565b6000602082511461087d576040517f08c379a000000000000000000000000000000000000000000000000000000000815260040161087490613962565b60405180910390fd5b6000806020600036905061089191906139b1565b9050803591506108a48233876001611a9c565b3373ffffffffffffffffffffffffffffffffffffffff16828773ffffffffffffffffffffffffffffffffffffffff167fa18753b0660a8be2cdae03468c860b47c2926433ab16917f323544652803032d886001604051610905929190613a2a565b60405180910390a463150b7a0260e01b92505050949350505050565b600080600090505b61094460086000868152602001908152602001600020611c37565b811015610a16576109d18360096000878152602001908152602001600020600061098985600860008b8152602001908152602001600020611c4c90919063ffffffff16565b73ffffffffffffffffffffffffffffffffffffffff1673ffffffffffffffffffffffffffffffffffffffff168152602001908152602001600020611c6690919063ffffffff16565b15610a03576109fb8160086000878152602001908152602001600020611c4c90919063ffffffff16565b915050610a1c565b8080610a0e90613a53565b915050610929565b50600090505b92915050565b610a33610a2d6119db565b82611c80565b610a72576040517f08c379a0000000000000000000000000000000000000000000000000000000008152600401610a6990613b0d565b60405180910390fd5b610a7d838383611d15565b505050565b8151835114610ac6576040517f08c379a0000000000000000000000000000000000000000000000000000000008152600401610abd90613b9f565b60405180910390fd5b600073ffffffffffffffffffffffffffffffffffffffff168573ffffffffffffffffffffffffffffffffffffffff1603610b35576040517f08c379a0000000000000000000000000000000000000000000000000000000008152600401610b2c90613c31565b60405180910390fd5b6000610b3f6119db565b90508073ffffffffffffffffffffffffffffffffffffffff16610b618861117a565b73ffffffffffffffffffffffffffffffffffffffff161480610b915750610b90610b8a8861117a565b82611757565b5b610bd0576040517f08c379a0000000000000000000000000000000000000000000000000000000008152600401610bc790613cc3565b60405180910390fd5b610bdf81888888888888611f7b565b60005b8451811015610c48576000858281518110610c0057610bff613ce3565b5b602002602001015190506000858381518110610c1f57610c1e613ce3565b5b60200260200101519050610c358a898484611f84565b505080610c4190613a53565b9050610be2565b508473ffffffffffffffffffffffffffffffffffffffff16632eb2c2d630888787876040518663ffffffff1660e01b8152600401610c8a959493929190613d67565b600060405180830381600087803b158015610ca457600080fd5b505af1158015610cb8573d6000803e3d6000fd5b505050508473ffffffffffffffffffffffffffffffffffffffff168673ffffffffffffffffffffffffffffffffffffffff16887f5572be9c1bc39e4e277a34f64ccd0e84456dac3f33b0b1c458c12c402c6326a98787604051610d1c929190613dcf565b60405180910390a450505050505050565b610d48838383604051806020016040528060008152506114b6565b505050565b600073ffffffffffffffffffffffffffffffffffffffff168573ffffffffffffffffffffffffffffffffffffffff1603610dbc576040517f08c379a0000000000000000000000000000000000000000000000000000000008152600401610db390613c31565b60405180910390fd5b6000610dc66119db565b90508073ffffffffffffffffffffffffffffffffffffffff16610de88861117a565b73ffffffffffffffffffffffffffffffffffffffff161480610e185750610e17610e118861117a565b82611757565b5b610e57576040517f08c379a0000000000000000000000000000000000000000000000000000000008152600401610e4e90613cc3565b60405180910390fd5b610e7681888888610e6789612268565b610e7089612268565b88611f7b565b610e8287868686611f84565b8473ffffffffffffffffffffffffffffffffffffffff1663f242432a30888787876040518663ffffffff1660e01b8152600401610ec3959493929190613e06565b600060405180830381600087803b158015610edd57600080fd5b505af1158015610ef1573d6000803e3d6000fd5b505050508473ffffffffffffffffffffffffffffffffffffffff168673ffffffffffffffffffffffffffffffffffffffff16887f9d6259404dec52b3d5d220f5b8e5d05cc05ec908e1bc320aa46793e3091e51948787604051610f55929190613e60565b60405180910390a450505050505050565b60606000610fc26009600086815260200190815260200160002060008573ffffffffffffffffffffffffffffffffffffffff1673ffffffffffffffffffffffffffffffffffffffff1681526020019081526020016000206122e2565b67ffffffffffffffff811115610fdb57610fda612dcd565b5b6040519080825280602002602001820160405280156110095781602001602082028036833780820191505090505b50905060005b6110676009600087815260200190815260200160002060008673ffffffffffffffffffffffffffffffffffffffff1673ffffffffffffffffffffffffffffffffffffffff1681526020019081526020016000206122e2565b811015611102576110d0816009600088815260200190815260200160002060008773ffffffffffffffffffffffffffffffffffffffff1673ffffffffffffffffffffffffffffffffffffffff1681526020019081526020016000206122f790919063ffffffff16565b8282815181106110e3576110e2613ce3565b5b60200260200101818152505080806110fa90613a53565b91505061100f565b508091505092915050565b60006006600085815260200190815260200160002060008473ffffffffffffffffffffffffffffffffffffffff1673ffffffffffffffffffffffffffffffffffffffff16815260200190815260200160002060008381526020019081526020016000205490509392505050565b6000806002600084815260200190815260200160002060009054906101000a900473ffffffffffffffffffffffffffffffffffffffff169050600073ffffffffffffffffffffffffffffffffffffffff168173ffffffffffffffffffffffffffffffffffffffff1603611222576040517f08c379a000000000000000000000000000000000000000000000000000000000815260040161121990613ed5565b60405180910390fd5b80915050919050565b60008073ffffffffffffffffffffffffffffffffffffffff168273ffffffffffffffffffffffffffffffffffffffff160361129b576040517f08c379a000000000000000000000000000000000000000000000000000000000815260040161129290613f67565b60405180910390fd5b600360008373ffffffffffffffffffffffffffffffffffffffff1673ffffffffffffffffffffffffffffffffffffffff168152602001908152602001600020549050919050565b60006112ec6119db565b905090565b6060600061131060086000858152602001908152602001600020611c37565b67ffffffffffffffff81111561132957611328612dcd565b5b6040519080825280602002602001820160405280156113575781602001602082028036833780820191505090505b50905060005b61137860086000868152602001908152602001600020611c37565b811015611404576113a48160086000878152602001908152602001600020611c4c90919063ffffffff16565b8282815181106113b7576113b6613ce3565b5b602002602001019073ffffffffffffffffffffffffffffffffffffffff16908173ffffffffffffffffffffffffffffffffffffffff168152505080806113fc90613a53565b91505061135d565b5080915050919050565b60606001805461141d90613775565b80601f016020809104026020016040519081016040528092919081815260200182805461144990613775565b80156114965780601f1061146b57610100808354040283529160200191611496565b820191906000526020600020905b81548152906001019060200180831161147957829003601f168201915b5050505050905090565b6114b26114ab6119db565b8383612311565b5050565b6114c76114c16119db565b83611c80565b611506576040517f08c379a00000000000000000000000000000000000000000000000000000000081526004016114fd90613b0d565b60405180910390fd5b6115128484848461247d565b50505050565b6000602082511461155e576040517f08c379a000000000000000000000000000000000000000000000000000000000815260040161155590613962565b60405180910390fd5b82518451146115a2576040517f08c379a000000000000000000000000000000000000000000000000000000000815260040161159990613ff9565b60405180910390fd5b6115b28660003088888888611f7b565b600080602060003690506115c691906139b1565b90508035915060005b86518110156116c75761161883338984815181106115f0576115ef613ce3565b5b602002602001015189858151811061160b5761160a613ce3565b5b6020026020010151611a9c565b3373ffffffffffffffffffffffffffffffffffffffff16838973ffffffffffffffffffffffffffffffffffffffff167fa18753b0660a8be2cdae03468c860b47c2926433ab16917f323544652803032d8a858151811061167b5761167a613ce3565b5b60200260200101518a868151811061169657611695613ce3565b5b60200260200101516040516116ac929190613e60565b60405180910390a480806116bf90613a53565b9150506115cf565b5063bc197c8160e01b9250505095945050505050565b60006116e88261117a565b9050919050565b60606116fa82611990565b60006117046124d9565b90506000815111611724576040518060200160405280600081525061174f565b8061172e846124f0565b60405160200161173f929190614055565b6040516020818303038152906040525b915050919050565b6000600560008473ffffffffffffffffffffffffffffffffffffffff1673ffffffffffffffffffffffffffffffffffffffff16815260200190815260200160002060008373ffffffffffffffffffffffffffffffffffffffff1673ffffffffffffffffffffffffffffffffffffffff16815260200190815260200160002060009054906101000a900460ff16905092915050565b600660205282600052604060002060205281600052604060002060205280600052604060002060009250925050505481565b60006020825114611863576040517f08c379a000000000000000000000000000000000000000000000000000000000815260040161185a90613962565b60405180910390fd5b611883866000308861187489612268565b61187d89612268565b88611f7b565b6000806020600036905061189791906139b1565b9050803591506118a982338888611a9c565b3373ffffffffffffffffffffffffffffffffffffffff16828873ffffffffffffffffffffffffffffffffffffffff167fa18753b0660a8be2cdae03468c860b47c2926433ab16917f323544652803032d8989604051611909929190613e60565b60405180910390a463f23a6e6160e01b9250505095945050505050565b60007f01ffc9a7000000000000000000000000000000000000000000000000000000007bffffffffffffffffffffffffffffffffffffffffffffffffffffffff1916827bffffffffffffffffffffffffffffffffffffffffffffffffffffffff1916149050919050565b61199981612650565b6119d8576040517f08c379a00000000000000000000000000000000000000000000000000000000081526004016119cf90613ed5565b60405180910390fd5b50565b600033905090565b816004600083815260200190815260200160002060006101000a81548173ffffffffffffffffffffffffffffffffffffffff021916908373ffffffffffffffffffffffffffffffffffffffff160217905550808273ffffffffffffffffffffffffffffffffffffffff16611a568361117a565b73ffffffffffffffffffffffffffffffffffffffff167f8c5be1e5ebec7d5bd14f71427d1e84f3dd0314c0f7b2291e5b200ac8c7c3b92560405160405180910390a45050565b611ac183600860008781526020019081526020016000206126bc90919063ffffffff16565b611aec57611aea83600860008781526020019081526020016000206126ec90919063ffffffff16565b505b60006006600086815260200190815260200160002060008573ffffffffffffffffffffffffffffffffffffffff1673ffffffffffffffffffffffffffffffffffffffff16815260200190815260200160002060008481526020019081526020016000205403611bb957611bb7826009600087815260200190815260200160002060008673ffffffffffffffffffffffffffffffffffffffff1673ffffffffffffffffffffffffffffffffffffffff16815260200190815260200160002061271c90919063ffffffff16565b505b806006600086815260200190815260200160002060008573ffffffffffffffffffffffffffffffffffffffff1673ffffffffffffffffffffffffffffffffffffffff16815260200190815260200160002060008481526020019081526020016000206000828254611c2a9190614079565b9250508190555050505050565b6000611c4582600001612736565b9050919050565b6000611c5b8360000183612747565b60001c905092915050565b6000611c78836000018360001b612772565b905092915050565b600080611c8c8361117a565b90508073ffffffffffffffffffffffffffffffffffffffff168473ffffffffffffffffffffffffffffffffffffffff161480611cce5750611ccd8185611757565b5b80611d0c57508373ffffffffffffffffffffffffffffffffffffffff16611cf4846106da565b73ffffffffffffffffffffffffffffffffffffffff16145b91505092915050565b8273ffffffffffffffffffffffffffffffffffffffff16611d358261117a565b73ffffffffffffffffffffffffffffffffffffffff1614611d8b576040517f08c379a0000000000000000000000000000000000000000000000000000000008152600401611d829061411f565b60405180910390fd5b600073ffffffffffffffffffffffffffffffffffffffff168273ffffffffffffffffffffffffffffffffffffffff1603611dfa576040517f08c379a0000000000000000000000000000000000000000000000000000000008152600401611df1906141b1565b60405180910390fd5b611e05838383612795565b611e106000826119e3565b6001600360008573ffffffffffffffffffffffffffffffffffffffff1673ffffffffffffffffffffffffffffffffffffffff1681526020019081526020016000206000828254611e6091906139b1565b925050819055506001600360008473ffffffffffffffffffffffffffffffffffffffff1673ffffffffffffffffffffffffffffffffffffffff1681526020019081526020016000206000828254611eb79190614079565b92505081905550816002600083815260200190815260200160002060006101000a81548173ffffffffffffffffffffffffffffffffffffffff021916908373ffffffffffffffffffffffffffffffffffffffff160217905550808273ffffffffffffffffffffffffffffffffffffffff168473ffffffffffffffffffffffffffffffffffffffff167fddf252ad1be2c89b69c2b068fc378daa952ba7f163c4a11628f55a4df523b3ef60405160405180910390a4611f7683838361279a565b505050565b50505050505050565b600081141580611ff55750806006600086815260200190815260200160002060008573ffffffffffffffffffffffffffffffffffffffff1673ffffffffffffffffffffffffffffffffffffffff16815260200190815260200160002060008481526020019081526020016000205410155b612034576040517f08c379a000000000000000000000000000000000000000000000000000000000815260040161202b90614243565b60405180910390fd5b806006600086815260200190815260200160002060008573ffffffffffffffffffffffffffffffffffffffff1673ffffffffffffffffffffffffffffffffffffffff168152602001908152602001600020600084815260200190815260200160002060008282546120a591906139b1565b9250508190555060006006600086815260200190815260200160002060008573ffffffffffffffffffffffffffffffffffffffff1673ffffffffffffffffffffffffffffffffffffffff168152602001908152602001600020600084815260200190815260200160002054036122625761217784600760008673ffffffffffffffffffffffffffffffffffffffff1673ffffffffffffffffffffffffffffffffffffffff168152602001908152602001600020600085815260200190815260200160002061279f90919063ffffffff16565b506121da826009600087815260200190815260200160002060008673ffffffffffffffffffffffffffffffffffffffff1673ffffffffffffffffffffffffffffffffffffffff16815260200190815260200160002061279f90919063ffffffff16565b5060006122356009600087815260200190815260200160002060008673ffffffffffffffffffffffffffffffffffffffff1673ffffffffffffffffffffffffffffffffffffffff1681526020019081526020016000206122e2565b036122615761225f83600860008781526020019081526020016000206127b990919063ffffffff16565b505b5b50505050565b60606000600167ffffffffffffffff81111561228757612286612dcd565b5b6040519080825280602002602001820160405280156122b55781602001602082028036833780820191505090505b50905082816000815181106122cd576122cc613ce3565b5b60200260200101818152505080915050919050565b60006122f082600001612736565b9050919050565b60006123068360000183612747565b60001c905092915050565b8173ffffffffffffffffffffffffffffffffffffffff168373ffffffffffffffffffffffffffffffffffffffff160361237f576040517f08c379a0000000000000000000000000000000000000000000000000000000008152600401612376906142af565b60405180910390fd5b80600560008573ffffffffffffffffffffffffffffffffffffffff1673ffffffffffffffffffffffffffffffffffffffff16815260200190815260200160002060008473ffffffffffffffffffffffffffffffffffffffff1673ffffffffffffffffffffffffffffffffffffffff16815260200190815260200160002060006101000a81548160ff0219169083151502179055508173ffffffffffffffffffffffffffffffffffffffff168373ffffffffffffffffffffffffffffffffffffffff167f17307eab39ab6107e8899845ad3d59bd9653f200f220920489ca2b5937696c31836040516124709190612bcb565b60405180910390a3505050565b612488848484611d15565b612494848484846127e9565b6124d3576040517f08c379a00000000000000000000000000000000000000000000000000000000081526004016124ca90614341565b60405180910390fd5b50505050565b606060405180602001604052806000815250905090565b606060008203612537576040518060400160405280600181526020017f3000000000000000000000000000000000000000000000000000000000000000815250905061264b565b600082905060005b6000821461256957808061255290613a53565b915050600a826125629190614390565b915061253f565b60008167ffffffffffffffff81111561258557612584612dcd565b5b6040519080825280601f01601f1916602001820160405280156125b75781602001600182028036833780820191505090505b5090505b60008514612644576001826125d091906139b1565b9150600a856125df91906143c1565b60306125eb9190614079565b60f81b81838151811061260157612600613ce3565b5b60200101907effffffffffffffffffffffffffffffffffffffffffffffffffffffffffffff1916908160001a905350600a8561263d9190614390565b94506125bb565b8093505050505b919050565b60008073ffffffffffffffffffffffffffffffffffffffff166002600084815260200190815260200160002060009054906101000a900473ffffffffffffffffffffffffffffffffffffffff1673ffffffffffffffffffffffffffffffffffffffff1614159050919050565b60006126e4836000018373ffffffffffffffffffffffffffffffffffffffff1660001b612772565b905092915050565b6000612714836000018373ffffffffffffffffffffffffffffffffffffffff1660001b612970565b905092915050565b600061272e836000018360001b612970565b905092915050565b600081600001805490509050919050565b600082600001828154811061275f5761275e613ce3565b5b9060005260206000200154905092915050565b600080836001016000848152602001908152602001600020541415905092915050565b505050565b505050565b60006127b1836000018360001b6129e0565b905092915050565b60006127e1836000018373ffffffffffffffffffffffffffffffffffffffff1660001b6129e0565b905092915050565b600061280a8473ffffffffffffffffffffffffffffffffffffffff16612af4565b15612963578373ffffffffffffffffffffffffffffffffffffffff1663150b7a026128336119db565b8786866040518563ffffffff1660e01b815260040161285594939291906143f2565b6020604051808303816000875af192505050801561289157506040513d601f19601f8201168201806040525081019061288e9190614453565b60015b612913573d80600081146128c1576040519150601f19603f3d011682016040523d82523d6000602084013e6128c6565b606091505b50600081510361290b576040517f08c379a000000000000000000000000000000000000000000000000000000000815260040161290290614341565b60405180910390fd5b805181602001fd5b63150b7a0260e01b7bffffffffffffffffffffffffffffffffffffffffffffffffffffffff1916817bffffffffffffffffffffffffffffffffffffffffffffffffffffffff191614915050612968565b600190505b949350505050565b600061297c8383612772565b6129d55782600001829080600181540180825580915050600190039060005260206000200160009091909190915055826000018054905083600101600084815260200190815260200160002081905550600190506129da565b600090505b92915050565b60008083600101600084815260200190815260200160002054905060008114612ae8576000600182612a1291906139b1565b9050600060018660000180549050612a2a91906139b1565b9050818114612a99576000866000018281548110612a4b57612a4a613ce3565b5b9060005260206000200154905080876000018481548110612a6f57612a6e613ce3565b5b90600052602060002001819055508387600101600083815260200190815260200160002081905550505b85600001805480612aad57612aac614480565b5b600190038181906000526020600020016000905590558560010160008681526020019081526020016000206000905560019350505050612aee565b60009150505b92915050565b6000808273ffffffffffffffffffffffffffffffffffffffff163b119050919050565b6000604051905090565b600080fd5b600080fd5b60007fffffffff0000000000000000000000000000000000000000000000000000000082169050919050565b612b6081612b2b565b8114612b6b57600080fd5b50565b600081359050612b7d81612b57565b92915050565b600060208284031215612b9957612b98612b21565b5b6000612ba784828501612b6e565b91505092915050565b60008115159050919050565b612bc581612bb0565b82525050565b6000602082019050612be06000830184612bbc565b92915050565b600081519050919050565b600082825260208201905092915050565b60005b83811015612c20578082015181840152602081019050612c05565b60008484015250505050565b6000601f19601f8301169050919050565b6000612c4882612be6565b612c528185612bf1565b9350612c62818560208601612c02565b612c6b81612c2c565b840191505092915050565b60006020820190508181036000830152612c908184612c3d565b905092915050565b6000819050919050565b612cab81612c98565b8114612cb657600080fd5b50565b600081359050612cc881612ca2565b92915050565b600060208284031215612ce457612ce3612b21565b5b6000612cf284828501612cb9565b91505092915050565b600073ffffffffffffffffffffffffffffffffffffffff82169050919050565b6000612d2682612cfb565b9050919050565b612d3681612d1b565b82525050565b6000602082019050612d516000830184612d2d565b92915050565b612d6081612d1b565b8114612d6b57600080fd5b50565b600081359050612d7d81612d57565b92915050565b60008060408385031215612d9a57612d99612b21565b5b6000612da885828601612d6e565b9250506020612db985828601612cb9565b9150509250929050565b600080fd5b600080fd5b7f4e487b7100000000000000000000000000000000000000000000000000000000600052604160045260246000fd5b612e0582612c2c565b810181811067ffffffffffffffff82111715612e2457612e23612dcd565b5b80604052505050565b6000612e37612b17565b9050612e438282612dfc565b919050565b600067ffffffffffffffff821115612e6357612e62612dcd565b5b612e6c82612c2c565b9050602081019050919050565b82818337600083830152505050565b6000612e9b612e9684612e48565b612e2d565b905082815260208101848484011115612eb757612eb6612dc8565b5b612ec2848285612e79565b509392505050565b600082601f830112612edf57612ede612dc3565b5b8135612eef848260208601612e88565b91505092915050565b60008060008060808587031215612f1257612f11612b21565b5b6000612f2087828801612d6e565b9450506020612f3187828801612d6e565b9350506040612f4287828801612cb9565b925050606085013567ffffffffffffffff811115612f6357612f62612b26565b5b612f6f87828801612eca565b91505092959194509250565b612f8481612b2b565b82525050565b6000602082019050612f9f6000830184612f7b565b92915050565b60008060408385031215612fbc57612fbb612b21565b5b6000612fca85828601612cb9565b9250506020612fdb85828601612cb9565b9150509250929050565b600080600060608486031215612ffe57612ffd612b21565b5b600061300c86828701612d6e565b935050602061301d86828701612d6e565b925050604061302e86828701612cb9565b9150509250925092565b600067ffffffffffffffff82111561305357613052612dcd565b5b602082029050602081019050919050565b600080fd5b600061307c61307784613038565b612e2d565b9050808382526020820190506020840283018581111561309f5761309e613064565b5b835b818110156130c857806130b48882612cb9565b8452602084019350506020810190506130a1565b5050509392505050565b600082601f8301126130e7576130e6612dc3565b5b81356130f7848260208601613069565b91505092915050565b60008060008060008060c0878903121561311d5761311c612b21565b5b600061312b89828a01612cb9565b965050602061313c89828a01612d6e565b955050604061314d89828a01612d6e565b945050606087013567ffffffffffffffff81111561316e5761316d612b26565b5b61317a89828a016130d2565b935050608087013567ffffffffffffffff81111561319b5761319a612b26565b5b6131a789828a016130d2565b92505060a087013567ffffffffffffffff8111156131c8576131c7612b26565b5b6131d489828a01612eca565b9150509295509295509295565b60008060008060008060c087890312156131fe576131fd612b21565b5b600061320c89828a01612cb9565b965050602061321d89828a01612d6e565b955050604061322e89828a01612d6e565b945050606061323f89828a01612cb9565b935050608061325089828a01612cb9565b92505060a087013567ffffffffffffffff81111561327157613270612b26565b5b61327d89828a01612eca565b9150509295509295509295565b600080604083850312156132a1576132a0612b21565b5b60006132af85828601612cb9565b92505060206132c085828601612d6e565b9150509250929050565b600081519050919050565b600082825260208201905092915050565b6000819050602082019050919050565b6132ff81612c98565b82525050565b600061331183836132f6565b60208301905092915050565b6000602082019050919050565b6000613335826132ca565b61333f81856132d5565b935061334a836132e6565b8060005b8381101561337b5781516133628882613305565b975061336d8361331d565b92505060018101905061334e565b5085935050505092915050565b600060208201905081810360008301526133a2818461332a565b905092915050565b6000806000606084860312156133c3576133c2612b21565b5b60006133d186828701612cb9565b93505060206133e286828701612d6e565b92505060406133f386828701612cb9565b9150509250925092565b61340681612c98565b82525050565b600060208201905061342160008301846133fd565b92915050565b60006020828403121561343d5761343c612b21565b5b600061344b84828501612d6e565b91505092915050565b600081519050919050565b600082825260208201905092915050565b6000819050602082019050919050565b61348981612d1b565b82525050565b600061349b8383613480565b60208301905092915050565b6000602082019050919050565b60006134bf82613454565b6134c9818561345f565b93506134d483613470565b8060005b838110156135055781516134ec888261348f565b97506134f7836134a7565b9250506001810190506134d8565b5085935050505092915050565b6000602082019050818103600083015261352c81846134b4565b905092915050565b61353d81612bb0565b811461354857600080fd5b50565b60008135905061355a81613534565b92915050565b6000806040838503121561357757613576612b21565b5b600061358585828601612d6e565b92505060206135968582860161354b565b9150509250929050565b600080600080600060a086880312156135bc576135bb612b21565b5b60006135ca88828901612d6e565b95505060206135db88828901612d6e565b945050604086013567ffffffffffffffff8111156135fc576135fb612b26565b5b613608888289016130d2565b935050606086013567ffffffffffffffff81111561362957613628612b26565b5b613635888289016130d2565b925050608086013567ffffffffffffffff81111561365657613655612b26565b5b61366288828901612eca565b9150509295509295909350565b6000806040838503121561368657613685612b21565b5b600061369485828601612d6e565b92505060206136a585828601612d6e565b9150509250929050565b600080600080600060a086880312156136cb576136ca612b21565b5b60006136d988828901612d6e565b95505060206136ea88828901612d6e565b94505060406136fb88828901612cb9565b935050606061370c88828901612cb9565b925050608086013567ffffffffffffffff81111561372d5761372c612b26565b5b61373988828901612eca565b9150509295509295909350565b7f4e487b7100000000000000000000000000000000000000000000000000000000600052602260045260246000fd5b6000600282049050600182168061378d57607f821691505b6020821081036137a05761379f613746565b5b50919050565b7f4552433732313a20617070726f76616c20746f2063757272656e74206f776e6560008201527f7200000000000000000000000000000000000000000000000000000000000000602082015250565b6000613802602183612bf1565b915061380d826137a6565b604082019050919050565b60006020820190508181036000830152613831816137f5565b9050919050565b7f4552433732313a20617070726f76652063616c6c6572206973206e6f7420746f60008201527f6b656e206f776e6572206e6f7220617070726f76656420666f7220616c6c0000602082015250565b6000613894603e83612bf1565b915061389f82613838565b604082019050919050565b600060208201905081810360008301526138c381613887565b9050919050565b7f4552433939383a2064617461206d75737420636f6e7461696e2074686520756e60008201527f697175652075696e7432353620746f6b656e496420746f207472616e7366657260208201527f20746865206368696c6420746f6b656e20746f00000000000000000000000000604082015250565b600061394c605383612bf1565b9150613957826138ca565b606082019050919050565b6000602082019050818103600083015261397b8161393f565b9050919050565b7f4e487b7100000000000000000000000000000000000000000000000000000000600052601160045260246000fd5b60006139bc82612c98565b91506139c783612c98565b92508282039050818111156139df576139de613982565b5b92915050565b6000819050919050565b6000819050919050565b6000613a14613a0f613a0a846139e5565b6139ef565b612c98565b9050919050565b613a24816139f9565b82525050565b6000604082019050613a3f60008301856133fd565b613a4c6020830184613a1b565b9392505050565b6000613a5e82612c98565b91507fffffffffffffffffffffffffffffffffffffffffffffffffffffffffffffffff8203613a9057613a8f613982565b5b600182019050919050565b7f4552433732313a2063616c6c6572206973206e6f7420746f6b656e206f776e6560008201527f72206e6f7220617070726f766564000000000000000000000000000000000000602082015250565b6000613af7602e83612bf1565b9150613b0282613a9b565b604082019050919050565b60006020820190508181036000830152613b2681613aea565b9050919050565b7f4552433939383a2069647320616e6420616d6f756e7473206c656e677468206d60008201527f69736d6174636800000000000000000000000000000000000000000000000000602082015250565b6000613b89602783612bf1565b9150613b9482613b2d565b604082019050919050565b60006020820190508181036000830152613bb881613b7c565b9050919050565b7f4552433939383a207472616e7366657220746f20746865207a65726f2061646460008201527f7265737300000000000000000000000000000000000000000000000000000000602082015250565b6000613c1b602483612bf1565b9150613c2682613bbf565b604082019050919050565b60006020820190508181036000830152613c4a81613c0e565b9050919050565b7f4552433939383a2063616c6c6572206973206e6f74206f776e6572206e6f722060008201527f617070726f766564000000000000000000000000000000000000000000000000602082015250565b6000613cad602883612bf1565b9150613cb882613c51565b604082019050919050565b60006020820190508181036000830152613cdc81613ca0565b9050919050565b7f4e487b7100000000000000000000000000000000000000000000000000000000600052603260045260246000fd5b600081519050919050565b600082825260208201905092915050565b6000613d3982613d12565b613d438185613d1d565b9350613d53818560208601612c02565b613d5c81612c2c565b840191505092915050565b600060a082019050613d7c6000830188612d2d565b613d896020830187612d2d565b8181036040830152613d9b818661332a565b90508181036060830152613daf818561332a565b90508181036080830152613dc38184613d2e565b90509695505050505050565b60006040820190508181036000830152613de9818561332a565b90508181036020830152613dfd818461332a565b90509392505050565b600060a082019050613e1b6000830188612d2d565b613e286020830187612d2d565b613e3560408301866133fd565b613e4260608301856133fd565b8181036080830152613e548184613d2e565b90509695505050505050565b6000604082019050613e7560008301856133fd565b613e8260208301846133fd565b9392505050565b7f4552433732313a20696e76616c696420746f6b656e2049440000000000000000600082015250565b6000613ebf601883612bf1565b9150613eca82613e89565b602082019050919050565b60006020820190508181036000830152613eee81613eb2565b9050919050565b7f4552433732313a2061646472657373207a65726f206973206e6f74206120766160008201527f6c6964206f776e65720000000000000000000000000000000000000000000000602082015250565b6000613f51602983612bf1565b9150613f5c82613ef5565b604082019050919050565b60006020820190508181036000830152613f8081613f44565b9050919050565b7f455243313135353a2069647320616e642076616c756573206c656e677468206d60008201527f69736d6174636800000000000000000000000000000000000000000000000000602082015250565b6000613fe3602783612bf1565b9150613fee82613f87565b604082019050919050565b6000602082019050818103600083015261401281613fd6565b9050919050565b600081905092915050565b600061402f82612be6565b6140398185614019565b9350614049818560208601612c02565b80840191505092915050565b60006140618285614024565b915061406d8284614024565b91508190509392505050565b600061408482612c98565b915061408f83612c98565b92508282019050808211156140a7576140a6613982565b5b92915050565b7f4552433732313a207472616e736665722066726f6d20696e636f72726563742060008201527f6f776e6572000000000000000000000000000000000000000000000000000000602082015250565b6000614109602583612bf1565b9150614114826140ad565b604082019050919050565b60006020820190508181036000830152614138816140fc565b9050919050565b7f4552433732313a207472616e7366657220746f20746865207a65726f2061646460008201527f7265737300000000000000000000000000000000000000000000000000000000602082015250565b600061419b602483612bf1565b91506141a68261413f565b604082019050919050565b600060208201905081810360008301526141ca8161418e565b9050919050565b7f4552433939383a20696e73756666696369656e74206368696c642062616c616e60008201527f636520666f72207472616e736665720000000000000000000000000000000000602082015250565b600061422d602f83612bf1565b9150614238826141d1565b604082019050919050565b6000602082019050818103600083015261425c81614220565b9050919050565b7f4552433732313a20617070726f766520746f2063616c6c657200000000000000600082015250565b6000614299601983612bf1565b91506142a482614263565b602082019050919050565b600060208201905081810360008301526142c88161428c565b9050919050565b7f4552433732313a207472616e7366657220746f206e6f6e20455243373231526560008201527f63656976657220696d706c656d656e7465720000000000000000000000000000602082015250565b600061432b603283612bf1565b9150614336826142cf565b604082019050919050565b6000602082019050818103600083015261435a8161431e565b9050919050565b7f4e487b7100000000000000000000000000000000000000000000000000000000600052601260045260246000fd5b600061439b82612c98565b91506143a683612c98565b9250826143b6576143b5614361565b5b828204905092915050565b60006143cc82612c98565b91506143d783612c98565b9250826143e7576143e6614361565b5b828206905092915050565b60006080820190506144076000830187612d2d565b6144146020830186612d2d565b61442160408301856133fd565b81810360608301526144338184613d2e565b905095945050505050565b60008151905061444d81612b57565b92915050565b60006020828403121561446957614468612b21565b5b60006144778482850161443e565b91505092915050565b7f4e487b7100000000000000000000000000000000000000000000000000000000600052603160045260246000fdfea2646970667358221220e360a23cf699e682ceafc857d4ac97c7cdf3267a0902f69bcf4bd4458317e6f964736f6c63430008110033",
  "immutableReferences": {},
  "source": "// SPDX-License-Identifier: UNLICENSED\n\npragma solidity ^0.8.0;\n\n/*\n// for remix\nimport \"https://github.com/OpenZeppelin/openzeppelin-contracts/blob/master/contracts/token/ERC1155/ERC1155.sol\";\nimport \"https://github.com/OpenZeppelin/openzeppelin-contracts/blob/master/contracts/token/ERC1155/ERC1155Receiver.sol\";\nimport \"https://github.com/OpenZeppelin/openzeppelin-contracts/blob/master/contracts/token/ERC721/ERC721.sol\";\nimport \"https://github.com/OpenZeppelin/openzeppelin-contracts/blob/master/contracts/utils/EnumerableSet.sol\";\n*/\n\nimport \"@openzeppelin/contracts/token/ERC1155/ERC1155.sol\";\nimport \"@openzeppelin/contracts/token/ERC1155/IERC1155Receiver.sol\";\nimport \"@openzeppelin/contracts/token/ERC721/ERC721.sol\";\nimport \"@openzeppelin/contracts/token/ERC721/IERC721Receiver.sol\";\nimport \"@openzeppelin/contracts/utils/structs/EnumerableSet.sol\";\n\nimport \"./IERC998ERC1155TopDown.sol\";\n\ncontract ERC998ERC1155TopDown is ERC721, IERC1155Receiver, IERC998ERC1155TopDown, IERC721Receiver {\n    using EnumerableSet for EnumerableSet.AddressSet;\n    using EnumerableSet for EnumerableSet.UintSet;\n\n    mapping(uint256 => mapping(address => mapping(uint256 => uint256))) public _balances;\n    mapping(address => mapping(uint256 => EnumerableSet.UintSet)) private _holdersOf;\n\n    mapping(uint256 => EnumerableSet.AddressSet) private _childContract;\n    mapping(uint256 => mapping(address => EnumerableSet.UintSet)) private _childsForChildContract;\n\n    constructor(string memory name, string memory symbol, string memory baseURI) ERC721(name, symbol) public {\n        _baseURI();\n    }\n\n    /**\n     * @dev Gives child balance for a specific child contract and child id .\n     */\n    function childBalance(uint256 tokenId, address childContract, uint256 childTokenId) external view override returns(uint256) {\n        return _balances[tokenId][childContract][childTokenId];\n    }\n\n    /**\n     * @dev Gives list of child contract where token ID has childs.\n     */\n    function childContractsFor(uint256 tokenId) override external view returns (address[] memory) {\n        address[] memory childContracts = new address[](_childContract[tokenId].length());\n\n        for(uint256 i = 0; i < _childContract[tokenId].length(); i++) {\n            childContracts[i] = _childContract[tokenId].at(i);\n        }\n\n        return childContracts;\n    }\n\n    /**\n     * @dev Gives list of owned child ID on a child contract by parent token ID and child contract.\n     */\n    function childIdsOwned(uint256 tokenId, address childContract) override external view returns (uint256[] memory) {\n        uint256[] memory childTokenIds = new uint256[](_childsForChildContract[tokenId][childContract].length());\n\n        for(uint256 i = 0; i < _childsForChildContract[tokenId][childContract].length(); i++) {\n            childTokenIds[i] = _childsForChildContract[tokenId][childContract].at(i);\n        }\n\n        return childTokenIds;\n    }\n\n    /**\n     * @dev Transfers child token from a token ID.\n     */\n    function safeTransferChildFrom(uint256 fromTokenId, address to, address childContract, uint256 childTokenId, uint256 amount, bytes memory data) public override {\n        require(to != address(0), \"ERC998: transfer to the zero address\");\n\n        address operator = _msgSender();\n        require(\n            ownerOf(fromTokenId) == operator ||\n            isApprovedForAll(ownerOf(fromTokenId), operator),\n            \"ERC998: caller is not owner nor approved\"\n        );\n\n        _beforeChildTransfer(operator, fromTokenId, to, childContract, _asSingletonArray(childTokenId), _asSingletonArray(amount), data);\n\n        _removeChild(fromTokenId, childContract, childTokenId, amount);\n\n        // TODO: maybe check if to == this\n        ERC1155(childContract).safeTransferFrom(address(this), to, childTokenId, amount, data);\n        emit TransferSingleChild(fromTokenId, to, childContract, childTokenId, amount);\n    }\n\n    /**\n     * @dev Returns the owner of the token specified by tokenId. Wrapper function for ERC721 function ownerOf(). \n    */\n    function getOwner(uint256 tokenID) external view returns(address){\n        return ownerOf(tokenID);\n    }\n\n    /**\n     * @dev Returns the contract address of the child token ID, given a parent and child token ID.\n     */\n    function getChildContract(uint256 tokenID, uint256 childTokenID) external view returns(address){\n\n        for(uint256 i = 0; i < _childContract[tokenID].length(); i++) {\n            if (_childsForChildContract[tokenID][_childContract[tokenID].at(i)].contains(childTokenID)){\n                return _childContract[tokenID].at(i);\n            }\n        }\n\n        return address(0);\n    }\n\n    /**\n     * @dev Wrapper function to get message sender.\n     */\n    function getMsgSender() external view returns(address){\n        return _msgSender();\n    }\n\n\n\n    /**\n     * @dev Transfers batch of child tokens from a token ID.\n     */\n    function safeBatchTransferChildFrom(uint256 fromTokenId, address to, address childContract, uint256[] memory childTokenIds, uint256[] memory amounts, bytes memory data) public override {\n        require(childTokenIds.length == amounts.length, \"ERC998: ids and amounts length mismatch\");\n        require(to != address(0), \"ERC998: transfer to the zero address\");\n\n        address operator = _msgSender();\n        require(\n            ownerOf(fromTokenId) == operator ||\n            isApprovedForAll(ownerOf(fromTokenId), operator),\n            \"ERC998: caller is not owner nor approved\"\n        );\n\n        _beforeChildTransfer(operator, fromTokenId, to, childContract, childTokenIds, amounts, data);\n\n        for (uint256 i = 0; i < childTokenIds.length; ++i) {\n            uint256 childTokenId = childTokenIds[i];\n            uint256 amount = amounts[i];\n\n            _removeChild(fromTokenId, childContract, childTokenId, amount);\n        }\n        ERC1155(childContract).safeBatchTransferFrom(address(this), to, childTokenIds, amounts, data);\n        emit TransferBatchChild(fromTokenId, to, childContract, childTokenIds, amounts);\n    }\n\n    /**\n     * @dev Receives a child token, the receiver token ID must be encoded in the\n     * field data.\n     */\n    function onERC1155Received(address operator, address from, uint256 id, uint256 amount, bytes memory data) virtual public override returns(bytes4) {\n        require(data.length == 32, \"ERC998: data must contain the unique uint256 tokenId to transfer the child token to\");\n        _beforeChildTransfer(operator, 0, address(this), from, _asSingletonArray(id), _asSingletonArray(amount), data);\n\n        uint256 _receiverTokenId;\n        uint256 _index = msg.data.length - 32;\n        assembly {_receiverTokenId := calldataload(_index)}\n\n        _receiveChild(_receiverTokenId, msg.sender, id, amount);\n        emit ReceivedChild(from, _receiverTokenId, msg.sender, id, amount);\n\n        return this.onERC1155Received.selector;\n    }\n\n    /**\n     * @dev Receives a child token, the receiver token ID must be encoded in the\n     * field data.\n     */\n    function onERC721Received(address operator, address from, uint256 tokenId, bytes memory data) virtual public override returns(bytes4) {\n        require(data.length == 32, \"ERC998: data must contain the unique uint256 tokenId to transfer the child token to\");\n\n        uint256 _receiverTokenId;\n        uint256 _index = msg.data.length - 32;\n        assembly {_receiverTokenId := calldataload(_index)}\n\n        _receiveChild(_receiverTokenId, msg.sender, tokenId, 1);\n        emit ReceivedChild(from, _receiverTokenId, msg.sender, tokenId, 1);\n\n        return this.onERC721Received.selector;\n    }\n\n    /**\n     * @dev Receives a batch of child tokens, the receiver token ID must be\n     * encoded in the field data.\n     */\n    function onERC1155BatchReceived(address operator, address from, uint256[] memory ids, uint256[] memory values, bytes memory data) virtual public override returns(bytes4) {\n        require(data.length == 32, \"ERC998: data must contain the unique uint256 tokenId to transfer the child token to\");\n        require(ids.length == values.length, \"ERC1155: ids and values length mismatch\");\n        _beforeChildTransfer(operator, 0, address(this), from, ids, values, data);\n\n        uint256 _receiverTokenId;\n        uint256 _index = msg.data.length - 32;\n        assembly {_receiverTokenId := calldataload(_index)}\n        for(uint256 i = 0; i < ids.length; i++) {\n            _receiveChild(_receiverTokenId, msg.sender, ids[i], values[i]);\n            emit ReceivedChild(from, _receiverTokenId, msg.sender, ids[i], values[i]);\n        }\n        return this.onERC1155BatchReceived.selector;\n    }\n\n    function _receiveChild(uint256 tokenId, address childContract, uint256 childTokenId, uint256 amount) internal virtual {\n        if(!_childContract[tokenId].contains(childContract)) {\n            _childContract[tokenId].add(childContract);\n        }\n        if(_balances[tokenId][childContract][childTokenId] == 0) {\n            _childsForChildContract[tokenId][childContract].add(childTokenId);\n        }\n        _balances[tokenId][childContract][childTokenId] += amount;\n    }\n\n    function _removeChild(uint256 tokenId, address childContract, uint256 childTokenId, uint256 amount) internal virtual {\n        require(amount != 0 || _balances[tokenId][childContract][childTokenId] >= amount, \"ERC998: insufficient child balance for transfer\");\n        _balances[tokenId][childContract][childTokenId] -= amount;\n        if(_balances[tokenId][childContract][childTokenId] == 0) {\n            _holdersOf[childContract][childTokenId].remove(tokenId);\n            _childsForChildContract[tokenId][childContract].remove(childTokenId);\n            if(_childsForChildContract[tokenId][childContract].length() == 0) {\n                _childContract[tokenId].remove(childContract);\n            }\n        }\n    }\n\n    function _beforeChildTransfer(\n        address operator,\n        uint256 fromTokenId,\n        address to,\n        address childContract,\n        uint256[] memory ids,\n        uint256[] memory amounts,\n        bytes memory data\n    )\n        internal virtual\n    { }\n\n    function _asSingletonArray(uint256 element) private pure returns (uint256[] memory) {\n        uint256[] memory array = new uint256[](1);\n        array[0] = element;\n\n        return array;\n    }\n}\n",
  "sourcePath": "/Users/moose/Documents/Projects/composo/supp_chain/truffle/contracts/ERC998ERC1155TopDown.sol",
  "compiler": {
    "name": "solc",
    "version": "0.8.17+commit.8df45f5f.Emscripten.clang"
  },
  "schemaVersion": "3.4.7",
  "updatedAt": "2022-10-19T05:30:01.543Z",
  "networkType": "ethereum",
  "devdoc": {
    "kind": "dev",
    "methods": {
      "approve(address,uint256)": {
        "details": "See {IERC721-approve}."
      },
      "balanceOf(address)": {
        "details": "See {IERC721-balanceOf}."
      },
      "childBalance(uint256,address,uint256)": {
        "details": "Gives child balance for a specific child contract and child id ."
      },
      "childContractsFor(uint256)": {
        "details": "Gives list of child contract where token ID has childs."
      },
      "childIdsOwned(uint256,address)": {
        "details": "Gives list of owned child ID on a child contract by parent token ID and child contract."
      },
      "getApproved(uint256)": {
        "details": "See {IERC721-getApproved}."
      },
      "getChildContract(uint256,uint256)": {
        "details": "Returns the contract address of the child token ID, given a parent and child token ID."
      },
      "getMsgSender()": {
        "details": "Wrapper function to get message sender."
      },
      "getOwner(uint256)": {
        "details": "Returns the owner of the token specified by tokenId. Wrapper function for ERC721 function ownerOf(). "
      },
      "isApprovedForAll(address,address)": {
        "details": "See {IERC721-isApprovedForAll}."
      },
      "name()": {
        "details": "See {IERC721Metadata-name}."
      },
      "onERC1155BatchReceived(address,address,uint256[],uint256[],bytes)": {
        "details": "Receives a batch of child tokens, the receiver token ID must be encoded in the field data."
      },
      "onERC1155Received(address,address,uint256,uint256,bytes)": {
        "details": "Receives a child token, the receiver token ID must be encoded in the field data."
      },
      "onERC721Received(address,address,uint256,bytes)": {
        "details": "Receives a child token, the receiver token ID must be encoded in the field data."
      },
      "ownerOf(uint256)": {
        "details": "See {IERC721-ownerOf}."
      },
      "safeBatchTransferChildFrom(uint256,address,address,uint256[],uint256[],bytes)": {
        "details": "Transfers batch of child tokens from a token ID."
      },
      "safeTransferChildFrom(uint256,address,address,uint256,uint256,bytes)": {
        "details": "Transfers child token from a token ID."
      },
      "safeTransferFrom(address,address,uint256)": {
        "details": "See {IERC721-safeTransferFrom}."
      },
      "safeTransferFrom(address,address,uint256,bytes)": {
        "details": "See {IERC721-safeTransferFrom}."
      },
      "setApprovalForAll(address,bool)": {
        "details": "See {IERC721-setApprovalForAll}."
      },
      "supportsInterface(bytes4)": {
        "details": "See {IERC165-supportsInterface}."
      },
      "symbol()": {
        "details": "See {IERC721Metadata-symbol}."
      },
      "tokenURI(uint256)": {
        "details": "See {IERC721Metadata-tokenURI}."
      },
      "transferFrom(address,address,uint256)": {
        "details": "See {IERC721-transferFrom}."
      }
    },
    "version": 1
  },
  "userdoc": {
    "kind": "user",
    "methods": {},
    "version": 1
  }
}