{
  "contractName": "ERC998ERC1155TopDown",
  "abi": [
    {
      "inputs": [
        {
          "internalType": "string",
          "name": "name",
          "type": "string"
        },
        {
          "internalType": "string",
          "name": "symbol",
          "type": "string"
        },
        {
          "internalType": "string",
          "name": "baseURI",
          "type": "string"
        }
      ],
      "stateMutability": "nonpayable",
      "type": "constructor"
    },
    {
      "anonymous": false,
      "inputs": [
        {
          "indexed": true,
          "internalType": "address",
          "name": "owner",
          "type": "address"
        },
        {
          "indexed": true,
          "internalType": "address",
          "name": "approved",
          "type": "address"
        },
        {
          "indexed": true,
          "internalType": "uint256",
          "name": "tokenId",
          "type": "uint256"
        }
      ],
      "name": "Approval",
      "type": "event"
    },
    {
      "anonymous": false,
      "inputs": [
        {
          "indexed": true,
          "internalType": "address",
          "name": "owner",
          "type": "address"
        },
        {
          "indexed": true,
          "internalType": "address",
          "name": "operator",
          "type": "address"
        },
        {
          "indexed": false,
          "internalType": "bool",
          "name": "approved",
          "type": "bool"
        }
      ],
      "name": "ApprovalForAll",
      "type": "event"
    },
    {
      "anonymous": false,
      "inputs": [
        {
          "indexed": true,
          "internalType": "address",
          "name": "from",
          "type": "address"
        },
        {
          "indexed": true,
          "internalType": "uint256",
          "name": "toTokenId",
          "type": "uint256"
        },
        {
          "indexed": true,
          "internalType": "address",
          "name": "childContract",
          "type": "address"
        },
        {
          "indexed": false,
          "internalType": "uint256",
          "name": "childTokenId",
          "type": "uint256"
        },
        {
          "indexed": false,
          "internalType": "uint256",
          "name": "amount",
          "type": "uint256"
        }
      ],
      "name": "ReceivedChild",
      "type": "event"
    },
    {
      "anonymous": false,
      "inputs": [
        {
          "indexed": true,
          "internalType": "address",
          "name": "from",
          "type": "address"
        },
        {
          "indexed": true,
          "internalType": "address",
          "name": "to",
          "type": "address"
        },
        {
          "indexed": true,
          "internalType": "uint256",
          "name": "tokenId",
          "type": "uint256"
        }
      ],
      "name": "Transfer",
      "type": "event"
    },
    {
      "anonymous": false,
      "inputs": [
        {
          "indexed": true,
          "internalType": "uint256",
          "name": "fromTokenId",
          "type": "uint256"
        },
        {
          "indexed": true,
          "internalType": "address",
          "name": "to",
          "type": "address"
        },
        {
          "indexed": true,
          "internalType": "address",
          "name": "childContract",
          "type": "address"
        },
        {
          "indexed": false,
          "internalType": "uint256[]",
          "name": "childTokenIds",
          "type": "uint256[]"
        },
        {
          "indexed": false,
          "internalType": "uint256[]",
          "name": "amounts",
          "type": "uint256[]"
        }
      ],
      "name": "TransferBatchChild",
      "type": "event"
    },
    {
      "anonymous": false,
      "inputs": [
        {
          "indexed": true,
          "internalType": "uint256",
          "name": "fromTokenId",
          "type": "uint256"
        },
        {
          "indexed": true,
          "internalType": "address",
          "name": "to",
          "type": "address"
        },
        {
          "indexed": true,
          "internalType": "address",
          "name": "childContract",
          "type": "address"
        },
        {
          "indexed": false,
          "internalType": "uint256",
          "name": "childTokenId",
          "type": "uint256"
        },
        {
          "indexed": false,
          "internalType": "uint256",
          "name": "amount",
          "type": "uint256"
        }
      ],
      "name": "TransferSingleChild",
      "type": "event"
    },
    {
      "inputs": [
        {
          "internalType": "uint256",
          "name": "",
          "type": "uint256"
        },
        {
          "internalType": "address",
          "name": "",
          "type": "address"
        },
        {
          "internalType": "uint256",
          "name": "",
          "type": "uint256"
        }
      ],
      "name": "_balances",
      "outputs": [
        {
          "internalType": "uint256",
          "name": "",
          "type": "uint256"
        }
      ],
      "stateMutability": "view",
      "type": "function",
      "constant": true
    },
    {
      "inputs": [
        {
          "internalType": "address",
          "name": "to",
          "type": "address"
        },
        {
          "internalType": "uint256",
          "name": "tokenId",
          "type": "uint256"
        }
      ],
      "name": "approve",
      "outputs": [],
      "stateMutability": "nonpayable",
      "type": "function"
    },
    {
      "inputs": [
        {
          "internalType": "address",
          "name": "owner",
          "type": "address"
        }
      ],
      "name": "balanceOf",
      "outputs": [
        {
          "internalType": "uint256",
          "name": "",
          "type": "uint256"
        }
      ],
      "stateMutability": "view",
      "type": "function",
      "constant": true
    },
    {
      "inputs": [
        {
          "internalType": "uint256",
          "name": "tokenId",
          "type": "uint256"
        }
      ],
      "name": "getApproved",
      "outputs": [
        {
          "internalType": "address",
          "name": "",
          "type": "address"
        }
      ],
      "stateMutability": "view",
      "type": "function",
      "constant": true
    },
    {
      "inputs": [
        {
          "internalType": "address",
          "name": "owner",
          "type": "address"
        },
        {
          "internalType": "address",
          "name": "operator",
          "type": "address"
        }
      ],
      "name": "isApprovedForAll",
      "outputs": [
        {
          "internalType": "bool",
          "name": "",
          "type": "bool"
        }
      ],
      "stateMutability": "view",
      "type": "function",
      "constant": true
    },
    {
      "inputs": [],
      "name": "name",
      "outputs": [
        {
          "internalType": "string",
          "name": "",
          "type": "string"
        }
      ],
      "stateMutability": "view",
      "type": "function",
      "constant": true
    },
    {
      "inputs": [
        {
          "internalType": "uint256",
          "name": "tokenId",
          "type": "uint256"
        }
      ],
      "name": "ownerOf",
      "outputs": [
        {
          "internalType": "address",
          "name": "",
          "type": "address"
        }
      ],
      "stateMutability": "view",
      "type": "function",
      "constant": true
    },
    {
      "inputs": [
        {
          "internalType": "address",
          "name": "from",
          "type": "address"
        },
        {
          "internalType": "address",
          "name": "to",
          "type": "address"
        },
        {
          "internalType": "uint256",
          "name": "tokenId",
          "type": "uint256"
        }
      ],
      "name": "safeTransferFrom",
      "outputs": [],
      "stateMutability": "nonpayable",
      "type": "function"
    },
    {
      "inputs": [
        {
          "internalType": "address",
          "name": "from",
          "type": "address"
        },
        {
          "internalType": "address",
          "name": "to",
          "type": "address"
        },
        {
          "internalType": "uint256",
          "name": "tokenId",
          "type": "uint256"
        },
        {
          "internalType": "bytes",
          "name": "data",
          "type": "bytes"
        }
      ],
      "name": "safeTransferFrom",
      "outputs": [],
      "stateMutability": "nonpayable",
      "type": "function"
    },
    {
      "inputs": [
        {
          "internalType": "address",
          "name": "operator",
          "type": "address"
        },
        {
          "internalType": "bool",
          "name": "approved",
          "type": "bool"
        }
      ],
      "name": "setApprovalForAll",
      "outputs": [],
      "stateMutability": "nonpayable",
      "type": "function"
    },
    {
      "inputs": [
        {
          "internalType": "bytes4",
          "name": "interfaceId",
          "type": "bytes4"
        }
      ],
      "name": "supportsInterface",
      "outputs": [
        {
          "internalType": "bool",
          "name": "",
          "type": "bool"
        }
      ],
      "stateMutability": "view",
      "type": "function",
      "constant": true
    },
    {
      "inputs": [],
      "name": "symbol",
      "outputs": [
        {
          "internalType": "string",
          "name": "",
          "type": "string"
        }
      ],
      "stateMutability": "view",
      "type": "function",
      "constant": true
    },
    {
      "inputs": [
        {
          "internalType": "uint256",
          "name": "tokenId",
          "type": "uint256"
        }
      ],
      "name": "tokenURI",
      "outputs": [
        {
          "internalType": "string",
          "name": "",
          "type": "string"
        }
      ],
      "stateMutability": "view",
      "type": "function",
      "constant": true
    },
    {
      "inputs": [
        {
          "internalType": "address",
          "name": "from",
          "type": "address"
        },
        {
          "internalType": "address",
          "name": "to",
          "type": "address"
        },
        {
          "internalType": "uint256",
          "name": "tokenId",
          "type": "uint256"
        }
      ],
      "name": "transferFrom",
      "outputs": [],
      "stateMutability": "nonpayable",
      "type": "function"
    },
    {
      "inputs": [
        {
          "internalType": "uint256",
          "name": "tokenId",
          "type": "uint256"
        },
        {
          "internalType": "address",
          "name": "childContract",
          "type": "address"
        },
        {
          "internalType": "uint256",
          "name": "childTokenId",
          "type": "uint256"
        }
      ],
      "name": "childBalance",
      "outputs": [
        {
          "internalType": "uint256",
          "name": "",
          "type": "uint256"
        }
      ],
      "stateMutability": "view",
      "type": "function",
      "constant": true
    },
    {
      "inputs": [
        {
          "internalType": "uint256",
          "name": "tokenId",
          "type": "uint256"
        }
      ],
      "name": "childContractsFor",
      "outputs": [
        {
          "internalType": "address[]",
          "name": "",
          "type": "address[]"
        }
      ],
      "stateMutability": "view",
      "type": "function",
      "constant": true
    },
    {
      "inputs": [
        {
          "internalType": "uint256",
          "name": "tokenId",
          "type": "uint256"
        },
        {
          "internalType": "address",
          "name": "childContract",
          "type": "address"
        }
      ],
      "name": "childIdsForOn",
      "outputs": [
        {
          "internalType": "uint256[]",
          "name": "",
          "type": "uint256[]"
        }
      ],
      "stateMutability": "view",
      "type": "function",
      "constant": true
    },
    {
      "inputs": [
        {
          "internalType": "uint256",
          "name": "fromTokenId",
          "type": "uint256"
        },
        {
          "internalType": "address",
          "name": "to",
          "type": "address"
        },
        {
          "internalType": "address",
          "name": "childContract",
          "type": "address"
        },
        {
          "internalType": "uint256",
          "name": "childTokenId",
          "type": "uint256"
        },
        {
          "internalType": "uint256",
          "name": "amount",
          "type": "uint256"
        },
        {
          "internalType": "bytes",
          "name": "data",
          "type": "bytes"
        }
      ],
      "name": "safeTransferChildFrom",
      "outputs": [],
      "stateMutability": "nonpayable",
      "type": "function"
    },
    {
      "inputs": [
        {
          "internalType": "uint256",
          "name": "tokenID",
          "type": "uint256"
        }
      ],
      "name": "getOwner",
      "outputs": [
        {
          "internalType": "address",
          "name": "",
          "type": "address"
        }
      ],
      "stateMutability": "view",
      "type": "function",
      "constant": true
    },
    {
      "inputs": [],
      "name": "getMsgSender",
      "outputs": [
        {
          "internalType": "address",
          "name": "",
          "type": "address"
        }
      ],
      "stateMutability": "view",
      "type": "function",
      "constant": true
    },
    {
      "inputs": [
        {
          "internalType": "uint256",
          "name": "fromTokenId",
          "type": "uint256"
        },
        {
          "internalType": "address",
          "name": "to",
          "type": "address"
        },
        {
          "internalType": "address",
          "name": "childContract",
          "type": "address"
        },
        {
          "internalType": "uint256[]",
          "name": "childTokenIds",
          "type": "uint256[]"
        },
        {
          "internalType": "uint256[]",
          "name": "amounts",
          "type": "uint256[]"
        },
        {
          "internalType": "bytes",
          "name": "data",
          "type": "bytes"
        }
      ],
      "name": "safeBatchTransferChildFrom",
      "outputs": [],
      "stateMutability": "nonpayable",
      "type": "function"
    },
    {
      "inputs": [
        {
          "internalType": "address",
          "name": "operator",
          "type": "address"
        },
        {
          "internalType": "address",
          "name": "from",
          "type": "address"
        },
        {
          "internalType": "uint256",
          "name": "id",
          "type": "uint256"
        },
        {
          "internalType": "uint256",
          "name": "amount",
          "type": "uint256"
        },
        {
          "internalType": "bytes",
          "name": "data",
          "type": "bytes"
        }
      ],
      "name": "onERC1155Received",
      "outputs": [
        {
          "internalType": "bytes4",
          "name": "",
          "type": "bytes4"
        }
      ],
      "stateMutability": "nonpayable",
      "type": "function"
    },
    {
      "inputs": [
        {
          "internalType": "address",
          "name": "operator",
          "type": "address"
        },
        {
          "internalType": "address",
          "name": "from",
          "type": "address"
        },
        {
          "internalType": "uint256",
          "name": "tokenId",
          "type": "uint256"
        },
        {
          "internalType": "bytes",
          "name": "data",
          "type": "bytes"
        }
      ],
      "name": "onERC721Received",
      "outputs": [
        {
          "internalType": "bytes4",
          "name": "",
          "type": "bytes4"
        }
      ],
      "stateMutability": "nonpayable",
      "type": "function"
    },
    {
      "inputs": [
        {
          "internalType": "address",
          "name": "operator",
          "type": "address"
        },
        {
          "internalType": "address",
          "name": "from",
          "type": "address"
        },
        {
          "internalType": "uint256[]",
          "name": "ids",
          "type": "uint256[]"
        },
        {
          "internalType": "uint256[]",
          "name": "values",
          "type": "uint256[]"
        },
        {
          "internalType": "bytes",
          "name": "data",
          "type": "bytes"
        }
      ],
      "name": "onERC1155BatchReceived",
      "outputs": [
        {
          "internalType": "bytes4",
          "name": "",
          "type": "bytes4"
        }
      ],
      "stateMutability": "nonpayable",
      "type": "function"
    }
  ],
  "bytecode": "0x60806040523480156200001157600080fd5b506040516200481938038062004819833981810160405281019062000037919062000223565b828281600090816200004a919062000527565b5080600190816200005c919062000527565b5050506200006f6200007960201b60201c565b505050506200060e565b606060405180602001604052806000815250905090565b6000604051905090565b600080fd5b600080fd5b600080fd5b600080fd5b6000601f19601f8301169050919050565b7f4e487b7100000000000000000000000000000000000000000000000000000000600052604160045260246000fd5b620000f982620000ae565b810181811067ffffffffffffffff821117156200011b576200011a620000bf565b5b80604052505050565b60006200013062000090565b90506200013e8282620000ee565b919050565b600067ffffffffffffffff821115620001615762000160620000bf565b5b6200016c82620000ae565b9050602081019050919050565b60005b83811015620001995780820151818401526020810190506200017c565b60008484015250505050565b6000620001bc620001b68462000143565b62000124565b905082815260208101848484011115620001db57620001da620000a9565b5b620001e884828562000179565b509392505050565b600082601f830112620002085762000207620000a4565b5b81516200021a848260208601620001a5565b91505092915050565b6000806000606084860312156200023f576200023e6200009a565b5b600084015167ffffffffffffffff81111562000260576200025f6200009f565b5b6200026e86828701620001f0565b935050602084015167ffffffffffffffff8111156200029257620002916200009f565b5b620002a086828701620001f0565b925050604084015167ffffffffffffffff811115620002c457620002c36200009f565b5b620002d286828701620001f0565b9150509250925092565b600081519050919050565b7f4e487b7100000000000000000000000000000000000000000000000000000000600052602260045260246000fd5b600060028204905060018216806200032f57607f821691505b602082108103620003455762000344620002e7565b5b50919050565b60008190508160005260206000209050919050565b60006020601f8301049050919050565b600082821b905092915050565b600060088302620003af7fffffffffffffffffffffffffffffffffffffffffffffffffffffffffffffffff8262000370565b620003bb868362000370565b95508019841693508086168417925050509392505050565b6000819050919050565b6000819050919050565b60006200040862000402620003fc84620003d3565b620003dd565b620003d3565b9050919050565b6000819050919050565b6200042483620003e7565b6200043c62000433826200040f565b8484546200037d565b825550505050565b600090565b6200045362000444565b6200046081848462000419565b505050565b5b8181101562000488576200047c60008262000449565b60018101905062000466565b5050565b601f821115620004d757620004a1816200034b565b620004ac8462000360565b81016020851015620004bc578190505b620004d4620004cb8562000360565b83018262000465565b50505b505050565b600082821c905092915050565b6000620004fc60001984600802620004dc565b1980831691505092915050565b6000620005178383620004e9565b9150826002028217905092915050565b6200053282620002dc565b67ffffffffffffffff8111156200054e576200054d620000bf565b5b6200055a825462000316565b620005678282856200048c565b600060209050601f8311600181146200059f57600084156200058a578287015190505b62000596858262000509565b86555062000606565b601f198416620005af866200034b565b60005b82811015620005d957848901518255600182019150602085019450602081019050620005b2565b86831015620005f95784890151620005f5601f891682620004e9565b8355505b6001600288020188555050505b505050505050565b6141fb806200061e6000396000f3fe608060405234801561001057600080fd5b50600436106101585760003560e01c806370a08231116100c3578063bc197c811161007c578063bc197c81146103fb578063c41a360a1461042b578063c87b56dd1461045b578063e985e9c51461048b578063eeaf2f09146104bb578063f23a6e61146104eb57610158565b806370a08231146103275780637a6ce2e11461035757806389e7e2f21461037557806395d89b41146103a5578063a22cb465146103c3578063b88d4fde146103df57610158565b80632676608c116101155780632676608c1461024357806332085b651461027357806342842e0e1461028f57806342cf6e74146102ab57806360d4d23a146102c75780636352211e146102f757610158565b806301ffc9a71461015d57806306fdde031461018d578063081812fc146101ab578063095ea7b3146101db578063150b7a02146101f757806323b872dd14610227575b600080fd5b61017760048036038101906101729190612947565b61051b565b604051610184919061298f565b60405180910390f35b6101956105fd565b6040516101a29190612a3a565b60405180910390f35b6101c560048036038101906101c09190612a92565b61068f565b6040516101d29190612b00565b60405180910390f35b6101f560048036038101906101f09190612b47565b6106d5565b005b610211600480360381019061020c9190612cbc565b6107ec565b60405161021e9190612d4e565b60405180910390f35b610241600480360381019061023c9190612d69565b610800565b005b61025d60048036038101906102589190612dbc565b610860565b60405161026a9190612eba565b60405180910390f35b61028d60048036038101906102889190612fa4565b610a07565b005b6102a960048036038101906102a49190612d69565b610cb2565b005b6102c560048036038101906102c09190613085565b610cd2565b005b6102e160048036038101906102dc919061312e565b610eeb565b6040516102ee9190613190565b60405180910390f35b610311600480360381019061030c9190612a92565b610f58565b60405161031e9190612b00565b60405180910390f35b610341600480360381019061033c91906131ab565b611009565b60405161034e9190613190565b60405180910390f35b61035f6110c0565b60405161036c9190612b00565b60405180910390f35b61038f600480360381019061038a9190612a92565b6110cf565b60405161039c9190613296565b60405180910390f35b6103ad6111ec565b6040516103ba9190612a3a565b60405180910390f35b6103dd60048036038101906103d891906132e4565b61127e565b005b6103f960048036038101906103f49190612cbc565b611294565b005b61041560048036038101906104109190613324565b6112f6565b6040516104229190612d4e565b60405180910390f35b61044560048036038101906104409190612a92565b6114bb565b6040516104529190612b00565b60405180910390f35b61047560048036038101906104709190612a92565b6114cd565b6040516104829190612a3a565b60405180910390f35b6104a560048036038101906104a091906133f3565b611535565b6040516104b2919061298f565b60405180910390f35b6104d560048036038101906104d0919061312e565b6115c9565b6040516104e29190613190565b60405180910390f35b61050560048036038101906105009190613433565b6115fb565b6040516105129190612d4e565b60405180910390f35b60007f80ac58cd000000000000000000000000000000000000000000000000000000007bffffffffffffffffffffffffffffffffffffffffffffffffffffffff1916827bffffffffffffffffffffffffffffffffffffffffffffffffffffffff191614806105e657507f5b5e139f000000000000000000000000000000000000000000000000000000007bffffffffffffffffffffffffffffffffffffffffffffffffffffffff1916827bffffffffffffffffffffffffffffffffffffffffffffffffffffffff1916145b806105f657506105f582611704565b5b9050919050565b60606000805461060c906134f9565b80601f0160208091040260200160405190810160405280929190818152602001828054610638906134f9565b80156106855780601f1061065a57610100808354040283529160200191610685565b820191906000526020600020905b81548152906001019060200180831161066857829003601f168201915b5050505050905090565b600061069a8261176e565b6004600083815260200190815260200160002060009054906101000a900473ffffffffffffffffffffffffffffffffffffffff169050919050565b60006106e082610f58565b90508073ffffffffffffffffffffffffffffffffffffffff168373ffffffffffffffffffffffffffffffffffffffff1603610750576040517f08c379a00000000000000000000000000000000000000000000000000000000081526004016107479061359c565b60405180910390fd5b8073ffffffffffffffffffffffffffffffffffffffff1661076f6117b9565b73ffffffffffffffffffffffffffffffffffffffff16148061079e575061079d816107986117b9565b611535565b5b6107dd576040517f08c379a00000000000000000000000000000000000000000000000000000000081526004016107d49061362e565b60405180910390fd5b6107e783836117c1565b505050565b600063150b7a0260e01b9050949350505050565b61081161080b6117b9565b8261187a565b610850576040517f08c379a0000000000000000000000000000000000000000000000000000000008152600401610847906136c0565b60405180910390fd5b61085b83838361190f565b505050565b606060006108bc6009600086815260200190815260200160002060008573ffffffffffffffffffffffffffffffffffffffff1673ffffffffffffffffffffffffffffffffffffffff168152602001908152602001600020611b75565b67ffffffffffffffff8111156108d5576108d4612b91565b5b6040519080825280602002602001820160405280156109035781602001602082028036833780820191505090505b50905060005b6109616009600087815260200190815260200160002060008673ffffffffffffffffffffffffffffffffffffffff1673ffffffffffffffffffffffffffffffffffffffff168152602001908152602001600020611b75565b8110156109fc576109ca816009600088815260200190815260200160002060008773ffffffffffffffffffffffffffffffffffffffff1673ffffffffffffffffffffffffffffffffffffffff168152602001908152602001600020611b8a90919063ffffffff16565b8282815181106109dd576109dc6136e0565b5b60200260200101818152505080806109f49061373e565b915050610909565b508091505092915050565b8151835114610a4b576040517f08c379a0000000000000000000000000000000000000000000000000000000008152600401610a42906137f8565b60405180910390fd5b600073ffffffffffffffffffffffffffffffffffffffff168573ffffffffffffffffffffffffffffffffffffffff1603610aba576040517f08c379a0000000000000000000000000000000000000000000000000000000008152600401610ab19061388a565b60405180910390fd5b6000610ac46117b9565b90508073ffffffffffffffffffffffffffffffffffffffff16610ae688610f58565b73ffffffffffffffffffffffffffffffffffffffff161480610b165750610b15610b0f88610f58565b82611535565b5b610b55576040517f08c379a0000000000000000000000000000000000000000000000000000000008152600401610b4c9061391c565b60405180910390fd5b610b6481888888888888611ba4565b60005b8451811015610bcd576000858281518110610b8557610b846136e0565b5b602002602001015190506000858381518110610ba457610ba36136e0565b5b60200260200101519050610bba8a898484611bad565b505080610bc69061373e565b9050610b67565b508473ffffffffffffffffffffffffffffffffffffffff16632eb2c2d630888787876040518663ffffffff1660e01b8152600401610c0f959493929190613991565b600060405180830381600087803b158015610c2957600080fd5b505af1158015610c3d573d6000803e3d6000fd5b505050508473ffffffffffffffffffffffffffffffffffffffff168673ffffffffffffffffffffffffffffffffffffffff16887f5572be9c1bc39e4e277a34f64ccd0e84456dac3f33b0b1c458c12c402c6326a98787604051610ca19291906139f9565b60405180910390a450505050505050565b610ccd83838360405180602001604052806000815250611294565b505050565b600073ffffffffffffffffffffffffffffffffffffffff168573ffffffffffffffffffffffffffffffffffffffff1603610d41576040517f08c379a0000000000000000000000000000000000000000000000000000000008152600401610d389061388a565b60405180910390fd5b6000610d4b6117b9565b90508073ffffffffffffffffffffffffffffffffffffffff16610d6d88610f58565b73ffffffffffffffffffffffffffffffffffffffff161480610d9d5750610d9c610d9688610f58565b82611535565b5b610ddc576040517f08c379a0000000000000000000000000000000000000000000000000000000008152600401610dd39061391c565b60405180910390fd5b610dfb81888888610dec89611e91565b610df589611e91565b88611ba4565b610e0787868686611bad565b8473ffffffffffffffffffffffffffffffffffffffff1663f242432a30888787876040518663ffffffff1660e01b8152600401610e48959493929190613a30565b600060405180830381600087803b158015610e6257600080fd5b505af1158015610e76573d6000803e3d6000fd5b505050508473ffffffffffffffffffffffffffffffffffffffff168673ffffffffffffffffffffffffffffffffffffffff16887f9d6259404dec52b3d5d220f5b8e5d05cc05ec908e1bc320aa46793e3091e51948787604051610eda929190613a8a565b60405180910390a450505050505050565b60006006600085815260200190815260200160002060008473ffffffffffffffffffffffffffffffffffffffff1673ffffffffffffffffffffffffffffffffffffffff16815260200190815260200160002060008381526020019081526020016000205490509392505050565b6000806002600084815260200190815260200160002060009054906101000a900473ffffffffffffffffffffffffffffffffffffffff169050600073ffffffffffffffffffffffffffffffffffffffff168173ffffffffffffffffffffffffffffffffffffffff1603611000576040517f08c379a0000000000000000000000000000000000000000000000000000000008152600401610ff790613aff565b60405180910390fd5b80915050919050565b60008073ffffffffffffffffffffffffffffffffffffffff168273ffffffffffffffffffffffffffffffffffffffff1603611079576040517f08c379a000000000000000000000000000000000000000000000000000000000815260040161107090613b91565b60405180910390fd5b600360008373ffffffffffffffffffffffffffffffffffffffff1673ffffffffffffffffffffffffffffffffffffffff168152602001908152602001600020549050919050565b60006110ca6117b9565b905090565b606060006110ee60086000858152602001908152602001600020611f0b565b67ffffffffffffffff81111561110757611106612b91565b5b6040519080825280602002602001820160405280156111355781602001602082028036833780820191505090505b50905060005b61115660086000868152602001908152602001600020611f0b565b8110156111e2576111828160086000878152602001908152602001600020611f2090919063ffffffff16565b828281518110611195576111946136e0565b5b602002602001019073ffffffffffffffffffffffffffffffffffffffff16908173ffffffffffffffffffffffffffffffffffffffff168152505080806111da9061373e565b91505061113b565b5080915050919050565b6060600180546111fb906134f9565b80601f0160208091040260200160405190810160405280929190818152602001828054611227906134f9565b80156112745780601f1061124957610100808354040283529160200191611274565b820191906000526020600020905b81548152906001019060200180831161125757829003601f168201915b5050505050905090565b6112906112896117b9565b8383611f3a565b5050565b6112a561129f6117b9565b8361187a565b6112e4576040517f08c379a00000000000000000000000000000000000000000000000000000000081526004016112db906136c0565b60405180910390fd5b6112f0848484846120a6565b50505050565b6000602082511461133c576040517f08c379a000000000000000000000000000000000000000000000000000000000815260040161133390613c49565b60405180910390fd5b8251845114611380576040517f08c379a000000000000000000000000000000000000000000000000000000000815260040161137790613cdb565b60405180910390fd5b6113908660003088888888611ba4565b600080602060003690506113a49190613cfb565b90508035915060005b86518110156114a5576113f683338984815181106113ce576113cd6136e0565b5b60200260200101518985815181106113e9576113e86136e0565b5b6020026020010151612102565b3373ffffffffffffffffffffffffffffffffffffffff16838973ffffffffffffffffffffffffffffffffffffffff167fa18753b0660a8be2cdae03468c860b47c2926433ab16917f323544652803032d8a8581518110611459576114586136e0565b5b60200260200101518a8681518110611474576114736136e0565b5b602002602001015160405161148a929190613a8a565b60405180910390a4808061149d9061373e565b9150506113ad565b5063bc197c8160e01b9250505095945050505050565b60006114c682610f58565b9050919050565b60606114d88261176e565b60006114e261229d565b90506000815111611502576040518060200160405280600081525061152d565b8061150c846122b4565b60405160200161151d929190613d6b565b6040516020818303038152906040525b915050919050565b6000600560008473ffffffffffffffffffffffffffffffffffffffff1673ffffffffffffffffffffffffffffffffffffffff16815260200190815260200160002060008373ffffffffffffffffffffffffffffffffffffffff1673ffffffffffffffffffffffffffffffffffffffff16815260200190815260200160002060009054906101000a900460ff16905092915050565b600660205282600052604060002060205281600052604060002060205280600052604060002060009250925050505481565b60006020825114611641576040517f08c379a000000000000000000000000000000000000000000000000000000000815260040161163890613c49565b60405180910390fd5b611661866000308861165289611e91565b61165b89611e91565b88611ba4565b600080602060003690506116759190613cfb565b90508035915061168782338888612102565b3373ffffffffffffffffffffffffffffffffffffffff16828873ffffffffffffffffffffffffffffffffffffffff167fa18753b0660a8be2cdae03468c860b47c2926433ab16917f323544652803032d89896040516116e7929190613a8a565b60405180910390a463f23a6e6160e01b9250505095945050505050565b60007f01ffc9a7000000000000000000000000000000000000000000000000000000007bffffffffffffffffffffffffffffffffffffffffffffffffffffffff1916827bffffffffffffffffffffffffffffffffffffffffffffffffffffffff1916149050919050565b61177781612414565b6117b6576040517f08c379a00000000000000000000000000000000000000000000000000000000081526004016117ad90613aff565b60405180910390fd5b50565b600033905090565b816004600083815260200190815260200160002060006101000a81548173ffffffffffffffffffffffffffffffffffffffff021916908373ffffffffffffffffffffffffffffffffffffffff160217905550808273ffffffffffffffffffffffffffffffffffffffff1661183483610f58565b73ffffffffffffffffffffffffffffffffffffffff167f8c5be1e5ebec7d5bd14f71427d1e84f3dd0314c0f7b2291e5b200ac8c7c3b92560405160405180910390a45050565b60008061188683610f58565b90508073ffffffffffffffffffffffffffffffffffffffff168473ffffffffffffffffffffffffffffffffffffffff1614806118c857506118c78185611535565b5b8061190657508373ffffffffffffffffffffffffffffffffffffffff166118ee8461068f565b73ffffffffffffffffffffffffffffffffffffffff16145b91505092915050565b8273ffffffffffffffffffffffffffffffffffffffff1661192f82610f58565b73ffffffffffffffffffffffffffffffffffffffff1614611985576040517f08c379a000000000000000000000000000000000000000000000000000000000815260040161197c90613e01565b60405180910390fd5b600073ffffffffffffffffffffffffffffffffffffffff168273ffffffffffffffffffffffffffffffffffffffff16036119f4576040517f08c379a00000000000000000000000000000000000000000000000000000000081526004016119eb90613e93565b60405180910390fd5b6119ff838383612480565b611a0a6000826117c1565b6001600360008573ffffffffffffffffffffffffffffffffffffffff1673ffffffffffffffffffffffffffffffffffffffff1681526020019081526020016000206000828254611a5a9190613cfb565b925050819055506001600360008473ffffffffffffffffffffffffffffffffffffffff1673ffffffffffffffffffffffffffffffffffffffff1681526020019081526020016000206000828254611ab19190613eb3565b92505081905550816002600083815260200190815260200160002060006101000a81548173ffffffffffffffffffffffffffffffffffffffff021916908373ffffffffffffffffffffffffffffffffffffffff160217905550808273ffffffffffffffffffffffffffffffffffffffff168473ffffffffffffffffffffffffffffffffffffffff167fddf252ad1be2c89b69c2b068fc378daa952ba7f163c4a11628f55a4df523b3ef60405160405180910390a4611b70838383612485565b505050565b6000611b838260000161248a565b9050919050565b6000611b99836000018361249b565b60001c905092915050565b50505050505050565b600081141580611c1e5750806006600086815260200190815260200160002060008573ffffffffffffffffffffffffffffffffffffffff1673ffffffffffffffffffffffffffffffffffffffff16815260200190815260200160002060008481526020019081526020016000205410155b611c5d576040517f08c379a0000000000000000000000000000000000000000000000000000000008152600401611c5490613f59565b60405180910390fd5b806006600086815260200190815260200160002060008573ffffffffffffffffffffffffffffffffffffffff1673ffffffffffffffffffffffffffffffffffffffff16815260200190815260200160002060008481526020019081526020016000206000828254611cce9190613cfb565b9250508190555060006006600086815260200190815260200160002060008573ffffffffffffffffffffffffffffffffffffffff1673ffffffffffffffffffffffffffffffffffffffff16815260200190815260200160002060008481526020019081526020016000205403611e8b57611da084600760008673ffffffffffffffffffffffffffffffffffffffff1673ffffffffffffffffffffffffffffffffffffffff16815260200190815260200160002060008581526020019081526020016000206124c690919063ffffffff16565b50611e03826009600087815260200190815260200160002060008673ffffffffffffffffffffffffffffffffffffffff1673ffffffffffffffffffffffffffffffffffffffff1681526020019081526020016000206124c690919063ffffffff16565b506000611e5e6009600087815260200190815260200160002060008673ffffffffffffffffffffffffffffffffffffffff1673ffffffffffffffffffffffffffffffffffffffff168152602001908152602001600020611b75565b03611e8a57611e8883600860008781526020019081526020016000206124e090919063ffffffff16565b505b5b50505050565b60606000600167ffffffffffffffff811115611eb057611eaf612b91565b5b604051908082528060200260200182016040528015611ede5781602001602082028036833780820191505090505b5090508281600081518110611ef657611ef56136e0565b5b60200260200101818152505080915050919050565b6000611f198260000161248a565b9050919050565b6000611f2f836000018361249b565b60001c905092915050565b8173ffffffffffffffffffffffffffffffffffffffff168373ffffffffffffffffffffffffffffffffffffffff1603611fa8576040517f08c379a0000000000000000000000000000000000000000000000000000000008152600401611f9f90613fc5565b60405180910390fd5b80600560008573ffffffffffffffffffffffffffffffffffffffff1673ffffffffffffffffffffffffffffffffffffffff16815260200190815260200160002060008473ffffffffffffffffffffffffffffffffffffffff1673ffffffffffffffffffffffffffffffffffffffff16815260200190815260200160002060006101000a81548160ff0219169083151502179055508173ffffffffffffffffffffffffffffffffffffffff168373ffffffffffffffffffffffffffffffffffffffff167f17307eab39ab6107e8899845ad3d59bd9653f200f220920489ca2b5937696c3183604051612099919061298f565b60405180910390a3505050565b6120b184848461190f565b6120bd84848484612510565b6120fc576040517f08c379a00000000000000000000000000000000000000000000000000000000081526004016120f390614057565b60405180910390fd5b50505050565b612127836008600087815260200190815260200160002061269790919063ffffffff16565b6121525761215083600860008781526020019081526020016000206126c790919063ffffffff16565b505b60006006600086815260200190815260200160002060008573ffffffffffffffffffffffffffffffffffffffff1673ffffffffffffffffffffffffffffffffffffffff1681526020019081526020016000206000848152602001908152602001600020540361221f5761221d826009600087815260200190815260200160002060008673ffffffffffffffffffffffffffffffffffffffff1673ffffffffffffffffffffffffffffffffffffffff1681526020019081526020016000206126f790919063ffffffff16565b505b806006600086815260200190815260200160002060008573ffffffffffffffffffffffffffffffffffffffff1673ffffffffffffffffffffffffffffffffffffffff168152602001908152602001600020600084815260200190815260200160002060008282546122909190613eb3565b9250508190555050505050565b606060405180602001604052806000815250905090565b6060600082036122fb576040518060400160405280600181526020017f3000000000000000000000000000000000000000000000000000000000000000815250905061240f565b600082905060005b6000821461232d5780806123169061373e565b915050600a8261232691906140a6565b9150612303565b60008167ffffffffffffffff81111561234957612348612b91565b5b6040519080825280601f01601f19166020018201604052801561237b5781602001600182028036833780820191505090505b5090505b60008514612408576001826123949190613cfb565b9150600a856123a391906140d7565b60306123af9190613eb3565b60f81b8183815181106123c5576123c46136e0565b5b60200101907effffffffffffffffffffffffffffffffffffffffffffffffffffffffffffff1916908160001a905350600a8561240191906140a6565b945061237f565b8093505050505b919050565b60008073ffffffffffffffffffffffffffffffffffffffff166002600084815260200190815260200160002060009054906101000a900473ffffffffffffffffffffffffffffffffffffffff1673ffffffffffffffffffffffffffffffffffffffff1614159050919050565b505050565b505050565b600081600001805490509050919050565b60008260000182815481106124b3576124b26136e0565b5b9060005260206000200154905092915050565b60006124d8836000018360001b612711565b905092915050565b6000612508836000018373ffffffffffffffffffffffffffffffffffffffff1660001b612711565b905092915050565b60006125318473ffffffffffffffffffffffffffffffffffffffff16612825565b1561268a578373ffffffffffffffffffffffffffffffffffffffff1663150b7a0261255a6117b9565b8786866040518563ffffffff1660e01b815260040161257c9493929190614108565b6020604051808303816000875af19250505080156125b857506040513d601f19601f820116820180604052508101906125b59190614169565b60015b61263a573d80600081146125e8576040519150601f19603f3d011682016040523d82523d6000602084013e6125ed565b606091505b506000815103612632576040517f08c379a000000000000000000000000000000000000000000000000000000000815260040161262990614057565b60405180910390fd5b805181602001fd5b63150b7a0260e01b7bffffffffffffffffffffffffffffffffffffffffffffffffffffffff1916817bffffffffffffffffffffffffffffffffffffffffffffffffffffffff19161491505061268f565b600190505b949350505050565b60006126bf836000018373ffffffffffffffffffffffffffffffffffffffff1660001b612848565b905092915050565b60006126ef836000018373ffffffffffffffffffffffffffffffffffffffff1660001b61286b565b905092915050565b6000612709836000018360001b61286b565b905092915050565b600080836001016000848152602001908152602001600020549050600081146128195760006001826127439190613cfb565b905060006001866000018054905061275b9190613cfb565b90508181146127ca57600086600001828154811061277c5761277b6136e0565b5b90600052602060002001549050808760000184815481106127a05761279f6136e0565b5b90600052602060002001819055508387600101600083815260200190815260200160002081905550505b856000018054806127de576127dd614196565b5b60019003818190600052602060002001600090559055856001016000868152602001908152602001600020600090556001935050505061281f565b60009150505b92915050565b6000808273ffffffffffffffffffffffffffffffffffffffff163b119050919050565b600080836001016000848152602001908152602001600020541415905092915050565b60006128778383612848565b6128d05782600001829080600181540180825580915050600190039060005260206000200160009091909190915055826000018054905083600101600084815260200190815260200160002081905550600190506128d5565b600090505b92915050565b6000604051905090565b600080fd5b600080fd5b60007fffffffff0000000000000000000000000000000000000000000000000000000082169050919050565b612924816128ef565b811461292f57600080fd5b50565b6000813590506129418161291b565b92915050565b60006020828403121561295d5761295c6128e5565b5b600061296b84828501612932565b91505092915050565b60008115159050919050565b61298981612974565b82525050565b60006020820190506129a46000830184612980565b92915050565b600081519050919050565b600082825260208201905092915050565b60005b838110156129e45780820151818401526020810190506129c9565b60008484015250505050565b6000601f19601f8301169050919050565b6000612a0c826129aa565b612a1681856129b5565b9350612a268185602086016129c6565b612a2f816129f0565b840191505092915050565b60006020820190508181036000830152612a548184612a01565b905092915050565b6000819050919050565b612a6f81612a5c565b8114612a7a57600080fd5b50565b600081359050612a8c81612a66565b92915050565b600060208284031215612aa857612aa76128e5565b5b6000612ab684828501612a7d565b91505092915050565b600073ffffffffffffffffffffffffffffffffffffffff82169050919050565b6000612aea82612abf565b9050919050565b612afa81612adf565b82525050565b6000602082019050612b156000830184612af1565b92915050565b612b2481612adf565b8114612b2f57600080fd5b50565b600081359050612b4181612b1b565b92915050565b60008060408385031215612b5e57612b5d6128e5565b5b6000612b6c85828601612b32565b9250506020612b7d85828601612a7d565b9150509250929050565b600080fd5b600080fd5b7f4e487b7100000000000000000000000000000000000000000000000000000000600052604160045260246000fd5b612bc9826129f0565b810181811067ffffffffffffffff82111715612be857612be7612b91565b5b80604052505050565b6000612bfb6128db565b9050612c078282612bc0565b919050565b600067ffffffffffffffff821115612c2757612c26612b91565b5b612c30826129f0565b9050602081019050919050565b82818337600083830152505050565b6000612c5f612c5a84612c0c565b612bf1565b905082815260208101848484011115612c7b57612c7a612b8c565b5b612c86848285612c3d565b509392505050565b600082601f830112612ca357612ca2612b87565b5b8135612cb3848260208601612c4c565b91505092915050565b60008060008060808587031215612cd657612cd56128e5565b5b6000612ce487828801612b32565b9450506020612cf587828801612b32565b9350506040612d0687828801612a7d565b925050606085013567ffffffffffffffff811115612d2757612d266128ea565b5b612d3387828801612c8e565b91505092959194509250565b612d48816128ef565b82525050565b6000602082019050612d636000830184612d3f565b92915050565b600080600060608486031215612d8257612d816128e5565b5b6000612d9086828701612b32565b9350506020612da186828701612b32565b9250506040612db286828701612a7d565b9150509250925092565b60008060408385031215612dd357612dd26128e5565b5b6000612de185828601612a7d565b9250506020612df285828601612b32565b9150509250929050565b600081519050919050565b600082825260208201905092915050565b6000819050602082019050919050565b612e3181612a5c565b82525050565b6000612e438383612e28565b60208301905092915050565b6000602082019050919050565b6000612e6782612dfc565b612e718185612e07565b9350612e7c83612e18565b8060005b83811015612ead578151612e948882612e37565b9750612e9f83612e4f565b925050600181019050612e80565b5085935050505092915050565b60006020820190508181036000830152612ed48184612e5c565b905092915050565b600067ffffffffffffffff821115612ef757612ef6612b91565b5b602082029050602081019050919050565b600080fd5b6000612f20612f1b84612edc565b612bf1565b90508083825260208201905060208402830185811115612f4357612f42612f08565b5b835b81811015612f6c5780612f588882612a7d565b845260208401935050602081019050612f45565b5050509392505050565b600082601f830112612f8b57612f8a612b87565b5b8135612f9b848260208601612f0d565b91505092915050565b60008060008060008060c08789031215612fc157612fc06128e5565b5b6000612fcf89828a01612a7d565b9650506020612fe089828a01612b32565b9550506040612ff189828a01612b32565b945050606087013567ffffffffffffffff811115613012576130116128ea565b5b61301e89828a01612f76565b935050608087013567ffffffffffffffff81111561303f5761303e6128ea565b5b61304b89828a01612f76565b92505060a087013567ffffffffffffffff81111561306c5761306b6128ea565b5b61307889828a01612c8e565b9150509295509295509295565b60008060008060008060c087890312156130a2576130a16128e5565b5b60006130b089828a01612a7d565b96505060206130c189828a01612b32565b95505060406130d289828a01612b32565b94505060606130e389828a01612a7d565b93505060806130f489828a01612a7d565b92505060a087013567ffffffffffffffff811115613115576131146128ea565b5b61312189828a01612c8e565b9150509295509295509295565b600080600060608486031215613147576131466128e5565b5b600061315586828701612a7d565b935050602061316686828701612b32565b925050604061317786828701612a7d565b9150509250925092565b61318a81612a5c565b82525050565b60006020820190506131a56000830184613181565b92915050565b6000602082840312156131c1576131c06128e5565b5b60006131cf84828501612b32565b91505092915050565b600081519050919050565b600082825260208201905092915050565b6000819050602082019050919050565b61320d81612adf565b82525050565b600061321f8383613204565b60208301905092915050565b6000602082019050919050565b6000613243826131d8565b61324d81856131e3565b9350613258836131f4565b8060005b838110156132895781516132708882613213565b975061327b8361322b565b92505060018101905061325c565b5085935050505092915050565b600060208201905081810360008301526132b08184613238565b905092915050565b6132c181612974565b81146132cc57600080fd5b50565b6000813590506132de816132b8565b92915050565b600080604083850312156132fb576132fa6128e5565b5b600061330985828601612b32565b925050602061331a858286016132cf565b9150509250929050565b600080600080600060a086880312156133405761333f6128e5565b5b600061334e88828901612b32565b955050602061335f88828901612b32565b945050604086013567ffffffffffffffff8111156133805761337f6128ea565b5b61338c88828901612f76565b935050606086013567ffffffffffffffff8111156133ad576133ac6128ea565b5b6133b988828901612f76565b925050608086013567ffffffffffffffff8111156133da576133d96128ea565b5b6133e688828901612c8e565b9150509295509295909350565b6000806040838503121561340a576134096128e5565b5b600061341885828601612b32565b925050602061342985828601612b32565b9150509250929050565b600080600080600060a0868803121561344f5761344e6128e5565b5b600061345d88828901612b32565b955050602061346e88828901612b32565b945050604061347f88828901612a7d565b935050606061349088828901612a7d565b925050608086013567ffffffffffffffff8111156134b1576134b06128ea565b5b6134bd88828901612c8e565b9150509295509295909350565b7f4e487b7100000000000000000000000000000000000000000000000000000000600052602260045260246000fd5b6000600282049050600182168061351157607f821691505b602082108103613524576135236134ca565b5b50919050565b7f4552433732313a20617070726f76616c20746f2063757272656e74206f776e6560008201527f7200000000000000000000000000000000000000000000000000000000000000602082015250565b60006135866021836129b5565b91506135918261352a565b604082019050919050565b600060208201905081810360008301526135b581613579565b9050919050565b7f4552433732313a20617070726f76652063616c6c6572206973206e6f7420746f60008201527f6b656e206f776e6572206e6f7220617070726f76656420666f7220616c6c0000602082015250565b6000613618603e836129b5565b9150613623826135bc565b604082019050919050565b600060208201905081810360008301526136478161360b565b9050919050565b7f4552433732313a2063616c6c6572206973206e6f7420746f6b656e206f776e6560008201527f72206e6f7220617070726f766564000000000000000000000000000000000000602082015250565b60006136aa602e836129b5565b91506136b58261364e565b604082019050919050565b600060208201905081810360008301526136d98161369d565b9050919050565b7f4e487b7100000000000000000000000000000000000000000000000000000000600052603260045260246000fd5b7f4e487b7100000000000000000000000000000000000000000000000000000000600052601160045260246000fd5b600061374982612a5c565b91507fffffffffffffffffffffffffffffffffffffffffffffffffffffffffffffffff820361377b5761377a61370f565b5b600182019050919050565b7f4552433939383a2069647320616e6420616d6f756e7473206c656e677468206d60008201527f69736d6174636800000000000000000000000000000000000000000000000000602082015250565b60006137e26027836129b5565b91506137ed82613786565b604082019050919050565b60006020820190508181036000830152613811816137d5565b9050919050565b7f4552433939383a207472616e7366657220746f20746865207a65726f2061646460008201527f7265737300000000000000000000000000000000000000000000000000000000602082015250565b60006138746024836129b5565b915061387f82613818565b604082019050919050565b600060208201905081810360008301526138a381613867565b9050919050565b7f4552433939383a2063616c6c6572206973206e6f74206f776e6572206e6f722060008201527f617070726f766564000000000000000000000000000000000000000000000000602082015250565b60006139066028836129b5565b9150613911826138aa565b604082019050919050565b60006020820190508181036000830152613935816138f9565b9050919050565b600081519050919050565b600082825260208201905092915050565b60006139638261393c565b61396d8185613947565b935061397d8185602086016129c6565b613986816129f0565b840191505092915050565b600060a0820190506139a66000830188612af1565b6139b36020830187612af1565b81810360408301526139c58186612e5c565b905081810360608301526139d98185612e5c565b905081810360808301526139ed8184613958565b90509695505050505050565b60006040820190508181036000830152613a138185612e5c565b90508181036020830152613a278184612e5c565b90509392505050565b600060a082019050613a456000830188612af1565b613a526020830187612af1565b613a5f6040830186613181565b613a6c6060830185613181565b8181036080830152613a7e8184613958565b90509695505050505050565b6000604082019050613a9f6000830185613181565b613aac6020830184613181565b9392505050565b7f4552433732313a20696e76616c696420746f6b656e2049440000000000000000600082015250565b6000613ae96018836129b5565b9150613af482613ab3565b602082019050919050565b60006020820190508181036000830152613b1881613adc565b9050919050565b7f4552433732313a2061646472657373207a65726f206973206e6f74206120766160008201527f6c6964206f776e65720000000000000000000000000000000000000000000000602082015250565b6000613b7b6029836129b5565b9150613b8682613b1f565b604082019050919050565b60006020820190508181036000830152613baa81613b6e565b9050919050565b7f4552433939383a2064617461206d75737420636f6e7461696e2074686520756e60008201527f697175652075696e7432353620746f6b656e496420746f207472616e7366657260208201527f20746865206368696c6420746f6b656e20746f00000000000000000000000000604082015250565b6000613c336053836129b5565b9150613c3e82613bb1565b606082019050919050565b60006020820190508181036000830152613c6281613c26565b9050919050565b7f455243313135353a2069647320616e642076616c756573206c656e677468206d60008201527f69736d6174636800000000000000000000000000000000000000000000000000602082015250565b6000613cc56027836129b5565b9150613cd082613c69565b604082019050919050565b60006020820190508181036000830152613cf481613cb8565b9050919050565b6000613d0682612a5c565b9150613d1183612a5c565b9250828203905081811115613d2957613d2861370f565b5b92915050565b600081905092915050565b6000613d45826129aa565b613d4f8185613d2f565b9350613d5f8185602086016129c6565b80840191505092915050565b6000613d778285613d3a565b9150613d838284613d3a565b91508190509392505050565b7f4552433732313a207472616e736665722066726f6d20696e636f72726563742060008201527f6f776e6572000000000000000000000000000000000000000000000000000000602082015250565b6000613deb6025836129b5565b9150613df682613d8f565b604082019050919050565b60006020820190508181036000830152613e1a81613dde565b9050919050565b7f4552433732313a207472616e7366657220746f20746865207a65726f2061646460008201527f7265737300000000000000000000000000000000000000000000000000000000602082015250565b6000613e7d6024836129b5565b9150613e8882613e21565b604082019050919050565b60006020820190508181036000830152613eac81613e70565b9050919050565b6000613ebe82612a5c565b9150613ec983612a5c565b9250828201905080821115613ee157613ee061370f565b5b92915050565b7f4552433939383a20696e73756666696369656e74206368696c642062616c616e60008201527f636520666f72207472616e736665720000000000000000000000000000000000602082015250565b6000613f43602f836129b5565b9150613f4e82613ee7565b604082019050919050565b60006020820190508181036000830152613f7281613f36565b9050919050565b7f4552433732313a20617070726f766520746f2063616c6c657200000000000000600082015250565b6000613faf6019836129b5565b9150613fba82613f79565b602082019050919050565b60006020820190508181036000830152613fde81613fa2565b9050919050565b7f4552433732313a207472616e7366657220746f206e6f6e20455243373231526560008201527f63656976657220696d706c656d656e7465720000000000000000000000000000602082015250565b60006140416032836129b5565b915061404c82613fe5565b604082019050919050565b6000602082019050818103600083015261407081614034565b9050919050565b7f4e487b7100000000000000000000000000000000000000000000000000000000600052601260045260246000fd5b60006140b182612a5c565b91506140bc83612a5c565b9250826140cc576140cb614077565b5b828204905092915050565b60006140e282612a5c565b91506140ed83612a5c565b9250826140fd576140fc614077565b5b828206905092915050565b600060808201905061411d6000830187612af1565b61412a6020830186612af1565b6141376040830185613181565b81810360608301526141498184613958565b905095945050505050565b6000815190506141638161291b565b92915050565b60006020828403121561417f5761417e6128e5565b5b600061418d84828501614154565b91505092915050565b7f4e487b7100000000000000000000000000000000000000000000000000000000600052603160045260246000fdfea26469706673582212206e4a9d2e17c44f04abfd49d6ba2f9c8072f8a1a9b92bb4b4ba9f8d262bc8327f64736f6c63430008110033",
  "immutableReferences": {},
  "source": "// SPDX-License-Identifier: UNLICENSED\r\n\r\npragma solidity ^0.8.0;\r\n\r\n/*\r\n// for remix\r\nimport \"https://github.com/OpenZeppelin/openzeppelin-contracts/blob/master/contracts/token/ERC1155/ERC1155.sol\";\r\nimport \"https://github.com/OpenZeppelin/openzeppelin-contracts/blob/master/contracts/token/ERC1155/ERC1155Receiver.sol\";\r\nimport \"https://github.com/OpenZeppelin/openzeppelin-contracts/blob/master/contracts/token/ERC721/ERC721.sol\";\r\nimport \"https://github.com/OpenZeppelin/openzeppelin-contracts/blob/master/contracts/utils/EnumerableSet.sol\";\r\n*/\r\n\r\nimport \"@openzeppelin/contracts/token/ERC1155/ERC1155.sol\";\r\nimport \"@openzeppelin/contracts/token/ERC1155/IERC1155Receiver.sol\";\r\nimport \"@openzeppelin/contracts/token/ERC721/ERC721.sol\";\r\nimport \"@openzeppelin/contracts/token/ERC721/IERC721Receiver.sol\";\r\nimport \"@openzeppelin/contracts/utils/structs/EnumerableSet.sol\";\r\n\r\nimport \"./IERC998ERC1155TopDown.sol\";\r\n\r\ncontract ERC998ERC1155TopDown is ERC721, IERC1155Receiver, IERC998ERC1155TopDown, IERC721Receiver {\r\n    using EnumerableSet for EnumerableSet.AddressSet;\r\n    using EnumerableSet for EnumerableSet.UintSet;\r\n\r\n    mapping(uint256 => mapping(address => mapping(uint256 => uint256))) public _balances;\r\n    mapping(address => mapping(uint256 => EnumerableSet.UintSet)) private _holdersOf;\r\n\r\n    mapping(uint256 => EnumerableSet.AddressSet) private _childContract;\r\n    mapping(uint256 => mapping(address => EnumerableSet.UintSet)) private _childsForChildContract;\r\n\r\n    constructor(string memory name, string memory symbol, string memory baseURI) ERC721(name, symbol) public {\r\n        _baseURI();\r\n    }\r\n\r\n    /**\r\n     * @dev Gives child balance for a specific child contract and child id .\r\n     */\r\n    function childBalance(uint256 tokenId, address childContract, uint256 childTokenId) external view override returns(uint256) {\r\n        return _balances[tokenId][childContract][childTokenId];\r\n    }\r\n\r\n    /**\r\n     * @dev Gives list of child contract where token ID has childs.\r\n     */\r\n    function childContractsFor(uint256 tokenId) override external view returns (address[] memory) {\r\n        address[] memory childContracts = new address[](_childContract[tokenId].length());\r\n\r\n        for(uint256 i = 0; i < _childContract[tokenId].length(); i++) {\r\n            childContracts[i] = _childContract[tokenId].at(i);\r\n        }\r\n\r\n        return childContracts;\r\n    }\r\n\r\n    /**\r\n     * @dev Gives list of owned child ID on a child contract by token ID.\r\n     */\r\n    function childIdsForOn(uint256 tokenId, address childContract) override external view returns (uint256[] memory) {\r\n        uint256[] memory childTokenIds = new uint256[](_childsForChildContract[tokenId][childContract].length());\r\n\r\n        for(uint256 i = 0; i < _childsForChildContract[tokenId][childContract].length(); i++) {\r\n            childTokenIds[i] = _childsForChildContract[tokenId][childContract].at(i);\r\n        }\r\n\r\n        return childTokenIds;\r\n    }\r\n\r\n    /**\r\n     * @dev Transfers child token from a token ID.\r\n     */\r\n    function safeTransferChildFrom(uint256 fromTokenId, address to, address childContract, uint256 childTokenId, uint256 amount, bytes memory data) public override {\r\n        require(to != address(0), \"ERC998: transfer to the zero address\");\r\n\r\n        address operator = _msgSender();\r\n        require(\r\n            ownerOf(fromTokenId) == operator ||\r\n            isApprovedForAll(ownerOf(fromTokenId), operator),\r\n            \"ERC998: caller is not owner nor approved\"\r\n        );\r\n\r\n        _beforeChildTransfer(operator, fromTokenId, to, childContract, _asSingletonArray(childTokenId), _asSingletonArray(amount), data);\r\n\r\n        _removeChild(fromTokenId, childContract, childTokenId, amount);\r\n\r\n        // TODO: maybe check if to == this\r\n        ERC1155(childContract).safeTransferFrom(address(this), to, childTokenId, amount, data);\r\n        emit TransferSingleChild(fromTokenId, to, childContract, childTokenId, amount);\r\n    }\r\n\r\n    function getOwner(uint256 tokenID) external view returns(address){\r\n        return ownerOf(tokenID);\r\n    }\r\n\r\n    function getMsgSender() external view returns(address){\r\n        return _msgSender();\r\n    }\r\n\r\n\r\n\r\n    /**\r\n     * @dev Transfers batch of child tokens from a token ID.\r\n     */\r\n    function safeBatchTransferChildFrom(uint256 fromTokenId, address to, address childContract, uint256[] memory childTokenIds, uint256[] memory amounts, bytes memory data) public override {\r\n        require(childTokenIds.length == amounts.length, \"ERC998: ids and amounts length mismatch\");\r\n        require(to != address(0), \"ERC998: transfer to the zero address\");\r\n\r\n        address operator = _msgSender();\r\n        require(\r\n            ownerOf(fromTokenId) == operator ||\r\n            isApprovedForAll(ownerOf(fromTokenId), operator),\r\n            \"ERC998: caller is not owner nor approved\"\r\n        );\r\n\r\n        _beforeChildTransfer(operator, fromTokenId, to, childContract, childTokenIds, amounts, data);\r\n\r\n        for (uint256 i = 0; i < childTokenIds.length; ++i) {\r\n            uint256 childTokenId = childTokenIds[i];\r\n            uint256 amount = amounts[i];\r\n\r\n            _removeChild(fromTokenId, childContract, childTokenId, amount);\r\n        }\r\n        ERC1155(childContract).safeBatchTransferFrom(address(this), to, childTokenIds, amounts, data);\r\n        emit TransferBatchChild(fromTokenId, to, childContract, childTokenIds, amounts);\r\n    }\r\n\r\n    /**\r\n     * @dev Receives a child token, the receiver token ID must be encoded in the\r\n     * field data.\r\n     */\r\n    function onERC1155Received(address operator, address from, uint256 id, uint256 amount, bytes memory data) virtual public override returns(bytes4) {\r\n        require(data.length == 32, \"ERC998: data must contain the unique uint256 tokenId to transfer the child token to\");\r\n        _beforeChildTransfer(operator, 0, address(this), from, _asSingletonArray(id), _asSingletonArray(amount), data);\r\n\r\n        uint256 _receiverTokenId;\r\n        uint256 _index = msg.data.length - 32;\r\n        assembly {_receiverTokenId := calldataload(_index)}\r\n\r\n        _receiveChild(_receiverTokenId, msg.sender, id, amount);\r\n        emit ReceivedChild(from, _receiverTokenId, msg.sender, id, amount);\r\n\r\n        return this.onERC1155Received.selector;\r\n    }\r\n\r\n    /**\r\n     * @dev Receives a child token, the receiver token ID must be encoded in the\r\n     * field data.\r\n     */\r\n    function onERC721Received(address operator, address from, uint256 tokenId, bytes memory data) virtual public override returns(bytes4) {\r\n        // require(data.length == 32, \"ERC998: data must contain the unique uint256 tokenId to transfer the child token to\");\r\n\r\n        // uint256 _receiverTokenId;\r\n        // uint256 _index = msg.data.length;\r\n        // assembly {_receiverTokenId := calldataload(_index)}\r\n\r\n        // _receiveChild(_receiverTokenId, msg.sender, tokenId, 1);\r\n        // emit ReceivedChild(from, _receiverTokenId, msg.sender, tokenId, 1);\r\n\r\n        return this.onERC721Received.selector;\r\n    }\r\n\r\n    /**\r\n     * @dev Receives a batch of child tokens, the receiver token ID must be\r\n     * encoded in the field data.\r\n     */\r\n    function onERC1155BatchReceived(address operator, address from, uint256[] memory ids, uint256[] memory values, bytes memory data) virtual public override returns(bytes4) {\r\n        require(data.length == 32, \"ERC998: data must contain the unique uint256 tokenId to transfer the child token to\");\r\n        require(ids.length == values.length, \"ERC1155: ids and values length mismatch\");\r\n        _beforeChildTransfer(operator, 0, address(this), from, ids, values, data);\r\n\r\n        uint256 _receiverTokenId;\r\n        uint256 _index = msg.data.length - 32;\r\n        assembly {_receiverTokenId := calldataload(_index)}\r\n        for(uint256 i = 0; i < ids.length; i++) {\r\n            _receiveChild(_receiverTokenId, msg.sender, ids[i], values[i]);\r\n            emit ReceivedChild(from, _receiverTokenId, msg.sender, ids[i], values[i]);\r\n        }\r\n        return this.onERC1155BatchReceived.selector;\r\n    }\r\n\r\n    function _receiveChild(uint256 tokenId, address childContract, uint256 childTokenId, uint256 amount) internal virtual {\r\n        if(!_childContract[tokenId].contains(childContract)) {\r\n            _childContract[tokenId].add(childContract);\r\n        }\r\n        if(_balances[tokenId][childContract][childTokenId] == 0) {\r\n            _childsForChildContract[tokenId][childContract].add(childTokenId);\r\n        }\r\n        _balances[tokenId][childContract][childTokenId] += amount;\r\n    }\r\n\r\n    function _removeChild(uint256 tokenId, address childContract, uint256 childTokenId, uint256 amount) internal virtual {\r\n        require(amount != 0 || _balances[tokenId][childContract][childTokenId] >= amount, \"ERC998: insufficient child balance for transfer\");\r\n        _balances[tokenId][childContract][childTokenId] -= amount;\r\n        if(_balances[tokenId][childContract][childTokenId] == 0) {\r\n            _holdersOf[childContract][childTokenId].remove(tokenId);\r\n            _childsForChildContract[tokenId][childContract].remove(childTokenId);\r\n            if(_childsForChildContract[tokenId][childContract].length() == 0) {\r\n                _childContract[tokenId].remove(childContract);\r\n            }\r\n        }\r\n    }\r\n\r\n    function _beforeChildTransfer(\r\n        address operator,\r\n        uint256 fromTokenId,\r\n        address to,\r\n        address childContract,\r\n        uint256[] memory ids,\r\n        uint256[] memory amounts,\r\n        bytes memory data\r\n    )\r\n        internal virtual\r\n    { }\r\n\r\n    function _asSingletonArray(uint256 element) private pure returns (uint256[] memory) {\r\n        uint256[] memory array = new uint256[](1);\r\n        array[0] = element;\r\n\r\n        return array;\r\n    }\r\n}\r\n",
  "sourcePath": "C:\\Users\\prami\\Documents\\Thesis\\supp_chain\\truffle\\contracts\\ERC998ERC1155TopDown.sol",
  "compiler": {
    "name": "solc",
    "version": "0.8.17+commit.8df45f5f.Emscripten.clang"
  },
  "schemaVersion": "3.4.10",
  "updatedAt": "2022-10-16T10:44:17.647Z",
  "networkType": "ethereum",
  "devdoc": {
    "kind": "dev",
    "methods": {
      "approve(address,uint256)": {
        "details": "See {IERC721-approve}."
      },
      "balanceOf(address)": {
        "details": "See {IERC721-balanceOf}."
      },
      "childBalance(uint256,address,uint256)": {
        "details": "Gives child balance for a specific child contract and child id ."
      },
      "childContractsFor(uint256)": {
        "details": "Gives list of child contract where token ID has childs."
      },
      "childIdsForOn(uint256,address)": {
        "details": "Gives list of owned child ID on a child contract by token ID."
      },
      "getApproved(uint256)": {
        "details": "See {IERC721-getApproved}."
      },
      "isApprovedForAll(address,address)": {
        "details": "See {IERC721-isApprovedForAll}."
      },
      "name()": {
        "details": "See {IERC721Metadata-name}."
      },
      "onERC1155BatchReceived(address,address,uint256[],uint256[],bytes)": {
        "details": "Receives a batch of child tokens, the receiver token ID must be encoded in the field data."
      },
      "onERC1155Received(address,address,uint256,uint256,bytes)": {
        "details": "Receives a child token, the receiver token ID must be encoded in the field data."
      },
      "onERC721Received(address,address,uint256,bytes)": {
        "details": "Receives a child token, the receiver token ID must be encoded in the field data."
      },
      "ownerOf(uint256)": {
        "details": "See {IERC721-ownerOf}."
      },
      "safeBatchTransferChildFrom(uint256,address,address,uint256[],uint256[],bytes)": {
        "details": "Transfers batch of child tokens from a token ID."
      },
      "safeTransferChildFrom(uint256,address,address,uint256,uint256,bytes)": {
        "details": "Transfers child token from a token ID."
      },
      "safeTransferFrom(address,address,uint256)": {
        "details": "See {IERC721-safeTransferFrom}."
      },
      "safeTransferFrom(address,address,uint256,bytes)": {
        "details": "See {IERC721-safeTransferFrom}."
      },
      "setApprovalForAll(address,bool)": {
        "details": "See {IERC721-setApprovalForAll}."
      },
      "supportsInterface(bytes4)": {
        "details": "See {IERC165-supportsInterface}."
      },
      "symbol()": {
        "details": "See {IERC721Metadata-symbol}."
      },
      "tokenURI(uint256)": {
        "details": "See {IERC721Metadata-tokenURI}."
      },
      "transferFrom(address,address,uint256)": {
        "details": "See {IERC721-transferFrom}."
      }
    },
    "version": 1
  },
  "userdoc": {
    "kind": "user",
    "methods": {},
    "version": 1
  }
}