{
  "contractName": "ERC998ERC1155TopDownPresetMinterPauser",
  "abi": [
    {
      "inputs": [
        {
          "internalType": "string",
          "name": "name",
          "type": "string"
        },
        {
          "internalType": "string",
          "name": "symbol",
          "type": "string"
        },
        {
          "internalType": "string",
          "name": "baseURI",
          "type": "string"
        }
      ],
      "stateMutability": "nonpayable",
      "type": "constructor"
    },
    {
      "anonymous": false,
      "inputs": [
        {
          "indexed": true,
          "internalType": "address",
          "name": "owner",
          "type": "address"
        },
        {
          "indexed": true,
          "internalType": "address",
          "name": "approved",
          "type": "address"
        },
        {
          "indexed": true,
          "internalType": "uint256",
          "name": "tokenId",
          "type": "uint256"
        }
      ],
      "name": "Approval",
      "type": "event"
    },
    {
      "anonymous": false,
      "inputs": [
        {
          "indexed": true,
          "internalType": "address",
          "name": "owner",
          "type": "address"
        },
        {
          "indexed": true,
          "internalType": "address",
          "name": "operator",
          "type": "address"
        },
        {
          "indexed": false,
          "internalType": "bool",
          "name": "approved",
          "type": "bool"
        }
      ],
      "name": "ApprovalForAll",
      "type": "event"
    },
    {
      "anonymous": false,
      "inputs": [
        {
          "indexed": false,
          "internalType": "address",
          "name": "account",
          "type": "address"
        }
      ],
      "name": "Paused",
      "type": "event"
    },
    {
      "anonymous": false,
      "inputs": [
        {
          "indexed": true,
          "internalType": "address",
          "name": "from",
          "type": "address"
        },
        {
          "indexed": true,
          "internalType": "uint256",
          "name": "toTokenId",
          "type": "uint256"
        },
        {
          "indexed": true,
          "internalType": "address",
          "name": "childContract",
          "type": "address"
        },
        {
          "indexed": false,
          "internalType": "uint256",
          "name": "childTokenId",
          "type": "uint256"
        },
        {
          "indexed": false,
          "internalType": "uint256",
          "name": "amount",
          "type": "uint256"
        }
      ],
      "name": "ReceivedChild",
      "type": "event"
    },
    {
      "anonymous": false,
      "inputs": [
        {
          "indexed": true,
          "internalType": "bytes32",
          "name": "role",
          "type": "bytes32"
        },
        {
          "indexed": true,
          "internalType": "bytes32",
          "name": "previousAdminRole",
          "type": "bytes32"
        },
        {
          "indexed": true,
          "internalType": "bytes32",
          "name": "newAdminRole",
          "type": "bytes32"
        }
      ],
      "name": "RoleAdminChanged",
      "type": "event"
    },
    {
      "anonymous": false,
      "inputs": [
        {
          "indexed": true,
          "internalType": "bytes32",
          "name": "role",
          "type": "bytes32"
        },
        {
          "indexed": true,
          "internalType": "address",
          "name": "account",
          "type": "address"
        },
        {
          "indexed": true,
          "internalType": "address",
          "name": "sender",
          "type": "address"
        }
      ],
      "name": "RoleGranted",
      "type": "event"
    },
    {
      "anonymous": false,
      "inputs": [
        {
          "indexed": true,
          "internalType": "bytes32",
          "name": "role",
          "type": "bytes32"
        },
        {
          "indexed": true,
          "internalType": "address",
          "name": "account",
          "type": "address"
        },
        {
          "indexed": true,
          "internalType": "address",
          "name": "sender",
          "type": "address"
        }
      ],
      "name": "RoleRevoked",
      "type": "event"
    },
    {
      "anonymous": false,
      "inputs": [
        {
          "indexed": true,
          "internalType": "address",
          "name": "from",
          "type": "address"
        },
        {
          "indexed": true,
          "internalType": "address",
          "name": "to",
          "type": "address"
        },
        {
          "indexed": true,
          "internalType": "uint256",
          "name": "tokenId",
          "type": "uint256"
        }
      ],
      "name": "Transfer",
      "type": "event"
    },
    {
      "anonymous": false,
      "inputs": [
        {
          "indexed": true,
          "internalType": "uint256",
          "name": "fromTokenId",
          "type": "uint256"
        },
        {
          "indexed": true,
          "internalType": "address",
          "name": "to",
          "type": "address"
        },
        {
          "indexed": true,
          "internalType": "address",
          "name": "childContract",
          "type": "address"
        },
        {
          "indexed": false,
          "internalType": "uint256[]",
          "name": "childTokenIds",
          "type": "uint256[]"
        },
        {
          "indexed": false,
          "internalType": "uint256[]",
          "name": "amounts",
          "type": "uint256[]"
        }
      ],
      "name": "TransferBatchChild",
      "type": "event"
    },
    {
      "anonymous": false,
      "inputs": [
        {
          "indexed": true,
          "internalType": "uint256",
          "name": "fromTokenId",
          "type": "uint256"
        },
        {
          "indexed": true,
          "internalType": "address",
          "name": "to",
          "type": "address"
        },
        {
          "indexed": true,
          "internalType": "address",
          "name": "childContract",
          "type": "address"
        },
        {
          "indexed": false,
          "internalType": "uint256",
          "name": "childTokenId",
          "type": "uint256"
        },
        {
          "indexed": false,
          "internalType": "uint256",
          "name": "amount",
          "type": "uint256"
        }
      ],
      "name": "TransferSingleChild",
      "type": "event"
    },
    {
      "anonymous": false,
      "inputs": [
        {
          "indexed": false,
          "internalType": "address",
          "name": "account",
          "type": "address"
        }
      ],
      "name": "Unpaused",
      "type": "event"
    },
    {
      "inputs": [],
      "name": "DEFAULT_ADMIN_ROLE",
      "outputs": [
        {
          "internalType": "bytes32",
          "name": "",
          "type": "bytes32"
        }
      ],
      "stateMutability": "view",
      "type": "function",
      "constant": true
    },
    {
      "inputs": [],
      "name": "MINTER_ROLE",
      "outputs": [
        {
          "internalType": "bytes32",
          "name": "",
          "type": "bytes32"
        }
      ],
      "stateMutability": "view",
      "type": "function",
      "constant": true
    },
    {
      "inputs": [],
      "name": "PAUSER_ROLE",
      "outputs": [
        {
          "internalType": "bytes32",
          "name": "",
          "type": "bytes32"
        }
      ],
      "stateMutability": "view",
      "type": "function",
      "constant": true
    },
    {
      "inputs": [
        {
          "internalType": "uint256",
          "name": "",
          "type": "uint256"
        },
        {
          "internalType": "address",
          "name": "",
          "type": "address"
        },
        {
          "internalType": "uint256",
          "name": "",
          "type": "uint256"
        }
      ],
      "name": "_balances",
      "outputs": [
        {
          "internalType": "uint256",
          "name": "",
          "type": "uint256"
        }
      ],
      "stateMutability": "view",
      "type": "function",
      "constant": true
    },
    {
      "inputs": [
        {
          "internalType": "address",
          "name": "to",
          "type": "address"
        },
        {
          "internalType": "uint256",
          "name": "tokenId",
          "type": "uint256"
        }
      ],
      "name": "approve",
      "outputs": [],
      "stateMutability": "nonpayable",
      "type": "function"
    },
    {
      "inputs": [
        {
          "internalType": "address",
          "name": "owner",
          "type": "address"
        }
      ],
      "name": "balanceOf",
      "outputs": [
        {
          "internalType": "uint256",
          "name": "",
          "type": "uint256"
        }
      ],
      "stateMutability": "view",
      "type": "function",
      "constant": true
    },
    {
      "inputs": [
        {
          "internalType": "uint256",
          "name": "tokenId",
          "type": "uint256"
        },
        {
          "internalType": "address",
          "name": "childContract",
          "type": "address"
        },
        {
          "internalType": "uint256",
          "name": "childTokenId",
          "type": "uint256"
        }
      ],
      "name": "childBalance",
      "outputs": [
        {
          "internalType": "uint256",
          "name": "",
          "type": "uint256"
        }
      ],
      "stateMutability": "view",
      "type": "function",
      "constant": true
    },
    {
      "inputs": [
        {
          "internalType": "uint256",
          "name": "tokenId",
          "type": "uint256"
        }
      ],
      "name": "childContractsFor",
      "outputs": [
        {
          "internalType": "address[]",
          "name": "",
          "type": "address[]"
        }
      ],
      "stateMutability": "view",
      "type": "function",
      "constant": true
    },
    {
      "inputs": [
        {
          "internalType": "uint256",
          "name": "tokenId",
          "type": "uint256"
        },
        {
          "internalType": "address",
          "name": "childContract",
          "type": "address"
        }
      ],
      "name": "childIdsForOn",
      "outputs": [
        {
          "internalType": "uint256[]",
          "name": "",
          "type": "uint256[]"
        }
      ],
      "stateMutability": "view",
      "type": "function",
      "constant": true
    },
    {
      "inputs": [
        {
          "internalType": "uint256",
          "name": "tokenId",
          "type": "uint256"
        }
      ],
      "name": "getApproved",
      "outputs": [
        {
          "internalType": "address",
          "name": "",
          "type": "address"
        }
      ],
      "stateMutability": "view",
      "type": "function",
      "constant": true
    },
    {
      "inputs": [
        {
          "internalType": "bytes32",
          "name": "role",
          "type": "bytes32"
        }
      ],
      "name": "getRoleAdmin",
      "outputs": [
        {
          "internalType": "bytes32",
          "name": "",
          "type": "bytes32"
        }
      ],
      "stateMutability": "view",
      "type": "function",
      "constant": true
    },
    {
      "inputs": [
        {
          "internalType": "bytes32",
          "name": "role",
          "type": "bytes32"
        },
        {
          "internalType": "address",
          "name": "account",
          "type": "address"
        }
      ],
      "name": "grantRole",
      "outputs": [],
      "stateMutability": "nonpayable",
      "type": "function"
    },
    {
      "inputs": [
        {
          "internalType": "bytes32",
          "name": "role",
          "type": "bytes32"
        },
        {
          "internalType": "address",
          "name": "account",
          "type": "address"
        }
      ],
      "name": "hasRole",
      "outputs": [
        {
          "internalType": "bool",
          "name": "",
          "type": "bool"
        }
      ],
      "stateMutability": "view",
      "type": "function",
      "constant": true
    },
    {
      "inputs": [
        {
          "internalType": "address",
          "name": "owner",
          "type": "address"
        },
        {
          "internalType": "address",
          "name": "operator",
          "type": "address"
        }
      ],
      "name": "isApprovedForAll",
      "outputs": [
        {
          "internalType": "bool",
          "name": "",
          "type": "bool"
        }
      ],
      "stateMutability": "view",
      "type": "function",
      "constant": true
    },
    {
      "inputs": [],
      "name": "name",
      "outputs": [
        {
          "internalType": "string",
          "name": "",
          "type": "string"
        }
      ],
      "stateMutability": "view",
      "type": "function",
      "constant": true
    },
    {
      "inputs": [
        {
          "internalType": "address",
          "name": "operator",
          "type": "address"
        },
        {
          "internalType": "address",
          "name": "from",
          "type": "address"
        },
        {
          "internalType": "uint256[]",
          "name": "ids",
          "type": "uint256[]"
        },
        {
          "internalType": "uint256[]",
          "name": "values",
          "type": "uint256[]"
        },
        {
          "internalType": "bytes",
          "name": "data",
          "type": "bytes"
        }
      ],
      "name": "onERC1155BatchReceived",
      "outputs": [
        {
          "internalType": "bytes4",
          "name": "",
          "type": "bytes4"
        }
      ],
      "stateMutability": "nonpayable",
      "type": "function"
    },
    {
      "inputs": [
        {
          "internalType": "address",
          "name": "operator",
          "type": "address"
        },
        {
          "internalType": "address",
          "name": "from",
          "type": "address"
        },
        {
          "internalType": "uint256",
          "name": "id",
          "type": "uint256"
        },
        {
          "internalType": "uint256",
          "name": "amount",
          "type": "uint256"
        },
        {
          "internalType": "bytes",
          "name": "data",
          "type": "bytes"
        }
      ],
      "name": "onERC1155Received",
      "outputs": [
        {
          "internalType": "bytes4",
          "name": "",
          "type": "bytes4"
        }
      ],
      "stateMutability": "nonpayable",
      "type": "function"
    },
    {
      "inputs": [
        {
          "internalType": "uint256",
          "name": "tokenId",
          "type": "uint256"
        }
      ],
      "name": "ownerOf",
      "outputs": [
        {
          "internalType": "address",
          "name": "",
          "type": "address"
        }
      ],
      "stateMutability": "view",
      "type": "function",
      "constant": true
    },
    {
      "inputs": [],
      "name": "paused",
      "outputs": [
        {
          "internalType": "bool",
          "name": "",
          "type": "bool"
        }
      ],
      "stateMutability": "view",
      "type": "function",
      "constant": true
    },
    {
      "inputs": [
        {
          "internalType": "bytes32",
          "name": "role",
          "type": "bytes32"
        },
        {
          "internalType": "address",
          "name": "account",
          "type": "address"
        }
      ],
      "name": "renounceRole",
      "outputs": [],
      "stateMutability": "nonpayable",
      "type": "function"
    },
    {
      "inputs": [
        {
          "internalType": "bytes32",
          "name": "role",
          "type": "bytes32"
        },
        {
          "internalType": "address",
          "name": "account",
          "type": "address"
        }
      ],
      "name": "revokeRole",
      "outputs": [],
      "stateMutability": "nonpayable",
      "type": "function"
    },
    {
      "inputs": [
        {
          "internalType": "uint256",
          "name": "fromTokenId",
          "type": "uint256"
        },
        {
          "internalType": "address",
          "name": "to",
          "type": "address"
        },
        {
          "internalType": "address",
          "name": "childContract",
          "type": "address"
        },
        {
          "internalType": "uint256[]",
          "name": "childTokenIds",
          "type": "uint256[]"
        },
        {
          "internalType": "uint256[]",
          "name": "amounts",
          "type": "uint256[]"
        },
        {
          "internalType": "bytes",
          "name": "data",
          "type": "bytes"
        }
      ],
      "name": "safeBatchTransferChildFrom",
      "outputs": [],
      "stateMutability": "nonpayable",
      "type": "function"
    },
    {
      "inputs": [
        {
          "internalType": "uint256",
          "name": "fromTokenId",
          "type": "uint256"
        },
        {
          "internalType": "address",
          "name": "to",
          "type": "address"
        },
        {
          "internalType": "address",
          "name": "childContract",
          "type": "address"
        },
        {
          "internalType": "uint256",
          "name": "childTokenId",
          "type": "uint256"
        },
        {
          "internalType": "uint256",
          "name": "amount",
          "type": "uint256"
        },
        {
          "internalType": "bytes",
          "name": "data",
          "type": "bytes"
        }
      ],
      "name": "safeTransferChildFrom",
      "outputs": [],
      "stateMutability": "nonpayable",
      "type": "function"
    },
    {
      "inputs": [
        {
          "internalType": "address",
          "name": "from",
          "type": "address"
        },
        {
          "internalType": "address",
          "name": "to",
          "type": "address"
        },
        {
          "internalType": "uint256",
          "name": "tokenId",
          "type": "uint256"
        }
      ],
      "name": "safeTransferFrom",
      "outputs": [],
      "stateMutability": "nonpayable",
      "type": "function"
    },
    {
      "inputs": [
        {
          "internalType": "address",
          "name": "from",
          "type": "address"
        },
        {
          "internalType": "address",
          "name": "to",
          "type": "address"
        },
        {
          "internalType": "uint256",
          "name": "tokenId",
          "type": "uint256"
        },
        {
          "internalType": "bytes",
          "name": "data",
          "type": "bytes"
        }
      ],
      "name": "safeTransferFrom",
      "outputs": [],
      "stateMutability": "nonpayable",
      "type": "function"
    },
    {
      "inputs": [
        {
          "internalType": "address",
          "name": "operator",
          "type": "address"
        },
        {
          "internalType": "bool",
          "name": "approved",
          "type": "bool"
        }
      ],
      "name": "setApprovalForAll",
      "outputs": [],
      "stateMutability": "nonpayable",
      "type": "function"
    },
    {
      "inputs": [],
      "name": "symbol",
      "outputs": [
        {
          "internalType": "string",
          "name": "",
          "type": "string"
        }
      ],
      "stateMutability": "view",
      "type": "function",
      "constant": true
    },
    {
      "inputs": [
        {
          "internalType": "uint256",
          "name": "tokenId",
          "type": "uint256"
        }
      ],
      "name": "tokenURI",
      "outputs": [
        {
          "internalType": "string",
          "name": "",
          "type": "string"
        }
      ],
      "stateMutability": "view",
      "type": "function",
      "constant": true
    },
    {
      "inputs": [
        {
          "internalType": "address",
          "name": "from",
          "type": "address"
        },
        {
          "internalType": "address",
          "name": "to",
          "type": "address"
        },
        {
          "internalType": "uint256",
          "name": "tokenId",
          "type": "uint256"
        }
      ],
      "name": "transferFrom",
      "outputs": [],
      "stateMutability": "nonpayable",
      "type": "function"
    },
    {
      "inputs": [
        {
          "internalType": "address",
          "name": "to",
          "type": "address"
        },
        {
          "internalType": "uint256",
          "name": "tokenId",
          "type": "uint256"
        }
      ],
      "name": "mint",
      "outputs": [],
      "stateMutability": "nonpayable",
      "type": "function"
    },
    {
      "inputs": [
        {
          "internalType": "uint256",
          "name": "tokenId",
          "type": "uint256"
        }
      ],
      "name": "burn",
      "outputs": [],
      "stateMutability": "nonpayable",
      "type": "function"
    },
    {
      "inputs": [],
      "name": "pause",
      "outputs": [],
      "stateMutability": "nonpayable",
      "type": "function"
    },
    {
      "inputs": [],
      "name": "unpause",
      "outputs": [],
      "stateMutability": "nonpayable",
      "type": "function"
    },
    {
      "inputs": [
        {
          "internalType": "bytes4",
          "name": "interfaceId",
          "type": "bytes4"
        }
      ],
      "name": "supportsInterface",
      "outputs": [
        {
          "internalType": "bool",
          "name": "",
          "type": "bool"
        }
      ],
      "stateMutability": "view",
      "type": "function",
      "constant": true
    }
  ],
  "bytecode": "0x60806040523480156200001157600080fd5b50604051620060c9380380620060c9833981810160405281019062000037919062000463565b828282828281600190816200004d919062000767565b5080600290816200005f919062000767565b505050620000726200014060201b60201c565b505050506000600b60006101000a81548160ff021916908315150217905550620000b56000801b620000a96200015760201b60201c565b6200015f60201b60201c565b620000f67f9f2df0fed2c77648de5860a4cc508cd0818c85b8b8a1ab4ceeef8d981c8956a6620000ea6200015760201b60201c565b6200015f60201b60201c565b620001377f65d7a28e3265b37a6474929f336521b332c1681b933f6cb9f3376673440d862a6200012b6200015760201b60201c565b6200015f60201b60201c565b5050506200084e565b606060405180602001604052806000815250905090565b600033905090565b6200017182826200017560201b60201c565b5050565b6200018782826200026660201b60201c565b6200026257600160008084815260200190815260200160002060000160008373ffffffffffffffffffffffffffffffffffffffff1673ffffffffffffffffffffffffffffffffffffffff16815260200190815260200160002060006101000a81548160ff021916908315150217905550620002076200015760201b60201c565b73ffffffffffffffffffffffffffffffffffffffff168173ffffffffffffffffffffffffffffffffffffffff16837f2f8788117e7eff1d82e926ec794901d17c78024a50270940304540a733656f0d60405160405180910390a45b5050565b600080600084815260200190815260200160002060000160008373ffffffffffffffffffffffffffffffffffffffff1673ffffffffffffffffffffffffffffffffffffffff16815260200190815260200160002060009054906101000a900460ff16905092915050565b6000604051905090565b600080fd5b600080fd5b600080fd5b600080fd5b6000601f19601f8301169050919050565b7f4e487b7100000000000000000000000000000000000000000000000000000000600052604160045260246000fd5b6200033982620002ee565b810181811067ffffffffffffffff821117156200035b576200035a620002ff565b5b80604052505050565b600062000370620002d0565b90506200037e82826200032e565b919050565b600067ffffffffffffffff821115620003a157620003a0620002ff565b5b620003ac82620002ee565b9050602081019050919050565b60005b83811015620003d9578082015181840152602081019050620003bc565b60008484015250505050565b6000620003fc620003f68462000383565b62000364565b9050828152602081018484840111156200041b576200041a620002e9565b5b62000428848285620003b9565b509392505050565b600082601f830112620004485762000447620002e4565b5b81516200045a848260208601620003e5565b91505092915050565b6000806000606084860312156200047f576200047e620002da565b5b600084015167ffffffffffffffff811115620004a0576200049f620002df565b5b620004ae8682870162000430565b935050602084015167ffffffffffffffff811115620004d257620004d1620002df565b5b620004e08682870162000430565b925050604084015167ffffffffffffffff811115620005045762000503620002df565b5b620005128682870162000430565b9150509250925092565b600081519050919050565b7f4e487b7100000000000000000000000000000000000000000000000000000000600052602260045260246000fd5b600060028204905060018216806200056f57607f821691505b60208210810362000585576200058462000527565b5b50919050565b60008190508160005260206000209050919050565b60006020601f8301049050919050565b600082821b905092915050565b600060088302620005ef7fffffffffffffffffffffffffffffffffffffffffffffffffffffffffffffffff82620005b0565b620005fb8683620005b0565b95508019841693508086168417925050509392505050565b6000819050919050565b6000819050919050565b600062000648620006426200063c8462000613565b6200061d565b62000613565b9050919050565b6000819050919050565b620006648362000627565b6200067c62000673826200064f565b848454620005bd565b825550505050565b600090565b6200069362000684565b620006a081848462000659565b505050565b5b81811015620006c857620006bc60008262000689565b600181019050620006a6565b5050565b601f8211156200071757620006e1816200058b565b620006ec84620005a0565b81016020851015620006fc578190505b620007146200070b85620005a0565b830182620006a5565b50505b505050565b600082821c905092915050565b60006200073c600019846008026200071c565b1980831691505092915050565b600062000757838362000729565b9150826002028217905092915050565b62000772826200051c565b67ffffffffffffffff8111156200078e576200078d620002ff565b5b6200079a825462000556565b620007a7828285620006cc565b600060209050601f831160018114620007df5760008415620007ca578287015190505b620007d6858262000749565b86555062000846565b601f198416620007ef866200058b565b60005b828110156200081957848901518255600182019150602085019450602081019050620007f2565b8683101562000839578489015162000835601f89168262000729565b8355505b6001600288020188555050505b505050505050565b61586b806200085e6000396000f3fe608060405234801561001057600080fd5b50600436106102065760003560e01c80636352211e1161011a578063b88d4fde116100ad578063d547741f1161007c578063d547741f146105f9578063e63ab1e914610615578063e985e9c514610633578063eeaf2f0914610663578063f23a6e611461069357610206565b8063b88d4fde1461055f578063bc197c811461057b578063c87b56dd146105ab578063d5391393146105db57610206565b806391d14854116100e957806391d14854146104d757806395d89b4114610507578063a217fddf14610525578063a22cb4651461054357610206565b80636352211e1461043d57806370a082311461046d5780638456cb591461049d57806389e7e2f2146104a757610206565b806332085b651161019d57806342842e0e1161016c57806342842e0e1461039b57806342966c68146103b757806342cf6e74146103d35780635c975abb146103ef57806360d4d23a1461040d57610206565b806332085b651461033d57806336568abe146103595780633f4ba83a1461037557806340c10f191461037f57610206565b806323b872dd116101d957806323b872dd146102a5578063248a9ca3146102c15780632676608c146102f15780632f2ff15d1461032157610206565b806301ffc9a71461020b57806306fdde031461023b578063081812fc14610259578063095ea7b314610289575b600080fd5b6102256004803603810190610220919061380d565b6106c3565b6040516102329190613855565b60405180910390f35b6102436106d5565b6040516102509190613900565b60405180910390f35b610273600480360381019061026e9190613958565b610767565b60405161028091906139c6565b60405180910390f35b6102a3600480360381019061029e9190613a0d565b6107ad565b005b6102bf60048036038101906102ba9190613a4d565b6108c4565b005b6102db60048036038101906102d69190613ad6565b610924565b6040516102e89190613b12565b60405180910390f35b61030b60048036038101906103069190613b2d565b610943565b6040516103189190613c2b565b60405180910390f35b61033b60048036038101906103369190613c4d565b610aea565b005b61035760048036038101906103529190613e8a565b610b0b565b005b610373600480360381019061036e9190613c4d565b610db6565b005b61037d610e39565b005b61039960048036038101906103949190613a0d565b610eb3565b005b6103b560048036038101906103b09190613a4d565b610ec1565b005b6103d160048036038101906103cc9190613958565b610ee1565b005b6103ed60048036038101906103e89190613f6b565b610f3d565b005b6103f7611156565b6040516104049190613855565b60405180910390f35b61042760048036038101906104229190614014565b61116d565b6040516104349190614076565b60405180910390f35b61045760048036038101906104529190613958565b6111da565b60405161046491906139c6565b60405180910390f35b61048760048036038101906104829190614091565b61128b565b6040516104949190614076565b60405180910390f35b6104a5611342565b005b6104c160048036038101906104bc9190613958565b6113bc565b6040516104ce919061417c565b60405180910390f35b6104f160048036038101906104ec9190613c4d565b6114d9565b6040516104fe9190613855565b60405180910390f35b61050f611543565b60405161051c9190613900565b60405180910390f35b61052d6115d5565b60405161053a9190613b12565b60405180910390f35b61055d600480360381019061055891906141ca565b6115dc565b005b6105796004803603810190610574919061420a565b6115f2565b005b6105956004803603810190610590919061428d565b611654565b6040516105a2919061436b565b60405180910390f35b6105c560048036038101906105c09190613958565b611819565b6040516105d29190613900565b60405180910390f35b6105e3611881565b6040516105f09190613b12565b60405180910390f35b610613600480360381019061060e9190613c4d565b6118a5565b005b61061d6118c6565b60405161062a9190613b12565b60405180910390f35b61064d60048036038101906106489190614386565b6118ea565b60405161065a9190613855565b60405180910390f35b61067d60048036038101906106789190614014565b61197e565b60405161068a9190614076565b60405180910390f35b6106ad60048036038101906106a891906143c6565b6119b0565b6040516106ba919061436b565b60405180910390f35b60006106ce82611ab9565b9050919050565b6060600180546106e49061448c565b80601f01602080910402602001604051908101604052809291908181526020018280546107109061448c565b801561075d5780601f106107325761010080835404028352916020019161075d565b820191906000526020600020905b81548152906001019060200180831161074057829003601f168201915b5050505050905090565b600061077282611b9b565b6005600083815260200190815260200160002060009054906101000a900473ffffffffffffffffffffffffffffffffffffffff169050919050565b60006107b8826111da565b90508073ffffffffffffffffffffffffffffffffffffffff168373ffffffffffffffffffffffffffffffffffffffff1603610828576040517f08c379a000000000000000000000000000000000000000000000000000000000815260040161081f9061452f565b60405180910390fd5b8073ffffffffffffffffffffffffffffffffffffffff16610847611be6565b73ffffffffffffffffffffffffffffffffffffffff161480610876575061087581610870611be6565b6118ea565b5b6108b5576040517f08c379a00000000000000000000000000000000000000000000000000000000081526004016108ac906145c1565b60405180910390fd5b6108bf8383611bee565b505050565b6108d56108cf611be6565b82611ca7565b610914576040517f08c379a000000000000000000000000000000000000000000000000000000000815260040161090b90614653565b60405180910390fd5b61091f838383611d3c565b505050565b6000806000838152602001908152602001600020600101549050919050565b6060600061099f600a600086815260200190815260200160002060008573ffffffffffffffffffffffffffffffffffffffff1673ffffffffffffffffffffffffffffffffffffffff168152602001908152602001600020611fa2565b67ffffffffffffffff8111156109b8576109b7613c92565b5b6040519080825280602002602001820160405280156109e65781602001602082028036833780820191505090505b50905060005b610a44600a600087815260200190815260200160002060008673ffffffffffffffffffffffffffffffffffffffff1673ffffffffffffffffffffffffffffffffffffffff168152602001908152602001600020611fa2565b811015610adf57610aad81600a600088815260200190815260200160002060008773ffffffffffffffffffffffffffffffffffffffff1673ffffffffffffffffffffffffffffffffffffffff168152602001908152602001600020611fb790919063ffffffff16565b828281518110610ac057610abf614673565b5b6020026020010181815250508080610ad7906146d1565b9150506109ec565b508091505092915050565b610af382610924565b610afc81611fd1565b610b068383611fe5565b505050565b8151835114610b4f576040517f08c379a0000000000000000000000000000000000000000000000000000000008152600401610b469061478b565b60405180910390fd5b600073ffffffffffffffffffffffffffffffffffffffff168573ffffffffffffffffffffffffffffffffffffffff1603610bbe576040517f08c379a0000000000000000000000000000000000000000000000000000000008152600401610bb59061481d565b60405180910390fd5b6000610bc8611be6565b90508073ffffffffffffffffffffffffffffffffffffffff16610bea886111da565b73ffffffffffffffffffffffffffffffffffffffff161480610c1a5750610c19610c13886111da565b826118ea565b5b610c59576040517f08c379a0000000000000000000000000000000000000000000000000000000008152600401610c50906148af565b60405180910390fd5b610c68818888888888886120c5565b60005b8451811015610cd1576000858281518110610c8957610c88614673565b5b602002602001015190506000858381518110610ca857610ca7614673565b5b60200260200101519050610cbe8a898484612125565b505080610cca906146d1565b9050610c6b565b508473ffffffffffffffffffffffffffffffffffffffff16632eb2c2d630888787876040518663ffffffff1660e01b8152600401610d13959493929190614924565b600060405180830381600087803b158015610d2d57600080fd5b505af1158015610d41573d6000803e3d6000fd5b505050508473ffffffffffffffffffffffffffffffffffffffff168673ffffffffffffffffffffffffffffffffffffffff16887f5572be9c1bc39e4e277a34f64ccd0e84456dac3f33b0b1c458c12c402c6326a98787604051610da592919061498c565b60405180910390a450505050505050565b610dbe611be6565b73ffffffffffffffffffffffffffffffffffffffff168173ffffffffffffffffffffffffffffffffffffffff1614610e2b576040517f08c379a0000000000000000000000000000000000000000000000000000000008152600401610e2290614a35565b60405180910390fd5b610e358282612409565b5050565b610e6a7f65d7a28e3265b37a6474929f336521b332c1681b933f6cb9f3376673440d862a610e65611be6565b6114d9565b610ea9576040517f08c379a0000000000000000000000000000000000000000000000000000000008152600401610ea090614ac7565b60405180910390fd5b610eb16124ea565b565b610ebd828261254d565b5050565b610edc838383604051806020016040528060008152506115f2565b505050565b610ef2610eec611be6565b82611ca7565b610f31576040517f08c379a0000000000000000000000000000000000000000000000000000000008152600401610f2890614b59565b60405180910390fd5b610f3a81612726565b50565b600073ffffffffffffffffffffffffffffffffffffffff168573ffffffffffffffffffffffffffffffffffffffff1603610fac576040517f08c379a0000000000000000000000000000000000000000000000000000000008152600401610fa39061481d565b60405180910390fd5b6000610fb6611be6565b90508073ffffffffffffffffffffffffffffffffffffffff16610fd8886111da565b73ffffffffffffffffffffffffffffffffffffffff1614806110085750611007611001886111da565b826118ea565b5b611047576040517f08c379a000000000000000000000000000000000000000000000000000000000815260040161103e906148af565b60405180910390fd5b6110668188888861105789612843565b61106089612843565b886120c5565b61107287868686612125565b8473ffffffffffffffffffffffffffffffffffffffff1663f242432a30888787876040518663ffffffff1660e01b81526004016110b3959493929190614b79565b600060405180830381600087803b1580156110cd57600080fd5b505af11580156110e1573d6000803e3d6000fd5b505050508473ffffffffffffffffffffffffffffffffffffffff168673ffffffffffffffffffffffffffffffffffffffff16887f9d6259404dec52b3d5d220f5b8e5d05cc05ec908e1bc320aa46793e3091e51948787604051611145929190614bd3565b60405180910390a450505050505050565b6000600b60009054906101000a900460ff16905090565b60006007600085815260200190815260200160002060008473ffffffffffffffffffffffffffffffffffffffff1673ffffffffffffffffffffffffffffffffffffffff16815260200190815260200160002060008381526020019081526020016000205490509392505050565b6000806003600084815260200190815260200160002060009054906101000a900473ffffffffffffffffffffffffffffffffffffffff169050600073ffffffffffffffffffffffffffffffffffffffff168173ffffffffffffffffffffffffffffffffffffffff1603611282576040517f08c379a000000000000000000000000000000000000000000000000000000000815260040161127990614c48565b60405180910390fd5b80915050919050565b60008073ffffffffffffffffffffffffffffffffffffffff168273ffffffffffffffffffffffffffffffffffffffff16036112fb576040517f08c379a00000000000000000000000000000000000000000000000000000000081526004016112f290614cda565b60405180910390fd5b600460008373ffffffffffffffffffffffffffffffffffffffff1673ffffffffffffffffffffffffffffffffffffffff168152602001908152602001600020549050919050565b6113737f65d7a28e3265b37a6474929f336521b332c1681b933f6cb9f3376673440d862a61136e611be6565b6114d9565b6113b2576040517f08c379a00000000000000000000000000000000000000000000000000000000081526004016113a990614d6c565b60405180910390fd5b6113ba6128bd565b565b606060006113db60096000858152602001908152602001600020612920565b67ffffffffffffffff8111156113f4576113f3613c92565b5b6040519080825280602002602001820160405280156114225781602001602082028036833780820191505090505b50905060005b61144360096000868152602001908152602001600020612920565b8110156114cf5761146f816009600087815260200190815260200160002061293590919063ffffffff16565b82828151811061148257611481614673565b5b602002602001019073ffffffffffffffffffffffffffffffffffffffff16908173ffffffffffffffffffffffffffffffffffffffff168152505080806114c7906146d1565b915050611428565b5080915050919050565b600080600084815260200190815260200160002060000160008373ffffffffffffffffffffffffffffffffffffffff1673ffffffffffffffffffffffffffffffffffffffff16815260200190815260200160002060009054906101000a900460ff16905092915050565b6060600280546115529061448c565b80601f016020809104026020016040519081016040528092919081815260200182805461157e9061448c565b80156115cb5780601f106115a0576101008083540402835291602001916115cb565b820191906000526020600020905b8154815290600101906020018083116115ae57829003601f168201915b5050505050905090565b6000801b81565b6115ee6115e7611be6565b838361294f565b5050565b6116036115fd611be6565b83611ca7565b611642576040517f08c379a000000000000000000000000000000000000000000000000000000000815260040161163990614653565b60405180910390fd5b61164e84848484612abb565b50505050565b6000602082511461169a576040517f08c379a000000000000000000000000000000000000000000000000000000000815260040161169190614e24565b60405180910390fd5b82518451146116de576040517f08c379a00000000000000000000000000000000000000000000000000000000081526004016116d590614eb6565b60405180910390fd5b6116ee86600030888888886120c5565b600080602060003690506117029190614ed6565b90508035915060005b865181101561180357611754833389848151811061172c5761172b614673565b5b602002602001015189858151811061174757611746614673565b5b6020026020010151612b17565b3373ffffffffffffffffffffffffffffffffffffffff16838973ffffffffffffffffffffffffffffffffffffffff167fa18753b0660a8be2cdae03468c860b47c2926433ab16917f323544652803032d8a85815181106117b7576117b6614673565b5b60200260200101518a86815181106117d2576117d1614673565b5b60200260200101516040516117e8929190614bd3565b60405180910390a480806117fb906146d1565b91505061170b565b5063bc197c8160e01b9250505095945050505050565b606061182482611b9b565b600061182e612cb2565b9050600081511161184e5760405180602001604052806000815250611879565b8061185884612cc9565b604051602001611869929190614f46565b6040516020818303038152906040525b915050919050565b7f9f2df0fed2c77648de5860a4cc508cd0818c85b8b8a1ab4ceeef8d981c8956a681565b6118ae82610924565b6118b781611fd1565b6118c18383612409565b505050565b7f65d7a28e3265b37a6474929f336521b332c1681b933f6cb9f3376673440d862a81565b6000600660008473ffffffffffffffffffffffffffffffffffffffff1673ffffffffffffffffffffffffffffffffffffffff16815260200190815260200160002060008373ffffffffffffffffffffffffffffffffffffffff1673ffffffffffffffffffffffffffffffffffffffff16815260200190815260200160002060009054906101000a900460ff16905092915050565b600760205282600052604060002060205281600052604060002060205280600052604060002060009250925050505481565b600060208251146119f6576040517f08c379a00000000000000000000000000000000000000000000000000000000081526004016119ed90614e24565b60405180910390fd5b611a168660003088611a0789612843565b611a1089612843565b886120c5565b60008060206000369050611a2a9190614ed6565b905080359150611a3c82338888612b17565b3373ffffffffffffffffffffffffffffffffffffffff16828873ffffffffffffffffffffffffffffffffffffffff167fa18753b0660a8be2cdae03468c860b47c2926433ab16917f323544652803032d8989604051611a9c929190614bd3565b60405180910390a463f23a6e6160e01b9250505095945050505050565b60007f80ac58cd000000000000000000000000000000000000000000000000000000007bffffffffffffffffffffffffffffffffffffffffffffffffffffffff1916827bffffffffffffffffffffffffffffffffffffffffffffffffffffffff19161480611b8457507f5b5e139f000000000000000000000000000000000000000000000000000000007bffffffffffffffffffffffffffffffffffffffffffffffffffffffff1916827bffffffffffffffffffffffffffffffffffffffffffffffffffffffff1916145b80611b945750611b9382612e29565b5b9050919050565b611ba481612ea3565b611be3576040517f08c379a0000000000000000000000000000000000000000000000000000000008152600401611bda90614c48565b60405180910390fd5b50565b600033905090565b816005600083815260200190815260200160002060006101000a81548173ffffffffffffffffffffffffffffffffffffffff021916908373ffffffffffffffffffffffffffffffffffffffff160217905550808273ffffffffffffffffffffffffffffffffffffffff16611c61836111da565b73ffffffffffffffffffffffffffffffffffffffff167f8c5be1e5ebec7d5bd14f71427d1e84f3dd0314c0f7b2291e5b200ac8c7c3b92560405160405180910390a45050565b600080611cb3836111da565b90508073ffffffffffffffffffffffffffffffffffffffff168473ffffffffffffffffffffffffffffffffffffffff161480611cf55750611cf481856118ea565b5b80611d3357508373ffffffffffffffffffffffffffffffffffffffff16611d1b84610767565b73ffffffffffffffffffffffffffffffffffffffff16145b91505092915050565b8273ffffffffffffffffffffffffffffffffffffffff16611d5c826111da565b73ffffffffffffffffffffffffffffffffffffffff1614611db2576040517f08c379a0000000000000000000000000000000000000000000000000000000008152600401611da990614fdc565b60405180910390fd5b600073ffffffffffffffffffffffffffffffffffffffff168273ffffffffffffffffffffffffffffffffffffffff1603611e21576040517f08c379a0000000000000000000000000000000000000000000000000000000008152600401611e189061506e565b60405180910390fd5b611e2c838383612f0f565b611e37600082611bee565b6001600460008573ffffffffffffffffffffffffffffffffffffffff1673ffffffffffffffffffffffffffffffffffffffff1681526020019081526020016000206000828254611e879190614ed6565b925050819055506001600460008473ffffffffffffffffffffffffffffffffffffffff1673ffffffffffffffffffffffffffffffffffffffff1681526020019081526020016000206000828254611ede919061508e565b92505081905550816003600083815260200190815260200160002060006101000a81548173ffffffffffffffffffffffffffffffffffffffff021916908373ffffffffffffffffffffffffffffffffffffffff160217905550808273ffffffffffffffffffffffffffffffffffffffff168473ffffffffffffffffffffffffffffffffffffffff167fddf252ad1be2c89b69c2b068fc378daa952ba7f163c4a11628f55a4df523b3ef60405160405180910390a4611f9d838383612f67565b505050565b6000611fb082600001612f6c565b9050919050565b6000611fc68360000183612f7d565b60001c905092915050565b611fe281611fdd611be6565b612fa8565b50565b611fef82826114d9565b6120c157600160008084815260200190815260200160002060000160008373ffffffffffffffffffffffffffffffffffffffff1673ffffffffffffffffffffffffffffffffffffffff16815260200190815260200160002060006101000a81548160ff021916908315150217905550612066611be6565b73ffffffffffffffffffffffffffffffffffffffff168173ffffffffffffffffffffffffffffffffffffffff16837f2f8788117e7eff1d82e926ec794901d17c78024a50270940304540a733656f0d60405160405180910390a45b5050565b6120cd611156565b1561210d576040517f08c379a000000000000000000000000000000000000000000000000000000000815260040161210490615134565b60405180910390fd5b61211c87878787878787613045565b50505050505050565b6000811415806121965750806007600086815260200190815260200160002060008573ffffffffffffffffffffffffffffffffffffffff1673ffffffffffffffffffffffffffffffffffffffff16815260200190815260200160002060008481526020019081526020016000205410155b6121d5576040517f08c379a00000000000000000000000000000000000000000000000000000000081526004016121cc906151c6565b60405180910390fd5b806007600086815260200190815260200160002060008573ffffffffffffffffffffffffffffffffffffffff1673ffffffffffffffffffffffffffffffffffffffff168152602001908152602001600020600084815260200190815260200160002060008282546122469190614ed6565b9250508190555060006007600086815260200190815260200160002060008573ffffffffffffffffffffffffffffffffffffffff1673ffffffffffffffffffffffffffffffffffffffff168152602001908152602001600020600084815260200190815260200160002054036124035761231884600860008673ffffffffffffffffffffffffffffffffffffffff1673ffffffffffffffffffffffffffffffffffffffff168152602001908152602001600020600085815260200190815260200160002061304e90919063ffffffff16565b5061237b82600a600087815260200190815260200160002060008673ffffffffffffffffffffffffffffffffffffffff1673ffffffffffffffffffffffffffffffffffffffff16815260200190815260200160002061304e90919063ffffffff16565b5060006123d6600a600087815260200190815260200160002060008673ffffffffffffffffffffffffffffffffffffffff1673ffffffffffffffffffffffffffffffffffffffff168152602001908152602001600020611fa2565b0361240257612400836009600087815260200190815260200160002061306890919063ffffffff16565b505b5b50505050565b61241382826114d9565b156124e657600080600084815260200190815260200160002060000160008373ffffffffffffffffffffffffffffffffffffffff1673ffffffffffffffffffffffffffffffffffffffff16815260200190815260200160002060006101000a81548160ff02191690831515021790555061248b611be6565b73ffffffffffffffffffffffffffffffffffffffff168173ffffffffffffffffffffffffffffffffffffffff16837ff6391f5c32d9c69d2a47ea670b442974b53935d1edc7fd64eb21e047a839171b60405160405180910390a45b5050565b6124f2613098565b6000600b60006101000a81548160ff0219169083151502179055507f5db9ee0a495bf2e6ff9c91a7834c1ba4fdd244a5e8aa4e537bd38aeae4b073aa612536611be6565b60405161254391906139c6565b60405180910390a1565b600073ffffffffffffffffffffffffffffffffffffffff168273ffffffffffffffffffffffffffffffffffffffff16036125bc576040517f08c379a00000000000000000000000000000000000000000000000000000000081526004016125b390615232565b60405180910390fd5b6125c581612ea3565b15612605576040517f08c379a00000000000000000000000000000000000000000000000000000000081526004016125fc9061529e565b60405180910390fd5b61261160008383612f0f565b6001600460008473ffffffffffffffffffffffffffffffffffffffff1673ffffffffffffffffffffffffffffffffffffffff1681526020019081526020016000206000828254612661919061508e565b92505081905550816003600083815260200190815260200160002060006101000a81548173ffffffffffffffffffffffffffffffffffffffff021916908373ffffffffffffffffffffffffffffffffffffffff160217905550808273ffffffffffffffffffffffffffffffffffffffff16600073ffffffffffffffffffffffffffffffffffffffff167fddf252ad1be2c89b69c2b068fc378daa952ba7f163c4a11628f55a4df523b3ef60405160405180910390a461272260008383612f67565b5050565b6000612731826111da565b905061273f81600084612f0f565b61274a600083611bee565b6001600460008373ffffffffffffffffffffffffffffffffffffffff1673ffffffffffffffffffffffffffffffffffffffff168152602001908152602001600020600082825461279a9190614ed6565b925050819055506003600083815260200190815260200160002060006101000a81549073ffffffffffffffffffffffffffffffffffffffff021916905581600073ffffffffffffffffffffffffffffffffffffffff168273ffffffffffffffffffffffffffffffffffffffff167fddf252ad1be2c89b69c2b068fc378daa952ba7f163c4a11628f55a4df523b3ef60405160405180910390a461283f81600084612f67565b5050565b60606000600167ffffffffffffffff81111561286257612861613c92565b5b6040519080825280602002602001820160405280156128905781602001602082028036833780820191505090505b50905082816000815181106128a8576128a7614673565b5b60200260200101818152505080915050919050565b6128c56130e1565b6001600b60006101000a81548160ff0219169083151502179055507f62e78cea01bee320cd4e420270b5ea74000d11b0c9f74754ebdbfc544b05a258612909611be6565b60405161291691906139c6565b60405180910390a1565b600061292e82600001612f6c565b9050919050565b60006129448360000183612f7d565b60001c905092915050565b8173ffffffffffffffffffffffffffffffffffffffff168373ffffffffffffffffffffffffffffffffffffffff16036129bd576040517f08c379a00000000000000000000000000000000000000000000000000000000081526004016129b49061530a565b60405180910390fd5b80600660008573ffffffffffffffffffffffffffffffffffffffff1673ffffffffffffffffffffffffffffffffffffffff16815260200190815260200160002060008473ffffffffffffffffffffffffffffffffffffffff1673ffffffffffffffffffffffffffffffffffffffff16815260200190815260200160002060006101000a81548160ff0219169083151502179055508173ffffffffffffffffffffffffffffffffffffffff168373ffffffffffffffffffffffffffffffffffffffff167f17307eab39ab6107e8899845ad3d59bd9653f200f220920489ca2b5937696c3183604051612aae9190613855565b60405180910390a3505050565b612ac6848484611d3c565b612ad28484848461312b565b612b11576040517f08c379a0000000000000000000000000000000000000000000000000000000008152600401612b089061539c565b60405180910390fd5b50505050565b612b3c83600960008781526020019081526020016000206132b290919063ffffffff16565b612b6757612b6583600960008781526020019081526020016000206132e290919063ffffffff16565b505b60006007600086815260200190815260200160002060008573ffffffffffffffffffffffffffffffffffffffff1673ffffffffffffffffffffffffffffffffffffffff16815260200190815260200160002060008481526020019081526020016000205403612c3457612c3282600a600087815260200190815260200160002060008673ffffffffffffffffffffffffffffffffffffffff1673ffffffffffffffffffffffffffffffffffffffff16815260200190815260200160002061331290919063ffffffff16565b505b806007600086815260200190815260200160002060008573ffffffffffffffffffffffffffffffffffffffff1673ffffffffffffffffffffffffffffffffffffffff16815260200190815260200160002060008481526020019081526020016000206000828254612ca5919061508e565b9250508190555050505050565b606060405180602001604052806000815250905090565b606060008203612d10576040518060400160405280600181526020017f30000000000000000000000000000000000000000000000000000000000000008152509050612e24565b600082905060005b60008214612d42578080612d2b906146d1565b915050600a82612d3b91906153eb565b9150612d18565b60008167ffffffffffffffff811115612d5e57612d5d613c92565b5b6040519080825280601f01601f191660200182016040528015612d905781602001600182028036833780820191505090505b5090505b60008514612e1d57600182612da99190614ed6565b9150600a85612db8919061541c565b6030612dc4919061508e565b60f81b818381518110612dda57612dd9614673565b5b60200101907effffffffffffffffffffffffffffffffffffffffffffffffffffffffffffff1916908160001a905350600a85612e1691906153eb565b9450612d94565b8093505050505b919050565b60007f7965db0b000000000000000000000000000000000000000000000000000000007bffffffffffffffffffffffffffffffffffffffffffffffffffffffff1916827bffffffffffffffffffffffffffffffffffffffffffffffffffffffff19161480612e9c5750612e9b8261332c565b5b9050919050565b60008073ffffffffffffffffffffffffffffffffffffffff166003600084815260200190815260200160002060009054906101000a900473ffffffffffffffffffffffffffffffffffffffff1673ffffffffffffffffffffffffffffffffffffffff1614159050919050565b612f17611156565b15612f57576040517f08c379a0000000000000000000000000000000000000000000000000000000008152600401612f4e906154bf565b60405180910390fd5b612f62838383613396565b505050565b505050565b600081600001805490509050919050565b6000826000018281548110612f9557612f94614673565b5b9060005260206000200154905092915050565b612fb282826114d9565b61304157612fd78173ffffffffffffffffffffffffffffffffffffffff16601461339b565b612fe58360001c602061339b565b604051602001612ff6929190615577565b6040516020818303038152906040526040517f08c379a00000000000000000000000000000000000000000000000000000000081526004016130389190613900565b60405180910390fd5b5050565b50505050505050565b6000613060836000018360001b6135d7565b905092915050565b6000613090836000018373ffffffffffffffffffffffffffffffffffffffff1660001b6135d7565b905092915050565b6130a0611156565b6130df576040517f08c379a00000000000000000000000000000000000000000000000000000000081526004016130d6906155fd565b60405180910390fd5b565b6130e9611156565b15613129576040517f08c379a000000000000000000000000000000000000000000000000000000000815260040161312090615669565b60405180910390fd5b565b600061314c8473ffffffffffffffffffffffffffffffffffffffff166136eb565b156132a5578373ffffffffffffffffffffffffffffffffffffffff1663150b7a02613175611be6565b8786866040518563ffffffff1660e01b81526004016131979493929190615689565b6020604051808303816000875af19250505080156131d357506040513d601f19601f820116820180604052508101906131d091906156ea565b60015b613255573d8060008114613203576040519150601f19603f3d011682016040523d82523d6000602084013e613208565b606091505b50600081510361324d576040517f08c379a00000000000000000000000000000000000000000000000000000000081526004016132449061539c565b60405180910390fd5b805181602001fd5b63150b7a0260e01b7bffffffffffffffffffffffffffffffffffffffffffffffffffffffff1916817bffffffffffffffffffffffffffffffffffffffffffffffffffffffff1916149150506132aa565b600190505b949350505050565b60006132da836000018373ffffffffffffffffffffffffffffffffffffffff1660001b61370e565b905092915050565b600061330a836000018373ffffffffffffffffffffffffffffffffffffffff1660001b613731565b905092915050565b6000613324836000018360001b613731565b905092915050565b60007f01ffc9a7000000000000000000000000000000000000000000000000000000007bffffffffffffffffffffffffffffffffffffffffffffffffffffffff1916827bffffffffffffffffffffffffffffffffffffffffffffffffffffffff1916149050919050565b505050565b6060600060028360026133ae9190615717565b6133b8919061508e565b67ffffffffffffffff8111156133d1576133d0613c92565b5b6040519080825280601f01601f1916602001820160405280156134035781602001600182028036833780820191505090505b5090507f30000000000000000000000000000000000000000000000000000000000000008160008151811061343b5761343a614673565b5b60200101907effffffffffffffffffffffffffffffffffffffffffffffffffffffffffffff1916908160001a9053507f78000000000000000000000000000000000000000000000000000000000000008160018151811061349f5761349e614673565b5b60200101907effffffffffffffffffffffffffffffffffffffffffffffffffffffffffffff1916908160001a905350600060018460026134df9190615717565b6134e9919061508e565b90505b6001811115613589577f3031323334353637383961626364656600000000000000000000000000000000600f86166010811061352b5761352a614673565b5b1a60f81b82828151811061354257613541614673565b5b60200101907effffffffffffffffffffffffffffffffffffffffffffffffffffffffffffff1916908160001a905350600485901c94508061358290615771565b90506134ec565b50600084146135cd576040517f08c379a00000000000000000000000000000000000000000000000000000000081526004016135c4906157e6565b60405180910390fd5b8091505092915050565b600080836001016000848152602001908152602001600020549050600081146136df5760006001826136099190614ed6565b90506000600186600001805490506136219190614ed6565b905081811461369057600086600001828154811061364257613641614673565b5b906000526020600020015490508087600001848154811061366657613665614673565b5b90600052602060002001819055508387600101600083815260200190815260200160002081905550505b856000018054806136a4576136a3615806565b5b6001900381819060005260206000200160009055905585600101600086815260200190815260200160002060009055600193505050506136e5565b60009150505b92915050565b6000808273ffffffffffffffffffffffffffffffffffffffff163b119050919050565b600080836001016000848152602001908152602001600020541415905092915050565b600061373d838361370e565b61379657826000018290806001815401808255809150506001900390600052602060002001600090919091909150558260000180549050836001016000848152602001908152602001600020819055506001905061379b565b600090505b92915050565b6000604051905090565b600080fd5b600080fd5b60007fffffffff0000000000000000000000000000000000000000000000000000000082169050919050565b6137ea816137b5565b81146137f557600080fd5b50565b600081359050613807816137e1565b92915050565b600060208284031215613823576138226137ab565b5b6000613831848285016137f8565b91505092915050565b60008115159050919050565b61384f8161383a565b82525050565b600060208201905061386a6000830184613846565b92915050565b600081519050919050565b600082825260208201905092915050565b60005b838110156138aa57808201518184015260208101905061388f565b60008484015250505050565b6000601f19601f8301169050919050565b60006138d282613870565b6138dc818561387b565b93506138ec81856020860161388c565b6138f5816138b6565b840191505092915050565b6000602082019050818103600083015261391a81846138c7565b905092915050565b6000819050919050565b61393581613922565b811461394057600080fd5b50565b6000813590506139528161392c565b92915050565b60006020828403121561396e5761396d6137ab565b5b600061397c84828501613943565b91505092915050565b600073ffffffffffffffffffffffffffffffffffffffff82169050919050565b60006139b082613985565b9050919050565b6139c0816139a5565b82525050565b60006020820190506139db60008301846139b7565b92915050565b6139ea816139a5565b81146139f557600080fd5b50565b600081359050613a07816139e1565b92915050565b60008060408385031215613a2457613a236137ab565b5b6000613a32858286016139f8565b9250506020613a4385828601613943565b9150509250929050565b600080600060608486031215613a6657613a656137ab565b5b6000613a74868287016139f8565b9350506020613a85868287016139f8565b9250506040613a9686828701613943565b9150509250925092565b6000819050919050565b613ab381613aa0565b8114613abe57600080fd5b50565b600081359050613ad081613aaa565b92915050565b600060208284031215613aec57613aeb6137ab565b5b6000613afa84828501613ac1565b91505092915050565b613b0c81613aa0565b82525050565b6000602082019050613b276000830184613b03565b92915050565b60008060408385031215613b4457613b436137ab565b5b6000613b5285828601613943565b9250506020613b63858286016139f8565b9150509250929050565b600081519050919050565b600082825260208201905092915050565b6000819050602082019050919050565b613ba281613922565b82525050565b6000613bb48383613b99565b60208301905092915050565b6000602082019050919050565b6000613bd882613b6d565b613be28185613b78565b9350613bed83613b89565b8060005b83811015613c1e578151613c058882613ba8565b9750613c1083613bc0565b925050600181019050613bf1565b5085935050505092915050565b60006020820190508181036000830152613c458184613bcd565b905092915050565b60008060408385031215613c6457613c636137ab565b5b6000613c7285828601613ac1565b9250506020613c83858286016139f8565b9150509250929050565b600080fd5b7f4e487b7100000000000000000000000000000000000000000000000000000000600052604160045260246000fd5b613cca826138b6565b810181811067ffffffffffffffff82111715613ce957613ce8613c92565b5b80604052505050565b6000613cfc6137a1565b9050613d088282613cc1565b919050565b600067ffffffffffffffff821115613d2857613d27613c92565b5b602082029050602081019050919050565b600080fd5b6000613d51613d4c84613d0d565b613cf2565b90508083825260208201905060208402830185811115613d7457613d73613d39565b5b835b81811015613d9d5780613d898882613943565b845260208401935050602081019050613d76565b5050509392505050565b600082601f830112613dbc57613dbb613c8d565b5b8135613dcc848260208601613d3e565b91505092915050565b600080fd5b600067ffffffffffffffff821115613df557613df4613c92565b5b613dfe826138b6565b9050602081019050919050565b82818337600083830152505050565b6000613e2d613e2884613dda565b613cf2565b905082815260208101848484011115613e4957613e48613dd5565b5b613e54848285613e0b565b509392505050565b600082601f830112613e7157613e70613c8d565b5b8135613e81848260208601613e1a565b91505092915050565b60008060008060008060c08789031215613ea757613ea66137ab565b5b6000613eb589828a01613943565b9650506020613ec689828a016139f8565b9550506040613ed789828a016139f8565b945050606087013567ffffffffffffffff811115613ef857613ef76137b0565b5b613f0489828a01613da7565b935050608087013567ffffffffffffffff811115613f2557613f246137b0565b5b613f3189828a01613da7565b92505060a087013567ffffffffffffffff811115613f5257613f516137b0565b5b613f5e89828a01613e5c565b9150509295509295509295565b60008060008060008060c08789031215613f8857613f876137ab565b5b6000613f9689828a01613943565b9650506020613fa789828a016139f8565b9550506040613fb889828a016139f8565b9450506060613fc989828a01613943565b9350506080613fda89828a01613943565b92505060a087013567ffffffffffffffff811115613ffb57613ffa6137b0565b5b61400789828a01613e5c565b9150509295509295509295565b60008060006060848603121561402d5761402c6137ab565b5b600061403b86828701613943565b935050602061404c868287016139f8565b925050604061405d86828701613943565b9150509250925092565b61407081613922565b82525050565b600060208201905061408b6000830184614067565b92915050565b6000602082840312156140a7576140a66137ab565b5b60006140b5848285016139f8565b91505092915050565b600081519050919050565b600082825260208201905092915050565b6000819050602082019050919050565b6140f3816139a5565b82525050565b600061410583836140ea565b60208301905092915050565b6000602082019050919050565b6000614129826140be565b61413381856140c9565b935061413e836140da565b8060005b8381101561416f57815161415688826140f9565b975061416183614111565b925050600181019050614142565b5085935050505092915050565b60006020820190508181036000830152614196818461411e565b905092915050565b6141a78161383a565b81146141b257600080fd5b50565b6000813590506141c48161419e565b92915050565b600080604083850312156141e1576141e06137ab565b5b60006141ef858286016139f8565b9250506020614200858286016141b5565b9150509250929050565b60008060008060808587031215614224576142236137ab565b5b6000614232878288016139f8565b9450506020614243878288016139f8565b935050604061425487828801613943565b925050606085013567ffffffffffffffff811115614275576142746137b0565b5b61428187828801613e5c565b91505092959194509250565b600080600080600060a086880312156142a9576142a86137ab565b5b60006142b7888289016139f8565b95505060206142c8888289016139f8565b945050604086013567ffffffffffffffff8111156142e9576142e86137b0565b5b6142f588828901613da7565b935050606086013567ffffffffffffffff811115614316576143156137b0565b5b61432288828901613da7565b925050608086013567ffffffffffffffff811115614343576143426137b0565b5b61434f88828901613e5c565b9150509295509295909350565b614365816137b5565b82525050565b6000602082019050614380600083018461435c565b92915050565b6000806040838503121561439d5761439c6137ab565b5b60006143ab858286016139f8565b92505060206143bc858286016139f8565b9150509250929050565b600080600080600060a086880312156143e2576143e16137ab565b5b60006143f0888289016139f8565b9550506020614401888289016139f8565b945050604061441288828901613943565b935050606061442388828901613943565b925050608086013567ffffffffffffffff811115614444576144436137b0565b5b61445088828901613e5c565b9150509295509295909350565b7f4e487b7100000000000000000000000000000000000000000000000000000000600052602260045260246000fd5b600060028204905060018216806144a457607f821691505b6020821081036144b7576144b661445d565b5b50919050565b7f4552433732313a20617070726f76616c20746f2063757272656e74206f776e6560008201527f7200000000000000000000000000000000000000000000000000000000000000602082015250565b600061451960218361387b565b9150614524826144bd565b604082019050919050565b600060208201905081810360008301526145488161450c565b9050919050565b7f4552433732313a20617070726f76652063616c6c6572206973206e6f7420746f60008201527f6b656e206f776e6572206e6f7220617070726f76656420666f7220616c6c0000602082015250565b60006145ab603e8361387b565b91506145b68261454f565b604082019050919050565b600060208201905081810360008301526145da8161459e565b9050919050565b7f4552433732313a2063616c6c6572206973206e6f7420746f6b656e206f776e6560008201527f72206e6f7220617070726f766564000000000000000000000000000000000000602082015250565b600061463d602e8361387b565b9150614648826145e1565b604082019050919050565b6000602082019050818103600083015261466c81614630565b9050919050565b7f4e487b7100000000000000000000000000000000000000000000000000000000600052603260045260246000fd5b7f4e487b7100000000000000000000000000000000000000000000000000000000600052601160045260246000fd5b60006146dc82613922565b91507fffffffffffffffffffffffffffffffffffffffffffffffffffffffffffffffff820361470e5761470d6146a2565b5b600182019050919050565b7f4552433939383a2069647320616e6420616d6f756e7473206c656e677468206d60008201527f69736d6174636800000000000000000000000000000000000000000000000000602082015250565b600061477560278361387b565b915061478082614719565b604082019050919050565b600060208201905081810360008301526147a481614768565b9050919050565b7f4552433939383a207472616e7366657220746f20746865207a65726f2061646460008201527f7265737300000000000000000000000000000000000000000000000000000000602082015250565b600061480760248361387b565b9150614812826147ab565b604082019050919050565b60006020820190508181036000830152614836816147fa565b9050919050565b7f4552433939383a2063616c6c6572206973206e6f74206f776e6572206e6f722060008201527f617070726f766564000000000000000000000000000000000000000000000000602082015250565b600061489960288361387b565b91506148a48261483d565b604082019050919050565b600060208201905081810360008301526148c88161488c565b9050919050565b600081519050919050565b600082825260208201905092915050565b60006148f6826148cf565b61490081856148da565b935061491081856020860161388c565b614919816138b6565b840191505092915050565b600060a08201905061493960008301886139b7565b61494660208301876139b7565b81810360408301526149588186613bcd565b9050818103606083015261496c8185613bcd565b9050818103608083015261498081846148eb565b90509695505050505050565b600060408201905081810360008301526149a68185613bcd565b905081810360208301526149ba8184613bcd565b90509392505050565b7f416363657373436f6e74726f6c3a2063616e206f6e6c792072656e6f756e636560008201527f20726f6c657320666f722073656c660000000000000000000000000000000000602082015250565b6000614a1f602f8361387b565b9150614a2a826149c3565b604082019050919050565b60006020820190508181036000830152614a4e81614a12565b9050919050565b7f4552433732315072657365744d696e7465725061757365724175746f49643a2060008201527f6d75737420686176652070617573657220726f6c6520746f20756e7061757365602082015250565b6000614ab160408361387b565b9150614abc82614a55565b604082019050919050565b60006020820190508181036000830152614ae081614aa4565b9050919050565b7f4552433732314275726e61626c653a2063616c6c6572206973206e6f74206f7760008201527f6e6572206e6f7220617070726f76656400000000000000000000000000000000602082015250565b6000614b4360308361387b565b9150614b4e82614ae7565b604082019050919050565b60006020820190508181036000830152614b7281614b36565b9050919050565b600060a082019050614b8e60008301886139b7565b614b9b60208301876139b7565b614ba86040830186614067565b614bb56060830185614067565b8181036080830152614bc781846148eb565b90509695505050505050565b6000604082019050614be86000830185614067565b614bf56020830184614067565b9392505050565b7f4552433732313a20696e76616c696420746f6b656e2049440000000000000000600082015250565b6000614c3260188361387b565b9150614c3d82614bfc565b602082019050919050565b60006020820190508181036000830152614c6181614c25565b9050919050565b7f4552433732313a2061646472657373207a65726f206973206e6f74206120766160008201527f6c6964206f776e65720000000000000000000000000000000000000000000000602082015250565b6000614cc460298361387b565b9150614ccf82614c68565b604082019050919050565b60006020820190508181036000830152614cf381614cb7565b9050919050565b7f4552433732315072657365744d696e7465725061757365724175746f49643a2060008201527f6d75737420686176652070617573657220726f6c6520746f2070617573650000602082015250565b6000614d56603e8361387b565b9150614d6182614cfa565b604082019050919050565b60006020820190508181036000830152614d8581614d49565b9050919050565b7f4552433939383a2064617461206d75737420636f6e7461696e2074686520756e60008201527f697175652075696e7432353620746f6b656e496420746f207472616e7366657260208201527f20746865206368696c6420746f6b656e20746f00000000000000000000000000604082015250565b6000614e0e60538361387b565b9150614e1982614d8c565b606082019050919050565b60006020820190508181036000830152614e3d81614e01565b9050919050565b7f455243313135353a2069647320616e642076616c756573206c656e677468206d60008201527f69736d6174636800000000000000000000000000000000000000000000000000602082015250565b6000614ea060278361387b565b9150614eab82614e44565b604082019050919050565b60006020820190508181036000830152614ecf81614e93565b9050919050565b6000614ee182613922565b9150614eec83613922565b9250828203905081811115614f0457614f036146a2565b5b92915050565b600081905092915050565b6000614f2082613870565b614f2a8185614f0a565b9350614f3a81856020860161388c565b80840191505092915050565b6000614f528285614f15565b9150614f5e8284614f15565b91508190509392505050565b7f4552433732313a207472616e736665722066726f6d20696e636f72726563742060008201527f6f776e6572000000000000000000000000000000000000000000000000000000602082015250565b6000614fc660258361387b565b9150614fd182614f6a565b604082019050919050565b60006020820190508181036000830152614ff581614fb9565b9050919050565b7f4552433732313a207472616e7366657220746f20746865207a65726f2061646460008201527f7265737300000000000000000000000000000000000000000000000000000000602082015250565b600061505860248361387b565b915061506382614ffc565b604082019050919050565b600060208201905081810360008301526150878161504b565b9050919050565b600061509982613922565b91506150a483613922565b92508282019050808211156150bc576150bb6146a2565b5b92915050565b7f4552433939385061757361626c653a206368696c64207472616e73666572207760008201527f68696c6520706175736564000000000000000000000000000000000000000000602082015250565b600061511e602b8361387b565b9150615129826150c2565b604082019050919050565b6000602082019050818103600083015261514d81615111565b9050919050565b7f4552433939383a20696e73756666696369656e74206368696c642062616c616e60008201527f636520666f72207472616e736665720000000000000000000000000000000000602082015250565b60006151b0602f8361387b565b91506151bb82615154565b604082019050919050565b600060208201905081810360008301526151df816151a3565b9050919050565b7f4552433732313a206d696e7420746f20746865207a65726f2061646472657373600082015250565b600061521c60208361387b565b9150615227826151e6565b602082019050919050565b6000602082019050818103600083015261524b8161520f565b9050919050565b7f4552433732313a20746f6b656e20616c7265616479206d696e74656400000000600082015250565b6000615288601c8361387b565b915061529382615252565b602082019050919050565b600060208201905081810360008301526152b78161527b565b9050919050565b7f4552433732313a20617070726f766520746f2063616c6c657200000000000000600082015250565b60006152f460198361387b565b91506152ff826152be565b602082019050919050565b60006020820190508181036000830152615323816152e7565b9050919050565b7f4552433732313a207472616e7366657220746f206e6f6e20455243373231526560008201527f63656976657220696d706c656d656e7465720000000000000000000000000000602082015250565b600061538660328361387b565b91506153918261532a565b604082019050919050565b600060208201905081810360008301526153b581615379565b9050919050565b7f4e487b7100000000000000000000000000000000000000000000000000000000600052601260045260246000fd5b60006153f682613922565b915061540183613922565b925082615411576154106153bc565b5b828204905092915050565b600061542782613922565b915061543283613922565b925082615442576154416153bc565b5b828206905092915050565b7f4552433732315061757361626c653a20746f6b656e207472616e73666572207760008201527f68696c6520706175736564000000000000000000000000000000000000000000602082015250565b60006154a9602b8361387b565b91506154b48261544d565b604082019050919050565b600060208201905081810360008301526154d88161549c565b9050919050565b7f416363657373436f6e74726f6c3a206163636f756e7420000000000000000000600082015250565b6000615515601783614f0a565b9150615520826154df565b601782019050919050565b7f206973206d697373696e6720726f6c6520000000000000000000000000000000600082015250565b6000615561601183614f0a565b915061556c8261552b565b601182019050919050565b600061558282615508565b915061558e8285614f15565b915061559982615554565b91506155a58284614f15565b91508190509392505050565b7f5061757361626c653a206e6f7420706175736564000000000000000000000000600082015250565b60006155e760148361387b565b91506155f2826155b1565b602082019050919050565b60006020820190508181036000830152615616816155da565b9050919050565b7f5061757361626c653a2070617573656400000000000000000000000000000000600082015250565b600061565360108361387b565b915061565e8261561d565b602082019050919050565b6000602082019050818103600083015261568281615646565b9050919050565b600060808201905061569e60008301876139b7565b6156ab60208301866139b7565b6156b86040830185614067565b81810360608301526156ca81846148eb565b905095945050505050565b6000815190506156e4816137e1565b92915050565b600060208284031215615700576156ff6137ab565b5b600061570e848285016156d5565b91505092915050565b600061572282613922565b915061572d83613922565b9250817fffffffffffffffffffffffffffffffffffffffffffffffffffffffffffffffff0483118215151615615766576157656146a2565b5b828202905092915050565b600061577c82613922565b91506000820361578f5761578e6146a2565b5b600182039050919050565b7f537472696e67733a20686578206c656e67746820696e73756666696369656e74600082015250565b60006157d060208361387b565b91506157db8261579a565b602082019050919050565b600060208201905081810360008301526157ff816157c3565b9050919050565b7f4e487b7100000000000000000000000000000000000000000000000000000000600052603160045260246000fdfea2646970667358221220c8b4000495a21e5c975b6ecb19fc1762f2f2733d8377b12308c64cb5065a261464736f6c63430008100033",
  "immutableReferences": {},
  "source": "// SPDX-License-Identifier: MIT\n\npragma solidity ^0.8.0;\n\n/* import \"https://github.com/OpenZeppelin/openzeppelin-contracts/blob/master/contracts/access/AccessControl.sol\";\nimport \"https://github.com/OpenZeppelin/openzeppelin-contracts/blob/master/contracts/GSN/Context.sol\";\nimport \"https://github.com/OpenZeppelin/openzeppelin-contracts/blob/master/contracts/utils/Pausable.sol\"; */\n\nimport \"@openzeppelin/contracts/access/AccessControl.sol\";\nimport \"@openzeppelin/contracts/utils/Context.sol\";\nimport \"@openzeppelin/contracts/security/Pausable.sol\";\n\nimport \"./ERC998ERC1155TopDown.sol\";\n\n/**\n * @dev {ERC998} token, including:\n *\n *  - ability for holders to burn (destroy) their tokens\n *  - a minter role that allows for token minting (creation)\n *  - a pauser role that allows to stop all token transfers\n *\n * This contract uses {AccessControl} to lock permissioned functions using the\n * different roles - head to its documentation for details.\n *\n * The account that deploys the contract will be granted the minter and pauser\n * roles, as well as the default admin role, which will let it grant both minter\n * and pauser roles to other accounts.\n */\ncontract ERC998ERC1155TopDownPresetMinterPauser is Context, AccessControl, ERC998ERC1155TopDown, Pausable {\n    bytes32 public constant MINTER_ROLE = keccak256(\"MINTER_ROLE\");\n    bytes32 public constant PAUSER_ROLE = keccak256(\"PAUSER_ROLE\");\n\n    /**\n     * @dev Grants `DEFAULT_ADMIN_ROLE`, `MINTER_ROLE` and `PAUSER_ROLE` to the\n     * account that deploys the contract.\n     *\n     * Token URIs will be autogenerated based on `baseURI` and their token IDs.\n     * See {ERC721-tokenURI}.\n     */\n    constructor(string memory name, string memory symbol, string memory baseURI) public ERC998ERC1155TopDown(name, symbol, baseURI) {\n        _setupRole(DEFAULT_ADMIN_ROLE, _msgSender());\n        _setupRole(MINTER_ROLE, _msgSender());\n        _setupRole(PAUSER_ROLE, _msgSender());\n    }\n\n    /**\n     * @dev Creates a new token for `to`. The token URI autogenerated based on\n     * the base URI passed at construction and the token ID.\n     *\n     * See {ERC721-_mint}.\n     *\n     * Requirements:\n     *\n     * - the caller must have the `MINTER_ROLE`.\n     */\n    function mint(address to, uint256 tokenId) public virtual {\n        //require(hasRole(MINTER_ROLE, _msgSender()), \"ERC721: must have minter role to mint in ERC998\");\n\n        // We cannot just use balanceOf to create the new tokenId because tokens\n        // can be burned (destroyed), so we need a separate counter.\n        _mint(to, tokenId);\n    }\n\n\n    /**\n     * @dev Burns `tokenId`. See {ERC721-_burn}.\n     *\n     * Requirements:\n     *\n     * - The caller must own `tokenId` or be an approved operator.\n     */\n    function burn(uint256 tokenId) public virtual {\n        //solhint-disable-next-line max-line-length\n        require(_isApprovedOrOwner(_msgSender(), tokenId), \"ERC721Burnable: caller is not owner nor approved\");\n        _burn(tokenId);\n    }\n\n    /**\n     * @dev Pauses all token transfers.\n     *\n     * See {ERC721Pausable} and {Pausable-_pause}.\n     *\n     * Requirements:\n     *\n     * - the caller must have the `PAUSER_ROLE`.\n     */\n    function pause() public virtual {\n        require(hasRole(PAUSER_ROLE, _msgSender()), \"ERC721PresetMinterPauserAutoId: must have pauser role to pause\");\n        _pause();\n    }\n\n    /**\n     * @dev Unpauses all token transfers.\n     *\n     * See {ERC721Pausable} and {Pausable-_unpause}.\n     *\n     * Requirements:\n     *\n     * - the caller must have the `PAUSER_ROLE`.\n     */\n    function unpause() public virtual {\n        require(hasRole(PAUSER_ROLE, _msgSender()), \"ERC721PresetMinterPauserAutoId: must have pauser role to unpause\");\n        _unpause();\n    }\n\n    /**\n     * @dev See {ERC721-_beforeTokenTransfer}.\n     *\n     * Requirements:\n     *\n     * - the contract must not be paused.\n     */\n    function _beforeTokenTransfer(address from, address to, uint256 tokenId) internal virtual override {\n        require(!paused(), \"ERC721Pausable: token transfer while paused\");\n\n        super._beforeTokenTransfer(from, to, tokenId);\n    }\n\n    function _beforeChildTransfer(\n        address operator,\n        uint256 fromTokenId,\n        address to,\n        address childContract,\n        uint256[] memory ids,\n        uint256[] memory amounts,\n        bytes memory data\n    )\n        internal virtual override\n    {\n        require(!paused(), \"ERC998Pausable: child transfer while paused\");\n\n        super._beforeChildTransfer(operator, fromTokenId, to, childContract, ids, amounts, data);\n    }\n\n    function supportsInterface(bytes4 interfaceId) public view virtual override(ERC721, IERC165, AccessControl) returns (bool) {\n        return super.supportsInterface(interfaceId);\n    }\n}\n",
  "sourcePath": "/home/prams25/thesisB/composo/supp_chain/truffle/contracts/ERC998ERC1155TopDownPresetMinterPauser.sol",
  "compiler": {
    "name": "solc",
    "version": "0.8.16+commit.07a7930e.Emscripten.clang"
  },
  "schemaVersion": "3.4.7",
  "updatedAt": "2022-08-17T12:53:01.622Z",
  "networkType": "ethereum",
  "devdoc": {
    "details": "{ERC998} token, including:  - ability for holders to burn (destroy) their tokens  - a minter role that allows for token minting (creation)  - a pauser role that allows to stop all token transfers This contract uses {AccessControl} to lock permissioned functions using the different roles - head to its documentation for details. The account that deploys the contract will be granted the minter and pauser roles, as well as the default admin role, which will let it grant both minter and pauser roles to other accounts.",
    "kind": "dev",
    "methods": {
      "approve(address,uint256)": {
        "details": "See {IERC721-approve}."
      },
      "balanceOf(address)": {
        "details": "See {IERC721-balanceOf}."
      },
      "burn(uint256)": {
        "details": "Burns `tokenId`. See {ERC721-_burn}. Requirements: - The caller must own `tokenId` or be an approved operator."
      },
      "childBalance(uint256,address,uint256)": {
        "details": "Gives child balance for a specific child contract and child id ."
      },
      "childContractsFor(uint256)": {
        "details": "Gives list of child contract where token ID has childs."
      },
      "childIdsForOn(uint256,address)": {
        "details": "Gives list of owned child ID on a child contract by token ID."
      },
      "constructor": {
        "details": "Grants `DEFAULT_ADMIN_ROLE`, `MINTER_ROLE` and `PAUSER_ROLE` to the account that deploys the contract. Token URIs will be autogenerated based on `baseURI` and their token IDs. See {ERC721-tokenURI}."
      },
      "getApproved(uint256)": {
        "details": "See {IERC721-getApproved}."
      },
      "getRoleAdmin(bytes32)": {
        "details": "Returns the admin role that controls `role`. See {grantRole} and {revokeRole}. To change a role's admin, use {_setRoleAdmin}."
      },
      "grantRole(bytes32,address)": {
        "details": "Grants `role` to `account`. If `account` had not been already granted `role`, emits a {RoleGranted} event. Requirements: - the caller must have ``role``'s admin role. May emit a {RoleGranted} event."
      },
      "hasRole(bytes32,address)": {
        "details": "Returns `true` if `account` has been granted `role`."
      },
      "isApprovedForAll(address,address)": {
        "details": "See {IERC721-isApprovedForAll}."
      },
      "mint(address,uint256)": {
        "details": "Creates a new token for `to`. The token URI autogenerated based on the base URI passed at construction and the token ID. See {ERC721-_mint}. Requirements: - the caller must have the `MINTER_ROLE`."
      },
      "name()": {
        "details": "See {IERC721Metadata-name}."
      },
      "onERC1155BatchReceived(address,address,uint256[],uint256[],bytes)": {
        "details": "Receives a batch of child tokens, the receiver token ID must be encoded in the field data."
      },
      "onERC1155Received(address,address,uint256,uint256,bytes)": {
        "details": "Receives a child token, the receiver token ID must be encoded in the field data."
      },
      "ownerOf(uint256)": {
        "details": "See {IERC721-ownerOf}."
      },
      "pause()": {
        "details": "Pauses all token transfers. See {ERC721Pausable} and {Pausable-_pause}. Requirements: - the caller must have the `PAUSER_ROLE`."
      },
      "paused()": {
        "details": "Returns true if the contract is paused, and false otherwise."
      },
      "renounceRole(bytes32,address)": {
        "details": "Revokes `role` from the calling account. Roles are often managed via {grantRole} and {revokeRole}: this function's purpose is to provide a mechanism for accounts to lose their privileges if they are compromised (such as when a trusted device is misplaced). If the calling account had been revoked `role`, emits a {RoleRevoked} event. Requirements: - the caller must be `account`. May emit a {RoleRevoked} event."
      },
      "revokeRole(bytes32,address)": {
        "details": "Revokes `role` from `account`. If `account` had been granted `role`, emits a {RoleRevoked} event. Requirements: - the caller must have ``role``'s admin role. May emit a {RoleRevoked} event."
      },
      "safeBatchTransferChildFrom(uint256,address,address,uint256[],uint256[],bytes)": {
        "details": "Transfers batch of child tokens from a token ID."
      },
      "safeTransferChildFrom(uint256,address,address,uint256,uint256,bytes)": {
        "details": "Transfers child token from a token ID."
      },
      "safeTransferFrom(address,address,uint256)": {
        "details": "See {IERC721-safeTransferFrom}."
      },
      "safeTransferFrom(address,address,uint256,bytes)": {
        "details": "See {IERC721-safeTransferFrom}."
      },
      "setApprovalForAll(address,bool)": {
        "details": "See {IERC721-setApprovalForAll}."
      },
      "symbol()": {
        "details": "See {IERC721Metadata-symbol}."
      },
      "tokenURI(uint256)": {
        "details": "See {IERC721Metadata-tokenURI}."
      },
      "transferFrom(address,address,uint256)": {
        "details": "See {IERC721-transferFrom}."
      },
      "unpause()": {
        "details": "Unpauses all token transfers. See {ERC721Pausable} and {Pausable-_unpause}. Requirements: - the caller must have the `PAUSER_ROLE`."
      }
    },
    "version": 1
  },
  "userdoc": {
    "kind": "user",
    "methods": {},
    "version": 1
  }
}