{
  "contractName": "ERC998ERC1155TopDown",
  "abi": [
    {
      "inputs": [
        {
          "internalType": "string",
          "name": "name",
          "type": "string"
        },
        {
          "internalType": "string",
          "name": "symbol",
          "type": "string"
        },
        {
          "internalType": "string",
          "name": "baseURI",
          "type": "string"
        }
      ],
      "stateMutability": "nonpayable",
      "type": "constructor"
    },
    {
      "anonymous": false,
      "inputs": [
        {
          "indexed": true,
          "internalType": "address",
          "name": "owner",
          "type": "address"
        },
        {
          "indexed": true,
          "internalType": "address",
          "name": "approved",
          "type": "address"
        },
        {
          "indexed": true,
          "internalType": "uint256",
          "name": "tokenId",
          "type": "uint256"
        }
      ],
      "name": "Approval",
      "type": "event"
    },
    {
      "anonymous": false,
      "inputs": [
        {
          "indexed": true,
          "internalType": "address",
          "name": "owner",
          "type": "address"
        },
        {
          "indexed": true,
          "internalType": "address",
          "name": "operator",
          "type": "address"
        },
        {
          "indexed": false,
          "internalType": "bool",
          "name": "approved",
          "type": "bool"
        }
      ],
      "name": "ApprovalForAll",
      "type": "event"
    },
    {
      "anonymous": false,
      "inputs": [
        {
          "indexed": true,
          "internalType": "address",
          "name": "from",
          "type": "address"
        },
        {
          "indexed": true,
          "internalType": "uint256",
          "name": "toTokenId",
          "type": "uint256"
        },
        {
          "indexed": true,
          "internalType": "address",
          "name": "childContract",
          "type": "address"
        },
        {
          "indexed": false,
          "internalType": "uint256",
          "name": "childTokenId",
          "type": "uint256"
        },
        {
          "indexed": false,
          "internalType": "uint256",
          "name": "amount",
          "type": "uint256"
        }
      ],
      "name": "ReceivedChild",
      "type": "event"
    },
    {
      "anonymous": false,
      "inputs": [
        {
          "indexed": true,
          "internalType": "address",
          "name": "from",
          "type": "address"
        },
        {
          "indexed": true,
          "internalType": "address",
          "name": "to",
          "type": "address"
        },
        {
          "indexed": true,
          "internalType": "uint256",
          "name": "tokenId",
          "type": "uint256"
        }
      ],
      "name": "Transfer",
      "type": "event"
    },
    {
      "anonymous": false,
      "inputs": [
        {
          "indexed": true,
          "internalType": "uint256",
          "name": "fromTokenId",
          "type": "uint256"
        },
        {
          "indexed": true,
          "internalType": "address",
          "name": "to",
          "type": "address"
        },
        {
          "indexed": true,
          "internalType": "address",
          "name": "childContract",
          "type": "address"
        },
        {
          "indexed": false,
          "internalType": "uint256[]",
          "name": "childTokenIds",
          "type": "uint256[]"
        },
        {
          "indexed": false,
          "internalType": "uint256[]",
          "name": "amounts",
          "type": "uint256[]"
        }
      ],
      "name": "TransferBatchChild",
      "type": "event"
    },
    {
      "anonymous": false,
      "inputs": [
        {
          "indexed": true,
          "internalType": "uint256",
          "name": "fromTokenId",
          "type": "uint256"
        },
        {
          "indexed": true,
          "internalType": "address",
          "name": "to",
          "type": "address"
        },
        {
          "indexed": true,
          "internalType": "address",
          "name": "childContract",
          "type": "address"
        },
        {
          "indexed": false,
          "internalType": "uint256",
          "name": "childTokenId",
          "type": "uint256"
        },
        {
          "indexed": false,
          "internalType": "uint256",
          "name": "amount",
          "type": "uint256"
        }
      ],
      "name": "TransferSingleChild",
      "type": "event"
    },
    {
      "inputs": [
        {
          "internalType": "uint256",
          "name": "",
          "type": "uint256"
        },
        {
          "internalType": "address",
          "name": "",
          "type": "address"
        },
        {
          "internalType": "uint256",
          "name": "",
          "type": "uint256"
        }
      ],
      "name": "_balances",
      "outputs": [
        {
          "internalType": "uint256",
          "name": "",
          "type": "uint256"
        }
      ],
      "stateMutability": "view",
      "type": "function",
      "constant": true
    },
    {
      "inputs": [
        {
          "internalType": "address",
          "name": "to",
          "type": "address"
        },
        {
          "internalType": "uint256",
          "name": "tokenId",
          "type": "uint256"
        }
      ],
      "name": "approve",
      "outputs": [],
      "stateMutability": "nonpayable",
      "type": "function"
    },
    {
      "inputs": [
        {
          "internalType": "address",
          "name": "owner",
          "type": "address"
        }
      ],
      "name": "balanceOf",
      "outputs": [
        {
          "internalType": "uint256",
          "name": "",
          "type": "uint256"
        }
      ],
      "stateMutability": "view",
      "type": "function",
      "constant": true
    },
    {
      "inputs": [
        {
          "internalType": "uint256",
          "name": "tokenId",
          "type": "uint256"
        }
      ],
      "name": "getApproved",
      "outputs": [
        {
          "internalType": "address",
          "name": "",
          "type": "address"
        }
      ],
      "stateMutability": "view",
      "type": "function",
      "constant": true
    },
    {
      "inputs": [
        {
          "internalType": "address",
          "name": "owner",
          "type": "address"
        },
        {
          "internalType": "address",
          "name": "operator",
          "type": "address"
        }
      ],
      "name": "isApprovedForAll",
      "outputs": [
        {
          "internalType": "bool",
          "name": "",
          "type": "bool"
        }
      ],
      "stateMutability": "view",
      "type": "function",
      "constant": true
    },
    {
      "inputs": [],
      "name": "name",
      "outputs": [
        {
          "internalType": "string",
          "name": "",
          "type": "string"
        }
      ],
      "stateMutability": "view",
      "type": "function",
      "constant": true
    },
    {
      "inputs": [
        {
          "internalType": "uint256",
          "name": "tokenId",
          "type": "uint256"
        }
      ],
      "name": "ownerOf",
      "outputs": [
        {
          "internalType": "address",
          "name": "",
          "type": "address"
        }
      ],
      "stateMutability": "view",
      "type": "function",
      "constant": true
    },
    {
      "inputs": [
        {
          "internalType": "address",
          "name": "from",
          "type": "address"
        },
        {
          "internalType": "address",
          "name": "to",
          "type": "address"
        },
        {
          "internalType": "uint256",
          "name": "tokenId",
          "type": "uint256"
        }
      ],
      "name": "safeTransferFrom",
      "outputs": [],
      "stateMutability": "nonpayable",
      "type": "function"
    },
    {
      "inputs": [
        {
          "internalType": "address",
          "name": "from",
          "type": "address"
        },
        {
          "internalType": "address",
          "name": "to",
          "type": "address"
        },
        {
          "internalType": "uint256",
          "name": "tokenId",
          "type": "uint256"
        },
        {
          "internalType": "bytes",
          "name": "data",
          "type": "bytes"
        }
      ],
      "name": "safeTransferFrom",
      "outputs": [],
      "stateMutability": "nonpayable",
      "type": "function"
    },
    {
      "inputs": [
        {
          "internalType": "address",
          "name": "operator",
          "type": "address"
        },
        {
          "internalType": "bool",
          "name": "approved",
          "type": "bool"
        }
      ],
      "name": "setApprovalForAll",
      "outputs": [],
      "stateMutability": "nonpayable",
      "type": "function"
    },
    {
      "inputs": [
        {
          "internalType": "bytes4",
          "name": "interfaceId",
          "type": "bytes4"
        }
      ],
      "name": "supportsInterface",
      "outputs": [
        {
          "internalType": "bool",
          "name": "",
          "type": "bool"
        }
      ],
      "stateMutability": "view",
      "type": "function",
      "constant": true
    },
    {
      "inputs": [],
      "name": "symbol",
      "outputs": [
        {
          "internalType": "string",
          "name": "",
          "type": "string"
        }
      ],
      "stateMutability": "view",
      "type": "function",
      "constant": true
    },
    {
      "inputs": [
        {
          "internalType": "uint256",
          "name": "tokenId",
          "type": "uint256"
        }
      ],
      "name": "tokenURI",
      "outputs": [
        {
          "internalType": "string",
          "name": "",
          "type": "string"
        }
      ],
      "stateMutability": "view",
      "type": "function",
      "constant": true
    },
    {
      "inputs": [
        {
          "internalType": "address",
          "name": "from",
          "type": "address"
        },
        {
          "internalType": "address",
          "name": "to",
          "type": "address"
        },
        {
          "internalType": "uint256",
          "name": "tokenId",
          "type": "uint256"
        }
      ],
      "name": "transferFrom",
      "outputs": [],
      "stateMutability": "nonpayable",
      "type": "function"
    },
    {
      "inputs": [
        {
          "internalType": "uint256",
          "name": "tokenId",
          "type": "uint256"
        },
        {
          "internalType": "address",
          "name": "childContract",
          "type": "address"
        },
        {
          "internalType": "uint256",
          "name": "childTokenId",
          "type": "uint256"
        }
      ],
      "name": "childBalance",
      "outputs": [
        {
          "internalType": "uint256",
          "name": "",
          "type": "uint256"
        }
      ],
      "stateMutability": "view",
      "type": "function",
      "constant": true
    },
    {
      "inputs": [
        {
          "internalType": "uint256",
          "name": "tokenId",
          "type": "uint256"
        }
      ],
      "name": "childContractsFor",
      "outputs": [
        {
          "internalType": "address[]",
          "name": "",
          "type": "address[]"
        }
      ],
      "stateMutability": "view",
      "type": "function",
      "constant": true
    },
    {
      "inputs": [
        {
          "internalType": "uint256",
          "name": "tokenId",
          "type": "uint256"
        },
        {
          "internalType": "address",
          "name": "childContract",
          "type": "address"
        }
      ],
      "name": "childIdsForOn",
      "outputs": [
        {
          "internalType": "uint256[]",
          "name": "",
          "type": "uint256[]"
        }
      ],
      "stateMutability": "view",
      "type": "function",
      "constant": true
    },
    {
      "inputs": [
        {
          "internalType": "uint256",
          "name": "fromTokenId",
          "type": "uint256"
        },
        {
          "internalType": "address",
          "name": "to",
          "type": "address"
        },
        {
          "internalType": "address",
          "name": "childContract",
          "type": "address"
        },
        {
          "internalType": "uint256",
          "name": "childTokenId",
          "type": "uint256"
        },
        {
          "internalType": "uint256",
          "name": "amount",
          "type": "uint256"
        },
        {
          "internalType": "bytes",
          "name": "data",
          "type": "bytes"
        }
      ],
      "name": "safeTransferChildFrom",
      "outputs": [],
      "stateMutability": "nonpayable",
      "type": "function"
    },
    {
      "inputs": [
        {
          "internalType": "uint256",
          "name": "fromTokenId",
          "type": "uint256"
        },
        {
          "internalType": "address",
          "name": "to",
          "type": "address"
        },
        {
          "internalType": "address",
          "name": "childContract",
          "type": "address"
        },
        {
          "internalType": "uint256[]",
          "name": "childTokenIds",
          "type": "uint256[]"
        },
        {
          "internalType": "uint256[]",
          "name": "amounts",
          "type": "uint256[]"
        },
        {
          "internalType": "bytes",
          "name": "data",
          "type": "bytes"
        }
      ],
      "name": "safeBatchTransferChildFrom",
      "outputs": [],
      "stateMutability": "nonpayable",
      "type": "function"
    },
    {
      "inputs": [
        {
          "internalType": "address",
          "name": "operator",
          "type": "address"
        },
        {
          "internalType": "address",
          "name": "from",
          "type": "address"
        },
        {
          "internalType": "uint256",
          "name": "id",
          "type": "uint256"
        },
        {
          "internalType": "uint256",
          "name": "amount",
          "type": "uint256"
        },
        {
          "internalType": "bytes",
          "name": "data",
          "type": "bytes"
        }
      ],
      "name": "onERC1155Received",
      "outputs": [
        {
          "internalType": "bytes4",
          "name": "",
          "type": "bytes4"
        }
      ],
      "stateMutability": "nonpayable",
      "type": "function"
    },
    {
      "inputs": [
        {
          "internalType": "address",
          "name": "operator",
          "type": "address"
        },
        {
          "internalType": "address",
          "name": "from",
          "type": "address"
        },
        {
          "internalType": "uint256[]",
          "name": "ids",
          "type": "uint256[]"
        },
        {
          "internalType": "uint256[]",
          "name": "values",
          "type": "uint256[]"
        },
        {
          "internalType": "bytes",
          "name": "data",
          "type": "bytes"
        }
      ],
      "name": "onERC1155BatchReceived",
      "outputs": [
        {
          "internalType": "bytes4",
          "name": "",
          "type": "bytes4"
        }
      ],
      "stateMutability": "nonpayable",
      "type": "function"
    }
  ],
  "bytecode": "0x60806040523480156200001157600080fd5b506040516200474538038062004745833981810160405281019062000037919062000223565b828281600090816200004a919062000527565b5080600190816200005c919062000527565b5050506200006f6200007960201b60201c565b505050506200060e565b606060405180602001604052806000815250905090565b6000604051905090565b600080fd5b600080fd5b600080fd5b600080fd5b6000601f19601f8301169050919050565b7f4e487b7100000000000000000000000000000000000000000000000000000000600052604160045260246000fd5b620000f982620000ae565b810181811067ffffffffffffffff821117156200011b576200011a620000bf565b5b80604052505050565b60006200013062000090565b90506200013e8282620000ee565b919050565b600067ffffffffffffffff821115620001615762000160620000bf565b5b6200016c82620000ae565b9050602081019050919050565b60005b83811015620001995780820151818401526020810190506200017c565b60008484015250505050565b6000620001bc620001b68462000143565b62000124565b905082815260208101848484011115620001db57620001da620000a9565b5b620001e884828562000179565b509392505050565b600082601f830112620002085762000207620000a4565b5b81516200021a848260208601620001a5565b91505092915050565b6000806000606084860312156200023f576200023e6200009a565b5b600084015167ffffffffffffffff81111562000260576200025f6200009f565b5b6200026e86828701620001f0565b935050602084015167ffffffffffffffff8111156200029257620002916200009f565b5b620002a086828701620001f0565b925050604084015167ffffffffffffffff811115620002c457620002c36200009f565b5b620002d286828701620001f0565b9150509250925092565b600081519050919050565b7f4e487b7100000000000000000000000000000000000000000000000000000000600052602260045260246000fd5b600060028204905060018216806200032f57607f821691505b602082108103620003455762000344620002e7565b5b50919050565b60008190508160005260206000209050919050565b60006020601f8301049050919050565b600082821b905092915050565b600060088302620003af7fffffffffffffffffffffffffffffffffffffffffffffffffffffffffffffffff8262000370565b620003bb868362000370565b95508019841693508086168417925050509392505050565b6000819050919050565b6000819050919050565b60006200040862000402620003fc84620003d3565b620003dd565b620003d3565b9050919050565b6000819050919050565b6200042483620003e7565b6200043c62000433826200040f565b8484546200037d565b825550505050565b600090565b6200045362000444565b6200046081848462000419565b505050565b5b8181101562000488576200047c60008262000449565b60018101905062000466565b5050565b601f821115620004d757620004a1816200034b565b620004ac8462000360565b81016020851015620004bc578190505b620004d4620004cb8562000360565b83018262000465565b50505b505050565b600082821c905092915050565b6000620004fc60001984600802620004dc565b1980831691505092915050565b6000620005178383620004e9565b9150826002028217905092915050565b6200053282620002dc565b67ffffffffffffffff8111156200054e576200054d620000bf565b5b6200055a825462000316565b620005678282856200048c565b600060209050601f8311600181146200059f57600084156200058a578287015190505b62000596858262000509565b86555062000606565b601f198416620005af866200034b565b60005b82811015620005d957848901518255600182019150602085019450602081019050620005b2565b86831015620005f95784890151620005f5601f891682620004e9565b8355505b6001600288020188555050505b505050505050565b614127806200061e6000396000f3fe608060405234801561001057600080fd5b50600436106101375760003560e01c80636352211e116100b8578063b88d4fde1161007c578063b88d4fde14610370578063bc197c811461038c578063c87b56dd146103bc578063e985e9c5146103ec578063eeaf2f091461041c578063f23a6e611461044c57610137565b80636352211e146102a657806370a08231146102d657806389e7e2f21461030657806395d89b4114610336578063a22cb4651461035457610137565b80632676608c116100ff5780632676608c146101f257806332085b651461022257806342842e0e1461023e57806342cf6e741461025a57806360d4d23a1461027657610137565b806301ffc9a71461013c57806306fdde031461016c578063081812fc1461018a578063095ea7b3146101ba57806323b872dd146101d6575b600080fd5b61015660048036038101906101519190612873565b61047c565b60405161016391906128bb565b60405180910390f35b61017461055e565b6040516101819190612966565b60405180910390f35b6101a4600480360381019061019f91906129be565b6105f0565b6040516101b19190612a2c565b60405180910390f35b6101d460048036038101906101cf9190612a73565b610636565b005b6101f060048036038101906101eb9190612ab3565b61074d565b005b61020c60048036038101906102079190612b06565b6107ad565b6040516102199190612c04565b60405180910390f35b61023c60048036038101906102379190612e23565b610954565b005b61025860048036038101906102539190612ab3565b610bff565b005b610274600480360381019061026f9190612f04565b610c1f565b005b610290600480360381019061028b9190612fad565b610e38565b60405161029d919061300f565b60405180910390f35b6102c060048036038101906102bb91906129be565b610ea5565b6040516102cd9190612a2c565b60405180910390f35b6102f060048036038101906102eb919061302a565b610f56565b6040516102fd919061300f565b60405180910390f35b610320600480360381019061031b91906129be565b61100d565b60405161032d9190613115565b60405180910390f35b61033e61112a565b60405161034b9190612966565b60405180910390f35b61036e60048036038101906103699190613163565b6111bc565b005b61038a600480360381019061038591906131a3565b6111d2565b005b6103a660048036038101906103a19190613226565b611234565b6040516103b39190613304565b60405180910390f35b6103d660048036038101906103d191906129be565b6113f9565b6040516103e39190612966565b60405180910390f35b6104066004803603810190610401919061331f565b611461565b60405161041391906128bb565b60405180910390f35b61043660048036038101906104319190612fad565b6114f5565b604051610443919061300f565b60405180910390f35b6104666004803603810190610461919061335f565b611527565b6040516104739190613304565b60405180910390f35b60007f80ac58cd000000000000000000000000000000000000000000000000000000007bffffffffffffffffffffffffffffffffffffffffffffffffffffffff1916827bffffffffffffffffffffffffffffffffffffffffffffffffffffffff1916148061054757507f5b5e139f000000000000000000000000000000000000000000000000000000007bffffffffffffffffffffffffffffffffffffffffffffffffffffffff1916827bffffffffffffffffffffffffffffffffffffffffffffffffffffffff1916145b80610557575061055682611630565b5b9050919050565b60606000805461056d90613425565b80601f016020809104026020016040519081016040528092919081815260200182805461059990613425565b80156105e65780601f106105bb576101008083540402835291602001916105e6565b820191906000526020600020905b8154815290600101906020018083116105c957829003601f168201915b5050505050905090565b60006105fb8261169a565b6004600083815260200190815260200160002060009054906101000a900473ffffffffffffffffffffffffffffffffffffffff169050919050565b600061064182610ea5565b90508073ffffffffffffffffffffffffffffffffffffffff168373ffffffffffffffffffffffffffffffffffffffff16036106b1576040517f08c379a00000000000000000000000000000000000000000000000000000000081526004016106a8906134c8565b60405180910390fd5b8073ffffffffffffffffffffffffffffffffffffffff166106d06116e5565b73ffffffffffffffffffffffffffffffffffffffff1614806106ff57506106fe816106f96116e5565b611461565b5b61073e576040517f08c379a00000000000000000000000000000000000000000000000000000000081526004016107359061355a565b60405180910390fd5b61074883836116ed565b505050565b61075e6107586116e5565b826117a6565b61079d576040517f08c379a0000000000000000000000000000000000000000000000000000000008152600401610794906135ec565b60405180910390fd5b6107a883838361183b565b505050565b606060006108096009600086815260200190815260200160002060008573ffffffffffffffffffffffffffffffffffffffff1673ffffffffffffffffffffffffffffffffffffffff168152602001908152602001600020611aa1565b67ffffffffffffffff81111561082257610821612c2b565b5b6040519080825280602002602001820160405280156108505781602001602082028036833780820191505090505b50905060005b6108ae6009600087815260200190815260200160002060008673ffffffffffffffffffffffffffffffffffffffff1673ffffffffffffffffffffffffffffffffffffffff168152602001908152602001600020611aa1565b81101561094957610917816009600088815260200190815260200160002060008773ffffffffffffffffffffffffffffffffffffffff1673ffffffffffffffffffffffffffffffffffffffff168152602001908152602001600020611ab690919063ffffffff16565b82828151811061092a5761092961360c565b5b60200260200101818152505080806109419061366a565b915050610856565b508091505092915050565b8151835114610998576040517f08c379a000000000000000000000000000000000000000000000000000000000815260040161098f90613724565b60405180910390fd5b600073ffffffffffffffffffffffffffffffffffffffff168573ffffffffffffffffffffffffffffffffffffffff1603610a07576040517f08c379a00000000000000000000000000000000000000000000000000000000081526004016109fe906137b6565b60405180910390fd5b6000610a116116e5565b90508073ffffffffffffffffffffffffffffffffffffffff16610a3388610ea5565b73ffffffffffffffffffffffffffffffffffffffff161480610a635750610a62610a5c88610ea5565b82611461565b5b610aa2576040517f08c379a0000000000000000000000000000000000000000000000000000000008152600401610a9990613848565b60405180910390fd5b610ab181888888888888611ad0565b60005b8451811015610b1a576000858281518110610ad257610ad161360c565b5b602002602001015190506000858381518110610af157610af061360c565b5b60200260200101519050610b078a898484611ad9565b505080610b139061366a565b9050610ab4565b508473ffffffffffffffffffffffffffffffffffffffff16632eb2c2d630888787876040518663ffffffff1660e01b8152600401610b5c9594939291906138bd565b600060405180830381600087803b158015610b7657600080fd5b505af1158015610b8a573d6000803e3d6000fd5b505050508473ffffffffffffffffffffffffffffffffffffffff168673ffffffffffffffffffffffffffffffffffffffff16887f5572be9c1bc39e4e277a34f64ccd0e84456dac3f33b0b1c458c12c402c6326a98787604051610bee929190613925565b60405180910390a450505050505050565b610c1a838383604051806020016040528060008152506111d2565b505050565b600073ffffffffffffffffffffffffffffffffffffffff168573ffffffffffffffffffffffffffffffffffffffff1603610c8e576040517f08c379a0000000000000000000000000000000000000000000000000000000008152600401610c85906137b6565b60405180910390fd5b6000610c986116e5565b90508073ffffffffffffffffffffffffffffffffffffffff16610cba88610ea5565b73ffffffffffffffffffffffffffffffffffffffff161480610cea5750610ce9610ce388610ea5565b82611461565b5b610d29576040517f08c379a0000000000000000000000000000000000000000000000000000000008152600401610d2090613848565b60405180910390fd5b610d4881888888610d3989611dbd565b610d4289611dbd565b88611ad0565b610d5487868686611ad9565b8473ffffffffffffffffffffffffffffffffffffffff1663f242432a30888787876040518663ffffffff1660e01b8152600401610d9595949392919061395c565b600060405180830381600087803b158015610daf57600080fd5b505af1158015610dc3573d6000803e3d6000fd5b505050508473ffffffffffffffffffffffffffffffffffffffff168673ffffffffffffffffffffffffffffffffffffffff16887f9d6259404dec52b3d5d220f5b8e5d05cc05ec908e1bc320aa46793e3091e51948787604051610e279291906139b6565b60405180910390a450505050505050565b60006006600085815260200190815260200160002060008473ffffffffffffffffffffffffffffffffffffffff1673ffffffffffffffffffffffffffffffffffffffff16815260200190815260200160002060008381526020019081526020016000205490509392505050565b6000806002600084815260200190815260200160002060009054906101000a900473ffffffffffffffffffffffffffffffffffffffff169050600073ffffffffffffffffffffffffffffffffffffffff168173ffffffffffffffffffffffffffffffffffffffff1603610f4d576040517f08c379a0000000000000000000000000000000000000000000000000000000008152600401610f4490613a2b565b60405180910390fd5b80915050919050565b60008073ffffffffffffffffffffffffffffffffffffffff168273ffffffffffffffffffffffffffffffffffffffff1603610fc6576040517f08c379a0000000000000000000000000000000000000000000000000000000008152600401610fbd90613abd565b60405180910390fd5b600360008373ffffffffffffffffffffffffffffffffffffffff1673ffffffffffffffffffffffffffffffffffffffff168152602001908152602001600020549050919050565b6060600061102c60086000858152602001908152602001600020611e37565b67ffffffffffffffff81111561104557611044612c2b565b5b6040519080825280602002602001820160405280156110735781602001602082028036833780820191505090505b50905060005b61109460086000868152602001908152602001600020611e37565b811015611120576110c08160086000878152602001908152602001600020611e4c90919063ffffffff16565b8282815181106110d3576110d261360c565b5b602002602001019073ffffffffffffffffffffffffffffffffffffffff16908173ffffffffffffffffffffffffffffffffffffffff168152505080806111189061366a565b915050611079565b5080915050919050565b60606001805461113990613425565b80601f016020809104026020016040519081016040528092919081815260200182805461116590613425565b80156111b25780601f10611187576101008083540402835291602001916111b2565b820191906000526020600020905b81548152906001019060200180831161119557829003601f168201915b5050505050905090565b6111ce6111c76116e5565b8383611e66565b5050565b6111e36111dd6116e5565b836117a6565b611222576040517f08c379a0000000000000000000000000000000000000000000000000000000008152600401611219906135ec565b60405180910390fd5b61122e84848484611fd2565b50505050565b6000602082511461127a576040517f08c379a000000000000000000000000000000000000000000000000000000000815260040161127190613b75565b60405180910390fd5b82518451146112be576040517f08c379a00000000000000000000000000000000000000000000000000000000081526004016112b590613c07565b60405180910390fd5b6112ce8660003088888888611ad0565b600080602060003690506112e29190613c27565b90508035915060005b86518110156113e357611334833389848151811061130c5761130b61360c565b5b60200260200101518985815181106113275761132661360c565b5b602002602001015161202e565b3373ffffffffffffffffffffffffffffffffffffffff16838973ffffffffffffffffffffffffffffffffffffffff167fa18753b0660a8be2cdae03468c860b47c2926433ab16917f323544652803032d8a85815181106113975761139661360c565b5b60200260200101518a86815181106113b2576113b161360c565b5b60200260200101516040516113c89291906139b6565b60405180910390a480806113db9061366a565b9150506112eb565b5063bc197c8160e01b9250505095945050505050565b60606114048261169a565b600061140e6121c9565b9050600081511161142e5760405180602001604052806000815250611459565b80611438846121e0565b604051602001611449929190613c97565b6040516020818303038152906040525b915050919050565b6000600560008473ffffffffffffffffffffffffffffffffffffffff1673ffffffffffffffffffffffffffffffffffffffff16815260200190815260200160002060008373ffffffffffffffffffffffffffffffffffffffff1673ffffffffffffffffffffffffffffffffffffffff16815260200190815260200160002060009054906101000a900460ff16905092915050565b600660205282600052604060002060205281600052604060002060205280600052604060002060009250925050505481565b6000602082511461156d576040517f08c379a000000000000000000000000000000000000000000000000000000000815260040161156490613b75565b60405180910390fd5b61158d866000308861157e89611dbd565b61158789611dbd565b88611ad0565b600080602060003690506115a19190613c27565b9050803591506115b38233888861202e565b3373ffffffffffffffffffffffffffffffffffffffff16828873ffffffffffffffffffffffffffffffffffffffff167fa18753b0660a8be2cdae03468c860b47c2926433ab16917f323544652803032d89896040516116139291906139b6565b60405180910390a463f23a6e6160e01b9250505095945050505050565b60007f01ffc9a7000000000000000000000000000000000000000000000000000000007bffffffffffffffffffffffffffffffffffffffffffffffffffffffff1916827bffffffffffffffffffffffffffffffffffffffffffffffffffffffff1916149050919050565b6116a381612340565b6116e2576040517f08c379a00000000000000000000000000000000000000000000000000000000081526004016116d990613a2b565b60405180910390fd5b50565b600033905090565b816004600083815260200190815260200160002060006101000a81548173ffffffffffffffffffffffffffffffffffffffff021916908373ffffffffffffffffffffffffffffffffffffffff160217905550808273ffffffffffffffffffffffffffffffffffffffff1661176083610ea5565b73ffffffffffffffffffffffffffffffffffffffff167f8c5be1e5ebec7d5bd14f71427d1e84f3dd0314c0f7b2291e5b200ac8c7c3b92560405160405180910390a45050565b6000806117b283610ea5565b90508073ffffffffffffffffffffffffffffffffffffffff168473ffffffffffffffffffffffffffffffffffffffff1614806117f457506117f38185611461565b5b8061183257508373ffffffffffffffffffffffffffffffffffffffff1661181a846105f0565b73ffffffffffffffffffffffffffffffffffffffff16145b91505092915050565b8273ffffffffffffffffffffffffffffffffffffffff1661185b82610ea5565b73ffffffffffffffffffffffffffffffffffffffff16146118b1576040517f08c379a00000000000000000000000000000000000000000000000000000000081526004016118a890613d2d565b60405180910390fd5b600073ffffffffffffffffffffffffffffffffffffffff168273ffffffffffffffffffffffffffffffffffffffff1603611920576040517f08c379a000000000000000000000000000000000000000000000000000000000815260040161191790613dbf565b60405180910390fd5b61192b8383836123ac565b6119366000826116ed565b6001600360008573ffffffffffffffffffffffffffffffffffffffff1673ffffffffffffffffffffffffffffffffffffffff16815260200190815260200160002060008282546119869190613c27565b925050819055506001600360008473ffffffffffffffffffffffffffffffffffffffff1673ffffffffffffffffffffffffffffffffffffffff16815260200190815260200160002060008282546119dd9190613ddf565b92505081905550816002600083815260200190815260200160002060006101000a81548173ffffffffffffffffffffffffffffffffffffffff021916908373ffffffffffffffffffffffffffffffffffffffff160217905550808273ffffffffffffffffffffffffffffffffffffffff168473ffffffffffffffffffffffffffffffffffffffff167fddf252ad1be2c89b69c2b068fc378daa952ba7f163c4a11628f55a4df523b3ef60405160405180910390a4611a9c8383836123b1565b505050565b6000611aaf826000016123b6565b9050919050565b6000611ac583600001836123c7565b60001c905092915050565b50505050505050565b600081141580611b4a5750806006600086815260200190815260200160002060008573ffffffffffffffffffffffffffffffffffffffff1673ffffffffffffffffffffffffffffffffffffffff16815260200190815260200160002060008481526020019081526020016000205410155b611b89576040517f08c379a0000000000000000000000000000000000000000000000000000000008152600401611b8090613e85565b60405180910390fd5b806006600086815260200190815260200160002060008573ffffffffffffffffffffffffffffffffffffffff1673ffffffffffffffffffffffffffffffffffffffff16815260200190815260200160002060008481526020019081526020016000206000828254611bfa9190613c27565b9250508190555060006006600086815260200190815260200160002060008573ffffffffffffffffffffffffffffffffffffffff1673ffffffffffffffffffffffffffffffffffffffff16815260200190815260200160002060008481526020019081526020016000205403611db757611ccc84600760008673ffffffffffffffffffffffffffffffffffffffff1673ffffffffffffffffffffffffffffffffffffffff16815260200190815260200160002060008581526020019081526020016000206123f290919063ffffffff16565b50611d2f826009600087815260200190815260200160002060008673ffffffffffffffffffffffffffffffffffffffff1673ffffffffffffffffffffffffffffffffffffffff1681526020019081526020016000206123f290919063ffffffff16565b506000611d8a6009600087815260200190815260200160002060008673ffffffffffffffffffffffffffffffffffffffff1673ffffffffffffffffffffffffffffffffffffffff168152602001908152602001600020611aa1565b03611db657611db4836008600087815260200190815260200160002061240c90919063ffffffff16565b505b5b50505050565b60606000600167ffffffffffffffff811115611ddc57611ddb612c2b565b5b604051908082528060200260200182016040528015611e0a5781602001602082028036833780820191505090505b5090508281600081518110611e2257611e2161360c565b5b60200260200101818152505080915050919050565b6000611e45826000016123b6565b9050919050565b6000611e5b83600001836123c7565b60001c905092915050565b8173ffffffffffffffffffffffffffffffffffffffff168373ffffffffffffffffffffffffffffffffffffffff1603611ed4576040517f08c379a0000000000000000000000000000000000000000000000000000000008152600401611ecb90613ef1565b60405180910390fd5b80600560008573ffffffffffffffffffffffffffffffffffffffff1673ffffffffffffffffffffffffffffffffffffffff16815260200190815260200160002060008473ffffffffffffffffffffffffffffffffffffffff1673ffffffffffffffffffffffffffffffffffffffff16815260200190815260200160002060006101000a81548160ff0219169083151502179055508173ffffffffffffffffffffffffffffffffffffffff168373ffffffffffffffffffffffffffffffffffffffff167f17307eab39ab6107e8899845ad3d59bd9653f200f220920489ca2b5937696c3183604051611fc591906128bb565b60405180910390a3505050565b611fdd84848461183b565b611fe98484848461243c565b612028576040517f08c379a000000000000000000000000000000000000000000000000000000000815260040161201f90613f83565b60405180910390fd5b50505050565b61205383600860008781526020019081526020016000206125c390919063ffffffff16565b61207e5761207c83600860008781526020019081526020016000206125f390919063ffffffff16565b505b60006006600086815260200190815260200160002060008573ffffffffffffffffffffffffffffffffffffffff1673ffffffffffffffffffffffffffffffffffffffff1681526020019081526020016000206000848152602001908152602001600020540361214b57612149826009600087815260200190815260200160002060008673ffffffffffffffffffffffffffffffffffffffff1673ffffffffffffffffffffffffffffffffffffffff16815260200190815260200160002061262390919063ffffffff16565b505b806006600086815260200190815260200160002060008573ffffffffffffffffffffffffffffffffffffffff1673ffffffffffffffffffffffffffffffffffffffff168152602001908152602001600020600084815260200190815260200160002060008282546121bc9190613ddf565b9250508190555050505050565b606060405180602001604052806000815250905090565b606060008203612227576040518060400160405280600181526020017f3000000000000000000000000000000000000000000000000000000000000000815250905061233b565b600082905060005b600082146122595780806122429061366a565b915050600a826122529190613fd2565b915061222f565b60008167ffffffffffffffff81111561227557612274612c2b565b5b6040519080825280601f01601f1916602001820160405280156122a75781602001600182028036833780820191505090505b5090505b60008514612334576001826122c09190613c27565b9150600a856122cf9190614003565b60306122db9190613ddf565b60f81b8183815181106122f1576122f061360c565b5b60200101907effffffffffffffffffffffffffffffffffffffffffffffffffffffffffffff1916908160001a905350600a8561232d9190613fd2565b94506122ab565b8093505050505b919050565b60008073ffffffffffffffffffffffffffffffffffffffff166002600084815260200190815260200160002060009054906101000a900473ffffffffffffffffffffffffffffffffffffffff1673ffffffffffffffffffffffffffffffffffffffff1614159050919050565b505050565b505050565b600081600001805490509050919050565b60008260000182815481106123df576123de61360c565b5b9060005260206000200154905092915050565b6000612404836000018360001b61263d565b905092915050565b6000612434836000018373ffffffffffffffffffffffffffffffffffffffff1660001b61263d565b905092915050565b600061245d8473ffffffffffffffffffffffffffffffffffffffff16612751565b156125b6578373ffffffffffffffffffffffffffffffffffffffff1663150b7a026124866116e5565b8786866040518563ffffffff1660e01b81526004016124a89493929190614034565b6020604051808303816000875af19250505080156124e457506040513d601f19601f820116820180604052508101906124e19190614095565b60015b612566573d8060008114612514576040519150601f19603f3d011682016040523d82523d6000602084013e612519565b606091505b50600081510361255e576040517f08c379a000000000000000000000000000000000000000000000000000000000815260040161255590613f83565b60405180910390fd5b805181602001fd5b63150b7a0260e01b7bffffffffffffffffffffffffffffffffffffffffffffffffffffffff1916817bffffffffffffffffffffffffffffffffffffffffffffffffffffffff1916149150506125bb565b600190505b949350505050565b60006125eb836000018373ffffffffffffffffffffffffffffffffffffffff1660001b612774565b905092915050565b600061261b836000018373ffffffffffffffffffffffffffffffffffffffff1660001b612797565b905092915050565b6000612635836000018360001b612797565b905092915050565b6000808360010160008481526020019081526020016000205490506000811461274557600060018261266f9190613c27565b90506000600186600001805490506126879190613c27565b90508181146126f65760008660000182815481106126a8576126a761360c565b5b90600052602060002001549050808760000184815481106126cc576126cb61360c565b5b90600052602060002001819055508387600101600083815260200190815260200160002081905550505b8560000180548061270a576127096140c2565b5b60019003818190600052602060002001600090559055856001016000868152602001908152602001600020600090556001935050505061274b565b60009150505b92915050565b6000808273ffffffffffffffffffffffffffffffffffffffff163b119050919050565b600080836001016000848152602001908152602001600020541415905092915050565b60006127a38383612774565b6127fc578260000182908060018154018082558091505060019003906000526020600020016000909190919091505582600001805490508360010160008481526020019081526020016000208190555060019050612801565b600090505b92915050565b6000604051905090565b600080fd5b600080fd5b60007fffffffff0000000000000000000000000000000000000000000000000000000082169050919050565b6128508161281b565b811461285b57600080fd5b50565b60008135905061286d81612847565b92915050565b60006020828403121561288957612888612811565b5b60006128978482850161285e565b91505092915050565b60008115159050919050565b6128b5816128a0565b82525050565b60006020820190506128d060008301846128ac565b92915050565b600081519050919050565b600082825260208201905092915050565b60005b838110156129105780820151818401526020810190506128f5565b60008484015250505050565b6000601f19601f8301169050919050565b6000612938826128d6565b61294281856128e1565b93506129528185602086016128f2565b61295b8161291c565b840191505092915050565b60006020820190508181036000830152612980818461292d565b905092915050565b6000819050919050565b61299b81612988565b81146129a657600080fd5b50565b6000813590506129b881612992565b92915050565b6000602082840312156129d4576129d3612811565b5b60006129e2848285016129a9565b91505092915050565b600073ffffffffffffffffffffffffffffffffffffffff82169050919050565b6000612a16826129eb565b9050919050565b612a2681612a0b565b82525050565b6000602082019050612a416000830184612a1d565b92915050565b612a5081612a0b565b8114612a5b57600080fd5b50565b600081359050612a6d81612a47565b92915050565b60008060408385031215612a8a57612a89612811565b5b6000612a9885828601612a5e565b9250506020612aa9858286016129a9565b9150509250929050565b600080600060608486031215612acc57612acb612811565b5b6000612ada86828701612a5e565b9350506020612aeb86828701612a5e565b9250506040612afc868287016129a9565b9150509250925092565b60008060408385031215612b1d57612b1c612811565b5b6000612b2b858286016129a9565b9250506020612b3c85828601612a5e565b9150509250929050565b600081519050919050565b600082825260208201905092915050565b6000819050602082019050919050565b612b7b81612988565b82525050565b6000612b8d8383612b72565b60208301905092915050565b6000602082019050919050565b6000612bb182612b46565b612bbb8185612b51565b9350612bc683612b62565b8060005b83811015612bf7578151612bde8882612b81565b9750612be983612b99565b925050600181019050612bca565b5085935050505092915050565b60006020820190508181036000830152612c1e8184612ba6565b905092915050565b600080fd5b7f4e487b7100000000000000000000000000000000000000000000000000000000600052604160045260246000fd5b612c638261291c565b810181811067ffffffffffffffff82111715612c8257612c81612c2b565b5b80604052505050565b6000612c95612807565b9050612ca18282612c5a565b919050565b600067ffffffffffffffff821115612cc157612cc0612c2b565b5b602082029050602081019050919050565b600080fd5b6000612cea612ce584612ca6565b612c8b565b90508083825260208201905060208402830185811115612d0d57612d0c612cd2565b5b835b81811015612d365780612d2288826129a9565b845260208401935050602081019050612d0f565b5050509392505050565b600082601f830112612d5557612d54612c26565b5b8135612d65848260208601612cd7565b91505092915050565b600080fd5b600067ffffffffffffffff821115612d8e57612d8d612c2b565b5b612d978261291c565b9050602081019050919050565b82818337600083830152505050565b6000612dc6612dc184612d73565b612c8b565b905082815260208101848484011115612de257612de1612d6e565b5b612ded848285612da4565b509392505050565b600082601f830112612e0a57612e09612c26565b5b8135612e1a848260208601612db3565b91505092915050565b60008060008060008060c08789031215612e4057612e3f612811565b5b6000612e4e89828a016129a9565b9650506020612e5f89828a01612a5e565b9550506040612e7089828a01612a5e565b945050606087013567ffffffffffffffff811115612e9157612e90612816565b5b612e9d89828a01612d40565b935050608087013567ffffffffffffffff811115612ebe57612ebd612816565b5b612eca89828a01612d40565b92505060a087013567ffffffffffffffff811115612eeb57612eea612816565b5b612ef789828a01612df5565b9150509295509295509295565b60008060008060008060c08789031215612f2157612f20612811565b5b6000612f2f89828a016129a9565b9650506020612f4089828a01612a5e565b9550506040612f5189828a01612a5e565b9450506060612f6289828a016129a9565b9350506080612f7389828a016129a9565b92505060a087013567ffffffffffffffff811115612f9457612f93612816565b5b612fa089828a01612df5565b9150509295509295509295565b600080600060608486031215612fc657612fc5612811565b5b6000612fd4868287016129a9565b9350506020612fe586828701612a5e565b9250506040612ff6868287016129a9565b9150509250925092565b61300981612988565b82525050565b60006020820190506130246000830184613000565b92915050565b6000602082840312156130405761303f612811565b5b600061304e84828501612a5e565b91505092915050565b600081519050919050565b600082825260208201905092915050565b6000819050602082019050919050565b61308c81612a0b565b82525050565b600061309e8383613083565b60208301905092915050565b6000602082019050919050565b60006130c282613057565b6130cc8185613062565b93506130d783613073565b8060005b838110156131085781516130ef8882613092565b97506130fa836130aa565b9250506001810190506130db565b5085935050505092915050565b6000602082019050818103600083015261312f81846130b7565b905092915050565b613140816128a0565b811461314b57600080fd5b50565b60008135905061315d81613137565b92915050565b6000806040838503121561317a57613179612811565b5b600061318885828601612a5e565b92505060206131998582860161314e565b9150509250929050565b600080600080608085870312156131bd576131bc612811565b5b60006131cb87828801612a5e565b94505060206131dc87828801612a5e565b93505060406131ed878288016129a9565b925050606085013567ffffffffffffffff81111561320e5761320d612816565b5b61321a87828801612df5565b91505092959194509250565b600080600080600060a0868803121561324257613241612811565b5b600061325088828901612a5e565b955050602061326188828901612a5e565b945050604086013567ffffffffffffffff81111561328257613281612816565b5b61328e88828901612d40565b935050606086013567ffffffffffffffff8111156132af576132ae612816565b5b6132bb88828901612d40565b925050608086013567ffffffffffffffff8111156132dc576132db612816565b5b6132e888828901612df5565b9150509295509295909350565b6132fe8161281b565b82525050565b600060208201905061331960008301846132f5565b92915050565b6000806040838503121561333657613335612811565b5b600061334485828601612a5e565b925050602061335585828601612a5e565b9150509250929050565b600080600080600060a0868803121561337b5761337a612811565b5b600061338988828901612a5e565b955050602061339a88828901612a5e565b94505060406133ab888289016129a9565b93505060606133bc888289016129a9565b925050608086013567ffffffffffffffff8111156133dd576133dc612816565b5b6133e988828901612df5565b9150509295509295909350565b7f4e487b7100000000000000000000000000000000000000000000000000000000600052602260045260246000fd5b6000600282049050600182168061343d57607f821691505b6020821081036134505761344f6133f6565b5b50919050565b7f4552433732313a20617070726f76616c20746f2063757272656e74206f776e6560008201527f7200000000000000000000000000000000000000000000000000000000000000602082015250565b60006134b26021836128e1565b91506134bd82613456565b604082019050919050565b600060208201905081810360008301526134e1816134a5565b9050919050565b7f4552433732313a20617070726f76652063616c6c6572206973206e6f7420746f60008201527f6b656e206f776e6572206e6f7220617070726f76656420666f7220616c6c0000602082015250565b6000613544603e836128e1565b915061354f826134e8565b604082019050919050565b6000602082019050818103600083015261357381613537565b9050919050565b7f4552433732313a2063616c6c6572206973206e6f7420746f6b656e206f776e6560008201527f72206e6f7220617070726f766564000000000000000000000000000000000000602082015250565b60006135d6602e836128e1565b91506135e18261357a565b604082019050919050565b60006020820190508181036000830152613605816135c9565b9050919050565b7f4e487b7100000000000000000000000000000000000000000000000000000000600052603260045260246000fd5b7f4e487b7100000000000000000000000000000000000000000000000000000000600052601160045260246000fd5b600061367582612988565b91507fffffffffffffffffffffffffffffffffffffffffffffffffffffffffffffffff82036136a7576136a661363b565b5b600182019050919050565b7f4552433939383a2069647320616e6420616d6f756e7473206c656e677468206d60008201527f69736d6174636800000000000000000000000000000000000000000000000000602082015250565b600061370e6027836128e1565b9150613719826136b2565b604082019050919050565b6000602082019050818103600083015261373d81613701565b9050919050565b7f4552433939383a207472616e7366657220746f20746865207a65726f2061646460008201527f7265737300000000000000000000000000000000000000000000000000000000602082015250565b60006137a06024836128e1565b91506137ab82613744565b604082019050919050565b600060208201905081810360008301526137cf81613793565b9050919050565b7f4552433939383a2063616c6c6572206973206e6f74206f776e6572206e6f722060008201527f617070726f766564000000000000000000000000000000000000000000000000602082015250565b60006138326028836128e1565b915061383d826137d6565b604082019050919050565b6000602082019050818103600083015261386181613825565b9050919050565b600081519050919050565b600082825260208201905092915050565b600061388f82613868565b6138998185613873565b93506138a98185602086016128f2565b6138b28161291c565b840191505092915050565b600060a0820190506138d26000830188612a1d565b6138df6020830187612a1d565b81810360408301526138f18186612ba6565b905081810360608301526139058185612ba6565b905081810360808301526139198184613884565b90509695505050505050565b6000604082019050818103600083015261393f8185612ba6565b905081810360208301526139538184612ba6565b90509392505050565b600060a0820190506139716000830188612a1d565b61397e6020830187612a1d565b61398b6040830186613000565b6139986060830185613000565b81810360808301526139aa8184613884565b90509695505050505050565b60006040820190506139cb6000830185613000565b6139d86020830184613000565b9392505050565b7f4552433732313a20696e76616c696420746f6b656e2049440000000000000000600082015250565b6000613a156018836128e1565b9150613a20826139df565b602082019050919050565b60006020820190508181036000830152613a4481613a08565b9050919050565b7f4552433732313a2061646472657373207a65726f206973206e6f74206120766160008201527f6c6964206f776e65720000000000000000000000000000000000000000000000602082015250565b6000613aa76029836128e1565b9150613ab282613a4b565b604082019050919050565b60006020820190508181036000830152613ad681613a9a565b9050919050565b7f4552433939383a2064617461206d75737420636f6e7461696e2074686520756e60008201527f697175652075696e7432353620746f6b656e496420746f207472616e7366657260208201527f20746865206368696c6420746f6b656e20746f00000000000000000000000000604082015250565b6000613b5f6053836128e1565b9150613b6a82613add565b606082019050919050565b60006020820190508181036000830152613b8e81613b52565b9050919050565b7f455243313135353a2069647320616e642076616c756573206c656e677468206d60008201527f69736d6174636800000000000000000000000000000000000000000000000000602082015250565b6000613bf16027836128e1565b9150613bfc82613b95565b604082019050919050565b60006020820190508181036000830152613c2081613be4565b9050919050565b6000613c3282612988565b9150613c3d83612988565b9250828203905081811115613c5557613c5461363b565b5b92915050565b600081905092915050565b6000613c71826128d6565b613c7b8185613c5b565b9350613c8b8185602086016128f2565b80840191505092915050565b6000613ca38285613c66565b9150613caf8284613c66565b91508190509392505050565b7f4552433732313a207472616e736665722066726f6d20696e636f72726563742060008201527f6f776e6572000000000000000000000000000000000000000000000000000000602082015250565b6000613d176025836128e1565b9150613d2282613cbb565b604082019050919050565b60006020820190508181036000830152613d4681613d0a565b9050919050565b7f4552433732313a207472616e7366657220746f20746865207a65726f2061646460008201527f7265737300000000000000000000000000000000000000000000000000000000602082015250565b6000613da96024836128e1565b9150613db482613d4d565b604082019050919050565b60006020820190508181036000830152613dd881613d9c565b9050919050565b6000613dea82612988565b9150613df583612988565b9250828201905080821115613e0d57613e0c61363b565b5b92915050565b7f4552433939383a20696e73756666696369656e74206368696c642062616c616e60008201527f636520666f72207472616e736665720000000000000000000000000000000000602082015250565b6000613e6f602f836128e1565b9150613e7a82613e13565b604082019050919050565b60006020820190508181036000830152613e9e81613e62565b9050919050565b7f4552433732313a20617070726f766520746f2063616c6c657200000000000000600082015250565b6000613edb6019836128e1565b9150613ee682613ea5565b602082019050919050565b60006020820190508181036000830152613f0a81613ece565b9050919050565b7f4552433732313a207472616e7366657220746f206e6f6e20455243373231526560008201527f63656976657220696d706c656d656e7465720000000000000000000000000000602082015250565b6000613f6d6032836128e1565b9150613f7882613f11565b604082019050919050565b60006020820190508181036000830152613f9c81613f60565b9050919050565b7f4e487b7100000000000000000000000000000000000000000000000000000000600052601260045260246000fd5b6000613fdd82612988565b9150613fe883612988565b925082613ff857613ff7613fa3565b5b828204905092915050565b600061400e82612988565b915061401983612988565b92508261402957614028613fa3565b5b828206905092915050565b60006080820190506140496000830187612a1d565b6140566020830186612a1d565b6140636040830185613000565b81810360608301526140758184613884565b905095945050505050565b60008151905061408f81612847565b92915050565b6000602082840312156140ab576140aa612811565b5b60006140b984828501614080565b91505092915050565b7f4e487b7100000000000000000000000000000000000000000000000000000000600052603160045260246000fdfea26469706673582212201dc7d6d2db185a0d717b7973be311b3ae265be30db6c48398d3b36c9f0c2976a64736f6c63430008100033",
  "immutableReferences": {},
  "source": "// SPDX-License-Identifier: UNLICENSED\n\npragma solidity ^0.8.0;\n\n/*\n// for remix\nimport \"https://github.com/OpenZeppelin/openzeppelin-contracts/blob/master/contracts/token/ERC1155/ERC1155.sol\";\nimport \"https://github.com/OpenZeppelin/openzeppelin-contracts/blob/master/contracts/token/ERC1155/ERC1155Receiver.sol\";\nimport \"https://github.com/OpenZeppelin/openzeppelin-contracts/blob/master/contracts/token/ERC721/ERC721.sol\";\nimport \"https://github.com/OpenZeppelin/openzeppelin-contracts/blob/master/contracts/utils/EnumerableSet.sol\";\n*/\n\nimport \"@openzeppelin/contracts/token/ERC1155/ERC1155.sol\";\nimport \"@openzeppelin/contracts/token/ERC1155/IERC1155Receiver.sol\";\nimport \"@openzeppelin/contracts/token/ERC721/ERC721.sol\";\nimport \"@openzeppelin/contracts/utils/structs/EnumerableSet.sol\";\n\nimport \"./IERC998ERC1155TopDown.sol\";\n\ncontract ERC998ERC1155TopDown is ERC721, IERC1155Receiver, IERC998ERC1155TopDown {\n    using EnumerableSet for EnumerableSet.AddressSet;\n    using EnumerableSet for EnumerableSet.UintSet;\n\n    mapping(uint256 => mapping(address => mapping(uint256 => uint256))) public _balances;\n    mapping(address => mapping(uint256 => EnumerableSet.UintSet)) private _holdersOf;\n\n    mapping(uint256 => EnumerableSet.AddressSet) private _childContract;\n    mapping(uint256 => mapping(address => EnumerableSet.UintSet)) private _childsForChildContract;\n\n    constructor(string memory name, string memory symbol, string memory baseURI) ERC721(name, symbol) public {\n        _baseURI();\n    }\n\n    /**\n     * @dev Gives child balance for a specific child contract and child id .\n     */\n    function childBalance(uint256 tokenId, address childContract, uint256 childTokenId) external view override returns(uint256) {\n        return _balances[tokenId][childContract][childTokenId];\n    }\n\n    /**\n     * @dev Gives list of child contract where token ID has childs.\n     */\n    function childContractsFor(uint256 tokenId) override external view returns (address[] memory) {\n        address[] memory childContracts = new address[](_childContract[tokenId].length());\n\n        for(uint256 i = 0; i < _childContract[tokenId].length(); i++) {\n            childContracts[i] = _childContract[tokenId].at(i);\n        }\n\n        return childContracts;\n    }\n\n    /**\n     * @dev Gives list of owned child ID on a child contract by token ID.\n     */\n    function childIdsForOn(uint256 tokenId, address childContract) override external view returns (uint256[] memory) {\n        uint256[] memory childTokenIds = new uint256[](_childsForChildContract[tokenId][childContract].length());\n\n        for(uint256 i = 0; i < _childsForChildContract[tokenId][childContract].length(); i++) {\n            childTokenIds[i] = _childsForChildContract[tokenId][childContract].at(i);\n        }\n\n        return childTokenIds;\n    }\n\n    /**\n     * @dev Transfers child token from a token ID.\n     */\n    function safeTransferChildFrom(uint256 fromTokenId, address to, address childContract, uint256 childTokenId, uint256 amount, bytes memory data) public override {\n        require(to != address(0), \"ERC998: transfer to the zero address\");\n\n        address operator = _msgSender();\n        require(\n            ownerOf(fromTokenId) == operator ||\n            isApprovedForAll(ownerOf(fromTokenId), operator),\n            \"ERC998: caller is not owner nor approved\"\n        );\n\n        _beforeChildTransfer(operator, fromTokenId, to, childContract, _asSingletonArray(childTokenId), _asSingletonArray(amount), data);\n\n        _removeChild(fromTokenId, childContract, childTokenId, amount);\n\n        // TODO: maybe check if to == this\n        ERC1155(childContract).safeTransferFrom(address(this), to, childTokenId, amount, data);\n        emit TransferSingleChild(fromTokenId, to, childContract, childTokenId, amount);\n    }\n\n    /**\n     * @dev Transfers batch of child tokens from a token ID.\n     */\n    function safeBatchTransferChildFrom(uint256 fromTokenId, address to, address childContract, uint256[] memory childTokenIds, uint256[] memory amounts, bytes memory data) public override {\n        require(childTokenIds.length == amounts.length, \"ERC998: ids and amounts length mismatch\");\n        require(to != address(0), \"ERC998: transfer to the zero address\");\n\n        address operator = _msgSender();\n        require(\n            ownerOf(fromTokenId) == operator ||\n            isApprovedForAll(ownerOf(fromTokenId), operator),\n            \"ERC998: caller is not owner nor approved\"\n        );\n\n        _beforeChildTransfer(operator, fromTokenId, to, childContract, childTokenIds, amounts, data);\n\n        for (uint256 i = 0; i < childTokenIds.length; ++i) {\n            uint256 childTokenId = childTokenIds[i];\n            uint256 amount = amounts[i];\n\n            _removeChild(fromTokenId, childContract, childTokenId, amount);\n        }\n        ERC1155(childContract).safeBatchTransferFrom(address(this), to, childTokenIds, amounts, data);\n        emit TransferBatchChild(fromTokenId, to, childContract, childTokenIds, amounts);\n    }\n\n    /**\n     * @dev Receives a child token, the receiver token ID must be encoded in the\n     * field data.\n     */\n    function onERC1155Received(address operator, address from, uint256 id, uint256 amount, bytes memory data) virtual public override returns(bytes4) {\n        require(data.length == 32, \"ERC998: data must contain the unique uint256 tokenId to transfer the child token to\");\n        _beforeChildTransfer(operator, 0, address(this), from, _asSingletonArray(id), _asSingletonArray(amount), data);\n\n        uint256 _receiverTokenId;\n        uint256 _index = msg.data.length - 32;\n        assembly {_receiverTokenId := calldataload(_index)}\n\n        _receiveChild(_receiverTokenId, msg.sender, id, amount);\n        emit ReceivedChild(from, _receiverTokenId, msg.sender, id, amount);\n\n        return this.onERC1155Received.selector;\n    }\n\n    /**\n     * @dev Receives a batch of child tokens, the receiver token ID must be\n     * encoded in the field data.\n     */\n    function onERC1155BatchReceived(address operator, address from, uint256[] memory ids, uint256[] memory values, bytes memory data) virtual public override returns(bytes4) {\n        require(data.length == 32, \"ERC998: data must contain the unique uint256 tokenId to transfer the child token to\");\n        require(ids.length == values.length, \"ERC1155: ids and values length mismatch\");\n        _beforeChildTransfer(operator, 0, address(this), from, ids, values, data);\n\n        uint256 _receiverTokenId;\n        uint256 _index = msg.data.length - 32;\n        assembly {_receiverTokenId := calldataload(_index)}\n        for(uint256 i = 0; i < ids.length; i++) {\n            _receiveChild(_receiverTokenId, msg.sender, ids[i], values[i]);\n            emit ReceivedChild(from, _receiverTokenId, msg.sender, ids[i], values[i]);\n        }\n        return this.onERC1155BatchReceived.selector;\n    }\n\n    function _receiveChild(uint256 tokenId, address childContract, uint256 childTokenId, uint256 amount) internal virtual {\n        if(!_childContract[tokenId].contains(childContract)) {\n            _childContract[tokenId].add(childContract);\n        }\n        if(_balances[tokenId][childContract][childTokenId] == 0) {\n            _childsForChildContract[tokenId][childContract].add(childTokenId);\n        }\n        _balances[tokenId][childContract][childTokenId] += amount;\n    }\n\n    function _removeChild(uint256 tokenId, address childContract, uint256 childTokenId, uint256 amount) internal virtual {\n        require(amount != 0 || _balances[tokenId][childContract][childTokenId] >= amount, \"ERC998: insufficient child balance for transfer\");\n        _balances[tokenId][childContract][childTokenId] -= amount;\n        if(_balances[tokenId][childContract][childTokenId] == 0) {\n            _holdersOf[childContract][childTokenId].remove(tokenId);\n            _childsForChildContract[tokenId][childContract].remove(childTokenId);\n            if(_childsForChildContract[tokenId][childContract].length() == 0) {\n                _childContract[tokenId].remove(childContract);\n            }\n        }\n    }\n\n    function _beforeChildTransfer(\n        address operator,\n        uint256 fromTokenId,\n        address to,\n        address childContract,\n        uint256[] memory ids,\n        uint256[] memory amounts,\n        bytes memory data\n    )\n        internal virtual\n    { }\n\n    function _asSingletonArray(uint256 element) private pure returns (uint256[] memory) {\n        uint256[] memory array = new uint256[](1);\n        array[0] = element;\n\n        return array;\n    }\n}\n",
  "sourcePath": "/home/prams25/thesisB/composo/supp_chain/truffle/contracts/ERC998ERC1155TopDown.sol",
  "compiler": {
    "name": "solc",
    "version": "0.8.16+commit.07a7930e.Emscripten.clang"
  },
  "schemaVersion": "3.4.7",
  "updatedAt": "2022-08-17T12:53:01.642Z",
  "networkType": "ethereum",
  "devdoc": {
    "kind": "dev",
    "methods": {
      "approve(address,uint256)": {
        "details": "See {IERC721-approve}."
      },
      "balanceOf(address)": {
        "details": "See {IERC721-balanceOf}."
      },
      "childBalance(uint256,address,uint256)": {
        "details": "Gives child balance for a specific child contract and child id ."
      },
      "childContractsFor(uint256)": {
        "details": "Gives list of child contract where token ID has childs."
      },
      "childIdsForOn(uint256,address)": {
        "details": "Gives list of owned child ID on a child contract by token ID."
      },
      "getApproved(uint256)": {
        "details": "See {IERC721-getApproved}."
      },
      "isApprovedForAll(address,address)": {
        "details": "See {IERC721-isApprovedForAll}."
      },
      "name()": {
        "details": "See {IERC721Metadata-name}."
      },
      "onERC1155BatchReceived(address,address,uint256[],uint256[],bytes)": {
        "details": "Receives a batch of child tokens, the receiver token ID must be encoded in the field data."
      },
      "onERC1155Received(address,address,uint256,uint256,bytes)": {
        "details": "Receives a child token, the receiver token ID must be encoded in the field data."
      },
      "ownerOf(uint256)": {
        "details": "See {IERC721-ownerOf}."
      },
      "safeBatchTransferChildFrom(uint256,address,address,uint256[],uint256[],bytes)": {
        "details": "Transfers batch of child tokens from a token ID."
      },
      "safeTransferChildFrom(uint256,address,address,uint256,uint256,bytes)": {
        "details": "Transfers child token from a token ID."
      },
      "safeTransferFrom(address,address,uint256)": {
        "details": "See {IERC721-safeTransferFrom}."
      },
      "safeTransferFrom(address,address,uint256,bytes)": {
        "details": "See {IERC721-safeTransferFrom}."
      },
      "setApprovalForAll(address,bool)": {
        "details": "See {IERC721-setApprovalForAll}."
      },
      "supportsInterface(bytes4)": {
        "details": "See {IERC165-supportsInterface}."
      },
      "symbol()": {
        "details": "See {IERC721Metadata-symbol}."
      },
      "tokenURI(uint256)": {
        "details": "See {IERC721Metadata-tokenURI}."
      },
      "transferFrom(address,address,uint256)": {
        "details": "See {IERC721-transferFrom}."
      }
    },
    "version": 1
  },
  "userdoc": {
    "kind": "user",
    "methods": {},
    "version": 1
  }
}