{
  "contractName": "ERC998ERC1155TopDownPresetMinterPauser",
  "abi": [
    {
      "inputs": [
        {
          "internalType": "string",
          "name": "name",
          "type": "string"
        },
        {
          "internalType": "string",
          "name": "symbol",
          "type": "string"
        },
        {
          "internalType": "string",
          "name": "baseURI",
          "type": "string"
        }
      ],
      "stateMutability": "nonpayable",
      "type": "constructor"
    },
    {
      "anonymous": false,
      "inputs": [
        {
          "indexed": true,
          "internalType": "address",
          "name": "owner",
          "type": "address"
        },
        {
          "indexed": true,
          "internalType": "address",
          "name": "approved",
          "type": "address"
        },
        {
          "indexed": true,
          "internalType": "uint256",
          "name": "tokenId",
          "type": "uint256"
        }
      ],
      "name": "Approval",
      "type": "event"
    },
    {
      "anonymous": false,
      "inputs": [
        {
          "indexed": true,
          "internalType": "address",
          "name": "owner",
          "type": "address"
        },
        {
          "indexed": true,
          "internalType": "address",
          "name": "operator",
          "type": "address"
        },
        {
          "indexed": false,
          "internalType": "bool",
          "name": "approved",
          "type": "bool"
        }
      ],
      "name": "ApprovalForAll",
      "type": "event"
    },
    {
      "anonymous": false,
      "inputs": [
        {
          "indexed": false,
          "internalType": "address",
          "name": "account",
          "type": "address"
        }
      ],
      "name": "Paused",
      "type": "event"
    },
    {
      "anonymous": false,
      "inputs": [
        {
          "indexed": true,
          "internalType": "address",
          "name": "from",
          "type": "address"
        },
        {
          "indexed": true,
          "internalType": "uint256",
          "name": "toTokenId",
          "type": "uint256"
        },
        {
          "indexed": true,
          "internalType": "address",
          "name": "childContract",
          "type": "address"
        },
        {
          "indexed": false,
          "internalType": "uint256",
          "name": "childTokenId",
          "type": "uint256"
        },
        {
          "indexed": false,
          "internalType": "uint256",
          "name": "amount",
          "type": "uint256"
        }
      ],
      "name": "ReceivedChild",
      "type": "event"
    },
    {
      "anonymous": false,
      "inputs": [
        {
          "indexed": true,
          "internalType": "bytes32",
          "name": "role",
          "type": "bytes32"
        },
        {
          "indexed": true,
          "internalType": "bytes32",
          "name": "previousAdminRole",
          "type": "bytes32"
        },
        {
          "indexed": true,
          "internalType": "bytes32",
          "name": "newAdminRole",
          "type": "bytes32"
        }
      ],
      "name": "RoleAdminChanged",
      "type": "event"
    },
    {
      "anonymous": false,
      "inputs": [
        {
          "indexed": true,
          "internalType": "bytes32",
          "name": "role",
          "type": "bytes32"
        },
        {
          "indexed": true,
          "internalType": "address",
          "name": "account",
          "type": "address"
        },
        {
          "indexed": true,
          "internalType": "address",
          "name": "sender",
          "type": "address"
        }
      ],
      "name": "RoleGranted",
      "type": "event"
    },
    {
      "anonymous": false,
      "inputs": [
        {
          "indexed": true,
          "internalType": "bytes32",
          "name": "role",
          "type": "bytes32"
        },
        {
          "indexed": true,
          "internalType": "address",
          "name": "account",
          "type": "address"
        },
        {
          "indexed": true,
          "internalType": "address",
          "name": "sender",
          "type": "address"
        }
      ],
      "name": "RoleRevoked",
      "type": "event"
    },
    {
      "anonymous": false,
      "inputs": [
        {
          "indexed": true,
          "internalType": "address",
          "name": "from",
          "type": "address"
        },
        {
          "indexed": true,
          "internalType": "address",
          "name": "to",
          "type": "address"
        },
        {
          "indexed": true,
          "internalType": "uint256",
          "name": "tokenId",
          "type": "uint256"
        }
      ],
      "name": "Transfer",
      "type": "event"
    },
    {
      "anonymous": false,
      "inputs": [
        {
          "indexed": true,
          "internalType": "uint256",
          "name": "fromTokenId",
          "type": "uint256"
        },
        {
          "indexed": true,
          "internalType": "address",
          "name": "to",
          "type": "address"
        },
        {
          "indexed": true,
          "internalType": "address",
          "name": "childContract",
          "type": "address"
        },
        {
          "indexed": false,
          "internalType": "uint256[]",
          "name": "childTokenIds",
          "type": "uint256[]"
        },
        {
          "indexed": false,
          "internalType": "uint256[]",
          "name": "amounts",
          "type": "uint256[]"
        }
      ],
      "name": "TransferBatchChild",
      "type": "event"
    },
    {
      "anonymous": false,
      "inputs": [
        {
          "indexed": true,
          "internalType": "uint256",
          "name": "fromTokenId",
          "type": "uint256"
        },
        {
          "indexed": true,
          "internalType": "address",
          "name": "to",
          "type": "address"
        },
        {
          "indexed": true,
          "internalType": "address",
          "name": "childContract",
          "type": "address"
        },
        {
          "indexed": false,
          "internalType": "uint256",
          "name": "childTokenId",
          "type": "uint256"
        },
        {
          "indexed": false,
          "internalType": "uint256",
          "name": "amount",
          "type": "uint256"
        }
      ],
      "name": "TransferSingleChild",
      "type": "event"
    },
    {
      "anonymous": false,
      "inputs": [
        {
          "indexed": false,
          "internalType": "address",
          "name": "account",
          "type": "address"
        }
      ],
      "name": "Unpaused",
      "type": "event"
    },
    {
      "inputs": [],
      "name": "DEFAULT_ADMIN_ROLE",
      "outputs": [
        {
          "internalType": "bytes32",
          "name": "",
          "type": "bytes32"
        }
      ],
      "stateMutability": "view",
      "type": "function",
      "constant": true
    },
    {
      "inputs": [],
      "name": "MINTER_ROLE",
      "outputs": [
        {
          "internalType": "bytes32",
          "name": "",
          "type": "bytes32"
        }
      ],
      "stateMutability": "view",
      "type": "function",
      "constant": true
    },
    {
      "inputs": [],
      "name": "PAUSER_ROLE",
      "outputs": [
        {
          "internalType": "bytes32",
          "name": "",
          "type": "bytes32"
        }
      ],
      "stateMutability": "view",
      "type": "function",
      "constant": true
    },
    {
      "inputs": [
        {
          "internalType": "uint256",
          "name": "",
          "type": "uint256"
        },
        {
          "internalType": "address",
          "name": "",
          "type": "address"
        },
        {
          "internalType": "uint256",
          "name": "",
          "type": "uint256"
        }
      ],
      "name": "_balances",
      "outputs": [
        {
          "internalType": "uint256",
          "name": "",
          "type": "uint256"
        }
      ],
      "stateMutability": "view",
      "type": "function",
      "constant": true
    },
    {
      "inputs": [
        {
          "internalType": "address",
          "name": "to",
          "type": "address"
        },
        {
          "internalType": "uint256",
          "name": "tokenId",
          "type": "uint256"
        }
      ],
      "name": "approve",
      "outputs": [],
      "stateMutability": "nonpayable",
      "type": "function"
    },
    {
      "inputs": [
        {
          "internalType": "address",
          "name": "owner",
          "type": "address"
        }
      ],
      "name": "balanceOf",
      "outputs": [
        {
          "internalType": "uint256",
          "name": "",
          "type": "uint256"
        }
      ],
      "stateMutability": "view",
      "type": "function",
      "constant": true
    },
    {
      "inputs": [
        {
          "internalType": "uint256",
          "name": "tokenId",
          "type": "uint256"
        },
        {
          "internalType": "address",
          "name": "childContract",
          "type": "address"
        },
        {
          "internalType": "uint256",
          "name": "childTokenId",
          "type": "uint256"
        }
      ],
      "name": "childBalance",
      "outputs": [
        {
          "internalType": "uint256",
          "name": "",
          "type": "uint256"
        }
      ],
      "stateMutability": "view",
      "type": "function",
      "constant": true
    },
    {
      "inputs": [
        {
          "internalType": "uint256",
          "name": "tokenId",
          "type": "uint256"
        }
      ],
      "name": "childContractsFor",
      "outputs": [
        {
          "internalType": "address[]",
          "name": "",
          "type": "address[]"
        }
      ],
      "stateMutability": "view",
      "type": "function",
      "constant": true
    },
    {
      "inputs": [
        {
          "internalType": "uint256",
          "name": "tokenId",
          "type": "uint256"
        },
        {
          "internalType": "address",
          "name": "childContract",
          "type": "address"
        }
      ],
      "name": "childIdsOwned",
      "outputs": [
        {
          "internalType": "uint256[]",
          "name": "",
          "type": "uint256[]"
        }
      ],
      "stateMutability": "view",
      "type": "function",
      "constant": true
    },
    {
      "inputs": [
        {
          "internalType": "uint256",
          "name": "tokenId",
          "type": "uint256"
        }
      ],
      "name": "getApproved",
      "outputs": [
        {
          "internalType": "address",
          "name": "",
          "type": "address"
        }
      ],
      "stateMutability": "view",
      "type": "function",
      "constant": true
    },
    {
      "inputs": [
        {
          "internalType": "uint256",
          "name": "tokenID",
          "type": "uint256"
        },
        {
          "internalType": "uint256",
          "name": "childTokenID",
          "type": "uint256"
        }
      ],
      "name": "getChildContract",
      "outputs": [
        {
          "internalType": "address",
          "name": "",
          "type": "address"
        }
      ],
      "stateMutability": "view",
      "type": "function",
      "constant": true
    },
    {
      "inputs": [
        {
          "internalType": "uint256",
          "name": "tokenID",
          "type": "uint256"
        }
      ],
      "name": "getIsERC1155",
      "outputs": [
        {
          "internalType": "bool",
          "name": "",
          "type": "bool"
        }
      ],
      "stateMutability": "view",
      "type": "function",
      "constant": true
    },
    {
      "inputs": [],
      "name": "getMsgSender",
      "outputs": [
        {
          "internalType": "address",
          "name": "",
          "type": "address"
        }
      ],
      "stateMutability": "view",
      "type": "function",
      "constant": true
    },
    {
      "inputs": [
        {
          "internalType": "uint256",
          "name": "tokenID",
          "type": "uint256"
        }
      ],
      "name": "getOwner",
      "outputs": [
        {
          "internalType": "address",
          "name": "",
          "type": "address"
        }
      ],
      "stateMutability": "view",
      "type": "function",
      "constant": true
    },
    {
      "inputs": [
        {
          "internalType": "bytes32",
          "name": "role",
          "type": "bytes32"
        }
      ],
      "name": "getRoleAdmin",
      "outputs": [
        {
          "internalType": "bytes32",
          "name": "",
          "type": "bytes32"
        }
      ],
      "stateMutability": "view",
      "type": "function",
      "constant": true
    },
    {
      "inputs": [
        {
          "internalType": "bytes32",
          "name": "role",
          "type": "bytes32"
        },
        {
          "internalType": "address",
          "name": "account",
          "type": "address"
        }
      ],
      "name": "grantRole",
      "outputs": [],
      "stateMutability": "nonpayable",
      "type": "function"
    },
    {
      "inputs": [
        {
          "internalType": "bytes32",
          "name": "role",
          "type": "bytes32"
        },
        {
          "internalType": "address",
          "name": "account",
          "type": "address"
        }
      ],
      "name": "hasRole",
      "outputs": [
        {
          "internalType": "bool",
          "name": "",
          "type": "bool"
        }
      ],
      "stateMutability": "view",
      "type": "function",
      "constant": true
    },
    {
      "inputs": [
        {
          "internalType": "address",
          "name": "owner",
          "type": "address"
        },
        {
          "internalType": "address",
          "name": "operator",
          "type": "address"
        }
      ],
      "name": "isApprovedForAll",
      "outputs": [
        {
          "internalType": "bool",
          "name": "",
          "type": "bool"
        }
      ],
      "stateMutability": "view",
      "type": "function",
      "constant": true
    },
    {
      "inputs": [
        {
          "internalType": "uint256",
          "name": "",
          "type": "uint256"
        }
      ],
      "name": "isERC1155",
      "outputs": [
        {
          "internalType": "bool",
          "name": "",
          "type": "bool"
        }
      ],
      "stateMutability": "view",
      "type": "function",
      "constant": true
    },
    {
      "inputs": [
        {
          "internalType": "uint256",
          "name": "",
          "type": "uint256"
        }
      ],
      "name": "isERC721",
      "outputs": [
        {
          "internalType": "bool",
          "name": "",
          "type": "bool"
        }
      ],
      "stateMutability": "view",
      "type": "function",
      "constant": true
    },
    {
      "inputs": [],
      "name": "name",
      "outputs": [
        {
          "internalType": "string",
          "name": "",
          "type": "string"
        }
      ],
      "stateMutability": "view",
      "type": "function",
      "constant": true
    },
    {
      "inputs": [
        {
          "internalType": "address",
          "name": "operator",
          "type": "address"
        },
        {
          "internalType": "address",
          "name": "from",
          "type": "address"
        },
        {
          "internalType": "uint256[]",
          "name": "ids",
          "type": "uint256[]"
        },
        {
          "internalType": "uint256[]",
          "name": "values",
          "type": "uint256[]"
        },
        {
          "internalType": "bytes",
          "name": "data",
          "type": "bytes"
        }
      ],
      "name": "onERC1155BatchReceived",
      "outputs": [
        {
          "internalType": "bytes4",
          "name": "",
          "type": "bytes4"
        }
      ],
      "stateMutability": "nonpayable",
      "type": "function"
    },
    {
      "inputs": [
        {
          "internalType": "address",
          "name": "operator",
          "type": "address"
        },
        {
          "internalType": "address",
          "name": "from",
          "type": "address"
        },
        {
          "internalType": "uint256",
          "name": "id",
          "type": "uint256"
        },
        {
          "internalType": "uint256",
          "name": "amount",
          "type": "uint256"
        },
        {
          "internalType": "bytes",
          "name": "data",
          "type": "bytes"
        }
      ],
      "name": "onERC1155Received",
      "outputs": [
        {
          "internalType": "bytes4",
          "name": "",
          "type": "bytes4"
        }
      ],
      "stateMutability": "nonpayable",
      "type": "function"
    },
    {
      "inputs": [
        {
          "internalType": "address",
          "name": "operator",
          "type": "address"
        },
        {
          "internalType": "address",
          "name": "from",
          "type": "address"
        },
        {
          "internalType": "uint256",
          "name": "tokenId",
          "type": "uint256"
        },
        {
          "internalType": "bytes",
          "name": "data",
          "type": "bytes"
        }
      ],
      "name": "onERC721Received",
      "outputs": [
        {
          "internalType": "bytes4",
          "name": "",
          "type": "bytes4"
        }
      ],
      "stateMutability": "nonpayable",
      "type": "function"
    },
    {
      "inputs": [
        {
          "internalType": "uint256",
          "name": "tokenId",
          "type": "uint256"
        }
      ],
      "name": "ownerOf",
      "outputs": [
        {
          "internalType": "address",
          "name": "",
          "type": "address"
        }
      ],
      "stateMutability": "view",
      "type": "function",
      "constant": true
    },
    {
      "inputs": [],
      "name": "paused",
      "outputs": [
        {
          "internalType": "bool",
          "name": "",
          "type": "bool"
        }
      ],
      "stateMutability": "view",
      "type": "function",
      "constant": true
    },
    {
      "inputs": [
        {
          "internalType": "bytes32",
          "name": "role",
          "type": "bytes32"
        },
        {
          "internalType": "address",
          "name": "account",
          "type": "address"
        }
      ],
      "name": "renounceRole",
      "outputs": [],
      "stateMutability": "nonpayable",
      "type": "function"
    },
    {
      "inputs": [
        {
          "internalType": "bytes32",
          "name": "role",
          "type": "bytes32"
        },
        {
          "internalType": "address",
          "name": "account",
          "type": "address"
        }
      ],
      "name": "revokeRole",
      "outputs": [],
      "stateMutability": "nonpayable",
      "type": "function"
    },
    {
      "inputs": [
        {
          "internalType": "uint256",
          "name": "fromTokenId",
          "type": "uint256"
        },
        {
          "internalType": "address",
          "name": "to",
          "type": "address"
        },
        {
          "internalType": "address",
          "name": "childContract",
          "type": "address"
        },
        {
          "internalType": "uint256[]",
          "name": "childTokenIds",
          "type": "uint256[]"
        },
        {
          "internalType": "uint256[]",
          "name": "amounts",
          "type": "uint256[]"
        },
        {
          "internalType": "bytes",
          "name": "data",
          "type": "bytes"
        }
      ],
      "name": "safeBatchTransferChildFrom",
      "outputs": [],
      "stateMutability": "nonpayable",
      "type": "function"
    },
    {
      "inputs": [
        {
          "internalType": "uint256",
          "name": "fromTokenId",
          "type": "uint256"
        },
        {
          "internalType": "address",
          "name": "to",
          "type": "address"
        },
        {
          "internalType": "address",
          "name": "childContract",
          "type": "address"
        },
        {
          "internalType": "uint256",
          "name": "childTokenId",
          "type": "uint256"
        },
        {
          "internalType": "uint256",
          "name": "amount",
          "type": "uint256"
        },
        {
          "internalType": "bytes",
          "name": "data",
          "type": "bytes"
        }
      ],
      "name": "safeTransferChildFrom",
      "outputs": [],
      "stateMutability": "nonpayable",
      "type": "function"
    },
    {
      "inputs": [
        {
          "internalType": "address",
          "name": "from",
          "type": "address"
        },
        {
          "internalType": "address",
          "name": "to",
          "type": "address"
        },
        {
          "internalType": "uint256",
          "name": "tokenId",
          "type": "uint256"
        }
      ],
      "name": "safeTransferFrom",
      "outputs": [],
      "stateMutability": "nonpayable",
      "type": "function"
    },
    {
      "inputs": [
        {
          "internalType": "address",
          "name": "from",
          "type": "address"
        },
        {
          "internalType": "address",
          "name": "to",
          "type": "address"
        },
        {
          "internalType": "uint256",
          "name": "tokenId",
          "type": "uint256"
        },
        {
          "internalType": "bytes",
          "name": "data",
          "type": "bytes"
        }
      ],
      "name": "safeTransferFrom",
      "outputs": [],
      "stateMutability": "nonpayable",
      "type": "function"
    },
    {
      "inputs": [
        {
          "internalType": "address",
          "name": "operator",
          "type": "address"
        },
        {
          "internalType": "bool",
          "name": "approved",
          "type": "bool"
        }
      ],
      "name": "setApprovalForAll",
      "outputs": [],
      "stateMutability": "nonpayable",
      "type": "function"
    },
    {
      "inputs": [
        {
          "internalType": "uint256",
          "name": "tokenID",
          "type": "uint256"
        }
      ],
      "name": "setIsERC1155",
      "outputs": [],
      "stateMutability": "nonpayable",
      "type": "function"
    },
    {
      "inputs": [],
      "name": "symbol",
      "outputs": [
        {
          "internalType": "string",
          "name": "",
          "type": "string"
        }
      ],
      "stateMutability": "view",
      "type": "function",
      "constant": true
    },
    {
      "inputs": [
        {
          "internalType": "uint256",
          "name": "tokenId",
          "type": "uint256"
        }
      ],
      "name": "tokenURI",
      "outputs": [
        {
          "internalType": "string",
          "name": "",
          "type": "string"
        }
      ],
      "stateMutability": "view",
      "type": "function",
      "constant": true
    },
    {
      "inputs": [
        {
          "internalType": "address",
          "name": "from",
          "type": "address"
        },
        {
          "internalType": "address",
          "name": "to",
          "type": "address"
        },
        {
          "internalType": "uint256",
          "name": "tokenId",
          "type": "uint256"
        }
      ],
      "name": "transferFrom",
      "outputs": [],
      "stateMutability": "nonpayable",
      "type": "function"
    },
    {
      "inputs": [
        {
          "internalType": "address",
          "name": "to",
          "type": "address"
        },
        {
          "internalType": "uint256",
          "name": "tokenId",
          "type": "uint256"
        }
      ],
      "name": "mint",
      "outputs": [],
      "stateMutability": "nonpayable",
      "type": "function"
    },
    {
      "inputs": [
        {
          "internalType": "uint256",
          "name": "tokenId",
          "type": "uint256"
        }
      ],
      "name": "burn",
      "outputs": [],
      "stateMutability": "nonpayable",
      "type": "function"
    },
    {
      "inputs": [],
      "name": "pause",
      "outputs": [],
      "stateMutability": "nonpayable",
      "type": "function"
    },
    {
      "inputs": [],
      "name": "unpause",
      "outputs": [],
      "stateMutability": "nonpayable",
      "type": "function"
    },
    {
      "inputs": [
        {
          "internalType": "bytes4",
          "name": "interfaceId",
          "type": "bytes4"
        }
      ],
      "name": "supportsInterface",
      "outputs": [
        {
          "internalType": "bool",
          "name": "",
          "type": "bool"
        }
      ],
      "stateMutability": "view",
      "type": "function",
      "constant": true
    }
  ],
  "bytecode": "0x60806040523480156200001157600080fd5b50604051620066d5380380620066d5833981810160405281019062000037919062000463565b828282828281600190816200004d919062000767565b5080600290816200005f919062000767565b505050620000726200014060201b60201c565b505050506000600d60006101000a81548160ff021916908315150217905550620000b56000801b620000a96200015760201b60201c565b6200015f60201b60201c565b620000f67f9f2df0fed2c77648de5860a4cc508cd0818c85b8b8a1ab4ceeef8d981c8956a6620000ea6200015760201b60201c565b6200015f60201b60201c565b620001377f65d7a28e3265b37a6474929f336521b332c1681b933f6cb9f3376673440d862a6200012b6200015760201b60201c565b6200015f60201b60201c565b5050506200084e565b606060405180602001604052806000815250905090565b600033905090565b6200017182826200017560201b60201c565b5050565b6200018782826200026660201b60201c565b6200026257600160008084815260200190815260200160002060000160008373ffffffffffffffffffffffffffffffffffffffff1673ffffffffffffffffffffffffffffffffffffffff16815260200190815260200160002060006101000a81548160ff021916908315150217905550620002076200015760201b60201c565b73ffffffffffffffffffffffffffffffffffffffff168173ffffffffffffffffffffffffffffffffffffffff16837f2f8788117e7eff1d82e926ec794901d17c78024a50270940304540a733656f0d60405160405180910390a45b5050565b600080600084815260200190815260200160002060000160008373ffffffffffffffffffffffffffffffffffffffff1673ffffffffffffffffffffffffffffffffffffffff16815260200190815260200160002060009054906101000a900460ff16905092915050565b6000604051905090565b600080fd5b600080fd5b600080fd5b600080fd5b6000601f19601f8301169050919050565b7f4e487b7100000000000000000000000000000000000000000000000000000000600052604160045260246000fd5b6200033982620002ee565b810181811067ffffffffffffffff821117156200035b576200035a620002ff565b5b80604052505050565b600062000370620002d0565b90506200037e82826200032e565b919050565b600067ffffffffffffffff821115620003a157620003a0620002ff565b5b620003ac82620002ee565b9050602081019050919050565b60005b83811015620003d9578082015181840152602081019050620003bc565b60008484015250505050565b6000620003fc620003f68462000383565b62000364565b9050828152602081018484840111156200041b576200041a620002e9565b5b62000428848285620003b9565b509392505050565b600082601f830112620004485762000447620002e4565b5b81516200045a848260208601620003e5565b91505092915050565b6000806000606084860312156200047f576200047e620002da565b5b600084015167ffffffffffffffff811115620004a0576200049f620002df565b5b620004ae8682870162000430565b935050602084015167ffffffffffffffff811115620004d257620004d1620002df565b5b620004e08682870162000430565b925050604084015167ffffffffffffffff811115620005045762000503620002df565b5b620005128682870162000430565b9150509250925092565b600081519050919050565b7f4e487b7100000000000000000000000000000000000000000000000000000000600052602260045260246000fd5b600060028204905060018216806200056f57607f821691505b60208210810362000585576200058462000527565b5b50919050565b60008190508160005260206000209050919050565b60006020601f8301049050919050565b600082821b905092915050565b600060088302620005ef7fffffffffffffffffffffffffffffffffffffffffffffffffffffffffffffffff82620005b0565b620005fb8683620005b0565b95508019841693508086168417925050509392505050565b6000819050919050565b6000819050919050565b600062000648620006426200063c8462000613565b6200061d565b62000613565b9050919050565b6000819050919050565b620006648362000627565b6200067c62000673826200064f565b848454620005bd565b825550505050565b600090565b6200069362000684565b620006a081848462000659565b505050565b5b81811015620006c857620006bc60008262000689565b600181019050620006a6565b5050565b601f8211156200071757620006e1816200058b565b620006ec84620005a0565b81016020851015620006fc578190505b620007146200070b85620005a0565b830182620006a5565b50505b505050565b600082821c905092915050565b60006200073c600019846008026200071c565b1980831691505092915050565b600062000757838362000729565b9150826002028217905092915050565b62000772826200051c565b67ffffffffffffffff8111156200078e576200078d620002ff565b5b6200079a825462000556565b620007a7828285620006cc565b600060209050601f831160018114620007df5760008415620007ca578287015190505b620007d6858262000749565b86555062000846565b601f198416620007ef866200058b565b60005b828110156200081957848901518255600182019150602085019450602081019050620007f2565b8683101562000839578489015162000835601f89168262000729565b8355505b6001600288020188555050505b505050505050565b615e77806200085e6000396000f3fe608060405234801561001057600080fd5b506004361061025e5760003560e01c806370a0823111610146578063b88d4fde116100c3578063d547741f11610087578063d547741f1461078f578063e2edee2b146107ab578063e63ab1e9146107c7578063e985e9c5146107e5578063eeaf2f0914610815578063f23a6e61146108455761025e565b8063b88d4fde146106c5578063bc197c81146106e1578063c41a360a14610711578063c87b56dd14610741578063d5391393146107715761025e565b806391d148541161010a57806391d148541461060d57806395d89b411461063d5780639fb64d831461065b578063a217fddf1461068b578063a22cb465146106a95761025e565b806370a08231146105555780637a6ce2e1146105855780638456cb59146105a3578063849c968c146105ad57806389e7e2f2146105dd5761025e565b806336568abe116101df57806342cf6e74116101a357806342cf6e741461045b5780635c975abb146104775780635fa030211461049557806360d4d23a146104c55780636352211e146104f55780636f9bc25b146105255761025e565b806336568abe146103e15780633f4ba83a146103fd57806340c10f191461040757806342842e0e1461042357806342966c681461043f5761025e565b806317dd76231161022657806317dd76231461032d57806323b872dd1461035d578063248a9ca3146103795780632f2ff15d146103a957806332085b65146103c55761025e565b806301ffc9a71461026357806306fdde0314610293578063081812fc146102b1578063095ea7b3146102e1578063150b7a02146102fd575b600080fd5b61027d60048036038101906102789190613d83565b610875565b60405161028a9190613dcb565b60405180910390f35b61029b610887565b6040516102a89190613e76565b60405180910390f35b6102cb60048036038101906102c69190613ece565b610919565b6040516102d89190613f3c565b60405180910390f35b6102fb60048036038101906102f69190613f83565b61095f565b005b610317600480360381019061031291906140f8565b610a76565b604051610324919061418a565b60405180910390f35b610347600480360381019061034291906141a5565b610b60565b6040516103549190613f3c565b60405180910390f35b610377600480360381019061037291906141e5565b610c61565b005b610393600480360381019061038e919061426e565b610cc1565b6040516103a091906142aa565b60405180910390f35b6103c360048036038101906103be91906142c5565b610ce0565b005b6103df60048036038101906103da91906143cd565b610d01565b005b6103fb60048036038101906103f691906142c5565b610fac565b005b61040561102f565b005b610421600480360381019061041c9190613f83565b6110a9565b005b61043d600480360381019061043891906141e5565b6110b7565b005b61045960048036038101906104549190613ece565b6110d7565b005b610475600480360381019061047091906144ae565b611133565b005b61047f611451565b60405161048c9190613dcb565b60405180910390f35b6104af60048036038101906104aa9190614557565b611468565b6040516104bc9190614655565b60405180910390f35b6104df60048036038101906104da9190614677565b61160f565b6040516104ec91906146d9565b60405180910390f35b61050f600480360381019061050a9190613ece565b61167c565b60405161051c9190613f3c565b60405180910390f35b61053f600480360381019061053a9190613ece565b61172d565b60405161054c9190613dcb565b60405180910390f35b61056f600480360381019061056a91906146f4565b61174d565b60405161057c91906146d9565b60405180910390f35b61058d611804565b60405161059a9190613f3c565b60405180910390f35b6105ab611813565b005b6105c760048036038101906105c29190613ece565b61188d565b6040516105d49190613dcb565b60405180910390f35b6105f760048036038101906105f29190613ece565b6118b7565b60405161060491906147df565b60405180910390f35b610627600480360381019061062291906142c5565b6119d4565b6040516106349190613dcb565b60405180910390f35b610645611a3e565b6040516106529190613e76565b60405180910390f35b61067560048036038101906106709190613ece565b611ad0565b6040516106829190613dcb565b60405180910390f35b610693611af0565b6040516106a091906142aa565b60405180910390f35b6106c360048036038101906106be919061482d565b611af7565b005b6106df60048036038101906106da91906140f8565b611b0d565b005b6106fb60048036038101906106f6919061486d565b611b6f565b604051610708919061418a565b60405180910390f35b61072b60048036038101906107269190613ece565b611d34565b6040516107389190613f3c565b60405180910390f35b61075b60048036038101906107569190613ece565b611d46565b6040516107689190613e76565b60405180910390f35b610779611dae565b60405161078691906142aa565b60405180910390f35b6107a960048036038101906107a491906142c5565b611dd2565b005b6107c560048036038101906107c09190613ece565b611df3565b005b6107cf611e22565b6040516107dc91906142aa565b60405180910390f35b6107ff60048036038101906107fa919061493c565b611e46565b60405161080c9190613dcb565b60405180910390f35b61082f600480360381019061082a9190614677565b611eda565b60405161083c91906146d9565b60405180910390f35b61085f600480360381019061085a919061497c565b611f0c565b60405161086c919061418a565b60405180910390f35b600061088082612015565b9050919050565b60606001805461089690614a42565b80601f01602080910402602001604051908101604052809291908181526020018280546108c290614a42565b801561090f5780601f106108e45761010080835404028352916020019161090f565b820191906000526020600020905b8154815290600101906020018083116108f257829003601f168201915b5050505050905090565b6000610924826120f7565b6005600083815260200190815260200160002060009054906101000a900473ffffffffffffffffffffffffffffffffffffffff169050919050565b600061096a8261167c565b90508073ffffffffffffffffffffffffffffffffffffffff168373ffffffffffffffffffffffffffffffffffffffff16036109da576040517f08c379a00000000000000000000000000000000000000000000000000000000081526004016109d190614ae5565b60405180910390fd5b8073ffffffffffffffffffffffffffffffffffffffff166109f9612142565b73ffffffffffffffffffffffffffffffffffffffff161480610a285750610a2781610a22612142565b611e46565b5b610a67576040517f08c379a0000000000000000000000000000000000000000000000000000000008152600401610a5e90614b77565b60405180910390fd5b610a71838361214a565b505050565b60006020825114610abc576040517f08c379a0000000000000000000000000000000000000000000000000000000008152600401610ab390614c2f565b60405180910390fd5b60008060206000369050610ad09190614c7e565b905080359150610ae38233876001612203565b3373ffffffffffffffffffffffffffffffffffffffff16828773ffffffffffffffffffffffffffffffffffffffff167fa18753b0660a8be2cdae03468c860b47c2926433ab16917f323544652803032d886001604051610b44929190614cf7565b60405180910390a463150b7a0260e01b92505050949350505050565b600080600090505b610b836009600086815260200190815260200160002061239e565b811015610c5557610c1083600a60008781526020019081526020016000206000610bc885600960008b81526020019081526020016000206123b390919063ffffffff16565b73ffffffffffffffffffffffffffffffffffffffff1673ffffffffffffffffffffffffffffffffffffffff1681526020019081526020016000206123cd90919063ffffffff16565b15610c4257610c3a81600960008781526020019081526020016000206123b390919063ffffffff16565b915050610c5b565b8080610c4d90614d20565b915050610b68565b50600090505b92915050565b610c72610c6c612142565b826123e7565b610cb1576040517f08c379a0000000000000000000000000000000000000000000000000000000008152600401610ca890614dda565b60405180910390fd5b610cbc83838361247c565b505050565b6000806000838152602001908152602001600020600101549050919050565b610ce982610cc1565b610cf2816126e2565b610cfc83836126f6565b505050565b8151835114610d45576040517f08c379a0000000000000000000000000000000000000000000000000000000008152600401610d3c90614e6c565b60405180910390fd5b600073ffffffffffffffffffffffffffffffffffffffff168573ffffffffffffffffffffffffffffffffffffffff1603610db4576040517f08c379a0000000000000000000000000000000000000000000000000000000008152600401610dab90614efe565b60405180910390fd5b6000610dbe612142565b90508073ffffffffffffffffffffffffffffffffffffffff16610de08861167c565b73ffffffffffffffffffffffffffffffffffffffff161480610e105750610e0f610e098861167c565b82611e46565b5b610e4f576040517f08c379a0000000000000000000000000000000000000000000000000000000008152600401610e4690614f90565b60405180910390fd5b610e5e818888888888886127d6565b60005b8451811015610ec7576000858281518110610e7f57610e7e614fb0565b5b602002602001015190506000858381518110610e9e57610e9d614fb0565b5b60200260200101519050610eb48a898484612836565b505080610ec090614d20565b9050610e61565b508473ffffffffffffffffffffffffffffffffffffffff16632eb2c2d630888787876040518663ffffffff1660e01b8152600401610f09959493929190615034565b600060405180830381600087803b158015610f2357600080fd5b505af1158015610f37573d6000803e3d6000fd5b505050508473ffffffffffffffffffffffffffffffffffffffff168673ffffffffffffffffffffffffffffffffffffffff16887f5572be9c1bc39e4e277a34f64ccd0e84456dac3f33b0b1c458c12c402c6326a98787604051610f9b92919061509c565b60405180910390a450505050505050565b610fb4612142565b73ffffffffffffffffffffffffffffffffffffffff168173ffffffffffffffffffffffffffffffffffffffff1614611021576040517f08c379a000000000000000000000000000000000000000000000000000000000815260040161101890615145565b60405180910390fd5b61102b8282612b1a565b5050565b6110607f65d7a28e3265b37a6474929f336521b332c1681b933f6cb9f3376673440d862a61105b612142565b6119d4565b61109f576040517f08c379a0000000000000000000000000000000000000000000000000000000008152600401611096906151d7565b60405180910390fd5b6110a7612bfb565b565b6110b38282612c5e565b5050565b6110d283838360405180602001604052806000815250611b0d565b505050565b6110e86110e2612142565b826123e7565b611127576040517f08c379a000000000000000000000000000000000000000000000000000000000815260040161111e90615269565b60405180910390fd5b61113081612e37565b50565b600073ffffffffffffffffffffffffffffffffffffffff168573ffffffffffffffffffffffffffffffffffffffff16036111a2576040517f08c379a000000000000000000000000000000000000000000000000000000000815260040161119990614efe565b60405180910390fd5b60006111ac612142565b90508073ffffffffffffffffffffffffffffffffffffffff166111ce8861167c565b73ffffffffffffffffffffffffffffffffffffffff1614806111fe57506111fd6111f78861167c565b82611e46565b5b61123d576040517f08c379a000000000000000000000000000000000000000000000000000000000815260040161123490614f90565b60405180910390fd5b61125c8188888861124d89612f54565b61125689612f54565b886127d6565b61126887868686612836565b600c600085815260200190815260200160002060009054906101000a900460ff161561136e578473ffffffffffffffffffffffffffffffffffffffff1663f242432a30888787876040518663ffffffff1660e01b81526004016112cf959493929190615289565b600060405180830381600087803b1580156112e957600080fd5b505af11580156112fd573d6000803e3d6000fd5b505050508473ffffffffffffffffffffffffffffffffffffffff168673ffffffffffffffffffffffffffffffffffffffff16887f9d6259404dec52b3d5d220f5b8e5d05cc05ec908e1bc320aa46793e3091e519487876040516113619291906152e3565b60405180910390a4611448565b8473ffffffffffffffffffffffffffffffffffffffff1663b88d4fde308887866040518563ffffffff1660e01b81526004016113ad949392919061530c565b600060405180830381600087803b1580156113c757600080fd5b505af11580156113db573d6000803e3d6000fd5b505050508473ffffffffffffffffffffffffffffffffffffffff168673ffffffffffffffffffffffffffffffffffffffff16887f9d6259404dec52b3d5d220f5b8e5d05cc05ec908e1bc320aa46793e3091e5194878760405161143f9291906152e3565b60405180910390a45b50505050505050565b6000600d60009054906101000a900460ff16905090565b606060006114c4600a600086815260200190815260200160002060008573ffffffffffffffffffffffffffffffffffffffff1673ffffffffffffffffffffffffffffffffffffffff168152602001908152602001600020612fce565b67ffffffffffffffff8111156114dd576114dc613fcd565b5b60405190808252806020026020018201604052801561150b5781602001602082028036833780820191505090505b50905060005b611569600a600087815260200190815260200160002060008673ffffffffffffffffffffffffffffffffffffffff1673ffffffffffffffffffffffffffffffffffffffff168152602001908152602001600020612fce565b811015611604576115d281600a600088815260200190815260200160002060008773ffffffffffffffffffffffffffffffffffffffff1673ffffffffffffffffffffffffffffffffffffffff168152602001908152602001600020612fe390919063ffffffff16565b8282815181106115e5576115e4614fb0565b5b60200260200101818152505080806115fc90614d20565b915050611511565b508091505092915050565b60006007600085815260200190815260200160002060008473ffffffffffffffffffffffffffffffffffffffff1673ffffffffffffffffffffffffffffffffffffffff16815260200190815260200160002060008381526020019081526020016000205490509392505050565b6000806003600084815260200190815260200160002060009054906101000a900473ffffffffffffffffffffffffffffffffffffffff169050600073ffffffffffffffffffffffffffffffffffffffff168173ffffffffffffffffffffffffffffffffffffffff1603611724576040517f08c379a000000000000000000000000000000000000000000000000000000000815260040161171b906153a4565b60405180910390fd5b80915050919050565b600c6020528060005260406000206000915054906101000a900460ff1681565b60008073ffffffffffffffffffffffffffffffffffffffff168273ffffffffffffffffffffffffffffffffffffffff16036117bd576040517f08c379a00000000000000000000000000000000000000000000000000000000081526004016117b490615436565b60405180910390fd5b600460008373ffffffffffffffffffffffffffffffffffffffff1673ffffffffffffffffffffffffffffffffffffffff168152602001908152602001600020549050919050565b600061180e612142565b905090565b6118447f65d7a28e3265b37a6474929f336521b332c1681b933f6cb9f3376673440d862a61183f612142565b6119d4565b611883576040517f08c379a000000000000000000000000000000000000000000000000000000000815260040161187a906154c8565b60405180910390fd5b61188b612ffd565b565b6000600c600083815260200190815260200160002060009054906101000a900460ff169050919050565b606060006118d66009600085815260200190815260200160002061239e565b67ffffffffffffffff8111156118ef576118ee613fcd565b5b60405190808252806020026020018201604052801561191d5781602001602082028036833780820191505090505b50905060005b61193e6009600086815260200190815260200160002061239e565b8110156119ca5761196a81600960008781526020019081526020016000206123b390919063ffffffff16565b82828151811061197d5761197c614fb0565b5b602002602001019073ffffffffffffffffffffffffffffffffffffffff16908173ffffffffffffffffffffffffffffffffffffffff168152505080806119c290614d20565b915050611923565b5080915050919050565b600080600084815260200190815260200160002060000160008373ffffffffffffffffffffffffffffffffffffffff1673ffffffffffffffffffffffffffffffffffffffff16815260200190815260200160002060009054906101000a900460ff16905092915050565b606060028054611a4d90614a42565b80601f0160208091040260200160405190810160405280929190818152602001828054611a7990614a42565b8015611ac65780601f10611a9b57610100808354040283529160200191611ac6565b820191906000526020600020905b815481529060010190602001808311611aa957829003601f168201915b5050505050905090565b600b6020528060005260406000206000915054906101000a900460ff1681565b6000801b81565b611b09611b02612142565b8383613060565b5050565b611b1e611b18612142565b836123e7565b611b5d576040517f08c379a0000000000000000000000000000000000000000000000000000000008152600401611b5490614dda565b60405180910390fd5b611b69848484846131cc565b50505050565b60006020825114611bb5576040517f08c379a0000000000000000000000000000000000000000000000000000000008152600401611bac90614c2f565b60405180910390fd5b8251845114611bf9576040517f08c379a0000000000000000000000000000000000000000000000000000000008152600401611bf09061555a565b60405180910390fd5b611c0986600030888888886127d6565b60008060206000369050611c1d9190614c7e565b90508035915060005b8651811015611d1e57611c6f8333898481518110611c4757611c46614fb0565b5b6020026020010151898581518110611c6257611c61614fb0565b5b6020026020010151612203565b3373ffffffffffffffffffffffffffffffffffffffff16838973ffffffffffffffffffffffffffffffffffffffff167fa18753b0660a8be2cdae03468c860b47c2926433ab16917f323544652803032d8a8581518110611cd257611cd1614fb0565b5b60200260200101518a8681518110611ced57611cec614fb0565b5b6020026020010151604051611d039291906152e3565b60405180910390a48080611d1690614d20565b915050611c26565b5063bc197c8160e01b9250505095945050505050565b6000611d3f8261167c565b9050919050565b6060611d51826120f7565b6000611d5b613228565b90506000815111611d7b5760405180602001604052806000815250611da6565b80611d858461323f565b604051602001611d969291906155b6565b6040516020818303038152906040525b915050919050565b7f9f2df0fed2c77648de5860a4cc508cd0818c85b8b8a1ab4ceeef8d981c8956a681565b611ddb82610cc1565b611de4816126e2565b611dee8383612b1a565b505050565b6001600c600083815260200190815260200160002060006101000a81548160ff02191690831515021790555050565b7f65d7a28e3265b37a6474929f336521b332c1681b933f6cb9f3376673440d862a81565b6000600660008473ffffffffffffffffffffffffffffffffffffffff1673ffffffffffffffffffffffffffffffffffffffff16815260200190815260200160002060008373ffffffffffffffffffffffffffffffffffffffff1673ffffffffffffffffffffffffffffffffffffffff16815260200190815260200160002060009054906101000a900460ff16905092915050565b600760205282600052604060002060205281600052604060002060205280600052604060002060009250925050505481565b60006020825114611f52576040517f08c379a0000000000000000000000000000000000000000000000000000000008152600401611f4990614c2f565b60405180910390fd5b611f728660003088611f6389612f54565b611f6c89612f54565b886127d6565b60008060206000369050611f869190614c7e565b905080359150611f9882338888612203565b3373ffffffffffffffffffffffffffffffffffffffff16828873ffffffffffffffffffffffffffffffffffffffff167fa18753b0660a8be2cdae03468c860b47c2926433ab16917f323544652803032d8989604051611ff89291906152e3565b60405180910390a463f23a6e6160e01b9250505095945050505050565b60007f80ac58cd000000000000000000000000000000000000000000000000000000007bffffffffffffffffffffffffffffffffffffffffffffffffffffffff1916827bffffffffffffffffffffffffffffffffffffffffffffffffffffffff191614806120e057507f5b5e139f000000000000000000000000000000000000000000000000000000007bffffffffffffffffffffffffffffffffffffffffffffffffffffffff1916827bffffffffffffffffffffffffffffffffffffffffffffffffffffffff1916145b806120f057506120ef8261339f565b5b9050919050565b61210081613419565b61213f576040517f08c379a0000000000000000000000000000000000000000000000000000000008152600401612136906153a4565b60405180910390fd5b50565b600033905090565b816005600083815260200190815260200160002060006101000a81548173ffffffffffffffffffffffffffffffffffffffff021916908373ffffffffffffffffffffffffffffffffffffffff160217905550808273ffffffffffffffffffffffffffffffffffffffff166121bd8361167c565b73ffffffffffffffffffffffffffffffffffffffff167f8c5be1e5ebec7d5bd14f71427d1e84f3dd0314c0f7b2291e5b200ac8c7c3b92560405160405180910390a45050565b612228836009600087815260200190815260200160002061348590919063ffffffff16565b6122535761225183600960008781526020019081526020016000206134b590919063ffffffff16565b505b60006007600086815260200190815260200160002060008573ffffffffffffffffffffffffffffffffffffffff1673ffffffffffffffffffffffffffffffffffffffff168152602001908152602001600020600084815260200190815260200160002054036123205761231e82600a600087815260200190815260200160002060008673ffffffffffffffffffffffffffffffffffffffff1673ffffffffffffffffffffffffffffffffffffffff1681526020019081526020016000206134e590919063ffffffff16565b505b806007600086815260200190815260200160002060008573ffffffffffffffffffffffffffffffffffffffff1673ffffffffffffffffffffffffffffffffffffffff1681526020019081526020016000206000848152602001908152602001600020600082825461239191906155da565b9250508190555050505050565b60006123ac826000016134ff565b9050919050565b60006123c28360000183613510565b60001c905092915050565b60006123df836000018360001b61353b565b905092915050565b6000806123f38361167c565b90508073ffffffffffffffffffffffffffffffffffffffff168473ffffffffffffffffffffffffffffffffffffffff16148061243557506124348185611e46565b5b8061247357508373ffffffffffffffffffffffffffffffffffffffff1661245b84610919565b73ffffffffffffffffffffffffffffffffffffffff16145b91505092915050565b8273ffffffffffffffffffffffffffffffffffffffff1661249c8261167c565b73ffffffffffffffffffffffffffffffffffffffff16146124f2576040517f08c379a00000000000000000000000000000000000000000000000000000000081526004016124e990615680565b60405180910390fd5b600073ffffffffffffffffffffffffffffffffffffffff168273ffffffffffffffffffffffffffffffffffffffff1603612561576040517f08c379a000000000000000000000000000000000000000000000000000000000815260040161255890615712565b60405180910390fd5b61256c83838361355e565b61257760008261214a565b6001600460008573ffffffffffffffffffffffffffffffffffffffff1673ffffffffffffffffffffffffffffffffffffffff16815260200190815260200160002060008282546125c79190614c7e565b925050819055506001600460008473ffffffffffffffffffffffffffffffffffffffff1673ffffffffffffffffffffffffffffffffffffffff168152602001908152602001600020600082825461261e91906155da565b92505081905550816003600083815260200190815260200160002060006101000a81548173ffffffffffffffffffffffffffffffffffffffff021916908373ffffffffffffffffffffffffffffffffffffffff160217905550808273ffffffffffffffffffffffffffffffffffffffff168473ffffffffffffffffffffffffffffffffffffffff167fddf252ad1be2c89b69c2b068fc378daa952ba7f163c4a11628f55a4df523b3ef60405160405180910390a46126dd8383836135b6565b505050565b6126f3816126ee612142565b6135bb565b50565b61270082826119d4565b6127d257600160008084815260200190815260200160002060000160008373ffffffffffffffffffffffffffffffffffffffff1673ffffffffffffffffffffffffffffffffffffffff16815260200190815260200160002060006101000a81548160ff021916908315150217905550612777612142565b73ffffffffffffffffffffffffffffffffffffffff168173ffffffffffffffffffffffffffffffffffffffff16837f2f8788117e7eff1d82e926ec794901d17c78024a50270940304540a733656f0d60405160405180910390a45b5050565b6127de611451565b1561281e576040517f08c379a0000000000000000000000000000000000000000000000000000000008152600401612815906157a4565b60405180910390fd5b61282d87878787878787613658565b50505050505050565b6000811415806128a75750806007600086815260200190815260200160002060008573ffffffffffffffffffffffffffffffffffffffff1673ffffffffffffffffffffffffffffffffffffffff16815260200190815260200160002060008481526020019081526020016000205410155b6128e6576040517f08c379a00000000000000000000000000000000000000000000000000000000081526004016128dd90615836565b60405180910390fd5b806007600086815260200190815260200160002060008573ffffffffffffffffffffffffffffffffffffffff1673ffffffffffffffffffffffffffffffffffffffff168152602001908152602001600020600084815260200190815260200160002060008282546129579190614c7e565b9250508190555060006007600086815260200190815260200160002060008573ffffffffffffffffffffffffffffffffffffffff1673ffffffffffffffffffffffffffffffffffffffff16815260200190815260200160002060008481526020019081526020016000205403612b1457612a2984600860008673ffffffffffffffffffffffffffffffffffffffff1673ffffffffffffffffffffffffffffffffffffffff168152602001908152602001600020600085815260200190815260200160002061366190919063ffffffff16565b50612a8c82600a600087815260200190815260200160002060008673ffffffffffffffffffffffffffffffffffffffff1673ffffffffffffffffffffffffffffffffffffffff16815260200190815260200160002061366190919063ffffffff16565b506000612ae7600a600087815260200190815260200160002060008673ffffffffffffffffffffffffffffffffffffffff1673ffffffffffffffffffffffffffffffffffffffff168152602001908152602001600020612fce565b03612b1357612b11836009600087815260200190815260200160002061367b90919063ffffffff16565b505b5b50505050565b612b2482826119d4565b15612bf757600080600084815260200190815260200160002060000160008373ffffffffffffffffffffffffffffffffffffffff1673ffffffffffffffffffffffffffffffffffffffff16815260200190815260200160002060006101000a81548160ff021916908315150217905550612b9c612142565b73ffffffffffffffffffffffffffffffffffffffff168173ffffffffffffffffffffffffffffffffffffffff16837ff6391f5c32d9c69d2a47ea670b442974b53935d1edc7fd64eb21e047a839171b60405160405180910390a45b5050565b612c036136ab565b6000600d60006101000a81548160ff0219169083151502179055507f5db9ee0a495bf2e6ff9c91a7834c1ba4fdd244a5e8aa4e537bd38aeae4b073aa612c47612142565b604051612c549190613f3c565b60405180910390a1565b600073ffffffffffffffffffffffffffffffffffffffff168273ffffffffffffffffffffffffffffffffffffffff1603612ccd576040517f08c379a0000000000000000000000000000000000000000000000000000000008152600401612cc4906158a2565b60405180910390fd5b612cd681613419565b15612d16576040517f08c379a0000000000000000000000000000000000000000000000000000000008152600401612d0d9061590e565b60405180910390fd5b612d226000838361355e565b6001600460008473ffffffffffffffffffffffffffffffffffffffff1673ffffffffffffffffffffffffffffffffffffffff1681526020019081526020016000206000828254612d7291906155da565b92505081905550816003600083815260200190815260200160002060006101000a81548173ffffffffffffffffffffffffffffffffffffffff021916908373ffffffffffffffffffffffffffffffffffffffff160217905550808273ffffffffffffffffffffffffffffffffffffffff16600073ffffffffffffffffffffffffffffffffffffffff167fddf252ad1be2c89b69c2b068fc378daa952ba7f163c4a11628f55a4df523b3ef60405160405180910390a4612e33600083836135b6565b5050565b6000612e428261167c565b9050612e508160008461355e565b612e5b60008361214a565b6001600460008373ffffffffffffffffffffffffffffffffffffffff1673ffffffffffffffffffffffffffffffffffffffff1681526020019081526020016000206000828254612eab9190614c7e565b925050819055506003600083815260200190815260200160002060006101000a81549073ffffffffffffffffffffffffffffffffffffffff021916905581600073ffffffffffffffffffffffffffffffffffffffff168273ffffffffffffffffffffffffffffffffffffffff167fddf252ad1be2c89b69c2b068fc378daa952ba7f163c4a11628f55a4df523b3ef60405160405180910390a4612f50816000846135b6565b5050565b60606000600167ffffffffffffffff811115612f7357612f72613fcd565b5b604051908082528060200260200182016040528015612fa15781602001602082028036833780820191505090505b5090508281600081518110612fb957612fb8614fb0565b5b60200260200101818152505080915050919050565b6000612fdc826000016134ff565b9050919050565b6000612ff28360000183613510565b60001c905092915050565b6130056136f4565b6001600d60006101000a81548160ff0219169083151502179055507f62e78cea01bee320cd4e420270b5ea74000d11b0c9f74754ebdbfc544b05a258613049612142565b6040516130569190613f3c565b60405180910390a1565b8173ffffffffffffffffffffffffffffffffffffffff168373ffffffffffffffffffffffffffffffffffffffff16036130ce576040517f08c379a00000000000000000000000000000000000000000000000000000000081526004016130c59061597a565b60405180910390fd5b80600660008573ffffffffffffffffffffffffffffffffffffffff1673ffffffffffffffffffffffffffffffffffffffff16815260200190815260200160002060008473ffffffffffffffffffffffffffffffffffffffff1673ffffffffffffffffffffffffffffffffffffffff16815260200190815260200160002060006101000a81548160ff0219169083151502179055508173ffffffffffffffffffffffffffffffffffffffff168373ffffffffffffffffffffffffffffffffffffffff167f17307eab39ab6107e8899845ad3d59bd9653f200f220920489ca2b5937696c31836040516131bf9190613dcb565b60405180910390a3505050565b6131d784848461247c565b6131e38484848461373e565b613222576040517f08c379a000000000000000000000000000000000000000000000000000000000815260040161321990615a0c565b60405180910390fd5b50505050565b606060405180602001604052806000815250905090565b606060008203613286576040518060400160405280600181526020017f3000000000000000000000000000000000000000000000000000000000000000815250905061339a565b600082905060005b600082146132b85780806132a190614d20565b915050600a826132b19190615a5b565b915061328e565b60008167ffffffffffffffff8111156132d4576132d3613fcd565b5b6040519080825280601f01601f1916602001820160405280156133065781602001600182028036833780820191505090505b5090505b600085146133935760018261331f9190614c7e565b9150600a8561332e9190615a8c565b603061333a91906155da565b60f81b8183815181106133505761334f614fb0565b5b60200101907effffffffffffffffffffffffffffffffffffffffffffffffffffffffffffff1916908160001a905350600a8561338c9190615a5b565b945061330a565b8093505050505b919050565b60007f7965db0b000000000000000000000000000000000000000000000000000000007bffffffffffffffffffffffffffffffffffffffffffffffffffffffff1916827bffffffffffffffffffffffffffffffffffffffffffffffffffffffff191614806134125750613411826138c5565b5b9050919050565b60008073ffffffffffffffffffffffffffffffffffffffff166003600084815260200190815260200160002060009054906101000a900473ffffffffffffffffffffffffffffffffffffffff1673ffffffffffffffffffffffffffffffffffffffff1614159050919050565b60006134ad836000018373ffffffffffffffffffffffffffffffffffffffff1660001b61353b565b905092915050565b60006134dd836000018373ffffffffffffffffffffffffffffffffffffffff1660001b61392f565b905092915050565b60006134f7836000018360001b61392f565b905092915050565b600081600001805490509050919050565b600082600001828154811061352857613527614fb0565b5b9060005260206000200154905092915050565b600080836001016000848152602001908152602001600020541415905092915050565b613566611451565b156135a6576040517f08c379a000000000000000000000000000000000000000000000000000000000815260040161359d90615b2f565b60405180910390fd5b6135b183838361399f565b505050565b505050565b6135c582826119d4565b613654576135ea8173ffffffffffffffffffffffffffffffffffffffff1660146139a4565b6135f88360001c60206139a4565b604051602001613609929190615be7565b6040516020818303038152906040526040517f08c379a000000000000000000000000000000000000000000000000000000000815260040161364b9190613e76565b60405180910390fd5b5050565b50505050505050565b6000613673836000018360001b613be0565b905092915050565b60006136a3836000018373ffffffffffffffffffffffffffffffffffffffff1660001b613be0565b905092915050565b6136b3611451565b6136f2576040517f08c379a00000000000000000000000000000000000000000000000000000000081526004016136e990615c6d565b60405180910390fd5b565b6136fc611451565b1561373c576040517f08c379a000000000000000000000000000000000000000000000000000000000815260040161373390615cd9565b60405180910390fd5b565b600061375f8473ffffffffffffffffffffffffffffffffffffffff16613cf4565b156138b8578373ffffffffffffffffffffffffffffffffffffffff1663150b7a02613788612142565b8786866040518563ffffffff1660e01b81526004016137aa949392919061530c565b6020604051808303816000875af19250505080156137e657506040513d601f19601f820116820180604052508101906137e39190615d0e565b60015b613868573d8060008114613816576040519150601f19603f3d011682016040523d82523d6000602084013e61381b565b606091505b506000815103613860576040517f08c379a000000000000000000000000000000000000000000000000000000000815260040161385790615a0c565b60405180910390fd5b805181602001fd5b63150b7a0260e01b7bffffffffffffffffffffffffffffffffffffffffffffffffffffffff1916817bffffffffffffffffffffffffffffffffffffffffffffffffffffffff1916149150506138bd565b600190505b949350505050565b60007f01ffc9a7000000000000000000000000000000000000000000000000000000007bffffffffffffffffffffffffffffffffffffffffffffffffffffffff1916827bffffffffffffffffffffffffffffffffffffffffffffffffffffffff1916149050919050565b600061393b838361353b565b613994578260000182908060018154018082558091505060019003906000526020600020016000909190919091505582600001805490508360010160008481526020019081526020016000208190555060019050613999565b600090505b92915050565b505050565b6060600060028360026139b79190615d3b565b6139c191906155da565b67ffffffffffffffff8111156139da576139d9613fcd565b5b6040519080825280601f01601f191660200182016040528015613a0c5781602001600182028036833780820191505090505b5090507f300000000000000000000000000000000000000000000000000000000000000081600081518110613a4457613a43614fb0565b5b60200101907effffffffffffffffffffffffffffffffffffffffffffffffffffffffffffff1916908160001a9053507f780000000000000000000000000000000000000000000000000000000000000081600181518110613aa857613aa7614fb0565b5b60200101907effffffffffffffffffffffffffffffffffffffffffffffffffffffffffffff1916908160001a90535060006001846002613ae89190615d3b565b613af291906155da565b90505b6001811115613b92577f3031323334353637383961626364656600000000000000000000000000000000600f861660108110613b3457613b33614fb0565b5b1a60f81b828281518110613b4b57613b4a614fb0565b5b60200101907effffffffffffffffffffffffffffffffffffffffffffffffffffffffffffff1916908160001a905350600485901c945080613b8b90615d7d565b9050613af5565b5060008414613bd6576040517f08c379a0000000000000000000000000000000000000000000000000000000008152600401613bcd90615df2565b60405180910390fd5b8091505092915050565b60008083600101600084815260200190815260200160002054905060008114613ce8576000600182613c129190614c7e565b9050600060018660000180549050613c2a9190614c7e565b9050818114613c99576000866000018281548110613c4b57613c4a614fb0565b5b9060005260206000200154905080876000018481548110613c6f57613c6e614fb0565b5b90600052602060002001819055508387600101600083815260200190815260200160002081905550505b85600001805480613cad57613cac615e12565b5b600190038181906000526020600020016000905590558560010160008681526020019081526020016000206000905560019350505050613cee565b60009150505b92915050565b6000808273ffffffffffffffffffffffffffffffffffffffff163b119050919050565b6000604051905090565b600080fd5b600080fd5b60007fffffffff0000000000000000000000000000000000000000000000000000000082169050919050565b613d6081613d2b565b8114613d6b57600080fd5b50565b600081359050613d7d81613d57565b92915050565b600060208284031215613d9957613d98613d21565b5b6000613da784828501613d6e565b91505092915050565b60008115159050919050565b613dc581613db0565b82525050565b6000602082019050613de06000830184613dbc565b92915050565b600081519050919050565b600082825260208201905092915050565b60005b83811015613e20578082015181840152602081019050613e05565b60008484015250505050565b6000601f19601f8301169050919050565b6000613e4882613de6565b613e528185613df1565b9350613e62818560208601613e02565b613e6b81613e2c565b840191505092915050565b60006020820190508181036000830152613e908184613e3d565b905092915050565b6000819050919050565b613eab81613e98565b8114613eb657600080fd5b50565b600081359050613ec881613ea2565b92915050565b600060208284031215613ee457613ee3613d21565b5b6000613ef284828501613eb9565b91505092915050565b600073ffffffffffffffffffffffffffffffffffffffff82169050919050565b6000613f2682613efb565b9050919050565b613f3681613f1b565b82525050565b6000602082019050613f516000830184613f2d565b92915050565b613f6081613f1b565b8114613f6b57600080fd5b50565b600081359050613f7d81613f57565b92915050565b60008060408385031215613f9a57613f99613d21565b5b6000613fa885828601613f6e565b9250506020613fb985828601613eb9565b9150509250929050565b600080fd5b600080fd5b7f4e487b7100000000000000000000000000000000000000000000000000000000600052604160045260246000fd5b61400582613e2c565b810181811067ffffffffffffffff8211171561402457614023613fcd565b5b80604052505050565b6000614037613d17565b90506140438282613ffc565b919050565b600067ffffffffffffffff82111561406357614062613fcd565b5b61406c82613e2c565b9050602081019050919050565b82818337600083830152505050565b600061409b61409684614048565b61402d565b9050828152602081018484840111156140b7576140b6613fc8565b5b6140c2848285614079565b509392505050565b600082601f8301126140df576140de613fc3565b5b81356140ef848260208601614088565b91505092915050565b6000806000806080858703121561411257614111613d21565b5b600061412087828801613f6e565b945050602061413187828801613f6e565b935050604061414287828801613eb9565b925050606085013567ffffffffffffffff81111561416357614162613d26565b5b61416f878288016140ca565b91505092959194509250565b61418481613d2b565b82525050565b600060208201905061419f600083018461417b565b92915050565b600080604083850312156141bc576141bb613d21565b5b60006141ca85828601613eb9565b92505060206141db85828601613eb9565b9150509250929050565b6000806000606084860312156141fe576141fd613d21565b5b600061420c86828701613f6e565b935050602061421d86828701613f6e565b925050604061422e86828701613eb9565b9150509250925092565b6000819050919050565b61424b81614238565b811461425657600080fd5b50565b60008135905061426881614242565b92915050565b60006020828403121561428457614283613d21565b5b600061429284828501614259565b91505092915050565b6142a481614238565b82525050565b60006020820190506142bf600083018461429b565b92915050565b600080604083850312156142dc576142db613d21565b5b60006142ea85828601614259565b92505060206142fb85828601613f6e565b9150509250929050565b600067ffffffffffffffff8211156143205761431f613fcd565b5b602082029050602081019050919050565b600080fd5b600061434961434484614305565b61402d565b9050808382526020820190506020840283018581111561436c5761436b614331565b5b835b8181101561439557806143818882613eb9565b84526020840193505060208101905061436e565b5050509392505050565b600082601f8301126143b4576143b3613fc3565b5b81356143c4848260208601614336565b91505092915050565b60008060008060008060c087890312156143ea576143e9613d21565b5b60006143f889828a01613eb9565b965050602061440989828a01613f6e565b955050604061441a89828a01613f6e565b945050606087013567ffffffffffffffff81111561443b5761443a613d26565b5b61444789828a0161439f565b935050608087013567ffffffffffffffff81111561446857614467613d26565b5b61447489828a0161439f565b92505060a087013567ffffffffffffffff81111561449557614494613d26565b5b6144a189828a016140ca565b9150509295509295509295565b60008060008060008060c087890312156144cb576144ca613d21565b5b60006144d989828a01613eb9565b96505060206144ea89828a01613f6e565b95505060406144fb89828a01613f6e565b945050606061450c89828a01613eb9565b935050608061451d89828a01613eb9565b92505060a087013567ffffffffffffffff81111561453e5761453d613d26565b5b61454a89828a016140ca565b9150509295509295509295565b6000806040838503121561456e5761456d613d21565b5b600061457c85828601613eb9565b925050602061458d85828601613f6e565b9150509250929050565b600081519050919050565b600082825260208201905092915050565b6000819050602082019050919050565b6145cc81613e98565b82525050565b60006145de83836145c3565b60208301905092915050565b6000602082019050919050565b600061460282614597565b61460c81856145a2565b9350614617836145b3565b8060005b8381101561464857815161462f88826145d2565b975061463a836145ea565b92505060018101905061461b565b5085935050505092915050565b6000602082019050818103600083015261466f81846145f7565b905092915050565b6000806000606084860312156146905761468f613d21565b5b600061469e86828701613eb9565b93505060206146af86828701613f6e565b92505060406146c086828701613eb9565b9150509250925092565b6146d381613e98565b82525050565b60006020820190506146ee60008301846146ca565b92915050565b60006020828403121561470a57614709613d21565b5b600061471884828501613f6e565b91505092915050565b600081519050919050565b600082825260208201905092915050565b6000819050602082019050919050565b61475681613f1b565b82525050565b6000614768838361474d565b60208301905092915050565b6000602082019050919050565b600061478c82614721565b614796818561472c565b93506147a18361473d565b8060005b838110156147d25781516147b9888261475c565b97506147c483614774565b9250506001810190506147a5565b5085935050505092915050565b600060208201905081810360008301526147f98184614781565b905092915050565b61480a81613db0565b811461481557600080fd5b50565b60008135905061482781614801565b92915050565b6000806040838503121561484457614843613d21565b5b600061485285828601613f6e565b925050602061486385828601614818565b9150509250929050565b600080600080600060a0868803121561488957614888613d21565b5b600061489788828901613f6e565b95505060206148a888828901613f6e565b945050604086013567ffffffffffffffff8111156148c9576148c8613d26565b5b6148d58882890161439f565b935050606086013567ffffffffffffffff8111156148f6576148f5613d26565b5b6149028882890161439f565b925050608086013567ffffffffffffffff81111561492357614922613d26565b5b61492f888289016140ca565b9150509295509295909350565b6000806040838503121561495357614952613d21565b5b600061496185828601613f6e565b925050602061497285828601613f6e565b9150509250929050565b600080600080600060a0868803121561499857614997613d21565b5b60006149a688828901613f6e565b95505060206149b788828901613f6e565b94505060406149c888828901613eb9565b93505060606149d988828901613eb9565b925050608086013567ffffffffffffffff8111156149fa576149f9613d26565b5b614a06888289016140ca565b9150509295509295909350565b7f4e487b7100000000000000000000000000000000000000000000000000000000600052602260045260246000fd5b60006002820490506001821680614a5a57607f821691505b602082108103614a6d57614a6c614a13565b5b50919050565b7f4552433732313a20617070726f76616c20746f2063757272656e74206f776e6560008201527f7200000000000000000000000000000000000000000000000000000000000000602082015250565b6000614acf602183613df1565b9150614ada82614a73565b604082019050919050565b60006020820190508181036000830152614afe81614ac2565b9050919050565b7f4552433732313a20617070726f76652063616c6c6572206973206e6f7420746f60008201527f6b656e206f776e6572206e6f7220617070726f76656420666f7220616c6c0000602082015250565b6000614b61603e83613df1565b9150614b6c82614b05565b604082019050919050565b60006020820190508181036000830152614b9081614b54565b9050919050565b7f4552433939383a2064617461206d75737420636f6e7461696e2074686520756e60008201527f697175652075696e7432353620746f6b656e496420746f207472616e7366657260208201527f20746865206368696c6420746f6b656e20746f00000000000000000000000000604082015250565b6000614c19605383613df1565b9150614c2482614b97565b606082019050919050565b60006020820190508181036000830152614c4881614c0c565b9050919050565b7f4e487b7100000000000000000000000000000000000000000000000000000000600052601160045260246000fd5b6000614c8982613e98565b9150614c9483613e98565b9250828203905081811115614cac57614cab614c4f565b5b92915050565b6000819050919050565b6000819050919050565b6000614ce1614cdc614cd784614cb2565b614cbc565b613e98565b9050919050565b614cf181614cc6565b82525050565b6000604082019050614d0c60008301856146ca565b614d196020830184614ce8565b9392505050565b6000614d2b82613e98565b91507fffffffffffffffffffffffffffffffffffffffffffffffffffffffffffffffff8203614d5d57614d5c614c4f565b5b600182019050919050565b7f4552433732313a2063616c6c6572206973206e6f7420746f6b656e206f776e6560008201527f72206e6f7220617070726f766564000000000000000000000000000000000000602082015250565b6000614dc4602e83613df1565b9150614dcf82614d68565b604082019050919050565b60006020820190508181036000830152614df381614db7565b9050919050565b7f4552433939383a2069647320616e6420616d6f756e7473206c656e677468206d60008201527f69736d6174636800000000000000000000000000000000000000000000000000602082015250565b6000614e56602783613df1565b9150614e6182614dfa565b604082019050919050565b60006020820190508181036000830152614e8581614e49565b9050919050565b7f4552433939383a207472616e7366657220746f20746865207a65726f2061646460008201527f7265737300000000000000000000000000000000000000000000000000000000602082015250565b6000614ee8602483613df1565b9150614ef382614e8c565b604082019050919050565b60006020820190508181036000830152614f1781614edb565b9050919050565b7f4552433939383a2063616c6c6572206973206e6f74206f776e6572206e6f722060008201527f617070726f766564000000000000000000000000000000000000000000000000602082015250565b6000614f7a602883613df1565b9150614f8582614f1e565b604082019050919050565b60006020820190508181036000830152614fa981614f6d565b9050919050565b7f4e487b7100000000000000000000000000000000000000000000000000000000600052603260045260246000fd5b600081519050919050565b600082825260208201905092915050565b600061500682614fdf565b6150108185614fea565b9350615020818560208601613e02565b61502981613e2c565b840191505092915050565b600060a0820190506150496000830188613f2d565b6150566020830187613f2d565b818103604083015261506881866145f7565b9050818103606083015261507c81856145f7565b905081810360808301526150908184614ffb565b90509695505050505050565b600060408201905081810360008301526150b681856145f7565b905081810360208301526150ca81846145f7565b90509392505050565b7f416363657373436f6e74726f6c3a2063616e206f6e6c792072656e6f756e636560008201527f20726f6c657320666f722073656c660000000000000000000000000000000000602082015250565b600061512f602f83613df1565b915061513a826150d3565b604082019050919050565b6000602082019050818103600083015261515e81615122565b9050919050565b7f4552433732315072657365744d696e7465725061757365724175746f49643a2060008201527f6d75737420686176652070617573657220726f6c6520746f20756e7061757365602082015250565b60006151c1604083613df1565b91506151cc82615165565b604082019050919050565b600060208201905081810360008301526151f0816151b4565b9050919050565b7f4552433732314275726e61626c653a2063616c6c6572206973206e6f74206f7760008201527f6e6572206e6f7220617070726f76656400000000000000000000000000000000602082015250565b6000615253603083613df1565b915061525e826151f7565b604082019050919050565b6000602082019050818103600083015261528281615246565b9050919050565b600060a08201905061529e6000830188613f2d565b6152ab6020830187613f2d565b6152b860408301866146ca565b6152c560608301856146ca565b81810360808301526152d78184614ffb565b90509695505050505050565b60006040820190506152f860008301856146ca565b61530560208301846146ca565b9392505050565b60006080820190506153216000830187613f2d565b61532e6020830186613f2d565b61533b60408301856146ca565b818103606083015261534d8184614ffb565b905095945050505050565b7f4552433732313a20696e76616c696420746f6b656e2049440000000000000000600082015250565b600061538e601883613df1565b915061539982615358565b602082019050919050565b600060208201905081810360008301526153bd81615381565b9050919050565b7f4552433732313a2061646472657373207a65726f206973206e6f74206120766160008201527f6c6964206f776e65720000000000000000000000000000000000000000000000602082015250565b6000615420602983613df1565b915061542b826153c4565b604082019050919050565b6000602082019050818103600083015261544f81615413565b9050919050565b7f4552433732315072657365744d696e7465725061757365724175746f49643a2060008201527f6d75737420686176652070617573657220726f6c6520746f2070617573650000602082015250565b60006154b2603e83613df1565b91506154bd82615456565b604082019050919050565b600060208201905081810360008301526154e1816154a5565b9050919050565b7f455243313135353a2069647320616e642076616c756573206c656e677468206d60008201527f69736d6174636800000000000000000000000000000000000000000000000000602082015250565b6000615544602783613df1565b915061554f826154e8565b604082019050919050565b6000602082019050818103600083015261557381615537565b9050919050565b600081905092915050565b600061559082613de6565b61559a818561557a565b93506155aa818560208601613e02565b80840191505092915050565b60006155c28285615585565b91506155ce8284615585565b91508190509392505050565b60006155e582613e98565b91506155f083613e98565b925082820190508082111561560857615607614c4f565b5b92915050565b7f4552433732313a207472616e736665722066726f6d20696e636f72726563742060008201527f6f776e6572000000000000000000000000000000000000000000000000000000602082015250565b600061566a602583613df1565b91506156758261560e565b604082019050919050565b600060208201905081810360008301526156998161565d565b9050919050565b7f4552433732313a207472616e7366657220746f20746865207a65726f2061646460008201527f7265737300000000000000000000000000000000000000000000000000000000602082015250565b60006156fc602483613df1565b9150615707826156a0565b604082019050919050565b6000602082019050818103600083015261572b816156ef565b9050919050565b7f4552433939385061757361626c653a206368696c64207472616e73666572207760008201527f68696c6520706175736564000000000000000000000000000000000000000000602082015250565b600061578e602b83613df1565b915061579982615732565b604082019050919050565b600060208201905081810360008301526157bd81615781565b9050919050565b7f4552433939383a20696e73756666696369656e74206368696c642062616c616e60008201527f636520666f72207472616e736665720000000000000000000000000000000000602082015250565b6000615820602f83613df1565b915061582b826157c4565b604082019050919050565b6000602082019050818103600083015261584f81615813565b9050919050565b7f4552433732313a206d696e7420746f20746865207a65726f2061646472657373600082015250565b600061588c602083613df1565b915061589782615856565b602082019050919050565b600060208201905081810360008301526158bb8161587f565b9050919050565b7f4552433732313a20746f6b656e20616c7265616479206d696e74656400000000600082015250565b60006158f8601c83613df1565b9150615903826158c2565b602082019050919050565b60006020820190508181036000830152615927816158eb565b9050919050565b7f4552433732313a20617070726f766520746f2063616c6c657200000000000000600082015250565b6000615964601983613df1565b915061596f8261592e565b602082019050919050565b6000602082019050818103600083015261599381615957565b9050919050565b7f4552433732313a207472616e7366657220746f206e6f6e20455243373231526560008201527f63656976657220696d706c656d656e7465720000000000000000000000000000602082015250565b60006159f6603283613df1565b9150615a018261599a565b604082019050919050565b60006020820190508181036000830152615a25816159e9565b9050919050565b7f4e487b7100000000000000000000000000000000000000000000000000000000600052601260045260246000fd5b6000615a6682613e98565b9150615a7183613e98565b925082615a8157615a80615a2c565b5b828204905092915050565b6000615a9782613e98565b9150615aa283613e98565b925082615ab257615ab1615a2c565b5b828206905092915050565b7f4552433732315061757361626c653a20746f6b656e207472616e73666572207760008201527f68696c6520706175736564000000000000000000000000000000000000000000602082015250565b6000615b19602b83613df1565b9150615b2482615abd565b604082019050919050565b60006020820190508181036000830152615b4881615b0c565b9050919050565b7f416363657373436f6e74726f6c3a206163636f756e7420000000000000000000600082015250565b6000615b8560178361557a565b9150615b9082615b4f565b601782019050919050565b7f206973206d697373696e6720726f6c6520000000000000000000000000000000600082015250565b6000615bd160118361557a565b9150615bdc82615b9b565b601182019050919050565b6000615bf282615b78565b9150615bfe8285615585565b9150615c0982615bc4565b9150615c158284615585565b91508190509392505050565b7f5061757361626c653a206e6f7420706175736564000000000000000000000000600082015250565b6000615c57601483613df1565b9150615c6282615c21565b602082019050919050565b60006020820190508181036000830152615c8681615c4a565b9050919050565b7f5061757361626c653a2070617573656400000000000000000000000000000000600082015250565b6000615cc3601083613df1565b9150615cce82615c8d565b602082019050919050565b60006020820190508181036000830152615cf281615cb6565b9050919050565b600081519050615d0881613d57565b92915050565b600060208284031215615d2457615d23613d21565b5b6000615d3284828501615cf9565b91505092915050565b6000615d4682613e98565b9150615d5183613e98565b9250828202615d5f81613e98565b91508282048414831517615d7657615d75614c4f565b5b5092915050565b6000615d8882613e98565b915060008203615d9b57615d9a614c4f565b5b600182039050919050565b7f537472696e67733a20686578206c656e67746820696e73756666696369656e74600082015250565b6000615ddc602083613df1565b9150615de782615da6565b602082019050919050565b60006020820190508181036000830152615e0b81615dcf565b9050919050565b7f4e487b7100000000000000000000000000000000000000000000000000000000600052603160045260246000fdfea2646970667358221220f9dfca04534bada33cdf51a1f5a425f5eeda6bfc1f8b84f1e59fd2f22581231a64736f6c63430008110033",
  "immutableReferences": {},
  "source": "// SPDX-License-Identifier: MIT\n\npragma solidity ^0.8.0;\n\n/* import \"https://github.com/OpenZeppelin/openzeppelin-contracts/blob/master/contracts/access/AccessControl.sol\";\nimport \"https://github.com/OpenZeppelin/openzeppelin-contracts/blob/master/contracts/GSN/Context.sol\";\nimport \"https://github.com/OpenZeppelin/openzeppelin-contracts/blob/master/contracts/utils/Pausable.sol\"; */\n\nimport \"@openzeppelin/contracts/access/AccessControl.sol\";\nimport \"@openzeppelin/contracts/utils/Context.sol\";\nimport \"@openzeppelin/contracts/security/Pausable.sol\";\n\nimport \"./ERC998ERC1155TopDown.sol\";\n\n/**\n * @dev {ERC998} token, including:\n *\n *  - ability for holders to burn (destroy) their tokens\n *  - a minter role that allows for token minting (creation)\n *  - a pauser role that allows to stop all token transfers\n *\n * This contract uses {AccessControl} to lock permissioned functions using the\n * different roles - head to its documentation for details.\n *\n * The account that deploys the contract will be granted the minter and pauser\n * roles, as well as the default admin role, which will let it grant both minter\n * and pauser roles to other accounts.\n */\ncontract ERC998ERC1155TopDownPresetMinterPauser is Context, AccessControl, ERC998ERC1155TopDown, Pausable {\n    bytes32 public constant MINTER_ROLE = keccak256(\"MINTER_ROLE\");\n    bytes32 public constant PAUSER_ROLE = keccak256(\"PAUSER_ROLE\");\n\n    /**\n     * @dev Grants `DEFAULT_ADMIN_ROLE`, `MINTER_ROLE` and `PAUSER_ROLE` to the\n     * account that deploys the contract.\n     *\n     * Token URIs will be autogenerated based on `baseURI` and their token IDs.\n     * See {ERC721-tokenURI}.\n     */\n    constructor(string memory name, string memory symbol, string memory baseURI) public ERC998ERC1155TopDown(name, symbol, baseURI) {\n        _setupRole(DEFAULT_ADMIN_ROLE, _msgSender());\n        _setupRole(MINTER_ROLE, _msgSender());\n        _setupRole(PAUSER_ROLE, _msgSender());\n    }\n\n    /**\n     * @dev Creates a new token for `to`. The token URI autogenerated based on\n     * the base URI passed at construction and the token ID.\n     *\n     * See {ERC721-_mint}.\n     *\n     * Requirements:\n     *\n     * - the caller must have the `MINTER_ROLE`.\n     */\n    function mint(address to, uint256 tokenId) public virtual {\n        //require(hasRole(MINTER_ROLE, _msgSender()), \"ERC721: must have minter role to mint in ERC998\");\n\n        // We cannot just use balanceOf to create the new tokenId because tokens\n        // can be burned (destroyed), so we need a separate counter.\n        _mint(to, tokenId);\n    }\n\n\n    /**\n     * @dev Burns `tokenId`. See {ERC721-_burn}.\n     *\n     * Requirements:\n     *\n     * - The caller must own `tokenId` or be an approved operator.\n     */\n    function burn(uint256 tokenId) public virtual {\n        //solhint-disable-next-line max-line-length\n        require(_isApprovedOrOwner(_msgSender(), tokenId), \"ERC721Burnable: caller is not owner nor approved\");\n        _burn(tokenId);\n    }\n\n    /**\n     * @dev Pauses all token transfers.\n     *\n     * See {ERC721Pausable} and {Pausable-_pause}.\n     *\n     * Requirements:\n     *\n     * - the caller must have the `PAUSER_ROLE`.\n     */\n    function pause() public virtual {\n        require(hasRole(PAUSER_ROLE, _msgSender()), \"ERC721PresetMinterPauserAutoId: must have pauser role to pause\");\n        _pause();\n    }\n\n    /**\n     * @dev Unpauses all token transfers.\n     *\n     * See {ERC721Pausable} and {Pausable-_unpause}.\n     *\n     * Requirements:\n     *\n     * - the caller must have the `PAUSER_ROLE`.\n     */\n    function unpause() public virtual {\n        require(hasRole(PAUSER_ROLE, _msgSender()), \"ERC721PresetMinterPauserAutoId: must have pauser role to unpause\");\n        _unpause();\n    }\n\n    /**\n     * @dev See {ERC721-_beforeTokenTransfer}.\n     *\n     * Requirements:\n     *\n     * - the contract must not be paused.\n     */\n    function _beforeTokenTransfer(address from, address to, uint256 tokenId) internal virtual override {\n        require(!paused(), \"ERC721Pausable: token transfer while paused\");\n\n        super._beforeTokenTransfer(from, to, tokenId);\n    }\n\n    function _beforeChildTransfer(\n        address operator,\n        uint256 fromTokenId,\n        address to,\n        address childContract,\n        uint256[] memory ids,\n        uint256[] memory amounts,\n        bytes memory data\n    )\n        internal virtual override\n    {\n        require(!paused(), \"ERC998Pausable: child transfer while paused\");\n\n        super._beforeChildTransfer(operator, fromTokenId, to, childContract, ids, amounts, data);\n    }\n\n    function supportsInterface(bytes4 interfaceId) public view virtual override(ERC721, IERC165, AccessControl) returns (bool) {\n        return super.supportsInterface(interfaceId);\n    }\n}\n",
  "sourcePath": "/Users/moose/Documents/Projects/composo/supp_chain/truffle/contracts/ERC998ERC1155TopDownPresetMinterPauser.sol",
  "compiler": {
    "name": "solc",
    "version": "0.8.17+commit.8df45f5f.Emscripten.clang"
  },
  "schemaVersion": "3.4.7",
  "updatedAt": "2022-11-01T05:42:45.438Z",
  "networkType": "ethereum",
  "devdoc": {
    "details": "{ERC998} token, including:  - ability for holders to burn (destroy) their tokens  - a minter role that allows for token minting (creation)  - a pauser role that allows to stop all token transfers This contract uses {AccessControl} to lock permissioned functions using the different roles - head to its documentation for details. The account that deploys the contract will be granted the minter and pauser roles, as well as the default admin role, which will let it grant both minter and pauser roles to other accounts.",
    "kind": "dev",
    "methods": {
      "approve(address,uint256)": {
        "details": "See {IERC721-approve}."
      },
      "balanceOf(address)": {
        "details": "See {IERC721-balanceOf}."
      },
      "burn(uint256)": {
        "details": "Burns `tokenId`. See {ERC721-_burn}. Requirements: - The caller must own `tokenId` or be an approved operator."
      },
      "childBalance(uint256,address,uint256)": {
        "details": "Gives child balance for a specific child contract and child id ."
      },
      "childContractsFor(uint256)": {
        "details": "Gives list of child contract where token ID has childs."
      },
      "childIdsOwned(uint256,address)": {
        "details": "Gives list of owned child ID on a child contract by parent token ID and child contract."
      },
      "constructor": {
        "details": "Grants `DEFAULT_ADMIN_ROLE`, `MINTER_ROLE` and `PAUSER_ROLE` to the account that deploys the contract. Token URIs will be autogenerated based on `baseURI` and their token IDs. See {ERC721-tokenURI}."
      },
      "getApproved(uint256)": {
        "details": "See {IERC721-getApproved}."
      },
      "getChildContract(uint256,uint256)": {
        "details": "Returns the contract address of the child token ID, given a parent and child token ID."
      },
      "getIsERC1155(uint256)": {
        "details": "gets true if tokenID is ERC1155"
      },
      "getMsgSender()": {
        "details": "Wrapper function to get message sender."
      },
      "getOwner(uint256)": {
        "details": "Returns the owner of the token specified by tokenId. Wrapper function for ERC721 function ownerOf(). "
      },
      "getRoleAdmin(bytes32)": {
        "details": "Returns the admin role that controls `role`. See {grantRole} and {revokeRole}. To change a role's admin, use {_setRoleAdmin}."
      },
      "grantRole(bytes32,address)": {
        "details": "Grants `role` to `account`. If `account` had not been already granted `role`, emits a {RoleGranted} event. Requirements: - the caller must have ``role``'s admin role. May emit a {RoleGranted} event."
      },
      "hasRole(bytes32,address)": {
        "details": "Returns `true` if `account` has been granted `role`."
      },
      "isApprovedForAll(address,address)": {
        "details": "See {IERC721-isApprovedForAll}."
      },
      "mint(address,uint256)": {
        "details": "Creates a new token for `to`. The token URI autogenerated based on the base URI passed at construction and the token ID. See {ERC721-_mint}. Requirements: - the caller must have the `MINTER_ROLE`."
      },
      "name()": {
        "details": "See {IERC721Metadata-name}."
      },
      "onERC1155BatchReceived(address,address,uint256[],uint256[],bytes)": {
        "details": "Receives a batch of child tokens, the receiver token ID must be encoded in the field data."
      },
      "onERC1155Received(address,address,uint256,uint256,bytes)": {
        "details": "Receives a child token, the receiver token ID must be encoded in the field data."
      },
      "onERC721Received(address,address,uint256,bytes)": {
        "details": "Receives a child token, the receiver token ID must be encoded in the field data."
      },
      "ownerOf(uint256)": {
        "details": "See {IERC721-ownerOf}."
      },
      "pause()": {
        "details": "Pauses all token transfers. See {ERC721Pausable} and {Pausable-_pause}. Requirements: - the caller must have the `PAUSER_ROLE`."
      },
      "paused()": {
        "details": "Returns true if the contract is paused, and false otherwise."
      },
      "renounceRole(bytes32,address)": {
        "details": "Revokes `role` from the calling account. Roles are often managed via {grantRole} and {revokeRole}: this function's purpose is to provide a mechanism for accounts to lose their privileges if they are compromised (such as when a trusted device is misplaced). If the calling account had been revoked `role`, emits a {RoleRevoked} event. Requirements: - the caller must be `account`. May emit a {RoleRevoked} event."
      },
      "revokeRole(bytes32,address)": {
        "details": "Revokes `role` from `account`. If `account` had been granted `role`, emits a {RoleRevoked} event. Requirements: - the caller must have ``role``'s admin role. May emit a {RoleRevoked} event."
      },
      "safeBatchTransferChildFrom(uint256,address,address,uint256[],uint256[],bytes)": {
        "details": "Transfers batch of child tokens from a token ID."
      },
      "safeTransferChildFrom(uint256,address,address,uint256,uint256,bytes)": {
        "details": "Transfers child token from a token ID."
      },
      "safeTransferFrom(address,address,uint256)": {
        "details": "See {IERC721-safeTransferFrom}."
      },
      "safeTransferFrom(address,address,uint256,bytes)": {
        "details": "See {IERC721-safeTransferFrom}."
      },
      "setApprovalForAll(address,bool)": {
        "details": "See {IERC721-setApprovalForAll}."
      },
      "setIsERC1155(uint256)": {
        "details": "Sets isERC1155 array "
      },
      "symbol()": {
        "details": "See {IERC721Metadata-symbol}."
      },
      "tokenURI(uint256)": {
        "details": "See {IERC721Metadata-tokenURI}."
      },
      "transferFrom(address,address,uint256)": {
        "details": "See {IERC721-transferFrom}."
      },
      "unpause()": {
        "details": "Unpauses all token transfers. See {ERC721Pausable} and {Pausable-_unpause}. Requirements: - the caller must have the `PAUSER_ROLE`."
      }
    },
    "version": 1
  },
  "userdoc": {
    "kind": "user",
    "methods": {},
    "version": 1
  }
}