{
  "contractName": "ERC998ERC1155TopDownPresetMinterPauser",
  "abi": [
    {
      "inputs": [
        {
          "internalType": "string",
          "name": "name",
          "type": "string"
        },
        {
          "internalType": "string",
          "name": "symbol",
          "type": "string"
        },
        {
          "internalType": "string",
          "name": "baseURI",
          "type": "string"
        }
      ],
      "stateMutability": "nonpayable",
      "type": "constructor"
    },
    {
      "anonymous": false,
      "inputs": [
        {
          "indexed": true,
          "internalType": "address",
          "name": "owner",
          "type": "address"
        },
        {
          "indexed": true,
          "internalType": "address",
          "name": "approved",
          "type": "address"
        },
        {
          "indexed": true,
          "internalType": "uint256",
          "name": "tokenId",
          "type": "uint256"
        }
      ],
      "name": "Approval",
      "type": "event"
    },
    {
      "anonymous": false,
      "inputs": [
        {
          "indexed": true,
          "internalType": "address",
          "name": "owner",
          "type": "address"
        },
        {
          "indexed": true,
          "internalType": "address",
          "name": "operator",
          "type": "address"
        },
        {
          "indexed": false,
          "internalType": "bool",
          "name": "approved",
          "type": "bool"
        }
      ],
      "name": "ApprovalForAll",
      "type": "event"
    },
    {
      "anonymous": false,
      "inputs": [
        {
          "indexed": false,
          "internalType": "address",
          "name": "account",
          "type": "address"
        }
      ],
      "name": "Paused",
      "type": "event"
    },
    {
      "anonymous": false,
      "inputs": [
        {
          "indexed": true,
          "internalType": "address",
          "name": "from",
          "type": "address"
        },
        {
          "indexed": true,
          "internalType": "uint256",
          "name": "toTokenId",
          "type": "uint256"
        },
        {
          "indexed": true,
          "internalType": "address",
          "name": "childContract",
          "type": "address"
        },
        {
          "indexed": false,
          "internalType": "uint256",
          "name": "childTokenId",
          "type": "uint256"
        },
        {
          "indexed": false,
          "internalType": "uint256",
          "name": "amount",
          "type": "uint256"
        }
      ],
      "name": "ReceivedChild",
      "type": "event"
    },
    {
      "anonymous": false,
      "inputs": [
        {
          "indexed": true,
          "internalType": "bytes32",
          "name": "role",
          "type": "bytes32"
        },
        {
          "indexed": true,
          "internalType": "bytes32",
          "name": "previousAdminRole",
          "type": "bytes32"
        },
        {
          "indexed": true,
          "internalType": "bytes32",
          "name": "newAdminRole",
          "type": "bytes32"
        }
      ],
      "name": "RoleAdminChanged",
      "type": "event"
    },
    {
      "anonymous": false,
      "inputs": [
        {
          "indexed": true,
          "internalType": "bytes32",
          "name": "role",
          "type": "bytes32"
        },
        {
          "indexed": true,
          "internalType": "address",
          "name": "account",
          "type": "address"
        },
        {
          "indexed": true,
          "internalType": "address",
          "name": "sender",
          "type": "address"
        }
      ],
      "name": "RoleGranted",
      "type": "event"
    },
    {
      "anonymous": false,
      "inputs": [
        {
          "indexed": true,
          "internalType": "bytes32",
          "name": "role",
          "type": "bytes32"
        },
        {
          "indexed": true,
          "internalType": "address",
          "name": "account",
          "type": "address"
        },
        {
          "indexed": true,
          "internalType": "address",
          "name": "sender",
          "type": "address"
        }
      ],
      "name": "RoleRevoked",
      "type": "event"
    },
    {
      "anonymous": false,
      "inputs": [
        {
          "indexed": true,
          "internalType": "address",
          "name": "from",
          "type": "address"
        },
        {
          "indexed": true,
          "internalType": "address",
          "name": "to",
          "type": "address"
        },
        {
          "indexed": true,
          "internalType": "uint256",
          "name": "tokenId",
          "type": "uint256"
        }
      ],
      "name": "Transfer",
      "type": "event"
    },
    {
      "anonymous": false,
      "inputs": [
        {
          "indexed": true,
          "internalType": "uint256",
          "name": "fromTokenId",
          "type": "uint256"
        },
        {
          "indexed": true,
          "internalType": "address",
          "name": "to",
          "type": "address"
        },
        {
          "indexed": true,
          "internalType": "address",
          "name": "childContract",
          "type": "address"
        },
        {
          "indexed": false,
          "internalType": "uint256[]",
          "name": "childTokenIds",
          "type": "uint256[]"
        },
        {
          "indexed": false,
          "internalType": "uint256[]",
          "name": "amounts",
          "type": "uint256[]"
        }
      ],
      "name": "TransferBatchChild",
      "type": "event"
    },
    {
      "anonymous": false,
      "inputs": [
        {
          "indexed": true,
          "internalType": "uint256",
          "name": "fromTokenId",
          "type": "uint256"
        },
        {
          "indexed": true,
          "internalType": "address",
          "name": "to",
          "type": "address"
        },
        {
          "indexed": true,
          "internalType": "address",
          "name": "childContract",
          "type": "address"
        },
        {
          "indexed": false,
          "internalType": "uint256",
          "name": "childTokenId",
          "type": "uint256"
        },
        {
          "indexed": false,
          "internalType": "uint256",
          "name": "amount",
          "type": "uint256"
        }
      ],
      "name": "TransferSingleChild",
      "type": "event"
    },
    {
      "anonymous": false,
      "inputs": [
        {
          "indexed": false,
          "internalType": "address",
          "name": "account",
          "type": "address"
        }
      ],
      "name": "Unpaused",
      "type": "event"
    },
    {
      "inputs": [],
      "name": "DEFAULT_ADMIN_ROLE",
      "outputs": [
        {
          "internalType": "bytes32",
          "name": "",
          "type": "bytes32"
        }
      ],
      "stateMutability": "view",
      "type": "function",
      "constant": true
    },
    {
      "inputs": [],
      "name": "MINTER_ROLE",
      "outputs": [
        {
          "internalType": "bytes32",
          "name": "",
          "type": "bytes32"
        }
      ],
      "stateMutability": "view",
      "type": "function",
      "constant": true
    },
    {
      "inputs": [],
      "name": "PAUSER_ROLE",
      "outputs": [
        {
          "internalType": "bytes32",
          "name": "",
          "type": "bytes32"
        }
      ],
      "stateMutability": "view",
      "type": "function",
      "constant": true
    },
    {
      "inputs": [
        {
          "internalType": "address",
          "name": "to",
          "type": "address"
        },
        {
          "internalType": "uint256",
          "name": "tokenId",
          "type": "uint256"
        }
      ],
      "name": "approve",
      "outputs": [],
      "stateMutability": "nonpayable",
      "type": "function"
    },
    {
      "inputs": [
        {
          "internalType": "address",
          "name": "owner",
          "type": "address"
        }
      ],
      "name": "balanceOf",
      "outputs": [
        {
          "internalType": "uint256",
          "name": "",
          "type": "uint256"
        }
      ],
      "stateMutability": "view",
      "type": "function",
      "constant": true
    },
    {
      "inputs": [
        {
          "internalType": "uint256",
          "name": "tokenId",
          "type": "uint256"
        },
        {
          "internalType": "address",
          "name": "childContract",
          "type": "address"
        },
        {
          "internalType": "uint256",
          "name": "childTokenId",
          "type": "uint256"
        }
      ],
      "name": "childBalance",
      "outputs": [
        {
          "internalType": "uint256",
          "name": "",
          "type": "uint256"
        }
      ],
      "stateMutability": "view",
      "type": "function",
      "constant": true
    },
    {
      "inputs": [
        {
          "internalType": "uint256",
          "name": "tokenId",
          "type": "uint256"
        }
      ],
      "name": "childContractsFor",
      "outputs": [
        {
          "internalType": "address[]",
          "name": "",
          "type": "address[]"
        }
      ],
      "stateMutability": "view",
      "type": "function",
      "constant": true
    },
    {
      "inputs": [
        {
          "internalType": "uint256",
          "name": "tokenId",
          "type": "uint256"
        },
        {
          "internalType": "address",
          "name": "childContract",
          "type": "address"
        }
      ],
      "name": "childIdsForOn",
      "outputs": [
        {
          "internalType": "uint256[]",
          "name": "",
          "type": "uint256[]"
        }
      ],
      "stateMutability": "view",
      "type": "function",
      "constant": true
    },
    {
      "inputs": [
        {
          "internalType": "uint256",
          "name": "tokenId",
          "type": "uint256"
        }
      ],
      "name": "getApproved",
      "outputs": [
        {
          "internalType": "address",
          "name": "",
          "type": "address"
        }
      ],
      "stateMutability": "view",
      "type": "function",
      "constant": true
    },
    {
      "inputs": [
        {
          "internalType": "bytes32",
          "name": "role",
          "type": "bytes32"
        }
      ],
      "name": "getRoleAdmin",
      "outputs": [
        {
          "internalType": "bytes32",
          "name": "",
          "type": "bytes32"
        }
      ],
      "stateMutability": "view",
      "type": "function",
      "constant": true
    },
    {
      "inputs": [
        {
          "internalType": "bytes32",
          "name": "role",
          "type": "bytes32"
        },
        {
          "internalType": "address",
          "name": "account",
          "type": "address"
        }
      ],
      "name": "grantRole",
      "outputs": [],
      "stateMutability": "nonpayable",
      "type": "function"
    },
    {
      "inputs": [
        {
          "internalType": "bytes32",
          "name": "role",
          "type": "bytes32"
        },
        {
          "internalType": "address",
          "name": "account",
          "type": "address"
        }
      ],
      "name": "hasRole",
      "outputs": [
        {
          "internalType": "bool",
          "name": "",
          "type": "bool"
        }
      ],
      "stateMutability": "view",
      "type": "function",
      "constant": true
    },
    {
      "inputs": [
        {
          "internalType": "address",
          "name": "owner",
          "type": "address"
        },
        {
          "internalType": "address",
          "name": "operator",
          "type": "address"
        }
      ],
      "name": "isApprovedForAll",
      "outputs": [
        {
          "internalType": "bool",
          "name": "",
          "type": "bool"
        }
      ],
      "stateMutability": "view",
      "type": "function",
      "constant": true
    },
    {
      "inputs": [],
      "name": "name",
      "outputs": [
        {
          "internalType": "string",
          "name": "",
          "type": "string"
        }
      ],
      "stateMutability": "view",
      "type": "function",
      "constant": true
    },
    {
      "inputs": [
        {
          "internalType": "address",
          "name": "operator",
          "type": "address"
        },
        {
          "internalType": "address",
          "name": "from",
          "type": "address"
        },
        {
          "internalType": "uint256[]",
          "name": "ids",
          "type": "uint256[]"
        },
        {
          "internalType": "uint256[]",
          "name": "values",
          "type": "uint256[]"
        },
        {
          "internalType": "bytes",
          "name": "data",
          "type": "bytes"
        }
      ],
      "name": "onERC1155BatchReceived",
      "outputs": [
        {
          "internalType": "bytes4",
          "name": "",
          "type": "bytes4"
        }
      ],
      "stateMutability": "nonpayable",
      "type": "function"
    },
    {
      "inputs": [
        {
          "internalType": "address",
          "name": "operator",
          "type": "address"
        },
        {
          "internalType": "address",
          "name": "from",
          "type": "address"
        },
        {
          "internalType": "uint256",
          "name": "id",
          "type": "uint256"
        },
        {
          "internalType": "uint256",
          "name": "amount",
          "type": "uint256"
        },
        {
          "internalType": "bytes",
          "name": "data",
          "type": "bytes"
        }
      ],
      "name": "onERC1155Received",
      "outputs": [
        {
          "internalType": "bytes4",
          "name": "",
          "type": "bytes4"
        }
      ],
      "stateMutability": "nonpayable",
      "type": "function"
    },
    {
      "inputs": [
        {
          "internalType": "uint256",
          "name": "tokenId",
          "type": "uint256"
        }
      ],
      "name": "ownerOf",
      "outputs": [
        {
          "internalType": "address",
          "name": "",
          "type": "address"
        }
      ],
      "stateMutability": "view",
      "type": "function",
      "constant": true
    },
    {
      "inputs": [],
      "name": "paused",
      "outputs": [
        {
          "internalType": "bool",
          "name": "",
          "type": "bool"
        }
      ],
      "stateMutability": "view",
      "type": "function",
      "constant": true
    },
    {
      "inputs": [
        {
          "internalType": "bytes32",
          "name": "role",
          "type": "bytes32"
        },
        {
          "internalType": "address",
          "name": "account",
          "type": "address"
        }
      ],
      "name": "renounceRole",
      "outputs": [],
      "stateMutability": "nonpayable",
      "type": "function"
    },
    {
      "inputs": [
        {
          "internalType": "bytes32",
          "name": "role",
          "type": "bytes32"
        },
        {
          "internalType": "address",
          "name": "account",
          "type": "address"
        }
      ],
      "name": "revokeRole",
      "outputs": [],
      "stateMutability": "nonpayable",
      "type": "function"
    },
    {
      "inputs": [
        {
          "internalType": "uint256",
          "name": "fromTokenId",
          "type": "uint256"
        },
        {
          "internalType": "address",
          "name": "to",
          "type": "address"
        },
        {
          "internalType": "address",
          "name": "childContract",
          "type": "address"
        },
        {
          "internalType": "uint256[]",
          "name": "childTokenIds",
          "type": "uint256[]"
        },
        {
          "internalType": "uint256[]",
          "name": "amounts",
          "type": "uint256[]"
        },
        {
          "internalType": "bytes",
          "name": "data",
          "type": "bytes"
        }
      ],
      "name": "safeBatchTransferChildFrom",
      "outputs": [],
      "stateMutability": "nonpayable",
      "type": "function"
    },
    {
      "inputs": [
        {
          "internalType": "uint256",
          "name": "fromTokenId",
          "type": "uint256"
        },
        {
          "internalType": "address",
          "name": "to",
          "type": "address"
        },
        {
          "internalType": "address",
          "name": "childContract",
          "type": "address"
        },
        {
          "internalType": "uint256",
          "name": "childTokenId",
          "type": "uint256"
        },
        {
          "internalType": "uint256",
          "name": "amount",
          "type": "uint256"
        },
        {
          "internalType": "bytes",
          "name": "data",
          "type": "bytes"
        }
      ],
      "name": "safeTransferChildFrom",
      "outputs": [],
      "stateMutability": "nonpayable",
      "type": "function"
    },
    {
      "inputs": [
        {
          "internalType": "address",
          "name": "from",
          "type": "address"
        },
        {
          "internalType": "address",
          "name": "to",
          "type": "address"
        },
        {
          "internalType": "uint256",
          "name": "tokenId",
          "type": "uint256"
        }
      ],
      "name": "safeTransferFrom",
      "outputs": [],
      "stateMutability": "nonpayable",
      "type": "function"
    },
    {
      "inputs": [
        {
          "internalType": "address",
          "name": "from",
          "type": "address"
        },
        {
          "internalType": "address",
          "name": "to",
          "type": "address"
        },
        {
          "internalType": "uint256",
          "name": "tokenId",
          "type": "uint256"
        },
        {
          "internalType": "bytes",
          "name": "data",
          "type": "bytes"
        }
      ],
      "name": "safeTransferFrom",
      "outputs": [],
      "stateMutability": "nonpayable",
      "type": "function"
    },
    {
      "inputs": [
        {
          "internalType": "address",
          "name": "operator",
          "type": "address"
        },
        {
          "internalType": "bool",
          "name": "approved",
          "type": "bool"
        }
      ],
      "name": "setApprovalForAll",
      "outputs": [],
      "stateMutability": "nonpayable",
      "type": "function"
    },
    {
      "inputs": [],
      "name": "symbol",
      "outputs": [
        {
          "internalType": "string",
          "name": "",
          "type": "string"
        }
      ],
      "stateMutability": "view",
      "type": "function",
      "constant": true
    },
    {
      "inputs": [
        {
          "internalType": "uint256",
          "name": "tokenId",
          "type": "uint256"
        }
      ],
      "name": "tokenURI",
      "outputs": [
        {
          "internalType": "string",
          "name": "",
          "type": "string"
        }
      ],
      "stateMutability": "view",
      "type": "function",
      "constant": true
    },
    {
      "inputs": [
        {
          "internalType": "address",
          "name": "from",
          "type": "address"
        },
        {
          "internalType": "address",
          "name": "to",
          "type": "address"
        },
        {
          "internalType": "uint256",
          "name": "tokenId",
          "type": "uint256"
        }
      ],
      "name": "transferFrom",
      "outputs": [],
      "stateMutability": "nonpayable",
      "type": "function"
    },
    {
      "inputs": [
        {
          "internalType": "address",
          "name": "to",
          "type": "address"
        },
        {
          "internalType": "uint256",
          "name": "tokenId",
          "type": "uint256"
        }
      ],
      "name": "mint",
      "outputs": [],
      "stateMutability": "nonpayable",
      "type": "function"
    },
    {
      "inputs": [
        {
          "internalType": "uint256",
          "name": "tokenId",
          "type": "uint256"
        }
      ],
      "name": "burn",
      "outputs": [],
      "stateMutability": "nonpayable",
      "type": "function"
    },
    {
      "inputs": [],
      "name": "pause",
      "outputs": [],
      "stateMutability": "nonpayable",
      "type": "function"
    },
    {
      "inputs": [],
      "name": "unpause",
      "outputs": [],
      "stateMutability": "nonpayable",
      "type": "function"
    },
    {
      "inputs": [
        {
          "internalType": "bytes4",
          "name": "interfaceId",
          "type": "bytes4"
        }
      ],
      "name": "supportsInterface",
      "outputs": [
        {
          "internalType": "bool",
          "name": "",
          "type": "bool"
        }
      ],
      "stateMutability": "view",
      "type": "function",
      "constant": true
    }
  ],
  "bytecode": "0x60806040523480156200001157600080fd5b506040516200605c3803806200605c833981810160405281019062000037919062000463565b828282828281600190816200004d919062000767565b5080600290816200005f919062000767565b505050620000726200014060201b60201c565b505050506000600b60006101000a81548160ff021916908315150217905550620000b56000801b620000a96200015760201b60201c565b6200015f60201b60201c565b620000f67f9f2df0fed2c77648de5860a4cc508cd0818c85b8b8a1ab4ceeef8d981c8956a6620000ea6200015760201b60201c565b6200015f60201b60201c565b620001377f65d7a28e3265b37a6474929f336521b332c1681b933f6cb9f3376673440d862a6200012b6200015760201b60201c565b6200015f60201b60201c565b5050506200084e565b606060405180602001604052806000815250905090565b600033905090565b6200017182826200017560201b60201c565b5050565b6200018782826200026660201b60201c565b6200026257600160008084815260200190815260200160002060000160008373ffffffffffffffffffffffffffffffffffffffff1673ffffffffffffffffffffffffffffffffffffffff16815260200190815260200160002060006101000a81548160ff021916908315150217905550620002076200015760201b60201c565b73ffffffffffffffffffffffffffffffffffffffff168173ffffffffffffffffffffffffffffffffffffffff16837f2f8788117e7eff1d82e926ec794901d17c78024a50270940304540a733656f0d60405160405180910390a45b5050565b600080600084815260200190815260200160002060000160008373ffffffffffffffffffffffffffffffffffffffff1673ffffffffffffffffffffffffffffffffffffffff16815260200190815260200160002060009054906101000a900460ff16905092915050565b6000604051905090565b600080fd5b600080fd5b600080fd5b600080fd5b6000601f19601f8301169050919050565b7f4e487b7100000000000000000000000000000000000000000000000000000000600052604160045260246000fd5b6200033982620002ee565b810181811067ffffffffffffffff821117156200035b576200035a620002ff565b5b80604052505050565b600062000370620002d0565b90506200037e82826200032e565b919050565b600067ffffffffffffffff821115620003a157620003a0620002ff565b5b620003ac82620002ee565b9050602081019050919050565b60005b83811015620003d9578082015181840152602081019050620003bc565b60008484015250505050565b6000620003fc620003f68462000383565b62000364565b9050828152602081018484840111156200041b576200041a620002e9565b5b62000428848285620003b9565b509392505050565b600082601f830112620004485762000447620002e4565b5b81516200045a848260208601620003e5565b91505092915050565b6000806000606084860312156200047f576200047e620002da565b5b600084015167ffffffffffffffff811115620004a0576200049f620002df565b5b620004ae8682870162000430565b935050602084015167ffffffffffffffff811115620004d257620004d1620002df565b5b620004e08682870162000430565b925050604084015167ffffffffffffffff811115620005045762000503620002df565b5b620005128682870162000430565b9150509250925092565b600081519050919050565b7f4e487b7100000000000000000000000000000000000000000000000000000000600052602260045260246000fd5b600060028204905060018216806200056f57607f821691505b60208210810362000585576200058462000527565b5b50919050565b60008190508160005260206000209050919050565b60006020601f8301049050919050565b600082821b905092915050565b600060088302620005ef7fffffffffffffffffffffffffffffffffffffffffffffffffffffffffffffffff82620005b0565b620005fb8683620005b0565b95508019841693508086168417925050509392505050565b6000819050919050565b6000819050919050565b600062000648620006426200063c8462000613565b6200061d565b62000613565b9050919050565b6000819050919050565b620006648362000627565b6200067c62000673826200064f565b848454620005bd565b825550505050565b600090565b6200069362000684565b620006a081848462000659565b505050565b5b81811015620006c857620006bc60008262000689565b600181019050620006a6565b5050565b601f8211156200071757620006e1816200058b565b620006ec84620005a0565b81016020851015620006fc578190505b620007146200070b85620005a0565b830182620006a5565b50505b505050565b600082821c905092915050565b60006200073c600019846008026200071c565b1980831691505092915050565b600062000757838362000729565b9150826002028217905092915050565b62000772826200051c565b67ffffffffffffffff8111156200078e576200078d620002ff565b5b6200079a825462000556565b620007a7828285620006cc565b600060209050601f831160018114620007df5760008415620007ca578287015190505b620007d6858262000749565b86555062000846565b601f198416620007ef866200058b565b60005b828110156200081957848901518255600182019150602085019450602081019050620007f2565b8683101562000839578489015162000835601f89168262000729565b8355505b6001600288020188555050505b505050505050565b6157fe806200085e6000396000f3fe608060405234801561001057600080fd5b50600436106101fb5760003560e01c806360d4d23a1161011a578063a22cb465116100ad578063d53913931161007c578063d5391393146105d0578063d547741f146105ee578063e63ab1e91461060a578063e985e9c514610628578063f23a6e6114610658576101fb565b8063a22cb46514610538578063b88d4fde14610554578063bc197c8114610570578063c87b56dd146105a0576101fb565b806389e7e2f2116100e957806389e7e2f21461049c57806391d14854146104cc57806395d89b41146104fc578063a217fddf1461051a576101fb565b806360d4d23a146104025780636352211e1461043257806370a08231146104625780638456cb5914610492576101fb565b806332085b651161019257806342842e0e1161016157806342842e0e1461039057806342966c68146103ac57806342cf6e74146103c85780635c975abb146103e4576101fb565b806332085b651461033257806336568abe1461034e5780633f4ba83a1461036a57806340c10f1914610374576101fb565b806323b872dd116101ce57806323b872dd1461029a578063248a9ca3146102b65780632676608c146102e65780632f2ff15d14610316576101fb565b806301ffc9a71461020057806306fdde0314610230578063081812fc1461024e578063095ea7b31461027e575b600080fd5b61021a600480360381019061021591906137a0565b610688565b60405161022791906137e8565b60405180910390f35b61023861069a565b6040516102459190613893565b60405180910390f35b610268600480360381019061026391906138eb565b61072c565b6040516102759190613959565b60405180910390f35b610298600480360381019061029391906139a0565b610772565b005b6102b460048036038101906102af91906139e0565b610889565b005b6102d060048036038101906102cb9190613a69565b6108e9565b6040516102dd9190613aa5565b60405180910390f35b61030060048036038101906102fb9190613ac0565b610908565b60405161030d9190613bbe565b60405180910390f35b610330600480360381019061032b9190613be0565b610aaf565b005b61034c60048036038101906103479190613e1d565b610ad0565b005b61036860048036038101906103639190613be0565b610d7b565b005b610372610dfe565b005b61038e600480360381019061038991906139a0565b610e78565b005b6103aa60048036038101906103a591906139e0565b610e86565b005b6103c660048036038101906103c191906138eb565b610ea6565b005b6103e260048036038101906103dd9190613efe565b610f02565b005b6103ec61111b565b6040516103f991906137e8565b60405180910390f35b61041c60048036038101906104179190613fa7565b611132565b6040516104299190614009565b60405180910390f35b61044c600480360381019061044791906138eb565b61119f565b6040516104599190613959565b60405180910390f35b61047c60048036038101906104779190614024565b611250565b6040516104899190614009565b60405180910390f35b61049a611307565b005b6104b660048036038101906104b191906138eb565b611381565b6040516104c3919061410f565b60405180910390f35b6104e660048036038101906104e19190613be0565b61149e565b6040516104f391906137e8565b60405180910390f35b610504611508565b6040516105119190613893565b60405180910390f35b61052261159a565b60405161052f9190613aa5565b60405180910390f35b610552600480360381019061054d919061415d565b6115a1565b005b61056e6004803603810190610569919061419d565b6115b7565b005b61058a60048036038101906105859190614220565b611619565b60405161059791906142fe565b60405180910390f35b6105ba60048036038101906105b591906138eb565b6117de565b6040516105c79190613893565b60405180910390f35b6105d8611846565b6040516105e59190613aa5565b60405180910390f35b61060860048036038101906106039190613be0565b61186a565b005b61061261188b565b60405161061f9190613aa5565b60405180910390f35b610642600480360381019061063d9190614319565b6118af565b60405161064f91906137e8565b60405180910390f35b610672600480360381019061066d9190614359565b611943565b60405161067f91906142fe565b60405180910390f35b600061069382611a4c565b9050919050565b6060600180546106a99061441f565b80601f01602080910402602001604051908101604052809291908181526020018280546106d59061441f565b80156107225780601f106106f757610100808354040283529160200191610722565b820191906000526020600020905b81548152906001019060200180831161070557829003601f168201915b5050505050905090565b600061073782611b2e565b6005600083815260200190815260200160002060009054906101000a900473ffffffffffffffffffffffffffffffffffffffff169050919050565b600061077d8261119f565b90508073ffffffffffffffffffffffffffffffffffffffff168373ffffffffffffffffffffffffffffffffffffffff16036107ed576040517f08c379a00000000000000000000000000000000000000000000000000000000081526004016107e4906144c2565b60405180910390fd5b8073ffffffffffffffffffffffffffffffffffffffff1661080c611b79565b73ffffffffffffffffffffffffffffffffffffffff16148061083b575061083a81610835611b79565b6118af565b5b61087a576040517f08c379a000000000000000000000000000000000000000000000000000000000815260040161087190614554565b60405180910390fd5b6108848383611b81565b505050565b61089a610894611b79565b82611c3a565b6108d9576040517f08c379a00000000000000000000000000000000000000000000000000000000081526004016108d0906145e6565b60405180910390fd5b6108e4838383611ccf565b505050565b6000806000838152602001908152602001600020600101549050919050565b60606000610964600a600086815260200190815260200160002060008573ffffffffffffffffffffffffffffffffffffffff1673ffffffffffffffffffffffffffffffffffffffff168152602001908152602001600020611f35565b67ffffffffffffffff81111561097d5761097c613c25565b5b6040519080825280602002602001820160405280156109ab5781602001602082028036833780820191505090505b50905060005b610a09600a600087815260200190815260200160002060008673ffffffffffffffffffffffffffffffffffffffff1673ffffffffffffffffffffffffffffffffffffffff168152602001908152602001600020611f35565b811015610aa457610a7281600a600088815260200190815260200160002060008773ffffffffffffffffffffffffffffffffffffffff1673ffffffffffffffffffffffffffffffffffffffff168152602001908152602001600020611f4a90919063ffffffff16565b828281518110610a8557610a84614606565b5b6020026020010181815250508080610a9c90614664565b9150506109b1565b508091505092915050565b610ab8826108e9565b610ac181611f64565b610acb8383611f78565b505050565b8151835114610b14576040517f08c379a0000000000000000000000000000000000000000000000000000000008152600401610b0b9061471e565b60405180910390fd5b600073ffffffffffffffffffffffffffffffffffffffff168573ffffffffffffffffffffffffffffffffffffffff1603610b83576040517f08c379a0000000000000000000000000000000000000000000000000000000008152600401610b7a906147b0565b60405180910390fd5b6000610b8d611b79565b90508073ffffffffffffffffffffffffffffffffffffffff16610baf8861119f565b73ffffffffffffffffffffffffffffffffffffffff161480610bdf5750610bde610bd88861119f565b826118af565b5b610c1e576040517f08c379a0000000000000000000000000000000000000000000000000000000008152600401610c1590614842565b60405180910390fd5b610c2d81888888888888612058565b60005b8451811015610c96576000858281518110610c4e57610c4d614606565b5b602002602001015190506000858381518110610c6d57610c6c614606565b5b60200260200101519050610c838a8984846120b8565b505080610c8f90614664565b9050610c30565b508473ffffffffffffffffffffffffffffffffffffffff16632eb2c2d630888787876040518663ffffffff1660e01b8152600401610cd89594939291906148b7565b600060405180830381600087803b158015610cf257600080fd5b505af1158015610d06573d6000803e3d6000fd5b505050508473ffffffffffffffffffffffffffffffffffffffff168673ffffffffffffffffffffffffffffffffffffffff16887f5572be9c1bc39e4e277a34f64ccd0e84456dac3f33b0b1c458c12c402c6326a98787604051610d6a92919061491f565b60405180910390a450505050505050565b610d83611b79565b73ffffffffffffffffffffffffffffffffffffffff168173ffffffffffffffffffffffffffffffffffffffff1614610df0576040517f08c379a0000000000000000000000000000000000000000000000000000000008152600401610de7906149c8565b60405180910390fd5b610dfa828261239c565b5050565b610e2f7f65d7a28e3265b37a6474929f336521b332c1681b933f6cb9f3376673440d862a610e2a611b79565b61149e565b610e6e576040517f08c379a0000000000000000000000000000000000000000000000000000000008152600401610e6590614a5a565b60405180910390fd5b610e7661247d565b565b610e8282826124e0565b5050565b610ea1838383604051806020016040528060008152506115b7565b505050565b610eb7610eb1611b79565b82611c3a565b610ef6576040517f08c379a0000000000000000000000000000000000000000000000000000000008152600401610eed90614aec565b60405180910390fd5b610eff816126b9565b50565b600073ffffffffffffffffffffffffffffffffffffffff168573ffffffffffffffffffffffffffffffffffffffff1603610f71576040517f08c379a0000000000000000000000000000000000000000000000000000000008152600401610f68906147b0565b60405180910390fd5b6000610f7b611b79565b90508073ffffffffffffffffffffffffffffffffffffffff16610f9d8861119f565b73ffffffffffffffffffffffffffffffffffffffff161480610fcd5750610fcc610fc68861119f565b826118af565b5b61100c576040517f08c379a000000000000000000000000000000000000000000000000000000000815260040161100390614842565b60405180910390fd5b61102b8188888861101c896127d6565b611025896127d6565b88612058565b611037878686866120b8565b8473ffffffffffffffffffffffffffffffffffffffff1663f242432a30888787876040518663ffffffff1660e01b8152600401611078959493929190614b0c565b600060405180830381600087803b15801561109257600080fd5b505af11580156110a6573d6000803e3d6000fd5b505050508473ffffffffffffffffffffffffffffffffffffffff168673ffffffffffffffffffffffffffffffffffffffff16887f9d6259404dec52b3d5d220f5b8e5d05cc05ec908e1bc320aa46793e3091e5194878760405161110a929190614b66565b60405180910390a450505050505050565b6000600b60009054906101000a900460ff16905090565b60006007600085815260200190815260200160002060008473ffffffffffffffffffffffffffffffffffffffff1673ffffffffffffffffffffffffffffffffffffffff16815260200190815260200160002060008381526020019081526020016000205490509392505050565b6000806003600084815260200190815260200160002060009054906101000a900473ffffffffffffffffffffffffffffffffffffffff169050600073ffffffffffffffffffffffffffffffffffffffff168173ffffffffffffffffffffffffffffffffffffffff1603611247576040517f08c379a000000000000000000000000000000000000000000000000000000000815260040161123e90614bdb565b60405180910390fd5b80915050919050565b60008073ffffffffffffffffffffffffffffffffffffffff168273ffffffffffffffffffffffffffffffffffffffff16036112c0576040517f08c379a00000000000000000000000000000000000000000000000000000000081526004016112b790614c6d565b60405180910390fd5b600460008373ffffffffffffffffffffffffffffffffffffffff1673ffffffffffffffffffffffffffffffffffffffff168152602001908152602001600020549050919050565b6113387f65d7a28e3265b37a6474929f336521b332c1681b933f6cb9f3376673440d862a611333611b79565b61149e565b611377576040517f08c379a000000000000000000000000000000000000000000000000000000000815260040161136e90614cff565b60405180910390fd5b61137f612850565b565b606060006113a0600960008581526020019081526020016000206128b3565b67ffffffffffffffff8111156113b9576113b8613c25565b5b6040519080825280602002602001820160405280156113e75781602001602082028036833780820191505090505b50905060005b611408600960008681526020019081526020016000206128b3565b8110156114945761143481600960008781526020019081526020016000206128c890919063ffffffff16565b82828151811061144757611446614606565b5b602002602001019073ffffffffffffffffffffffffffffffffffffffff16908173ffffffffffffffffffffffffffffffffffffffff1681525050808061148c90614664565b9150506113ed565b5080915050919050565b600080600084815260200190815260200160002060000160008373ffffffffffffffffffffffffffffffffffffffff1673ffffffffffffffffffffffffffffffffffffffff16815260200190815260200160002060009054906101000a900460ff16905092915050565b6060600280546115179061441f565b80601f01602080910402602001604051908101604052809291908181526020018280546115439061441f565b80156115905780601f1061156557610100808354040283529160200191611590565b820191906000526020600020905b81548152906001019060200180831161157357829003601f168201915b5050505050905090565b6000801b81565b6115b36115ac611b79565b83836128e2565b5050565b6115c86115c2611b79565b83611c3a565b611607576040517f08c379a00000000000000000000000000000000000000000000000000000000081526004016115fe906145e6565b60405180910390fd5b61161384848484612a4e565b50505050565b6000602082511461165f576040517f08c379a000000000000000000000000000000000000000000000000000000000815260040161165690614db7565b60405180910390fd5b82518451146116a3576040517f08c379a000000000000000000000000000000000000000000000000000000000815260040161169a90614e49565b60405180910390fd5b6116b38660003088888888612058565b600080602060003690506116c79190614e69565b90508035915060005b86518110156117c85761171983338984815181106116f1576116f0614606565b5b602002602001015189858151811061170c5761170b614606565b5b6020026020010151612aaa565b3373ffffffffffffffffffffffffffffffffffffffff16838973ffffffffffffffffffffffffffffffffffffffff167fa18753b0660a8be2cdae03468c860b47c2926433ab16917f323544652803032d8a858151811061177c5761177b614606565b5b60200260200101518a868151811061179757611796614606565b5b60200260200101516040516117ad929190614b66565b60405180910390a480806117c090614664565b9150506116d0565b5063bc197c8160e01b9250505095945050505050565b60606117e982611b2e565b60006117f3612c45565b90506000815111611813576040518060200160405280600081525061183e565b8061181d84612c5c565b60405160200161182e929190614ed9565b6040516020818303038152906040525b915050919050565b7f9f2df0fed2c77648de5860a4cc508cd0818c85b8b8a1ab4ceeef8d981c8956a681565b611873826108e9565b61187c81611f64565b611886838361239c565b505050565b7f65d7a28e3265b37a6474929f336521b332c1681b933f6cb9f3376673440d862a81565b6000600660008473ffffffffffffffffffffffffffffffffffffffff1673ffffffffffffffffffffffffffffffffffffffff16815260200190815260200160002060008373ffffffffffffffffffffffffffffffffffffffff1673ffffffffffffffffffffffffffffffffffffffff16815260200190815260200160002060009054906101000a900460ff16905092915050565b60006020825114611989576040517f08c379a000000000000000000000000000000000000000000000000000000000815260040161198090614db7565b60405180910390fd5b6119a9866000308861199a896127d6565b6119a3896127d6565b88612058565b600080602060003690506119bd9190614e69565b9050803591506119cf82338888612aaa565b3373ffffffffffffffffffffffffffffffffffffffff16828873ffffffffffffffffffffffffffffffffffffffff167fa18753b0660a8be2cdae03468c860b47c2926433ab16917f323544652803032d8989604051611a2f929190614b66565b60405180910390a463f23a6e6160e01b9250505095945050505050565b60007f80ac58cd000000000000000000000000000000000000000000000000000000007bffffffffffffffffffffffffffffffffffffffffffffffffffffffff1916827bffffffffffffffffffffffffffffffffffffffffffffffffffffffff19161480611b1757507f5b5e139f000000000000000000000000000000000000000000000000000000007bffffffffffffffffffffffffffffffffffffffffffffffffffffffff1916827bffffffffffffffffffffffffffffffffffffffffffffffffffffffff1916145b80611b275750611b2682612dbc565b5b9050919050565b611b3781612e36565b611b76576040517f08c379a0000000000000000000000000000000000000000000000000000000008152600401611b6d90614bdb565b60405180910390fd5b50565b600033905090565b816005600083815260200190815260200160002060006101000a81548173ffffffffffffffffffffffffffffffffffffffff021916908373ffffffffffffffffffffffffffffffffffffffff160217905550808273ffffffffffffffffffffffffffffffffffffffff16611bf48361119f565b73ffffffffffffffffffffffffffffffffffffffff167f8c5be1e5ebec7d5bd14f71427d1e84f3dd0314c0f7b2291e5b200ac8c7c3b92560405160405180910390a45050565b600080611c468361119f565b90508073ffffffffffffffffffffffffffffffffffffffff168473ffffffffffffffffffffffffffffffffffffffff161480611c885750611c8781856118af565b5b80611cc657508373ffffffffffffffffffffffffffffffffffffffff16611cae8461072c565b73ffffffffffffffffffffffffffffffffffffffff16145b91505092915050565b8273ffffffffffffffffffffffffffffffffffffffff16611cef8261119f565b73ffffffffffffffffffffffffffffffffffffffff1614611d45576040517f08c379a0000000000000000000000000000000000000000000000000000000008152600401611d3c90614f6f565b60405180910390fd5b600073ffffffffffffffffffffffffffffffffffffffff168273ffffffffffffffffffffffffffffffffffffffff1603611db4576040517f08c379a0000000000000000000000000000000000000000000000000000000008152600401611dab90615001565b60405180910390fd5b611dbf838383612ea2565b611dca600082611b81565b6001600460008573ffffffffffffffffffffffffffffffffffffffff1673ffffffffffffffffffffffffffffffffffffffff1681526020019081526020016000206000828254611e1a9190614e69565b925050819055506001600460008473ffffffffffffffffffffffffffffffffffffffff1673ffffffffffffffffffffffffffffffffffffffff1681526020019081526020016000206000828254611e719190615021565b92505081905550816003600083815260200190815260200160002060006101000a81548173ffffffffffffffffffffffffffffffffffffffff021916908373ffffffffffffffffffffffffffffffffffffffff160217905550808273ffffffffffffffffffffffffffffffffffffffff168473ffffffffffffffffffffffffffffffffffffffff167fddf252ad1be2c89b69c2b068fc378daa952ba7f163c4a11628f55a4df523b3ef60405160405180910390a4611f30838383612efa565b505050565b6000611f4382600001612eff565b9050919050565b6000611f598360000183612f10565b60001c905092915050565b611f7581611f70611b79565b612f3b565b50565b611f82828261149e565b61205457600160008084815260200190815260200160002060000160008373ffffffffffffffffffffffffffffffffffffffff1673ffffffffffffffffffffffffffffffffffffffff16815260200190815260200160002060006101000a81548160ff021916908315150217905550611ff9611b79565b73ffffffffffffffffffffffffffffffffffffffff168173ffffffffffffffffffffffffffffffffffffffff16837f2f8788117e7eff1d82e926ec794901d17c78024a50270940304540a733656f0d60405160405180910390a45b5050565b61206061111b565b156120a0576040517f08c379a0000000000000000000000000000000000000000000000000000000008152600401612097906150c7565b60405180910390fd5b6120af87878787878787612fd8565b50505050505050565b6000811415806121295750806007600086815260200190815260200160002060008573ffffffffffffffffffffffffffffffffffffffff1673ffffffffffffffffffffffffffffffffffffffff16815260200190815260200160002060008481526020019081526020016000205410155b612168576040517f08c379a000000000000000000000000000000000000000000000000000000000815260040161215f90615159565b60405180910390fd5b806007600086815260200190815260200160002060008573ffffffffffffffffffffffffffffffffffffffff1673ffffffffffffffffffffffffffffffffffffffff168152602001908152602001600020600084815260200190815260200160002060008282546121d99190614e69565b9250508190555060006007600086815260200190815260200160002060008573ffffffffffffffffffffffffffffffffffffffff1673ffffffffffffffffffffffffffffffffffffffff16815260200190815260200160002060008481526020019081526020016000205403612396576122ab84600860008673ffffffffffffffffffffffffffffffffffffffff1673ffffffffffffffffffffffffffffffffffffffff1681526020019081526020016000206000858152602001908152602001600020612fe190919063ffffffff16565b5061230e82600a600087815260200190815260200160002060008673ffffffffffffffffffffffffffffffffffffffff1673ffffffffffffffffffffffffffffffffffffffff168152602001908152602001600020612fe190919063ffffffff16565b506000612369600a600087815260200190815260200160002060008673ffffffffffffffffffffffffffffffffffffffff1673ffffffffffffffffffffffffffffffffffffffff168152602001908152602001600020611f35565b03612395576123938360096000878152602001908152602001600020612ffb90919063ffffffff16565b505b5b50505050565b6123a6828261149e565b1561247957600080600084815260200190815260200160002060000160008373ffffffffffffffffffffffffffffffffffffffff1673ffffffffffffffffffffffffffffffffffffffff16815260200190815260200160002060006101000a81548160ff02191690831515021790555061241e611b79565b73ffffffffffffffffffffffffffffffffffffffff168173ffffffffffffffffffffffffffffffffffffffff16837ff6391f5c32d9c69d2a47ea670b442974b53935d1edc7fd64eb21e047a839171b60405160405180910390a45b5050565b61248561302b565b6000600b60006101000a81548160ff0219169083151502179055507f5db9ee0a495bf2e6ff9c91a7834c1ba4fdd244a5e8aa4e537bd38aeae4b073aa6124c9611b79565b6040516124d69190613959565b60405180910390a1565b600073ffffffffffffffffffffffffffffffffffffffff168273ffffffffffffffffffffffffffffffffffffffff160361254f576040517f08c379a0000000000000000000000000000000000000000000000000000000008152600401612546906151c5565b60405180910390fd5b61255881612e36565b15612598576040517f08c379a000000000000000000000000000000000000000000000000000000000815260040161258f90615231565b60405180910390fd5b6125a460008383612ea2565b6001600460008473ffffffffffffffffffffffffffffffffffffffff1673ffffffffffffffffffffffffffffffffffffffff16815260200190815260200160002060008282546125f49190615021565b92505081905550816003600083815260200190815260200160002060006101000a81548173ffffffffffffffffffffffffffffffffffffffff021916908373ffffffffffffffffffffffffffffffffffffffff160217905550808273ffffffffffffffffffffffffffffffffffffffff16600073ffffffffffffffffffffffffffffffffffffffff167fddf252ad1be2c89b69c2b068fc378daa952ba7f163c4a11628f55a4df523b3ef60405160405180910390a46126b560008383612efa565b5050565b60006126c48261119f565b90506126d281600084612ea2565b6126dd600083611b81565b6001600460008373ffffffffffffffffffffffffffffffffffffffff1673ffffffffffffffffffffffffffffffffffffffff168152602001908152602001600020600082825461272d9190614e69565b925050819055506003600083815260200190815260200160002060006101000a81549073ffffffffffffffffffffffffffffffffffffffff021916905581600073ffffffffffffffffffffffffffffffffffffffff168273ffffffffffffffffffffffffffffffffffffffff167fddf252ad1be2c89b69c2b068fc378daa952ba7f163c4a11628f55a4df523b3ef60405160405180910390a46127d281600084612efa565b5050565b60606000600167ffffffffffffffff8111156127f5576127f4613c25565b5b6040519080825280602002602001820160405280156128235781602001602082028036833780820191505090505b509050828160008151811061283b5761283a614606565b5b60200260200101818152505080915050919050565b612858613074565b6001600b60006101000a81548160ff0219169083151502179055507f62e78cea01bee320cd4e420270b5ea74000d11b0c9f74754ebdbfc544b05a25861289c611b79565b6040516128a99190613959565b60405180910390a1565b60006128c182600001612eff565b9050919050565b60006128d78360000183612f10565b60001c905092915050565b8173ffffffffffffffffffffffffffffffffffffffff168373ffffffffffffffffffffffffffffffffffffffff1603612950576040517f08c379a00000000000000000000000000000000000000000000000000000000081526004016129479061529d565b60405180910390fd5b80600660008573ffffffffffffffffffffffffffffffffffffffff1673ffffffffffffffffffffffffffffffffffffffff16815260200190815260200160002060008473ffffffffffffffffffffffffffffffffffffffff1673ffffffffffffffffffffffffffffffffffffffff16815260200190815260200160002060006101000a81548160ff0219169083151502179055508173ffffffffffffffffffffffffffffffffffffffff168373ffffffffffffffffffffffffffffffffffffffff167f17307eab39ab6107e8899845ad3d59bd9653f200f220920489ca2b5937696c3183604051612a4191906137e8565b60405180910390a3505050565b612a59848484611ccf565b612a65848484846130be565b612aa4576040517f08c379a0000000000000000000000000000000000000000000000000000000008152600401612a9b9061532f565b60405180910390fd5b50505050565b612acf836009600087815260200190815260200160002061324590919063ffffffff16565b612afa57612af8836009600087815260200190815260200160002061327590919063ffffffff16565b505b60006007600086815260200190815260200160002060008573ffffffffffffffffffffffffffffffffffffffff1673ffffffffffffffffffffffffffffffffffffffff16815260200190815260200160002060008481526020019081526020016000205403612bc757612bc582600a600087815260200190815260200160002060008673ffffffffffffffffffffffffffffffffffffffff1673ffffffffffffffffffffffffffffffffffffffff1681526020019081526020016000206132a590919063ffffffff16565b505b806007600086815260200190815260200160002060008573ffffffffffffffffffffffffffffffffffffffff1673ffffffffffffffffffffffffffffffffffffffff16815260200190815260200160002060008481526020019081526020016000206000828254612c389190615021565b9250508190555050505050565b606060405180602001604052806000815250905090565b606060008203612ca3576040518060400160405280600181526020017f30000000000000000000000000000000000000000000000000000000000000008152509050612db7565b600082905060005b60008214612cd5578080612cbe90614664565b915050600a82612cce919061537e565b9150612cab565b60008167ffffffffffffffff811115612cf157612cf0613c25565b5b6040519080825280601f01601f191660200182016040528015612d235781602001600182028036833780820191505090505b5090505b60008514612db057600182612d3c9190614e69565b9150600a85612d4b91906153af565b6030612d579190615021565b60f81b818381518110612d6d57612d6c614606565b5b60200101907effffffffffffffffffffffffffffffffffffffffffffffffffffffffffffff1916908160001a905350600a85612da9919061537e565b9450612d27565b8093505050505b919050565b60007f7965db0b000000000000000000000000000000000000000000000000000000007bffffffffffffffffffffffffffffffffffffffffffffffffffffffff1916827bffffffffffffffffffffffffffffffffffffffffffffffffffffffff19161480612e2f5750612e2e826132bf565b5b9050919050565b60008073ffffffffffffffffffffffffffffffffffffffff166003600084815260200190815260200160002060009054906101000a900473ffffffffffffffffffffffffffffffffffffffff1673ffffffffffffffffffffffffffffffffffffffff1614159050919050565b612eaa61111b565b15612eea576040517f08c379a0000000000000000000000000000000000000000000000000000000008152600401612ee190615452565b60405180910390fd5b612ef5838383613329565b505050565b505050565b600081600001805490509050919050565b6000826000018281548110612f2857612f27614606565b5b9060005260206000200154905092915050565b612f45828261149e565b612fd457612f6a8173ffffffffffffffffffffffffffffffffffffffff16601461332e565b612f788360001c602061332e565b604051602001612f8992919061550a565b6040516020818303038152906040526040517f08c379a0000000000000000000000000000000000000000000000000000000008152600401612fcb9190613893565b60405180910390fd5b5050565b50505050505050565b6000612ff3836000018360001b61356a565b905092915050565b6000613023836000018373ffffffffffffffffffffffffffffffffffffffff1660001b61356a565b905092915050565b61303361111b565b613072576040517f08c379a000000000000000000000000000000000000000000000000000000000815260040161306990615590565b60405180910390fd5b565b61307c61111b565b156130bc576040517f08c379a00000000000000000000000000000000000000000000000000000000081526004016130b3906155fc565b60405180910390fd5b565b60006130df8473ffffffffffffffffffffffffffffffffffffffff1661367e565b15613238578373ffffffffffffffffffffffffffffffffffffffff1663150b7a02613108611b79565b8786866040518563ffffffff1660e01b815260040161312a949392919061561c565b6020604051808303816000875af192505050801561316657506040513d601f19601f82011682018060405250810190613163919061567d565b60015b6131e8573d8060008114613196576040519150601f19603f3d011682016040523d82523d6000602084013e61319b565b606091505b5060008151036131e0576040517f08c379a00000000000000000000000000000000000000000000000000000000081526004016131d79061532f565b60405180910390fd5b805181602001fd5b63150b7a0260e01b7bffffffffffffffffffffffffffffffffffffffffffffffffffffffff1916817bffffffffffffffffffffffffffffffffffffffffffffffffffffffff19161491505061323d565b600190505b949350505050565b600061326d836000018373ffffffffffffffffffffffffffffffffffffffff1660001b6136a1565b905092915050565b600061329d836000018373ffffffffffffffffffffffffffffffffffffffff1660001b6136c4565b905092915050565b60006132b7836000018360001b6136c4565b905092915050565b60007f01ffc9a7000000000000000000000000000000000000000000000000000000007bffffffffffffffffffffffffffffffffffffffffffffffffffffffff1916827bffffffffffffffffffffffffffffffffffffffffffffffffffffffff1916149050919050565b505050565b60606000600283600261334191906156aa565b61334b9190615021565b67ffffffffffffffff81111561336457613363613c25565b5b6040519080825280601f01601f1916602001820160405280156133965781602001600182028036833780820191505090505b5090507f3000000000000000000000000000000000000000000000000000000000000000816000815181106133ce576133cd614606565b5b60200101907effffffffffffffffffffffffffffffffffffffffffffffffffffffffffffff1916908160001a9053507f78000000000000000000000000000000000000000000000000000000000000008160018151811061343257613431614606565b5b60200101907effffffffffffffffffffffffffffffffffffffffffffffffffffffffffffff1916908160001a9053506000600184600261347291906156aa565b61347c9190615021565b90505b600181111561351c577f3031323334353637383961626364656600000000000000000000000000000000600f8616601081106134be576134bd614606565b5b1a60f81b8282815181106134d5576134d4614606565b5b60200101907effffffffffffffffffffffffffffffffffffffffffffffffffffffffffffff1916908160001a905350600485901c94508061351590615704565b905061347f565b5060008414613560576040517f08c379a000000000000000000000000000000000000000000000000000000000815260040161355790615779565b60405180910390fd5b8091505092915050565b6000808360010160008481526020019081526020016000205490506000811461367257600060018261359c9190614e69565b90506000600186600001805490506135b49190614e69565b90508181146136235760008660000182815481106135d5576135d4614606565b5b90600052602060002001549050808760000184815481106135f9576135f8614606565b5b90600052602060002001819055508387600101600083815260200190815260200160002081905550505b8560000180548061363757613636615799565b5b600190038181906000526020600020016000905590558560010160008681526020019081526020016000206000905560019350505050613678565b60009150505b92915050565b6000808273ffffffffffffffffffffffffffffffffffffffff163b119050919050565b600080836001016000848152602001908152602001600020541415905092915050565b60006136d083836136a1565b61372957826000018290806001815401808255809150506001900390600052602060002001600090919091909150558260000180549050836001016000848152602001908152602001600020819055506001905061372e565b600090505b92915050565b6000604051905090565b600080fd5b600080fd5b60007fffffffff0000000000000000000000000000000000000000000000000000000082169050919050565b61377d81613748565b811461378857600080fd5b50565b60008135905061379a81613774565b92915050565b6000602082840312156137b6576137b561373e565b5b60006137c48482850161378b565b91505092915050565b60008115159050919050565b6137e2816137cd565b82525050565b60006020820190506137fd60008301846137d9565b92915050565b600081519050919050565b600082825260208201905092915050565b60005b8381101561383d578082015181840152602081019050613822565b60008484015250505050565b6000601f19601f8301169050919050565b600061386582613803565b61386f818561380e565b935061387f81856020860161381f565b61388881613849565b840191505092915050565b600060208201905081810360008301526138ad818461385a565b905092915050565b6000819050919050565b6138c8816138b5565b81146138d357600080fd5b50565b6000813590506138e5816138bf565b92915050565b6000602082840312156139015761390061373e565b5b600061390f848285016138d6565b91505092915050565b600073ffffffffffffffffffffffffffffffffffffffff82169050919050565b600061394382613918565b9050919050565b61395381613938565b82525050565b600060208201905061396e600083018461394a565b92915050565b61397d81613938565b811461398857600080fd5b50565b60008135905061399a81613974565b92915050565b600080604083850312156139b7576139b661373e565b5b60006139c58582860161398b565b92505060206139d6858286016138d6565b9150509250929050565b6000806000606084860312156139f9576139f861373e565b5b6000613a078682870161398b565b9350506020613a188682870161398b565b9250506040613a29868287016138d6565b9150509250925092565b6000819050919050565b613a4681613a33565b8114613a5157600080fd5b50565b600081359050613a6381613a3d565b92915050565b600060208284031215613a7f57613a7e61373e565b5b6000613a8d84828501613a54565b91505092915050565b613a9f81613a33565b82525050565b6000602082019050613aba6000830184613a96565b92915050565b60008060408385031215613ad757613ad661373e565b5b6000613ae5858286016138d6565b9250506020613af68582860161398b565b9150509250929050565b600081519050919050565b600082825260208201905092915050565b6000819050602082019050919050565b613b35816138b5565b82525050565b6000613b478383613b2c565b60208301905092915050565b6000602082019050919050565b6000613b6b82613b00565b613b758185613b0b565b9350613b8083613b1c565b8060005b83811015613bb1578151613b988882613b3b565b9750613ba383613b53565b925050600181019050613b84565b5085935050505092915050565b60006020820190508181036000830152613bd88184613b60565b905092915050565b60008060408385031215613bf757613bf661373e565b5b6000613c0585828601613a54565b9250506020613c168582860161398b565b9150509250929050565b600080fd5b7f4e487b7100000000000000000000000000000000000000000000000000000000600052604160045260246000fd5b613c5d82613849565b810181811067ffffffffffffffff82111715613c7c57613c7b613c25565b5b80604052505050565b6000613c8f613734565b9050613c9b8282613c54565b919050565b600067ffffffffffffffff821115613cbb57613cba613c25565b5b602082029050602081019050919050565b600080fd5b6000613ce4613cdf84613ca0565b613c85565b90508083825260208201905060208402830185811115613d0757613d06613ccc565b5b835b81811015613d305780613d1c88826138d6565b845260208401935050602081019050613d09565b5050509392505050565b600082601f830112613d4f57613d4e613c20565b5b8135613d5f848260208601613cd1565b91505092915050565b600080fd5b600067ffffffffffffffff821115613d8857613d87613c25565b5b613d9182613849565b9050602081019050919050565b82818337600083830152505050565b6000613dc0613dbb84613d6d565b613c85565b905082815260208101848484011115613ddc57613ddb613d68565b5b613de7848285613d9e565b509392505050565b600082601f830112613e0457613e03613c20565b5b8135613e14848260208601613dad565b91505092915050565b60008060008060008060c08789031215613e3a57613e3961373e565b5b6000613e4889828a016138d6565b9650506020613e5989828a0161398b565b9550506040613e6a89828a0161398b565b945050606087013567ffffffffffffffff811115613e8b57613e8a613743565b5b613e9789828a01613d3a565b935050608087013567ffffffffffffffff811115613eb857613eb7613743565b5b613ec489828a01613d3a565b92505060a087013567ffffffffffffffff811115613ee557613ee4613743565b5b613ef189828a01613def565b9150509295509295509295565b60008060008060008060c08789031215613f1b57613f1a61373e565b5b6000613f2989828a016138d6565b9650506020613f3a89828a0161398b565b9550506040613f4b89828a0161398b565b9450506060613f5c89828a016138d6565b9350506080613f6d89828a016138d6565b92505060a087013567ffffffffffffffff811115613f8e57613f8d613743565b5b613f9a89828a01613def565b9150509295509295509295565b600080600060608486031215613fc057613fbf61373e565b5b6000613fce868287016138d6565b9350506020613fdf8682870161398b565b9250506040613ff0868287016138d6565b9150509250925092565b614003816138b5565b82525050565b600060208201905061401e6000830184613ffa565b92915050565b60006020828403121561403a5761403961373e565b5b60006140488482850161398b565b91505092915050565b600081519050919050565b600082825260208201905092915050565b6000819050602082019050919050565b61408681613938565b82525050565b6000614098838361407d565b60208301905092915050565b6000602082019050919050565b60006140bc82614051565b6140c6818561405c565b93506140d18361406d565b8060005b838110156141025781516140e9888261408c565b97506140f4836140a4565b9250506001810190506140d5565b5085935050505092915050565b6000602082019050818103600083015261412981846140b1565b905092915050565b61413a816137cd565b811461414557600080fd5b50565b60008135905061415781614131565b92915050565b600080604083850312156141745761417361373e565b5b60006141828582860161398b565b925050602061419385828601614148565b9150509250929050565b600080600080608085870312156141b7576141b661373e565b5b60006141c58782880161398b565b94505060206141d68782880161398b565b93505060406141e7878288016138d6565b925050606085013567ffffffffffffffff81111561420857614207613743565b5b61421487828801613def565b91505092959194509250565b600080600080600060a0868803121561423c5761423b61373e565b5b600061424a8882890161398b565b955050602061425b8882890161398b565b945050604086013567ffffffffffffffff81111561427c5761427b613743565b5b61428888828901613d3a565b935050606086013567ffffffffffffffff8111156142a9576142a8613743565b5b6142b588828901613d3a565b925050608086013567ffffffffffffffff8111156142d6576142d5613743565b5b6142e288828901613def565b9150509295509295909350565b6142f881613748565b82525050565b600060208201905061431360008301846142ef565b92915050565b600080604083850312156143305761432f61373e565b5b600061433e8582860161398b565b925050602061434f8582860161398b565b9150509250929050565b600080600080600060a086880312156143755761437461373e565b5b60006143838882890161398b565b95505060206143948882890161398b565b94505060406143a5888289016138d6565b93505060606143b6888289016138d6565b925050608086013567ffffffffffffffff8111156143d7576143d6613743565b5b6143e388828901613def565b9150509295509295909350565b7f4e487b7100000000000000000000000000000000000000000000000000000000600052602260045260246000fd5b6000600282049050600182168061443757607f821691505b60208210810361444a576144496143f0565b5b50919050565b7f4552433732313a20617070726f76616c20746f2063757272656e74206f776e6560008201527f7200000000000000000000000000000000000000000000000000000000000000602082015250565b60006144ac60218361380e565b91506144b782614450565b604082019050919050565b600060208201905081810360008301526144db8161449f565b9050919050565b7f4552433732313a20617070726f76652063616c6c6572206973206e6f7420746f60008201527f6b656e206f776e6572206e6f7220617070726f76656420666f7220616c6c0000602082015250565b600061453e603e8361380e565b9150614549826144e2565b604082019050919050565b6000602082019050818103600083015261456d81614531565b9050919050565b7f4552433732313a2063616c6c6572206973206e6f7420746f6b656e206f776e6560008201527f72206e6f7220617070726f766564000000000000000000000000000000000000602082015250565b60006145d0602e8361380e565b91506145db82614574565b604082019050919050565b600060208201905081810360008301526145ff816145c3565b9050919050565b7f4e487b7100000000000000000000000000000000000000000000000000000000600052603260045260246000fd5b7f4e487b7100000000000000000000000000000000000000000000000000000000600052601160045260246000fd5b600061466f826138b5565b91507fffffffffffffffffffffffffffffffffffffffffffffffffffffffffffffffff82036146a1576146a0614635565b5b600182019050919050565b7f4552433939383a2069647320616e6420616d6f756e7473206c656e677468206d60008201527f69736d6174636800000000000000000000000000000000000000000000000000602082015250565b600061470860278361380e565b9150614713826146ac565b604082019050919050565b60006020820190508181036000830152614737816146fb565b9050919050565b7f4552433939383a207472616e7366657220746f20746865207a65726f2061646460008201527f7265737300000000000000000000000000000000000000000000000000000000602082015250565b600061479a60248361380e565b91506147a58261473e565b604082019050919050565b600060208201905081810360008301526147c98161478d565b9050919050565b7f4552433939383a2063616c6c6572206973206e6f74206f776e6572206e6f722060008201527f617070726f766564000000000000000000000000000000000000000000000000602082015250565b600061482c60288361380e565b9150614837826147d0565b604082019050919050565b6000602082019050818103600083015261485b8161481f565b9050919050565b600081519050919050565b600082825260208201905092915050565b600061488982614862565b614893818561486d565b93506148a381856020860161381f565b6148ac81613849565b840191505092915050565b600060a0820190506148cc600083018861394a565b6148d9602083018761394a565b81810360408301526148eb8186613b60565b905081810360608301526148ff8185613b60565b90508181036080830152614913818461487e565b90509695505050505050565b600060408201905081810360008301526149398185613b60565b9050818103602083015261494d8184613b60565b90509392505050565b7f416363657373436f6e74726f6c3a2063616e206f6e6c792072656e6f756e636560008201527f20726f6c657320666f722073656c660000000000000000000000000000000000602082015250565b60006149b2602f8361380e565b91506149bd82614956565b604082019050919050565b600060208201905081810360008301526149e1816149a5565b9050919050565b7f4552433732315072657365744d696e7465725061757365724175746f49643a2060008201527f6d75737420686176652070617573657220726f6c6520746f20756e7061757365602082015250565b6000614a4460408361380e565b9150614a4f826149e8565b604082019050919050565b60006020820190508181036000830152614a7381614a37565b9050919050565b7f4552433732314275726e61626c653a2063616c6c6572206973206e6f74206f7760008201527f6e6572206e6f7220617070726f76656400000000000000000000000000000000602082015250565b6000614ad660308361380e565b9150614ae182614a7a565b604082019050919050565b60006020820190508181036000830152614b0581614ac9565b9050919050565b600060a082019050614b21600083018861394a565b614b2e602083018761394a565b614b3b6040830186613ffa565b614b486060830185613ffa565b8181036080830152614b5a818461487e565b90509695505050505050565b6000604082019050614b7b6000830185613ffa565b614b886020830184613ffa565b9392505050565b7f4552433732313a20696e76616c696420746f6b656e2049440000000000000000600082015250565b6000614bc560188361380e565b9150614bd082614b8f565b602082019050919050565b60006020820190508181036000830152614bf481614bb8565b9050919050565b7f4552433732313a2061646472657373207a65726f206973206e6f74206120766160008201527f6c6964206f776e65720000000000000000000000000000000000000000000000602082015250565b6000614c5760298361380e565b9150614c6282614bfb565b604082019050919050565b60006020820190508181036000830152614c8681614c4a565b9050919050565b7f4552433732315072657365744d696e7465725061757365724175746f49643a2060008201527f6d75737420686176652070617573657220726f6c6520746f2070617573650000602082015250565b6000614ce9603e8361380e565b9150614cf482614c8d565b604082019050919050565b60006020820190508181036000830152614d1881614cdc565b9050919050565b7f4552433939383a2064617461206d75737420636f6e7461696e2074686520756e60008201527f697175652075696e7432353620746f6b656e496420746f207472616e7366657260208201527f20746865206368696c6420746f6b656e20746f00000000000000000000000000604082015250565b6000614da160538361380e565b9150614dac82614d1f565b606082019050919050565b60006020820190508181036000830152614dd081614d94565b9050919050565b7f455243313135353a2069647320616e642076616c756573206c656e677468206d60008201527f69736d6174636800000000000000000000000000000000000000000000000000602082015250565b6000614e3360278361380e565b9150614e3e82614dd7565b604082019050919050565b60006020820190508181036000830152614e6281614e26565b9050919050565b6000614e74826138b5565b9150614e7f836138b5565b9250828203905081811115614e9757614e96614635565b5b92915050565b600081905092915050565b6000614eb382613803565b614ebd8185614e9d565b9350614ecd81856020860161381f565b80840191505092915050565b6000614ee58285614ea8565b9150614ef18284614ea8565b91508190509392505050565b7f4552433732313a207472616e736665722066726f6d20696e636f72726563742060008201527f6f776e6572000000000000000000000000000000000000000000000000000000602082015250565b6000614f5960258361380e565b9150614f6482614efd565b604082019050919050565b60006020820190508181036000830152614f8881614f4c565b9050919050565b7f4552433732313a207472616e7366657220746f20746865207a65726f2061646460008201527f7265737300000000000000000000000000000000000000000000000000000000602082015250565b6000614feb60248361380e565b9150614ff682614f8f565b604082019050919050565b6000602082019050818103600083015261501a81614fde565b9050919050565b600061502c826138b5565b9150615037836138b5565b925082820190508082111561504f5761504e614635565b5b92915050565b7f4552433939385061757361626c653a206368696c64207472616e73666572207760008201527f68696c6520706175736564000000000000000000000000000000000000000000602082015250565b60006150b1602b8361380e565b91506150bc82615055565b604082019050919050565b600060208201905081810360008301526150e0816150a4565b9050919050565b7f4552433939383a20696e73756666696369656e74206368696c642062616c616e60008201527f636520666f72207472616e736665720000000000000000000000000000000000602082015250565b6000615143602f8361380e565b915061514e826150e7565b604082019050919050565b6000602082019050818103600083015261517281615136565b9050919050565b7f4552433732313a206d696e7420746f20746865207a65726f2061646472657373600082015250565b60006151af60208361380e565b91506151ba82615179565b602082019050919050565b600060208201905081810360008301526151de816151a2565b9050919050565b7f4552433732313a20746f6b656e20616c7265616479206d696e74656400000000600082015250565b600061521b601c8361380e565b9150615226826151e5565b602082019050919050565b6000602082019050818103600083015261524a8161520e565b9050919050565b7f4552433732313a20617070726f766520746f2063616c6c657200000000000000600082015250565b600061528760198361380e565b915061529282615251565b602082019050919050565b600060208201905081810360008301526152b68161527a565b9050919050565b7f4552433732313a207472616e7366657220746f206e6f6e20455243373231526560008201527f63656976657220696d706c656d656e7465720000000000000000000000000000602082015250565b600061531960328361380e565b9150615324826152bd565b604082019050919050565b600060208201905081810360008301526153488161530c565b9050919050565b7f4e487b7100000000000000000000000000000000000000000000000000000000600052601260045260246000fd5b6000615389826138b5565b9150615394836138b5565b9250826153a4576153a361534f565b5b828204905092915050565b60006153ba826138b5565b91506153c5836138b5565b9250826153d5576153d461534f565b5b828206905092915050565b7f4552433732315061757361626c653a20746f6b656e207472616e73666572207760008201527f68696c6520706175736564000000000000000000000000000000000000000000602082015250565b600061543c602b8361380e565b9150615447826153e0565b604082019050919050565b6000602082019050818103600083015261546b8161542f565b9050919050565b7f416363657373436f6e74726f6c3a206163636f756e7420000000000000000000600082015250565b60006154a8601783614e9d565b91506154b382615472565b601782019050919050565b7f206973206d697373696e6720726f6c6520000000000000000000000000000000600082015250565b60006154f4601183614e9d565b91506154ff826154be565b601182019050919050565b60006155158261549b565b91506155218285614ea8565b915061552c826154e7565b91506155388284614ea8565b91508190509392505050565b7f5061757361626c653a206e6f7420706175736564000000000000000000000000600082015250565b600061557a60148361380e565b915061558582615544565b602082019050919050565b600060208201905081810360008301526155a98161556d565b9050919050565b7f5061757361626c653a2070617573656400000000000000000000000000000000600082015250565b60006155e660108361380e565b91506155f1826155b0565b602082019050919050565b60006020820190508181036000830152615615816155d9565b9050919050565b6000608082019050615631600083018761394a565b61563e602083018661394a565b61564b6040830185613ffa565b818103606083015261565d818461487e565b905095945050505050565b60008151905061567781613774565b92915050565b6000602082840312156156935761569261373e565b5b60006156a184828501615668565b91505092915050565b60006156b5826138b5565b91506156c0836138b5565b9250817fffffffffffffffffffffffffffffffffffffffffffffffffffffffffffffffff04831182151516156156f9576156f8614635565b5b828202905092915050565b600061570f826138b5565b91506000820361572257615721614635565b5b600182039050919050565b7f537472696e67733a20686578206c656e67746820696e73756666696369656e74600082015250565b600061576360208361380e565b915061576e8261572d565b602082019050919050565b6000602082019050818103600083015261579281615756565b9050919050565b7f4e487b7100000000000000000000000000000000000000000000000000000000600052603160045260246000fdfea26469706673582212206fb28ecdcaf8b5c43611363b7cca6c3de599f5ee558082dcb146fc267abb46b464736f6c63430008100033",
  "immutableReferences": {},
  "source": "// SPDX-License-Identifier: MIT\n\npragma solidity ^0.8.0;\n\n/* import \"https://github.com/OpenZeppelin/openzeppelin-contracts/blob/master/contracts/access/AccessControl.sol\";\nimport \"https://github.com/OpenZeppelin/openzeppelin-contracts/blob/master/contracts/GSN/Context.sol\";\nimport \"https://github.com/OpenZeppelin/openzeppelin-contracts/blob/master/contracts/utils/Pausable.sol\"; */\n\nimport \"@openzeppelin/contracts/access/AccessControl.sol\";\nimport \"@openzeppelin/contracts/utils/Context.sol\";\nimport \"@openzeppelin/contracts/security/Pausable.sol\";\n\nimport \"./ERC998ERC1155TopDown.sol\";\n\n/**\n * @dev {ERC998} token, including:\n *\n *  - ability for holders to burn (destroy) their tokens\n *  - a minter role that allows for token minting (creation)\n *  - a pauser role that allows to stop all token transfers\n *\n * This contract uses {AccessControl} to lock permissioned functions using the\n * different roles - head to its documentation for details.\n *\n * The account that deploys the contract will be granted the minter and pauser\n * roles, as well as the default admin role, which will let it grant both minter\n * and pauser roles to other accounts.\n */\ncontract ERC998ERC1155TopDownPresetMinterPauser is Context, AccessControl, ERC998ERC1155TopDown, Pausable {\n    bytes32 public constant MINTER_ROLE = keccak256(\"MINTER_ROLE\");\n    bytes32 public constant PAUSER_ROLE = keccak256(\"PAUSER_ROLE\");\n\n    /**\n     * @dev Grants `DEFAULT_ADMIN_ROLE`, `MINTER_ROLE` and `PAUSER_ROLE` to the\n     * account that deploys the contract.\n     *\n     * Token URIs will be autogenerated based on `baseURI` and their token IDs.\n     * See {ERC721-tokenURI}.\n     */\n    constructor(string memory name, string memory symbol, string memory baseURI) public ERC998ERC1155TopDown(name, symbol, baseURI) {\n        _setupRole(DEFAULT_ADMIN_ROLE, _msgSender());\n        _setupRole(MINTER_ROLE, _msgSender());\n        _setupRole(PAUSER_ROLE, _msgSender());\n    }\n\n    /**\n     * @dev Creates a new token for `to`. The token URI autogenerated based on\n     * the base URI passed at construction and the token ID.\n     *\n     * See {ERC721-_mint}.\n     *\n     * Requirements:\n     *\n     * - the caller must have the `MINTER_ROLE`.\n     */\n    function mint(address to, uint256 tokenId) public virtual {\n        //require(hasRole(MINTER_ROLE, _msgSender()), \"ERC721: must have minter role to mint in ERC998\");\n\n        // We cannot just use balanceOf to create the new tokenId because tokens\n        // can be burned (destroyed), so we need a separate counter.\n        _mint(to, tokenId);\n    }\n\n    /**\n     * @dev Burns `tokenId`. See {ERC721-_burn}.\n     *\n     * Requirements:\n     *\n     * - The caller must own `tokenId` or be an approved operator.\n     */\n    function burn(uint256 tokenId) public virtual {\n        //solhint-disable-next-line max-line-length\n        require(_isApprovedOrOwner(_msgSender(), tokenId), \"ERC721Burnable: caller is not owner nor approved\");\n        _burn(tokenId);\n    }\n\n    /**\n     * @dev Pauses all token transfers.\n     *\n     * See {ERC721Pausable} and {Pausable-_pause}.\n     *\n     * Requirements:\n     *\n     * - the caller must have the `PAUSER_ROLE`.\n     */\n    function pause() public virtual {\n        require(hasRole(PAUSER_ROLE, _msgSender()), \"ERC721PresetMinterPauserAutoId: must have pauser role to pause\");\n        _pause();\n    }\n\n    /**\n     * @dev Unpauses all token transfers.\n     *\n     * See {ERC721Pausable} and {Pausable-_unpause}.\n     *\n     * Requirements:\n     *\n     * - the caller must have the `PAUSER_ROLE`.\n     */\n    function unpause() public virtual {\n        require(hasRole(PAUSER_ROLE, _msgSender()), \"ERC721PresetMinterPauserAutoId: must have pauser role to unpause\");\n        _unpause();\n    }\n\n    /**\n     * @dev See {ERC721-_beforeTokenTransfer}.\n     *\n     * Requirements:\n     *\n     * - the contract must not be paused.\n     */\n    function _beforeTokenTransfer(address from, address to, uint256 tokenId) internal virtual override {\n        require(!paused(), \"ERC721Pausable: token transfer while paused\");\n\n        super._beforeTokenTransfer(from, to, tokenId);\n    }\n\n    function _beforeChildTransfer(\n        address operator,\n        uint256 fromTokenId,\n        address to,\n        address childContract,\n        uint256[] memory ids,\n        uint256[] memory amounts,\n        bytes memory data\n    )\n        internal virtual override\n    {\n        require(!paused(), \"ERC998Pausable: child transfer while paused\");\n\n        super._beforeChildTransfer(operator, fromTokenId, to, childContract, ids, amounts, data);\n    }\n\n    function supportsInterface(bytes4 interfaceId) public view virtual override(ERC721, IERC165, AccessControl) returns (bool) {\n        return super.supportsInterface(interfaceId);\n    }\n}\n",
  "sourcePath": "/home/prams25/thesisB/composo/supp_chain/truffle/contracts/ERC998ERC1155TopDownPresetMinterPauser.sol",
  "compiler": {
    "name": "solc",
    "version": "0.8.16+commit.07a7930e.Emscripten.clang"
  },
  "schemaVersion": "3.4.7",
  "updatedAt": "2022-08-14T10:08:46.106Z",
  "networkType": "ethereum",
  "devdoc": {
    "details": "{ERC998} token, including:  - ability for holders to burn (destroy) their tokens  - a minter role that allows for token minting (creation)  - a pauser role that allows to stop all token transfers This contract uses {AccessControl} to lock permissioned functions using the different roles - head to its documentation for details. The account that deploys the contract will be granted the minter and pauser roles, as well as the default admin role, which will let it grant both minter and pauser roles to other accounts.",
    "kind": "dev",
    "methods": {
      "approve(address,uint256)": {
        "details": "See {IERC721-approve}."
      },
      "balanceOf(address)": {
        "details": "See {IERC721-balanceOf}."
      },
      "burn(uint256)": {
        "details": "Burns `tokenId`. See {ERC721-_burn}. Requirements: - The caller must own `tokenId` or be an approved operator."
      },
      "childBalance(uint256,address,uint256)": {
        "details": "Gives child balance for a specific child contract and child id ."
      },
      "childContractsFor(uint256)": {
        "details": "Gives list of child contract where token ID has childs."
      },
      "childIdsForOn(uint256,address)": {
        "details": "Gives list of owned child ID on a child contract by token ID."
      },
      "constructor": {
        "details": "Grants `DEFAULT_ADMIN_ROLE`, `MINTER_ROLE` and `PAUSER_ROLE` to the account that deploys the contract. Token URIs will be autogenerated based on `baseURI` and their token IDs. See {ERC721-tokenURI}."
      },
      "getApproved(uint256)": {
        "details": "See {IERC721-getApproved}."
      },
      "getRoleAdmin(bytes32)": {
        "details": "Returns the admin role that controls `role`. See {grantRole} and {revokeRole}. To change a role's admin, use {_setRoleAdmin}."
      },
      "grantRole(bytes32,address)": {
        "details": "Grants `role` to `account`. If `account` had not been already granted `role`, emits a {RoleGranted} event. Requirements: - the caller must have ``role``'s admin role. May emit a {RoleGranted} event."
      },
      "hasRole(bytes32,address)": {
        "details": "Returns `true` if `account` has been granted `role`."
      },
      "isApprovedForAll(address,address)": {
        "details": "See {IERC721-isApprovedForAll}."
      },
      "mint(address,uint256)": {
        "details": "Creates a new token for `to`. The token URI autogenerated based on the base URI passed at construction and the token ID. See {ERC721-_mint}. Requirements: - the caller must have the `MINTER_ROLE`."
      },
      "name()": {
        "details": "See {IERC721Metadata-name}."
      },
      "onERC1155BatchReceived(address,address,uint256[],uint256[],bytes)": {
        "details": "Receives a batch of child tokens, the receiver token ID must be encoded in the field data."
      },
      "onERC1155Received(address,address,uint256,uint256,bytes)": {
        "details": "Receives a child token, the receiver token ID must be encoded in the field data."
      },
      "ownerOf(uint256)": {
        "details": "See {IERC721-ownerOf}."
      },
      "pause()": {
        "details": "Pauses all token transfers. See {ERC721Pausable} and {Pausable-_pause}. Requirements: - the caller must have the `PAUSER_ROLE`."
      },
      "paused()": {
        "details": "Returns true if the contract is paused, and false otherwise."
      },
      "renounceRole(bytes32,address)": {
        "details": "Revokes `role` from the calling account. Roles are often managed via {grantRole} and {revokeRole}: this function's purpose is to provide a mechanism for accounts to lose their privileges if they are compromised (such as when a trusted device is misplaced). If the calling account had been revoked `role`, emits a {RoleRevoked} event. Requirements: - the caller must be `account`. May emit a {RoleRevoked} event."
      },
      "revokeRole(bytes32,address)": {
        "details": "Revokes `role` from `account`. If `account` had been granted `role`, emits a {RoleRevoked} event. Requirements: - the caller must have ``role``'s admin role. May emit a {RoleRevoked} event."
      },
      "safeBatchTransferChildFrom(uint256,address,address,uint256[],uint256[],bytes)": {
        "details": "Transfers batch of child tokens from a token ID."
      },
      "safeTransferChildFrom(uint256,address,address,uint256,uint256,bytes)": {
        "details": "Transfers child token from a token ID."
      },
      "safeTransferFrom(address,address,uint256)": {
        "details": "See {IERC721-safeTransferFrom}."
      },
      "safeTransferFrom(address,address,uint256,bytes)": {
        "details": "See {IERC721-safeTransferFrom}."
      },
      "setApprovalForAll(address,bool)": {
        "details": "See {IERC721-setApprovalForAll}."
      },
      "symbol()": {
        "details": "See {IERC721Metadata-symbol}."
      },
      "tokenURI(uint256)": {
        "details": "See {IERC721Metadata-tokenURI}."
      },
      "transferFrom(address,address,uint256)": {
        "details": "See {IERC721-transferFrom}."
      },
      "unpause()": {
        "details": "Unpauses all token transfers. See {ERC721Pausable} and {Pausable-_unpause}. Requirements: - the caller must have the `PAUSER_ROLE`."
      }
    },
    "version": 1
  },
  "userdoc": {
    "kind": "user",
    "methods": {},
    "version": 1
  }
}