{
  "contractName": "ERC998ERC1155TopDownPresetMinterPauser",
  "abi": [
    {
      "inputs": [
        {
          "internalType": "string",
          "name": "name",
          "type": "string"
        },
        {
          "internalType": "string",
          "name": "symbol",
          "type": "string"
        },
        {
          "internalType": "string",
          "name": "baseURI",
          "type": "string"
        }
      ],
      "stateMutability": "nonpayable",
      "type": "constructor"
    },
    {
      "anonymous": false,
      "inputs": [
        {
          "indexed": true,
          "internalType": "address",
          "name": "owner",
          "type": "address"
        },
        {
          "indexed": true,
          "internalType": "address",
          "name": "approved",
          "type": "address"
        },
        {
          "indexed": true,
          "internalType": "uint256",
          "name": "tokenId",
          "type": "uint256"
        }
      ],
      "name": "Approval",
      "type": "event"
    },
    {
      "anonymous": false,
      "inputs": [
        {
          "indexed": true,
          "internalType": "address",
          "name": "owner",
          "type": "address"
        },
        {
          "indexed": true,
          "internalType": "address",
          "name": "operator",
          "type": "address"
        },
        {
          "indexed": false,
          "internalType": "bool",
          "name": "approved",
          "type": "bool"
        }
      ],
      "name": "ApprovalForAll",
      "type": "event"
    },
    {
      "anonymous": false,
      "inputs": [
        {
          "indexed": false,
          "internalType": "address",
          "name": "account",
          "type": "address"
        }
      ],
      "name": "Paused",
      "type": "event"
    },
    {
      "anonymous": false,
      "inputs": [
        {
          "indexed": true,
          "internalType": "address",
          "name": "from",
          "type": "address"
        },
        {
          "indexed": true,
          "internalType": "uint256",
          "name": "toTokenId",
          "type": "uint256"
        },
        {
          "indexed": true,
          "internalType": "address",
          "name": "childContract",
          "type": "address"
        },
        {
          "indexed": false,
          "internalType": "uint256",
          "name": "childTokenId",
          "type": "uint256"
        },
        {
          "indexed": false,
          "internalType": "uint256",
          "name": "amount",
          "type": "uint256"
        }
      ],
      "name": "ReceivedChild",
      "type": "event"
    },
    {
      "anonymous": false,
      "inputs": [
        {
          "indexed": true,
          "internalType": "bytes32",
          "name": "role",
          "type": "bytes32"
        },
        {
          "indexed": true,
          "internalType": "bytes32",
          "name": "previousAdminRole",
          "type": "bytes32"
        },
        {
          "indexed": true,
          "internalType": "bytes32",
          "name": "newAdminRole",
          "type": "bytes32"
        }
      ],
      "name": "RoleAdminChanged",
      "type": "event"
    },
    {
      "anonymous": false,
      "inputs": [
        {
          "indexed": true,
          "internalType": "bytes32",
          "name": "role",
          "type": "bytes32"
        },
        {
          "indexed": true,
          "internalType": "address",
          "name": "account",
          "type": "address"
        },
        {
          "indexed": true,
          "internalType": "address",
          "name": "sender",
          "type": "address"
        }
      ],
      "name": "RoleGranted",
      "type": "event"
    },
    {
      "anonymous": false,
      "inputs": [
        {
          "indexed": true,
          "internalType": "bytes32",
          "name": "role",
          "type": "bytes32"
        },
        {
          "indexed": true,
          "internalType": "address",
          "name": "account",
          "type": "address"
        },
        {
          "indexed": true,
          "internalType": "address",
          "name": "sender",
          "type": "address"
        }
      ],
      "name": "RoleRevoked",
      "type": "event"
    },
    {
      "anonymous": false,
      "inputs": [
        {
          "indexed": true,
          "internalType": "address",
          "name": "from",
          "type": "address"
        },
        {
          "indexed": true,
          "internalType": "address",
          "name": "to",
          "type": "address"
        },
        {
          "indexed": true,
          "internalType": "uint256",
          "name": "tokenId",
          "type": "uint256"
        }
      ],
      "name": "Transfer",
      "type": "event"
    },
    {
      "anonymous": false,
      "inputs": [
        {
          "indexed": true,
          "internalType": "uint256",
          "name": "fromTokenId",
          "type": "uint256"
        },
        {
          "indexed": true,
          "internalType": "address",
          "name": "to",
          "type": "address"
        },
        {
          "indexed": true,
          "internalType": "address",
          "name": "childContract",
          "type": "address"
        },
        {
          "indexed": false,
          "internalType": "uint256[]",
          "name": "childTokenIds",
          "type": "uint256[]"
        },
        {
          "indexed": false,
          "internalType": "uint256[]",
          "name": "amounts",
          "type": "uint256[]"
        }
      ],
      "name": "TransferBatchChild",
      "type": "event"
    },
    {
      "anonymous": false,
      "inputs": [
        {
          "indexed": true,
          "internalType": "uint256",
          "name": "fromTokenId",
          "type": "uint256"
        },
        {
          "indexed": true,
          "internalType": "address",
          "name": "to",
          "type": "address"
        },
        {
          "indexed": true,
          "internalType": "address",
          "name": "childContract",
          "type": "address"
        },
        {
          "indexed": false,
          "internalType": "uint256",
          "name": "childTokenId",
          "type": "uint256"
        },
        {
          "indexed": false,
          "internalType": "uint256",
          "name": "amount",
          "type": "uint256"
        }
      ],
      "name": "TransferSingleChild",
      "type": "event"
    },
    {
      "anonymous": false,
      "inputs": [
        {
          "indexed": false,
          "internalType": "address",
          "name": "account",
          "type": "address"
        }
      ],
      "name": "Unpaused",
      "type": "event"
    },
    {
      "inputs": [],
      "name": "DEFAULT_ADMIN_ROLE",
      "outputs": [
        {
          "internalType": "bytes32",
          "name": "",
          "type": "bytes32"
        }
      ],
      "stateMutability": "view",
      "type": "function",
      "constant": true
    },
    {
      "inputs": [],
      "name": "MINTER_ROLE",
      "outputs": [
        {
          "internalType": "bytes32",
          "name": "",
          "type": "bytes32"
        }
      ],
      "stateMutability": "view",
      "type": "function",
      "constant": true
    },
    {
      "inputs": [],
      "name": "PAUSER_ROLE",
      "outputs": [
        {
          "internalType": "bytes32",
          "name": "",
          "type": "bytes32"
        }
      ],
      "stateMutability": "view",
      "type": "function",
      "constant": true
    },
    {
      "inputs": [
        {
          "internalType": "uint256",
          "name": "",
          "type": "uint256"
        },
        {
          "internalType": "address",
          "name": "",
          "type": "address"
        },
        {
          "internalType": "uint256",
          "name": "",
          "type": "uint256"
        }
      ],
      "name": "_balances",
      "outputs": [
        {
          "internalType": "uint256",
          "name": "",
          "type": "uint256"
        }
      ],
      "stateMutability": "view",
      "type": "function",
      "constant": true
    },
    {
      "inputs": [
        {
          "internalType": "address",
          "name": "to",
          "type": "address"
        },
        {
          "internalType": "uint256",
          "name": "tokenId",
          "type": "uint256"
        }
      ],
      "name": "approve",
      "outputs": [],
      "stateMutability": "nonpayable",
      "type": "function"
    },
    {
      "inputs": [
        {
          "internalType": "address",
          "name": "owner",
          "type": "address"
        }
      ],
      "name": "balanceOf",
      "outputs": [
        {
          "internalType": "uint256",
          "name": "",
          "type": "uint256"
        }
      ],
      "stateMutability": "view",
      "type": "function",
      "constant": true
    },
    {
      "inputs": [
        {
          "internalType": "uint256",
          "name": "tokenId",
          "type": "uint256"
        },
        {
          "internalType": "address",
          "name": "childContract",
          "type": "address"
        },
        {
          "internalType": "uint256",
          "name": "childTokenId",
          "type": "uint256"
        }
      ],
      "name": "childBalance",
      "outputs": [
        {
          "internalType": "uint256",
          "name": "",
          "type": "uint256"
        }
      ],
      "stateMutability": "view",
      "type": "function",
      "constant": true
    },
    {
      "inputs": [
        {
          "internalType": "uint256",
          "name": "tokenId",
          "type": "uint256"
        }
      ],
      "name": "childContractsFor",
      "outputs": [
        {
          "internalType": "address[]",
          "name": "",
          "type": "address[]"
        }
      ],
      "stateMutability": "view",
      "type": "function",
      "constant": true
    },
    {
      "inputs": [
        {
          "internalType": "uint256",
          "name": "tokenId",
          "type": "uint256"
        },
        {
          "internalType": "address",
          "name": "childContract",
          "type": "address"
        }
      ],
      "name": "childIdsForOn",
      "outputs": [
        {
          "internalType": "uint256[]",
          "name": "",
          "type": "uint256[]"
        }
      ],
      "stateMutability": "view",
      "type": "function",
      "constant": true
    },
    {
      "inputs": [
        {
          "internalType": "uint256",
          "name": "tokenId",
          "type": "uint256"
        }
      ],
      "name": "getApproved",
      "outputs": [
        {
          "internalType": "address",
          "name": "",
          "type": "address"
        }
      ],
      "stateMutability": "view",
      "type": "function",
      "constant": true
    },
    {
      "inputs": [],
      "name": "getMsgSender",
      "outputs": [
        {
          "internalType": "address",
          "name": "",
          "type": "address"
        }
      ],
      "stateMutability": "view",
      "type": "function",
      "constant": true
    },
    {
      "inputs": [
        {
          "internalType": "uint256",
          "name": "tokenID",
          "type": "uint256"
        }
      ],
      "name": "getOwner",
      "outputs": [
        {
          "internalType": "address",
          "name": "",
          "type": "address"
        }
      ],
      "stateMutability": "view",
      "type": "function",
      "constant": true
    },
    {
      "inputs": [
        {
          "internalType": "bytes32",
          "name": "role",
          "type": "bytes32"
        }
      ],
      "name": "getRoleAdmin",
      "outputs": [
        {
          "internalType": "bytes32",
          "name": "",
          "type": "bytes32"
        }
      ],
      "stateMutability": "view",
      "type": "function",
      "constant": true
    },
    {
      "inputs": [
        {
          "internalType": "bytes32",
          "name": "role",
          "type": "bytes32"
        },
        {
          "internalType": "address",
          "name": "account",
          "type": "address"
        }
      ],
      "name": "grantRole",
      "outputs": [],
      "stateMutability": "nonpayable",
      "type": "function"
    },
    {
      "inputs": [
        {
          "internalType": "bytes32",
          "name": "role",
          "type": "bytes32"
        },
        {
          "internalType": "address",
          "name": "account",
          "type": "address"
        }
      ],
      "name": "hasRole",
      "outputs": [
        {
          "internalType": "bool",
          "name": "",
          "type": "bool"
        }
      ],
      "stateMutability": "view",
      "type": "function",
      "constant": true
    },
    {
      "inputs": [
        {
          "internalType": "address",
          "name": "owner",
          "type": "address"
        },
        {
          "internalType": "address",
          "name": "operator",
          "type": "address"
        }
      ],
      "name": "isApprovedForAll",
      "outputs": [
        {
          "internalType": "bool",
          "name": "",
          "type": "bool"
        }
      ],
      "stateMutability": "view",
      "type": "function",
      "constant": true
    },
    {
      "inputs": [],
      "name": "name",
      "outputs": [
        {
          "internalType": "string",
          "name": "",
          "type": "string"
        }
      ],
      "stateMutability": "view",
      "type": "function",
      "constant": true
    },
    {
      "inputs": [
        {
          "internalType": "address",
          "name": "operator",
          "type": "address"
        },
        {
          "internalType": "address",
          "name": "from",
          "type": "address"
        },
        {
          "internalType": "uint256[]",
          "name": "ids",
          "type": "uint256[]"
        },
        {
          "internalType": "uint256[]",
          "name": "values",
          "type": "uint256[]"
        },
        {
          "internalType": "bytes",
          "name": "data",
          "type": "bytes"
        }
      ],
      "name": "onERC1155BatchReceived",
      "outputs": [
        {
          "internalType": "bytes4",
          "name": "",
          "type": "bytes4"
        }
      ],
      "stateMutability": "nonpayable",
      "type": "function"
    },
    {
      "inputs": [
        {
          "internalType": "address",
          "name": "operator",
          "type": "address"
        },
        {
          "internalType": "address",
          "name": "from",
          "type": "address"
        },
        {
          "internalType": "uint256",
          "name": "id",
          "type": "uint256"
        },
        {
          "internalType": "uint256",
          "name": "amount",
          "type": "uint256"
        },
        {
          "internalType": "bytes",
          "name": "data",
          "type": "bytes"
        }
      ],
      "name": "onERC1155Received",
      "outputs": [
        {
          "internalType": "bytes4",
          "name": "",
          "type": "bytes4"
        }
      ],
      "stateMutability": "nonpayable",
      "type": "function"
    },
    {
      "inputs": [
        {
          "internalType": "address",
          "name": "operator",
          "type": "address"
        },
        {
          "internalType": "address",
          "name": "from",
          "type": "address"
        },
        {
          "internalType": "uint256",
          "name": "tokenId",
          "type": "uint256"
        },
        {
          "internalType": "bytes",
          "name": "data",
          "type": "bytes"
        }
      ],
      "name": "onERC721Received",
      "outputs": [
        {
          "internalType": "bytes4",
          "name": "",
          "type": "bytes4"
        }
      ],
      "stateMutability": "nonpayable",
      "type": "function"
    },
    {
      "inputs": [
        {
          "internalType": "uint256",
          "name": "tokenId",
          "type": "uint256"
        }
      ],
      "name": "ownerOf",
      "outputs": [
        {
          "internalType": "address",
          "name": "",
          "type": "address"
        }
      ],
      "stateMutability": "view",
      "type": "function",
      "constant": true
    },
    {
      "inputs": [],
      "name": "paused",
      "outputs": [
        {
          "internalType": "bool",
          "name": "",
          "type": "bool"
        }
      ],
      "stateMutability": "view",
      "type": "function",
      "constant": true
    },
    {
      "inputs": [
        {
          "internalType": "bytes32",
          "name": "role",
          "type": "bytes32"
        },
        {
          "internalType": "address",
          "name": "account",
          "type": "address"
        }
      ],
      "name": "renounceRole",
      "outputs": [],
      "stateMutability": "nonpayable",
      "type": "function"
    },
    {
      "inputs": [
        {
          "internalType": "bytes32",
          "name": "role",
          "type": "bytes32"
        },
        {
          "internalType": "address",
          "name": "account",
          "type": "address"
        }
      ],
      "name": "revokeRole",
      "outputs": [],
      "stateMutability": "nonpayable",
      "type": "function"
    },
    {
      "inputs": [
        {
          "internalType": "uint256",
          "name": "fromTokenId",
          "type": "uint256"
        },
        {
          "internalType": "address",
          "name": "to",
          "type": "address"
        },
        {
          "internalType": "address",
          "name": "childContract",
          "type": "address"
        },
        {
          "internalType": "uint256[]",
          "name": "childTokenIds",
          "type": "uint256[]"
        },
        {
          "internalType": "uint256[]",
          "name": "amounts",
          "type": "uint256[]"
        },
        {
          "internalType": "bytes",
          "name": "data",
          "type": "bytes"
        }
      ],
      "name": "safeBatchTransferChildFrom",
      "outputs": [],
      "stateMutability": "nonpayable",
      "type": "function"
    },
    {
      "inputs": [
        {
          "internalType": "uint256",
          "name": "fromTokenId",
          "type": "uint256"
        },
        {
          "internalType": "address",
          "name": "to",
          "type": "address"
        },
        {
          "internalType": "address",
          "name": "childContract",
          "type": "address"
        },
        {
          "internalType": "uint256",
          "name": "childTokenId",
          "type": "uint256"
        },
        {
          "internalType": "uint256",
          "name": "amount",
          "type": "uint256"
        },
        {
          "internalType": "bytes",
          "name": "data",
          "type": "bytes"
        }
      ],
      "name": "safeTransferChildFrom",
      "outputs": [],
      "stateMutability": "nonpayable",
      "type": "function"
    },
    {
      "inputs": [
        {
          "internalType": "address",
          "name": "from",
          "type": "address"
        },
        {
          "internalType": "address",
          "name": "to",
          "type": "address"
        },
        {
          "internalType": "uint256",
          "name": "tokenId",
          "type": "uint256"
        }
      ],
      "name": "safeTransferFrom",
      "outputs": [],
      "stateMutability": "nonpayable",
      "type": "function"
    },
    {
      "inputs": [
        {
          "internalType": "address",
          "name": "from",
          "type": "address"
        },
        {
          "internalType": "address",
          "name": "to",
          "type": "address"
        },
        {
          "internalType": "uint256",
          "name": "tokenId",
          "type": "uint256"
        },
        {
          "internalType": "bytes",
          "name": "data",
          "type": "bytes"
        }
      ],
      "name": "safeTransferFrom",
      "outputs": [],
      "stateMutability": "nonpayable",
      "type": "function"
    },
    {
      "inputs": [
        {
          "internalType": "address",
          "name": "operator",
          "type": "address"
        },
        {
          "internalType": "bool",
          "name": "approved",
          "type": "bool"
        }
      ],
      "name": "setApprovalForAll",
      "outputs": [],
      "stateMutability": "nonpayable",
      "type": "function"
    },
    {
      "inputs": [],
      "name": "symbol",
      "outputs": [
        {
          "internalType": "string",
          "name": "",
          "type": "string"
        }
      ],
      "stateMutability": "view",
      "type": "function",
      "constant": true
    },
    {
      "inputs": [
        {
          "internalType": "uint256",
          "name": "tokenId",
          "type": "uint256"
        }
      ],
      "name": "tokenURI",
      "outputs": [
        {
          "internalType": "string",
          "name": "",
          "type": "string"
        }
      ],
      "stateMutability": "view",
      "type": "function",
      "constant": true
    },
    {
      "inputs": [
        {
          "internalType": "address",
          "name": "from",
          "type": "address"
        },
        {
          "internalType": "address",
          "name": "to",
          "type": "address"
        },
        {
          "internalType": "uint256",
          "name": "tokenId",
          "type": "uint256"
        }
      ],
      "name": "transferFrom",
      "outputs": [],
      "stateMutability": "nonpayable",
      "type": "function"
    },
    {
      "inputs": [
        {
          "internalType": "address",
          "name": "to",
          "type": "address"
        },
        {
          "internalType": "uint256",
          "name": "tokenId",
          "type": "uint256"
        }
      ],
      "name": "mint",
      "outputs": [],
      "stateMutability": "nonpayable",
      "type": "function"
    },
    {
      "inputs": [
        {
          "internalType": "uint256",
          "name": "tokenId",
          "type": "uint256"
        }
      ],
      "name": "burn",
      "outputs": [],
      "stateMutability": "nonpayable",
      "type": "function"
    },
    {
      "inputs": [],
      "name": "pause",
      "outputs": [],
      "stateMutability": "nonpayable",
      "type": "function"
    },
    {
      "inputs": [],
      "name": "unpause",
      "outputs": [],
      "stateMutability": "nonpayable",
      "type": "function"
    },
    {
      "inputs": [
        {
          "internalType": "bytes4",
          "name": "interfaceId",
          "type": "bytes4"
        }
      ],
      "name": "supportsInterface",
      "outputs": [
        {
          "internalType": "bool",
          "name": "",
          "type": "bool"
        }
      ],
      "stateMutability": "view",
      "type": "function",
      "constant": true
    }
  ],
  "bytecode": "0x60806040523480156200001157600080fd5b50604051620062c9380380620062c9833981810160405281019062000037919062000463565b828282828281600190816200004d919062000767565b5080600290816200005f919062000767565b505050620000726200014060201b60201c565b505050506000600b60006101000a81548160ff021916908315150217905550620000b56000801b620000a96200015760201b60201c565b6200015f60201b60201c565b620000f67f9f2df0fed2c77648de5860a4cc508cd0818c85b8b8a1ab4ceeef8d981c8956a6620000ea6200015760201b60201c565b6200015f60201b60201c565b620001377f65d7a28e3265b37a6474929f336521b332c1681b933f6cb9f3376673440d862a6200012b6200015760201b60201c565b6200015f60201b60201c565b5050506200084e565b606060405180602001604052806000815250905090565b600033905090565b6200017182826200017560201b60201c565b5050565b6200018782826200026660201b60201c565b6200026257600160008084815260200190815260200160002060000160008373ffffffffffffffffffffffffffffffffffffffff1673ffffffffffffffffffffffffffffffffffffffff16815260200190815260200160002060006101000a81548160ff021916908315150217905550620002076200015760201b60201c565b73ffffffffffffffffffffffffffffffffffffffff168173ffffffffffffffffffffffffffffffffffffffff16837f2f8788117e7eff1d82e926ec794901d17c78024a50270940304540a733656f0d60405160405180910390a45b5050565b600080600084815260200190815260200160002060000160008373ffffffffffffffffffffffffffffffffffffffff1673ffffffffffffffffffffffffffffffffffffffff16815260200190815260200160002060009054906101000a900460ff16905092915050565b6000604051905090565b600080fd5b600080fd5b600080fd5b600080fd5b6000601f19601f8301169050919050565b7f4e487b7100000000000000000000000000000000000000000000000000000000600052604160045260246000fd5b6200033982620002ee565b810181811067ffffffffffffffff821117156200035b576200035a620002ff565b5b80604052505050565b600062000370620002d0565b90506200037e82826200032e565b919050565b600067ffffffffffffffff821115620003a157620003a0620002ff565b5b620003ac82620002ee565b9050602081019050919050565b60005b83811015620003d9578082015181840152602081019050620003bc565b60008484015250505050565b6000620003fc620003f68462000383565b62000364565b9050828152602081018484840111156200041b576200041a620002e9565b5b62000428848285620003b9565b509392505050565b600082601f830112620004485762000447620002e4565b5b81516200045a848260208601620003e5565b91505092915050565b6000806000606084860312156200047f576200047e620002da565b5b600084015167ffffffffffffffff811115620004a0576200049f620002df565b5b620004ae8682870162000430565b935050602084015167ffffffffffffffff811115620004d257620004d1620002df565b5b620004e08682870162000430565b925050604084015167ffffffffffffffff811115620005045762000503620002df565b5b620005128682870162000430565b9150509250925092565b600081519050919050565b7f4e487b7100000000000000000000000000000000000000000000000000000000600052602260045260246000fd5b600060028204905060018216806200056f57607f821691505b60208210810362000585576200058462000527565b5b50919050565b60008190508160005260206000209050919050565b60006020601f8301049050919050565b600082821b905092915050565b600060088302620005ef7fffffffffffffffffffffffffffffffffffffffffffffffffffffffffffffffff82620005b0565b620005fb8683620005b0565b95508019841693508086168417925050509392505050565b6000819050919050565b6000819050919050565b600062000648620006426200063c8462000613565b6200061d565b62000613565b9050919050565b6000819050919050565b620006648362000627565b6200067c62000673826200064f565b848454620005bd565b825550505050565b600090565b6200069362000684565b620006a081848462000659565b505050565b5b81811015620006c857620006bc60008262000689565b600181019050620006a6565b5050565b601f8211156200071757620006e1816200058b565b620006ec84620005a0565b81016020851015620006fc578190505b620007146200070b85620005a0565b830182620006a5565b50505b505050565b600082821c905092915050565b60006200073c600019846008026200071c565b1980831691505092915050565b600062000757838362000729565b9150826002028217905092915050565b62000772826200051c565b67ffffffffffffffff8111156200078e576200078d620002ff565b5b6200079a825462000556565b620007a7828285620006cc565b600060209050601f831160018114620007df5760008415620007ca578287015190505b620007d6858262000749565b86555062000846565b601f198416620007ef866200058b565b60005b828110156200081957848901518255600182019150602085019450602081019050620007f2565b8683101562000839578489015162000835601f89168262000729565b8355505b6001600288020188555050505b505050505050565b615a6b806200085e6000396000f3fe608060405234801561001057600080fd5b50600436106102275760003560e01c80636352211e11610130578063b88d4fde116100b8578063d547741f1161007c578063d547741f14610698578063e63ab1e9146106b4578063e985e9c5146106d2578063eeaf2f0914610702578063f23a6e611461073257610227565b8063b88d4fde146105ce578063bc197c81146105ea578063c41a360a1461061a578063c87b56dd1461064a578063d53913931461067a57610227565b806389e7e2f2116100ff57806389e7e2f21461051657806391d148541461054657806395d89b4114610576578063a217fddf14610594578063a22cb465146105b257610227565b80636352211e1461048e57806370a08231146104be5780637a6ce2e1146104ee5780638456cb591461050c57610227565b806332085b65116101b357806342842e0e1161018257806342842e0e146103ec57806342966c681461040857806342cf6e74146104245780635c975abb1461044057806360d4d23a1461045e57610227565b806332085b651461038e57806336568abe146103aa5780633f4ba83a146103c657806340c10f19146103d057610227565b8063150b7a02116101fa578063150b7a02146102c657806323b872dd146102f6578063248a9ca3146103125780632676608c146103425780632f2ff15d1461037257610227565b806301ffc9a71461022c57806306fdde031461025c578063081812fc1461027a578063095ea7b3146102aa575b600080fd5b610246600480360381019061024191906139b7565b610762565b60405161025391906139ff565b60405180910390f35b610264610774565b6040516102719190613aaa565b60405180910390f35b610294600480360381019061028f9190613b02565b610806565b6040516102a19190613b70565b60405180910390f35b6102c460048036038101906102bf9190613bb7565b61084c565b005b6102e060048036038101906102db9190613d2c565b610963565b6040516102ed9190613dbe565b60405180910390f35b610310600480360381019061030b9190613dd9565b610a4d565b005b61032c60048036038101906103279190613e62565b610aad565b6040516103399190613e9e565b60405180910390f35b61035c60048036038101906103579190613eb9565b610acc565b6040516103699190613fb7565b60405180910390f35b61038c60048036038101906103879190613fd9565b610c73565b005b6103a860048036038101906103a391906140e1565b610c94565b005b6103c460048036038101906103bf9190613fd9565b610f3f565b005b6103ce610fc2565b005b6103ea60048036038101906103e59190613bb7565b61103c565b005b61040660048036038101906104019190613dd9565b61104a565b005b610422600480360381019061041d9190613b02565b61106a565b005b61043e600480360381019061043991906141c2565b6110c6565b005b6104486112df565b60405161045591906139ff565b60405180910390f35b6104786004803603810190610473919061426b565b6112f6565b60405161048591906142cd565b60405180910390f35b6104a860048036038101906104a39190613b02565b611363565b6040516104b59190613b70565b60405180910390f35b6104d860048036038101906104d391906142e8565b611414565b6040516104e591906142cd565b60405180910390f35b6104f66114cb565b6040516105039190613b70565b60405180910390f35b6105146114da565b005b610530600480360381019061052b9190613b02565b611554565b60405161053d91906143d3565b60405180910390f35b610560600480360381019061055b9190613fd9565b611671565b60405161056d91906139ff565b60405180910390f35b61057e6116db565b60405161058b9190613aaa565b60405180910390f35b61059c61176d565b6040516105a99190613e9e565b60405180910390f35b6105cc60048036038101906105c79190614421565b611774565b005b6105e860048036038101906105e39190613d2c565b61178a565b005b61060460048036038101906105ff9190614461565b6117ec565b6040516106119190613dbe565b60405180910390f35b610634600480360381019061062f9190613b02565b6119b1565b6040516106419190613b70565b60405180910390f35b610664600480360381019061065f9190613b02565b6119c3565b6040516106719190613aaa565b60405180910390f35b610682611a2b565b60405161068f9190613e9e565b60405180910390f35b6106b260048036038101906106ad9190613fd9565b611a4f565b005b6106bc611a70565b6040516106c99190613e9e565b60405180910390f35b6106ec60048036038101906106e79190614530565b611a94565b6040516106f991906139ff565b60405180910390f35b61071c6004803603810190610717919061426b565b611b28565b60405161072991906142cd565b60405180910390f35b61074c60048036038101906107479190614570565b611b5a565b6040516107599190613dbe565b60405180910390f35b600061076d82611c63565b9050919050565b60606001805461078390614636565b80601f01602080910402602001604051908101604052809291908181526020018280546107af90614636565b80156107fc5780601f106107d1576101008083540402835291602001916107fc565b820191906000526020600020905b8154815290600101906020018083116107df57829003601f168201915b5050505050905090565b600061081182611d45565b6005600083815260200190815260200160002060009054906101000a900473ffffffffffffffffffffffffffffffffffffffff169050919050565b600061085782611363565b90508073ffffffffffffffffffffffffffffffffffffffff168373ffffffffffffffffffffffffffffffffffffffff16036108c7576040517f08c379a00000000000000000000000000000000000000000000000000000000081526004016108be906146d9565b60405180910390fd5b8073ffffffffffffffffffffffffffffffffffffffff166108e6611d90565b73ffffffffffffffffffffffffffffffffffffffff16148061091557506109148161090f611d90565b611a94565b5b610954576040517f08c379a000000000000000000000000000000000000000000000000000000000815260040161094b9061476b565b60405180910390fd5b61095e8383611d98565b505050565b600060208251146109a9576040517f08c379a00000000000000000000000000000000000000000000000000000000081526004016109a090614823565b60405180910390fd5b600080602060003690506109bd9190614872565b9050803591506109d08233876001611e51565b3373ffffffffffffffffffffffffffffffffffffffff16828773ffffffffffffffffffffffffffffffffffffffff167fa18753b0660a8be2cdae03468c860b47c2926433ab16917f323544652803032d886001604051610a319291906148eb565b60405180910390a463150b7a0260e01b92505050949350505050565b610a5e610a58611d90565b82611fec565b610a9d576040517f08c379a0000000000000000000000000000000000000000000000000000000008152600401610a9490614986565b60405180910390fd5b610aa8838383612081565b505050565b6000806000838152602001908152602001600020600101549050919050565b60606000610b28600a600086815260200190815260200160002060008573ffffffffffffffffffffffffffffffffffffffff1673ffffffffffffffffffffffffffffffffffffffff1681526020019081526020016000206122e7565b67ffffffffffffffff811115610b4157610b40613c01565b5b604051908082528060200260200182016040528015610b6f5781602001602082028036833780820191505090505b50905060005b610bcd600a600087815260200190815260200160002060008673ffffffffffffffffffffffffffffffffffffffff1673ffffffffffffffffffffffffffffffffffffffff1681526020019081526020016000206122e7565b811015610c6857610c3681600a600088815260200190815260200160002060008773ffffffffffffffffffffffffffffffffffffffff1673ffffffffffffffffffffffffffffffffffffffff1681526020019081526020016000206122fc90919063ffffffff16565b828281518110610c4957610c486149a6565b5b6020026020010181815250508080610c60906149d5565b915050610b75565b508091505092915050565b610c7c82610aad565b610c8581612316565b610c8f838361232a565b505050565b8151835114610cd8576040517f08c379a0000000000000000000000000000000000000000000000000000000008152600401610ccf90614a8f565b60405180910390fd5b600073ffffffffffffffffffffffffffffffffffffffff168573ffffffffffffffffffffffffffffffffffffffff1603610d47576040517f08c379a0000000000000000000000000000000000000000000000000000000008152600401610d3e90614b21565b60405180910390fd5b6000610d51611d90565b90508073ffffffffffffffffffffffffffffffffffffffff16610d7388611363565b73ffffffffffffffffffffffffffffffffffffffff161480610da35750610da2610d9c88611363565b82611a94565b5b610de2576040517f08c379a0000000000000000000000000000000000000000000000000000000008152600401610dd990614bb3565b60405180910390fd5b610df18188888888888861240a565b60005b8451811015610e5a576000858281518110610e1257610e116149a6565b5b602002602001015190506000858381518110610e3157610e306149a6565b5b60200260200101519050610e478a89848461246a565b505080610e53906149d5565b9050610df4565b508473ffffffffffffffffffffffffffffffffffffffff16632eb2c2d630888787876040518663ffffffff1660e01b8152600401610e9c959493929190614c28565b600060405180830381600087803b158015610eb657600080fd5b505af1158015610eca573d6000803e3d6000fd5b505050508473ffffffffffffffffffffffffffffffffffffffff168673ffffffffffffffffffffffffffffffffffffffff16887f5572be9c1bc39e4e277a34f64ccd0e84456dac3f33b0b1c458c12c402c6326a98787604051610f2e929190614c90565b60405180910390a450505050505050565b610f47611d90565b73ffffffffffffffffffffffffffffffffffffffff168173ffffffffffffffffffffffffffffffffffffffff1614610fb4576040517f08c379a0000000000000000000000000000000000000000000000000000000008152600401610fab90614d39565b60405180910390fd5b610fbe828261274e565b5050565b610ff37f65d7a28e3265b37a6474929f336521b332c1681b933f6cb9f3376673440d862a610fee611d90565b611671565b611032576040517f08c379a000000000000000000000000000000000000000000000000000000000815260040161102990614dcb565b60405180910390fd5b61103a61282f565b565b6110468282612892565b5050565b6110658383836040518060200160405280600081525061178a565b505050565b61107b611075611d90565b82611fec565b6110ba576040517f08c379a00000000000000000000000000000000000000000000000000000000081526004016110b190614e5d565b60405180910390fd5b6110c381612a6b565b50565b600073ffffffffffffffffffffffffffffffffffffffff168573ffffffffffffffffffffffffffffffffffffffff1603611135576040517f08c379a000000000000000000000000000000000000000000000000000000000815260040161112c90614b21565b60405180910390fd5b600061113f611d90565b90508073ffffffffffffffffffffffffffffffffffffffff1661116188611363565b73ffffffffffffffffffffffffffffffffffffffff161480611191575061119061118a88611363565b82611a94565b5b6111d0576040517f08c379a00000000000000000000000000000000000000000000000000000000081526004016111c790614bb3565b60405180910390fd5b6111ef818888886111e089612b88565b6111e989612b88565b8861240a565b6111fb8786868661246a565b8473ffffffffffffffffffffffffffffffffffffffff1663f242432a30888787876040518663ffffffff1660e01b815260040161123c959493929190614e7d565b600060405180830381600087803b15801561125657600080fd5b505af115801561126a573d6000803e3d6000fd5b505050508473ffffffffffffffffffffffffffffffffffffffff168673ffffffffffffffffffffffffffffffffffffffff16887f9d6259404dec52b3d5d220f5b8e5d05cc05ec908e1bc320aa46793e3091e519487876040516112ce929190614ed7565b60405180910390a450505050505050565b6000600b60009054906101000a900460ff16905090565b60006007600085815260200190815260200160002060008473ffffffffffffffffffffffffffffffffffffffff1673ffffffffffffffffffffffffffffffffffffffff16815260200190815260200160002060008381526020019081526020016000205490509392505050565b6000806003600084815260200190815260200160002060009054906101000a900473ffffffffffffffffffffffffffffffffffffffff169050600073ffffffffffffffffffffffffffffffffffffffff168173ffffffffffffffffffffffffffffffffffffffff160361140b576040517f08c379a000000000000000000000000000000000000000000000000000000000815260040161140290614f4c565b60405180910390fd5b80915050919050565b60008073ffffffffffffffffffffffffffffffffffffffff168273ffffffffffffffffffffffffffffffffffffffff1603611484576040517f08c379a000000000000000000000000000000000000000000000000000000000815260040161147b90614fde565b60405180910390fd5b600460008373ffffffffffffffffffffffffffffffffffffffff1673ffffffffffffffffffffffffffffffffffffffff168152602001908152602001600020549050919050565b60006114d5611d90565b905090565b61150b7f65d7a28e3265b37a6474929f336521b332c1681b933f6cb9f3376673440d862a611506611d90565b611671565b61154a576040517f08c379a000000000000000000000000000000000000000000000000000000000815260040161154190615070565b60405180910390fd5b611552612c02565b565b6060600061157360096000858152602001908152602001600020612c65565b67ffffffffffffffff81111561158c5761158b613c01565b5b6040519080825280602002602001820160405280156115ba5781602001602082028036833780820191505090505b50905060005b6115db60096000868152602001908152602001600020612c65565b811015611667576116078160096000878152602001908152602001600020612c7a90919063ffffffff16565b82828151811061161a576116196149a6565b5b602002602001019073ffffffffffffffffffffffffffffffffffffffff16908173ffffffffffffffffffffffffffffffffffffffff1681525050808061165f906149d5565b9150506115c0565b5080915050919050565b600080600084815260200190815260200160002060000160008373ffffffffffffffffffffffffffffffffffffffff1673ffffffffffffffffffffffffffffffffffffffff16815260200190815260200160002060009054906101000a900460ff16905092915050565b6060600280546116ea90614636565b80601f016020809104026020016040519081016040528092919081815260200182805461171690614636565b80156117635780601f1061173857610100808354040283529160200191611763565b820191906000526020600020905b81548152906001019060200180831161174657829003601f168201915b5050505050905090565b6000801b81565b61178661177f611d90565b8383612c94565b5050565b61179b611795611d90565b83611fec565b6117da576040517f08c379a00000000000000000000000000000000000000000000000000000000081526004016117d190614986565b60405180910390fd5b6117e684848484612e00565b50505050565b60006020825114611832576040517f08c379a000000000000000000000000000000000000000000000000000000000815260040161182990614823565b60405180910390fd5b8251845114611876576040517f08c379a000000000000000000000000000000000000000000000000000000000815260040161186d90615102565b60405180910390fd5b611886866000308888888861240a565b6000806020600036905061189a9190614872565b90508035915060005b865181101561199b576118ec83338984815181106118c4576118c36149a6565b5b60200260200101518985815181106118df576118de6149a6565b5b6020026020010151611e51565b3373ffffffffffffffffffffffffffffffffffffffff16838973ffffffffffffffffffffffffffffffffffffffff167fa18753b0660a8be2cdae03468c860b47c2926433ab16917f323544652803032d8a858151811061194f5761194e6149a6565b5b60200260200101518a868151811061196a576119696149a6565b5b6020026020010151604051611980929190614ed7565b60405180910390a48080611993906149d5565b9150506118a3565b5063bc197c8160e01b9250505095945050505050565b60006119bc82611363565b9050919050565b60606119ce82611d45565b60006119d8612e5c565b905060008151116119f85760405180602001604052806000815250611a23565b80611a0284612e73565b604051602001611a1392919061515e565b6040516020818303038152906040525b915050919050565b7f9f2df0fed2c77648de5860a4cc508cd0818c85b8b8a1ab4ceeef8d981c8956a681565b611a5882610aad565b611a6181612316565b611a6b838361274e565b505050565b7f65d7a28e3265b37a6474929f336521b332c1681b933f6cb9f3376673440d862a81565b6000600660008473ffffffffffffffffffffffffffffffffffffffff1673ffffffffffffffffffffffffffffffffffffffff16815260200190815260200160002060008373ffffffffffffffffffffffffffffffffffffffff1673ffffffffffffffffffffffffffffffffffffffff16815260200190815260200160002060009054906101000a900460ff16905092915050565b600760205282600052604060002060205281600052604060002060205280600052604060002060009250925050505481565b60006020825114611ba0576040517f08c379a0000000000000000000000000000000000000000000000000000000008152600401611b9790614823565b60405180910390fd5b611bc08660003088611bb189612b88565b611bba89612b88565b8861240a565b60008060206000369050611bd49190614872565b905080359150611be682338888611e51565b3373ffffffffffffffffffffffffffffffffffffffff16828873ffffffffffffffffffffffffffffffffffffffff167fa18753b0660a8be2cdae03468c860b47c2926433ab16917f323544652803032d8989604051611c46929190614ed7565b60405180910390a463f23a6e6160e01b9250505095945050505050565b60007f80ac58cd000000000000000000000000000000000000000000000000000000007bffffffffffffffffffffffffffffffffffffffffffffffffffffffff1916827bffffffffffffffffffffffffffffffffffffffffffffffffffffffff19161480611d2e57507f5b5e139f000000000000000000000000000000000000000000000000000000007bffffffffffffffffffffffffffffffffffffffffffffffffffffffff1916827bffffffffffffffffffffffffffffffffffffffffffffffffffffffff1916145b80611d3e5750611d3d82612fd3565b5b9050919050565b611d4e8161304d565b611d8d576040517f08c379a0000000000000000000000000000000000000000000000000000000008152600401611d8490614f4c565b60405180910390fd5b50565b600033905090565b816005600083815260200190815260200160002060006101000a81548173ffffffffffffffffffffffffffffffffffffffff021916908373ffffffffffffffffffffffffffffffffffffffff160217905550808273ffffffffffffffffffffffffffffffffffffffff16611e0b83611363565b73ffffffffffffffffffffffffffffffffffffffff167f8c5be1e5ebec7d5bd14f71427d1e84f3dd0314c0f7b2291e5b200ac8c7c3b92560405160405180910390a45050565b611e7683600960008781526020019081526020016000206130b990919063ffffffff16565b611ea157611e9f83600960008781526020019081526020016000206130e990919063ffffffff16565b505b60006007600086815260200190815260200160002060008573ffffffffffffffffffffffffffffffffffffffff1673ffffffffffffffffffffffffffffffffffffffff16815260200190815260200160002060008481526020019081526020016000205403611f6e57611f6c82600a600087815260200190815260200160002060008673ffffffffffffffffffffffffffffffffffffffff1673ffffffffffffffffffffffffffffffffffffffff16815260200190815260200160002061311990919063ffffffff16565b505b806007600086815260200190815260200160002060008573ffffffffffffffffffffffffffffffffffffffff1673ffffffffffffffffffffffffffffffffffffffff16815260200190815260200160002060008481526020019081526020016000206000828254611fdf9190615182565b9250508190555050505050565b600080611ff883611363565b90508073ffffffffffffffffffffffffffffffffffffffff168473ffffffffffffffffffffffffffffffffffffffff16148061203a57506120398185611a94565b5b8061207857508373ffffffffffffffffffffffffffffffffffffffff1661206084610806565b73ffffffffffffffffffffffffffffffffffffffff16145b91505092915050565b8273ffffffffffffffffffffffffffffffffffffffff166120a182611363565b73ffffffffffffffffffffffffffffffffffffffff16146120f7576040517f08c379a00000000000000000000000000000000000000000000000000000000081526004016120ee90615228565b60405180910390fd5b600073ffffffffffffffffffffffffffffffffffffffff168273ffffffffffffffffffffffffffffffffffffffff1603612166576040517f08c379a000000000000000000000000000000000000000000000000000000000815260040161215d906152ba565b60405180910390fd5b612171838383613133565b61217c600082611d98565b6001600460008573ffffffffffffffffffffffffffffffffffffffff1673ffffffffffffffffffffffffffffffffffffffff16815260200190815260200160002060008282546121cc9190614872565b925050819055506001600460008473ffffffffffffffffffffffffffffffffffffffff1673ffffffffffffffffffffffffffffffffffffffff16815260200190815260200160002060008282546122239190615182565b92505081905550816003600083815260200190815260200160002060006101000a81548173ffffffffffffffffffffffffffffffffffffffff021916908373ffffffffffffffffffffffffffffffffffffffff160217905550808273ffffffffffffffffffffffffffffffffffffffff168473ffffffffffffffffffffffffffffffffffffffff167fddf252ad1be2c89b69c2b068fc378daa952ba7f163c4a11628f55a4df523b3ef60405160405180910390a46122e283838361318b565b505050565b60006122f582600001613190565b9050919050565b600061230b83600001836131a1565b60001c905092915050565b61232781612322611d90565b6131cc565b50565b6123348282611671565b61240657600160008084815260200190815260200160002060000160008373ffffffffffffffffffffffffffffffffffffffff1673ffffffffffffffffffffffffffffffffffffffff16815260200190815260200160002060006101000a81548160ff0219169083151502179055506123ab611d90565b73ffffffffffffffffffffffffffffffffffffffff168173ffffffffffffffffffffffffffffffffffffffff16837f2f8788117e7eff1d82e926ec794901d17c78024a50270940304540a733656f0d60405160405180910390a45b5050565b6124126112df565b15612452576040517f08c379a00000000000000000000000000000000000000000000000000000000081526004016124499061534c565b60405180910390fd5b61246187878787878787613269565b50505050505050565b6000811415806124db5750806007600086815260200190815260200160002060008573ffffffffffffffffffffffffffffffffffffffff1673ffffffffffffffffffffffffffffffffffffffff16815260200190815260200160002060008481526020019081526020016000205410155b61251a576040517f08c379a0000000000000000000000000000000000000000000000000000000008152600401612511906153de565b60405180910390fd5b806007600086815260200190815260200160002060008573ffffffffffffffffffffffffffffffffffffffff1673ffffffffffffffffffffffffffffffffffffffff1681526020019081526020016000206000848152602001908152602001600020600082825461258b9190614872565b9250508190555060006007600086815260200190815260200160002060008573ffffffffffffffffffffffffffffffffffffffff1673ffffffffffffffffffffffffffffffffffffffff168152602001908152602001600020600084815260200190815260200160002054036127485761265d84600860008673ffffffffffffffffffffffffffffffffffffffff1673ffffffffffffffffffffffffffffffffffffffff168152602001908152602001600020600085815260200190815260200160002061327290919063ffffffff16565b506126c082600a600087815260200190815260200160002060008673ffffffffffffffffffffffffffffffffffffffff1673ffffffffffffffffffffffffffffffffffffffff16815260200190815260200160002061327290919063ffffffff16565b50600061271b600a600087815260200190815260200160002060008673ffffffffffffffffffffffffffffffffffffffff1673ffffffffffffffffffffffffffffffffffffffff1681526020019081526020016000206122e7565b0361274757612745836009600087815260200190815260200160002061328c90919063ffffffff16565b505b5b50505050565b6127588282611671565b1561282b57600080600084815260200190815260200160002060000160008373ffffffffffffffffffffffffffffffffffffffff1673ffffffffffffffffffffffffffffffffffffffff16815260200190815260200160002060006101000a81548160ff0219169083151502179055506127d0611d90565b73ffffffffffffffffffffffffffffffffffffffff168173ffffffffffffffffffffffffffffffffffffffff16837ff6391f5c32d9c69d2a47ea670b442974b53935d1edc7fd64eb21e047a839171b60405160405180910390a45b5050565b6128376132bc565b6000600b60006101000a81548160ff0219169083151502179055507f5db9ee0a495bf2e6ff9c91a7834c1ba4fdd244a5e8aa4e537bd38aeae4b073aa61287b611d90565b6040516128889190613b70565b60405180910390a1565b600073ffffffffffffffffffffffffffffffffffffffff168273ffffffffffffffffffffffffffffffffffffffff1603612901576040517f08c379a00000000000000000000000000000000000000000000000000000000081526004016128f89061544a565b60405180910390fd5b61290a8161304d565b1561294a576040517f08c379a0000000000000000000000000000000000000000000000000000000008152600401612941906154b6565b60405180910390fd5b61295660008383613133565b6001600460008473ffffffffffffffffffffffffffffffffffffffff1673ffffffffffffffffffffffffffffffffffffffff16815260200190815260200160002060008282546129a69190615182565b92505081905550816003600083815260200190815260200160002060006101000a81548173ffffffffffffffffffffffffffffffffffffffff021916908373ffffffffffffffffffffffffffffffffffffffff160217905550808273ffffffffffffffffffffffffffffffffffffffff16600073ffffffffffffffffffffffffffffffffffffffff167fddf252ad1be2c89b69c2b068fc378daa952ba7f163c4a11628f55a4df523b3ef60405160405180910390a4612a676000838361318b565b5050565b6000612a7682611363565b9050612a8481600084613133565b612a8f600083611d98565b6001600460008373ffffffffffffffffffffffffffffffffffffffff1673ffffffffffffffffffffffffffffffffffffffff1681526020019081526020016000206000828254612adf9190614872565b925050819055506003600083815260200190815260200160002060006101000a81549073ffffffffffffffffffffffffffffffffffffffff021916905581600073ffffffffffffffffffffffffffffffffffffffff168273ffffffffffffffffffffffffffffffffffffffff167fddf252ad1be2c89b69c2b068fc378daa952ba7f163c4a11628f55a4df523b3ef60405160405180910390a4612b848160008461318b565b5050565b60606000600167ffffffffffffffff811115612ba757612ba6613c01565b5b604051908082528060200260200182016040528015612bd55781602001602082028036833780820191505090505b5090508281600081518110612bed57612bec6149a6565b5b60200260200101818152505080915050919050565b612c0a613305565b6001600b60006101000a81548160ff0219169083151502179055507f62e78cea01bee320cd4e420270b5ea74000d11b0c9f74754ebdbfc544b05a258612c4e611d90565b604051612c5b9190613b70565b60405180910390a1565b6000612c7382600001613190565b9050919050565b6000612c8983600001836131a1565b60001c905092915050565b8173ffffffffffffffffffffffffffffffffffffffff168373ffffffffffffffffffffffffffffffffffffffff1603612d02576040517f08c379a0000000000000000000000000000000000000000000000000000000008152600401612cf990615522565b60405180910390fd5b80600660008573ffffffffffffffffffffffffffffffffffffffff1673ffffffffffffffffffffffffffffffffffffffff16815260200190815260200160002060008473ffffffffffffffffffffffffffffffffffffffff1673ffffffffffffffffffffffffffffffffffffffff16815260200190815260200160002060006101000a81548160ff0219169083151502179055508173ffffffffffffffffffffffffffffffffffffffff168373ffffffffffffffffffffffffffffffffffffffff167f17307eab39ab6107e8899845ad3d59bd9653f200f220920489ca2b5937696c3183604051612df391906139ff565b60405180910390a3505050565b612e0b848484612081565b612e178484848461334f565b612e56576040517f08c379a0000000000000000000000000000000000000000000000000000000008152600401612e4d906155b4565b60405180910390fd5b50505050565b606060405180602001604052806000815250905090565b606060008203612eba576040518060400160405280600181526020017f30000000000000000000000000000000000000000000000000000000000000008152509050612fce565b600082905060005b60008214612eec578080612ed5906149d5565b915050600a82612ee59190615603565b9150612ec2565b60008167ffffffffffffffff811115612f0857612f07613c01565b5b6040519080825280601f01601f191660200182016040528015612f3a5781602001600182028036833780820191505090505b5090505b60008514612fc757600182612f539190614872565b9150600a85612f629190615634565b6030612f6e9190615182565b60f81b818381518110612f8457612f836149a6565b5b60200101907effffffffffffffffffffffffffffffffffffffffffffffffffffffffffffff1916908160001a905350600a85612fc09190615603565b9450612f3e565b8093505050505b919050565b60007f7965db0b000000000000000000000000000000000000000000000000000000007bffffffffffffffffffffffffffffffffffffffffffffffffffffffff1916827bffffffffffffffffffffffffffffffffffffffffffffffffffffffff191614806130465750613045826134d6565b5b9050919050565b60008073ffffffffffffffffffffffffffffffffffffffff166003600084815260200190815260200160002060009054906101000a900473ffffffffffffffffffffffffffffffffffffffff1673ffffffffffffffffffffffffffffffffffffffff1614159050919050565b60006130e1836000018373ffffffffffffffffffffffffffffffffffffffff1660001b613540565b905092915050565b6000613111836000018373ffffffffffffffffffffffffffffffffffffffff1660001b613563565b905092915050565b600061312b836000018360001b613563565b905092915050565b61313b6112df565b1561317b576040517f08c379a0000000000000000000000000000000000000000000000000000000008152600401613172906156d7565b60405180910390fd5b6131868383836135d3565b505050565b505050565b600081600001805490509050919050565b60008260000182815481106131b9576131b86149a6565b5b9060005260206000200154905092915050565b6131d68282611671565b613265576131fb8173ffffffffffffffffffffffffffffffffffffffff1660146135d8565b6132098360001c60206135d8565b60405160200161321a92919061578f565b6040516020818303038152906040526040517f08c379a000000000000000000000000000000000000000000000000000000000815260040161325c9190613aaa565b60405180910390fd5b5050565b50505050505050565b6000613284836000018360001b613814565b905092915050565b60006132b4836000018373ffffffffffffffffffffffffffffffffffffffff1660001b613814565b905092915050565b6132c46112df565b613303576040517f08c379a00000000000000000000000000000000000000000000000000000000081526004016132fa90615815565b60405180910390fd5b565b61330d6112df565b1561334d576040517f08c379a000000000000000000000000000000000000000000000000000000000815260040161334490615881565b60405180910390fd5b565b60006133708473ffffffffffffffffffffffffffffffffffffffff16613928565b156134c9578373ffffffffffffffffffffffffffffffffffffffff1663150b7a02613399611d90565b8786866040518563ffffffff1660e01b81526004016133bb94939291906158a1565b6020604051808303816000875af19250505080156133f757506040513d601f19601f820116820180604052508101906133f49190615902565b60015b613479573d8060008114613427576040519150601f19603f3d011682016040523d82523d6000602084013e61342c565b606091505b506000815103613471576040517f08c379a0000000000000000000000000000000000000000000000000000000008152600401613468906155b4565b60405180910390fd5b805181602001fd5b63150b7a0260e01b7bffffffffffffffffffffffffffffffffffffffffffffffffffffffff1916817bffffffffffffffffffffffffffffffffffffffffffffffffffffffff1916149150506134ce565b600190505b949350505050565b60007f01ffc9a7000000000000000000000000000000000000000000000000000000007bffffffffffffffffffffffffffffffffffffffffffffffffffffffff1916827bffffffffffffffffffffffffffffffffffffffffffffffffffffffff1916149050919050565b600080836001016000848152602001908152602001600020541415905092915050565b600061356f8383613540565b6135c85782600001829080600181540180825580915050600190039060005260206000200160009091909190915055826000018054905083600101600084815260200190815260200160002081905550600190506135cd565b600090505b92915050565b505050565b6060600060028360026135eb919061592f565b6135f59190615182565b67ffffffffffffffff81111561360e5761360d613c01565b5b6040519080825280601f01601f1916602001820160405280156136405781602001600182028036833780820191505090505b5090507f300000000000000000000000000000000000000000000000000000000000000081600081518110613678576136776149a6565b5b60200101907effffffffffffffffffffffffffffffffffffffffffffffffffffffffffffff1916908160001a9053507f7800000000000000000000000000000000000000000000000000000000000000816001815181106136dc576136db6149a6565b5b60200101907effffffffffffffffffffffffffffffffffffffffffffffffffffffffffffff1916908160001a9053506000600184600261371c919061592f565b6137269190615182565b90505b60018111156137c6577f3031323334353637383961626364656600000000000000000000000000000000600f861660108110613768576137676149a6565b5b1a60f81b82828151811061377f5761377e6149a6565b5b60200101907effffffffffffffffffffffffffffffffffffffffffffffffffffffffffffff1916908160001a905350600485901c9450806137bf90615971565b9050613729565b506000841461380a576040517f08c379a0000000000000000000000000000000000000000000000000000000008152600401613801906159e6565b60405180910390fd5b8091505092915050565b6000808360010160008481526020019081526020016000205490506000811461391c5760006001826138469190614872565b905060006001866000018054905061385e9190614872565b90508181146138cd57600086600001828154811061387f5761387e6149a6565b5b90600052602060002001549050808760000184815481106138a3576138a26149a6565b5b90600052602060002001819055508387600101600083815260200190815260200160002081905550505b856000018054806138e1576138e0615a06565b5b600190038181906000526020600020016000905590558560010160008681526020019081526020016000206000905560019350505050613922565b60009150505b92915050565b6000808273ffffffffffffffffffffffffffffffffffffffff163b119050919050565b6000604051905090565b600080fd5b600080fd5b60007fffffffff0000000000000000000000000000000000000000000000000000000082169050919050565b6139948161395f565b811461399f57600080fd5b50565b6000813590506139b18161398b565b92915050565b6000602082840312156139cd576139cc613955565b5b60006139db848285016139a2565b91505092915050565b60008115159050919050565b6139f9816139e4565b82525050565b6000602082019050613a1460008301846139f0565b92915050565b600081519050919050565b600082825260208201905092915050565b60005b83811015613a54578082015181840152602081019050613a39565b60008484015250505050565b6000601f19601f8301169050919050565b6000613a7c82613a1a565b613a868185613a25565b9350613a96818560208601613a36565b613a9f81613a60565b840191505092915050565b60006020820190508181036000830152613ac48184613a71565b905092915050565b6000819050919050565b613adf81613acc565b8114613aea57600080fd5b50565b600081359050613afc81613ad6565b92915050565b600060208284031215613b1857613b17613955565b5b6000613b2684828501613aed565b91505092915050565b600073ffffffffffffffffffffffffffffffffffffffff82169050919050565b6000613b5a82613b2f565b9050919050565b613b6a81613b4f565b82525050565b6000602082019050613b856000830184613b61565b92915050565b613b9481613b4f565b8114613b9f57600080fd5b50565b600081359050613bb181613b8b565b92915050565b60008060408385031215613bce57613bcd613955565b5b6000613bdc85828601613ba2565b9250506020613bed85828601613aed565b9150509250929050565b600080fd5b600080fd5b7f4e487b7100000000000000000000000000000000000000000000000000000000600052604160045260246000fd5b613c3982613a60565b810181811067ffffffffffffffff82111715613c5857613c57613c01565b5b80604052505050565b6000613c6b61394b565b9050613c778282613c30565b919050565b600067ffffffffffffffff821115613c9757613c96613c01565b5b613ca082613a60565b9050602081019050919050565b82818337600083830152505050565b6000613ccf613cca84613c7c565b613c61565b905082815260208101848484011115613ceb57613cea613bfc565b5b613cf6848285613cad565b509392505050565b600082601f830112613d1357613d12613bf7565b5b8135613d23848260208601613cbc565b91505092915050565b60008060008060808587031215613d4657613d45613955565b5b6000613d5487828801613ba2565b9450506020613d6587828801613ba2565b9350506040613d7687828801613aed565b925050606085013567ffffffffffffffff811115613d9757613d9661395a565b5b613da387828801613cfe565b91505092959194509250565b613db88161395f565b82525050565b6000602082019050613dd36000830184613daf565b92915050565b600080600060608486031215613df257613df1613955565b5b6000613e0086828701613ba2565b9350506020613e1186828701613ba2565b9250506040613e2286828701613aed565b9150509250925092565b6000819050919050565b613e3f81613e2c565b8114613e4a57600080fd5b50565b600081359050613e5c81613e36565b92915050565b600060208284031215613e7857613e77613955565b5b6000613e8684828501613e4d565b91505092915050565b613e9881613e2c565b82525050565b6000602082019050613eb36000830184613e8f565b92915050565b60008060408385031215613ed057613ecf613955565b5b6000613ede85828601613aed565b9250506020613eef85828601613ba2565b9150509250929050565b600081519050919050565b600082825260208201905092915050565b6000819050602082019050919050565b613f2e81613acc565b82525050565b6000613f408383613f25565b60208301905092915050565b6000602082019050919050565b6000613f6482613ef9565b613f6e8185613f04565b9350613f7983613f15565b8060005b83811015613faa578151613f918882613f34565b9750613f9c83613f4c565b925050600181019050613f7d565b5085935050505092915050565b60006020820190508181036000830152613fd18184613f59565b905092915050565b60008060408385031215613ff057613fef613955565b5b6000613ffe85828601613e4d565b925050602061400f85828601613ba2565b9150509250929050565b600067ffffffffffffffff82111561403457614033613c01565b5b602082029050602081019050919050565b600080fd5b600061405d61405884614019565b613c61565b905080838252602082019050602084028301858111156140805761407f614045565b5b835b818110156140a957806140958882613aed565b845260208401935050602081019050614082565b5050509392505050565b600082601f8301126140c8576140c7613bf7565b5b81356140d884826020860161404a565b91505092915050565b60008060008060008060c087890312156140fe576140fd613955565b5b600061410c89828a01613aed565b965050602061411d89828a01613ba2565b955050604061412e89828a01613ba2565b945050606087013567ffffffffffffffff81111561414f5761414e61395a565b5b61415b89828a016140b3565b935050608087013567ffffffffffffffff81111561417c5761417b61395a565b5b61418889828a016140b3565b92505060a087013567ffffffffffffffff8111156141a9576141a861395a565b5b6141b589828a01613cfe565b9150509295509295509295565b60008060008060008060c087890312156141df576141de613955565b5b60006141ed89828a01613aed565b96505060206141fe89828a01613ba2565b955050604061420f89828a01613ba2565b945050606061422089828a01613aed565b935050608061423189828a01613aed565b92505060a087013567ffffffffffffffff8111156142525761425161395a565b5b61425e89828a01613cfe565b9150509295509295509295565b60008060006060848603121561428457614283613955565b5b600061429286828701613aed565b93505060206142a386828701613ba2565b92505060406142b486828701613aed565b9150509250925092565b6142c781613acc565b82525050565b60006020820190506142e260008301846142be565b92915050565b6000602082840312156142fe576142fd613955565b5b600061430c84828501613ba2565b91505092915050565b600081519050919050565b600082825260208201905092915050565b6000819050602082019050919050565b61434a81613b4f565b82525050565b600061435c8383614341565b60208301905092915050565b6000602082019050919050565b600061438082614315565b61438a8185614320565b935061439583614331565b8060005b838110156143c65781516143ad8882614350565b97506143b883614368565b925050600181019050614399565b5085935050505092915050565b600060208201905081810360008301526143ed8184614375565b905092915050565b6143fe816139e4565b811461440957600080fd5b50565b60008135905061441b816143f5565b92915050565b6000806040838503121561443857614437613955565b5b600061444685828601613ba2565b92505060206144578582860161440c565b9150509250929050565b600080600080600060a0868803121561447d5761447c613955565b5b600061448b88828901613ba2565b955050602061449c88828901613ba2565b945050604086013567ffffffffffffffff8111156144bd576144bc61395a565b5b6144c9888289016140b3565b935050606086013567ffffffffffffffff8111156144ea576144e961395a565b5b6144f6888289016140b3565b925050608086013567ffffffffffffffff8111156145175761451661395a565b5b61452388828901613cfe565b9150509295509295909350565b6000806040838503121561454757614546613955565b5b600061455585828601613ba2565b925050602061456685828601613ba2565b9150509250929050565b600080600080600060a0868803121561458c5761458b613955565b5b600061459a88828901613ba2565b95505060206145ab88828901613ba2565b94505060406145bc88828901613aed565b93505060606145cd88828901613aed565b925050608086013567ffffffffffffffff8111156145ee576145ed61395a565b5b6145fa88828901613cfe565b9150509295509295909350565b7f4e487b7100000000000000000000000000000000000000000000000000000000600052602260045260246000fd5b6000600282049050600182168061464e57607f821691505b60208210810361466157614660614607565b5b50919050565b7f4552433732313a20617070726f76616c20746f2063757272656e74206f776e6560008201527f7200000000000000000000000000000000000000000000000000000000000000602082015250565b60006146c3602183613a25565b91506146ce82614667565b604082019050919050565b600060208201905081810360008301526146f2816146b6565b9050919050565b7f4552433732313a20617070726f76652063616c6c6572206973206e6f7420746f60008201527f6b656e206f776e6572206e6f7220617070726f76656420666f7220616c6c0000602082015250565b6000614755603e83613a25565b9150614760826146f9565b604082019050919050565b6000602082019050818103600083015261478481614748565b9050919050565b7f4552433939383a2064617461206d75737420636f6e7461696e2074686520756e60008201527f697175652075696e7432353620746f6b656e496420746f207472616e7366657260208201527f20746865206368696c6420746f6b656e20746f00000000000000000000000000604082015250565b600061480d605383613a25565b91506148188261478b565b606082019050919050565b6000602082019050818103600083015261483c81614800565b9050919050565b7f4e487b7100000000000000000000000000000000000000000000000000000000600052601160045260246000fd5b600061487d82613acc565b915061488883613acc565b92508282039050818111156148a05761489f614843565b5b92915050565b6000819050919050565b6000819050919050565b60006148d56148d06148cb846148a6565b6148b0565b613acc565b9050919050565b6148e5816148ba565b82525050565b600060408201905061490060008301856142be565b61490d60208301846148dc565b9392505050565b7f4552433732313a2063616c6c6572206973206e6f7420746f6b656e206f776e6560008201527f72206e6f7220617070726f766564000000000000000000000000000000000000602082015250565b6000614970602e83613a25565b915061497b82614914565b604082019050919050565b6000602082019050818103600083015261499f81614963565b9050919050565b7f4e487b7100000000000000000000000000000000000000000000000000000000600052603260045260246000fd5b60006149e082613acc565b91507fffffffffffffffffffffffffffffffffffffffffffffffffffffffffffffffff8203614a1257614a11614843565b5b600182019050919050565b7f4552433939383a2069647320616e6420616d6f756e7473206c656e677468206d60008201527f69736d6174636800000000000000000000000000000000000000000000000000602082015250565b6000614a79602783613a25565b9150614a8482614a1d565b604082019050919050565b60006020820190508181036000830152614aa881614a6c565b9050919050565b7f4552433939383a207472616e7366657220746f20746865207a65726f2061646460008201527f7265737300000000000000000000000000000000000000000000000000000000602082015250565b6000614b0b602483613a25565b9150614b1682614aaf565b604082019050919050565b60006020820190508181036000830152614b3a81614afe565b9050919050565b7f4552433939383a2063616c6c6572206973206e6f74206f776e6572206e6f722060008201527f617070726f766564000000000000000000000000000000000000000000000000602082015250565b6000614b9d602883613a25565b9150614ba882614b41565b604082019050919050565b60006020820190508181036000830152614bcc81614b90565b9050919050565b600081519050919050565b600082825260208201905092915050565b6000614bfa82614bd3565b614c048185614bde565b9350614c14818560208601613a36565b614c1d81613a60565b840191505092915050565b600060a082019050614c3d6000830188613b61565b614c4a6020830187613b61565b8181036040830152614c5c8186613f59565b90508181036060830152614c708185613f59565b90508181036080830152614c848184614bef565b90509695505050505050565b60006040820190508181036000830152614caa8185613f59565b90508181036020830152614cbe8184613f59565b90509392505050565b7f416363657373436f6e74726f6c3a2063616e206f6e6c792072656e6f756e636560008201527f20726f6c657320666f722073656c660000000000000000000000000000000000602082015250565b6000614d23602f83613a25565b9150614d2e82614cc7565b604082019050919050565b60006020820190508181036000830152614d5281614d16565b9050919050565b7f4552433732315072657365744d696e7465725061757365724175746f49643a2060008201527f6d75737420686176652070617573657220726f6c6520746f20756e7061757365602082015250565b6000614db5604083613a25565b9150614dc082614d59565b604082019050919050565b60006020820190508181036000830152614de481614da8565b9050919050565b7f4552433732314275726e61626c653a2063616c6c6572206973206e6f74206f7760008201527f6e6572206e6f7220617070726f76656400000000000000000000000000000000602082015250565b6000614e47603083613a25565b9150614e5282614deb565b604082019050919050565b60006020820190508181036000830152614e7681614e3a565b9050919050565b600060a082019050614e926000830188613b61565b614e9f6020830187613b61565b614eac60408301866142be565b614eb960608301856142be565b8181036080830152614ecb8184614bef565b90509695505050505050565b6000604082019050614eec60008301856142be565b614ef960208301846142be565b9392505050565b7f4552433732313a20696e76616c696420746f6b656e2049440000000000000000600082015250565b6000614f36601883613a25565b9150614f4182614f00565b602082019050919050565b60006020820190508181036000830152614f6581614f29565b9050919050565b7f4552433732313a2061646472657373207a65726f206973206e6f74206120766160008201527f6c6964206f776e65720000000000000000000000000000000000000000000000602082015250565b6000614fc8602983613a25565b9150614fd382614f6c565b604082019050919050565b60006020820190508181036000830152614ff781614fbb565b9050919050565b7f4552433732315072657365744d696e7465725061757365724175746f49643a2060008201527f6d75737420686176652070617573657220726f6c6520746f2070617573650000602082015250565b600061505a603e83613a25565b915061506582614ffe565b604082019050919050565b600060208201905081810360008301526150898161504d565b9050919050565b7f455243313135353a2069647320616e642076616c756573206c656e677468206d60008201527f69736d6174636800000000000000000000000000000000000000000000000000602082015250565b60006150ec602783613a25565b91506150f782615090565b604082019050919050565b6000602082019050818103600083015261511b816150df565b9050919050565b600081905092915050565b600061513882613a1a565b6151428185615122565b9350615152818560208601613a36565b80840191505092915050565b600061516a828561512d565b9150615176828461512d565b91508190509392505050565b600061518d82613acc565b915061519883613acc565b92508282019050808211156151b0576151af614843565b5b92915050565b7f4552433732313a207472616e736665722066726f6d20696e636f72726563742060008201527f6f776e6572000000000000000000000000000000000000000000000000000000602082015250565b6000615212602583613a25565b915061521d826151b6565b604082019050919050565b6000602082019050818103600083015261524181615205565b9050919050565b7f4552433732313a207472616e7366657220746f20746865207a65726f2061646460008201527f7265737300000000000000000000000000000000000000000000000000000000602082015250565b60006152a4602483613a25565b91506152af82615248565b604082019050919050565b600060208201905081810360008301526152d381615297565b9050919050565b7f4552433939385061757361626c653a206368696c64207472616e73666572207760008201527f68696c6520706175736564000000000000000000000000000000000000000000602082015250565b6000615336602b83613a25565b9150615341826152da565b604082019050919050565b6000602082019050818103600083015261536581615329565b9050919050565b7f4552433939383a20696e73756666696369656e74206368696c642062616c616e60008201527f636520666f72207472616e736665720000000000000000000000000000000000602082015250565b60006153c8602f83613a25565b91506153d38261536c565b604082019050919050565b600060208201905081810360008301526153f7816153bb565b9050919050565b7f4552433732313a206d696e7420746f20746865207a65726f2061646472657373600082015250565b6000615434602083613a25565b915061543f826153fe565b602082019050919050565b6000602082019050818103600083015261546381615427565b9050919050565b7f4552433732313a20746f6b656e20616c7265616479206d696e74656400000000600082015250565b60006154a0601c83613a25565b91506154ab8261546a565b602082019050919050565b600060208201905081810360008301526154cf81615493565b9050919050565b7f4552433732313a20617070726f766520746f2063616c6c657200000000000000600082015250565b600061550c601983613a25565b9150615517826154d6565b602082019050919050565b6000602082019050818103600083015261553b816154ff565b9050919050565b7f4552433732313a207472616e7366657220746f206e6f6e20455243373231526560008201527f63656976657220696d706c656d656e7465720000000000000000000000000000602082015250565b600061559e603283613a25565b91506155a982615542565b604082019050919050565b600060208201905081810360008301526155cd81615591565b9050919050565b7f4e487b7100000000000000000000000000000000000000000000000000000000600052601260045260246000fd5b600061560e82613acc565b915061561983613acc565b925082615629576156286155d4565b5b828204905092915050565b600061563f82613acc565b915061564a83613acc565b92508261565a576156596155d4565b5b828206905092915050565b7f4552433732315061757361626c653a20746f6b656e207472616e73666572207760008201527f68696c6520706175736564000000000000000000000000000000000000000000602082015250565b60006156c1602b83613a25565b91506156cc82615665565b604082019050919050565b600060208201905081810360008301526156f0816156b4565b9050919050565b7f416363657373436f6e74726f6c3a206163636f756e7420000000000000000000600082015250565b600061572d601783615122565b9150615738826156f7565b601782019050919050565b7f206973206d697373696e6720726f6c6520000000000000000000000000000000600082015250565b6000615779601183615122565b915061578482615743565b601182019050919050565b600061579a82615720565b91506157a6828561512d565b91506157b18261576c565b91506157bd828461512d565b91508190509392505050565b7f5061757361626c653a206e6f7420706175736564000000000000000000000000600082015250565b60006157ff601483613a25565b915061580a826157c9565b602082019050919050565b6000602082019050818103600083015261582e816157f2565b9050919050565b7f5061757361626c653a2070617573656400000000000000000000000000000000600082015250565b600061586b601083613a25565b915061587682615835565b602082019050919050565b6000602082019050818103600083015261589a8161585e565b9050919050565b60006080820190506158b66000830187613b61565b6158c36020830186613b61565b6158d060408301856142be565b81810360608301526158e28184614bef565b905095945050505050565b6000815190506158fc8161398b565b92915050565b60006020828403121561591857615917613955565b5b6000615926848285016158ed565b91505092915050565b600061593a82613acc565b915061594583613acc565b925082820261595381613acc565b9150828204841483151761596a57615969614843565b5b5092915050565b600061597c82613acc565b91506000820361598f5761598e614843565b5b600182039050919050565b7f537472696e67733a20686578206c656e67746820696e73756666696369656e74600082015250565b60006159d0602083613a25565b91506159db8261599a565b602082019050919050565b600060208201905081810360008301526159ff816159c3565b9050919050565b7f4e487b7100000000000000000000000000000000000000000000000000000000600052603160045260246000fdfea26469706673582212208a2c46a36321fea3796b5bd37b724dc0767a09bfe157c7f598b662ddccabfc1964736f6c63430008110033",
  "immutableReferences": {},
  "source": "// SPDX-License-Identifier: MIT\r\n\r\npragma solidity ^0.8.0;\r\n\r\n/* import \"https://github.com/OpenZeppelin/openzeppelin-contracts/blob/master/contracts/access/AccessControl.sol\";\r\nimport \"https://github.com/OpenZeppelin/openzeppelin-contracts/blob/master/contracts/GSN/Context.sol\";\r\nimport \"https://github.com/OpenZeppelin/openzeppelin-contracts/blob/master/contracts/utils/Pausable.sol\"; */\r\n\r\nimport \"@openzeppelin/contracts/access/AccessControl.sol\";\r\nimport \"@openzeppelin/contracts/utils/Context.sol\";\r\nimport \"@openzeppelin/contracts/security/Pausable.sol\";\r\n\r\nimport \"./ERC998ERC1155TopDown.sol\";\r\n\r\n/**\r\n * @dev {ERC998} token, including:\r\n *\r\n *  - ability for holders to burn (destroy) their tokens\r\n *  - a minter role that allows for token minting (creation)\r\n *  - a pauser role that allows to stop all token transfers\r\n *\r\n * This contract uses {AccessControl} to lock permissioned functions using the\r\n * different roles - head to its documentation for details.\r\n *\r\n * The account that deploys the contract will be granted the minter and pauser\r\n * roles, as well as the default admin role, which will let it grant both minter\r\n * and pauser roles to other accounts.\r\n */\r\ncontract ERC998ERC1155TopDownPresetMinterPauser is Context, AccessControl, ERC998ERC1155TopDown, Pausable {\r\n    bytes32 public constant MINTER_ROLE = keccak256(\"MINTER_ROLE\");\r\n    bytes32 public constant PAUSER_ROLE = keccak256(\"PAUSER_ROLE\");\r\n\r\n    /**\r\n     * @dev Grants `DEFAULT_ADMIN_ROLE`, `MINTER_ROLE` and `PAUSER_ROLE` to the\r\n     * account that deploys the contract.\r\n     *\r\n     * Token URIs will be autogenerated based on `baseURI` and their token IDs.\r\n     * See {ERC721-tokenURI}.\r\n     */\r\n    constructor(string memory name, string memory symbol, string memory baseURI) public ERC998ERC1155TopDown(name, symbol, baseURI) {\r\n        _setupRole(DEFAULT_ADMIN_ROLE, _msgSender());\r\n        _setupRole(MINTER_ROLE, _msgSender());\r\n        _setupRole(PAUSER_ROLE, _msgSender());\r\n    }\r\n\r\n    /**\r\n     * @dev Creates a new token for `to`. The token URI autogenerated based on\r\n     * the base URI passed at construction and the token ID.\r\n     *\r\n     * See {ERC721-_mint}.\r\n     *\r\n     * Requirements:\r\n     *\r\n     * - the caller must have the `MINTER_ROLE`.\r\n     */\r\n    function mint(address to, uint256 tokenId) public virtual {\r\n        //require(hasRole(MINTER_ROLE, _msgSender()), \"ERC721: must have minter role to mint in ERC998\");\r\n\r\n        // We cannot just use balanceOf to create the new tokenId because tokens\r\n        // can be burned (destroyed), so we need a separate counter.\r\n        _mint(to, tokenId);\r\n    }\r\n\r\n\r\n    /**\r\n     * @dev Burns `tokenId`. See {ERC721-_burn}.\r\n     *\r\n     * Requirements:\r\n     *\r\n     * - The caller must own `tokenId` or be an approved operator.\r\n     */\r\n    function burn(uint256 tokenId) public virtual {\r\n        //solhint-disable-next-line max-line-length\r\n        require(_isApprovedOrOwner(_msgSender(), tokenId), \"ERC721Burnable: caller is not owner nor approved\");\r\n        _burn(tokenId);\r\n    }\r\n\r\n    /**\r\n     * @dev Pauses all token transfers.\r\n     *\r\n     * See {ERC721Pausable} and {Pausable-_pause}.\r\n     *\r\n     * Requirements:\r\n     *\r\n     * - the caller must have the `PAUSER_ROLE`.\r\n     */\r\n    function pause() public virtual {\r\n        require(hasRole(PAUSER_ROLE, _msgSender()), \"ERC721PresetMinterPauserAutoId: must have pauser role to pause\");\r\n        _pause();\r\n    }\r\n\r\n    /**\r\n     * @dev Unpauses all token transfers.\r\n     *\r\n     * See {ERC721Pausable} and {Pausable-_unpause}.\r\n     *\r\n     * Requirements:\r\n     *\r\n     * - the caller must have the `PAUSER_ROLE`.\r\n     */\r\n    function unpause() public virtual {\r\n        require(hasRole(PAUSER_ROLE, _msgSender()), \"ERC721PresetMinterPauserAutoId: must have pauser role to unpause\");\r\n        _unpause();\r\n    }\r\n\r\n    /**\r\n     * @dev See {ERC721-_beforeTokenTransfer}.\r\n     *\r\n     * Requirements:\r\n     *\r\n     * - the contract must not be paused.\r\n     */\r\n    function _beforeTokenTransfer(address from, address to, uint256 tokenId) internal virtual override {\r\n        require(!paused(), \"ERC721Pausable: token transfer while paused\");\r\n\r\n        super._beforeTokenTransfer(from, to, tokenId);\r\n    }\r\n\r\n    function _beforeChildTransfer(\r\n        address operator,\r\n        uint256 fromTokenId,\r\n        address to,\r\n        address childContract,\r\n        uint256[] memory ids,\r\n        uint256[] memory amounts,\r\n        bytes memory data\r\n    )\r\n        internal virtual override\r\n    {\r\n        require(!paused(), \"ERC998Pausable: child transfer while paused\");\r\n\r\n        super._beforeChildTransfer(operator, fromTokenId, to, childContract, ids, amounts, data);\r\n    }\r\n\r\n    function supportsInterface(bytes4 interfaceId) public view virtual override(ERC721, IERC165, AccessControl) returns (bool) {\r\n        return super.supportsInterface(interfaceId);\r\n    }\r\n}\r\n",
  "sourcePath": "C:\\Users\\prami\\Documents\\Thesis\\supp_chain\\truffle\\contracts\\ERC998ERC1155TopDownPresetMinterPauser.sol",
  "compiler": {
    "name": "solc",
    "version": "0.8.17+commit.8df45f5f.Emscripten.clang"
  },
  "schemaVersion": "3.4.10",
  "updatedAt": "2022-10-16T12:33:45.347Z",
  "networkType": "ethereum",
  "devdoc": {
    "details": "{ERC998} token, including:  - ability for holders to burn (destroy) their tokens  - a minter role that allows for token minting (creation)  - a pauser role that allows to stop all token transfers This contract uses {AccessControl} to lock permissioned functions using the different roles - head to its documentation for details. The account that deploys the contract will be granted the minter and pauser roles, as well as the default admin role, which will let it grant both minter and pauser roles to other accounts.",
    "kind": "dev",
    "methods": {
      "approve(address,uint256)": {
        "details": "See {IERC721-approve}."
      },
      "balanceOf(address)": {
        "details": "See {IERC721-balanceOf}."
      },
      "burn(uint256)": {
        "details": "Burns `tokenId`. See {ERC721-_burn}. Requirements: - The caller must own `tokenId` or be an approved operator."
      },
      "childBalance(uint256,address,uint256)": {
        "details": "Gives child balance for a specific child contract and child id ."
      },
      "childContractsFor(uint256)": {
        "details": "Gives list of child contract where token ID has childs."
      },
      "childIdsForOn(uint256,address)": {
        "details": "Gives list of owned child ID on a child contract by token ID."
      },
      "constructor": {
        "details": "Grants `DEFAULT_ADMIN_ROLE`, `MINTER_ROLE` and `PAUSER_ROLE` to the account that deploys the contract. Token URIs will be autogenerated based on `baseURI` and their token IDs. See {ERC721-tokenURI}."
      },
      "getApproved(uint256)": {
        "details": "See {IERC721-getApproved}."
      },
      "getRoleAdmin(bytes32)": {
        "details": "Returns the admin role that controls `role`. See {grantRole} and {revokeRole}. To change a role's admin, use {_setRoleAdmin}."
      },
      "grantRole(bytes32,address)": {
        "details": "Grants `role` to `account`. If `account` had not been already granted `role`, emits a {RoleGranted} event. Requirements: - the caller must have ``role``'s admin role. May emit a {RoleGranted} event."
      },
      "hasRole(bytes32,address)": {
        "details": "Returns `true` if `account` has been granted `role`."
      },
      "isApprovedForAll(address,address)": {
        "details": "See {IERC721-isApprovedForAll}."
      },
      "mint(address,uint256)": {
        "details": "Creates a new token for `to`. The token URI autogenerated based on the base URI passed at construction and the token ID. See {ERC721-_mint}. Requirements: - the caller must have the `MINTER_ROLE`."
      },
      "name()": {
        "details": "See {IERC721Metadata-name}."
      },
      "onERC1155BatchReceived(address,address,uint256[],uint256[],bytes)": {
        "details": "Receives a batch of child tokens, the receiver token ID must be encoded in the field data."
      },
      "onERC1155Received(address,address,uint256,uint256,bytes)": {
        "details": "Receives a child token, the receiver token ID must be encoded in the field data."
      },
      "onERC721Received(address,address,uint256,bytes)": {
        "details": "Receives a child token, the receiver token ID must be encoded in the field data."
      },
      "ownerOf(uint256)": {
        "details": "See {IERC721-ownerOf}."
      },
      "pause()": {
        "details": "Pauses all token transfers. See {ERC721Pausable} and {Pausable-_pause}. Requirements: - the caller must have the `PAUSER_ROLE`."
      },
      "paused()": {
        "details": "Returns true if the contract is paused, and false otherwise."
      },
      "renounceRole(bytes32,address)": {
        "details": "Revokes `role` from the calling account. Roles are often managed via {grantRole} and {revokeRole}: this function's purpose is to provide a mechanism for accounts to lose their privileges if they are compromised (such as when a trusted device is misplaced). If the calling account had been revoked `role`, emits a {RoleRevoked} event. Requirements: - the caller must be `account`. May emit a {RoleRevoked} event."
      },
      "revokeRole(bytes32,address)": {
        "details": "Revokes `role` from `account`. If `account` had been granted `role`, emits a {RoleRevoked} event. Requirements: - the caller must have ``role``'s admin role. May emit a {RoleRevoked} event."
      },
      "safeBatchTransferChildFrom(uint256,address,address,uint256[],uint256[],bytes)": {
        "details": "Transfers batch of child tokens from a token ID."
      },
      "safeTransferChildFrom(uint256,address,address,uint256,uint256,bytes)": {
        "details": "Transfers child token from a token ID."
      },
      "safeTransferFrom(address,address,uint256)": {
        "details": "See {IERC721-safeTransferFrom}."
      },
      "safeTransferFrom(address,address,uint256,bytes)": {
        "details": "See {IERC721-safeTransferFrom}."
      },
      "setApprovalForAll(address,bool)": {
        "details": "See {IERC721-setApprovalForAll}."
      },
      "symbol()": {
        "details": "See {IERC721Metadata-symbol}."
      },
      "tokenURI(uint256)": {
        "details": "See {IERC721Metadata-tokenURI}."
      },
      "transferFrom(address,address,uint256)": {
        "details": "See {IERC721-transferFrom}."
      },
      "unpause()": {
        "details": "Unpauses all token transfers. See {ERC721Pausable} and {Pausable-_unpause}. Requirements: - the caller must have the `PAUSER_ROLE`."
      }
    },
    "version": 1
  },
  "userdoc": {
    "kind": "user",
    "methods": {},
    "version": 1
  }
}