{
  "contractName": "ERC998ERC1155TopDownPresetMinterPauser",
  "abi": [
    {
      "inputs": [
        {
          "internalType": "string",
          "name": "name",
          "type": "string"
        },
        {
          "internalType": "string",
          "name": "symbol",
          "type": "string"
        },
        {
          "internalType": "string",
          "name": "baseURI",
          "type": "string"
        }
      ],
      "stateMutability": "nonpayable",
      "type": "constructor"
    },
    {
      "anonymous": false,
      "inputs": [
        {
          "indexed": true,
          "internalType": "address",
          "name": "owner",
          "type": "address"
        },
        {
          "indexed": true,
          "internalType": "address",
          "name": "approved",
          "type": "address"
        },
        {
          "indexed": true,
          "internalType": "uint256",
          "name": "tokenId",
          "type": "uint256"
        }
      ],
      "name": "Approval",
      "type": "event"
    },
    {
      "anonymous": false,
      "inputs": [
        {
          "indexed": true,
          "internalType": "address",
          "name": "owner",
          "type": "address"
        },
        {
          "indexed": true,
          "internalType": "address",
          "name": "operator",
          "type": "address"
        },
        {
          "indexed": false,
          "internalType": "bool",
          "name": "approved",
          "type": "bool"
        }
      ],
      "name": "ApprovalForAll",
      "type": "event"
    },
    {
      "anonymous": false,
      "inputs": [
        {
          "indexed": false,
          "internalType": "address",
          "name": "account",
          "type": "address"
        }
      ],
      "name": "Paused",
      "type": "event"
    },
    {
      "anonymous": false,
      "inputs": [
        {
          "indexed": true,
          "internalType": "address",
          "name": "from",
          "type": "address"
        },
        {
          "indexed": true,
          "internalType": "uint256",
          "name": "toTokenId",
          "type": "uint256"
        },
        {
          "indexed": true,
          "internalType": "address",
          "name": "childContract",
          "type": "address"
        },
        {
          "indexed": false,
          "internalType": "uint256",
          "name": "childTokenId",
          "type": "uint256"
        },
        {
          "indexed": false,
          "internalType": "uint256",
          "name": "amount",
          "type": "uint256"
        }
      ],
      "name": "ReceivedChild",
      "type": "event"
    },
    {
      "anonymous": false,
      "inputs": [
        {
          "indexed": true,
          "internalType": "bytes32",
          "name": "role",
          "type": "bytes32"
        },
        {
          "indexed": true,
          "internalType": "bytes32",
          "name": "previousAdminRole",
          "type": "bytes32"
        },
        {
          "indexed": true,
          "internalType": "bytes32",
          "name": "newAdminRole",
          "type": "bytes32"
        }
      ],
      "name": "RoleAdminChanged",
      "type": "event"
    },
    {
      "anonymous": false,
      "inputs": [
        {
          "indexed": true,
          "internalType": "bytes32",
          "name": "role",
          "type": "bytes32"
        },
        {
          "indexed": true,
          "internalType": "address",
          "name": "account",
          "type": "address"
        },
        {
          "indexed": true,
          "internalType": "address",
          "name": "sender",
          "type": "address"
        }
      ],
      "name": "RoleGranted",
      "type": "event"
    },
    {
      "anonymous": false,
      "inputs": [
        {
          "indexed": true,
          "internalType": "bytes32",
          "name": "role",
          "type": "bytes32"
        },
        {
          "indexed": true,
          "internalType": "address",
          "name": "account",
          "type": "address"
        },
        {
          "indexed": true,
          "internalType": "address",
          "name": "sender",
          "type": "address"
        }
      ],
      "name": "RoleRevoked",
      "type": "event"
    },
    {
      "anonymous": false,
      "inputs": [
        {
          "indexed": true,
          "internalType": "address",
          "name": "from",
          "type": "address"
        },
        {
          "indexed": true,
          "internalType": "address",
          "name": "to",
          "type": "address"
        },
        {
          "indexed": true,
          "internalType": "uint256",
          "name": "tokenId",
          "type": "uint256"
        }
      ],
      "name": "Transfer",
      "type": "event"
    },
    {
      "anonymous": false,
      "inputs": [
        {
          "indexed": true,
          "internalType": "uint256",
          "name": "fromTokenId",
          "type": "uint256"
        },
        {
          "indexed": true,
          "internalType": "address",
          "name": "to",
          "type": "address"
        },
        {
          "indexed": true,
          "internalType": "address",
          "name": "childContract",
          "type": "address"
        },
        {
          "indexed": false,
          "internalType": "uint256[]",
          "name": "childTokenIds",
          "type": "uint256[]"
        },
        {
          "indexed": false,
          "internalType": "uint256[]",
          "name": "amounts",
          "type": "uint256[]"
        }
      ],
      "name": "TransferBatchChild",
      "type": "event"
    },
    {
      "anonymous": false,
      "inputs": [
        {
          "indexed": true,
          "internalType": "uint256",
          "name": "fromTokenId",
          "type": "uint256"
        },
        {
          "indexed": true,
          "internalType": "address",
          "name": "to",
          "type": "address"
        },
        {
          "indexed": true,
          "internalType": "address",
          "name": "childContract",
          "type": "address"
        },
        {
          "indexed": false,
          "internalType": "uint256",
          "name": "childTokenId",
          "type": "uint256"
        },
        {
          "indexed": false,
          "internalType": "uint256",
          "name": "amount",
          "type": "uint256"
        }
      ],
      "name": "TransferSingleChild",
      "type": "event"
    },
    {
      "anonymous": false,
      "inputs": [
        {
          "indexed": false,
          "internalType": "address",
          "name": "account",
          "type": "address"
        }
      ],
      "name": "Unpaused",
      "type": "event"
    },
    {
      "inputs": [],
      "name": "DEFAULT_ADMIN_ROLE",
      "outputs": [
        {
          "internalType": "bytes32",
          "name": "",
          "type": "bytes32"
        }
      ],
      "stateMutability": "view",
      "type": "function",
      "constant": true
    },
    {
      "inputs": [],
      "name": "MINTER_ROLE",
      "outputs": [
        {
          "internalType": "bytes32",
          "name": "",
          "type": "bytes32"
        }
      ],
      "stateMutability": "view",
      "type": "function",
      "constant": true
    },
    {
      "inputs": [],
      "name": "PAUSER_ROLE",
      "outputs": [
        {
          "internalType": "bytes32",
          "name": "",
          "type": "bytes32"
        }
      ],
      "stateMutability": "view",
      "type": "function",
      "constant": true
    },
    {
      "inputs": [
        {
          "internalType": "uint256",
          "name": "",
          "type": "uint256"
        },
        {
          "internalType": "address",
          "name": "",
          "type": "address"
        },
        {
          "internalType": "uint256",
          "name": "",
          "type": "uint256"
        }
      ],
      "name": "_balances",
      "outputs": [
        {
          "internalType": "uint256",
          "name": "",
          "type": "uint256"
        }
      ],
      "stateMutability": "view",
      "type": "function",
      "constant": true
    },
    {
      "inputs": [
        {
          "internalType": "address",
          "name": "to",
          "type": "address"
        },
        {
          "internalType": "uint256",
          "name": "tokenId",
          "type": "uint256"
        }
      ],
      "name": "approve",
      "outputs": [],
      "stateMutability": "nonpayable",
      "type": "function"
    },
    {
      "inputs": [
        {
          "internalType": "address",
          "name": "owner",
          "type": "address"
        }
      ],
      "name": "balanceOf",
      "outputs": [
        {
          "internalType": "uint256",
          "name": "",
          "type": "uint256"
        }
      ],
      "stateMutability": "view",
      "type": "function",
      "constant": true
    },
    {
      "inputs": [
        {
          "internalType": "uint256",
          "name": "tokenId",
          "type": "uint256"
        },
        {
          "internalType": "address",
          "name": "childContract",
          "type": "address"
        },
        {
          "internalType": "uint256",
          "name": "childTokenId",
          "type": "uint256"
        }
      ],
      "name": "childBalance",
      "outputs": [
        {
          "internalType": "uint256",
          "name": "",
          "type": "uint256"
        }
      ],
      "stateMutability": "view",
      "type": "function",
      "constant": true
    },
    {
      "inputs": [
        {
          "internalType": "uint256",
          "name": "tokenId",
          "type": "uint256"
        }
      ],
      "name": "childContractsFor",
      "outputs": [
        {
          "internalType": "address[]",
          "name": "",
          "type": "address[]"
        }
      ],
      "stateMutability": "view",
      "type": "function",
      "constant": true
    },
    {
      "inputs": [
        {
          "internalType": "uint256",
          "name": "tokenId",
          "type": "uint256"
        },
        {
          "internalType": "address",
          "name": "childContract",
          "type": "address"
        }
      ],
      "name": "childIdsForOn",
      "outputs": [
        {
          "internalType": "uint256[]",
          "name": "",
          "type": "uint256[]"
        }
      ],
      "stateMutability": "view",
      "type": "function",
      "constant": true
    },
    {
      "inputs": [
        {
          "internalType": "uint256",
          "name": "tokenId",
          "type": "uint256"
        }
      ],
      "name": "getApproved",
      "outputs": [
        {
          "internalType": "address",
          "name": "",
          "type": "address"
        }
      ],
      "stateMutability": "view",
      "type": "function",
      "constant": true
    },
    {
      "inputs": [],
      "name": "getMsgSender",
      "outputs": [
        {
          "internalType": "address",
          "name": "",
          "type": "address"
        }
      ],
      "stateMutability": "view",
      "type": "function",
      "constant": true
    },
    {
      "inputs": [
        {
          "internalType": "uint256",
          "name": "tokenID",
          "type": "uint256"
        }
      ],
      "name": "getOwner",
      "outputs": [
        {
          "internalType": "address",
          "name": "",
          "type": "address"
        }
      ],
      "stateMutability": "view",
      "type": "function",
      "constant": true
    },
    {
      "inputs": [
        {
          "internalType": "bytes32",
          "name": "role",
          "type": "bytes32"
        }
      ],
      "name": "getRoleAdmin",
      "outputs": [
        {
          "internalType": "bytes32",
          "name": "",
          "type": "bytes32"
        }
      ],
      "stateMutability": "view",
      "type": "function",
      "constant": true
    },
    {
      "inputs": [
        {
          "internalType": "bytes32",
          "name": "role",
          "type": "bytes32"
        },
        {
          "internalType": "address",
          "name": "account",
          "type": "address"
        }
      ],
      "name": "grantRole",
      "outputs": [],
      "stateMutability": "nonpayable",
      "type": "function"
    },
    {
      "inputs": [
        {
          "internalType": "bytes32",
          "name": "role",
          "type": "bytes32"
        },
        {
          "internalType": "address",
          "name": "account",
          "type": "address"
        }
      ],
      "name": "hasRole",
      "outputs": [
        {
          "internalType": "bool",
          "name": "",
          "type": "bool"
        }
      ],
      "stateMutability": "view",
      "type": "function",
      "constant": true
    },
    {
      "inputs": [
        {
          "internalType": "address",
          "name": "owner",
          "type": "address"
        },
        {
          "internalType": "address",
          "name": "operator",
          "type": "address"
        }
      ],
      "name": "isApprovedForAll",
      "outputs": [
        {
          "internalType": "bool",
          "name": "",
          "type": "bool"
        }
      ],
      "stateMutability": "view",
      "type": "function",
      "constant": true
    },
    {
      "inputs": [],
      "name": "name",
      "outputs": [
        {
          "internalType": "string",
          "name": "",
          "type": "string"
        }
      ],
      "stateMutability": "view",
      "type": "function",
      "constant": true
    },
    {
      "inputs": [
        {
          "internalType": "address",
          "name": "operator",
          "type": "address"
        },
        {
          "internalType": "address",
          "name": "from",
          "type": "address"
        },
        {
          "internalType": "uint256[]",
          "name": "ids",
          "type": "uint256[]"
        },
        {
          "internalType": "uint256[]",
          "name": "values",
          "type": "uint256[]"
        },
        {
          "internalType": "bytes",
          "name": "data",
          "type": "bytes"
        }
      ],
      "name": "onERC1155BatchReceived",
      "outputs": [
        {
          "internalType": "bytes4",
          "name": "",
          "type": "bytes4"
        }
      ],
      "stateMutability": "nonpayable",
      "type": "function"
    },
    {
      "inputs": [
        {
          "internalType": "address",
          "name": "operator",
          "type": "address"
        },
        {
          "internalType": "address",
          "name": "from",
          "type": "address"
        },
        {
          "internalType": "uint256",
          "name": "id",
          "type": "uint256"
        },
        {
          "internalType": "uint256",
          "name": "amount",
          "type": "uint256"
        },
        {
          "internalType": "bytes",
          "name": "data",
          "type": "bytes"
        }
      ],
      "name": "onERC1155Received",
      "outputs": [
        {
          "internalType": "bytes4",
          "name": "",
          "type": "bytes4"
        }
      ],
      "stateMutability": "nonpayable",
      "type": "function"
    },
    {
      "inputs": [
        {
          "internalType": "address",
          "name": "operator",
          "type": "address"
        },
        {
          "internalType": "address",
          "name": "from",
          "type": "address"
        },
        {
          "internalType": "uint256",
          "name": "tokenId",
          "type": "uint256"
        },
        {
          "internalType": "bytes",
          "name": "data",
          "type": "bytes"
        }
      ],
      "name": "onERC721Received",
      "outputs": [
        {
          "internalType": "bytes4",
          "name": "",
          "type": "bytes4"
        }
      ],
      "stateMutability": "nonpayable",
      "type": "function"
    },
    {
      "inputs": [
        {
          "internalType": "uint256",
          "name": "tokenId",
          "type": "uint256"
        }
      ],
      "name": "ownerOf",
      "outputs": [
        {
          "internalType": "address",
          "name": "",
          "type": "address"
        }
      ],
      "stateMutability": "view",
      "type": "function",
      "constant": true
    },
    {
      "inputs": [],
      "name": "paused",
      "outputs": [
        {
          "internalType": "bool",
          "name": "",
          "type": "bool"
        }
      ],
      "stateMutability": "view",
      "type": "function",
      "constant": true
    },
    {
      "inputs": [
        {
          "internalType": "bytes32",
          "name": "role",
          "type": "bytes32"
        },
        {
          "internalType": "address",
          "name": "account",
          "type": "address"
        }
      ],
      "name": "renounceRole",
      "outputs": [],
      "stateMutability": "nonpayable",
      "type": "function"
    },
    {
      "inputs": [
        {
          "internalType": "bytes32",
          "name": "role",
          "type": "bytes32"
        },
        {
          "internalType": "address",
          "name": "account",
          "type": "address"
        }
      ],
      "name": "revokeRole",
      "outputs": [],
      "stateMutability": "nonpayable",
      "type": "function"
    },
    {
      "inputs": [
        {
          "internalType": "uint256",
          "name": "fromTokenId",
          "type": "uint256"
        },
        {
          "internalType": "address",
          "name": "to",
          "type": "address"
        },
        {
          "internalType": "address",
          "name": "childContract",
          "type": "address"
        },
        {
          "internalType": "uint256[]",
          "name": "childTokenIds",
          "type": "uint256[]"
        },
        {
          "internalType": "uint256[]",
          "name": "amounts",
          "type": "uint256[]"
        },
        {
          "internalType": "bytes",
          "name": "data",
          "type": "bytes"
        }
      ],
      "name": "safeBatchTransferChildFrom",
      "outputs": [],
      "stateMutability": "nonpayable",
      "type": "function"
    },
    {
      "inputs": [
        {
          "internalType": "uint256",
          "name": "fromTokenId",
          "type": "uint256"
        },
        {
          "internalType": "address",
          "name": "to",
          "type": "address"
        },
        {
          "internalType": "address",
          "name": "childContract",
          "type": "address"
        },
        {
          "internalType": "uint256",
          "name": "childTokenId",
          "type": "uint256"
        },
        {
          "internalType": "uint256",
          "name": "amount",
          "type": "uint256"
        },
        {
          "internalType": "bytes",
          "name": "data",
          "type": "bytes"
        }
      ],
      "name": "safeTransferChildFrom",
      "outputs": [],
      "stateMutability": "nonpayable",
      "type": "function"
    },
    {
      "inputs": [
        {
          "internalType": "address",
          "name": "from",
          "type": "address"
        },
        {
          "internalType": "address",
          "name": "to",
          "type": "address"
        },
        {
          "internalType": "uint256",
          "name": "tokenId",
          "type": "uint256"
        }
      ],
      "name": "safeTransferFrom",
      "outputs": [],
      "stateMutability": "nonpayable",
      "type": "function"
    },
    {
      "inputs": [
        {
          "internalType": "address",
          "name": "from",
          "type": "address"
        },
        {
          "internalType": "address",
          "name": "to",
          "type": "address"
        },
        {
          "internalType": "uint256",
          "name": "tokenId",
          "type": "uint256"
        },
        {
          "internalType": "bytes",
          "name": "data",
          "type": "bytes"
        }
      ],
      "name": "safeTransferFrom",
      "outputs": [],
      "stateMutability": "nonpayable",
      "type": "function"
    },
    {
      "inputs": [
        {
          "internalType": "address",
          "name": "operator",
          "type": "address"
        },
        {
          "internalType": "bool",
          "name": "approved",
          "type": "bool"
        }
      ],
      "name": "setApprovalForAll",
      "outputs": [],
      "stateMutability": "nonpayable",
      "type": "function"
    },
    {
      "inputs": [],
      "name": "symbol",
      "outputs": [
        {
          "internalType": "string",
          "name": "",
          "type": "string"
        }
      ],
      "stateMutability": "view",
      "type": "function",
      "constant": true
    },
    {
      "inputs": [
        {
          "internalType": "uint256",
          "name": "tokenId",
          "type": "uint256"
        }
      ],
      "name": "tokenURI",
      "outputs": [
        {
          "internalType": "string",
          "name": "",
          "type": "string"
        }
      ],
      "stateMutability": "view",
      "type": "function",
      "constant": true
    },
    {
      "inputs": [
        {
          "internalType": "address",
          "name": "from",
          "type": "address"
        },
        {
          "internalType": "address",
          "name": "to",
          "type": "address"
        },
        {
          "internalType": "uint256",
          "name": "tokenId",
          "type": "uint256"
        }
      ],
      "name": "transferFrom",
      "outputs": [],
      "stateMutability": "nonpayable",
      "type": "function"
    },
    {
      "inputs": [
        {
          "internalType": "address",
          "name": "to",
          "type": "address"
        },
        {
          "internalType": "uint256",
          "name": "tokenId",
          "type": "uint256"
        }
      ],
      "name": "mint",
      "outputs": [],
      "stateMutability": "nonpayable",
      "type": "function"
    },
    {
      "inputs": [
        {
          "internalType": "uint256",
          "name": "tokenId",
          "type": "uint256"
        }
      ],
      "name": "burn",
      "outputs": [],
      "stateMutability": "nonpayable",
      "type": "function"
    },
    {
      "inputs": [],
      "name": "pause",
      "outputs": [],
      "stateMutability": "nonpayable",
      "type": "function"
    },
    {
      "inputs": [],
      "name": "unpause",
      "outputs": [],
      "stateMutability": "nonpayable",
      "type": "function"
    },
    {
      "inputs": [
        {
          "internalType": "bytes4",
          "name": "interfaceId",
          "type": "bytes4"
        }
      ],
      "name": "supportsInterface",
      "outputs": [
        {
          "internalType": "bool",
          "name": "",
          "type": "bool"
        }
      ],
      "stateMutability": "view",
      "type": "function",
      "constant": true
    }
  ],
  "bytecode": "0x60806040523480156200001157600080fd5b506040516200618538038062006185833981810160405281019062000037919062000463565b828282828281600190816200004d919062000767565b5080600290816200005f919062000767565b505050620000726200014060201b60201c565b505050506000600b60006101000a81548160ff021916908315150217905550620000b56000801b620000a96200015760201b60201c565b6200015f60201b60201c565b620000f67f9f2df0fed2c77648de5860a4cc508cd0818c85b8b8a1ab4ceeef8d981c8956a6620000ea6200015760201b60201c565b6200015f60201b60201c565b620001377f65d7a28e3265b37a6474929f336521b332c1681b933f6cb9f3376673440d862a6200012b6200015760201b60201c565b6200015f60201b60201c565b5050506200084e565b606060405180602001604052806000815250905090565b600033905090565b6200017182826200017560201b60201c565b5050565b6200018782826200026660201b60201c565b6200026257600160008084815260200190815260200160002060000160008373ffffffffffffffffffffffffffffffffffffffff1673ffffffffffffffffffffffffffffffffffffffff16815260200190815260200160002060006101000a81548160ff021916908315150217905550620002076200015760201b60201c565b73ffffffffffffffffffffffffffffffffffffffff168173ffffffffffffffffffffffffffffffffffffffff16837f2f8788117e7eff1d82e926ec794901d17c78024a50270940304540a733656f0d60405160405180910390a45b5050565b600080600084815260200190815260200160002060000160008373ffffffffffffffffffffffffffffffffffffffff1673ffffffffffffffffffffffffffffffffffffffff16815260200190815260200160002060009054906101000a900460ff16905092915050565b6000604051905090565b600080fd5b600080fd5b600080fd5b600080fd5b6000601f19601f8301169050919050565b7f4e487b7100000000000000000000000000000000000000000000000000000000600052604160045260246000fd5b6200033982620002ee565b810181811067ffffffffffffffff821117156200035b576200035a620002ff565b5b80604052505050565b600062000370620002d0565b90506200037e82826200032e565b919050565b600067ffffffffffffffff821115620003a157620003a0620002ff565b5b620003ac82620002ee565b9050602081019050919050565b60005b83811015620003d9578082015181840152602081019050620003bc565b60008484015250505050565b6000620003fc620003f68462000383565b62000364565b9050828152602081018484840111156200041b576200041a620002e9565b5b62000428848285620003b9565b509392505050565b600082601f830112620004485762000447620002e4565b5b81516200045a848260208601620003e5565b91505092915050565b6000806000606084860312156200047f576200047e620002da565b5b600084015167ffffffffffffffff811115620004a0576200049f620002df565b5b620004ae8682870162000430565b935050602084015167ffffffffffffffff811115620004d257620004d1620002df565b5b620004e08682870162000430565b925050604084015167ffffffffffffffff811115620005045762000503620002df565b5b620005128682870162000430565b9150509250925092565b600081519050919050565b7f4e487b7100000000000000000000000000000000000000000000000000000000600052602260045260246000fd5b600060028204905060018216806200056f57607f821691505b60208210810362000585576200058462000527565b5b50919050565b60008190508160005260206000209050919050565b60006020601f8301049050919050565b600082821b905092915050565b600060088302620005ef7fffffffffffffffffffffffffffffffffffffffffffffffffffffffffffffffff82620005b0565b620005fb8683620005b0565b95508019841693508086168417925050509392505050565b6000819050919050565b6000819050919050565b600062000648620006426200063c8462000613565b6200061d565b62000613565b9050919050565b6000819050919050565b620006648362000627565b6200067c62000673826200064f565b848454620005bd565b825550505050565b600090565b6200069362000684565b620006a081848462000659565b505050565b5b81811015620006c857620006bc60008262000689565b600181019050620006a6565b5050565b601f8211156200071757620006e1816200058b565b620006ec84620005a0565b81016020851015620006fc578190505b620007146200070b85620005a0565b830182620006a5565b50505b505050565b600082821c905092915050565b60006200073c600019846008026200071c565b1980831691505092915050565b600062000757838362000729565b9150826002028217905092915050565b62000772826200051c565b67ffffffffffffffff8111156200078e576200078d620002ff565b5b6200079a825462000556565b620007a7828285620006cc565b600060209050601f831160018114620007df5760008415620007ca578287015190505b620007d6858262000749565b86555062000846565b601f198416620007ef866200058b565b60005b828110156200081957848901518255600182019150602085019450602081019050620007f2565b8683101562000839578489015162000835601f89168262000729565b8355505b6001600288020188555050505b505050505050565b615927806200085e6000396000f3fe608060405234801561001057600080fd5b50600436106102275760003560e01c80636352211e11610130578063b88d4fde116100b8578063d547741f1161007c578063d547741f14610698578063e63ab1e9146106b4578063e985e9c5146106d2578063eeaf2f0914610702578063f23a6e611461073257610227565b8063b88d4fde146105ce578063bc197c81146105ea578063c41a360a1461061a578063c87b56dd1461064a578063d53913931461067a57610227565b806389e7e2f2116100ff57806389e7e2f21461051657806391d148541461054657806395d89b4114610576578063a217fddf14610594578063a22cb465146105b257610227565b80636352211e1461048e57806370a08231146104be5780637a6ce2e1146104ee5780638456cb591461050c57610227565b806332085b65116101b357806342842e0e1161018257806342842e0e146103ec57806342966c681461040857806342cf6e74146104245780635c975abb1461044057806360d4d23a1461045e57610227565b806332085b651461038e57806336568abe146103aa5780633f4ba83a146103c657806340c10f19146103d057610227565b8063150b7a02116101fa578063150b7a02146102c657806323b872dd146102f6578063248a9ca3146103125780632676608c146103425780632f2ff15d1461037257610227565b806301ffc9a71461022c57806306fdde031461025c578063081812fc1461027a578063095ea7b3146102aa575b600080fd5b610246600480360381019061024191906138e1565b610762565b6040516102539190613929565b60405180910390f35b610264610774565b60405161027191906139d4565b60405180910390f35b610294600480360381019061028f9190613a2c565b610806565b6040516102a19190613a9a565b60405180910390f35b6102c460048036038101906102bf9190613ae1565b61084c565b005b6102e060048036038101906102db9190613c56565b610963565b6040516102ed9190613ce8565b60405180910390f35b610310600480360381019061030b9190613d03565b610977565b005b61032c60048036038101906103279190613d8c565b6109d7565b6040516103399190613dc8565b60405180910390f35b61035c60048036038101906103579190613de3565b6109f6565b6040516103699190613ee1565b60405180910390f35b61038c60048036038101906103879190613f03565b610b9d565b005b6103a860048036038101906103a3919061400b565b610bbe565b005b6103c460048036038101906103bf9190613f03565b610e69565b005b6103ce610eec565b005b6103ea60048036038101906103e59190613ae1565b610f66565b005b61040660048036038101906104019190613d03565b610f74565b005b610422600480360381019061041d9190613a2c565b610f94565b005b61043e600480360381019061043991906140ec565b610ff0565b005b610448611209565b6040516104559190613929565b60405180910390f35b61047860048036038101906104739190614195565b611220565b60405161048591906141f7565b60405180910390f35b6104a860048036038101906104a39190613a2c565b61128d565b6040516104b59190613a9a565b60405180910390f35b6104d860048036038101906104d39190614212565b61133e565b6040516104e591906141f7565b60405180910390f35b6104f66113f5565b6040516105039190613a9a565b60405180910390f35b610514611404565b005b610530600480360381019061052b9190613a2c565b61147e565b60405161053d91906142fd565b60405180910390f35b610560600480360381019061055b9190613f03565b61159b565b60405161056d9190613929565b60405180910390f35b61057e611605565b60405161058b91906139d4565b60405180910390f35b61059c611697565b6040516105a99190613dc8565b60405180910390f35b6105cc60048036038101906105c7919061434b565b61169e565b005b6105e860048036038101906105e39190613c56565b6116b4565b005b61060460048036038101906105ff919061438b565b611716565b6040516106119190613ce8565b60405180910390f35b610634600480360381019061062f9190613a2c565b6118db565b6040516106419190613a9a565b60405180910390f35b610664600480360381019061065f9190613a2c565b6118ed565b60405161067191906139d4565b60405180910390f35b610682611955565b60405161068f9190613dc8565b60405180910390f35b6106b260048036038101906106ad9190613f03565b611979565b005b6106bc61199a565b6040516106c99190613dc8565b60405180910390f35b6106ec60048036038101906106e7919061445a565b6119be565b6040516106f99190613929565b60405180910390f35b61071c60048036038101906107179190614195565b611a52565b60405161072991906141f7565b60405180910390f35b61074c6004803603810190610747919061449a565b611a84565b6040516107599190613ce8565b60405180910390f35b600061076d82611b8d565b9050919050565b60606001805461078390614560565b80601f01602080910402602001604051908101604052809291908181526020018280546107af90614560565b80156107fc5780601f106107d1576101008083540402835291602001916107fc565b820191906000526020600020905b8154815290600101906020018083116107df57829003601f168201915b5050505050905090565b600061081182611c6f565b6005600083815260200190815260200160002060009054906101000a900473ffffffffffffffffffffffffffffffffffffffff169050919050565b60006108578261128d565b90508073ffffffffffffffffffffffffffffffffffffffff168373ffffffffffffffffffffffffffffffffffffffff16036108c7576040517f08c379a00000000000000000000000000000000000000000000000000000000081526004016108be90614603565b60405180910390fd5b8073ffffffffffffffffffffffffffffffffffffffff166108e6611cba565b73ffffffffffffffffffffffffffffffffffffffff16148061091557506109148161090f611cba565b6119be565b5b610954576040517f08c379a000000000000000000000000000000000000000000000000000000000815260040161094b90614695565b60405180910390fd5b61095e8383611cc2565b505050565b600063150b7a0260e01b9050949350505050565b610988610982611cba565b82611d7b565b6109c7576040517f08c379a00000000000000000000000000000000000000000000000000000000081526004016109be90614727565b60405180910390fd5b6109d2838383611e10565b505050565b6000806000838152602001908152602001600020600101549050919050565b60606000610a52600a600086815260200190815260200160002060008573ffffffffffffffffffffffffffffffffffffffff1673ffffffffffffffffffffffffffffffffffffffff168152602001908152602001600020612076565b67ffffffffffffffff811115610a6b57610a6a613b2b565b5b604051908082528060200260200182016040528015610a995781602001602082028036833780820191505090505b50905060005b610af7600a600087815260200190815260200160002060008673ffffffffffffffffffffffffffffffffffffffff1673ffffffffffffffffffffffffffffffffffffffff168152602001908152602001600020612076565b811015610b9257610b6081600a600088815260200190815260200160002060008773ffffffffffffffffffffffffffffffffffffffff1673ffffffffffffffffffffffffffffffffffffffff16815260200190815260200160002061208b90919063ffffffff16565b828281518110610b7357610b72614747565b5b6020026020010181815250508080610b8a906147a5565b915050610a9f565b508091505092915050565b610ba6826109d7565b610baf816120a5565b610bb983836120b9565b505050565b8151835114610c02576040517f08c379a0000000000000000000000000000000000000000000000000000000008152600401610bf99061485f565b60405180910390fd5b600073ffffffffffffffffffffffffffffffffffffffff168573ffffffffffffffffffffffffffffffffffffffff1603610c71576040517f08c379a0000000000000000000000000000000000000000000000000000000008152600401610c68906148f1565b60405180910390fd5b6000610c7b611cba565b90508073ffffffffffffffffffffffffffffffffffffffff16610c9d8861128d565b73ffffffffffffffffffffffffffffffffffffffff161480610ccd5750610ccc610cc68861128d565b826119be565b5b610d0c576040517f08c379a0000000000000000000000000000000000000000000000000000000008152600401610d0390614983565b60405180910390fd5b610d1b81888888888888612199565b60005b8451811015610d84576000858281518110610d3c57610d3b614747565b5b602002602001015190506000858381518110610d5b57610d5a614747565b5b60200260200101519050610d718a8984846121f9565b505080610d7d906147a5565b9050610d1e565b508473ffffffffffffffffffffffffffffffffffffffff16632eb2c2d630888787876040518663ffffffff1660e01b8152600401610dc69594939291906149f8565b600060405180830381600087803b158015610de057600080fd5b505af1158015610df4573d6000803e3d6000fd5b505050508473ffffffffffffffffffffffffffffffffffffffff168673ffffffffffffffffffffffffffffffffffffffff16887f5572be9c1bc39e4e277a34f64ccd0e84456dac3f33b0b1c458c12c402c6326a98787604051610e58929190614a60565b60405180910390a450505050505050565b610e71611cba565b73ffffffffffffffffffffffffffffffffffffffff168173ffffffffffffffffffffffffffffffffffffffff1614610ede576040517f08c379a0000000000000000000000000000000000000000000000000000000008152600401610ed590614b09565b60405180910390fd5b610ee882826124dd565b5050565b610f1d7f65d7a28e3265b37a6474929f336521b332c1681b933f6cb9f3376673440d862a610f18611cba565b61159b565b610f5c576040517f08c379a0000000000000000000000000000000000000000000000000000000008152600401610f5390614b9b565b60405180910390fd5b610f646125be565b565b610f708282612621565b5050565b610f8f838383604051806020016040528060008152506116b4565b505050565b610fa5610f9f611cba565b82611d7b565b610fe4576040517f08c379a0000000000000000000000000000000000000000000000000000000008152600401610fdb90614c2d565b60405180910390fd5b610fed816127fa565b50565b600073ffffffffffffffffffffffffffffffffffffffff168573ffffffffffffffffffffffffffffffffffffffff160361105f576040517f08c379a0000000000000000000000000000000000000000000000000000000008152600401611056906148f1565b60405180910390fd5b6000611069611cba565b90508073ffffffffffffffffffffffffffffffffffffffff1661108b8861128d565b73ffffffffffffffffffffffffffffffffffffffff1614806110bb57506110ba6110b48861128d565b826119be565b5b6110fa576040517f08c379a00000000000000000000000000000000000000000000000000000000081526004016110f190614983565b60405180910390fd5b6111198188888861110a89612917565b61111389612917565b88612199565b611125878686866121f9565b8473ffffffffffffffffffffffffffffffffffffffff1663f242432a30888787876040518663ffffffff1660e01b8152600401611166959493929190614c4d565b600060405180830381600087803b15801561118057600080fd5b505af1158015611194573d6000803e3d6000fd5b505050508473ffffffffffffffffffffffffffffffffffffffff168673ffffffffffffffffffffffffffffffffffffffff16887f9d6259404dec52b3d5d220f5b8e5d05cc05ec908e1bc320aa46793e3091e519487876040516111f8929190614ca7565b60405180910390a450505050505050565b6000600b60009054906101000a900460ff16905090565b60006007600085815260200190815260200160002060008473ffffffffffffffffffffffffffffffffffffffff1673ffffffffffffffffffffffffffffffffffffffff16815260200190815260200160002060008381526020019081526020016000205490509392505050565b6000806003600084815260200190815260200160002060009054906101000a900473ffffffffffffffffffffffffffffffffffffffff169050600073ffffffffffffffffffffffffffffffffffffffff168173ffffffffffffffffffffffffffffffffffffffff1603611335576040517f08c379a000000000000000000000000000000000000000000000000000000000815260040161132c90614d1c565b60405180910390fd5b80915050919050565b60008073ffffffffffffffffffffffffffffffffffffffff168273ffffffffffffffffffffffffffffffffffffffff16036113ae576040517f08c379a00000000000000000000000000000000000000000000000000000000081526004016113a590614dae565b60405180910390fd5b600460008373ffffffffffffffffffffffffffffffffffffffff1673ffffffffffffffffffffffffffffffffffffffff168152602001908152602001600020549050919050565b60006113ff611cba565b905090565b6114357f65d7a28e3265b37a6474929f336521b332c1681b933f6cb9f3376673440d862a611430611cba565b61159b565b611474576040517f08c379a000000000000000000000000000000000000000000000000000000000815260040161146b90614e40565b60405180910390fd5b61147c612991565b565b6060600061149d600960008581526020019081526020016000206129f4565b67ffffffffffffffff8111156114b6576114b5613b2b565b5b6040519080825280602002602001820160405280156114e45781602001602082028036833780820191505090505b50905060005b611505600960008681526020019081526020016000206129f4565b811015611591576115318160096000878152602001908152602001600020612a0990919063ffffffff16565b82828151811061154457611543614747565b5b602002602001019073ffffffffffffffffffffffffffffffffffffffff16908173ffffffffffffffffffffffffffffffffffffffff16815250508080611589906147a5565b9150506114ea565b5080915050919050565b600080600084815260200190815260200160002060000160008373ffffffffffffffffffffffffffffffffffffffff1673ffffffffffffffffffffffffffffffffffffffff16815260200190815260200160002060009054906101000a900460ff16905092915050565b60606002805461161490614560565b80601f016020809104026020016040519081016040528092919081815260200182805461164090614560565b801561168d5780601f106116625761010080835404028352916020019161168d565b820191906000526020600020905b81548152906001019060200180831161167057829003601f168201915b5050505050905090565b6000801b81565b6116b06116a9611cba565b8383612a23565b5050565b6116c56116bf611cba565b83611d7b565b611704576040517f08c379a00000000000000000000000000000000000000000000000000000000081526004016116fb90614727565b60405180910390fd5b61171084848484612b8f565b50505050565b6000602082511461175c576040517f08c379a000000000000000000000000000000000000000000000000000000000815260040161175390614ef8565b60405180910390fd5b82518451146117a0576040517f08c379a000000000000000000000000000000000000000000000000000000000815260040161179790614f8a565b60405180910390fd5b6117b08660003088888888612199565b600080602060003690506117c49190614faa565b90508035915060005b86518110156118c55761181683338984815181106117ee576117ed614747565b5b602002602001015189858151811061180957611808614747565b5b6020026020010151612beb565b3373ffffffffffffffffffffffffffffffffffffffff16838973ffffffffffffffffffffffffffffffffffffffff167fa18753b0660a8be2cdae03468c860b47c2926433ab16917f323544652803032d8a858151811061187957611878614747565b5b60200260200101518a868151811061189457611893614747565b5b60200260200101516040516118aa929190614ca7565b60405180910390a480806118bd906147a5565b9150506117cd565b5063bc197c8160e01b9250505095945050505050565b60006118e68261128d565b9050919050565b60606118f882611c6f565b6000611902612d86565b90506000815111611922576040518060200160405280600081525061194d565b8061192c84612d9d565b60405160200161193d92919061501a565b6040516020818303038152906040525b915050919050565b7f9f2df0fed2c77648de5860a4cc508cd0818c85b8b8a1ab4ceeef8d981c8956a681565b611982826109d7565b61198b816120a5565b61199583836124dd565b505050565b7f65d7a28e3265b37a6474929f336521b332c1681b933f6cb9f3376673440d862a81565b6000600660008473ffffffffffffffffffffffffffffffffffffffff1673ffffffffffffffffffffffffffffffffffffffff16815260200190815260200160002060008373ffffffffffffffffffffffffffffffffffffffff1673ffffffffffffffffffffffffffffffffffffffff16815260200190815260200160002060009054906101000a900460ff16905092915050565b600760205282600052604060002060205281600052604060002060205280600052604060002060009250925050505481565b60006020825114611aca576040517f08c379a0000000000000000000000000000000000000000000000000000000008152600401611ac190614ef8565b60405180910390fd5b611aea8660003088611adb89612917565b611ae489612917565b88612199565b60008060206000369050611afe9190614faa565b905080359150611b1082338888612beb565b3373ffffffffffffffffffffffffffffffffffffffff16828873ffffffffffffffffffffffffffffffffffffffff167fa18753b0660a8be2cdae03468c860b47c2926433ab16917f323544652803032d8989604051611b70929190614ca7565b60405180910390a463f23a6e6160e01b9250505095945050505050565b60007f80ac58cd000000000000000000000000000000000000000000000000000000007bffffffffffffffffffffffffffffffffffffffffffffffffffffffff1916827bffffffffffffffffffffffffffffffffffffffffffffffffffffffff19161480611c5857507f5b5e139f000000000000000000000000000000000000000000000000000000007bffffffffffffffffffffffffffffffffffffffffffffffffffffffff1916827bffffffffffffffffffffffffffffffffffffffffffffffffffffffff1916145b80611c685750611c6782612efd565b5b9050919050565b611c7881612f77565b611cb7576040517f08c379a0000000000000000000000000000000000000000000000000000000008152600401611cae90614d1c565b60405180910390fd5b50565b600033905090565b816005600083815260200190815260200160002060006101000a81548173ffffffffffffffffffffffffffffffffffffffff021916908373ffffffffffffffffffffffffffffffffffffffff160217905550808273ffffffffffffffffffffffffffffffffffffffff16611d358361128d565b73ffffffffffffffffffffffffffffffffffffffff167f8c5be1e5ebec7d5bd14f71427d1e84f3dd0314c0f7b2291e5b200ac8c7c3b92560405160405180910390a45050565b600080611d878361128d565b90508073ffffffffffffffffffffffffffffffffffffffff168473ffffffffffffffffffffffffffffffffffffffff161480611dc95750611dc881856119be565b5b80611e0757508373ffffffffffffffffffffffffffffffffffffffff16611def84610806565b73ffffffffffffffffffffffffffffffffffffffff16145b91505092915050565b8273ffffffffffffffffffffffffffffffffffffffff16611e308261128d565b73ffffffffffffffffffffffffffffffffffffffff1614611e86576040517f08c379a0000000000000000000000000000000000000000000000000000000008152600401611e7d906150b0565b60405180910390fd5b600073ffffffffffffffffffffffffffffffffffffffff168273ffffffffffffffffffffffffffffffffffffffff1603611ef5576040517f08c379a0000000000000000000000000000000000000000000000000000000008152600401611eec90615142565b60405180910390fd5b611f00838383612fe3565b611f0b600082611cc2565b6001600460008573ffffffffffffffffffffffffffffffffffffffff1673ffffffffffffffffffffffffffffffffffffffff1681526020019081526020016000206000828254611f5b9190614faa565b925050819055506001600460008473ffffffffffffffffffffffffffffffffffffffff1673ffffffffffffffffffffffffffffffffffffffff1681526020019081526020016000206000828254611fb29190615162565b92505081905550816003600083815260200190815260200160002060006101000a81548173ffffffffffffffffffffffffffffffffffffffff021916908373ffffffffffffffffffffffffffffffffffffffff160217905550808273ffffffffffffffffffffffffffffffffffffffff168473ffffffffffffffffffffffffffffffffffffffff167fddf252ad1be2c89b69c2b068fc378daa952ba7f163c4a11628f55a4df523b3ef60405160405180910390a461207183838361303b565b505050565b600061208482600001613040565b9050919050565b600061209a8360000183613051565b60001c905092915050565b6120b6816120b1611cba565b61307c565b50565b6120c3828261159b565b61219557600160008084815260200190815260200160002060000160008373ffffffffffffffffffffffffffffffffffffffff1673ffffffffffffffffffffffffffffffffffffffff16815260200190815260200160002060006101000a81548160ff02191690831515021790555061213a611cba565b73ffffffffffffffffffffffffffffffffffffffff168173ffffffffffffffffffffffffffffffffffffffff16837f2f8788117e7eff1d82e926ec794901d17c78024a50270940304540a733656f0d60405160405180910390a45b5050565b6121a1611209565b156121e1576040517f08c379a00000000000000000000000000000000000000000000000000000000081526004016121d890615208565b60405180910390fd5b6121f087878787878787613119565b50505050505050565b60008114158061226a5750806007600086815260200190815260200160002060008573ffffffffffffffffffffffffffffffffffffffff1673ffffffffffffffffffffffffffffffffffffffff16815260200190815260200160002060008481526020019081526020016000205410155b6122a9576040517f08c379a00000000000000000000000000000000000000000000000000000000081526004016122a09061529a565b60405180910390fd5b806007600086815260200190815260200160002060008573ffffffffffffffffffffffffffffffffffffffff1673ffffffffffffffffffffffffffffffffffffffff1681526020019081526020016000206000848152602001908152602001600020600082825461231a9190614faa565b9250508190555060006007600086815260200190815260200160002060008573ffffffffffffffffffffffffffffffffffffffff1673ffffffffffffffffffffffffffffffffffffffff168152602001908152602001600020600084815260200190815260200160002054036124d7576123ec84600860008673ffffffffffffffffffffffffffffffffffffffff1673ffffffffffffffffffffffffffffffffffffffff168152602001908152602001600020600085815260200190815260200160002061312290919063ffffffff16565b5061244f82600a600087815260200190815260200160002060008673ffffffffffffffffffffffffffffffffffffffff1673ffffffffffffffffffffffffffffffffffffffff16815260200190815260200160002061312290919063ffffffff16565b5060006124aa600a600087815260200190815260200160002060008673ffffffffffffffffffffffffffffffffffffffff1673ffffffffffffffffffffffffffffffffffffffff168152602001908152602001600020612076565b036124d6576124d4836009600087815260200190815260200160002061313c90919063ffffffff16565b505b5b50505050565b6124e7828261159b565b156125ba57600080600084815260200190815260200160002060000160008373ffffffffffffffffffffffffffffffffffffffff1673ffffffffffffffffffffffffffffffffffffffff16815260200190815260200160002060006101000a81548160ff02191690831515021790555061255f611cba565b73ffffffffffffffffffffffffffffffffffffffff168173ffffffffffffffffffffffffffffffffffffffff16837ff6391f5c32d9c69d2a47ea670b442974b53935d1edc7fd64eb21e047a839171b60405160405180910390a45b5050565b6125c661316c565b6000600b60006101000a81548160ff0219169083151502179055507f5db9ee0a495bf2e6ff9c91a7834c1ba4fdd244a5e8aa4e537bd38aeae4b073aa61260a611cba565b6040516126179190613a9a565b60405180910390a1565b600073ffffffffffffffffffffffffffffffffffffffff168273ffffffffffffffffffffffffffffffffffffffff1603612690576040517f08c379a000000000000000000000000000000000000000000000000000000000815260040161268790615306565b60405180910390fd5b61269981612f77565b156126d9576040517f08c379a00000000000000000000000000000000000000000000000000000000081526004016126d090615372565b60405180910390fd5b6126e560008383612fe3565b6001600460008473ffffffffffffffffffffffffffffffffffffffff1673ffffffffffffffffffffffffffffffffffffffff16815260200190815260200160002060008282546127359190615162565b92505081905550816003600083815260200190815260200160002060006101000a81548173ffffffffffffffffffffffffffffffffffffffff021916908373ffffffffffffffffffffffffffffffffffffffff160217905550808273ffffffffffffffffffffffffffffffffffffffff16600073ffffffffffffffffffffffffffffffffffffffff167fddf252ad1be2c89b69c2b068fc378daa952ba7f163c4a11628f55a4df523b3ef60405160405180910390a46127f66000838361303b565b5050565b60006128058261128d565b905061281381600084612fe3565b61281e600083611cc2565b6001600460008373ffffffffffffffffffffffffffffffffffffffff1673ffffffffffffffffffffffffffffffffffffffff168152602001908152602001600020600082825461286e9190614faa565b925050819055506003600083815260200190815260200160002060006101000a81549073ffffffffffffffffffffffffffffffffffffffff021916905581600073ffffffffffffffffffffffffffffffffffffffff168273ffffffffffffffffffffffffffffffffffffffff167fddf252ad1be2c89b69c2b068fc378daa952ba7f163c4a11628f55a4df523b3ef60405160405180910390a46129138160008461303b565b5050565b60606000600167ffffffffffffffff81111561293657612935613b2b565b5b6040519080825280602002602001820160405280156129645781602001602082028036833780820191505090505b509050828160008151811061297c5761297b614747565b5b60200260200101818152505080915050919050565b6129996131b5565b6001600b60006101000a81548160ff0219169083151502179055507f62e78cea01bee320cd4e420270b5ea74000d11b0c9f74754ebdbfc544b05a2586129dd611cba565b6040516129ea9190613a9a565b60405180910390a1565b6000612a0282600001613040565b9050919050565b6000612a188360000183613051565b60001c905092915050565b8173ffffffffffffffffffffffffffffffffffffffff168373ffffffffffffffffffffffffffffffffffffffff1603612a91576040517f08c379a0000000000000000000000000000000000000000000000000000000008152600401612a88906153de565b60405180910390fd5b80600660008573ffffffffffffffffffffffffffffffffffffffff1673ffffffffffffffffffffffffffffffffffffffff16815260200190815260200160002060008473ffffffffffffffffffffffffffffffffffffffff1673ffffffffffffffffffffffffffffffffffffffff16815260200190815260200160002060006101000a81548160ff0219169083151502179055508173ffffffffffffffffffffffffffffffffffffffff168373ffffffffffffffffffffffffffffffffffffffff167f17307eab39ab6107e8899845ad3d59bd9653f200f220920489ca2b5937696c3183604051612b829190613929565b60405180910390a3505050565b612b9a848484611e10565b612ba6848484846131ff565b612be5576040517f08c379a0000000000000000000000000000000000000000000000000000000008152600401612bdc90615470565b60405180910390fd5b50505050565b612c10836009600087815260200190815260200160002061338690919063ffffffff16565b612c3b57612c3983600960008781526020019081526020016000206133b690919063ffffffff16565b505b60006007600086815260200190815260200160002060008573ffffffffffffffffffffffffffffffffffffffff1673ffffffffffffffffffffffffffffffffffffffff16815260200190815260200160002060008481526020019081526020016000205403612d0857612d0682600a600087815260200190815260200160002060008673ffffffffffffffffffffffffffffffffffffffff1673ffffffffffffffffffffffffffffffffffffffff1681526020019081526020016000206133e690919063ffffffff16565b505b806007600086815260200190815260200160002060008573ffffffffffffffffffffffffffffffffffffffff1673ffffffffffffffffffffffffffffffffffffffff16815260200190815260200160002060008481526020019081526020016000206000828254612d799190615162565b9250508190555050505050565b606060405180602001604052806000815250905090565b606060008203612de4576040518060400160405280600181526020017f30000000000000000000000000000000000000000000000000000000000000008152509050612ef8565b600082905060005b60008214612e16578080612dff906147a5565b915050600a82612e0f91906154bf565b9150612dec565b60008167ffffffffffffffff811115612e3257612e31613b2b565b5b6040519080825280601f01601f191660200182016040528015612e645781602001600182028036833780820191505090505b5090505b60008514612ef157600182612e7d9190614faa565b9150600a85612e8c91906154f0565b6030612e989190615162565b60f81b818381518110612eae57612ead614747565b5b60200101907effffffffffffffffffffffffffffffffffffffffffffffffffffffffffffff1916908160001a905350600a85612eea91906154bf565b9450612e68565b8093505050505b919050565b60007f7965db0b000000000000000000000000000000000000000000000000000000007bffffffffffffffffffffffffffffffffffffffffffffffffffffffff1916827bffffffffffffffffffffffffffffffffffffffffffffffffffffffff19161480612f705750612f6f82613400565b5b9050919050565b60008073ffffffffffffffffffffffffffffffffffffffff166003600084815260200190815260200160002060009054906101000a900473ffffffffffffffffffffffffffffffffffffffff1673ffffffffffffffffffffffffffffffffffffffff1614159050919050565b612feb611209565b1561302b576040517f08c379a000000000000000000000000000000000000000000000000000000000815260040161302290615593565b60405180910390fd5b61303683838361346a565b505050565b505050565b600081600001805490509050919050565b600082600001828154811061306957613068614747565b5b9060005260206000200154905092915050565b613086828261159b565b613115576130ab8173ffffffffffffffffffffffffffffffffffffffff16601461346f565b6130b98360001c602061346f565b6040516020016130ca92919061564b565b6040516020818303038152906040526040517f08c379a000000000000000000000000000000000000000000000000000000000815260040161310c91906139d4565b60405180910390fd5b5050565b50505050505050565b6000613134836000018360001b6136ab565b905092915050565b6000613164836000018373ffffffffffffffffffffffffffffffffffffffff1660001b6136ab565b905092915050565b613174611209565b6131b3576040517f08c379a00000000000000000000000000000000000000000000000000000000081526004016131aa906156d1565b60405180910390fd5b565b6131bd611209565b156131fd576040517f08c379a00000000000000000000000000000000000000000000000000000000081526004016131f49061573d565b60405180910390fd5b565b60006132208473ffffffffffffffffffffffffffffffffffffffff166137bf565b15613379578373ffffffffffffffffffffffffffffffffffffffff1663150b7a02613249611cba565b8786866040518563ffffffff1660e01b815260040161326b949392919061575d565b6020604051808303816000875af19250505080156132a757506040513d601f19601f820116820180604052508101906132a491906157be565b60015b613329573d80600081146132d7576040519150601f19603f3d011682016040523d82523d6000602084013e6132dc565b606091505b506000815103613321576040517f08c379a000000000000000000000000000000000000000000000000000000000815260040161331890615470565b60405180910390fd5b805181602001fd5b63150b7a0260e01b7bffffffffffffffffffffffffffffffffffffffffffffffffffffffff1916817bffffffffffffffffffffffffffffffffffffffffffffffffffffffff19161491505061337e565b600190505b949350505050565b60006133ae836000018373ffffffffffffffffffffffffffffffffffffffff1660001b6137e2565b905092915050565b60006133de836000018373ffffffffffffffffffffffffffffffffffffffff1660001b613805565b905092915050565b60006133f8836000018360001b613805565b905092915050565b60007f01ffc9a7000000000000000000000000000000000000000000000000000000007bffffffffffffffffffffffffffffffffffffffffffffffffffffffff1916827bffffffffffffffffffffffffffffffffffffffffffffffffffffffff1916149050919050565b505050565b60606000600283600261348291906157eb565b61348c9190615162565b67ffffffffffffffff8111156134a5576134a4613b2b565b5b6040519080825280601f01601f1916602001820160405280156134d75781602001600182028036833780820191505090505b5090507f30000000000000000000000000000000000000000000000000000000000000008160008151811061350f5761350e614747565b5b60200101907effffffffffffffffffffffffffffffffffffffffffffffffffffffffffffff1916908160001a9053507f78000000000000000000000000000000000000000000000000000000000000008160018151811061357357613572614747565b5b60200101907effffffffffffffffffffffffffffffffffffffffffffffffffffffffffffff1916908160001a905350600060018460026135b391906157eb565b6135bd9190615162565b90505b600181111561365d577f3031323334353637383961626364656600000000000000000000000000000000600f8616601081106135ff576135fe614747565b5b1a60f81b82828151811061361657613615614747565b5b60200101907effffffffffffffffffffffffffffffffffffffffffffffffffffffffffffff1916908160001a905350600485901c9450806136569061582d565b90506135c0565b50600084146136a1576040517f08c379a0000000000000000000000000000000000000000000000000000000008152600401613698906158a2565b60405180910390fd5b8091505092915050565b600080836001016000848152602001908152602001600020549050600081146137b35760006001826136dd9190614faa565b90506000600186600001805490506136f59190614faa565b905081811461376457600086600001828154811061371657613715614747565b5b906000526020600020015490508087600001848154811061373a57613739614747565b5b90600052602060002001819055508387600101600083815260200190815260200160002081905550505b85600001805480613778576137776158c2565b5b6001900381819060005260206000200160009055905585600101600086815260200190815260200160002060009055600193505050506137b9565b60009150505b92915050565b6000808273ffffffffffffffffffffffffffffffffffffffff163b119050919050565b600080836001016000848152602001908152602001600020541415905092915050565b600061381183836137e2565b61386a57826000018290806001815401808255809150506001900390600052602060002001600090919091909150558260000180549050836001016000848152602001908152602001600020819055506001905061386f565b600090505b92915050565b6000604051905090565b600080fd5b600080fd5b60007fffffffff0000000000000000000000000000000000000000000000000000000082169050919050565b6138be81613889565b81146138c957600080fd5b50565b6000813590506138db816138b5565b92915050565b6000602082840312156138f7576138f661387f565b5b6000613905848285016138cc565b91505092915050565b60008115159050919050565b6139238161390e565b82525050565b600060208201905061393e600083018461391a565b92915050565b600081519050919050565b600082825260208201905092915050565b60005b8381101561397e578082015181840152602081019050613963565b60008484015250505050565b6000601f19601f8301169050919050565b60006139a682613944565b6139b0818561394f565b93506139c0818560208601613960565b6139c98161398a565b840191505092915050565b600060208201905081810360008301526139ee818461399b565b905092915050565b6000819050919050565b613a09816139f6565b8114613a1457600080fd5b50565b600081359050613a2681613a00565b92915050565b600060208284031215613a4257613a4161387f565b5b6000613a5084828501613a17565b91505092915050565b600073ffffffffffffffffffffffffffffffffffffffff82169050919050565b6000613a8482613a59565b9050919050565b613a9481613a79565b82525050565b6000602082019050613aaf6000830184613a8b565b92915050565b613abe81613a79565b8114613ac957600080fd5b50565b600081359050613adb81613ab5565b92915050565b60008060408385031215613af857613af761387f565b5b6000613b0685828601613acc565b9250506020613b1785828601613a17565b9150509250929050565b600080fd5b600080fd5b7f4e487b7100000000000000000000000000000000000000000000000000000000600052604160045260246000fd5b613b638261398a565b810181811067ffffffffffffffff82111715613b8257613b81613b2b565b5b80604052505050565b6000613b95613875565b9050613ba18282613b5a565b919050565b600067ffffffffffffffff821115613bc157613bc0613b2b565b5b613bca8261398a565b9050602081019050919050565b82818337600083830152505050565b6000613bf9613bf484613ba6565b613b8b565b905082815260208101848484011115613c1557613c14613b26565b5b613c20848285613bd7565b509392505050565b600082601f830112613c3d57613c3c613b21565b5b8135613c4d848260208601613be6565b91505092915050565b60008060008060808587031215613c7057613c6f61387f565b5b6000613c7e87828801613acc565b9450506020613c8f87828801613acc565b9350506040613ca087828801613a17565b925050606085013567ffffffffffffffff811115613cc157613cc0613884565b5b613ccd87828801613c28565b91505092959194509250565b613ce281613889565b82525050565b6000602082019050613cfd6000830184613cd9565b92915050565b600080600060608486031215613d1c57613d1b61387f565b5b6000613d2a86828701613acc565b9350506020613d3b86828701613acc565b9250506040613d4c86828701613a17565b9150509250925092565b6000819050919050565b613d6981613d56565b8114613d7457600080fd5b50565b600081359050613d8681613d60565b92915050565b600060208284031215613da257613da161387f565b5b6000613db084828501613d77565b91505092915050565b613dc281613d56565b82525050565b6000602082019050613ddd6000830184613db9565b92915050565b60008060408385031215613dfa57613df961387f565b5b6000613e0885828601613a17565b9250506020613e1985828601613acc565b9150509250929050565b600081519050919050565b600082825260208201905092915050565b6000819050602082019050919050565b613e58816139f6565b82525050565b6000613e6a8383613e4f565b60208301905092915050565b6000602082019050919050565b6000613e8e82613e23565b613e988185613e2e565b9350613ea383613e3f565b8060005b83811015613ed4578151613ebb8882613e5e565b9750613ec683613e76565b925050600181019050613ea7565b5085935050505092915050565b60006020820190508181036000830152613efb8184613e83565b905092915050565b60008060408385031215613f1a57613f1961387f565b5b6000613f2885828601613d77565b9250506020613f3985828601613acc565b9150509250929050565b600067ffffffffffffffff821115613f5e57613f5d613b2b565b5b602082029050602081019050919050565b600080fd5b6000613f87613f8284613f43565b613b8b565b90508083825260208201905060208402830185811115613faa57613fa9613f6f565b5b835b81811015613fd35780613fbf8882613a17565b845260208401935050602081019050613fac565b5050509392505050565b600082601f830112613ff257613ff1613b21565b5b8135614002848260208601613f74565b91505092915050565b60008060008060008060c087890312156140285761402761387f565b5b600061403689828a01613a17565b965050602061404789828a01613acc565b955050604061405889828a01613acc565b945050606087013567ffffffffffffffff81111561407957614078613884565b5b61408589828a01613fdd565b935050608087013567ffffffffffffffff8111156140a6576140a5613884565b5b6140b289828a01613fdd565b92505060a087013567ffffffffffffffff8111156140d3576140d2613884565b5b6140df89828a01613c28565b9150509295509295509295565b60008060008060008060c087890312156141095761410861387f565b5b600061411789828a01613a17565b965050602061412889828a01613acc565b955050604061413989828a01613acc565b945050606061414a89828a01613a17565b935050608061415b89828a01613a17565b92505060a087013567ffffffffffffffff81111561417c5761417b613884565b5b61418889828a01613c28565b9150509295509295509295565b6000806000606084860312156141ae576141ad61387f565b5b60006141bc86828701613a17565b93505060206141cd86828701613acc565b92505060406141de86828701613a17565b9150509250925092565b6141f1816139f6565b82525050565b600060208201905061420c60008301846141e8565b92915050565b6000602082840312156142285761422761387f565b5b600061423684828501613acc565b91505092915050565b600081519050919050565b600082825260208201905092915050565b6000819050602082019050919050565b61427481613a79565b82525050565b6000614286838361426b565b60208301905092915050565b6000602082019050919050565b60006142aa8261423f565b6142b4818561424a565b93506142bf8361425b565b8060005b838110156142f05781516142d7888261427a565b97506142e283614292565b9250506001810190506142c3565b5085935050505092915050565b60006020820190508181036000830152614317818461429f565b905092915050565b6143288161390e565b811461433357600080fd5b50565b6000813590506143458161431f565b92915050565b600080604083850312156143625761436161387f565b5b600061437085828601613acc565b925050602061438185828601614336565b9150509250929050565b600080600080600060a086880312156143a7576143a661387f565b5b60006143b588828901613acc565b95505060206143c688828901613acc565b945050604086013567ffffffffffffffff8111156143e7576143e6613884565b5b6143f388828901613fdd565b935050606086013567ffffffffffffffff81111561441457614413613884565b5b61442088828901613fdd565b925050608086013567ffffffffffffffff81111561444157614440613884565b5b61444d88828901613c28565b9150509295509295909350565b600080604083850312156144715761447061387f565b5b600061447f85828601613acc565b925050602061449085828601613acc565b9150509250929050565b600080600080600060a086880312156144b6576144b561387f565b5b60006144c488828901613acc565b95505060206144d588828901613acc565b94505060406144e688828901613a17565b93505060606144f788828901613a17565b925050608086013567ffffffffffffffff81111561451857614517613884565b5b61452488828901613c28565b9150509295509295909350565b7f4e487b7100000000000000000000000000000000000000000000000000000000600052602260045260246000fd5b6000600282049050600182168061457857607f821691505b60208210810361458b5761458a614531565b5b50919050565b7f4552433732313a20617070726f76616c20746f2063757272656e74206f776e6560008201527f7200000000000000000000000000000000000000000000000000000000000000602082015250565b60006145ed60218361394f565b91506145f882614591565b604082019050919050565b6000602082019050818103600083015261461c816145e0565b9050919050565b7f4552433732313a20617070726f76652063616c6c6572206973206e6f7420746f60008201527f6b656e206f776e6572206e6f7220617070726f76656420666f7220616c6c0000602082015250565b600061467f603e8361394f565b915061468a82614623565b604082019050919050565b600060208201905081810360008301526146ae81614672565b9050919050565b7f4552433732313a2063616c6c6572206973206e6f7420746f6b656e206f776e6560008201527f72206e6f7220617070726f766564000000000000000000000000000000000000602082015250565b6000614711602e8361394f565b915061471c826146b5565b604082019050919050565b6000602082019050818103600083015261474081614704565b9050919050565b7f4e487b7100000000000000000000000000000000000000000000000000000000600052603260045260246000fd5b7f4e487b7100000000000000000000000000000000000000000000000000000000600052601160045260246000fd5b60006147b0826139f6565b91507fffffffffffffffffffffffffffffffffffffffffffffffffffffffffffffffff82036147e2576147e1614776565b5b600182019050919050565b7f4552433939383a2069647320616e6420616d6f756e7473206c656e677468206d60008201527f69736d6174636800000000000000000000000000000000000000000000000000602082015250565b600061484960278361394f565b9150614854826147ed565b604082019050919050565b600060208201905081810360008301526148788161483c565b9050919050565b7f4552433939383a207472616e7366657220746f20746865207a65726f2061646460008201527f7265737300000000000000000000000000000000000000000000000000000000602082015250565b60006148db60248361394f565b91506148e68261487f565b604082019050919050565b6000602082019050818103600083015261490a816148ce565b9050919050565b7f4552433939383a2063616c6c6572206973206e6f74206f776e6572206e6f722060008201527f617070726f766564000000000000000000000000000000000000000000000000602082015250565b600061496d60288361394f565b915061497882614911565b604082019050919050565b6000602082019050818103600083015261499c81614960565b9050919050565b600081519050919050565b600082825260208201905092915050565b60006149ca826149a3565b6149d481856149ae565b93506149e4818560208601613960565b6149ed8161398a565b840191505092915050565b600060a082019050614a0d6000830188613a8b565b614a1a6020830187613a8b565b8181036040830152614a2c8186613e83565b90508181036060830152614a408185613e83565b90508181036080830152614a5481846149bf565b90509695505050505050565b60006040820190508181036000830152614a7a8185613e83565b90508181036020830152614a8e8184613e83565b90509392505050565b7f416363657373436f6e74726f6c3a2063616e206f6e6c792072656e6f756e636560008201527f20726f6c657320666f722073656c660000000000000000000000000000000000602082015250565b6000614af3602f8361394f565b9150614afe82614a97565b604082019050919050565b60006020820190508181036000830152614b2281614ae6565b9050919050565b7f4552433732315072657365744d696e7465725061757365724175746f49643a2060008201527f6d75737420686176652070617573657220726f6c6520746f20756e7061757365602082015250565b6000614b8560408361394f565b9150614b9082614b29565b604082019050919050565b60006020820190508181036000830152614bb481614b78565b9050919050565b7f4552433732314275726e61626c653a2063616c6c6572206973206e6f74206f7760008201527f6e6572206e6f7220617070726f76656400000000000000000000000000000000602082015250565b6000614c1760308361394f565b9150614c2282614bbb565b604082019050919050565b60006020820190508181036000830152614c4681614c0a565b9050919050565b600060a082019050614c626000830188613a8b565b614c6f6020830187613a8b565b614c7c60408301866141e8565b614c8960608301856141e8565b8181036080830152614c9b81846149bf565b90509695505050505050565b6000604082019050614cbc60008301856141e8565b614cc960208301846141e8565b9392505050565b7f4552433732313a20696e76616c696420746f6b656e2049440000000000000000600082015250565b6000614d0660188361394f565b9150614d1182614cd0565b602082019050919050565b60006020820190508181036000830152614d3581614cf9565b9050919050565b7f4552433732313a2061646472657373207a65726f206973206e6f74206120766160008201527f6c6964206f776e65720000000000000000000000000000000000000000000000602082015250565b6000614d9860298361394f565b9150614da382614d3c565b604082019050919050565b60006020820190508181036000830152614dc781614d8b565b9050919050565b7f4552433732315072657365744d696e7465725061757365724175746f49643a2060008201527f6d75737420686176652070617573657220726f6c6520746f2070617573650000602082015250565b6000614e2a603e8361394f565b9150614e3582614dce565b604082019050919050565b60006020820190508181036000830152614e5981614e1d565b9050919050565b7f4552433939383a2064617461206d75737420636f6e7461696e2074686520756e60008201527f697175652075696e7432353620746f6b656e496420746f207472616e7366657260208201527f20746865206368696c6420746f6b656e20746f00000000000000000000000000604082015250565b6000614ee260538361394f565b9150614eed82614e60565b606082019050919050565b60006020820190508181036000830152614f1181614ed5565b9050919050565b7f455243313135353a2069647320616e642076616c756573206c656e677468206d60008201527f69736d6174636800000000000000000000000000000000000000000000000000602082015250565b6000614f7460278361394f565b9150614f7f82614f18565b604082019050919050565b60006020820190508181036000830152614fa381614f67565b9050919050565b6000614fb5826139f6565b9150614fc0836139f6565b9250828203905081811115614fd857614fd7614776565b5b92915050565b600081905092915050565b6000614ff482613944565b614ffe8185614fde565b935061500e818560208601613960565b80840191505092915050565b60006150268285614fe9565b91506150328284614fe9565b91508190509392505050565b7f4552433732313a207472616e736665722066726f6d20696e636f72726563742060008201527f6f776e6572000000000000000000000000000000000000000000000000000000602082015250565b600061509a60258361394f565b91506150a58261503e565b604082019050919050565b600060208201905081810360008301526150c98161508d565b9050919050565b7f4552433732313a207472616e7366657220746f20746865207a65726f2061646460008201527f7265737300000000000000000000000000000000000000000000000000000000602082015250565b600061512c60248361394f565b9150615137826150d0565b604082019050919050565b6000602082019050818103600083015261515b8161511f565b9050919050565b600061516d826139f6565b9150615178836139f6565b92508282019050808211156151905761518f614776565b5b92915050565b7f4552433939385061757361626c653a206368696c64207472616e73666572207760008201527f68696c6520706175736564000000000000000000000000000000000000000000602082015250565b60006151f2602b8361394f565b91506151fd82615196565b604082019050919050565b60006020820190508181036000830152615221816151e5565b9050919050565b7f4552433939383a20696e73756666696369656e74206368696c642062616c616e60008201527f636520666f72207472616e736665720000000000000000000000000000000000602082015250565b6000615284602f8361394f565b915061528f82615228565b604082019050919050565b600060208201905081810360008301526152b381615277565b9050919050565b7f4552433732313a206d696e7420746f20746865207a65726f2061646472657373600082015250565b60006152f060208361394f565b91506152fb826152ba565b602082019050919050565b6000602082019050818103600083015261531f816152e3565b9050919050565b7f4552433732313a20746f6b656e20616c7265616479206d696e74656400000000600082015250565b600061535c601c8361394f565b915061536782615326565b602082019050919050565b6000602082019050818103600083015261538b8161534f565b9050919050565b7f4552433732313a20617070726f766520746f2063616c6c657200000000000000600082015250565b60006153c860198361394f565b91506153d382615392565b602082019050919050565b600060208201905081810360008301526153f7816153bb565b9050919050565b7f4552433732313a207472616e7366657220746f206e6f6e20455243373231526560008201527f63656976657220696d706c656d656e7465720000000000000000000000000000602082015250565b600061545a60328361394f565b9150615465826153fe565b604082019050919050565b600060208201905081810360008301526154898161544d565b9050919050565b7f4e487b7100000000000000000000000000000000000000000000000000000000600052601260045260246000fd5b60006154ca826139f6565b91506154d5836139f6565b9250826154e5576154e4615490565b5b828204905092915050565b60006154fb826139f6565b9150615506836139f6565b92508261551657615515615490565b5b828206905092915050565b7f4552433732315061757361626c653a20746f6b656e207472616e73666572207760008201527f68696c6520706175736564000000000000000000000000000000000000000000602082015250565b600061557d602b8361394f565b915061558882615521565b604082019050919050565b600060208201905081810360008301526155ac81615570565b9050919050565b7f416363657373436f6e74726f6c3a206163636f756e7420000000000000000000600082015250565b60006155e9601783614fde565b91506155f4826155b3565b601782019050919050565b7f206973206d697373696e6720726f6c6520000000000000000000000000000000600082015250565b6000615635601183614fde565b9150615640826155ff565b601182019050919050565b6000615656826155dc565b91506156628285614fe9565b915061566d82615628565b91506156798284614fe9565b91508190509392505050565b7f5061757361626c653a206e6f7420706175736564000000000000000000000000600082015250565b60006156bb60148361394f565b91506156c682615685565b602082019050919050565b600060208201905081810360008301526156ea816156ae565b9050919050565b7f5061757361626c653a2070617573656400000000000000000000000000000000600082015250565b600061572760108361394f565b9150615732826156f1565b602082019050919050565b600060208201905081810360008301526157568161571a565b9050919050565b60006080820190506157726000830187613a8b565b61577f6020830186613a8b565b61578c60408301856141e8565b818103606083015261579e81846149bf565b905095945050505050565b6000815190506157b8816138b5565b92915050565b6000602082840312156157d4576157d361387f565b5b60006157e2848285016157a9565b91505092915050565b60006157f6826139f6565b9150615801836139f6565b925082820261580f816139f6565b9150828204841483151761582657615825614776565b5b5092915050565b6000615838826139f6565b91506000820361584b5761584a614776565b5b600182039050919050565b7f537472696e67733a20686578206c656e67746820696e73756666696369656e74600082015250565b600061588c60208361394f565b915061589782615856565b602082019050919050565b600060208201905081810360008301526158bb8161587f565b9050919050565b7f4e487b7100000000000000000000000000000000000000000000000000000000600052603160045260246000fdfea26469706673582212208fb701dfe830ed5512d66c08e6dec6a6405976f7996692769fbabb2aa4fa631c64736f6c63430008110033",
  "immutableReferences": {},
  "source": "// SPDX-License-Identifier: MIT\n\npragma solidity ^0.8.0;\n\n/* import \"https://github.com/OpenZeppelin/openzeppelin-contracts/blob/master/contracts/access/AccessControl.sol\";\nimport \"https://github.com/OpenZeppelin/openzeppelin-contracts/blob/master/contracts/GSN/Context.sol\";\nimport \"https://github.com/OpenZeppelin/openzeppelin-contracts/blob/master/contracts/utils/Pausable.sol\"; */\n\nimport \"@openzeppelin/contracts/access/AccessControl.sol\";\nimport \"@openzeppelin/contracts/utils/Context.sol\";\nimport \"@openzeppelin/contracts/security/Pausable.sol\";\n\nimport \"./ERC998ERC1155TopDown.sol\";\n\n/**\n * @dev {ERC998} token, including:\n *\n *  - ability for holders to burn (destroy) their tokens\n *  - a minter role that allows for token minting (creation)\n *  - a pauser role that allows to stop all token transfers\n *\n * This contract uses {AccessControl} to lock permissioned functions using the\n * different roles - head to its documentation for details.\n *\n * The account that deploys the contract will be granted the minter and pauser\n * roles, as well as the default admin role, which will let it grant both minter\n * and pauser roles to other accounts.\n */\ncontract ERC998ERC1155TopDownPresetMinterPauser is Context, AccessControl, ERC998ERC1155TopDown, Pausable {\n    bytes32 public constant MINTER_ROLE = keccak256(\"MINTER_ROLE\");\n    bytes32 public constant PAUSER_ROLE = keccak256(\"PAUSER_ROLE\");\n\n    /**\n     * @dev Grants `DEFAULT_ADMIN_ROLE`, `MINTER_ROLE` and `PAUSER_ROLE` to the\n     * account that deploys the contract.\n     *\n     * Token URIs will be autogenerated based on `baseURI` and their token IDs.\n     * See {ERC721-tokenURI}.\n     */\n    constructor(string memory name, string memory symbol, string memory baseURI) public ERC998ERC1155TopDown(name, symbol, baseURI) {\n        _setupRole(DEFAULT_ADMIN_ROLE, _msgSender());\n        _setupRole(MINTER_ROLE, _msgSender());\n        _setupRole(PAUSER_ROLE, _msgSender());\n    }\n\n    /**\n     * @dev Creates a new token for `to`. The token URI autogenerated based on\n     * the base URI passed at construction and the token ID.\n     *\n     * See {ERC721-_mint}.\n     *\n     * Requirements:\n     *\n     * - the caller must have the `MINTER_ROLE`.\n     */\n    function mint(address to, uint256 tokenId) public virtual {\n        //require(hasRole(MINTER_ROLE, _msgSender()), \"ERC721: must have minter role to mint in ERC998\");\n\n        // We cannot just use balanceOf to create the new tokenId because tokens\n        // can be burned (destroyed), so we need a separate counter.\n        _mint(to, tokenId);\n    }\n\n\n    /**\n     * @dev Burns `tokenId`. See {ERC721-_burn}.\n     *\n     * Requirements:\n     *\n     * - The caller must own `tokenId` or be an approved operator.\n     */\n    function burn(uint256 tokenId) public virtual {\n        //solhint-disable-next-line max-line-length\n        require(_isApprovedOrOwner(_msgSender(), tokenId), \"ERC721Burnable: caller is not owner nor approved\");\n        _burn(tokenId);\n    }\n\n    /**\n     * @dev Pauses all token transfers.\n     *\n     * See {ERC721Pausable} and {Pausable-_pause}.\n     *\n     * Requirements:\n     *\n     * - the caller must have the `PAUSER_ROLE`.\n     */\n    function pause() public virtual {\n        require(hasRole(PAUSER_ROLE, _msgSender()), \"ERC721PresetMinterPauserAutoId: must have pauser role to pause\");\n        _pause();\n    }\n\n    /**\n     * @dev Unpauses all token transfers.\n     *\n     * See {ERC721Pausable} and {Pausable-_unpause}.\n     *\n     * Requirements:\n     *\n     * - the caller must have the `PAUSER_ROLE`.\n     */\n    function unpause() public virtual {\n        require(hasRole(PAUSER_ROLE, _msgSender()), \"ERC721PresetMinterPauserAutoId: must have pauser role to unpause\");\n        _unpause();\n    }\n\n    /**\n     * @dev See {ERC721-_beforeTokenTransfer}.\n     *\n     * Requirements:\n     *\n     * - the contract must not be paused.\n     */\n    function _beforeTokenTransfer(address from, address to, uint256 tokenId) internal virtual override {\n        require(!paused(), \"ERC721Pausable: token transfer while paused\");\n\n        super._beforeTokenTransfer(from, to, tokenId);\n    }\n\n    function _beforeChildTransfer(\n        address operator,\n        uint256 fromTokenId,\n        address to,\n        address childContract,\n        uint256[] memory ids,\n        uint256[] memory amounts,\n        bytes memory data\n    )\n        internal virtual override\n    {\n        require(!paused(), \"ERC998Pausable: child transfer while paused\");\n\n        super._beforeChildTransfer(operator, fromTokenId, to, childContract, ids, amounts, data);\n    }\n\n    function supportsInterface(bytes4 interfaceId) public view virtual override(ERC721, IERC165, AccessControl) returns (bool) {\n        return super.supportsInterface(interfaceId);\n    }\n}\n",
  "sourcePath": "/Users/moose/Documents/Projects/composo/supp_chain/truffle/contracts/ERC998ERC1155TopDownPresetMinterPauser.sol",
  "compiler": {
    "name": "solc",
    "version": "0.8.17+commit.8df45f5f.Emscripten.clang"
  },
  "schemaVersion": "3.4.7",
  "updatedAt": "2022-10-16T10:58:49.805Z",
  "networkType": "ethereum",
  "devdoc": {
    "details": "{ERC998} token, including:  - ability for holders to burn (destroy) their tokens  - a minter role that allows for token minting (creation)  - a pauser role that allows to stop all token transfers This contract uses {AccessControl} to lock permissioned functions using the different roles - head to its documentation for details. The account that deploys the contract will be granted the minter and pauser roles, as well as the default admin role, which will let it grant both minter and pauser roles to other accounts.",
    "kind": "dev",
    "methods": {
      "approve(address,uint256)": {
        "details": "See {IERC721-approve}."
      },
      "balanceOf(address)": {
        "details": "See {IERC721-balanceOf}."
      },
      "burn(uint256)": {
        "details": "Burns `tokenId`. See {ERC721-_burn}. Requirements: - The caller must own `tokenId` or be an approved operator."
      },
      "childBalance(uint256,address,uint256)": {
        "details": "Gives child balance for a specific child contract and child id ."
      },
      "childContractsFor(uint256)": {
        "details": "Gives list of child contract where token ID has childs."
      },
      "childIdsForOn(uint256,address)": {
        "details": "Gives list of owned child ID on a child contract by token ID."
      },
      "constructor": {
        "details": "Grants `DEFAULT_ADMIN_ROLE`, `MINTER_ROLE` and `PAUSER_ROLE` to the account that deploys the contract. Token URIs will be autogenerated based on `baseURI` and their token IDs. See {ERC721-tokenURI}."
      },
      "getApproved(uint256)": {
        "details": "See {IERC721-getApproved}."
      },
      "getRoleAdmin(bytes32)": {
        "details": "Returns the admin role that controls `role`. See {grantRole} and {revokeRole}. To change a role's admin, use {_setRoleAdmin}."
      },
      "grantRole(bytes32,address)": {
        "details": "Grants `role` to `account`. If `account` had not been already granted `role`, emits a {RoleGranted} event. Requirements: - the caller must have ``role``'s admin role. May emit a {RoleGranted} event."
      },
      "hasRole(bytes32,address)": {
        "details": "Returns `true` if `account` has been granted `role`."
      },
      "isApprovedForAll(address,address)": {
        "details": "See {IERC721-isApprovedForAll}."
      },
      "mint(address,uint256)": {
        "details": "Creates a new token for `to`. The token URI autogenerated based on the base URI passed at construction and the token ID. See {ERC721-_mint}. Requirements: - the caller must have the `MINTER_ROLE`."
      },
      "name()": {
        "details": "See {IERC721Metadata-name}."
      },
      "onERC1155BatchReceived(address,address,uint256[],uint256[],bytes)": {
        "details": "Receives a batch of child tokens, the receiver token ID must be encoded in the field data."
      },
      "onERC1155Received(address,address,uint256,uint256,bytes)": {
        "details": "Receives a child token, the receiver token ID must be encoded in the field data."
      },
      "onERC721Received(address,address,uint256,bytes)": {
        "details": "Receives a child token, the receiver token ID must be encoded in the field data."
      },
      "ownerOf(uint256)": {
        "details": "See {IERC721-ownerOf}."
      },
      "pause()": {
        "details": "Pauses all token transfers. See {ERC721Pausable} and {Pausable-_pause}. Requirements: - the caller must have the `PAUSER_ROLE`."
      },
      "paused()": {
        "details": "Returns true if the contract is paused, and false otherwise."
      },
      "renounceRole(bytes32,address)": {
        "details": "Revokes `role` from the calling account. Roles are often managed via {grantRole} and {revokeRole}: this function's purpose is to provide a mechanism for accounts to lose their privileges if they are compromised (such as when a trusted device is misplaced). If the calling account had been revoked `role`, emits a {RoleRevoked} event. Requirements: - the caller must be `account`. May emit a {RoleRevoked} event."
      },
      "revokeRole(bytes32,address)": {
        "details": "Revokes `role` from `account`. If `account` had been granted `role`, emits a {RoleRevoked} event. Requirements: - the caller must have ``role``'s admin role. May emit a {RoleRevoked} event."
      },
      "safeBatchTransferChildFrom(uint256,address,address,uint256[],uint256[],bytes)": {
        "details": "Transfers batch of child tokens from a token ID."
      },
      "safeTransferChildFrom(uint256,address,address,uint256,uint256,bytes)": {
        "details": "Transfers child token from a token ID."
      },
      "safeTransferFrom(address,address,uint256)": {
        "details": "See {IERC721-safeTransferFrom}."
      },
      "safeTransferFrom(address,address,uint256,bytes)": {
        "details": "See {IERC721-safeTransferFrom}."
      },
      "setApprovalForAll(address,bool)": {
        "details": "See {IERC721-setApprovalForAll}."
      },
      "symbol()": {
        "details": "See {IERC721Metadata-symbol}."
      },
      "tokenURI(uint256)": {
        "details": "See {IERC721Metadata-tokenURI}."
      },
      "transferFrom(address,address,uint256)": {
        "details": "See {IERC721-transferFrom}."
      },
      "unpause()": {
        "details": "Unpauses all token transfers. See {ERC721Pausable} and {Pausable-_unpause}. Requirements: - the caller must have the `PAUSER_ROLE`."
      }
    },
    "version": 1
  },
  "userdoc": {
    "kind": "user",
    "methods": {},
    "version": 1
  }
}