{
  "contractName": "ERC998ERC1155TopDown",
  "abi": [
    {
      "inputs": [
        {
          "internalType": "string",
          "name": "name",
          "type": "string"
        },
        {
          "internalType": "string",
          "name": "symbol",
          "type": "string"
        },
        {
          "internalType": "string",
          "name": "baseURI",
          "type": "string"
        }
      ],
      "stateMutability": "nonpayable",
      "type": "constructor"
    },
    {
      "anonymous": false,
      "inputs": [
        {
          "indexed": true,
          "internalType": "address",
          "name": "owner",
          "type": "address"
        },
        {
          "indexed": true,
          "internalType": "address",
          "name": "approved",
          "type": "address"
        },
        {
          "indexed": true,
          "internalType": "uint256",
          "name": "tokenId",
          "type": "uint256"
        }
      ],
      "name": "Approval",
      "type": "event"
    },
    {
      "anonymous": false,
      "inputs": [
        {
          "indexed": true,
          "internalType": "address",
          "name": "owner",
          "type": "address"
        },
        {
          "indexed": true,
          "internalType": "address",
          "name": "operator",
          "type": "address"
        },
        {
          "indexed": false,
          "internalType": "bool",
          "name": "approved",
          "type": "bool"
        }
      ],
      "name": "ApprovalForAll",
      "type": "event"
    },
    {
      "anonymous": false,
      "inputs": [
        {
          "indexed": true,
          "internalType": "address",
          "name": "from",
          "type": "address"
        },
        {
          "indexed": true,
          "internalType": "uint256",
          "name": "toTokenId",
          "type": "uint256"
        },
        {
          "indexed": true,
          "internalType": "address",
          "name": "childContract",
          "type": "address"
        },
        {
          "indexed": false,
          "internalType": "uint256",
          "name": "childTokenId",
          "type": "uint256"
        },
        {
          "indexed": false,
          "internalType": "uint256",
          "name": "amount",
          "type": "uint256"
        }
      ],
      "name": "ReceivedChild",
      "type": "event"
    },
    {
      "anonymous": false,
      "inputs": [
        {
          "indexed": true,
          "internalType": "address",
          "name": "from",
          "type": "address"
        },
        {
          "indexed": true,
          "internalType": "address",
          "name": "to",
          "type": "address"
        },
        {
          "indexed": true,
          "internalType": "uint256",
          "name": "tokenId",
          "type": "uint256"
        }
      ],
      "name": "Transfer",
      "type": "event"
    },
    {
      "anonymous": false,
      "inputs": [
        {
          "indexed": true,
          "internalType": "uint256",
          "name": "fromTokenId",
          "type": "uint256"
        },
        {
          "indexed": true,
          "internalType": "address",
          "name": "to",
          "type": "address"
        },
        {
          "indexed": true,
          "internalType": "address",
          "name": "childContract",
          "type": "address"
        },
        {
          "indexed": false,
          "internalType": "uint256[]",
          "name": "childTokenIds",
          "type": "uint256[]"
        },
        {
          "indexed": false,
          "internalType": "uint256[]",
          "name": "amounts",
          "type": "uint256[]"
        }
      ],
      "name": "TransferBatchChild",
      "type": "event"
    },
    {
      "anonymous": false,
      "inputs": [
        {
          "indexed": true,
          "internalType": "uint256",
          "name": "fromTokenId",
          "type": "uint256"
        },
        {
          "indexed": true,
          "internalType": "address",
          "name": "to",
          "type": "address"
        },
        {
          "indexed": true,
          "internalType": "address",
          "name": "childContract",
          "type": "address"
        },
        {
          "indexed": false,
          "internalType": "uint256",
          "name": "childTokenId",
          "type": "uint256"
        },
        {
          "indexed": false,
          "internalType": "uint256",
          "name": "amount",
          "type": "uint256"
        }
      ],
      "name": "TransferSingleChild",
      "type": "event"
    },
    {
      "inputs": [
        {
          "internalType": "uint256",
          "name": "",
          "type": "uint256"
        },
        {
          "internalType": "address",
          "name": "",
          "type": "address"
        },
        {
          "internalType": "uint256",
          "name": "",
          "type": "uint256"
        }
      ],
      "name": "_balances",
      "outputs": [
        {
          "internalType": "uint256",
          "name": "",
          "type": "uint256"
        }
      ],
      "stateMutability": "view",
      "type": "function",
      "constant": true
    },
    {
      "inputs": [
        {
          "internalType": "address",
          "name": "to",
          "type": "address"
        },
        {
          "internalType": "uint256",
          "name": "tokenId",
          "type": "uint256"
        }
      ],
      "name": "approve",
      "outputs": [],
      "stateMutability": "nonpayable",
      "type": "function"
    },
    {
      "inputs": [
        {
          "internalType": "address",
          "name": "owner",
          "type": "address"
        }
      ],
      "name": "balanceOf",
      "outputs": [
        {
          "internalType": "uint256",
          "name": "",
          "type": "uint256"
        }
      ],
      "stateMutability": "view",
      "type": "function",
      "constant": true
    },
    {
      "inputs": [
        {
          "internalType": "uint256",
          "name": "tokenId",
          "type": "uint256"
        }
      ],
      "name": "getApproved",
      "outputs": [
        {
          "internalType": "address",
          "name": "",
          "type": "address"
        }
      ],
      "stateMutability": "view",
      "type": "function",
      "constant": true
    },
    {
      "inputs": [
        {
          "internalType": "address",
          "name": "owner",
          "type": "address"
        },
        {
          "internalType": "address",
          "name": "operator",
          "type": "address"
        }
      ],
      "name": "isApprovedForAll",
      "outputs": [
        {
          "internalType": "bool",
          "name": "",
          "type": "bool"
        }
      ],
      "stateMutability": "view",
      "type": "function",
      "constant": true
    },
    {
      "inputs": [
        {
          "internalType": "uint256",
          "name": "",
          "type": "uint256"
        }
      ],
      "name": "isERC1155",
      "outputs": [
        {
          "internalType": "bool",
          "name": "",
          "type": "bool"
        }
      ],
      "stateMutability": "view",
      "type": "function",
      "constant": true
    },
    {
      "inputs": [
        {
          "internalType": "uint256",
          "name": "",
          "type": "uint256"
        }
      ],
      "name": "isERC721",
      "outputs": [
        {
          "internalType": "bool",
          "name": "",
          "type": "bool"
        }
      ],
      "stateMutability": "view",
      "type": "function",
      "constant": true
    },
    {
      "inputs": [],
      "name": "name",
      "outputs": [
        {
          "internalType": "string",
          "name": "",
          "type": "string"
        }
      ],
      "stateMutability": "view",
      "type": "function",
      "constant": true
    },
    {
      "inputs": [
        {
          "internalType": "uint256",
          "name": "tokenId",
          "type": "uint256"
        }
      ],
      "name": "ownerOf",
      "outputs": [
        {
          "internalType": "address",
          "name": "",
          "type": "address"
        }
      ],
      "stateMutability": "view",
      "type": "function",
      "constant": true
    },
    {
      "inputs": [
        {
          "internalType": "uint256",
          "name": "",
          "type": "uint256"
        }
      ],
      "name": "rootOwners",
      "outputs": [
        {
          "internalType": "uint256",
          "name": "",
          "type": "uint256"
        }
      ],
      "stateMutability": "view",
      "type": "function",
      "constant": true
    },
    {
      "inputs": [
        {
          "internalType": "address",
          "name": "from",
          "type": "address"
        },
        {
          "internalType": "address",
          "name": "to",
          "type": "address"
        },
        {
          "internalType": "uint256",
          "name": "tokenId",
          "type": "uint256"
        }
      ],
      "name": "safeTransferFrom",
      "outputs": [],
      "stateMutability": "nonpayable",
      "type": "function"
    },
    {
      "inputs": [
        {
          "internalType": "address",
          "name": "from",
          "type": "address"
        },
        {
          "internalType": "address",
          "name": "to",
          "type": "address"
        },
        {
          "internalType": "uint256",
          "name": "tokenId",
          "type": "uint256"
        },
        {
          "internalType": "bytes",
          "name": "data",
          "type": "bytes"
        }
      ],
      "name": "safeTransferFrom",
      "outputs": [],
      "stateMutability": "nonpayable",
      "type": "function"
    },
    {
      "inputs": [
        {
          "internalType": "address",
          "name": "operator",
          "type": "address"
        },
        {
          "internalType": "bool",
          "name": "approved",
          "type": "bool"
        }
      ],
      "name": "setApprovalForAll",
      "outputs": [],
      "stateMutability": "nonpayable",
      "type": "function"
    },
    {
      "inputs": [
        {
          "internalType": "bytes4",
          "name": "interfaceId",
          "type": "bytes4"
        }
      ],
      "name": "supportsInterface",
      "outputs": [
        {
          "internalType": "bool",
          "name": "",
          "type": "bool"
        }
      ],
      "stateMutability": "view",
      "type": "function",
      "constant": true
    },
    {
      "inputs": [],
      "name": "symbol",
      "outputs": [
        {
          "internalType": "string",
          "name": "",
          "type": "string"
        }
      ],
      "stateMutability": "view",
      "type": "function",
      "constant": true
    },
    {
      "inputs": [
        {
          "internalType": "uint256",
          "name": "tokenId",
          "type": "uint256"
        }
      ],
      "name": "tokenURI",
      "outputs": [
        {
          "internalType": "string",
          "name": "",
          "type": "string"
        }
      ],
      "stateMutability": "view",
      "type": "function",
      "constant": true
    },
    {
      "inputs": [
        {
          "internalType": "address",
          "name": "from",
          "type": "address"
        },
        {
          "internalType": "address",
          "name": "to",
          "type": "address"
        },
        {
          "internalType": "uint256",
          "name": "tokenId",
          "type": "uint256"
        }
      ],
      "name": "transferFrom",
      "outputs": [],
      "stateMutability": "nonpayable",
      "type": "function"
    },
    {
      "inputs": [
        {
          "internalType": "uint256",
          "name": "tokenId",
          "type": "uint256"
        },
        {
          "internalType": "address",
          "name": "childContract",
          "type": "address"
        },
        {
          "internalType": "uint256",
          "name": "childTokenId",
          "type": "uint256"
        }
      ],
      "name": "childBalance",
      "outputs": [
        {
          "internalType": "uint256",
          "name": "",
          "type": "uint256"
        }
      ],
      "stateMutability": "view",
      "type": "function",
      "constant": true
    },
    {
      "inputs": [
        {
          "internalType": "uint256",
          "name": "tokenId",
          "type": "uint256"
        }
      ],
      "name": "childContractsFor",
      "outputs": [
        {
          "internalType": "address[]",
          "name": "",
          "type": "address[]"
        }
      ],
      "stateMutability": "view",
      "type": "function",
      "constant": true
    },
    {
      "inputs": [
        {
          "internalType": "uint256",
          "name": "tokenId",
          "type": "uint256"
        },
        {
          "internalType": "address",
          "name": "childContract",
          "type": "address"
        }
      ],
      "name": "childIdsOwned",
      "outputs": [
        {
          "internalType": "uint256[]",
          "name": "",
          "type": "uint256[]"
        }
      ],
      "stateMutability": "view",
      "type": "function",
      "constant": true
    },
    {
      "inputs": [
        {
          "internalType": "uint256",
          "name": "id",
          "type": "uint256"
        }
      ],
      "name": "setRootOwner",
      "outputs": [],
      "stateMutability": "nonpayable",
      "type": "function"
    },
    {
      "inputs": [],
      "name": "getRootOwners",
      "outputs": [
        {
          "internalType": "uint256[]",
          "name": "",
          "type": "uint256[]"
        }
      ],
      "stateMutability": "view",
      "type": "function",
      "constant": true
    },
    {
      "inputs": [
        {
          "internalType": "uint256",
          "name": "fromTokenId",
          "type": "uint256"
        },
        {
          "internalType": "uint256",
          "name": "root",
          "type": "uint256"
        },
        {
          "internalType": "address",
          "name": "to",
          "type": "address"
        },
        {
          "internalType": "address",
          "name": "childContract",
          "type": "address"
        },
        {
          "internalType": "uint256",
          "name": "childTokenId",
          "type": "uint256"
        },
        {
          "internalType": "uint256",
          "name": "amount",
          "type": "uint256"
        },
        {
          "internalType": "bytes",
          "name": "data",
          "type": "bytes"
        }
      ],
      "name": "safeTransferChildFrom",
      "outputs": [],
      "stateMutability": "nonpayable",
      "type": "function"
    },
    {
      "inputs": [
        {
          "internalType": "uint256",
          "name": "tokenID",
          "type": "uint256"
        }
      ],
      "name": "getOwner",
      "outputs": [
        {
          "internalType": "address",
          "name": "",
          "type": "address"
        }
      ],
      "stateMutability": "view",
      "type": "function",
      "constant": true
    },
    {
      "inputs": [
        {
          "internalType": "uint256",
          "name": "tokenID",
          "type": "uint256"
        }
      ],
      "name": "setIsERC1155",
      "outputs": [],
      "stateMutability": "nonpayable",
      "type": "function"
    },
    {
      "inputs": [
        {
          "internalType": "uint256",
          "name": "tokenID",
          "type": "uint256"
        }
      ],
      "name": "getIsERC1155",
      "outputs": [
        {
          "internalType": "bool",
          "name": "",
          "type": "bool"
        }
      ],
      "stateMutability": "view",
      "type": "function",
      "constant": true
    },
    {
      "inputs": [
        {
          "internalType": "uint256",
          "name": "tokenID",
          "type": "uint256"
        },
        {
          "internalType": "uint256",
          "name": "childTokenID",
          "type": "uint256"
        }
      ],
      "name": "getChildContract",
      "outputs": [
        {
          "internalType": "address",
          "name": "",
          "type": "address"
        }
      ],
      "stateMutability": "view",
      "type": "function",
      "constant": true
    },
    {
      "inputs": [],
      "name": "getMsgSender",
      "outputs": [
        {
          "internalType": "address",
          "name": "",
          "type": "address"
        }
      ],
      "stateMutability": "view",
      "type": "function",
      "constant": true
    },
    {
      "inputs": [
        {
          "internalType": "uint256",
          "name": "fromTokenId",
          "type": "uint256"
        },
        {
          "internalType": "address",
          "name": "to",
          "type": "address"
        },
        {
          "internalType": "address",
          "name": "childContract",
          "type": "address"
        },
        {
          "internalType": "uint256[]",
          "name": "childTokenIds",
          "type": "uint256[]"
        },
        {
          "internalType": "uint256[]",
          "name": "amounts",
          "type": "uint256[]"
        },
        {
          "internalType": "bytes",
          "name": "data",
          "type": "bytes"
        }
      ],
      "name": "safeBatchTransferChildFrom",
      "outputs": [],
      "stateMutability": "nonpayable",
      "type": "function"
    },
    {
      "inputs": [
        {
          "internalType": "address",
          "name": "operator",
          "type": "address"
        },
        {
          "internalType": "address",
          "name": "from",
          "type": "address"
        },
        {
          "internalType": "uint256",
          "name": "id",
          "type": "uint256"
        },
        {
          "internalType": "uint256",
          "name": "amount",
          "type": "uint256"
        },
        {
          "internalType": "bytes",
          "name": "data",
          "type": "bytes"
        }
      ],
      "name": "onERC1155Received",
      "outputs": [
        {
          "internalType": "bytes4",
          "name": "",
          "type": "bytes4"
        }
      ],
      "stateMutability": "nonpayable",
      "type": "function"
    },
    {
      "inputs": [
        {
          "internalType": "address",
          "name": "operator",
          "type": "address"
        },
        {
          "internalType": "address",
          "name": "from",
          "type": "address"
        },
        {
          "internalType": "uint256",
          "name": "tokenId",
          "type": "uint256"
        },
        {
          "internalType": "bytes",
          "name": "data",
          "type": "bytes"
        }
      ],
      "name": "onERC721Received",
      "outputs": [
        {
          "internalType": "bytes4",
          "name": "",
          "type": "bytes4"
        }
      ],
      "stateMutability": "nonpayable",
      "type": "function"
    },
    {
      "inputs": [
        {
          "internalType": "address",
          "name": "operator",
          "type": "address"
        },
        {
          "internalType": "address",
          "name": "from",
          "type": "address"
        },
        {
          "internalType": "uint256[]",
          "name": "ids",
          "type": "uint256[]"
        },
        {
          "internalType": "uint256[]",
          "name": "values",
          "type": "uint256[]"
        },
        {
          "internalType": "bytes",
          "name": "data",
          "type": "bytes"
        }
      ],
      "name": "onERC1155BatchReceived",
      "outputs": [
        {
          "internalType": "bytes4",
          "name": "",
          "type": "bytes4"
        }
      ],
      "stateMutability": "nonpayable",
      "type": "function"
    }
  ],
  "bytecode": "0x60806040523480156200001157600080fd5b5060405162004ecc38038062004ecc833981810160405281019062000037919062000223565b828281600090816200004a919062000527565b5080600190816200005c919062000527565b5050506200006f6200007960201b60201c565b505050506200060e565b606060405180602001604052806000815250905090565b6000604051905090565b600080fd5b600080fd5b600080fd5b600080fd5b6000601f19601f8301169050919050565b7f4e487b7100000000000000000000000000000000000000000000000000000000600052604160045260246000fd5b620000f982620000ae565b810181811067ffffffffffffffff821117156200011b576200011a620000bf565b5b80604052505050565b60006200013062000090565b90506200013e8282620000ee565b919050565b600067ffffffffffffffff821115620001615762000160620000bf565b5b6200016c82620000ae565b9050602081019050919050565b60005b83811015620001995780820151818401526020810190506200017c565b60008484015250505050565b6000620001bc620001b68462000143565b62000124565b905082815260208101848484011115620001db57620001da620000a9565b5b620001e884828562000179565b509392505050565b600082601f830112620002085762000207620000a4565b5b81516200021a848260208601620001a5565b91505092915050565b6000806000606084860312156200023f576200023e6200009a565b5b600084015167ffffffffffffffff81111562000260576200025f6200009f565b5b6200026e86828701620001f0565b935050602084015167ffffffffffffffff8111156200029257620002916200009f565b5b620002a086828701620001f0565b925050604084015167ffffffffffffffff811115620002c457620002c36200009f565b5b620002d286828701620001f0565b9150509250925092565b600081519050919050565b7f4e487b7100000000000000000000000000000000000000000000000000000000600052602260045260246000fd5b600060028204905060018216806200032f57607f821691505b602082108103620003455762000344620002e7565b5b50919050565b60008190508160005260206000209050919050565b60006020601f8301049050919050565b600082821b905092915050565b600060088302620003af7fffffffffffffffffffffffffffffffffffffffffffffffffffffffffffffffff8262000370565b620003bb868362000370565b95508019841693508086168417925050509392505050565b6000819050919050565b6000819050919050565b60006200040862000402620003fc84620003d3565b620003dd565b620003d3565b9050919050565b6000819050919050565b6200042483620003e7565b6200043c62000433826200040f565b8484546200037d565b825550505050565b600090565b6200045362000444565b6200046081848462000419565b505050565b5b8181101562000488576200047c60008262000449565b60018101905062000466565b5050565b601f821115620004d757620004a1816200034b565b620004ac8462000360565b81016020851015620004bc578190505b620004d4620004cb8562000360565b83018262000465565b50505b505050565b600082821c905092915050565b6000620004fc60001984600802620004dc565b1980831691505092915050565b6000620005178383620004e9565b9150826002028217905092915050565b6200053282620002dc565b67ffffffffffffffff8111156200054e576200054d620000bf565b5b6200055a825462000316565b620005678282856200048c565b600060209050601f8311600181146200059f57600084156200058a578287015190505b62000596858262000509565b86555062000606565b601f198416620005af866200034b565b60005b82811015620005d957848901518255600182019150602085019450602081019050620005b2565b86831015620005f95784890151620005f5601f891682620004e9565b8355505b6001600288020188555050505b505050505050565b6148ae806200061e6000396000f3fe608060405234801561001057600080fd5b50600436106101ef5760003560e01c80637a6ce2e11161010f578063b88d4fde116100a2578063e2edee2b11610071578063e2edee2b1461064c578063e985e9c514610668578063eeaf2f0914610698578063f23a6e61146106c8576101ef565b8063b88d4fde146105a0578063bc197c81146105bc578063c41a360a146105ec578063c87b56dd1461061c576101ef565b80638f1cc0de116100de5780638f1cc0de1461051a57806395d89b41146105365780639fb64d8314610554578063a22cb46514610584576101ef565b80637a6ce2e1146104805780637a7c792f1461049e578063849c968c146104ba57806389e7e2f2146104ea576101ef565b806332085b65116101875780636352211e116101565780636352211e146103d257806366ceb7b8146104025780636f9bc25b1461042057806370a0823114610450576101ef565b806332085b651461033a57806342842e0e146103565780635fa030211461037257806360d4d23a146103a2576101ef565b8063095ea7b3116101c3578063095ea7b3146102a2578063150b7a02146102be57806317dd7623146102ee57806323b872dd1461031e576101ef565b80626174ca146101f457806301ffc9a71461022457806306fdde0314610254578063081812fc14610272575b600080fd5b61020e60048036038101906102099190612f15565b6106f8565b60405161021b9190612f51565b60405180910390f35b61023e60048036038101906102399190612fc4565b61071c565b60405161024b919061300c565b60405180910390f35b61025c6107fe565b60405161026991906130b7565b60405180910390f35b61028c60048036038101906102879190612f15565b610890565b604051610299919061311a565b60405180910390f35b6102bc60048036038101906102b79190613161565b6108d6565b005b6102d860048036038101906102d391906132d6565b6109ed565b6040516102e59190613368565b60405180910390f35b61030860048036038101906103039190613383565b610ad7565b604051610315919061311a565b60405180910390f35b610338600480360381019061033391906133c3565b610bd8565b005b610354600480360381019061034f91906134de565b610c38565b005b610370600480360381019061036b91906133c3565b610ee3565b005b61038c600480360381019061038791906135bf565b610f03565b60405161039991906136bd565b60405180910390f35b6103bc60048036038101906103b791906136df565b6110aa565b6040516103c99190612f51565b60405180910390f35b6103ec60048036038101906103e79190612f15565b611117565b6040516103f9919061311a565b60405180910390f35b61040a6111c8565b60405161041791906136bd565b60405180910390f35b61043a60048036038101906104359190612f15565b611220565b604051610447919061300c565b60405180910390f35b61046a60048036038101906104659190613732565b611240565b6040516104779190612f51565b60405180910390f35b6104886112f7565b604051610495919061311a565b60405180910390f35b6104b860048036038101906104b39190612f15565b611306565b005b6104d460048036038101906104cf9190612f15565b611332565b6040516104e1919061300c565b60405180910390f35b61050460048036038101906104ff9190612f15565b61135c565b604051610511919061381d565b60405180910390f35b610534600480360381019061052f919061383f565b611479565b005b61053e61177f565b60405161054b91906130b7565b60405180910390f35b61056e60048036038101906105699190612f15565b611811565b60405161057b919061300c565b60405180910390f35b61059e60048036038101906105999190613929565b611831565b005b6105ba60048036038101906105b591906132d6565b611847565b005b6105d660048036038101906105d19190613969565b6118a9565b6040516105e39190613368565b60405180910390f35b61060660048036038101906106019190612f15565b611a6e565b604051610613919061311a565b60405180910390f35b61063660048036038101906106319190612f15565b611a80565b60405161064391906130b7565b60405180910390f35b61066660048036038101906106619190612f15565b611ae8565b005b610682600480360381019061067d9190613a38565b611b17565b60405161068f919061300c565b60405180910390f35b6106b260048036038101906106ad91906136df565b611bab565b6040516106bf9190612f51565b60405180910390f35b6106e260048036038101906106dd9190613a78565b611bdd565b6040516106ef9190613368565b60405180910390f35b600c818154811061070857600080fd5b906000526020600020016000915090505481565b60007f80ac58cd000000000000000000000000000000000000000000000000000000007bffffffffffffffffffffffffffffffffffffffffffffffffffffffff1916827bffffffffffffffffffffffffffffffffffffffffffffffffffffffff191614806107e757507f5b5e139f000000000000000000000000000000000000000000000000000000007bffffffffffffffffffffffffffffffffffffffffffffffffffffffff1916827bffffffffffffffffffffffffffffffffffffffffffffffffffffffff1916145b806107f757506107f682611ce6565b5b9050919050565b60606000805461080d90613b3e565b80601f016020809104026020016040519081016040528092919081815260200182805461083990613b3e565b80156108865780601f1061085b57610100808354040283529160200191610886565b820191906000526020600020905b81548152906001019060200180831161086957829003601f168201915b5050505050905090565b600061089b82611d50565b6004600083815260200190815260200160002060009054906101000a900473ffffffffffffffffffffffffffffffffffffffff169050919050565b60006108e182611117565b90508073ffffffffffffffffffffffffffffffffffffffff168373ffffffffffffffffffffffffffffffffffffffff1603610951576040517f08c379a000000000000000000000000000000000000000000000000000000000815260040161094890613be1565b60405180910390fd5b8073ffffffffffffffffffffffffffffffffffffffff16610970611d9b565b73ffffffffffffffffffffffffffffffffffffffff16148061099f575061099e81610999611d9b565b611b17565b5b6109de576040517f08c379a00000000000000000000000000000000000000000000000000000000081526004016109d590613c73565b60405180910390fd5b6109e88383611da3565b505050565b60006020825114610a33576040517f08c379a0000000000000000000000000000000000000000000000000000000008152600401610a2a90613d2b565b60405180910390fd5b60008060206000369050610a479190613d7a565b905080359150610a5a8233876001611e5c565b3373ffffffffffffffffffffffffffffffffffffffff16828773ffffffffffffffffffffffffffffffffffffffff167fa18753b0660a8be2cdae03468c860b47c2926433ab16917f323544652803032d886001604051610abb929190613df3565b60405180910390a463150b7a0260e01b92505050949350505050565b600080600090505b610afa60086000868152602001908152602001600020611ff7565b811015610bcc57610b8783600960008781526020019081526020016000206000610b3f85600860008b815260200190815260200160002061200c90919063ffffffff16565b73ffffffffffffffffffffffffffffffffffffffff1673ffffffffffffffffffffffffffffffffffffffff16815260200190815260200160002061202690919063ffffffff16565b15610bb957610bb1816008600087815260200190815260200160002061200c90919063ffffffff16565b915050610bd2565b8080610bc490613e1c565b915050610adf565b50600090505b92915050565b610be9610be3611d9b565b82612040565b610c28576040517f08c379a0000000000000000000000000000000000000000000000000000000008152600401610c1f90613ed6565b60405180910390fd5b610c338383836120d5565b505050565b8151835114610c7c576040517f08c379a0000000000000000000000000000000000000000000000000000000008152600401610c7390613f68565b60405180910390fd5b600073ffffffffffffffffffffffffffffffffffffffff168573ffffffffffffffffffffffffffffffffffffffff1603610ceb576040517f08c379a0000000000000000000000000000000000000000000000000000000008152600401610ce290613ffa565b60405180910390fd5b6000610cf5611d9b565b90508073ffffffffffffffffffffffffffffffffffffffff16610d1788611117565b73ffffffffffffffffffffffffffffffffffffffff161480610d475750610d46610d4088611117565b82611b17565b5b610d86576040517f08c379a0000000000000000000000000000000000000000000000000000000008152600401610d7d9061408c565b60405180910390fd5b610d958188888888888861233b565b60005b8451811015610dfe576000858281518110610db657610db56140ac565b5b602002602001015190506000858381518110610dd557610dd46140ac565b5b60200260200101519050610deb8a898484612344565b505080610df790613e1c565b9050610d98565b508473ffffffffffffffffffffffffffffffffffffffff16632eb2c2d630888787876040518663ffffffff1660e01b8152600401610e40959493929190614130565b600060405180830381600087803b158015610e5a57600080fd5b505af1158015610e6e573d6000803e3d6000fd5b505050508473ffffffffffffffffffffffffffffffffffffffff168673ffffffffffffffffffffffffffffffffffffffff16887f5572be9c1bc39e4e277a34f64ccd0e84456dac3f33b0b1c458c12c402c6326a98787604051610ed2929190614198565b60405180910390a450505050505050565b610efe83838360405180602001604052806000815250611847565b505050565b60606000610f5f6009600086815260200190815260200160002060008573ffffffffffffffffffffffffffffffffffffffff1673ffffffffffffffffffffffffffffffffffffffff16815260200190815260200160002061261c565b67ffffffffffffffff811115610f7857610f776131ab565b5b604051908082528060200260200182016040528015610fa65781602001602082028036833780820191505090505b50905060005b6110046009600087815260200190815260200160002060008673ffffffffffffffffffffffffffffffffffffffff1673ffffffffffffffffffffffffffffffffffffffff16815260200190815260200160002061261c565b81101561109f5761106d816009600088815260200190815260200160002060008773ffffffffffffffffffffffffffffffffffffffff1673ffffffffffffffffffffffffffffffffffffffff16815260200190815260200160002061263190919063ffffffff16565b8282815181106110805761107f6140ac565b5b602002602001018181525050808061109790613e1c565b915050610fac565b508091505092915050565b60006006600085815260200190815260200160002060008473ffffffffffffffffffffffffffffffffffffffff1673ffffffffffffffffffffffffffffffffffffffff16815260200190815260200160002060008381526020019081526020016000205490509392505050565b6000806002600084815260200190815260200160002060009054906101000a900473ffffffffffffffffffffffffffffffffffffffff169050600073ffffffffffffffffffffffffffffffffffffffff168173ffffffffffffffffffffffffffffffffffffffff16036111bf576040517f08c379a00000000000000000000000000000000000000000000000000000000081526004016111b69061421b565b60405180910390fd5b80915050919050565b6060600c80548060200260200160405190810160405280929190818152602001828054801561121657602002820191906000526020600020905b815481526020019060010190808311611202575b5050505050905090565b600b6020528060005260406000206000915054906101000a900460ff1681565b60008073ffffffffffffffffffffffffffffffffffffffff168273ffffffffffffffffffffffffffffffffffffffff16036112b0576040517f08c379a00000000000000000000000000000000000000000000000000000000081526004016112a7906142ad565b60405180910390fd5b600360008373ffffffffffffffffffffffffffffffffffffffff1673ffffffffffffffffffffffffffffffffffffffff168152602001908152602001600020549050919050565b6000611301611d9b565b905090565b600c81908060018154018082558091505060019003906000526020600020016000909190919091505550565b6000600b600083815260200190815260200160002060009054906101000a900460ff169050919050565b6060600061137b60086000858152602001908152602001600020611ff7565b67ffffffffffffffff811115611394576113936131ab565b5b6040519080825280602002602001820160405280156113c25781602001602082028036833780820191505090505b50905060005b6113e360086000868152602001908152602001600020611ff7565b81101561146f5761140f816008600087815260200190815260200160002061200c90919063ffffffff16565b828281518110611422576114216140ac565b5b602002602001019073ffffffffffffffffffffffffffffffffffffffff16908173ffffffffffffffffffffffffffffffffffffffff1681525050808061146790613e1c565b9150506113c8565b5080915050919050565b600073ffffffffffffffffffffffffffffffffffffffff168573ffffffffffffffffffffffffffffffffffffffff16036114e8576040517f08c379a00000000000000000000000000000000000000000000000000000000081526004016114df90613ffa565b60405180910390fd5b60006114f2611d9b565b90508073ffffffffffffffffffffffffffffffffffffffff1661151488611117565b73ffffffffffffffffffffffffffffffffffffffff161461156a576040517f08c379a00000000000000000000000000000000000000000000000000000000081526004016115619061408c565b60405180910390fd5b6115898189888861157a8961264b565b6115838961264b565b8861233b565b61159588868686612344565b600b600085815260200190815260200160002060009054906101000a900460ff161561169b578473ffffffffffffffffffffffffffffffffffffffff1663f242432a30888787876040518663ffffffff1660e01b81526004016115fc9594939291906142cd565b600060405180830381600087803b15801561161657600080fd5b505af115801561162a573d6000803e3d6000fd5b505050508473ffffffffffffffffffffffffffffffffffffffff168673ffffffffffffffffffffffffffffffffffffffff16897f9d6259404dec52b3d5d220f5b8e5d05cc05ec908e1bc320aa46793e3091e5194878760405161168e929190614327565b60405180910390a4611775565b8473ffffffffffffffffffffffffffffffffffffffff1663b88d4fde308887866040518563ffffffff1660e01b81526004016116da9493929190614350565b600060405180830381600087803b1580156116f457600080fd5b505af1158015611708573d6000803e3d6000fd5b505050508473ffffffffffffffffffffffffffffffffffffffff168673ffffffffffffffffffffffffffffffffffffffff16897f9d6259404dec52b3d5d220f5b8e5d05cc05ec908e1bc320aa46793e3091e5194878760405161176c929190614327565b60405180910390a45b5050505050505050565b60606001805461178e90613b3e565b80601f01602080910402602001604051908101604052809291908181526020018280546117ba90613b3e565b80156118075780601f106117dc57610100808354040283529160200191611807565b820191906000526020600020905b8154815290600101906020018083116117ea57829003601f168201915b5050505050905090565b600a6020528060005260406000206000915054906101000a900460ff1681565b61184361183c611d9b565b83836126c5565b5050565b611858611852611d9b565b83612040565b611897576040517f08c379a000000000000000000000000000000000000000000000000000000000815260040161188e90613ed6565b60405180910390fd5b6118a384848484612831565b50505050565b600060208251146118ef576040517f08c379a00000000000000000000000000000000000000000000000000000000081526004016118e690613d2b565b60405180910390fd5b8251845114611933576040517f08c379a000000000000000000000000000000000000000000000000000000000815260040161192a9061440e565b60405180910390fd5b611943866000308888888861233b565b600080602060003690506119579190613d7a565b90508035915060005b8651811015611a58576119a98333898481518110611981576119806140ac565b5b602002602001015189858151811061199c5761199b6140ac565b5b6020026020010151611e5c565b3373ffffffffffffffffffffffffffffffffffffffff16838973ffffffffffffffffffffffffffffffffffffffff167fa18753b0660a8be2cdae03468c860b47c2926433ab16917f323544652803032d8a8581518110611a0c57611a0b6140ac565b5b60200260200101518a8681518110611a2757611a266140ac565b5b6020026020010151604051611a3d929190614327565b60405180910390a48080611a5090613e1c565b915050611960565b5063bc197c8160e01b9250505095945050505050565b6000611a7982611117565b9050919050565b6060611a8b82611d50565b6000611a9561288d565b90506000815111611ab55760405180602001604052806000815250611ae0565b80611abf846128a4565b604051602001611ad092919061446a565b6040516020818303038152906040525b915050919050565b6001600b600083815260200190815260200160002060006101000a81548160ff02191690831515021790555050565b6000600560008473ffffffffffffffffffffffffffffffffffffffff1673ffffffffffffffffffffffffffffffffffffffff16815260200190815260200160002060008373ffffffffffffffffffffffffffffffffffffffff1673ffffffffffffffffffffffffffffffffffffffff16815260200190815260200160002060009054906101000a900460ff16905092915050565b600660205282600052604060002060205281600052604060002060205280600052604060002060009250925050505481565b60006020825114611c23576040517f08c379a0000000000000000000000000000000000000000000000000000000008152600401611c1a90613d2b565b60405180910390fd5b611c438660003088611c348961264b565b611c3d8961264b565b8861233b565b60008060206000369050611c579190613d7a565b905080359150611c6982338888611e5c565b3373ffffffffffffffffffffffffffffffffffffffff16828873ffffffffffffffffffffffffffffffffffffffff167fa18753b0660a8be2cdae03468c860b47c2926433ab16917f323544652803032d8989604051611cc9929190614327565b60405180910390a463f23a6e6160e01b9250505095945050505050565b60007f01ffc9a7000000000000000000000000000000000000000000000000000000007bffffffffffffffffffffffffffffffffffffffffffffffffffffffff1916827bffffffffffffffffffffffffffffffffffffffffffffffffffffffff1916149050919050565b611d5981612a04565b611d98576040517f08c379a0000000000000000000000000000000000000000000000000000000008152600401611d8f9061421b565b60405180910390fd5b50565b600033905090565b816004600083815260200190815260200160002060006101000a81548173ffffffffffffffffffffffffffffffffffffffff021916908373ffffffffffffffffffffffffffffffffffffffff160217905550808273ffffffffffffffffffffffffffffffffffffffff16611e1683611117565b73ffffffffffffffffffffffffffffffffffffffff167f8c5be1e5ebec7d5bd14f71427d1e84f3dd0314c0f7b2291e5b200ac8c7c3b92560405160405180910390a45050565b611e818360086000878152602001908152602001600020612a7090919063ffffffff16565b611eac57611eaa8360086000878152602001908152602001600020612aa090919063ffffffff16565b505b60006006600086815260200190815260200160002060008573ffffffffffffffffffffffffffffffffffffffff1673ffffffffffffffffffffffffffffffffffffffff16815260200190815260200160002060008481526020019081526020016000205403611f7957611f77826009600087815260200190815260200160002060008673ffffffffffffffffffffffffffffffffffffffff1673ffffffffffffffffffffffffffffffffffffffff168152602001908152602001600020612ad090919063ffffffff16565b505b806006600086815260200190815260200160002060008573ffffffffffffffffffffffffffffffffffffffff1673ffffffffffffffffffffffffffffffffffffffff16815260200190815260200160002060008481526020019081526020016000206000828254611fea919061448e565b9250508190555050505050565b600061200582600001612aea565b9050919050565b600061201b8360000183612afb565b60001c905092915050565b6000612038836000018360001b612b26565b905092915050565b60008061204c83611117565b90508073ffffffffffffffffffffffffffffffffffffffff168473ffffffffffffffffffffffffffffffffffffffff16148061208e575061208d8185611b17565b5b806120cc57508373ffffffffffffffffffffffffffffffffffffffff166120b484610890565b73ffffffffffffffffffffffffffffffffffffffff16145b91505092915050565b8273ffffffffffffffffffffffffffffffffffffffff166120f582611117565b73ffffffffffffffffffffffffffffffffffffffff161461214b576040517f08c379a000000000000000000000000000000000000000000000000000000000815260040161214290614534565b60405180910390fd5b600073ffffffffffffffffffffffffffffffffffffffff168273ffffffffffffffffffffffffffffffffffffffff16036121ba576040517f08c379a00000000000000000000000000000000000000000000000000000000081526004016121b1906145c6565b60405180910390fd5b6121c5838383612b49565b6121d0600082611da3565b6001600360008573ffffffffffffffffffffffffffffffffffffffff1673ffffffffffffffffffffffffffffffffffffffff16815260200190815260200160002060008282546122209190613d7a565b925050819055506001600360008473ffffffffffffffffffffffffffffffffffffffff1673ffffffffffffffffffffffffffffffffffffffff1681526020019081526020016000206000828254612277919061448e565b92505081905550816002600083815260200190815260200160002060006101000a81548173ffffffffffffffffffffffffffffffffffffffff021916908373ffffffffffffffffffffffffffffffffffffffff160217905550808273ffffffffffffffffffffffffffffffffffffffff168473ffffffffffffffffffffffffffffffffffffffff167fddf252ad1be2c89b69c2b068fc378daa952ba7f163c4a11628f55a4df523b3ef60405160405180910390a4612336838383612b4e565b505050565b50505050505050565b806006600086815260200190815260200160002060008573ffffffffffffffffffffffffffffffffffffffff1673ffffffffffffffffffffffffffffffffffffffff16815260200190815260200160002060008481526020019081526020016000205410156123e8576040517f08c379a00000000000000000000000000000000000000000000000000000000081526004016123df90614658565b60405180910390fd5b806006600086815260200190815260200160002060008573ffffffffffffffffffffffffffffffffffffffff1673ffffffffffffffffffffffffffffffffffffffff168152602001908152602001600020600084815260200190815260200160002060008282546124599190613d7a565b9250508190555060006006600086815260200190815260200160002060008573ffffffffffffffffffffffffffffffffffffffff1673ffffffffffffffffffffffffffffffffffffffff168152602001908152602001600020600084815260200190815260200160002054036126165761252b84600760008673ffffffffffffffffffffffffffffffffffffffff1673ffffffffffffffffffffffffffffffffffffffff1681526020019081526020016000206000858152602001908152602001600020612b5390919063ffffffff16565b5061258e826009600087815260200190815260200160002060008673ffffffffffffffffffffffffffffffffffffffff1673ffffffffffffffffffffffffffffffffffffffff168152602001908152602001600020612b5390919063ffffffff16565b5060006125e96009600087815260200190815260200160002060008673ffffffffffffffffffffffffffffffffffffffff1673ffffffffffffffffffffffffffffffffffffffff16815260200190815260200160002061261c565b03612615576126138360086000878152602001908152602001600020612b6d90919063ffffffff16565b505b5b50505050565b600061262a82600001612aea565b9050919050565b60006126408360000183612afb565b60001c905092915050565b60606000600167ffffffffffffffff81111561266a576126696131ab565b5b6040519080825280602002602001820160405280156126985781602001602082028036833780820191505090505b50905082816000815181106126b0576126af6140ac565b5b60200260200101818152505080915050919050565b8173ffffffffffffffffffffffffffffffffffffffff168373ffffffffffffffffffffffffffffffffffffffff1603612733576040517f08c379a000000000000000000000000000000000000000000000000000000000815260040161272a906146c4565b60405180910390fd5b80600560008573ffffffffffffffffffffffffffffffffffffffff1673ffffffffffffffffffffffffffffffffffffffff16815260200190815260200160002060008473ffffffffffffffffffffffffffffffffffffffff1673ffffffffffffffffffffffffffffffffffffffff16815260200190815260200160002060006101000a81548160ff0219169083151502179055508173ffffffffffffffffffffffffffffffffffffffff168373ffffffffffffffffffffffffffffffffffffffff167f17307eab39ab6107e8899845ad3d59bd9653f200f220920489ca2b5937696c3183604051612824919061300c565b60405180910390a3505050565b61283c8484846120d5565b61284884848484612b9d565b612887576040517f08c379a000000000000000000000000000000000000000000000000000000000815260040161287e90614756565b60405180910390fd5b50505050565b606060405180602001604052806000815250905090565b6060600082036128eb576040518060400160405280600181526020017f300000000000000000000000000000000000000000000000000000000000000081525090506129ff565b600082905060005b6000821461291d57808061290690613e1c565b915050600a8261291691906147a5565b91506128f3565b60008167ffffffffffffffff811115612939576129386131ab565b5b6040519080825280601f01601f19166020018201604052801561296b5781602001600182028036833780820191505090505b5090505b600085146129f8576001826129849190613d7a565b9150600a8561299391906147d6565b603061299f919061448e565b60f81b8183815181106129b5576129b46140ac565b5b60200101907effffffffffffffffffffffffffffffffffffffffffffffffffffffffffffff1916908160001a905350600a856129f191906147a5565b945061296f565b8093505050505b919050565b60008073ffffffffffffffffffffffffffffffffffffffff166002600084815260200190815260200160002060009054906101000a900473ffffffffffffffffffffffffffffffffffffffff1673ffffffffffffffffffffffffffffffffffffffff1614159050919050565b6000612a98836000018373ffffffffffffffffffffffffffffffffffffffff1660001b612b26565b905092915050565b6000612ac8836000018373ffffffffffffffffffffffffffffffffffffffff1660001b612d24565b905092915050565b6000612ae2836000018360001b612d24565b905092915050565b600081600001805490509050919050565b6000826000018281548110612b1357612b126140ac565b5b9060005260206000200154905092915050565b600080836001016000848152602001908152602001600020541415905092915050565b505050565b505050565b6000612b65836000018360001b612d94565b905092915050565b6000612b95836000018373ffffffffffffffffffffffffffffffffffffffff1660001b612d94565b905092915050565b6000612bbe8473ffffffffffffffffffffffffffffffffffffffff16612ea8565b15612d17578373ffffffffffffffffffffffffffffffffffffffff1663150b7a02612be7611d9b565b8786866040518563ffffffff1660e01b8152600401612c099493929190614350565b6020604051808303816000875af1925050508015612c4557506040513d601f19601f82011682018060405250810190612c42919061481c565b60015b612cc7573d8060008114612c75576040519150601f19603f3d011682016040523d82523d6000602084013e612c7a565b606091505b506000815103612cbf576040517f08c379a0000000000000000000000000000000000000000000000000000000008152600401612cb690614756565b60405180910390fd5b805181602001fd5b63150b7a0260e01b7bffffffffffffffffffffffffffffffffffffffffffffffffffffffff1916817bffffffffffffffffffffffffffffffffffffffffffffffffffffffff191614915050612d1c565b600190505b949350505050565b6000612d308383612b26565b612d89578260000182908060018154018082558091505060019003906000526020600020016000909190919091505582600001805490508360010160008481526020019081526020016000208190555060019050612d8e565b600090505b92915050565b60008083600101600084815260200190815260200160002054905060008114612e9c576000600182612dc69190613d7a565b9050600060018660000180549050612dde9190613d7a565b9050818114612e4d576000866000018281548110612dff57612dfe6140ac565b5b9060005260206000200154905080876000018481548110612e2357612e226140ac565b5b90600052602060002001819055508387600101600083815260200190815260200160002081905550505b85600001805480612e6157612e60614849565b5b600190038181906000526020600020016000905590558560010160008681526020019081526020016000206000905560019350505050612ea2565b60009150505b92915050565b6000808273ffffffffffffffffffffffffffffffffffffffff163b119050919050565b6000604051905090565b600080fd5b600080fd5b6000819050919050565b612ef281612edf565b8114612efd57600080fd5b50565b600081359050612f0f81612ee9565b92915050565b600060208284031215612f2b57612f2a612ed5565b5b6000612f3984828501612f00565b91505092915050565b612f4b81612edf565b82525050565b6000602082019050612f666000830184612f42565b92915050565b60007fffffffff0000000000000000000000000000000000000000000000000000000082169050919050565b612fa181612f6c565b8114612fac57600080fd5b50565b600081359050612fbe81612f98565b92915050565b600060208284031215612fda57612fd9612ed5565b5b6000612fe884828501612faf565b91505092915050565b60008115159050919050565b61300681612ff1565b82525050565b60006020820190506130216000830184612ffd565b92915050565b600081519050919050565b600082825260208201905092915050565b60005b83811015613061578082015181840152602081019050613046565b60008484015250505050565b6000601f19601f8301169050919050565b600061308982613027565b6130938185613032565b93506130a3818560208601613043565b6130ac8161306d565b840191505092915050565b600060208201905081810360008301526130d1818461307e565b905092915050565b600073ffffffffffffffffffffffffffffffffffffffff82169050919050565b6000613104826130d9565b9050919050565b613114816130f9565b82525050565b600060208201905061312f600083018461310b565b92915050565b61313e816130f9565b811461314957600080fd5b50565b60008135905061315b81613135565b92915050565b6000806040838503121561317857613177612ed5565b5b60006131868582860161314c565b925050602061319785828601612f00565b9150509250929050565b600080fd5b600080fd5b7f4e487b7100000000000000000000000000000000000000000000000000000000600052604160045260246000fd5b6131e38261306d565b810181811067ffffffffffffffff82111715613202576132016131ab565b5b80604052505050565b6000613215612ecb565b905061322182826131da565b919050565b600067ffffffffffffffff821115613241576132406131ab565b5b61324a8261306d565b9050602081019050919050565b82818337600083830152505050565b600061327961327484613226565b61320b565b905082815260208101848484011115613295576132946131a6565b5b6132a0848285613257565b509392505050565b600082601f8301126132bd576132bc6131a1565b5b81356132cd848260208601613266565b91505092915050565b600080600080608085870312156132f0576132ef612ed5565b5b60006132fe8782880161314c565b945050602061330f8782880161314c565b935050604061332087828801612f00565b925050606085013567ffffffffffffffff81111561334157613340612eda565b5b61334d878288016132a8565b91505092959194509250565b61336281612f6c565b82525050565b600060208201905061337d6000830184613359565b92915050565b6000806040838503121561339a57613399612ed5565b5b60006133a885828601612f00565b92505060206133b985828601612f00565b9150509250929050565b6000806000606084860312156133dc576133db612ed5565b5b60006133ea8682870161314c565b93505060206133fb8682870161314c565b925050604061340c86828701612f00565b9150509250925092565b600067ffffffffffffffff821115613431576134306131ab565b5b602082029050602081019050919050565b600080fd5b600061345a61345584613416565b61320b565b9050808382526020820190506020840283018581111561347d5761347c613442565b5b835b818110156134a657806134928882612f00565b84526020840193505060208101905061347f565b5050509392505050565b600082601f8301126134c5576134c46131a1565b5b81356134d5848260208601613447565b91505092915050565b60008060008060008060c087890312156134fb576134fa612ed5565b5b600061350989828a01612f00565b965050602061351a89828a0161314c565b955050604061352b89828a0161314c565b945050606087013567ffffffffffffffff81111561354c5761354b612eda565b5b61355889828a016134b0565b935050608087013567ffffffffffffffff81111561357957613578612eda565b5b61358589828a016134b0565b92505060a087013567ffffffffffffffff8111156135a6576135a5612eda565b5b6135b289828a016132a8565b9150509295509295509295565b600080604083850312156135d6576135d5612ed5565b5b60006135e485828601612f00565b92505060206135f58582860161314c565b9150509250929050565b600081519050919050565b600082825260208201905092915050565b6000819050602082019050919050565b61363481612edf565b82525050565b6000613646838361362b565b60208301905092915050565b6000602082019050919050565b600061366a826135ff565b613674818561360a565b935061367f8361361b565b8060005b838110156136b0578151613697888261363a565b97506136a283613652565b925050600181019050613683565b5085935050505092915050565b600060208201905081810360008301526136d7818461365f565b905092915050565b6000806000606084860312156136f8576136f7612ed5565b5b600061370686828701612f00565b93505060206137178682870161314c565b925050604061372886828701612f00565b9150509250925092565b60006020828403121561374857613747612ed5565b5b60006137568482850161314c565b91505092915050565b600081519050919050565b600082825260208201905092915050565b6000819050602082019050919050565b613794816130f9565b82525050565b60006137a6838361378b565b60208301905092915050565b6000602082019050919050565b60006137ca8261375f565b6137d4818561376a565b93506137df8361377b565b8060005b838110156138105781516137f7888261379a565b9750613802836137b2565b9250506001810190506137e3565b5085935050505092915050565b6000602082019050818103600083015261383781846137bf565b905092915050565b600080600080600080600060e0888a03121561385e5761385d612ed5565b5b600061386c8a828b01612f00565b975050602061387d8a828b01612f00565b965050604061388e8a828b0161314c565b955050606061389f8a828b0161314c565b94505060806138b08a828b01612f00565b93505060a06138c18a828b01612f00565b92505060c088013567ffffffffffffffff8111156138e2576138e1612eda565b5b6138ee8a828b016132a8565b91505092959891949750929550565b61390681612ff1565b811461391157600080fd5b50565b600081359050613923816138fd565b92915050565b600080604083850312156139405761393f612ed5565b5b600061394e8582860161314c565b925050602061395f85828601613914565b9150509250929050565b600080600080600060a0868803121561398557613984612ed5565b5b60006139938882890161314c565b95505060206139a48882890161314c565b945050604086013567ffffffffffffffff8111156139c5576139c4612eda565b5b6139d1888289016134b0565b935050606086013567ffffffffffffffff8111156139f2576139f1612eda565b5b6139fe888289016134b0565b925050608086013567ffffffffffffffff811115613a1f57613a1e612eda565b5b613a2b888289016132a8565b9150509295509295909350565b60008060408385031215613a4f57613a4e612ed5565b5b6000613a5d8582860161314c565b9250506020613a6e8582860161314c565b9150509250929050565b600080600080600060a08688031215613a9457613a93612ed5565b5b6000613aa28882890161314c565b9550506020613ab38882890161314c565b9450506040613ac488828901612f00565b9350506060613ad588828901612f00565b925050608086013567ffffffffffffffff811115613af657613af5612eda565b5b613b02888289016132a8565b9150509295509295909350565b7f4e487b7100000000000000000000000000000000000000000000000000000000600052602260045260246000fd5b60006002820490506001821680613b5657607f821691505b602082108103613b6957613b68613b0f565b5b50919050565b7f4552433732313a20617070726f76616c20746f2063757272656e74206f776e6560008201527f7200000000000000000000000000000000000000000000000000000000000000602082015250565b6000613bcb602183613032565b9150613bd682613b6f565b604082019050919050565b60006020820190508181036000830152613bfa81613bbe565b9050919050565b7f4552433732313a20617070726f76652063616c6c6572206973206e6f7420746f60008201527f6b656e206f776e6572206e6f7220617070726f76656420666f7220616c6c0000602082015250565b6000613c5d603e83613032565b9150613c6882613c01565b604082019050919050565b60006020820190508181036000830152613c8c81613c50565b9050919050565b7f4552433939383a2064617461206d75737420636f6e7461696e2074686520756e60008201527f697175652075696e7432353620746f6b656e496420746f207472616e7366657260208201527f20746865206368696c6420746f6b656e20746f00000000000000000000000000604082015250565b6000613d15605383613032565b9150613d2082613c93565b606082019050919050565b60006020820190508181036000830152613d4481613d08565b9050919050565b7f4e487b7100000000000000000000000000000000000000000000000000000000600052601160045260246000fd5b6000613d8582612edf565b9150613d9083612edf565b9250828203905081811115613da857613da7613d4b565b5b92915050565b6000819050919050565b6000819050919050565b6000613ddd613dd8613dd384613dae565b613db8565b612edf565b9050919050565b613ded81613dc2565b82525050565b6000604082019050613e086000830185612f42565b613e156020830184613de4565b9392505050565b6000613e2782612edf565b91507fffffffffffffffffffffffffffffffffffffffffffffffffffffffffffffffff8203613e5957613e58613d4b565b5b600182019050919050565b7f4552433732313a2063616c6c6572206973206e6f7420746f6b656e206f776e6560008201527f72206e6f7220617070726f766564000000000000000000000000000000000000602082015250565b6000613ec0602e83613032565b9150613ecb82613e64565b604082019050919050565b60006020820190508181036000830152613eef81613eb3565b9050919050565b7f4552433939383a2069647320616e6420616d6f756e7473206c656e677468206d60008201527f69736d6174636800000000000000000000000000000000000000000000000000602082015250565b6000613f52602783613032565b9150613f5d82613ef6565b604082019050919050565b60006020820190508181036000830152613f8181613f45565b9050919050565b7f4552433939383a207472616e7366657220746f20746865207a65726f2061646460008201527f7265737300000000000000000000000000000000000000000000000000000000602082015250565b6000613fe4602483613032565b9150613fef82613f88565b604082019050919050565b6000602082019050818103600083015261401381613fd7565b9050919050565b7f4552433939383a2063616c6c6572206973206e6f74206f776e6572206e6f722060008201527f617070726f766564000000000000000000000000000000000000000000000000602082015250565b6000614076602883613032565b91506140818261401a565b604082019050919050565b600060208201905081810360008301526140a581614069565b9050919050565b7f4e487b7100000000000000000000000000000000000000000000000000000000600052603260045260246000fd5b600081519050919050565b600082825260208201905092915050565b6000614102826140db565b61410c81856140e6565b935061411c818560208601613043565b6141258161306d565b840191505092915050565b600060a082019050614145600083018861310b565b614152602083018761310b565b8181036040830152614164818661365f565b90508181036060830152614178818561365f565b9050818103608083015261418c81846140f7565b90509695505050505050565b600060408201905081810360008301526141b2818561365f565b905081810360208301526141c6818461365f565b90509392505050565b7f4552433732313a20696e76616c696420746f6b656e2049440000000000000000600082015250565b6000614205601883613032565b9150614210826141cf565b602082019050919050565b60006020820190508181036000830152614234816141f8565b9050919050565b7f4552433732313a2061646472657373207a65726f206973206e6f74206120766160008201527f6c6964206f776e65720000000000000000000000000000000000000000000000602082015250565b6000614297602983613032565b91506142a28261423b565b604082019050919050565b600060208201905081810360008301526142c68161428a565b9050919050565b600060a0820190506142e2600083018861310b565b6142ef602083018761310b565b6142fc6040830186612f42565b6143096060830185612f42565b818103608083015261431b81846140f7565b90509695505050505050565b600060408201905061433c6000830185612f42565b6143496020830184612f42565b9392505050565b6000608082019050614365600083018761310b565b614372602083018661310b565b61437f6040830185612f42565b818103606083015261439181846140f7565b905095945050505050565b7f455243313135353a2069647320616e642076616c756573206c656e677468206d60008201527f69736d6174636800000000000000000000000000000000000000000000000000602082015250565b60006143f8602783613032565b91506144038261439c565b604082019050919050565b60006020820190508181036000830152614427816143eb565b9050919050565b600081905092915050565b600061444482613027565b61444e818561442e565b935061445e818560208601613043565b80840191505092915050565b60006144768285614439565b91506144828284614439565b91508190509392505050565b600061449982612edf565b91506144a483612edf565b92508282019050808211156144bc576144bb613d4b565b5b92915050565b7f4552433732313a207472616e736665722066726f6d20696e636f72726563742060008201527f6f776e6572000000000000000000000000000000000000000000000000000000602082015250565b600061451e602583613032565b9150614529826144c2565b604082019050919050565b6000602082019050818103600083015261454d81614511565b9050919050565b7f4552433732313a207472616e7366657220746f20746865207a65726f2061646460008201527f7265737300000000000000000000000000000000000000000000000000000000602082015250565b60006145b0602483613032565b91506145bb82614554565b604082019050919050565b600060208201905081810360008301526145df816145a3565b9050919050565b7f4552433939383a20696e73756666696369656e74206368696c642062616c616e60008201527f636520666f72207472616e736665720000000000000000000000000000000000602082015250565b6000614642602f83613032565b915061464d826145e6565b604082019050919050565b6000602082019050818103600083015261467181614635565b9050919050565b7f4552433732313a20617070726f766520746f2063616c6c657200000000000000600082015250565b60006146ae601983613032565b91506146b982614678565b602082019050919050565b600060208201905081810360008301526146dd816146a1565b9050919050565b7f4552433732313a207472616e7366657220746f206e6f6e20455243373231526560008201527f63656976657220696d706c656d656e7465720000000000000000000000000000602082015250565b6000614740603283613032565b915061474b826146e4565b604082019050919050565b6000602082019050818103600083015261476f81614733565b9050919050565b7f4e487b7100000000000000000000000000000000000000000000000000000000600052601260045260246000fd5b60006147b082612edf565b91506147bb83612edf565b9250826147cb576147ca614776565b5b828204905092915050565b60006147e182612edf565b91506147ec83612edf565b9250826147fc576147fb614776565b5b828206905092915050565b60008151905061481681612f98565b92915050565b60006020828403121561483257614831612ed5565b5b600061484084828501614807565b91505092915050565b7f4e487b7100000000000000000000000000000000000000000000000000000000600052603160045260246000fdfea264697066735822122057f2f253e697a097c4fad320a9ebb52606a977e2c44b0756594c74da5d8a0a4364736f6c63430008110033",
  "immutableReferences": {},
  "source": "// SPDX-License-Identifier: UNLICENSED\r\n\r\npragma solidity ^0.8.0;\r\n\r\n/*\r\n// for remix\r\nimport \"https://github.com/OpenZeppelin/openzeppelin-contracts/blob/master/contracts/token/ERC1155/ERC1155.sol\";\r\nimport \"https://github.com/OpenZeppelin/openzeppelin-contracts/blob/master/contracts/token/ERC1155/ERC1155Receiver.sol\";\r\nimport \"https://github.com/OpenZeppelin/openzeppelin-contracts/blob/master/contracts/token/ERC721/ERC721.sol\";\r\nimport \"https://github.com/OpenZeppelin/openzeppelin-contracts/blob/master/contracts/utils/EnumerableSet.sol\";\r\n*/\r\n\r\nimport \"@openzeppelin/contracts/token/ERC1155/ERC1155.sol\";\r\nimport \"@openzeppelin/contracts/token/ERC1155/IERC1155Receiver.sol\";\r\nimport \"@openzeppelin/contracts/token/ERC721/ERC721.sol\";\r\nimport \"@openzeppelin/contracts/token/ERC721/IERC721Receiver.sol\";\r\nimport \"@openzeppelin/contracts/utils/structs/EnumerableSet.sol\";\r\n\r\nimport \"./IERC998ERC1155TopDown.sol\";\r\n\r\ncontract ERC998ERC1155TopDown is ERC721, IERC1155Receiver, IERC998ERC1155TopDown, IERC721Receiver {\r\n    using EnumerableSet for EnumerableSet.AddressSet;\r\n    using EnumerableSet for EnumerableSet.UintSet;\r\n\r\n    mapping(uint256 => mapping(address => mapping(uint256 => uint256))) public _balances;\r\n    mapping(address => mapping(uint256 => EnumerableSet.UintSet)) private _holdersOf;\r\n\r\n    mapping(uint256 => EnumerableSet.AddressSet) private _childContract;\r\n    mapping(uint256 => mapping(address => EnumerableSet.UintSet)) private _childsForChildContract;\r\n\r\n    mapping(uint256 => bool) public isERC721;\r\n    mapping(uint256 => bool) public isERC1155;\r\n\r\n    uint256[] public rootOwners;\r\n\r\n    constructor(string memory name, string memory symbol, string memory baseURI) ERC721(name, symbol) public {\r\n        _baseURI();\r\n    }\r\n\r\n    /**\r\n     * @dev Gives child balance for a specific child contract and child id .\r\n     */\r\n    function childBalance(uint256 tokenId, address childContract, uint256 childTokenId) external view override returns(uint256) {\r\n        return _balances[tokenId][childContract][childTokenId];\r\n    }\r\n\r\n    /**\r\n     * @dev Gives list of child contract where token ID has childs.\r\n     */\r\n    function childContractsFor(uint256 tokenId) override external view returns (address[] memory) {\r\n        address[] memory childContracts = new address[](_childContract[tokenId].length());\r\n\r\n        for(uint256 i = 0; i < _childContract[tokenId].length(); i++) {\r\n            childContracts[i] = _childContract[tokenId].at(i);\r\n        }\r\n\r\n        return childContracts;\r\n    }\r\n\r\n    /**\r\n     * @dev Gives list of owned child ID on a child contract by parent token ID and child contract.\r\n     */\r\n    function childIdsOwned(uint256 tokenId, address childContract) override external view returns (uint256[] memory) {\r\n        uint256[] memory childTokenIds = new uint256[](_childsForChildContract[tokenId][childContract].length());\r\n\r\n        for(uint256 i = 0; i < _childsForChildContract[tokenId][childContract].length(); i++) {\r\n            childTokenIds[i] = _childsForChildContract[tokenId][childContract].at(i);\r\n        }\r\n\r\n        return childTokenIds;\r\n    }\r\n\r\n    /**\r\n     * @dev set root owner\r\n     */\r\n    function setRootOwner(uint256 id) public {\r\n        rootOwners.push(id);\r\n    }\r\n\r\n    /**\r\n     * @dev gets root owners\r\n     */\r\n    function getRootOwners() external view returns(uint256 [] memory){\r\n        return rootOwners;\r\n    }\r\n\r\n    // /**\r\n    //  * @dev gets root owner for child\r\n    //  */\r\n    // function getRootOwnerID(uint256 childID, address childContract) external view returns(uint256){\r\n    //     uint256 ro = 0;\r\n    //     for(uint256 i = 0; i < rootOwners.length; i++){\r\n    //         uint256[] memory childTokenIds = childIdsOwned(i, childContract);\r\n    //         for(uint256 j = 0; j < childTokenIds.length; j++){\r\n    //             if(j == childID){\r\n    //                 ro = i;\r\n    //             }\r\n    //         }\r\n    //     }\r\n\r\n    //     return ro;\r\n    // }\r\n\r\n    /**\r\n     * @dev Transfers child token from a token ID.\r\n     */\r\n    function safeTransferChildFrom(uint256 fromTokenId, uint256 root, address to, address childContract, uint256 childTokenId, uint256 amount, bytes memory data) public override {\r\n        require(to != address(0), \"ERC998: transfer to the zero address\");\r\n\r\n        address operator = _msgSender();\r\n        // uint256 o = _holdersOf[childContract][childTokenId];\r\n        require(\r\n            ownerOf(root) == operator,\r\n            \"ERC998: caller is not owner nor approved\"\r\n        );\r\n\r\n        _beforeChildTransfer(operator, fromTokenId, to, childContract, _asSingletonArray(childTokenId), _asSingletonArray(amount), data);\r\n\r\n        _removeChild(fromTokenId, childContract, childTokenId, amount);\r\n\r\n        // TODO: maybe check if to == this\r\n        if(isERC1155[childTokenId]){\r\n            ERC1155(childContract).safeTransferFrom(address(this), to, childTokenId, amount, data);\r\n            emit TransferSingleChild(fromTokenId, to, childContract, childTokenId, amount);\r\n        } else {\r\n            ERC721(childContract).safeTransferFrom(address(this), to, childTokenId, data);\r\n            emit TransferSingleChild(fromTokenId, to, childContract, childTokenId, amount);\r\n        }\r\n        \r\n       \r\n        \r\n        \r\n    }\r\n\r\n\r\n\r\n\r\n    /**\r\n     * @dev Returns the owner of the token specified by tokenId. Wrapper function for ERC721 function ownerOf(). \r\n    */\r\n    function getOwner(uint256 tokenID) external view returns(address){\r\n        return ownerOf(tokenID);\r\n    }\r\n\r\n\r\n    /**\r\n     * @dev Sets isERC1155 array \r\n    */\r\n    function setIsERC1155(uint256 tokenID) public {\r\n        isERC1155[tokenID] = true;\r\n    }\r\n\r\n    // /**\r\n    //  * @dev gets true if tokenID is ERC721\r\n    // */\r\n    // function getIsERC721(uint256 tokenID) external view returns(bool) {\r\n    //     return isERC721[tokenID];\r\n    // }\r\n\r\n    // /**\r\n    //  * @dev Sets isERC721 array \r\n    // */\r\n    // function setIsERC721(uint256 tokenID) public {\r\n    //     isERC721[tokenID] = true;\r\n    // }\r\n\r\n    /**\r\n     * @dev gets true if tokenID is ERC1155\r\n    */\r\n    function getIsERC1155(uint256 tokenID) external view returns(bool) {\r\n        return isERC1155[tokenID];\r\n    }\r\n    \r\n\r\n    /**\r\n     * @dev Returns the contract address of the child token ID, given a parent and child token ID.\r\n     */\r\n    function getChildContract(uint256 tokenID, uint256 childTokenID) external view returns(address){\r\n\r\n        for(uint256 i = 0; i < _childContract[tokenID].length(); i++) {\r\n            if (_childsForChildContract[tokenID][_childContract[tokenID].at(i)].contains(childTokenID)){\r\n                return _childContract[tokenID].at(i);\r\n            }\r\n        }\r\n\r\n        return address(0);\r\n    }\r\n\r\n    /**\r\n     * @dev Wrapper function to get message sender.\r\n     */\r\n    function getMsgSender() external view returns(address){\r\n        return _msgSender();\r\n    }\r\n\r\n\r\n\r\n    /**\r\n     * @dev Transfers batch of child tokens from a token ID.\r\n     */\r\n    function safeBatchTransferChildFrom(uint256 fromTokenId, address to, address childContract, uint256[] memory childTokenIds, uint256[] memory amounts, bytes memory data) public override {\r\n        require(childTokenIds.length == amounts.length, \"ERC998: ids and amounts length mismatch\");\r\n        require(to != address(0), \"ERC998: transfer to the zero address\");\r\n\r\n        address operator = _msgSender();\r\n        require(\r\n            ownerOf(fromTokenId) == operator ||\r\n            isApprovedForAll(ownerOf(fromTokenId), operator),\r\n            \"ERC998: caller is not owner nor approved\"\r\n        );\r\n\r\n        _beforeChildTransfer(operator, fromTokenId, to, childContract, childTokenIds, amounts, data);\r\n\r\n        for (uint256 i = 0; i < childTokenIds.length; ++i) {\r\n            uint256 childTokenId = childTokenIds[i];\r\n            uint256 amount = amounts[i];\r\n\r\n            _removeChild(fromTokenId, childContract, childTokenId, amount);\r\n        }\r\n        ERC1155(childContract).safeBatchTransferFrom(address(this), to, childTokenIds, amounts, data);\r\n        emit TransferBatchChild(fromTokenId, to, childContract, childTokenIds, amounts);\r\n    }\r\n\r\n    /**\r\n     * @dev Receives a child token, the receiver token ID must be encoded in the\r\n     * field data.\r\n     */\r\n    function onERC1155Received(address operator, address from, uint256 id, uint256 amount, bytes memory data) virtual public override returns(bytes4) {\r\n        require(data.length == 32, \"ERC998: data must contain the unique uint256 tokenId to transfer the child token to\");\r\n        _beforeChildTransfer(operator, 0, address(this), from, _asSingletonArray(id), _asSingletonArray(amount), data);\r\n\r\n        uint256 _receiverTokenId;\r\n        uint256 _index = msg.data.length - 32;\r\n        assembly {_receiverTokenId := calldataload(_index)}\r\n\r\n        _receiveChild(_receiverTokenId, msg.sender, id, amount);\r\n        emit ReceivedChild(from, _receiverTokenId, msg.sender, id, amount);\r\n\r\n        return this.onERC1155Received.selector;\r\n    }\r\n\r\n    /**\r\n     * @dev Receives a child 998 token, the receiver token ID must be encoded in the\r\n     * field data.\r\n     */\r\n    function onERC721Received(address operator, address from, uint256 tokenId, bytes memory data) virtual public override returns(bytes4) {\r\n        require(data.length == 32, \"ERC998: data must contain the unique uint256 tokenId to transfer the child token to\");\r\n\r\n        uint256 _receiverTokenId;\r\n        uint256 _index = msg.data.length - 32;\r\n        assembly {_receiverTokenId := calldataload(_index)}\r\n\r\n        _receiveChild(_receiverTokenId, msg.sender, tokenId, 1);\r\n        emit ReceivedChild(from, _receiverTokenId, msg.sender, tokenId, 1);\r\n\r\n        return this.onERC721Received.selector;\r\n    }\r\n\r\n    /**\r\n     * @dev Receives a batch of child tokens, the receiver token ID must be\r\n     * encoded in the field data.\r\n     */\r\n    function onERC1155BatchReceived(address operator, address from, uint256[] memory ids, uint256[] memory values, bytes memory data) virtual public override returns(bytes4) {\r\n        require(data.length == 32, \"ERC998: data must contain the unique uint256 tokenId to transfer the child token to\");\r\n        require(ids.length == values.length, \"ERC1155: ids and values length mismatch\");\r\n        _beforeChildTransfer(operator, 0, address(this), from, ids, values, data);\r\n\r\n        uint256 _receiverTokenId;\r\n        uint256 _index = msg.data.length - 32;\r\n        assembly {_receiverTokenId := calldataload(_index)}\r\n        for(uint256 i = 0; i < ids.length; i++) {\r\n            _receiveChild(_receiverTokenId, msg.sender, ids[i], values[i]);\r\n            emit ReceivedChild(from, _receiverTokenId, msg.sender, ids[i], values[i]);\r\n        }\r\n        return this.onERC1155BatchReceived.selector;\r\n    }\r\n\r\n    function _receiveChild(uint256 tokenId, address childContract, uint256 childTokenId, uint256 amount) internal virtual {\r\n        if(!_childContract[tokenId].contains(childContract)) {\r\n            _childContract[tokenId].add(childContract);\r\n        }\r\n        if(_balances[tokenId][childContract][childTokenId] == 0) {\r\n            _childsForChildContract[tokenId][childContract].add(childTokenId);\r\n        }\r\n        _balances[tokenId][childContract][childTokenId] += amount;\r\n    }\r\n\r\n    function _removeChild(uint256 tokenId, address childContract, uint256 childTokenId, uint256 amount) internal virtual {\r\n        require(_balances[tokenId][childContract][childTokenId] >= amount, \"ERC998: insufficient child balance for transfer\");\r\n        _balances[tokenId][childContract][childTokenId] -= amount;\r\n        if(_balances[tokenId][childContract][childTokenId] == 0) {\r\n            _holdersOf[childContract][childTokenId].remove(tokenId);\r\n            _childsForChildContract[tokenId][childContract].remove(childTokenId);\r\n            if(_childsForChildContract[tokenId][childContract].length() == 0) {\r\n                _childContract[tokenId].remove(childContract);\r\n            }\r\n        }\r\n    }\r\n\r\n    function _beforeChildTransfer(\r\n        address operator,\r\n        uint256 fromTokenId,\r\n        address to,\r\n        address childContract,\r\n        uint256[] memory ids,\r\n        uint256[] memory amounts,\r\n        bytes memory data\r\n    )\r\n        internal virtual\r\n    { }\r\n\r\n    function _asSingletonArray(uint256 element) private pure returns (uint256[] memory) {\r\n        uint256[] memory array = new uint256[](1);\r\n        array[0] = element;\r\n\r\n        return array;\r\n    }\r\n}\r\n",
  "sourcePath": "C:\\Users\\prami\\OneDrive\\Desktop\\Thesis\\composo\\supp_chain\\truffle\\contracts\\ERC998ERC1155TopDown.sol",
  "compiler": {
    "name": "solc",
    "version": "0.8.17+commit.8df45f5f.Emscripten.clang"
  },
  "schemaVersion": "3.4.10",
  "updatedAt": "2022-11-01T15:30:14.439Z",
  "networkType": "ethereum",
  "devdoc": {
    "kind": "dev",
    "methods": {
      "approve(address,uint256)": {
        "details": "See {IERC721-approve}."
      },
      "balanceOf(address)": {
        "details": "See {IERC721-balanceOf}."
      },
      "childBalance(uint256,address,uint256)": {
        "details": "Gives child balance for a specific child contract and child id ."
      },
      "childContractsFor(uint256)": {
        "details": "Gives list of child contract where token ID has childs."
      },
      "childIdsOwned(uint256,address)": {
        "details": "Gives list of owned child ID on a child contract by parent token ID and child contract."
      },
      "getApproved(uint256)": {
        "details": "See {IERC721-getApproved}."
      },
      "getChildContract(uint256,uint256)": {
        "details": "Returns the contract address of the child token ID, given a parent and child token ID."
      },
      "getIsERC1155(uint256)": {
        "details": "gets true if tokenID is ERC1155"
      },
      "getMsgSender()": {
        "details": "Wrapper function to get message sender."
      },
      "getOwner(uint256)": {
        "details": "Returns the owner of the token specified by tokenId. Wrapper function for ERC721 function ownerOf(). "
      },
      "getRootOwners()": {
        "details": "gets root owners"
      },
      "isApprovedForAll(address,address)": {
        "details": "See {IERC721-isApprovedForAll}."
      },
      "name()": {
        "details": "See {IERC721Metadata-name}."
      },
      "onERC1155BatchReceived(address,address,uint256[],uint256[],bytes)": {
        "details": "Receives a batch of child tokens, the receiver token ID must be encoded in the field data."
      },
      "onERC1155Received(address,address,uint256,uint256,bytes)": {
        "details": "Receives a child token, the receiver token ID must be encoded in the field data."
      },
      "onERC721Received(address,address,uint256,bytes)": {
        "details": "Receives a child 998 token, the receiver token ID must be encoded in the field data."
      },
      "ownerOf(uint256)": {
        "details": "See {IERC721-ownerOf}."
      },
      "safeBatchTransferChildFrom(uint256,address,address,uint256[],uint256[],bytes)": {
        "details": "Transfers batch of child tokens from a token ID."
      },
      "safeTransferChildFrom(uint256,uint256,address,address,uint256,uint256,bytes)": {
        "details": "Transfers child token from a token ID."
      },
      "safeTransferFrom(address,address,uint256)": {
        "details": "See {IERC721-safeTransferFrom}."
      },
      "safeTransferFrom(address,address,uint256,bytes)": {
        "details": "See {IERC721-safeTransferFrom}."
      },
      "setApprovalForAll(address,bool)": {
        "details": "See {IERC721-setApprovalForAll}."
      },
      "setIsERC1155(uint256)": {
        "details": "Sets isERC1155 array "
      },
      "setRootOwner(uint256)": {
        "details": "set root owner"
      },
      "supportsInterface(bytes4)": {
        "details": "See {IERC165-supportsInterface}."
      },
      "symbol()": {
        "details": "See {IERC721Metadata-symbol}."
      },
      "tokenURI(uint256)": {
        "details": "See {IERC721Metadata-tokenURI}."
      },
      "transferFrom(address,address,uint256)": {
        "details": "See {IERC721-transferFrom}."
      }
    },
    "version": 1
  },
  "userdoc": {
    "kind": "user",
    "methods": {},
    "version": 1
  }
}