{
  "contractName": "ERC998ERC1155TopDownPresetMinterPauser",
  "abi": [
    {
      "inputs": [
        {
          "internalType": "string",
          "name": "name",
          "type": "string"
        },
        {
          "internalType": "string",
          "name": "symbol",
          "type": "string"
        },
        {
          "internalType": "string",
          "name": "baseURI",
          "type": "string"
        }
      ],
      "stateMutability": "nonpayable",
      "type": "constructor"
    },
    {
      "anonymous": false,
      "inputs": [
        {
          "indexed": true,
          "internalType": "address",
          "name": "owner",
          "type": "address"
        },
        {
          "indexed": true,
          "internalType": "address",
          "name": "approved",
          "type": "address"
        },
        {
          "indexed": true,
          "internalType": "uint256",
          "name": "tokenId",
          "type": "uint256"
        }
      ],
      "name": "Approval",
      "type": "event"
    },
    {
      "anonymous": false,
      "inputs": [
        {
          "indexed": true,
          "internalType": "address",
          "name": "owner",
          "type": "address"
        },
        {
          "indexed": true,
          "internalType": "address",
          "name": "operator",
          "type": "address"
        },
        {
          "indexed": false,
          "internalType": "bool",
          "name": "approved",
          "type": "bool"
        }
      ],
      "name": "ApprovalForAll",
      "type": "event"
    },
    {
      "anonymous": false,
      "inputs": [
        {
          "indexed": false,
          "internalType": "address",
          "name": "account",
          "type": "address"
        }
      ],
      "name": "Paused",
      "type": "event"
    },
    {
      "anonymous": false,
      "inputs": [
        {
          "indexed": true,
          "internalType": "address",
          "name": "from",
          "type": "address"
        },
        {
          "indexed": true,
          "internalType": "uint256",
          "name": "toTokenId",
          "type": "uint256"
        },
        {
          "indexed": true,
          "internalType": "address",
          "name": "childContract",
          "type": "address"
        },
        {
          "indexed": false,
          "internalType": "uint256",
          "name": "childTokenId",
          "type": "uint256"
        },
        {
          "indexed": false,
          "internalType": "uint256",
          "name": "amount",
          "type": "uint256"
        }
      ],
      "name": "ReceivedChild",
      "type": "event"
    },
    {
      "anonymous": false,
      "inputs": [
        {
          "indexed": true,
          "internalType": "bytes32",
          "name": "role",
          "type": "bytes32"
        },
        {
          "indexed": true,
          "internalType": "bytes32",
          "name": "previousAdminRole",
          "type": "bytes32"
        },
        {
          "indexed": true,
          "internalType": "bytes32",
          "name": "newAdminRole",
          "type": "bytes32"
        }
      ],
      "name": "RoleAdminChanged",
      "type": "event"
    },
    {
      "anonymous": false,
      "inputs": [
        {
          "indexed": true,
          "internalType": "bytes32",
          "name": "role",
          "type": "bytes32"
        },
        {
          "indexed": true,
          "internalType": "address",
          "name": "account",
          "type": "address"
        },
        {
          "indexed": true,
          "internalType": "address",
          "name": "sender",
          "type": "address"
        }
      ],
      "name": "RoleGranted",
      "type": "event"
    },
    {
      "anonymous": false,
      "inputs": [
        {
          "indexed": true,
          "internalType": "bytes32",
          "name": "role",
          "type": "bytes32"
        },
        {
          "indexed": true,
          "internalType": "address",
          "name": "account",
          "type": "address"
        },
        {
          "indexed": true,
          "internalType": "address",
          "name": "sender",
          "type": "address"
        }
      ],
      "name": "RoleRevoked",
      "type": "event"
    },
    {
      "anonymous": false,
      "inputs": [
        {
          "indexed": true,
          "internalType": "address",
          "name": "from",
          "type": "address"
        },
        {
          "indexed": true,
          "internalType": "address",
          "name": "to",
          "type": "address"
        },
        {
          "indexed": true,
          "internalType": "uint256",
          "name": "tokenId",
          "type": "uint256"
        }
      ],
      "name": "Transfer",
      "type": "event"
    },
    {
      "anonymous": false,
      "inputs": [
        {
          "indexed": true,
          "internalType": "uint256",
          "name": "fromTokenId",
          "type": "uint256"
        },
        {
          "indexed": true,
          "internalType": "address",
          "name": "to",
          "type": "address"
        },
        {
          "indexed": true,
          "internalType": "address",
          "name": "childContract",
          "type": "address"
        },
        {
          "indexed": false,
          "internalType": "uint256[]",
          "name": "childTokenIds",
          "type": "uint256[]"
        },
        {
          "indexed": false,
          "internalType": "uint256[]",
          "name": "amounts",
          "type": "uint256[]"
        }
      ],
      "name": "TransferBatchChild",
      "type": "event"
    },
    {
      "anonymous": false,
      "inputs": [
        {
          "indexed": true,
          "internalType": "uint256",
          "name": "fromTokenId",
          "type": "uint256"
        },
        {
          "indexed": true,
          "internalType": "address",
          "name": "to",
          "type": "address"
        },
        {
          "indexed": true,
          "internalType": "address",
          "name": "childContract",
          "type": "address"
        },
        {
          "indexed": false,
          "internalType": "uint256",
          "name": "childTokenId",
          "type": "uint256"
        },
        {
          "indexed": false,
          "internalType": "uint256",
          "name": "amount",
          "type": "uint256"
        }
      ],
      "name": "TransferSingleChild",
      "type": "event"
    },
    {
      "anonymous": false,
      "inputs": [
        {
          "indexed": false,
          "internalType": "address",
          "name": "account",
          "type": "address"
        }
      ],
      "name": "Unpaused",
      "type": "event"
    },
    {
      "inputs": [],
      "name": "DEFAULT_ADMIN_ROLE",
      "outputs": [
        {
          "internalType": "bytes32",
          "name": "",
          "type": "bytes32"
        }
      ],
      "stateMutability": "view",
      "type": "function"
    },
    {
      "inputs": [],
      "name": "MINTER_ROLE",
      "outputs": [
        {
          "internalType": "bytes32",
          "name": "",
          "type": "bytes32"
        }
      ],
      "stateMutability": "view",
      "type": "function"
    },
    {
      "inputs": [],
      "name": "PAUSER_ROLE",
      "outputs": [
        {
          "internalType": "bytes32",
          "name": "",
          "type": "bytes32"
        }
      ],
      "stateMutability": "view",
      "type": "function"
    },
    {
      "inputs": [
        {
          "internalType": "uint256",
          "name": "",
          "type": "uint256"
        },
        {
          "internalType": "address",
          "name": "",
          "type": "address"
        },
        {
          "internalType": "uint256",
          "name": "",
          "type": "uint256"
        }
      ],
      "name": "_balances",
      "outputs": [
        {
          "internalType": "uint256",
          "name": "",
          "type": "uint256"
        }
      ],
      "stateMutability": "view",
      "type": "function"
    },
    {
      "inputs": [
        {
          "internalType": "address",
          "name": "to",
          "type": "address"
        },
        {
          "internalType": "uint256",
          "name": "tokenId",
          "type": "uint256"
        }
      ],
      "name": "approve",
      "outputs": [],
      "stateMutability": "nonpayable",
      "type": "function"
    },
    {
      "inputs": [
        {
          "internalType": "address",
          "name": "owner",
          "type": "address"
        }
      ],
      "name": "balanceOf",
      "outputs": [
        {
          "internalType": "uint256",
          "name": "",
          "type": "uint256"
        }
      ],
      "stateMutability": "view",
      "type": "function"
    },
    {
      "inputs": [
        {
          "internalType": "uint256",
          "name": "tokenId",
          "type": "uint256"
        },
        {
          "internalType": "address",
          "name": "childContract",
          "type": "address"
        },
        {
          "internalType": "uint256",
          "name": "childTokenId",
          "type": "uint256"
        }
      ],
      "name": "childBalance",
      "outputs": [
        {
          "internalType": "uint256",
          "name": "",
          "type": "uint256"
        }
      ],
      "stateMutability": "view",
      "type": "function"
    },
    {
      "inputs": [
        {
          "internalType": "uint256",
          "name": "tokenId",
          "type": "uint256"
        }
      ],
      "name": "childContractsFor",
      "outputs": [
        {
          "internalType": "address[]",
          "name": "",
          "type": "address[]"
        }
      ],
      "stateMutability": "view",
      "type": "function"
    },
    {
      "inputs": [
        {
          "internalType": "uint256",
          "name": "tokenId",
          "type": "uint256"
        },
        {
          "internalType": "address",
          "name": "childContract",
          "type": "address"
        }
      ],
      "name": "childIdsOwned",
      "outputs": [
        {
          "internalType": "uint256[]",
          "name": "",
          "type": "uint256[]"
        }
      ],
      "stateMutability": "view",
      "type": "function"
    },
    {
      "inputs": [
        {
          "internalType": "uint256",
          "name": "tokenId",
          "type": "uint256"
        }
      ],
      "name": "getApproved",
      "outputs": [
        {
          "internalType": "address",
          "name": "",
          "type": "address"
        }
      ],
      "stateMutability": "view",
      "type": "function"
    },
    {
      "inputs": [
        {
          "internalType": "uint256",
          "name": "tokenID",
          "type": "uint256"
        },
        {
          "internalType": "uint256",
          "name": "childTokenID",
          "type": "uint256"
        }
      ],
      "name": "getChildContract",
      "outputs": [
        {
          "internalType": "address",
          "name": "",
          "type": "address"
        }
      ],
      "stateMutability": "view",
      "type": "function"
    },
    {
      "inputs": [
        {
          "internalType": "uint256",
          "name": "tokenID",
          "type": "uint256"
        }
      ],
      "name": "getIsERC1155",
      "outputs": [
        {
          "internalType": "bool",
          "name": "",
          "type": "bool"
        }
      ],
      "stateMutability": "view",
      "type": "function"
    },
    {
      "inputs": [],
      "name": "getMsgSender",
      "outputs": [
        {
          "internalType": "address",
          "name": "",
          "type": "address"
        }
      ],
      "stateMutability": "view",
      "type": "function"
    },
    {
      "inputs": [
        {
          "internalType": "uint256",
          "name": "tokenID",
          "type": "uint256"
        }
      ],
      "name": "getOwner",
      "outputs": [
        {
          "internalType": "address",
          "name": "",
          "type": "address"
        }
      ],
      "stateMutability": "view",
      "type": "function"
    },
    {
      "inputs": [
        {
          "internalType": "bytes32",
          "name": "role",
          "type": "bytes32"
        }
      ],
      "name": "getRoleAdmin",
      "outputs": [
        {
          "internalType": "bytes32",
          "name": "",
          "type": "bytes32"
        }
      ],
      "stateMutability": "view",
      "type": "function"
    },
    {
      "inputs": [],
      "name": "getRootOwners",
      "outputs": [
        {
          "internalType": "uint256[]",
          "name": "",
          "type": "uint256[]"
        }
      ],
      "stateMutability": "view",
      "type": "function"
    },
    {
      "inputs": [
        {
          "internalType": "uint256",
          "name": "tokenId",
          "type": "uint256"
        }
      ],
      "name": "getTokenURI",
      "outputs": [
        {
          "internalType": "string",
          "name": "",
          "type": "string"
        }
      ],
      "stateMutability": "view",
      "type": "function"
    },
    {
      "inputs": [
        {
          "internalType": "bytes32",
          "name": "role",
          "type": "bytes32"
        },
        {
          "internalType": "address",
          "name": "account",
          "type": "address"
        }
      ],
      "name": "grantRole",
      "outputs": [],
      "stateMutability": "nonpayable",
      "type": "function"
    },
    {
      "inputs": [
        {
          "internalType": "bytes32",
          "name": "role",
          "type": "bytes32"
        },
        {
          "internalType": "address",
          "name": "account",
          "type": "address"
        }
      ],
      "name": "hasRole",
      "outputs": [
        {
          "internalType": "bool",
          "name": "",
          "type": "bool"
        }
      ],
      "stateMutability": "view",
      "type": "function"
    },
    {
      "inputs": [
        {
          "internalType": "address",
          "name": "owner",
          "type": "address"
        },
        {
          "internalType": "address",
          "name": "operator",
          "type": "address"
        }
      ],
      "name": "isApprovedForAll",
      "outputs": [
        {
          "internalType": "bool",
          "name": "",
          "type": "bool"
        }
      ],
      "stateMutability": "view",
      "type": "function"
    },
    {
      "inputs": [
        {
          "internalType": "uint256",
          "name": "",
          "type": "uint256"
        }
      ],
      "name": "isERC1155",
      "outputs": [
        {
          "internalType": "bool",
          "name": "",
          "type": "bool"
        }
      ],
      "stateMutability": "view",
      "type": "function"
    },
    {
      "inputs": [
        {
          "internalType": "uint256",
          "name": "",
          "type": "uint256"
        }
      ],
      "name": "isERC721",
      "outputs": [
        {
          "internalType": "bool",
          "name": "",
          "type": "bool"
        }
      ],
      "stateMutability": "view",
      "type": "function"
    },
    {
      "inputs": [],
      "name": "name",
      "outputs": [
        {
          "internalType": "string",
          "name": "",
          "type": "string"
        }
      ],
      "stateMutability": "view",
      "type": "function"
    },
    {
      "inputs": [
        {
          "internalType": "address",
          "name": "operator",
          "type": "address"
        },
        {
          "internalType": "address",
          "name": "from",
          "type": "address"
        },
        {
          "internalType": "uint256[]",
          "name": "ids",
          "type": "uint256[]"
        },
        {
          "internalType": "uint256[]",
          "name": "values",
          "type": "uint256[]"
        },
        {
          "internalType": "bytes",
          "name": "data",
          "type": "bytes"
        }
      ],
      "name": "onERC1155BatchReceived",
      "outputs": [
        {
          "internalType": "bytes4",
          "name": "",
          "type": "bytes4"
        }
      ],
      "stateMutability": "nonpayable",
      "type": "function"
    },
    {
      "inputs": [
        {
          "internalType": "address",
          "name": "operator",
          "type": "address"
        },
        {
          "internalType": "address",
          "name": "from",
          "type": "address"
        },
        {
          "internalType": "uint256",
          "name": "id",
          "type": "uint256"
        },
        {
          "internalType": "uint256",
          "name": "amount",
          "type": "uint256"
        },
        {
          "internalType": "bytes",
          "name": "data",
          "type": "bytes"
        }
      ],
      "name": "onERC1155Received",
      "outputs": [
        {
          "internalType": "bytes4",
          "name": "",
          "type": "bytes4"
        }
      ],
      "stateMutability": "nonpayable",
      "type": "function"
    },
    {
      "inputs": [
        {
          "internalType": "address",
          "name": "operator",
          "type": "address"
        },
        {
          "internalType": "address",
          "name": "from",
          "type": "address"
        },
        {
          "internalType": "uint256",
          "name": "tokenId",
          "type": "uint256"
        },
        {
          "internalType": "bytes",
          "name": "data",
          "type": "bytes"
        }
      ],
      "name": "onERC721Received",
      "outputs": [
        {
          "internalType": "bytes4",
          "name": "",
          "type": "bytes4"
        }
      ],
      "stateMutability": "nonpayable",
      "type": "function"
    },
    {
      "inputs": [
        {
          "internalType": "uint256",
          "name": "tokenId",
          "type": "uint256"
        }
      ],
      "name": "ownerOf",
      "outputs": [
        {
          "internalType": "address",
          "name": "",
          "type": "address"
        }
      ],
      "stateMutability": "view",
      "type": "function"
    },
    {
      "inputs": [],
      "name": "paused",
      "outputs": [
        {
          "internalType": "bool",
          "name": "",
          "type": "bool"
        }
      ],
      "stateMutability": "view",
      "type": "function"
    },
    {
      "inputs": [
        {
          "internalType": "bytes32",
          "name": "role",
          "type": "bytes32"
        },
        {
          "internalType": "address",
          "name": "account",
          "type": "address"
        }
      ],
      "name": "renounceRole",
      "outputs": [],
      "stateMutability": "nonpayable",
      "type": "function"
    },
    {
      "inputs": [
        {
          "internalType": "bytes32",
          "name": "role",
          "type": "bytes32"
        },
        {
          "internalType": "address",
          "name": "account",
          "type": "address"
        }
      ],
      "name": "revokeRole",
      "outputs": [],
      "stateMutability": "nonpayable",
      "type": "function"
    },
    {
      "inputs": [
        {
          "internalType": "uint256",
          "name": "",
          "type": "uint256"
        }
      ],
      "name": "rootOwners",
      "outputs": [
        {
          "internalType": "uint256",
          "name": "",
          "type": "uint256"
        }
      ],
      "stateMutability": "view",
      "type": "function"
    },
    {
      "inputs": [
        {
          "internalType": "uint256",
          "name": "fromTokenId",
          "type": "uint256"
        },
        {
          "internalType": "address",
          "name": "to",
          "type": "address"
        },
        {
          "internalType": "address",
          "name": "childContract",
          "type": "address"
        },
        {
          "internalType": "uint256[]",
          "name": "childTokenIds",
          "type": "uint256[]"
        },
        {
          "internalType": "uint256[]",
          "name": "amounts",
          "type": "uint256[]"
        },
        {
          "internalType": "bytes",
          "name": "data",
          "type": "bytes"
        }
      ],
      "name": "safeBatchTransferChildFrom",
      "outputs": [],
      "stateMutability": "nonpayable",
      "type": "function"
    },
    {
      "inputs": [
        {
          "internalType": "uint256",
          "name": "fromTokenId",
          "type": "uint256"
        },
        {
          "internalType": "address",
          "name": "to",
          "type": "address"
        },
        {
          "internalType": "address",
          "name": "childContract",
          "type": "address"
        },
        {
          "internalType": "uint256",
          "name": "childTokenId",
          "type": "uint256"
        },
        {
          "internalType": "uint256",
          "name": "amount",
          "type": "uint256"
        },
        {
          "internalType": "bytes",
          "name": "data",
          "type": "bytes"
        }
      ],
      "name": "safeTransferChildFrom",
      "outputs": [],
      "stateMutability": "nonpayable",
      "type": "function"
    },
    {
      "inputs": [
        {
          "internalType": "address",
          "name": "from",
          "type": "address"
        },
        {
          "internalType": "address",
          "name": "to",
          "type": "address"
        },
        {
          "internalType": "uint256",
          "name": "tokenId",
          "type": "uint256"
        }
      ],
      "name": "safeTransferFrom",
      "outputs": [],
      "stateMutability": "nonpayable",
      "type": "function"
    },
    {
      "inputs": [
        {
          "internalType": "address",
          "name": "from",
          "type": "address"
        },
        {
          "internalType": "address",
          "name": "to",
          "type": "address"
        },
        {
          "internalType": "uint256",
          "name": "tokenId",
          "type": "uint256"
        },
        {
          "internalType": "bytes",
          "name": "data",
          "type": "bytes"
        }
      ],
      "name": "safeTransferFrom",
      "outputs": [],
      "stateMutability": "nonpayable",
      "type": "function"
    },
    {
      "inputs": [
        {
          "internalType": "address",
          "name": "operator",
          "type": "address"
        },
        {
          "internalType": "bool",
          "name": "approved",
          "type": "bool"
        }
      ],
      "name": "setApprovalForAll",
      "outputs": [],
      "stateMutability": "nonpayable",
      "type": "function"
    },
    {
      "inputs": [
        {
          "internalType": "uint256",
          "name": "tokenID",
          "type": "uint256"
        }
      ],
      "name": "setIsERC1155",
      "outputs": [],
      "stateMutability": "nonpayable",
      "type": "function"
    },
    {
      "inputs": [
        {
          "internalType": "uint256",
          "name": "id",
          "type": "uint256"
        }
      ],
      "name": "setRootOwner",
      "outputs": [],
      "stateMutability": "nonpayable",
      "type": "function"
    },
    {
      "inputs": [
        {
          "internalType": "uint256",
          "name": "tokenId",
          "type": "uint256"
        },
        {
          "internalType": "string",
          "name": "_tokenURI",
          "type": "string"
        }
      ],
      "name": "setTokenURI",
      "outputs": [],
      "stateMutability": "nonpayable",
      "type": "function"
    },
    {
      "inputs": [],
      "name": "symbol",
      "outputs": [
        {
          "internalType": "string",
          "name": "",
          "type": "string"
        }
      ],
      "stateMutability": "view",
      "type": "function"
    },
    {
      "inputs": [
        {
          "internalType": "uint256",
          "name": "tokenId",
          "type": "uint256"
        }
      ],
      "name": "tokenURI",
      "outputs": [
        {
          "internalType": "string",
          "name": "",
          "type": "string"
        }
      ],
      "stateMutability": "view",
      "type": "function"
    },
    {
      "inputs": [
        {
          "internalType": "uint256",
          "name": "",
          "type": "uint256"
        }
      ],
      "name": "token_URI",
      "outputs": [
        {
          "internalType": "string",
          "name": "",
          "type": "string"
        }
      ],
      "stateMutability": "view",
      "type": "function"
    },
    {
      "inputs": [
        {
          "internalType": "address",
          "name": "from",
          "type": "address"
        },
        {
          "internalType": "address",
          "name": "to",
          "type": "address"
        },
        {
          "internalType": "uint256",
          "name": "tokenId",
          "type": "uint256"
        }
      ],
      "name": "transferFrom",
      "outputs": [],
      "stateMutability": "nonpayable",
      "type": "function"
    },
    {
      "inputs": [
        {
          "internalType": "address",
          "name": "to",
          "type": "address"
        },
        {
          "internalType": "uint256",
          "name": "tokenId",
          "type": "uint256"
        }
      ],
      "name": "mint",
      "outputs": [],
      "stateMutability": "nonpayable",
      "type": "function"
    },
    {
      "inputs": [
        {
          "internalType": "uint256",
          "name": "tokenId",
          "type": "uint256"
        }
      ],
      "name": "burn",
      "outputs": [],
      "stateMutability": "nonpayable",
      "type": "function"
    },
    {
      "inputs": [],
      "name": "pause",
      "outputs": [],
      "stateMutability": "nonpayable",
      "type": "function"
    },
    {
      "inputs": [],
      "name": "unpause",
      "outputs": [],
      "stateMutability": "nonpayable",
      "type": "function"
    },
    {
      "inputs": [
        {
          "internalType": "bytes4",
          "name": "interfaceId",
          "type": "bytes4"
        }
      ],
      "name": "supportsInterface",
      "outputs": [
        {
          "internalType": "bool",
          "name": "",
          "type": "bool"
        }
      ],
      "stateMutability": "view",
      "type": "function"
    }
  ],
  "bytecode": "0x60806040523480156200001157600080fd5b5060405162006d7f38038062006d7f833981810160405281019062000037919062000463565b828282828281600190816200004d919062000767565b5080600290816200005f919062000767565b505050620000726200014060201b60201c565b505050506000600f60006101000a81548160ff021916908315150217905550620000b56000801b620000a96200015760201b60201c565b6200015f60201b60201c565b620000f67f9f2df0fed2c77648de5860a4cc508cd0818c85b8b8a1ab4ceeef8d981c8956a6620000ea6200015760201b60201c565b6200015f60201b60201c565b620001377f65d7a28e3265b37a6474929f336521b332c1681b933f6cb9f3376673440d862a6200012b6200015760201b60201c565b6200015f60201b60201c565b5050506200084e565b606060405180602001604052806000815250905090565b600033905090565b6200017182826200017560201b60201c565b5050565b6200018782826200026660201b60201c565b6200026257600160008084815260200190815260200160002060000160008373ffffffffffffffffffffffffffffffffffffffff1673ffffffffffffffffffffffffffffffffffffffff16815260200190815260200160002060006101000a81548160ff021916908315150217905550620002076200015760201b60201c565b73ffffffffffffffffffffffffffffffffffffffff168173ffffffffffffffffffffffffffffffffffffffff16837f2f8788117e7eff1d82e926ec794901d17c78024a50270940304540a733656f0d60405160405180910390a45b5050565b600080600084815260200190815260200160002060000160008373ffffffffffffffffffffffffffffffffffffffff1673ffffffffffffffffffffffffffffffffffffffff16815260200190815260200160002060009054906101000a900460ff16905092915050565b6000604051905090565b600080fd5b600080fd5b600080fd5b600080fd5b6000601f19601f8301169050919050565b7f4e487b7100000000000000000000000000000000000000000000000000000000600052604160045260246000fd5b6200033982620002ee565b810181811067ffffffffffffffff821117156200035b576200035a620002ff565b5b80604052505050565b600062000370620002d0565b90506200037e82826200032e565b919050565b600067ffffffffffffffff821115620003a157620003a0620002ff565b5b620003ac82620002ee565b9050602081019050919050565b60005b83811015620003d9578082015181840152602081019050620003bc565b60008484015250505050565b6000620003fc620003f68462000383565b62000364565b9050828152602081018484840111156200041b576200041a620002e9565b5b62000428848285620003b9565b509392505050565b600082601f830112620004485762000447620002e4565b5b81516200045a848260208601620003e5565b91505092915050565b6000806000606084860312156200047f576200047e620002da565b5b600084015167ffffffffffffffff811115620004a0576200049f620002df565b5b620004ae8682870162000430565b935050602084015167ffffffffffffffff811115620004d257620004d1620002df565b5b620004e08682870162000430565b925050604084015167ffffffffffffffff811115620005045762000503620002df565b5b620005128682870162000430565b9150509250925092565b600081519050919050565b7f4e487b7100000000000000000000000000000000000000000000000000000000600052602260045260246000fd5b600060028204905060018216806200056f57607f821691505b60208210810362000585576200058462000527565b5b50919050565b60008190508160005260206000209050919050565b60006020601f8301049050919050565b600082821b905092915050565b600060088302620005ef7fffffffffffffffffffffffffffffffffffffffffffffffffffffffffffffffff82620005b0565b620005fb8683620005b0565b95508019841693508086168417925050509392505050565b6000819050919050565b6000819050919050565b600062000648620006426200063c8462000613565b6200061d565b62000613565b9050919050565b6000819050919050565b620006648362000627565b6200067c62000673826200064f565b848454620005bd565b825550505050565b600090565b6200069362000684565b620006a081848462000659565b505050565b5b81811015620006c857620006bc60008262000689565b600181019050620006a6565b5050565b601f8211156200071757620006e1816200058b565b620006ec84620005a0565b81016020851015620006fc578190505b620007146200070b85620005a0565b830182620006a5565b50505b505050565b600082821c905092915050565b60006200073c600019846008026200071c565b1980831691505092915050565b600062000757838362000729565b9150826002028217905092915050565b62000772826200051c565b67ffffffffffffffff8111156200078e576200078d620002ff565b5b6200079a825462000556565b620007a7828285620006cc565b600060209050601f831160018114620007df5760008415620007ca578287015190505b620007d6858262000749565b86555062000846565b601f198416620007ef866200058b565b60005b828110156200081957848901518255600182019150602085019450602081019050620007f2565b8683101562000839578489015162000835601f89168262000729565b8355505b6001600288020188555050505b505050505050565b616521806200085e6000396000f3fe608060405234801561001057600080fd5b506004361061029f5760003560e01c806366ceb7b811610167578063a22cb465116100ce578063d547741f11610087578063d547741f146108b6578063e2edee2b146108d2578063e63ab1e9146108ee578063e985e9c51461090c578063eeaf2f091461093c578063f23a6e611461096c5761029f565b8063a22cb465146107d0578063b88d4fde146107ec578063bc197c8114610808578063c41a360a14610838578063c87b56dd14610868578063d5391393146108985761029f565b8063849c968c11610120578063849c968c146106d457806389e7e2f21461070457806391d148541461073457806395d89b41146107645780639fb64d8314610782578063a217fddf146107b25761029f565b806366ceb7b8146106125780636f9bc25b1461063057806370a08231146106605780637a6ce2e1146106905780637a7c792f146106ae5780638456cb59146106ca5761029f565b806332085b651161020b57806342966c68116101c457806342966c681461052c57806342cf6e74146105485780635c975abb146105645780635fa030211461058257806360d4d23a146105b25780636352211e146105e25761029f565b806332085b651461048257806336568abe1461049e5780633bb3a24d146104ba5780633f4ba83a146104ea57806340c10f19146104f457806342842e0e146105105761029f565b8063150b7a021161025d578063150b7a021461039e578063162094c4146103ce57806317dd7623146103ea57806323b872dd1461041a578063248a9ca3146104365780632f2ff15d146104665761029f565b80626174ca146102a457806301ffc9a7146102d457806306fdde0314610304578063081812fc14610322578063095ea7b3146103525780630ef347a51461036e575b600080fd5b6102be60048036038101906102b9919061409a565b61099c565b6040516102cb91906140d6565b60405180910390f35b6102ee60048036038101906102e99190614149565b6109c0565b6040516102fb9190614191565b60405180910390f35b61030c6109d2565b604051610319919061423c565b60405180910390f35b61033c6004803603810190610337919061409a565b610a64565b604051610349919061429f565b60405180910390f35b61036c600480360381019061036791906142e6565b610aaa565b005b6103886004803603810190610383919061409a565b610bc1565b604051610395919061423c565b60405180910390f35b6103b860048036038101906103b3919061445b565b610c61565b6040516103c591906144ed565b60405180910390f35b6103e860048036038101906103e391906145a9565b610d4b565b005b61040460048036038101906103ff9190614605565b610d70565b604051610411919061429f565b60405180910390f35b610434600480360381019061042f9190614645565b610e71565b005b610450600480360381019061044b91906146ce565b610ed1565b60405161045d919061470a565b60405180910390f35b610480600480360381019061047b9190614725565b610ef0565b005b61049c6004803603810190610497919061482d565b610f11565b005b6104b860048036038101906104b39190614725565b6111bc565b005b6104d460048036038101906104cf919061409a565b61123f565b6040516104e1919061423c565b60405180910390f35b6104f26112e4565b005b61050e600480360381019061050991906142e6565b61135e565b005b61052a60048036038101906105259190614645565b61136c565b005b6105466004803603810190610541919061409a565b61138c565b005b610562600480360381019061055d919061490e565b6113e8565b005b61056c611706565b6040516105799190614191565b60405180910390f35b61059c600480360381019061059791906149b7565b61171d565b6040516105a99190614ab5565b60405180910390f35b6105cc60048036038101906105c79190614ad7565b6118c4565b6040516105d991906140d6565b60405180910390f35b6105fc60048036038101906105f7919061409a565b611931565b604051610609919061429f565b60405180910390f35b61061a6119e2565b6040516106279190614ab5565b60405180910390f35b61064a6004803603810190610645919061409a565b611a3a565b6040516106579190614191565b60405180910390f35b61067a60048036038101906106759190614b2a565b611a5a565b60405161068791906140d6565b60405180910390f35b610698611b11565b6040516106a5919061429f565b60405180910390f35b6106c860048036038101906106c3919061409a565b611b20565b005b6106d2611b4c565b005b6106ee60048036038101906106e9919061409a565b611bc6565b6040516106fb9190614191565b60405180910390f35b61071e6004803603810190610719919061409a565b611bf0565b60405161072b9190614c15565b60405180910390f35b61074e60048036038101906107499190614725565b611d0d565b60405161075b9190614191565b60405180910390f35b61076c611d77565b604051610779919061423c565b60405180910390f35b61079c6004803603810190610797919061409a565b611e09565b6040516107a99190614191565b60405180910390f35b6107ba611e29565b6040516107c7919061470a565b60405180910390f35b6107ea60048036038101906107e59190614c63565b611e30565b005b6108066004803603810190610801919061445b565b611e46565b005b610822600480360381019061081d9190614ca3565b611ea8565b60405161082f91906144ed565b60405180910390f35b610852600480360381019061084d919061409a565b61206d565b60405161085f919061429f565b60405180910390f35b610882600480360381019061087d919061409a565b61207f565b60405161088f919061423c565b60405180910390f35b6108a06120e7565b6040516108ad919061470a565b60405180910390f35b6108d060048036038101906108cb9190614725565b61210b565b005b6108ec60048036038101906108e7919061409a565b61212c565b005b6108f661215b565b604051610903919061470a565b60405180910390f35b61092660048036038101906109219190614d72565b61217f565b6040516109339190614191565b60405180910390f35b61095660048036038101906109519190614ad7565b612213565b60405161096391906140d6565b60405180910390f35b61098660048036038101906109819190614db2565b612245565b60405161099391906144ed565b60405180910390f35b600e81815481106109ac57600080fd5b906000526020600020016000915090505481565b60006109cb8261234e565b9050919050565b6060600180546109e190614e78565b80601f0160208091040260200160405190810160405280929190818152602001828054610a0d90614e78565b8015610a5a5780601f10610a2f57610100808354040283529160200191610a5a565b820191906000526020600020905b815481529060010190602001808311610a3d57829003601f168201915b5050505050905090565b6000610a6f82612430565b6005600083815260200190815260200160002060009054906101000a900473ffffffffffffffffffffffffffffffffffffffff169050919050565b6000610ab582611931565b90508073ffffffffffffffffffffffffffffffffffffffff168373ffffffffffffffffffffffffffffffffffffffff1603610b25576040517f08c379a0000000000000000000000000000000000000000000000000000000008152600401610b1c90614f1b565b60405180910390fd5b8073ffffffffffffffffffffffffffffffffffffffff16610b4461247b565b73ffffffffffffffffffffffffffffffffffffffff161480610b735750610b7281610b6d61247b565b61217f565b5b610bb2576040517f08c379a0000000000000000000000000000000000000000000000000000000008152600401610ba990614fad565b60405180910390fd5b610bbc8383612483565b505050565b600d6020528060005260406000206000915090508054610be090614e78565b80601f0160208091040260200160405190810160405280929190818152602001828054610c0c90614e78565b8015610c595780601f10610c2e57610100808354040283529160200191610c59565b820191906000526020600020905b815481529060010190602001808311610c3c57829003601f168201915b505050505081565b60006020825114610ca7576040517f08c379a0000000000000000000000000000000000000000000000000000000008152600401610c9e90615065565b60405180910390fd5b60008060206000369050610cbb91906150b4565b905080359150610cce823387600161253c565b3373ffffffffffffffffffffffffffffffffffffffff16828773ffffffffffffffffffffffffffffffffffffffff167fa18753b0660a8be2cdae03468c860b47c2926433ab16917f323544652803032d886001604051610d2f92919061512d565b60405180910390a463150b7a0260e01b92505050949350505050565b80600d60008481526020019081526020016000209081610d6b91906152f8565b505050565b600080600090505b610d93600960008681526020019081526020016000206126d7565b811015610e6557610e2083600a60008781526020019081526020016000206000610dd885600960008b81526020019081526020016000206126ec90919063ffffffff16565b73ffffffffffffffffffffffffffffffffffffffff1673ffffffffffffffffffffffffffffffffffffffff16815260200190815260200160002061270690919063ffffffff16565b15610e5257610e4a81600960008781526020019081526020016000206126ec90919063ffffffff16565b915050610e6b565b8080610e5d906153ca565b915050610d78565b50600090505b92915050565b610e82610e7c61247b565b82612720565b610ec1576040517f08c379a0000000000000000000000000000000000000000000000000000000008152600401610eb890615484565b60405180910390fd5b610ecc8383836127b5565b505050565b6000806000838152602001908152602001600020600101549050919050565b610ef982610ed1565b610f0281612a1b565b610f0c8383612a2f565b505050565b8151835114610f55576040517f08c379a0000000000000000000000000000000000000000000000000000000008152600401610f4c90615516565b60405180910390fd5b600073ffffffffffffffffffffffffffffffffffffffff168573ffffffffffffffffffffffffffffffffffffffff1603610fc4576040517f08c379a0000000000000000000000000000000000000000000000000000000008152600401610fbb906155a8565b60405180910390fd5b6000610fce61247b565b90508073ffffffffffffffffffffffffffffffffffffffff16610ff088611931565b73ffffffffffffffffffffffffffffffffffffffff161480611020575061101f61101988611931565b8261217f565b5b61105f576040517f08c379a00000000000000000000000000000000000000000000000000000000081526004016110569061563a565b60405180910390fd5b61106e81888888888888612b0f565b60005b84518110156110d757600085828151811061108f5761108e61565a565b5b6020026020010151905060008583815181106110ae576110ad61565a565b5b602002602001015190506110c48a898484612b6f565b5050806110d0906153ca565b9050611071565b508473ffffffffffffffffffffffffffffffffffffffff16632eb2c2d630888787876040518663ffffffff1660e01b81526004016111199594939291906156de565b600060405180830381600087803b15801561113357600080fd5b505af1158015611147573d6000803e3d6000fd5b505050508473ffffffffffffffffffffffffffffffffffffffff168673ffffffffffffffffffffffffffffffffffffffff16887f5572be9c1bc39e4e277a34f64ccd0e84456dac3f33b0b1c458c12c402c6326a987876040516111ab929190615746565b60405180910390a450505050505050565b6111c461247b565b73ffffffffffffffffffffffffffffffffffffffff168173ffffffffffffffffffffffffffffffffffffffff1614611231576040517f08c379a0000000000000000000000000000000000000000000000000000000008152600401611228906157ef565b60405180910390fd5b61123b8282612e53565b5050565b6060600d6000838152602001908152602001600020805461125f90614e78565b80601f016020809104026020016040519081016040528092919081815260200182805461128b90614e78565b80156112d85780601f106112ad576101008083540402835291602001916112d8565b820191906000526020600020905b8154815290600101906020018083116112bb57829003601f168201915b50505050509050919050565b6113157f65d7a28e3265b37a6474929f336521b332c1681b933f6cb9f3376673440d862a61131061247b565b611d0d565b611354576040517f08c379a000000000000000000000000000000000000000000000000000000000815260040161134b90615881565b60405180910390fd5b61135c612f34565b565b6113688282612f97565b5050565b61138783838360405180602001604052806000815250611e46565b505050565b61139d61139761247b565b82612720565b6113dc576040517f08c379a00000000000000000000000000000000000000000000000000000000081526004016113d390615913565b60405180910390fd5b6113e581613170565b50565b600073ffffffffffffffffffffffffffffffffffffffff168573ffffffffffffffffffffffffffffffffffffffff1603611457576040517f08c379a000000000000000000000000000000000000000000000000000000000815260040161144e906155a8565b60405180910390fd5b600061146161247b565b90508073ffffffffffffffffffffffffffffffffffffffff1661148388611931565b73ffffffffffffffffffffffffffffffffffffffff1614806114b357506114b26114ac88611931565b8261217f565b5b6114f2576040517f08c379a00000000000000000000000000000000000000000000000000000000081526004016114e99061563a565b60405180910390fd5b611511818888886115028961328d565b61150b8961328d565b88612b0f565b61151d87868686612b6f565b600c600085815260200190815260200160002060009054906101000a900460ff1615611623578473ffffffffffffffffffffffffffffffffffffffff1663f242432a30888787876040518663ffffffff1660e01b8152600401611584959493929190615933565b600060405180830381600087803b15801561159e57600080fd5b505af11580156115b2573d6000803e3d6000fd5b505050508473ffffffffffffffffffffffffffffffffffffffff168673ffffffffffffffffffffffffffffffffffffffff16887f9d6259404dec52b3d5d220f5b8e5d05cc05ec908e1bc320aa46793e3091e5194878760405161161692919061598d565b60405180910390a46116fd565b8473ffffffffffffffffffffffffffffffffffffffff1663b88d4fde308887866040518563ffffffff1660e01b815260040161166294939291906159b6565b600060405180830381600087803b15801561167c57600080fd5b505af1158015611690573d6000803e3d6000fd5b505050508473ffffffffffffffffffffffffffffffffffffffff168673ffffffffffffffffffffffffffffffffffffffff16887f9d6259404dec52b3d5d220f5b8e5d05cc05ec908e1bc320aa46793e3091e519487876040516116f492919061598d565b60405180910390a45b50505050505050565b6000600f60009054906101000a900460ff16905090565b60606000611779600a600086815260200190815260200160002060008573ffffffffffffffffffffffffffffffffffffffff1673ffffffffffffffffffffffffffffffffffffffff168152602001908152602001600020613307565b67ffffffffffffffff81111561179257611791614330565b5b6040519080825280602002602001820160405280156117c05781602001602082028036833780820191505090505b50905060005b61181e600a600087815260200190815260200160002060008673ffffffffffffffffffffffffffffffffffffffff1673ffffffffffffffffffffffffffffffffffffffff168152602001908152602001600020613307565b8110156118b95761188781600a600088815260200190815260200160002060008773ffffffffffffffffffffffffffffffffffffffff1673ffffffffffffffffffffffffffffffffffffffff16815260200190815260200160002061331c90919063ffffffff16565b82828151811061189a5761189961565a565b5b60200260200101818152505080806118b1906153ca565b9150506117c6565b508091505092915050565b60006007600085815260200190815260200160002060008473ffffffffffffffffffffffffffffffffffffffff1673ffffffffffffffffffffffffffffffffffffffff16815260200190815260200160002060008381526020019081526020016000205490509392505050565b6000806003600084815260200190815260200160002060009054906101000a900473ffffffffffffffffffffffffffffffffffffffff169050600073ffffffffffffffffffffffffffffffffffffffff168173ffffffffffffffffffffffffffffffffffffffff16036119d9576040517f08c379a00000000000000000000000000000000000000000000000000000000081526004016119d090615a4e565b60405180910390fd5b80915050919050565b6060600e805480602002602001604051908101604052809291908181526020018280548015611a3057602002820191906000526020600020905b815481526020019060010190808311611a1c575b5050505050905090565b600c6020528060005260406000206000915054906101000a900460ff1681565b60008073ffffffffffffffffffffffffffffffffffffffff168273ffffffffffffffffffffffffffffffffffffffff1603611aca576040517f08c379a0000000000000000000000000000000000000000000000000000000008152600401611ac190615ae0565b60405180910390fd5b600460008373ffffffffffffffffffffffffffffffffffffffff1673ffffffffffffffffffffffffffffffffffffffff168152602001908152602001600020549050919050565b6000611b1b61247b565b905090565b600e81908060018154018082558091505060019003906000526020600020016000909190919091505550565b611b7d7f65d7a28e3265b37a6474929f336521b332c1681b933f6cb9f3376673440d862a611b7861247b565b611d0d565b611bbc576040517f08c379a0000000000000000000000000000000000000000000000000000000008152600401611bb390615b72565b60405180910390fd5b611bc4613336565b565b6000600c600083815260200190815260200160002060009054906101000a900460ff169050919050565b60606000611c0f600960008581526020019081526020016000206126d7565b67ffffffffffffffff811115611c2857611c27614330565b5b604051908082528060200260200182016040528015611c565781602001602082028036833780820191505090505b50905060005b611c77600960008681526020019081526020016000206126d7565b811015611d0357611ca381600960008781526020019081526020016000206126ec90919063ffffffff16565b828281518110611cb657611cb561565a565b5b602002602001019073ffffffffffffffffffffffffffffffffffffffff16908173ffffffffffffffffffffffffffffffffffffffff16815250508080611cfb906153ca565b915050611c5c565b5080915050919050565b600080600084815260200190815260200160002060000160008373ffffffffffffffffffffffffffffffffffffffff1673ffffffffffffffffffffffffffffffffffffffff16815260200190815260200160002060009054906101000a900460ff16905092915050565b606060028054611d8690614e78565b80601f0160208091040260200160405190810160405280929190818152602001828054611db290614e78565b8015611dff5780601f10611dd457610100808354040283529160200191611dff565b820191906000526020600020905b815481529060010190602001808311611de257829003601f168201915b5050505050905090565b600b6020528060005260406000206000915054906101000a900460ff1681565b6000801b81565b611e42611e3b61247b565b8383613399565b5050565b611e57611e5161247b565b83612720565b611e96576040517f08c379a0000000000000000000000000000000000000000000000000000000008152600401611e8d90615484565b60405180910390fd5b611ea284848484613505565b50505050565b60006020825114611eee576040517f08c379a0000000000000000000000000000000000000000000000000000000008152600401611ee590615065565b60405180910390fd5b8251845114611f32576040517f08c379a0000000000000000000000000000000000000000000000000000000008152600401611f2990615c04565b60405180910390fd5b611f428660003088888888612b0f565b60008060206000369050611f5691906150b4565b90508035915060005b865181101561205757611fa88333898481518110611f8057611f7f61565a565b5b6020026020010151898581518110611f9b57611f9a61565a565b5b602002602001015161253c565b3373ffffffffffffffffffffffffffffffffffffffff16838973ffffffffffffffffffffffffffffffffffffffff167fa18753b0660a8be2cdae03468c860b47c2926433ab16917f323544652803032d8a858151811061200b5761200a61565a565b5b60200260200101518a86815181106120265761202561565a565b5b602002602001015160405161203c92919061598d565b60405180910390a4808061204f906153ca565b915050611f5f565b5063bc197c8160e01b9250505095945050505050565b600061207882611931565b9050919050565b606061208a82612430565b6000612094613561565b905060008151116120b457604051806020016040528060008152506120df565b806120be84613578565b6040516020016120cf929190615c60565b6040516020818303038152906040525b915050919050565b7f9f2df0fed2c77648de5860a4cc508cd0818c85b8b8a1ab4ceeef8d981c8956a681565b61211482610ed1565b61211d81612a1b565b6121278383612e53565b505050565b6001600c600083815260200190815260200160002060006101000a81548160ff02191690831515021790555050565b7f65d7a28e3265b37a6474929f336521b332c1681b933f6cb9f3376673440d862a81565b6000600660008473ffffffffffffffffffffffffffffffffffffffff1673ffffffffffffffffffffffffffffffffffffffff16815260200190815260200160002060008373ffffffffffffffffffffffffffffffffffffffff1673ffffffffffffffffffffffffffffffffffffffff16815260200190815260200160002060009054906101000a900460ff16905092915050565b600760205282600052604060002060205281600052604060002060205280600052604060002060009250925050505481565b6000602082511461228b576040517f08c379a000000000000000000000000000000000000000000000000000000000815260040161228290615065565b60405180910390fd5b6122ab866000308861229c8961328d565b6122a58961328d565b88612b0f565b600080602060003690506122bf91906150b4565b9050803591506122d18233888861253c565b3373ffffffffffffffffffffffffffffffffffffffff16828873ffffffffffffffffffffffffffffffffffffffff167fa18753b0660a8be2cdae03468c860b47c2926433ab16917f323544652803032d898960405161233192919061598d565b60405180910390a463f23a6e6160e01b9250505095945050505050565b60007f80ac58cd000000000000000000000000000000000000000000000000000000007bffffffffffffffffffffffffffffffffffffffffffffffffffffffff1916827bffffffffffffffffffffffffffffffffffffffffffffffffffffffff1916148061241957507f5b5e139f000000000000000000000000000000000000000000000000000000007bffffffffffffffffffffffffffffffffffffffffffffffffffffffff1916827bffffffffffffffffffffffffffffffffffffffffffffffffffffffff1916145b806124295750612428826136d8565b5b9050919050565b61243981613752565b612478576040517f08c379a000000000000000000000000000000000000000000000000000000000815260040161246f90615a4e565b60405180910390fd5b50565b600033905090565b816005600083815260200190815260200160002060006101000a81548173ffffffffffffffffffffffffffffffffffffffff021916908373ffffffffffffffffffffffffffffffffffffffff160217905550808273ffffffffffffffffffffffffffffffffffffffff166124f683611931565b73ffffffffffffffffffffffffffffffffffffffff167f8c5be1e5ebec7d5bd14f71427d1e84f3dd0314c0f7b2291e5b200ac8c7c3b92560405160405180910390a45050565b61256183600960008781526020019081526020016000206137be90919063ffffffff16565b61258c5761258a83600960008781526020019081526020016000206137ee90919063ffffffff16565b505b60006007600086815260200190815260200160002060008573ffffffffffffffffffffffffffffffffffffffff1673ffffffffffffffffffffffffffffffffffffffff168152602001908152602001600020600084815260200190815260200160002054036126595761265782600a600087815260200190815260200160002060008673ffffffffffffffffffffffffffffffffffffffff1673ffffffffffffffffffffffffffffffffffffffff16815260200190815260200160002061381e90919063ffffffff16565b505b806007600086815260200190815260200160002060008573ffffffffffffffffffffffffffffffffffffffff1673ffffffffffffffffffffffffffffffffffffffff168152602001908152602001600020600084815260200190815260200160002060008282546126ca9190615c84565b9250508190555050505050565b60006126e582600001613838565b9050919050565b60006126fb8360000183613849565b60001c905092915050565b6000612718836000018360001b613874565b905092915050565b60008061272c83611931565b90508073ffffffffffffffffffffffffffffffffffffffff168473ffffffffffffffffffffffffffffffffffffffff16148061276e575061276d818561217f565b5b806127ac57508373ffffffffffffffffffffffffffffffffffffffff1661279484610a64565b73ffffffffffffffffffffffffffffffffffffffff16145b91505092915050565b8273ffffffffffffffffffffffffffffffffffffffff166127d582611931565b73ffffffffffffffffffffffffffffffffffffffff161461282b576040517f08c379a000000000000000000000000000000000000000000000000000000000815260040161282290615d2a565b60405180910390fd5b600073ffffffffffffffffffffffffffffffffffffffff168273ffffffffffffffffffffffffffffffffffffffff160361289a576040517f08c379a000000000000000000000000000000000000000000000000000000000815260040161289190615dbc565b60405180910390fd5b6128a5838383613897565b6128b0600082612483565b6001600460008573ffffffffffffffffffffffffffffffffffffffff1673ffffffffffffffffffffffffffffffffffffffff168152602001908152602001600020600082825461290091906150b4565b925050819055506001600460008473ffffffffffffffffffffffffffffffffffffffff1673ffffffffffffffffffffffffffffffffffffffff16815260200190815260200160002060008282546129579190615c84565b92505081905550816003600083815260200190815260200160002060006101000a81548173ffffffffffffffffffffffffffffffffffffffff021916908373ffffffffffffffffffffffffffffffffffffffff160217905550808273ffffffffffffffffffffffffffffffffffffffff168473ffffffffffffffffffffffffffffffffffffffff167fddf252ad1be2c89b69c2b068fc378daa952ba7f163c4a11628f55a4df523b3ef60405160405180910390a4612a168383836138ef565b505050565b612a2c81612a2761247b565b6138f4565b50565b612a398282611d0d565b612b0b57600160008084815260200190815260200160002060000160008373ffffffffffffffffffffffffffffffffffffffff1673ffffffffffffffffffffffffffffffffffffffff16815260200190815260200160002060006101000a81548160ff021916908315150217905550612ab061247b565b73ffffffffffffffffffffffffffffffffffffffff168173ffffffffffffffffffffffffffffffffffffffff16837f2f8788117e7eff1d82e926ec794901d17c78024a50270940304540a733656f0d60405160405180910390a45b5050565b612b17611706565b15612b57576040517f08c379a0000000000000000000000000000000000000000000000000000000008152600401612b4e90615e4e565b60405180910390fd5b612b6687878787878787613991565b50505050505050565b600081141580612be05750806007600086815260200190815260200160002060008573ffffffffffffffffffffffffffffffffffffffff1673ffffffffffffffffffffffffffffffffffffffff16815260200190815260200160002060008481526020019081526020016000205410155b612c1f576040517f08c379a0000000000000000000000000000000000000000000000000000000008152600401612c1690615ee0565b60405180910390fd5b806007600086815260200190815260200160002060008573ffffffffffffffffffffffffffffffffffffffff1673ffffffffffffffffffffffffffffffffffffffff16815260200190815260200160002060008481526020019081526020016000206000828254612c9091906150b4565b9250508190555060006007600086815260200190815260200160002060008573ffffffffffffffffffffffffffffffffffffffff1673ffffffffffffffffffffffffffffffffffffffff16815260200190815260200160002060008481526020019081526020016000205403612e4d57612d6284600860008673ffffffffffffffffffffffffffffffffffffffff1673ffffffffffffffffffffffffffffffffffffffff168152602001908152602001600020600085815260200190815260200160002061399a90919063ffffffff16565b50612dc582600a600087815260200190815260200160002060008673ffffffffffffffffffffffffffffffffffffffff1673ffffffffffffffffffffffffffffffffffffffff16815260200190815260200160002061399a90919063ffffffff16565b506000612e20600a600087815260200190815260200160002060008673ffffffffffffffffffffffffffffffffffffffff1673ffffffffffffffffffffffffffffffffffffffff168152602001908152602001600020613307565b03612e4c57612e4a83600960008781526020019081526020016000206139b490919063ffffffff16565b505b5b50505050565b612e5d8282611d0d565b15612f3057600080600084815260200190815260200160002060000160008373ffffffffffffffffffffffffffffffffffffffff1673ffffffffffffffffffffffffffffffffffffffff16815260200190815260200160002060006101000a81548160ff021916908315150217905550612ed561247b565b73ffffffffffffffffffffffffffffffffffffffff168173ffffffffffffffffffffffffffffffffffffffff16837ff6391f5c32d9c69d2a47ea670b442974b53935d1edc7fd64eb21e047a839171b60405160405180910390a45b5050565b612f3c6139e4565b6000600f60006101000a81548160ff0219169083151502179055507f5db9ee0a495bf2e6ff9c91a7834c1ba4fdd244a5e8aa4e537bd38aeae4b073aa612f8061247b565b604051612f8d919061429f565b60405180910390a1565b600073ffffffffffffffffffffffffffffffffffffffff168273ffffffffffffffffffffffffffffffffffffffff1603613006576040517f08c379a0000000000000000000000000000000000000000000000000000000008152600401612ffd90615f4c565b60405180910390fd5b61300f81613752565b1561304f576040517f08c379a000000000000000000000000000000000000000000000000000000000815260040161304690615fb8565b60405180910390fd5b61305b60008383613897565b6001600460008473ffffffffffffffffffffffffffffffffffffffff1673ffffffffffffffffffffffffffffffffffffffff16815260200190815260200160002060008282546130ab9190615c84565b92505081905550816003600083815260200190815260200160002060006101000a81548173ffffffffffffffffffffffffffffffffffffffff021916908373ffffffffffffffffffffffffffffffffffffffff160217905550808273ffffffffffffffffffffffffffffffffffffffff16600073ffffffffffffffffffffffffffffffffffffffff167fddf252ad1be2c89b69c2b068fc378daa952ba7f163c4a11628f55a4df523b3ef60405160405180910390a461316c600083836138ef565b5050565b600061317b82611931565b905061318981600084613897565b613194600083612483565b6001600460008373ffffffffffffffffffffffffffffffffffffffff1673ffffffffffffffffffffffffffffffffffffffff16815260200190815260200160002060008282546131e491906150b4565b925050819055506003600083815260200190815260200160002060006101000a81549073ffffffffffffffffffffffffffffffffffffffff021916905581600073ffffffffffffffffffffffffffffffffffffffff168273ffffffffffffffffffffffffffffffffffffffff167fddf252ad1be2c89b69c2b068fc378daa952ba7f163c4a11628f55a4df523b3ef60405160405180910390a4613289816000846138ef565b5050565b60606000600167ffffffffffffffff8111156132ac576132ab614330565b5b6040519080825280602002602001820160405280156132da5781602001602082028036833780820191505090505b50905082816000815181106132f2576132f161565a565b5b60200260200101818152505080915050919050565b600061331582600001613838565b9050919050565b600061332b8360000183613849565b60001c905092915050565b61333e613a2d565b6001600f60006101000a81548160ff0219169083151502179055507f62e78cea01bee320cd4e420270b5ea74000d11b0c9f74754ebdbfc544b05a25861338261247b565b60405161338f919061429f565b60405180910390a1565b8173ffffffffffffffffffffffffffffffffffffffff168373ffffffffffffffffffffffffffffffffffffffff1603613407576040517f08c379a00000000000000000000000000000000000000000000000000000000081526004016133fe90616024565b60405180910390fd5b80600660008573ffffffffffffffffffffffffffffffffffffffff1673ffffffffffffffffffffffffffffffffffffffff16815260200190815260200160002060008473ffffffffffffffffffffffffffffffffffffffff1673ffffffffffffffffffffffffffffffffffffffff16815260200190815260200160002060006101000a81548160ff0219169083151502179055508173ffffffffffffffffffffffffffffffffffffffff168373ffffffffffffffffffffffffffffffffffffffff167f17307eab39ab6107e8899845ad3d59bd9653f200f220920489ca2b5937696c31836040516134f89190614191565b60405180910390a3505050565b6135108484846127b5565b61351c84848484613a77565b61355b576040517f08c379a0000000000000000000000000000000000000000000000000000000008152600401613552906160b6565b60405180910390fd5b50505050565b606060405180602001604052806000815250905090565b6060600082036135bf576040518060400160405280600181526020017f300000000000000000000000000000000000000000000000000000000000000081525090506136d3565b600082905060005b600082146135f15780806135da906153ca565b915050600a826135ea9190616105565b91506135c7565b60008167ffffffffffffffff81111561360d5761360c614330565b5b6040519080825280601f01601f19166020018201604052801561363f5781602001600182028036833780820191505090505b5090505b600085146136cc5760018261365891906150b4565b9150600a856136679190616136565b60306136739190615c84565b60f81b8183815181106136895761368861565a565b5b60200101907effffffffffffffffffffffffffffffffffffffffffffffffffffffffffffff1916908160001a905350600a856136c59190616105565b9450613643565b8093505050505b919050565b60007f7965db0b000000000000000000000000000000000000000000000000000000007bffffffffffffffffffffffffffffffffffffffffffffffffffffffff1916827bffffffffffffffffffffffffffffffffffffffffffffffffffffffff1916148061374b575061374a82613bfe565b5b9050919050565b60008073ffffffffffffffffffffffffffffffffffffffff166003600084815260200190815260200160002060009054906101000a900473ffffffffffffffffffffffffffffffffffffffff1673ffffffffffffffffffffffffffffffffffffffff1614159050919050565b60006137e6836000018373ffffffffffffffffffffffffffffffffffffffff1660001b613874565b905092915050565b6000613816836000018373ffffffffffffffffffffffffffffffffffffffff1660001b613c68565b905092915050565b6000613830836000018360001b613c68565b905092915050565b600081600001805490509050919050565b60008260000182815481106138615761386061565a565b5b9060005260206000200154905092915050565b600080836001016000848152602001908152602001600020541415905092915050565b61389f611706565b156138df576040517f08c379a00000000000000000000000000000000000000000000000000000000081526004016138d6906161d9565b60405180910390fd5b6138ea838383613cd8565b505050565b505050565b6138fe8282611d0d565b61398d576139238173ffffffffffffffffffffffffffffffffffffffff166014613cdd565b6139318360001c6020613cdd565b604051602001613942929190616291565b6040516020818303038152906040526040517f08c379a0000000000000000000000000000000000000000000000000000000008152600401613984919061423c565b60405180910390fd5b5050565b50505050505050565b60006139ac836000018360001b613f19565b905092915050565b60006139dc836000018373ffffffffffffffffffffffffffffffffffffffff1660001b613f19565b905092915050565b6139ec611706565b613a2b576040517f08c379a0000000000000000000000000000000000000000000000000000000008152600401613a2290616317565b60405180910390fd5b565b613a35611706565b15613a75576040517f08c379a0000000000000000000000000000000000000000000000000000000008152600401613a6c90616383565b60405180910390fd5b565b6000613a988473ffffffffffffffffffffffffffffffffffffffff1661402d565b15613bf1578373ffffffffffffffffffffffffffffffffffffffff1663150b7a02613ac161247b565b8786866040518563ffffffff1660e01b8152600401613ae394939291906159b6565b6020604051808303816000875af1925050508015613b1f57506040513d601f19601f82011682018060405250810190613b1c91906163b8565b60015b613ba1573d8060008114613b4f576040519150601f19603f3d011682016040523d82523d6000602084013e613b54565b606091505b506000815103613b99576040517f08c379a0000000000000000000000000000000000000000000000000000000008152600401613b90906160b6565b60405180910390fd5b805181602001fd5b63150b7a0260e01b7bffffffffffffffffffffffffffffffffffffffffffffffffffffffff1916817bffffffffffffffffffffffffffffffffffffffffffffffffffffffff191614915050613bf6565b600190505b949350505050565b60007f01ffc9a7000000000000000000000000000000000000000000000000000000007bffffffffffffffffffffffffffffffffffffffffffffffffffffffff1916827bffffffffffffffffffffffffffffffffffffffffffffffffffffffff1916149050919050565b6000613c748383613874565b613ccd578260000182908060018154018082558091505060019003906000526020600020016000909190919091505582600001805490508360010160008481526020019081526020016000208190555060019050613cd2565b600090505b92915050565b505050565b606060006002836002613cf091906163e5565b613cfa9190615c84565b67ffffffffffffffff811115613d1357613d12614330565b5b6040519080825280601f01601f191660200182016040528015613d455781602001600182028036833780820191505090505b5090507f300000000000000000000000000000000000000000000000000000000000000081600081518110613d7d57613d7c61565a565b5b60200101907effffffffffffffffffffffffffffffffffffffffffffffffffffffffffffff1916908160001a9053507f780000000000000000000000000000000000000000000000000000000000000081600181518110613de157613de061565a565b5b60200101907effffffffffffffffffffffffffffffffffffffffffffffffffffffffffffff1916908160001a90535060006001846002613e2191906163e5565b613e2b9190615c84565b90505b6001811115613ecb577f3031323334353637383961626364656600000000000000000000000000000000600f861660108110613e6d57613e6c61565a565b5b1a60f81b828281518110613e8457613e8361565a565b5b60200101907effffffffffffffffffffffffffffffffffffffffffffffffffffffffffffff1916908160001a905350600485901c945080613ec490616427565b9050613e2e565b5060008414613f0f576040517f08c379a0000000000000000000000000000000000000000000000000000000008152600401613f069061649c565b60405180910390fd5b8091505092915050565b60008083600101600084815260200190815260200160002054905060008114614021576000600182613f4b91906150b4565b9050600060018660000180549050613f6391906150b4565b9050818114613fd2576000866000018281548110613f8457613f8361565a565b5b9060005260206000200154905080876000018481548110613fa857613fa761565a565b5b90600052602060002001819055508387600101600083815260200190815260200160002081905550505b85600001805480613fe657613fe56164bc565b5b600190038181906000526020600020016000905590558560010160008681526020019081526020016000206000905560019350505050614027565b60009150505b92915050565b6000808273ffffffffffffffffffffffffffffffffffffffff163b119050919050565b6000604051905090565b600080fd5b600080fd5b6000819050919050565b61407781614064565b811461408257600080fd5b50565b6000813590506140948161406e565b92915050565b6000602082840312156140b0576140af61405a565b5b60006140be84828501614085565b91505092915050565b6140d081614064565b82525050565b60006020820190506140eb60008301846140c7565b92915050565b60007fffffffff0000000000000000000000000000000000000000000000000000000082169050919050565b614126816140f1565b811461413157600080fd5b50565b6000813590506141438161411d565b92915050565b60006020828403121561415f5761415e61405a565b5b600061416d84828501614134565b91505092915050565b60008115159050919050565b61418b81614176565b82525050565b60006020820190506141a66000830184614182565b92915050565b600081519050919050565b600082825260208201905092915050565b60005b838110156141e65780820151818401526020810190506141cb565b60008484015250505050565b6000601f19601f8301169050919050565b600061420e826141ac565b61421881856141b7565b93506142288185602086016141c8565b614231816141f2565b840191505092915050565b600060208201905081810360008301526142568184614203565b905092915050565b600073ffffffffffffffffffffffffffffffffffffffff82169050919050565b60006142898261425e565b9050919050565b6142998161427e565b82525050565b60006020820190506142b46000830184614290565b92915050565b6142c38161427e565b81146142ce57600080fd5b50565b6000813590506142e0816142ba565b92915050565b600080604083850312156142fd576142fc61405a565b5b600061430b858286016142d1565b925050602061431c85828601614085565b9150509250929050565b600080fd5b600080fd5b7f4e487b7100000000000000000000000000000000000000000000000000000000600052604160045260246000fd5b614368826141f2565b810181811067ffffffffffffffff8211171561438757614386614330565b5b80604052505050565b600061439a614050565b90506143a6828261435f565b919050565b600067ffffffffffffffff8211156143c6576143c5614330565b5b6143cf826141f2565b9050602081019050919050565b82818337600083830152505050565b60006143fe6143f9846143ab565b614390565b90508281526020810184848401111561441a5761441961432b565b5b6144258482856143dc565b509392505050565b600082601f83011261444257614441614326565b5b81356144528482602086016143eb565b91505092915050565b600080600080608085870312156144755761447461405a565b5b6000614483878288016142d1565b9450506020614494878288016142d1565b93505060406144a587828801614085565b925050606085013567ffffffffffffffff8111156144c6576144c561405f565b5b6144d28782880161442d565b91505092959194509250565b6144e7816140f1565b82525050565b600060208201905061450260008301846144de565b92915050565b600067ffffffffffffffff82111561452357614522614330565b5b61452c826141f2565b9050602081019050919050565b600061454c61454784614508565b614390565b9050828152602081018484840111156145685761456761432b565b5b6145738482856143dc565b509392505050565b600082601f8301126145905761458f614326565b5b81356145a0848260208601614539565b91505092915050565b600080604083850312156145c0576145bf61405a565b5b60006145ce85828601614085565b925050602083013567ffffffffffffffff8111156145ef576145ee61405f565b5b6145fb8582860161457b565b9150509250929050565b6000806040838503121561461c5761461b61405a565b5b600061462a85828601614085565b925050602061463b85828601614085565b9150509250929050565b60008060006060848603121561465e5761465d61405a565b5b600061466c868287016142d1565b935050602061467d868287016142d1565b925050604061468e86828701614085565b9150509250925092565b6000819050919050565b6146ab81614698565b81146146b657600080fd5b50565b6000813590506146c8816146a2565b92915050565b6000602082840312156146e4576146e361405a565b5b60006146f2848285016146b9565b91505092915050565b61470481614698565b82525050565b600060208201905061471f60008301846146fb565b92915050565b6000806040838503121561473c5761473b61405a565b5b600061474a858286016146b9565b925050602061475b858286016142d1565b9150509250929050565b600067ffffffffffffffff8211156147805761477f614330565b5b602082029050602081019050919050565b600080fd5b60006147a96147a484614765565b614390565b905080838252602082019050602084028301858111156147cc576147cb614791565b5b835b818110156147f557806147e18882614085565b8452602084019350506020810190506147ce565b5050509392505050565b600082601f83011261481457614813614326565b5b8135614824848260208601614796565b91505092915050565b60008060008060008060c0878903121561484a5761484961405a565b5b600061485889828a01614085565b965050602061486989828a016142d1565b955050604061487a89828a016142d1565b945050606087013567ffffffffffffffff81111561489b5761489a61405f565b5b6148a789828a016147ff565b935050608087013567ffffffffffffffff8111156148c8576148c761405f565b5b6148d489828a016147ff565b92505060a087013567ffffffffffffffff8111156148f5576148f461405f565b5b61490189828a0161442d565b9150509295509295509295565b60008060008060008060c0878903121561492b5761492a61405a565b5b600061493989828a01614085565b965050602061494a89828a016142d1565b955050604061495b89828a016142d1565b945050606061496c89828a01614085565b935050608061497d89828a01614085565b92505060a087013567ffffffffffffffff81111561499e5761499d61405f565b5b6149aa89828a0161442d565b9150509295509295509295565b600080604083850312156149ce576149cd61405a565b5b60006149dc85828601614085565b92505060206149ed858286016142d1565b9150509250929050565b600081519050919050565b600082825260208201905092915050565b6000819050602082019050919050565b614a2c81614064565b82525050565b6000614a3e8383614a23565b60208301905092915050565b6000602082019050919050565b6000614a62826149f7565b614a6c8185614a02565b9350614a7783614a13565b8060005b83811015614aa8578151614a8f8882614a32565b9750614a9a83614a4a565b925050600181019050614a7b565b5085935050505092915050565b60006020820190508181036000830152614acf8184614a57565b905092915050565b600080600060608486031215614af057614aef61405a565b5b6000614afe86828701614085565b9350506020614b0f868287016142d1565b9250506040614b2086828701614085565b9150509250925092565b600060208284031215614b4057614b3f61405a565b5b6000614b4e848285016142d1565b91505092915050565b600081519050919050565b600082825260208201905092915050565b6000819050602082019050919050565b614b8c8161427e565b82525050565b6000614b9e8383614b83565b60208301905092915050565b6000602082019050919050565b6000614bc282614b57565b614bcc8185614b62565b9350614bd783614b73565b8060005b83811015614c08578151614bef8882614b92565b9750614bfa83614baa565b925050600181019050614bdb565b5085935050505092915050565b60006020820190508181036000830152614c2f8184614bb7565b905092915050565b614c4081614176565b8114614c4b57600080fd5b50565b600081359050614c5d81614c37565b92915050565b60008060408385031215614c7a57614c7961405a565b5b6000614c88858286016142d1565b9250506020614c9985828601614c4e565b9150509250929050565b600080600080600060a08688031215614cbf57614cbe61405a565b5b6000614ccd888289016142d1565b9550506020614cde888289016142d1565b945050604086013567ffffffffffffffff811115614cff57614cfe61405f565b5b614d0b888289016147ff565b935050606086013567ffffffffffffffff811115614d2c57614d2b61405f565b5b614d38888289016147ff565b925050608086013567ffffffffffffffff811115614d5957614d5861405f565b5b614d658882890161442d565b9150509295509295909350565b60008060408385031215614d8957614d8861405a565b5b6000614d97858286016142d1565b9250506020614da8858286016142d1565b9150509250929050565b600080600080600060a08688031215614dce57614dcd61405a565b5b6000614ddc888289016142d1565b9550506020614ded888289016142d1565b9450506040614dfe88828901614085565b9350506060614e0f88828901614085565b925050608086013567ffffffffffffffff811115614e3057614e2f61405f565b5b614e3c8882890161442d565b9150509295509295909350565b7f4e487b7100000000000000000000000000000000000000000000000000000000600052602260045260246000fd5b60006002820490506001821680614e9057607f821691505b602082108103614ea357614ea2614e49565b5b50919050565b7f4552433732313a20617070726f76616c20746f2063757272656e74206f776e6560008201527f7200000000000000000000000000000000000000000000000000000000000000602082015250565b6000614f056021836141b7565b9150614f1082614ea9565b604082019050919050565b60006020820190508181036000830152614f3481614ef8565b9050919050565b7f4552433732313a20617070726f76652063616c6c6572206973206e6f7420746f60008201527f6b656e206f776e6572206e6f7220617070726f76656420666f7220616c6c0000602082015250565b6000614f97603e836141b7565b9150614fa282614f3b565b604082019050919050565b60006020820190508181036000830152614fc681614f8a565b9050919050565b7f4552433939383a2064617461206d75737420636f6e7461696e2074686520756e60008201527f697175652075696e7432353620746f6b656e496420746f207472616e7366657260208201527f20746865206368696c6420746f6b656e20746f00000000000000000000000000604082015250565b600061504f6053836141b7565b915061505a82614fcd565b606082019050919050565b6000602082019050818103600083015261507e81615042565b9050919050565b7f4e487b7100000000000000000000000000000000000000000000000000000000600052601160045260246000fd5b60006150bf82614064565b91506150ca83614064565b92508282039050818111156150e2576150e1615085565b5b92915050565b6000819050919050565b6000819050919050565b600061511761511261510d846150e8565b6150f2565b614064565b9050919050565b615127816150fc565b82525050565b600060408201905061514260008301856140c7565b61514f602083018461511e565b9392505050565b60008190508160005260206000209050919050565b60006020601f8301049050919050565b600082821b905092915050565b6000600883026151b87fffffffffffffffffffffffffffffffffffffffffffffffffffffffffffffffff8261517b565b6151c2868361517b565b95508019841693508086168417925050509392505050565b60006151f56151f06151eb84614064565b6150f2565b614064565b9050919050565b6000819050919050565b61520f836151da565b61522361521b826151fc565b848454615188565b825550505050565b600090565b61523861522b565b615243818484615206565b505050565b5b818110156152675761525c600082615230565b600181019050615249565b5050565b601f8211156152ac5761527d81615156565b6152868461516b565b81016020851015615295578190505b6152a96152a18561516b565b830182615248565b50505b505050565b600082821c905092915050565b60006152cf600019846008026152b1565b1980831691505092915050565b60006152e883836152be565b9150826002028217905092915050565b615301826141ac565b67ffffffffffffffff81111561531a57615319614330565b5b6153248254614e78565b61532f82828561526b565b600060209050601f8311600181146153625760008415615350578287015190505b61535a85826152dc565b8655506153c2565b601f19841661537086615156565b60005b8281101561539857848901518255600182019150602085019450602081019050615373565b868310156153b557848901516153b1601f8916826152be565b8355505b6001600288020188555050505b505050505050565b60006153d582614064565b91507fffffffffffffffffffffffffffffffffffffffffffffffffffffffffffffffff820361540757615406615085565b5b600182019050919050565b7f4552433732313a2063616c6c6572206973206e6f7420746f6b656e206f776e6560008201527f72206e6f7220617070726f766564000000000000000000000000000000000000602082015250565b600061546e602e836141b7565b915061547982615412565b604082019050919050565b6000602082019050818103600083015261549d81615461565b9050919050565b7f4552433939383a2069647320616e6420616d6f756e7473206c656e677468206d60008201527f69736d6174636800000000000000000000000000000000000000000000000000602082015250565b60006155006027836141b7565b915061550b826154a4565b604082019050919050565b6000602082019050818103600083015261552f816154f3565b9050919050565b7f4552433939383a207472616e7366657220746f20746865207a65726f2061646460008201527f7265737300000000000000000000000000000000000000000000000000000000602082015250565b60006155926024836141b7565b915061559d82615536565b604082019050919050565b600060208201905081810360008301526155c181615585565b9050919050565b7f4552433939383a2063616c6c6572206973206e6f74206f776e6572206e6f722060008201527f617070726f766564000000000000000000000000000000000000000000000000602082015250565b60006156246028836141b7565b915061562f826155c8565b604082019050919050565b6000602082019050818103600083015261565381615617565b9050919050565b7f4e487b7100000000000000000000000000000000000000000000000000000000600052603260045260246000fd5b600081519050919050565b600082825260208201905092915050565b60006156b082615689565b6156ba8185615694565b93506156ca8185602086016141c8565b6156d3816141f2565b840191505092915050565b600060a0820190506156f36000830188614290565b6157006020830187614290565b81810360408301526157128186614a57565b905081810360608301526157268185614a57565b9050818103608083015261573a81846156a5565b90509695505050505050565b600060408201905081810360008301526157608185614a57565b905081810360208301526157748184614a57565b90509392505050565b7f416363657373436f6e74726f6c3a2063616e206f6e6c792072656e6f756e636560008201527f20726f6c657320666f722073656c660000000000000000000000000000000000602082015250565b60006157d9602f836141b7565b91506157e48261577d565b604082019050919050565b60006020820190508181036000830152615808816157cc565b9050919050565b7f4552433732315072657365744d696e7465725061757365724175746f49643a2060008201527f6d75737420686176652070617573657220726f6c6520746f20756e7061757365602082015250565b600061586b6040836141b7565b91506158768261580f565b604082019050919050565b6000602082019050818103600083015261589a8161585e565b9050919050565b7f4552433732314275726e61626c653a2063616c6c6572206973206e6f74206f7760008201527f6e6572206e6f7220617070726f76656400000000000000000000000000000000602082015250565b60006158fd6030836141b7565b9150615908826158a1565b604082019050919050565b6000602082019050818103600083015261592c816158f0565b9050919050565b600060a0820190506159486000830188614290565b6159556020830187614290565b61596260408301866140c7565b61596f60608301856140c7565b818103608083015261598181846156a5565b90509695505050505050565b60006040820190506159a260008301856140c7565b6159af60208301846140c7565b9392505050565b60006080820190506159cb6000830187614290565b6159d86020830186614290565b6159e560408301856140c7565b81810360608301526159f781846156a5565b905095945050505050565b7f4552433732313a20696e76616c696420746f6b656e2049440000000000000000600082015250565b6000615a386018836141b7565b9150615a4382615a02565b602082019050919050565b60006020820190508181036000830152615a6781615a2b565b9050919050565b7f4552433732313a2061646472657373207a65726f206973206e6f74206120766160008201527f6c6964206f776e65720000000000000000000000000000000000000000000000602082015250565b6000615aca6029836141b7565b9150615ad582615a6e565b604082019050919050565b60006020820190508181036000830152615af981615abd565b9050919050565b7f4552433732315072657365744d696e7465725061757365724175746f49643a2060008201527f6d75737420686176652070617573657220726f6c6520746f2070617573650000602082015250565b6000615b5c603e836141b7565b9150615b6782615b00565b604082019050919050565b60006020820190508181036000830152615b8b81615b4f565b9050919050565b7f455243313135353a2069647320616e642076616c756573206c656e677468206d60008201527f69736d6174636800000000000000000000000000000000000000000000000000602082015250565b6000615bee6027836141b7565b9150615bf982615b92565b604082019050919050565b60006020820190508181036000830152615c1d81615be1565b9050919050565b600081905092915050565b6000615c3a826141ac565b615c448185615c24565b9350615c548185602086016141c8565b80840191505092915050565b6000615c6c8285615c2f565b9150615c788284615c2f565b91508190509392505050565b6000615c8f82614064565b9150615c9a83614064565b9250828201905080821115615cb257615cb1615085565b5b92915050565b7f4552433732313a207472616e736665722066726f6d20696e636f72726563742060008201527f6f776e6572000000000000000000000000000000000000000000000000000000602082015250565b6000615d146025836141b7565b9150615d1f82615cb8565b604082019050919050565b60006020820190508181036000830152615d4381615d07565b9050919050565b7f4552433732313a207472616e7366657220746f20746865207a65726f2061646460008201527f7265737300000000000000000000000000000000000000000000000000000000602082015250565b6000615da66024836141b7565b9150615db182615d4a565b604082019050919050565b60006020820190508181036000830152615dd581615d99565b9050919050565b7f4552433939385061757361626c653a206368696c64207472616e73666572207760008201527f68696c6520706175736564000000000000000000000000000000000000000000602082015250565b6000615e38602b836141b7565b9150615e4382615ddc565b604082019050919050565b60006020820190508181036000830152615e6781615e2b565b9050919050565b7f4552433939383a20696e73756666696369656e74206368696c642062616c616e60008201527f636520666f72207472616e736665720000000000000000000000000000000000602082015250565b6000615eca602f836141b7565b9150615ed582615e6e565b604082019050919050565b60006020820190508181036000830152615ef981615ebd565b9050919050565b7f4552433732313a206d696e7420746f20746865207a65726f2061646472657373600082015250565b6000615f366020836141b7565b9150615f4182615f00565b602082019050919050565b60006020820190508181036000830152615f6581615f29565b9050919050565b7f4552433732313a20746f6b656e20616c7265616479206d696e74656400000000600082015250565b6000615fa2601c836141b7565b9150615fad82615f6c565b602082019050919050565b60006020820190508181036000830152615fd181615f95565b9050919050565b7f4552433732313a20617070726f766520746f2063616c6c657200000000000000600082015250565b600061600e6019836141b7565b915061601982615fd8565b602082019050919050565b6000602082019050818103600083015261603d81616001565b9050919050565b7f4552433732313a207472616e7366657220746f206e6f6e20455243373231526560008201527f63656976657220696d706c656d656e7465720000000000000000000000000000602082015250565b60006160a06032836141b7565b91506160ab82616044565b604082019050919050565b600060208201905081810360008301526160cf81616093565b9050919050565b7f4e487b7100000000000000000000000000000000000000000000000000000000600052601260045260246000fd5b600061611082614064565b915061611b83614064565b92508261612b5761612a6160d6565b5b828204905092915050565b600061614182614064565b915061614c83614064565b92508261615c5761615b6160d6565b5b828206905092915050565b7f4552433732315061757361626c653a20746f6b656e207472616e73666572207760008201527f68696c6520706175736564000000000000000000000000000000000000000000602082015250565b60006161c3602b836141b7565b91506161ce82616167565b604082019050919050565b600060208201905081810360008301526161f2816161b6565b9050919050565b7f416363657373436f6e74726f6c3a206163636f756e7420000000000000000000600082015250565b600061622f601783615c24565b915061623a826161f9565b601782019050919050565b7f206973206d697373696e6720726f6c6520000000000000000000000000000000600082015250565b600061627b601183615c24565b915061628682616245565b601182019050919050565b600061629c82616222565b91506162a88285615c2f565b91506162b38261626e565b91506162bf8284615c2f565b91508190509392505050565b7f5061757361626c653a206e6f7420706175736564000000000000000000000000600082015250565b60006163016014836141b7565b915061630c826162cb565b602082019050919050565b60006020820190508181036000830152616330816162f4565b9050919050565b7f5061757361626c653a2070617573656400000000000000000000000000000000600082015250565b600061636d6010836141b7565b915061637882616337565b602082019050919050565b6000602082019050818103600083015261639c81616360565b9050919050565b6000815190506163b28161411d565b92915050565b6000602082840312156163ce576163cd61405a565b5b60006163dc848285016163a3565b91505092915050565b60006163f082614064565b91506163fb83614064565b925082820261640981614064565b915082820484148315176164205761641f615085565b5b5092915050565b600061643282614064565b91506000820361644557616444615085565b5b600182039050919050565b7f537472696e67733a20686578206c656e67746820696e73756666696369656e74600082015250565b60006164866020836141b7565b915061649182616450565b602082019050919050565b600060208201905081810360008301526164b581616479565b9050919050565b7f4e487b7100000000000000000000000000000000000000000000000000000000600052603160045260246000fdfea2646970667358221220f82814765905dab016f6c3a16c76b1e67d5bb791aa75302ce106d5fbe9008e8664736f6c63430008110033",
  "immutableReferences": {},
  "source": "// SPDX-License-Identifier: MIT\n\npragma solidity ^0.8.0;\n\n/* import \"https://github.com/OpenZeppelin/openzeppelin-contracts/blob/master/contracts/access/AccessControl.sol\";\nimport \"https://github.com/OpenZeppelin/openzeppelin-contracts/blob/master/contracts/GSN/Context.sol\";\nimport \"https://github.com/OpenZeppelin/openzeppelin-contracts/blob/master/contracts/utils/Pausable.sol\"; */\n\nimport \"@openzeppelin/contracts/access/AccessControl.sol\";\nimport \"@openzeppelin/contracts/utils/Context.sol\";\nimport \"@openzeppelin/contracts/security/Pausable.sol\";\n\nimport \"./ERC998ERC1155TopDown.sol\";\n\n/**\n * @dev {ERC998} token, including:\n *\n *  - ability for holders to burn (destroy) their tokens\n *  - a minter role that allows for token minting (creation)\n *  - a pauser role that allows to stop all token transfers\n *\n * This contract uses {AccessControl} to lock permissioned functions using the\n * different roles - head to its documentation for details.\n *\n * The account that deploys the contract will be granted the minter and pauser\n * roles, as well as the default admin role, which will let it grant both minter\n * and pauser roles to other accounts.\n */\ncontract ERC998ERC1155TopDownPresetMinterPauser is Context, AccessControl, ERC998ERC1155TopDown, Pausable {\n    bytes32 public constant MINTER_ROLE = keccak256(\"MINTER_ROLE\");\n    bytes32 public constant PAUSER_ROLE = keccak256(\"PAUSER_ROLE\");\n\n    /**\n     * @dev Grants `DEFAULT_ADMIN_ROLE`, `MINTER_ROLE` and `PAUSER_ROLE` to the\n     * account that deploys the contract.\n     *\n     * Token URIs will be autogenerated based on `baseURI` and their token IDs.\n     * See {ERC721-tokenURI}.\n     */\n    constructor(string memory name, string memory symbol, string memory baseURI) public ERC998ERC1155TopDown(name, symbol, baseURI) {\n        _setupRole(DEFAULT_ADMIN_ROLE, _msgSender());\n        _setupRole(MINTER_ROLE, _msgSender());\n        _setupRole(PAUSER_ROLE, _msgSender());\n    }\n\n    /**\n     * @dev Creates a new token for `to`. The token URI autogenerated based on\n     * the base URI passed at construction and the token ID.\n     *\n     * See {ERC721-_mint}.\n     *\n     * Requirements:\n     *\n     * - the caller must have the `MINTER_ROLE`.\n     */\n    function mint(address to, uint256 tokenId) public virtual {\n        //require(hasRole(MINTER_ROLE, _msgSender()), \"ERC721: must have minter role to mint in ERC998\");\n\n        // We cannot just use balanceOf to create the new tokenId because tokens\n        // can be burned (destroyed), so we need a separate counter.\n        _mint(to, tokenId);\n    }\n\n\n    /**\n     * @dev Burns `tokenId`. See {ERC721-_burn}.\n     *\n     * Requirements:\n     *\n     * - The caller must own `tokenId` or be an approved operator.\n     */\n    function burn(uint256 tokenId) public virtual {\n        //solhint-disable-next-line max-line-length\n        require(_isApprovedOrOwner(_msgSender(), tokenId), \"ERC721Burnable: caller is not owner nor approved\");\n        _burn(tokenId);\n    }\n\n    /**\n     * @dev Pauses all token transfers.\n     *\n     * See {ERC721Pausable} and {Pausable-_pause}.\n     *\n     * Requirements:\n     *\n     * - the caller must have the `PAUSER_ROLE`.\n     */\n    function pause() public virtual {\n        require(hasRole(PAUSER_ROLE, _msgSender()), \"ERC721PresetMinterPauserAutoId: must have pauser role to pause\");\n        _pause();\n    }\n\n    /**\n     * @dev Unpauses all token transfers.\n     *\n     * See {ERC721Pausable} and {Pausable-_unpause}.\n     *\n     * Requirements:\n     *\n     * - the caller must have the `PAUSER_ROLE`.\n     */\n    function unpause() public virtual {\n        require(hasRole(PAUSER_ROLE, _msgSender()), \"ERC721PresetMinterPauserAutoId: must have pauser role to unpause\");\n        _unpause();\n    }\n\n    /**\n     * @dev See {ERC721-_beforeTokenTransfer}.\n     *\n     * Requirements:\n     *\n     * - the contract must not be paused.\n     */\n    function _beforeTokenTransfer(address from, address to, uint256 tokenId) internal virtual override {\n        require(!paused(), \"ERC721Pausable: token transfer while paused\");\n\n        super._beforeTokenTransfer(from, to, tokenId);\n    }\n\n    function _beforeChildTransfer(\n        address operator,\n        uint256 fromTokenId,\n        address to,\n        address childContract,\n        uint256[] memory ids,\n        uint256[] memory amounts,\n        bytes memory data\n    )\n        internal virtual override\n    {\n        require(!paused(), \"ERC998Pausable: child transfer while paused\");\n\n        super._beforeChildTransfer(operator, fromTokenId, to, childContract, ids, amounts, data);\n    }\n\n    function supportsInterface(bytes4 interfaceId) public view virtual override(ERC721, IERC165, AccessControl) returns (bool) {\n        return super.supportsInterface(interfaceId);\n    }\n}\n",
  "sourcePath": "/Users/moose/Documents/Projects/composo/supp_chain/truffle/contracts/ERC998ERC1155TopDownPresetMinterPauser.sol",
  "compiler": {
    "name": "solc",
    "version": "0.8.17+commit.8df45f5f.Emscripten.clang"
  },
  "schemaVersion": "3.4.7",
  "updatedAt": "2022-11-01T12:46:17.975Z",
  "devdoc": {
    "details": "{ERC998} token, including:  - ability for holders to burn (destroy) their tokens  - a minter role that allows for token minting (creation)  - a pauser role that allows to stop all token transfers This contract uses {AccessControl} to lock permissioned functions using the different roles - head to its documentation for details. The account that deploys the contract will be granted the minter and pauser roles, as well as the default admin role, which will let it grant both minter and pauser roles to other accounts.",
    "kind": "dev",
    "methods": {
      "approve(address,uint256)": {
        "details": "See {IERC721-approve}."
      },
      "balanceOf(address)": {
        "details": "See {IERC721-balanceOf}."
      },
      "burn(uint256)": {
        "details": "Burns `tokenId`. See {ERC721-_burn}. Requirements: - The caller must own `tokenId` or be an approved operator."
      },
      "childBalance(uint256,address,uint256)": {
        "details": "Gives child balance for a specific child contract and child id ."
      },
      "childContractsFor(uint256)": {
        "details": "Gives list of child contract where token ID has childs."
      },
      "childIdsOwned(uint256,address)": {
        "details": "Gives list of owned child ID on a child contract by parent token ID and child contract."
      },
      "constructor": {
        "details": "Grants `DEFAULT_ADMIN_ROLE`, `MINTER_ROLE` and `PAUSER_ROLE` to the account that deploys the contract. Token URIs will be autogenerated based on `baseURI` and their token IDs. See {ERC721-tokenURI}."
      },
      "getApproved(uint256)": {
        "details": "See {IERC721-getApproved}."
      },
      "getChildContract(uint256,uint256)": {
        "details": "Returns the contract address of the child token ID, given a parent and child token ID."
      },
      "getIsERC1155(uint256)": {
        "details": "gets true if tokenID is ERC1155"
      },
      "getMsgSender()": {
        "details": "Wrapper function to get message sender."
      },
      "getOwner(uint256)": {
        "details": "Returns the owner of the token specified by tokenId. Wrapper function for ERC721 function ownerOf(). "
      },
      "getRoleAdmin(bytes32)": {
        "details": "Returns the admin role that controls `role`. See {grantRole} and {revokeRole}. To change a role's admin, use {_setRoleAdmin}."
      },
      "getRootOwners()": {
        "details": "gets root owners"
      },
      "grantRole(bytes32,address)": {
        "details": "Grants `role` to `account`. If `account` had not been already granted `role`, emits a {RoleGranted} event. Requirements: - the caller must have ``role``'s admin role. May emit a {RoleGranted} event."
      },
      "hasRole(bytes32,address)": {
        "details": "Returns `true` if `account` has been granted `role`."
      },
      "isApprovedForAll(address,address)": {
        "details": "See {IERC721-isApprovedForAll}."
      },
      "mint(address,uint256)": {
        "details": "Creates a new token for `to`. The token URI autogenerated based on the base URI passed at construction and the token ID. See {ERC721-_mint}. Requirements: - the caller must have the `MINTER_ROLE`."
      },
      "name()": {
        "details": "See {IERC721Metadata-name}."
      },
      "onERC1155BatchReceived(address,address,uint256[],uint256[],bytes)": {
        "details": "Receives a batch of child tokens, the receiver token ID must be encoded in the field data."
      },
      "onERC1155Received(address,address,uint256,uint256,bytes)": {
        "details": "Receives a child token, the receiver token ID must be encoded in the field data."
      },
      "onERC721Received(address,address,uint256,bytes)": {
        "details": "Receives a child 998 token, the receiver token ID must be encoded in the field data."
      },
      "ownerOf(uint256)": {
        "details": "See {IERC721-ownerOf}."
      },
      "pause()": {
        "details": "Pauses all token transfers. See {ERC721Pausable} and {Pausable-_pause}. Requirements: - the caller must have the `PAUSER_ROLE`."
      },
      "paused()": {
        "details": "Returns true if the contract is paused, and false otherwise."
      },
      "renounceRole(bytes32,address)": {
        "details": "Revokes `role` from the calling account. Roles are often managed via {grantRole} and {revokeRole}: this function's purpose is to provide a mechanism for accounts to lose their privileges if they are compromised (such as when a trusted device is misplaced). If the calling account had been revoked `role`, emits a {RoleRevoked} event. Requirements: - the caller must be `account`. May emit a {RoleRevoked} event."
      },
      "revokeRole(bytes32,address)": {
        "details": "Revokes `role` from `account`. If `account` had been granted `role`, emits a {RoleRevoked} event. Requirements: - the caller must have ``role``'s admin role. May emit a {RoleRevoked} event."
      },
      "safeBatchTransferChildFrom(uint256,address,address,uint256[],uint256[],bytes)": {
        "details": "Transfers batch of child tokens from a token ID."
      },
      "safeTransferChildFrom(uint256,address,address,uint256,uint256,bytes)": {
        "details": "Transfers child token from a token ID."
      },
      "safeTransferFrom(address,address,uint256)": {
        "details": "See {IERC721-safeTransferFrom}."
      },
      "safeTransferFrom(address,address,uint256,bytes)": {
        "details": "See {IERC721-safeTransferFrom}."
      },
      "setApprovalForAll(address,bool)": {
        "details": "See {IERC721-setApprovalForAll}."
      },
      "setIsERC1155(uint256)": {
        "details": "Sets isERC1155 array "
      },
      "setRootOwner(uint256)": {
        "details": "set root owner"
      },
      "symbol()": {
        "details": "See {IERC721Metadata-symbol}."
      },
      "tokenURI(uint256)": {
        "details": "See {IERC721Metadata-tokenURI}."
      },
      "transferFrom(address,address,uint256)": {
        "details": "See {IERC721-transferFrom}."
      },
      "unpause()": {
        "details": "Unpauses all token transfers. See {ERC721Pausable} and {Pausable-_unpause}. Requirements: - the caller must have the `PAUSER_ROLE`."
      }
    },
    "version": 1
  },
  "userdoc": {
    "kind": "user",
    "methods": {},
    "version": 1
  }
}