{
  "contractName": "ERC998ERC1155TopDown",
  "abi": [
    {
      "inputs": [
        {
          "internalType": "string",
          "name": "name",
          "type": "string"
        },
        {
          "internalType": "string",
          "name": "symbol",
          "type": "string"
        },
        {
          "internalType": "string",
          "name": "baseURI",
          "type": "string"
        }
      ],
      "stateMutability": "nonpayable",
      "type": "constructor"
    },
    {
      "anonymous": false,
      "inputs": [
        {
          "indexed": true,
          "internalType": "address",
          "name": "owner",
          "type": "address"
        },
        {
          "indexed": true,
          "internalType": "address",
          "name": "approved",
          "type": "address"
        },
        {
          "indexed": true,
          "internalType": "uint256",
          "name": "tokenId",
          "type": "uint256"
        }
      ],
      "name": "Approval",
      "type": "event"
    },
    {
      "anonymous": false,
      "inputs": [
        {
          "indexed": true,
          "internalType": "address",
          "name": "owner",
          "type": "address"
        },
        {
          "indexed": true,
          "internalType": "address",
          "name": "operator",
          "type": "address"
        },
        {
          "indexed": false,
          "internalType": "bool",
          "name": "approved",
          "type": "bool"
        }
      ],
      "name": "ApprovalForAll",
      "type": "event"
    },
    {
      "anonymous": false,
      "inputs": [
        {
          "indexed": true,
          "internalType": "address",
          "name": "from",
          "type": "address"
        },
        {
          "indexed": true,
          "internalType": "uint256",
          "name": "toTokenId",
          "type": "uint256"
        },
        {
          "indexed": true,
          "internalType": "address",
          "name": "childContract",
          "type": "address"
        },
        {
          "indexed": false,
          "internalType": "uint256",
          "name": "childTokenId",
          "type": "uint256"
        },
        {
          "indexed": false,
          "internalType": "uint256",
          "name": "amount",
          "type": "uint256"
        }
      ],
      "name": "ReceivedChild",
      "type": "event"
    },
    {
      "anonymous": false,
      "inputs": [
        {
          "indexed": true,
          "internalType": "address",
          "name": "from",
          "type": "address"
        },
        {
          "indexed": true,
          "internalType": "address",
          "name": "to",
          "type": "address"
        },
        {
          "indexed": true,
          "internalType": "uint256",
          "name": "tokenId",
          "type": "uint256"
        }
      ],
      "name": "Transfer",
      "type": "event"
    },
    {
      "anonymous": false,
      "inputs": [
        {
          "indexed": true,
          "internalType": "uint256",
          "name": "fromTokenId",
          "type": "uint256"
        },
        {
          "indexed": true,
          "internalType": "address",
          "name": "to",
          "type": "address"
        },
        {
          "indexed": true,
          "internalType": "address",
          "name": "childContract",
          "type": "address"
        },
        {
          "indexed": false,
          "internalType": "uint256[]",
          "name": "childTokenIds",
          "type": "uint256[]"
        },
        {
          "indexed": false,
          "internalType": "uint256[]",
          "name": "amounts",
          "type": "uint256[]"
        }
      ],
      "name": "TransferBatchChild",
      "type": "event"
    },
    {
      "anonymous": false,
      "inputs": [
        {
          "indexed": true,
          "internalType": "uint256",
          "name": "fromTokenId",
          "type": "uint256"
        },
        {
          "indexed": true,
          "internalType": "address",
          "name": "to",
          "type": "address"
        },
        {
          "indexed": true,
          "internalType": "address",
          "name": "childContract",
          "type": "address"
        },
        {
          "indexed": false,
          "internalType": "uint256",
          "name": "childTokenId",
          "type": "uint256"
        },
        {
          "indexed": false,
          "internalType": "uint256",
          "name": "amount",
          "type": "uint256"
        }
      ],
      "name": "TransferSingleChild",
      "type": "event"
    },
    {
      "inputs": [
        {
          "internalType": "uint256",
          "name": "",
          "type": "uint256"
        },
        {
          "internalType": "address",
          "name": "",
          "type": "address"
        },
        {
          "internalType": "uint256",
          "name": "",
          "type": "uint256"
        }
      ],
      "name": "_balances",
      "outputs": [
        {
          "internalType": "uint256",
          "name": "",
          "type": "uint256"
        }
      ],
      "stateMutability": "view",
      "type": "function"
    },
    {
      "inputs": [
        {
          "internalType": "address",
          "name": "to",
          "type": "address"
        },
        {
          "internalType": "uint256",
          "name": "tokenId",
          "type": "uint256"
        }
      ],
      "name": "approve",
      "outputs": [],
      "stateMutability": "nonpayable",
      "type": "function"
    },
    {
      "inputs": [
        {
          "internalType": "address",
          "name": "owner",
          "type": "address"
        }
      ],
      "name": "balanceOf",
      "outputs": [
        {
          "internalType": "uint256",
          "name": "",
          "type": "uint256"
        }
      ],
      "stateMutability": "view",
      "type": "function"
    },
    {
      "inputs": [
        {
          "internalType": "uint256",
          "name": "tokenId",
          "type": "uint256"
        }
      ],
      "name": "getApproved",
      "outputs": [
        {
          "internalType": "address",
          "name": "",
          "type": "address"
        }
      ],
      "stateMutability": "view",
      "type": "function"
    },
    {
      "inputs": [
        {
          "internalType": "address",
          "name": "owner",
          "type": "address"
        },
        {
          "internalType": "address",
          "name": "operator",
          "type": "address"
        }
      ],
      "name": "isApprovedForAll",
      "outputs": [
        {
          "internalType": "bool",
          "name": "",
          "type": "bool"
        }
      ],
      "stateMutability": "view",
      "type": "function"
    },
    {
      "inputs": [
        {
          "internalType": "uint256",
          "name": "",
          "type": "uint256"
        }
      ],
      "name": "isERC1155",
      "outputs": [
        {
          "internalType": "bool",
          "name": "",
          "type": "bool"
        }
      ],
      "stateMutability": "view",
      "type": "function"
    },
    {
      "inputs": [
        {
          "internalType": "uint256",
          "name": "",
          "type": "uint256"
        }
      ],
      "name": "isERC721",
      "outputs": [
        {
          "internalType": "bool",
          "name": "",
          "type": "bool"
        }
      ],
      "stateMutability": "view",
      "type": "function"
    },
    {
      "inputs": [],
      "name": "name",
      "outputs": [
        {
          "internalType": "string",
          "name": "",
          "type": "string"
        }
      ],
      "stateMutability": "view",
      "type": "function"
    },
    {
      "inputs": [
        {
          "internalType": "uint256",
          "name": "tokenId",
          "type": "uint256"
        }
      ],
      "name": "ownerOf",
      "outputs": [
        {
          "internalType": "address",
          "name": "",
          "type": "address"
        }
      ],
      "stateMutability": "view",
      "type": "function"
    },
    {
      "inputs": [
        {
          "internalType": "uint256",
          "name": "",
          "type": "uint256"
        }
      ],
      "name": "rootOwners",
      "outputs": [
        {
          "internalType": "uint256",
          "name": "",
          "type": "uint256"
        }
      ],
      "stateMutability": "view",
      "type": "function"
    },
    {
      "inputs": [
        {
          "internalType": "address",
          "name": "from",
          "type": "address"
        },
        {
          "internalType": "address",
          "name": "to",
          "type": "address"
        },
        {
          "internalType": "uint256",
          "name": "tokenId",
          "type": "uint256"
        }
      ],
      "name": "safeTransferFrom",
      "outputs": [],
      "stateMutability": "nonpayable",
      "type": "function"
    },
    {
      "inputs": [
        {
          "internalType": "address",
          "name": "from",
          "type": "address"
        },
        {
          "internalType": "address",
          "name": "to",
          "type": "address"
        },
        {
          "internalType": "uint256",
          "name": "tokenId",
          "type": "uint256"
        },
        {
          "internalType": "bytes",
          "name": "data",
          "type": "bytes"
        }
      ],
      "name": "safeTransferFrom",
      "outputs": [],
      "stateMutability": "nonpayable",
      "type": "function"
    },
    {
      "inputs": [
        {
          "internalType": "address",
          "name": "operator",
          "type": "address"
        },
        {
          "internalType": "bool",
          "name": "approved",
          "type": "bool"
        }
      ],
      "name": "setApprovalForAll",
      "outputs": [],
      "stateMutability": "nonpayable",
      "type": "function"
    },
    {
      "inputs": [
        {
          "internalType": "bytes4",
          "name": "interfaceId",
          "type": "bytes4"
        }
      ],
      "name": "supportsInterface",
      "outputs": [
        {
          "internalType": "bool",
          "name": "",
          "type": "bool"
        }
      ],
      "stateMutability": "view",
      "type": "function"
    },
    {
      "inputs": [],
      "name": "symbol",
      "outputs": [
        {
          "internalType": "string",
          "name": "",
          "type": "string"
        }
      ],
      "stateMutability": "view",
      "type": "function"
    },
    {
      "inputs": [
        {
          "internalType": "uint256",
          "name": "tokenId",
          "type": "uint256"
        }
      ],
      "name": "tokenURI",
      "outputs": [
        {
          "internalType": "string",
          "name": "",
          "type": "string"
        }
      ],
      "stateMutability": "view",
      "type": "function"
    },
    {
      "inputs": [
        {
          "internalType": "uint256",
          "name": "",
          "type": "uint256"
        }
      ],
      "name": "token_URI",
      "outputs": [
        {
          "internalType": "string",
          "name": "",
          "type": "string"
        }
      ],
      "stateMutability": "view",
      "type": "function"
    },
    {
      "inputs": [
        {
          "internalType": "address",
          "name": "from",
          "type": "address"
        },
        {
          "internalType": "address",
          "name": "to",
          "type": "address"
        },
        {
          "internalType": "uint256",
          "name": "tokenId",
          "type": "uint256"
        }
      ],
      "name": "transferFrom",
      "outputs": [],
      "stateMutability": "nonpayable",
      "type": "function"
    },
    {
      "inputs": [
        {
          "internalType": "uint256",
          "name": "tokenId",
          "type": "uint256"
        },
        {
          "internalType": "string",
          "name": "_tokenURI",
          "type": "string"
        }
      ],
      "name": "setTokenURI",
      "outputs": [],
      "stateMutability": "nonpayable",
      "type": "function"
    },
    {
      "inputs": [
        {
          "internalType": "uint256",
          "name": "tokenId",
          "type": "uint256"
        }
      ],
      "name": "getTokenURI",
      "outputs": [
        {
          "internalType": "string",
          "name": "",
          "type": "string"
        }
      ],
      "stateMutability": "view",
      "type": "function"
    },
    {
      "inputs": [
        {
          "internalType": "uint256",
          "name": "tokenId",
          "type": "uint256"
        },
        {
          "internalType": "address",
          "name": "childContract",
          "type": "address"
        },
        {
          "internalType": "uint256",
          "name": "childTokenId",
          "type": "uint256"
        }
      ],
      "name": "childBalance",
      "outputs": [
        {
          "internalType": "uint256",
          "name": "",
          "type": "uint256"
        }
      ],
      "stateMutability": "view",
      "type": "function"
    },
    {
      "inputs": [
        {
          "internalType": "uint256",
          "name": "tokenId",
          "type": "uint256"
        }
      ],
      "name": "childContractsFor",
      "outputs": [
        {
          "internalType": "address[]",
          "name": "",
          "type": "address[]"
        }
      ],
      "stateMutability": "view",
      "type": "function"
    },
    {
      "inputs": [
        {
          "internalType": "uint256",
          "name": "tokenId",
          "type": "uint256"
        },
        {
          "internalType": "address",
          "name": "childContract",
          "type": "address"
        }
      ],
      "name": "childIdsOwned",
      "outputs": [
        {
          "internalType": "uint256[]",
          "name": "",
          "type": "uint256[]"
        }
      ],
      "stateMutability": "view",
      "type": "function"
    },
    {
      "inputs": [
        {
          "internalType": "uint256",
          "name": "id",
          "type": "uint256"
        }
      ],
      "name": "setRootOwner",
      "outputs": [],
      "stateMutability": "nonpayable",
      "type": "function"
    },
    {
      "inputs": [],
      "name": "getRootOwners",
      "outputs": [
        {
          "internalType": "uint256[]",
          "name": "",
          "type": "uint256[]"
        }
      ],
      "stateMutability": "view",
      "type": "function"
    },
    {
      "inputs": [
        {
          "internalType": "uint256",
          "name": "fromTokenId",
          "type": "uint256"
        },
        {
          "internalType": "address",
          "name": "to",
          "type": "address"
        },
        {
          "internalType": "address",
          "name": "childContract",
          "type": "address"
        },
        {
          "internalType": "uint256",
          "name": "childTokenId",
          "type": "uint256"
        },
        {
          "internalType": "uint256",
          "name": "amount",
          "type": "uint256"
        },
        {
          "internalType": "bytes",
          "name": "data",
          "type": "bytes"
        }
      ],
      "name": "safeTransferChildFrom",
      "outputs": [],
      "stateMutability": "nonpayable",
      "type": "function"
    },
    {
      "inputs": [
        {
          "internalType": "uint256",
          "name": "tokenID",
          "type": "uint256"
        }
      ],
      "name": "getOwner",
      "outputs": [
        {
          "internalType": "address",
          "name": "",
          "type": "address"
        }
      ],
      "stateMutability": "view",
      "type": "function"
    },
    {
      "inputs": [
        {
          "internalType": "uint256",
          "name": "tokenID",
          "type": "uint256"
        }
      ],
      "name": "setIsERC1155",
      "outputs": [],
      "stateMutability": "nonpayable",
      "type": "function"
    },
    {
      "inputs": [
        {
          "internalType": "uint256",
          "name": "tokenID",
          "type": "uint256"
        }
      ],
      "name": "getIsERC1155",
      "outputs": [
        {
          "internalType": "bool",
          "name": "",
          "type": "bool"
        }
      ],
      "stateMutability": "view",
      "type": "function"
    },
    {
      "inputs": [
        {
          "internalType": "uint256",
          "name": "tokenID",
          "type": "uint256"
        },
        {
          "internalType": "uint256",
          "name": "childTokenID",
          "type": "uint256"
        }
      ],
      "name": "getChildContract",
      "outputs": [
        {
          "internalType": "address",
          "name": "",
          "type": "address"
        }
      ],
      "stateMutability": "view",
      "type": "function"
    },
    {
      "inputs": [],
      "name": "getMsgSender",
      "outputs": [
        {
          "internalType": "address",
          "name": "",
          "type": "address"
        }
      ],
      "stateMutability": "view",
      "type": "function"
    },
    {
      "inputs": [
        {
          "internalType": "uint256",
          "name": "fromTokenId",
          "type": "uint256"
        },
        {
          "internalType": "address",
          "name": "to",
          "type": "address"
        },
        {
          "internalType": "address",
          "name": "childContract",
          "type": "address"
        },
        {
          "internalType": "uint256[]",
          "name": "childTokenIds",
          "type": "uint256[]"
        },
        {
          "internalType": "uint256[]",
          "name": "amounts",
          "type": "uint256[]"
        },
        {
          "internalType": "bytes",
          "name": "data",
          "type": "bytes"
        }
      ],
      "name": "safeBatchTransferChildFrom",
      "outputs": [],
      "stateMutability": "nonpayable",
      "type": "function"
    },
    {
      "inputs": [
        {
          "internalType": "address",
          "name": "operator",
          "type": "address"
        },
        {
          "internalType": "address",
          "name": "from",
          "type": "address"
        },
        {
          "internalType": "uint256",
          "name": "id",
          "type": "uint256"
        },
        {
          "internalType": "uint256",
          "name": "amount",
          "type": "uint256"
        },
        {
          "internalType": "bytes",
          "name": "data",
          "type": "bytes"
        }
      ],
      "name": "onERC1155Received",
      "outputs": [
        {
          "internalType": "bytes4",
          "name": "",
          "type": "bytes4"
        }
      ],
      "stateMutability": "nonpayable",
      "type": "function"
    },
    {
      "inputs": [
        {
          "internalType": "address",
          "name": "operator",
          "type": "address"
        },
        {
          "internalType": "address",
          "name": "from",
          "type": "address"
        },
        {
          "internalType": "uint256",
          "name": "tokenId",
          "type": "uint256"
        },
        {
          "internalType": "bytes",
          "name": "data",
          "type": "bytes"
        }
      ],
      "name": "onERC721Received",
      "outputs": [
        {
          "internalType": "bytes4",
          "name": "",
          "type": "bytes4"
        }
      ],
      "stateMutability": "nonpayable",
      "type": "function"
    },
    {
      "inputs": [
        {
          "internalType": "address",
          "name": "operator",
          "type": "address"
        },
        {
          "internalType": "address",
          "name": "from",
          "type": "address"
        },
        {
          "internalType": "uint256[]",
          "name": "ids",
          "type": "uint256[]"
        },
        {
          "internalType": "uint256[]",
          "name": "values",
          "type": "uint256[]"
        },
        {
          "internalType": "bytes",
          "name": "data",
          "type": "bytes"
        }
      ],
      "name": "onERC1155BatchReceived",
      "outputs": [
        {
          "internalType": "bytes4",
          "name": "",
          "type": "bytes4"
        }
      ],
      "stateMutability": "nonpayable",
      "type": "function"
    }
  ],
  "bytecode": "0x60806040523480156200001157600080fd5b506040516200545338038062005453833981810160405281019062000037919062000223565b828281600090816200004a919062000527565b5080600190816200005c919062000527565b5050506200006f6200007960201b60201c565b505050506200060e565b606060405180602001604052806000815250905090565b6000604051905090565b600080fd5b600080fd5b600080fd5b600080fd5b6000601f19601f8301169050919050565b7f4e487b7100000000000000000000000000000000000000000000000000000000600052604160045260246000fd5b620000f982620000ae565b810181811067ffffffffffffffff821117156200011b576200011a620000bf565b5b80604052505050565b60006200013062000090565b90506200013e8282620000ee565b919050565b600067ffffffffffffffff821115620001615762000160620000bf565b5b6200016c82620000ae565b9050602081019050919050565b60005b83811015620001995780820151818401526020810190506200017c565b60008484015250505050565b6000620001bc620001b68462000143565b62000124565b905082815260208101848484011115620001db57620001da620000a9565b5b620001e884828562000179565b509392505050565b600082601f830112620002085762000207620000a4565b5b81516200021a848260208601620001a5565b91505092915050565b6000806000606084860312156200023f576200023e6200009a565b5b600084015167ffffffffffffffff81111562000260576200025f6200009f565b5b6200026e86828701620001f0565b935050602084015167ffffffffffffffff8111156200029257620002916200009f565b5b620002a086828701620001f0565b925050604084015167ffffffffffffffff811115620002c457620002c36200009f565b5b620002d286828701620001f0565b9150509250925092565b600081519050919050565b7f4e487b7100000000000000000000000000000000000000000000000000000000600052602260045260246000fd5b600060028204905060018216806200032f57607f821691505b602082108103620003455762000344620002e7565b5b50919050565b60008190508160005260206000209050919050565b60006020601f8301049050919050565b600082821b905092915050565b600060088302620003af7fffffffffffffffffffffffffffffffffffffffffffffffffffffffffffffffff8262000370565b620003bb868362000370565b95508019841693508086168417925050509392505050565b6000819050919050565b6000819050919050565b60006200040862000402620003fc84620003d3565b620003dd565b620003d3565b9050919050565b6000819050919050565b6200042483620003e7565b6200043c62000433826200040f565b8484546200037d565b825550505050565b600090565b6200045362000444565b6200046081848462000419565b505050565b5b8181101562000488576200047c60008262000449565b60018101905062000466565b5050565b601f821115620004d757620004a1816200034b565b620004ac8462000360565b81016020851015620004bc578190505b620004d4620004cb8562000360565b83018262000465565b50505b505050565b600082821c905092915050565b6000620004fc60001984600802620004dc565b1980831691505092915050565b6000620005178383620004e9565b9150826002028217905092915050565b6200053282620002dc565b67ffffffffffffffff8111156200054e576200054d620000bf565b5b6200055a825462000316565b620005678282856200048c565b600060209050601f8311600181146200059f57600084156200058a578287015190505b62000596858262000509565b86555062000606565b601f198416620005af866200034b565b60005b82811015620005d957848901518255600182019150602085019450602081019050620005b2565b86831015620005f95784890151620005f5601f891682620004e9565b8355505b6001600288020188555050505b505050505050565b614e35806200061e6000396000f3fe608060405234801561001057600080fd5b50600436106102105760003560e01c806366ceb7b811610125578063a22cb465116100ad578063c87b56dd1161007c578063c87b56dd146106b9578063e2edee2b146106e9578063e985e9c514610705578063eeaf2f0914610735578063f23a6e611461076557610210565b8063a22cb46514610621578063b88d4fde1461063d578063bc197c8114610659578063c41a360a1461068957610210565b80637a7c792f116100f45780637a7c792f14610557578063849c968c1461057357806389e7e2f2146105a357806395d89b41146105d35780639fb64d83146105f157610210565b806366ceb7b8146104bb5780636f9bc25b146104d957806370a08231146105095780637a6ce2e11461053957610210565b806317dd7623116101a857806342842e0e1161017757806342842e0e146103f357806342cf6e741461040f5780635fa030211461042b57806360d4d23a1461045b5780636352211e1461048b57610210565b806317dd76231461035b57806323b872dd1461038b57806332085b65146103a75780633bb3a24d146103c357610210565b8063095ea7b3116101e4578063095ea7b3146102c35780630ef347a5146102df578063150b7a021461030f578063162094c41461033f57610210565b80626174ca1461021557806301ffc9a71461024557806306fdde0314610275578063081812fc14610293575b600080fd5b61022f600480360381019061022a9190613140565b610795565b60405161023c919061317c565b60405180910390f35b61025f600480360381019061025a91906131ef565b6107b9565b60405161026c9190613237565b60405180910390f35b61027d61089b565b60405161028a91906132e2565b60405180910390f35b6102ad60048036038101906102a89190613140565b61092d565b6040516102ba9190613345565b60405180910390f35b6102dd60048036038101906102d8919061338c565b610973565b005b6102f960048036038101906102f49190613140565b610a8a565b60405161030691906132e2565b60405180910390f35b61032960048036038101906103249190613501565b610b2a565b6040516103369190613593565b60405180910390f35b6103596004803603810190610354919061364f565b610c14565b005b610375600480360381019061037091906136ab565b610c39565b6040516103829190613345565b60405180910390f35b6103a560048036038101906103a091906136eb565b610d3a565b005b6103c160048036038101906103bc9190613806565b610d9a565b005b6103dd60048036038101906103d89190613140565b611045565b6040516103ea91906132e2565b60405180910390f35b61040d600480360381019061040891906136eb565b6110ea565b005b610429600480360381019061042491906138e7565b61110a565b005b61044560048036038101906104409190613990565b611428565b6040516104529190613a8e565b60405180910390f35b61047560048036038101906104709190613ab0565b6115cf565b604051610482919061317c565b60405180910390f35b6104a560048036038101906104a09190613140565b61163c565b6040516104b29190613345565b60405180910390f35b6104c36116ed565b6040516104d09190613a8e565b60405180910390f35b6104f360048036038101906104ee9190613140565b611745565b6040516105009190613237565b60405180910390f35b610523600480360381019061051e9190613b03565b611765565b604051610530919061317c565b60405180910390f35b61054161181c565b60405161054e9190613345565b60405180910390f35b610571600480360381019061056c9190613140565b61182b565b005b61058d60048036038101906105889190613140565b611857565b60405161059a9190613237565b60405180910390f35b6105bd60048036038101906105b89190613140565b611881565b6040516105ca9190613bee565b60405180910390f35b6105db61199e565b6040516105e891906132e2565b60405180910390f35b61060b60048036038101906106069190613140565b611a30565b6040516106189190613237565b60405180910390f35b61063b60048036038101906106369190613c3c565b611a50565b005b61065760048036038101906106529190613501565b611a66565b005b610673600480360381019061066e9190613c7c565b611ac8565b6040516106809190613593565b60405180910390f35b6106a3600480360381019061069e9190613140565b611c8d565b6040516106b09190613345565b60405180910390f35b6106d360048036038101906106ce9190613140565b611c9f565b6040516106e091906132e2565b60405180910390f35b61070360048036038101906106fe9190613140565b611d07565b005b61071f600480360381019061071a9190613d4b565b611d36565b60405161072c9190613237565b60405180910390f35b61074f600480360381019061074a9190613ab0565b611dca565b60405161075c919061317c565b60405180910390f35b61077f600480360381019061077a9190613d8b565b611dfc565b60405161078c9190613593565b60405180910390f35b600d81815481106107a557600080fd5b906000526020600020016000915090505481565b60007f80ac58cd000000000000000000000000000000000000000000000000000000007bffffffffffffffffffffffffffffffffffffffffffffffffffffffff1916827bffffffffffffffffffffffffffffffffffffffffffffffffffffffff1916148061088457507f5b5e139f000000000000000000000000000000000000000000000000000000007bffffffffffffffffffffffffffffffffffffffffffffffffffffffff1916827bffffffffffffffffffffffffffffffffffffffffffffffffffffffff1916145b80610894575061089382611f05565b5b9050919050565b6060600080546108aa90613e51565b80601f01602080910402602001604051908101604052809291908181526020018280546108d690613e51565b80156109235780601f106108f857610100808354040283529160200191610923565b820191906000526020600020905b81548152906001019060200180831161090657829003601f168201915b5050505050905090565b600061093882611f6f565b6004600083815260200190815260200160002060009054906101000a900473ffffffffffffffffffffffffffffffffffffffff169050919050565b600061097e8261163c565b90508073ffffffffffffffffffffffffffffffffffffffff168373ffffffffffffffffffffffffffffffffffffffff16036109ee576040517f08c379a00000000000000000000000000000000000000000000000000000000081526004016109e590613ef4565b60405180910390fd5b8073ffffffffffffffffffffffffffffffffffffffff16610a0d611fba565b73ffffffffffffffffffffffffffffffffffffffff161480610a3c5750610a3b81610a36611fba565b611d36565b5b610a7b576040517f08c379a0000000000000000000000000000000000000000000000000000000008152600401610a7290613f86565b60405180910390fd5b610a858383611fc2565b505050565b600c6020528060005260406000206000915090508054610aa990613e51565b80601f0160208091040260200160405190810160405280929190818152602001828054610ad590613e51565b8015610b225780601f10610af757610100808354040283529160200191610b22565b820191906000526020600020905b815481529060010190602001808311610b0557829003601f168201915b505050505081565b60006020825114610b70576040517f08c379a0000000000000000000000000000000000000000000000000000000008152600401610b679061403e565b60405180910390fd5b60008060206000369050610b84919061408d565b905080359150610b97823387600161207b565b3373ffffffffffffffffffffffffffffffffffffffff16828773ffffffffffffffffffffffffffffffffffffffff167fa18753b0660a8be2cdae03468c860b47c2926433ab16917f323544652803032d886001604051610bf8929190614106565b60405180910390a463150b7a0260e01b92505050949350505050565b80600c60008481526020019081526020016000209081610c3491906142d1565b505050565b600080600090505b610c5c60086000868152602001908152602001600020612216565b811015610d2e57610ce983600960008781526020019081526020016000206000610ca185600860008b815260200190815260200160002061222b90919063ffffffff16565b73ffffffffffffffffffffffffffffffffffffffff1673ffffffffffffffffffffffffffffffffffffffff16815260200190815260200160002061224590919063ffffffff16565b15610d1b57610d13816008600087815260200190815260200160002061222b90919063ffffffff16565b915050610d34565b8080610d26906143a3565b915050610c41565b50600090505b92915050565b610d4b610d45611fba565b8261225f565b610d8a576040517f08c379a0000000000000000000000000000000000000000000000000000000008152600401610d819061445d565b60405180910390fd5b610d958383836122f4565b505050565b8151835114610dde576040517f08c379a0000000000000000000000000000000000000000000000000000000008152600401610dd5906144ef565b60405180910390fd5b600073ffffffffffffffffffffffffffffffffffffffff168573ffffffffffffffffffffffffffffffffffffffff1603610e4d576040517f08c379a0000000000000000000000000000000000000000000000000000000008152600401610e4490614581565b60405180910390fd5b6000610e57611fba565b90508073ffffffffffffffffffffffffffffffffffffffff16610e798861163c565b73ffffffffffffffffffffffffffffffffffffffff161480610ea95750610ea8610ea28861163c565b82611d36565b5b610ee8576040517f08c379a0000000000000000000000000000000000000000000000000000000008152600401610edf90614613565b60405180910390fd5b610ef78188888888888861255a565b60005b8451811015610f60576000858281518110610f1857610f17614633565b5b602002602001015190506000858381518110610f3757610f36614633565b5b60200260200101519050610f4d8a898484612563565b505080610f59906143a3565b9050610efa565b508473ffffffffffffffffffffffffffffffffffffffff16632eb2c2d630888787876040518663ffffffff1660e01b8152600401610fa29594939291906146b7565b600060405180830381600087803b158015610fbc57600080fd5b505af1158015610fd0573d6000803e3d6000fd5b505050508473ffffffffffffffffffffffffffffffffffffffff168673ffffffffffffffffffffffffffffffffffffffff16887f5572be9c1bc39e4e277a34f64ccd0e84456dac3f33b0b1c458c12c402c6326a9878760405161103492919061471f565b60405180910390a450505050505050565b6060600c6000838152602001908152602001600020805461106590613e51565b80601f016020809104026020016040519081016040528092919081815260200182805461109190613e51565b80156110de5780601f106110b3576101008083540402835291602001916110de565b820191906000526020600020905b8154815290600101906020018083116110c157829003601f168201915b50505050509050919050565b61110583838360405180602001604052806000815250611a66565b505050565b600073ffffffffffffffffffffffffffffffffffffffff168573ffffffffffffffffffffffffffffffffffffffff1603611179576040517f08c379a000000000000000000000000000000000000000000000000000000000815260040161117090614581565b60405180910390fd5b6000611183611fba565b90508073ffffffffffffffffffffffffffffffffffffffff166111a58861163c565b73ffffffffffffffffffffffffffffffffffffffff1614806111d557506111d46111ce8861163c565b82611d36565b5b611214576040517f08c379a000000000000000000000000000000000000000000000000000000000815260040161120b90614613565b60405180910390fd5b6112338188888861122489612847565b61122d89612847565b8861255a565b61123f87868686612563565b600b600085815260200190815260200160002060009054906101000a900460ff1615611345578473ffffffffffffffffffffffffffffffffffffffff1663f242432a30888787876040518663ffffffff1660e01b81526004016112a6959493929190614756565b600060405180830381600087803b1580156112c057600080fd5b505af11580156112d4573d6000803e3d6000fd5b505050508473ffffffffffffffffffffffffffffffffffffffff168673ffffffffffffffffffffffffffffffffffffffff16887f9d6259404dec52b3d5d220f5b8e5d05cc05ec908e1bc320aa46793e3091e519487876040516113389291906147b0565b60405180910390a461141f565b8473ffffffffffffffffffffffffffffffffffffffff1663b88d4fde308887866040518563ffffffff1660e01b815260040161138494939291906147d9565b600060405180830381600087803b15801561139e57600080fd5b505af11580156113b2573d6000803e3d6000fd5b505050508473ffffffffffffffffffffffffffffffffffffffff168673ffffffffffffffffffffffffffffffffffffffff16887f9d6259404dec52b3d5d220f5b8e5d05cc05ec908e1bc320aa46793e3091e519487876040516114169291906147b0565b60405180910390a45b50505050505050565b606060006114846009600086815260200190815260200160002060008573ffffffffffffffffffffffffffffffffffffffff1673ffffffffffffffffffffffffffffffffffffffff1681526020019081526020016000206128c1565b67ffffffffffffffff81111561149d5761149c6133d6565b5b6040519080825280602002602001820160405280156114cb5781602001602082028036833780820191505090505b50905060005b6115296009600087815260200190815260200160002060008673ffffffffffffffffffffffffffffffffffffffff1673ffffffffffffffffffffffffffffffffffffffff1681526020019081526020016000206128c1565b8110156115c457611592816009600088815260200190815260200160002060008773ffffffffffffffffffffffffffffffffffffffff1673ffffffffffffffffffffffffffffffffffffffff1681526020019081526020016000206128d690919063ffffffff16565b8282815181106115a5576115a4614633565b5b60200260200101818152505080806115bc906143a3565b9150506114d1565b508091505092915050565b60006006600085815260200190815260200160002060008473ffffffffffffffffffffffffffffffffffffffff1673ffffffffffffffffffffffffffffffffffffffff16815260200190815260200160002060008381526020019081526020016000205490509392505050565b6000806002600084815260200190815260200160002060009054906101000a900473ffffffffffffffffffffffffffffffffffffffff169050600073ffffffffffffffffffffffffffffffffffffffff168173ffffffffffffffffffffffffffffffffffffffff16036116e4576040517f08c379a00000000000000000000000000000000000000000000000000000000081526004016116db90614871565b60405180910390fd5b80915050919050565b6060600d80548060200260200160405190810160405280929190818152602001828054801561173b57602002820191906000526020600020905b815481526020019060010190808311611727575b5050505050905090565b600b6020528060005260406000206000915054906101000a900460ff1681565b60008073ffffffffffffffffffffffffffffffffffffffff168273ffffffffffffffffffffffffffffffffffffffff16036117d5576040517f08c379a00000000000000000000000000000000000000000000000000000000081526004016117cc90614903565b60405180910390fd5b600360008373ffffffffffffffffffffffffffffffffffffffff1673ffffffffffffffffffffffffffffffffffffffff168152602001908152602001600020549050919050565b6000611826611fba565b905090565b600d81908060018154018082558091505060019003906000526020600020016000909190919091505550565b6000600b600083815260200190815260200160002060009054906101000a900460ff169050919050565b606060006118a060086000858152602001908152602001600020612216565b67ffffffffffffffff8111156118b9576118b86133d6565b5b6040519080825280602002602001820160405280156118e75781602001602082028036833780820191505090505b50905060005b61190860086000868152602001908152602001600020612216565b81101561199457611934816008600087815260200190815260200160002061222b90919063ffffffff16565b82828151811061194757611946614633565b5b602002602001019073ffffffffffffffffffffffffffffffffffffffff16908173ffffffffffffffffffffffffffffffffffffffff1681525050808061198c906143a3565b9150506118ed565b5080915050919050565b6060600180546119ad90613e51565b80601f01602080910402602001604051908101604052809291908181526020018280546119d990613e51565b8015611a265780601f106119fb57610100808354040283529160200191611a26565b820191906000526020600020905b815481529060010190602001808311611a0957829003601f168201915b5050505050905090565b600a6020528060005260406000206000915054906101000a900460ff1681565b611a62611a5b611fba565b83836128f0565b5050565b611a77611a71611fba565b8361225f565b611ab6576040517f08c379a0000000000000000000000000000000000000000000000000000000008152600401611aad9061445d565b60405180910390fd5b611ac284848484612a5c565b50505050565b60006020825114611b0e576040517f08c379a0000000000000000000000000000000000000000000000000000000008152600401611b059061403e565b60405180910390fd5b8251845114611b52576040517f08c379a0000000000000000000000000000000000000000000000000000000008152600401611b4990614995565b60405180910390fd5b611b62866000308888888861255a565b60008060206000369050611b76919061408d565b90508035915060005b8651811015611c7757611bc88333898481518110611ba057611b9f614633565b5b6020026020010151898581518110611bbb57611bba614633565b5b602002602001015161207b565b3373ffffffffffffffffffffffffffffffffffffffff16838973ffffffffffffffffffffffffffffffffffffffff167fa18753b0660a8be2cdae03468c860b47c2926433ab16917f323544652803032d8a8581518110611c2b57611c2a614633565b5b60200260200101518a8681518110611c4657611c45614633565b5b6020026020010151604051611c5c9291906147b0565b60405180910390a48080611c6f906143a3565b915050611b7f565b5063bc197c8160e01b9250505095945050505050565b6000611c988261163c565b9050919050565b6060611caa82611f6f565b6000611cb4612ab8565b90506000815111611cd45760405180602001604052806000815250611cff565b80611cde84612acf565b604051602001611cef9291906149f1565b6040516020818303038152906040525b915050919050565b6001600b600083815260200190815260200160002060006101000a81548160ff02191690831515021790555050565b6000600560008473ffffffffffffffffffffffffffffffffffffffff1673ffffffffffffffffffffffffffffffffffffffff16815260200190815260200160002060008373ffffffffffffffffffffffffffffffffffffffff1673ffffffffffffffffffffffffffffffffffffffff16815260200190815260200160002060009054906101000a900460ff16905092915050565b600660205282600052604060002060205281600052604060002060205280600052604060002060009250925050505481565b60006020825114611e42576040517f08c379a0000000000000000000000000000000000000000000000000000000008152600401611e399061403e565b60405180910390fd5b611e628660003088611e5389612847565b611e5c89612847565b8861255a565b60008060206000369050611e76919061408d565b905080359150611e888233888861207b565b3373ffffffffffffffffffffffffffffffffffffffff16828873ffffffffffffffffffffffffffffffffffffffff167fa18753b0660a8be2cdae03468c860b47c2926433ab16917f323544652803032d8989604051611ee89291906147b0565b60405180910390a463f23a6e6160e01b9250505095945050505050565b60007f01ffc9a7000000000000000000000000000000000000000000000000000000007bffffffffffffffffffffffffffffffffffffffffffffffffffffffff1916827bffffffffffffffffffffffffffffffffffffffffffffffffffffffff1916149050919050565b611f7881612c2f565b611fb7576040517f08c379a0000000000000000000000000000000000000000000000000000000008152600401611fae90614871565b60405180910390fd5b50565b600033905090565b816004600083815260200190815260200160002060006101000a81548173ffffffffffffffffffffffffffffffffffffffff021916908373ffffffffffffffffffffffffffffffffffffffff160217905550808273ffffffffffffffffffffffffffffffffffffffff166120358361163c565b73ffffffffffffffffffffffffffffffffffffffff167f8c5be1e5ebec7d5bd14f71427d1e84f3dd0314c0f7b2291e5b200ac8c7c3b92560405160405180910390a45050565b6120a08360086000878152602001908152602001600020612c9b90919063ffffffff16565b6120cb576120c98360086000878152602001908152602001600020612ccb90919063ffffffff16565b505b60006006600086815260200190815260200160002060008573ffffffffffffffffffffffffffffffffffffffff1673ffffffffffffffffffffffffffffffffffffffff1681526020019081526020016000206000848152602001908152602001600020540361219857612196826009600087815260200190815260200160002060008673ffffffffffffffffffffffffffffffffffffffff1673ffffffffffffffffffffffffffffffffffffffff168152602001908152602001600020612cfb90919063ffffffff16565b505b806006600086815260200190815260200160002060008573ffffffffffffffffffffffffffffffffffffffff1673ffffffffffffffffffffffffffffffffffffffff168152602001908152602001600020600084815260200190815260200160002060008282546122099190614a15565b9250508190555050505050565b600061222482600001612d15565b9050919050565b600061223a8360000183612d26565b60001c905092915050565b6000612257836000018360001b612d51565b905092915050565b60008061226b8361163c565b90508073ffffffffffffffffffffffffffffffffffffffff168473ffffffffffffffffffffffffffffffffffffffff1614806122ad57506122ac8185611d36565b5b806122eb57508373ffffffffffffffffffffffffffffffffffffffff166122d38461092d565b73ffffffffffffffffffffffffffffffffffffffff16145b91505092915050565b8273ffffffffffffffffffffffffffffffffffffffff166123148261163c565b73ffffffffffffffffffffffffffffffffffffffff161461236a576040517f08c379a000000000000000000000000000000000000000000000000000000000815260040161236190614abb565b60405180910390fd5b600073ffffffffffffffffffffffffffffffffffffffff168273ffffffffffffffffffffffffffffffffffffffff16036123d9576040517f08c379a00000000000000000000000000000000000000000000000000000000081526004016123d090614b4d565b60405180910390fd5b6123e4838383612d74565b6123ef600082611fc2565b6001600360008573ffffffffffffffffffffffffffffffffffffffff1673ffffffffffffffffffffffffffffffffffffffff168152602001908152602001600020600082825461243f919061408d565b925050819055506001600360008473ffffffffffffffffffffffffffffffffffffffff1673ffffffffffffffffffffffffffffffffffffffff16815260200190815260200160002060008282546124969190614a15565b92505081905550816002600083815260200190815260200160002060006101000a81548173ffffffffffffffffffffffffffffffffffffffff021916908373ffffffffffffffffffffffffffffffffffffffff160217905550808273ffffffffffffffffffffffffffffffffffffffff168473ffffffffffffffffffffffffffffffffffffffff167fddf252ad1be2c89b69c2b068fc378daa952ba7f163c4a11628f55a4df523b3ef60405160405180910390a4612555838383612d79565b505050565b50505050505050565b6000811415806125d45750806006600086815260200190815260200160002060008573ffffffffffffffffffffffffffffffffffffffff1673ffffffffffffffffffffffffffffffffffffffff16815260200190815260200160002060008481526020019081526020016000205410155b612613576040517f08c379a000000000000000000000000000000000000000000000000000000000815260040161260a90614bdf565b60405180910390fd5b806006600086815260200190815260200160002060008573ffffffffffffffffffffffffffffffffffffffff1673ffffffffffffffffffffffffffffffffffffffff16815260200190815260200160002060008481526020019081526020016000206000828254612684919061408d565b9250508190555060006006600086815260200190815260200160002060008573ffffffffffffffffffffffffffffffffffffffff1673ffffffffffffffffffffffffffffffffffffffff168152602001908152602001600020600084815260200190815260200160002054036128415761275684600760008673ffffffffffffffffffffffffffffffffffffffff1673ffffffffffffffffffffffffffffffffffffffff1681526020019081526020016000206000858152602001908152602001600020612d7e90919063ffffffff16565b506127b9826009600087815260200190815260200160002060008673ffffffffffffffffffffffffffffffffffffffff1673ffffffffffffffffffffffffffffffffffffffff168152602001908152602001600020612d7e90919063ffffffff16565b5060006128146009600087815260200190815260200160002060008673ffffffffffffffffffffffffffffffffffffffff1673ffffffffffffffffffffffffffffffffffffffff1681526020019081526020016000206128c1565b036128405761283e8360086000878152602001908152602001600020612d9890919063ffffffff16565b505b5b50505050565b60606000600167ffffffffffffffff811115612866576128656133d6565b5b6040519080825280602002602001820160405280156128945781602001602082028036833780820191505090505b50905082816000815181106128ac576128ab614633565b5b60200260200101818152505080915050919050565b60006128cf82600001612d15565b9050919050565b60006128e58360000183612d26565b60001c905092915050565b8173ffffffffffffffffffffffffffffffffffffffff168373ffffffffffffffffffffffffffffffffffffffff160361295e576040517f08c379a000000000000000000000000000000000000000000000000000000000815260040161295590614c4b565b60405180910390fd5b80600560008573ffffffffffffffffffffffffffffffffffffffff1673ffffffffffffffffffffffffffffffffffffffff16815260200190815260200160002060008473ffffffffffffffffffffffffffffffffffffffff1673ffffffffffffffffffffffffffffffffffffffff16815260200190815260200160002060006101000a81548160ff0219169083151502179055508173ffffffffffffffffffffffffffffffffffffffff168373ffffffffffffffffffffffffffffffffffffffff167f17307eab39ab6107e8899845ad3d59bd9653f200f220920489ca2b5937696c3183604051612a4f9190613237565b60405180910390a3505050565b612a678484846122f4565b612a7384848484612dc8565b612ab2576040517f08c379a0000000000000000000000000000000000000000000000000000000008152600401612aa990614cdd565b60405180910390fd5b50505050565b606060405180602001604052806000815250905090565b606060008203612b16576040518060400160405280600181526020017f30000000000000000000000000000000000000000000000000000000000000008152509050612c2a565b600082905060005b60008214612b48578080612b31906143a3565b915050600a82612b419190614d2c565b9150612b1e565b60008167ffffffffffffffff811115612b6457612b636133d6565b5b6040519080825280601f01601f191660200182016040528015612b965781602001600182028036833780820191505090505b5090505b60008514612c2357600182612baf919061408d565b9150600a85612bbe9190614d5d565b6030612bca9190614a15565b60f81b818381518110612be057612bdf614633565b5b60200101907effffffffffffffffffffffffffffffffffffffffffffffffffffffffffffff1916908160001a905350600a85612c1c9190614d2c565b9450612b9a565b8093505050505b919050565b60008073ffffffffffffffffffffffffffffffffffffffff166002600084815260200190815260200160002060009054906101000a900473ffffffffffffffffffffffffffffffffffffffff1673ffffffffffffffffffffffffffffffffffffffff1614159050919050565b6000612cc3836000018373ffffffffffffffffffffffffffffffffffffffff1660001b612d51565b905092915050565b6000612cf3836000018373ffffffffffffffffffffffffffffffffffffffff1660001b612f4f565b905092915050565b6000612d0d836000018360001b612f4f565b905092915050565b600081600001805490509050919050565b6000826000018281548110612d3e57612d3d614633565b5b9060005260206000200154905092915050565b600080836001016000848152602001908152602001600020541415905092915050565b505050565b505050565b6000612d90836000018360001b612fbf565b905092915050565b6000612dc0836000018373ffffffffffffffffffffffffffffffffffffffff1660001b612fbf565b905092915050565b6000612de98473ffffffffffffffffffffffffffffffffffffffff166130d3565b15612f42578373ffffffffffffffffffffffffffffffffffffffff1663150b7a02612e12611fba565b8786866040518563ffffffff1660e01b8152600401612e3494939291906147d9565b6020604051808303816000875af1925050508015612e7057506040513d601f19601f82011682018060405250810190612e6d9190614da3565b60015b612ef2573d8060008114612ea0576040519150601f19603f3d011682016040523d82523d6000602084013e612ea5565b606091505b506000815103612eea576040517f08c379a0000000000000000000000000000000000000000000000000000000008152600401612ee190614cdd565b60405180910390fd5b805181602001fd5b63150b7a0260e01b7bffffffffffffffffffffffffffffffffffffffffffffffffffffffff1916817bffffffffffffffffffffffffffffffffffffffffffffffffffffffff191614915050612f47565b600190505b949350505050565b6000612f5b8383612d51565b612fb4578260000182908060018154018082558091505060019003906000526020600020016000909190919091505582600001805490508360010160008481526020019081526020016000208190555060019050612fb9565b600090505b92915050565b600080836001016000848152602001908152602001600020549050600081146130c7576000600182612ff1919061408d565b9050600060018660000180549050613009919061408d565b905081811461307857600086600001828154811061302a57613029614633565b5b906000526020600020015490508087600001848154811061304e5761304d614633565b5b90600052602060002001819055508387600101600083815260200190815260200160002081905550505b8560000180548061308c5761308b614dd0565b5b6001900381819060005260206000200160009055905585600101600086815260200190815260200160002060009055600193505050506130cd565b60009150505b92915050565b6000808273ffffffffffffffffffffffffffffffffffffffff163b119050919050565b6000604051905090565b600080fd5b600080fd5b6000819050919050565b61311d8161310a565b811461312857600080fd5b50565b60008135905061313a81613114565b92915050565b60006020828403121561315657613155613100565b5b60006131648482850161312b565b91505092915050565b6131768161310a565b82525050565b6000602082019050613191600083018461316d565b92915050565b60007fffffffff0000000000000000000000000000000000000000000000000000000082169050919050565b6131cc81613197565b81146131d757600080fd5b50565b6000813590506131e9816131c3565b92915050565b60006020828403121561320557613204613100565b5b6000613213848285016131da565b91505092915050565b60008115159050919050565b6132318161321c565b82525050565b600060208201905061324c6000830184613228565b92915050565b600081519050919050565b600082825260208201905092915050565b60005b8381101561328c578082015181840152602081019050613271565b60008484015250505050565b6000601f19601f8301169050919050565b60006132b482613252565b6132be818561325d565b93506132ce81856020860161326e565b6132d781613298565b840191505092915050565b600060208201905081810360008301526132fc81846132a9565b905092915050565b600073ffffffffffffffffffffffffffffffffffffffff82169050919050565b600061332f82613304565b9050919050565b61333f81613324565b82525050565b600060208201905061335a6000830184613336565b92915050565b61336981613324565b811461337457600080fd5b50565b60008135905061338681613360565b92915050565b600080604083850312156133a3576133a2613100565b5b60006133b185828601613377565b92505060206133c28582860161312b565b9150509250929050565b600080fd5b600080fd5b7f4e487b7100000000000000000000000000000000000000000000000000000000600052604160045260246000fd5b61340e82613298565b810181811067ffffffffffffffff8211171561342d5761342c6133d6565b5b80604052505050565b60006134406130f6565b905061344c8282613405565b919050565b600067ffffffffffffffff82111561346c5761346b6133d6565b5b61347582613298565b9050602081019050919050565b82818337600083830152505050565b60006134a461349f84613451565b613436565b9050828152602081018484840111156134c0576134bf6133d1565b5b6134cb848285613482565b509392505050565b600082601f8301126134e8576134e76133cc565b5b81356134f8848260208601613491565b91505092915050565b6000806000806080858703121561351b5761351a613100565b5b600061352987828801613377565b945050602061353a87828801613377565b935050604061354b8782880161312b565b925050606085013567ffffffffffffffff81111561356c5761356b613105565b5b613578878288016134d3565b91505092959194509250565b61358d81613197565b82525050565b60006020820190506135a86000830184613584565b92915050565b600067ffffffffffffffff8211156135c9576135c86133d6565b5b6135d282613298565b9050602081019050919050565b60006135f26135ed846135ae565b613436565b90508281526020810184848401111561360e5761360d6133d1565b5b613619848285613482565b509392505050565b600082601f830112613636576136356133cc565b5b81356136468482602086016135df565b91505092915050565b6000806040838503121561366657613665613100565b5b60006136748582860161312b565b925050602083013567ffffffffffffffff81111561369557613694613105565b5b6136a185828601613621565b9150509250929050565b600080604083850312156136c2576136c1613100565b5b60006136d08582860161312b565b92505060206136e18582860161312b565b9150509250929050565b60008060006060848603121561370457613703613100565b5b600061371286828701613377565b935050602061372386828701613377565b92505060406137348682870161312b565b9150509250925092565b600067ffffffffffffffff821115613759576137586133d6565b5b602082029050602081019050919050565b600080fd5b600061378261377d8461373e565b613436565b905080838252602082019050602084028301858111156137a5576137a461376a565b5b835b818110156137ce57806137ba888261312b565b8452602084019350506020810190506137a7565b5050509392505050565b600082601f8301126137ed576137ec6133cc565b5b81356137fd84826020860161376f565b91505092915050565b60008060008060008060c0878903121561382357613822613100565b5b600061383189828a0161312b565b965050602061384289828a01613377565b955050604061385389828a01613377565b945050606087013567ffffffffffffffff81111561387457613873613105565b5b61388089828a016137d8565b935050608087013567ffffffffffffffff8111156138a1576138a0613105565b5b6138ad89828a016137d8565b92505060a087013567ffffffffffffffff8111156138ce576138cd613105565b5b6138da89828a016134d3565b9150509295509295509295565b60008060008060008060c0878903121561390457613903613100565b5b600061391289828a0161312b565b965050602061392389828a01613377565b955050604061393489828a01613377565b945050606061394589828a0161312b565b935050608061395689828a0161312b565b92505060a087013567ffffffffffffffff81111561397757613976613105565b5b61398389828a016134d3565b9150509295509295509295565b600080604083850312156139a7576139a6613100565b5b60006139b58582860161312b565b92505060206139c685828601613377565b9150509250929050565b600081519050919050565b600082825260208201905092915050565b6000819050602082019050919050565b613a058161310a565b82525050565b6000613a1783836139fc565b60208301905092915050565b6000602082019050919050565b6000613a3b826139d0565b613a4581856139db565b9350613a50836139ec565b8060005b83811015613a81578151613a688882613a0b565b9750613a7383613a23565b925050600181019050613a54565b5085935050505092915050565b60006020820190508181036000830152613aa88184613a30565b905092915050565b600080600060608486031215613ac957613ac8613100565b5b6000613ad78682870161312b565b9350506020613ae886828701613377565b9250506040613af98682870161312b565b9150509250925092565b600060208284031215613b1957613b18613100565b5b6000613b2784828501613377565b91505092915050565b600081519050919050565b600082825260208201905092915050565b6000819050602082019050919050565b613b6581613324565b82525050565b6000613b778383613b5c565b60208301905092915050565b6000602082019050919050565b6000613b9b82613b30565b613ba58185613b3b565b9350613bb083613b4c565b8060005b83811015613be1578151613bc88882613b6b565b9750613bd383613b83565b925050600181019050613bb4565b5085935050505092915050565b60006020820190508181036000830152613c088184613b90565b905092915050565b613c198161321c565b8114613c2457600080fd5b50565b600081359050613c3681613c10565b92915050565b60008060408385031215613c5357613c52613100565b5b6000613c6185828601613377565b9250506020613c7285828601613c27565b9150509250929050565b600080600080600060a08688031215613c9857613c97613100565b5b6000613ca688828901613377565b9550506020613cb788828901613377565b945050604086013567ffffffffffffffff811115613cd857613cd7613105565b5b613ce4888289016137d8565b935050606086013567ffffffffffffffff811115613d0557613d04613105565b5b613d11888289016137d8565b925050608086013567ffffffffffffffff811115613d3257613d31613105565b5b613d3e888289016134d3565b9150509295509295909350565b60008060408385031215613d6257613d61613100565b5b6000613d7085828601613377565b9250506020613d8185828601613377565b9150509250929050565b600080600080600060a08688031215613da757613da6613100565b5b6000613db588828901613377565b9550506020613dc688828901613377565b9450506040613dd78882890161312b565b9350506060613de88882890161312b565b925050608086013567ffffffffffffffff811115613e0957613e08613105565b5b613e15888289016134d3565b9150509295509295909350565b7f4e487b7100000000000000000000000000000000000000000000000000000000600052602260045260246000fd5b60006002820490506001821680613e6957607f821691505b602082108103613e7c57613e7b613e22565b5b50919050565b7f4552433732313a20617070726f76616c20746f2063757272656e74206f776e6560008201527f7200000000000000000000000000000000000000000000000000000000000000602082015250565b6000613ede60218361325d565b9150613ee982613e82565b604082019050919050565b60006020820190508181036000830152613f0d81613ed1565b9050919050565b7f4552433732313a20617070726f76652063616c6c6572206973206e6f7420746f60008201527f6b656e206f776e6572206e6f7220617070726f76656420666f7220616c6c0000602082015250565b6000613f70603e8361325d565b9150613f7b82613f14565b604082019050919050565b60006020820190508181036000830152613f9f81613f63565b9050919050565b7f4552433939383a2064617461206d75737420636f6e7461696e2074686520756e60008201527f697175652075696e7432353620746f6b656e496420746f207472616e7366657260208201527f20746865206368696c6420746f6b656e20746f00000000000000000000000000604082015250565b600061402860538361325d565b915061403382613fa6565b606082019050919050565b600060208201905081810360008301526140578161401b565b9050919050565b7f4e487b7100000000000000000000000000000000000000000000000000000000600052601160045260246000fd5b60006140988261310a565b91506140a38361310a565b92508282039050818111156140bb576140ba61405e565b5b92915050565b6000819050919050565b6000819050919050565b60006140f06140eb6140e6846140c1565b6140cb565b61310a565b9050919050565b614100816140d5565b82525050565b600060408201905061411b600083018561316d565b61412860208301846140f7565b9392505050565b60008190508160005260206000209050919050565b60006020601f8301049050919050565b600082821b905092915050565b6000600883026141917fffffffffffffffffffffffffffffffffffffffffffffffffffffffffffffffff82614154565b61419b8683614154565b95508019841693508086168417925050509392505050565b60006141ce6141c96141c48461310a565b6140cb565b61310a565b9050919050565b6000819050919050565b6141e8836141b3565b6141fc6141f4826141d5565b848454614161565b825550505050565b600090565b614211614204565b61421c8184846141df565b505050565b5b8181101561424057614235600082614209565b600181019050614222565b5050565b601f821115614285576142568161412f565b61425f84614144565b8101602085101561426e578190505b61428261427a85614144565b830182614221565b50505b505050565b600082821c905092915050565b60006142a86000198460080261428a565b1980831691505092915050565b60006142c18383614297565b9150826002028217905092915050565b6142da82613252565b67ffffffffffffffff8111156142f3576142f26133d6565b5b6142fd8254613e51565b614308828285614244565b600060209050601f83116001811461433b5760008415614329578287015190505b61433385826142b5565b86555061439b565b601f1984166143498661412f565b60005b828110156143715784890151825560018201915060208501945060208101905061434c565b8683101561438e578489015161438a601f891682614297565b8355505b6001600288020188555050505b505050505050565b60006143ae8261310a565b91507fffffffffffffffffffffffffffffffffffffffffffffffffffffffffffffffff82036143e0576143df61405e565b5b600182019050919050565b7f4552433732313a2063616c6c6572206973206e6f7420746f6b656e206f776e6560008201527f72206e6f7220617070726f766564000000000000000000000000000000000000602082015250565b6000614447602e8361325d565b9150614452826143eb565b604082019050919050565b600060208201905081810360008301526144768161443a565b9050919050565b7f4552433939383a2069647320616e6420616d6f756e7473206c656e677468206d60008201527f69736d6174636800000000000000000000000000000000000000000000000000602082015250565b60006144d960278361325d565b91506144e48261447d565b604082019050919050565b60006020820190508181036000830152614508816144cc565b9050919050565b7f4552433939383a207472616e7366657220746f20746865207a65726f2061646460008201527f7265737300000000000000000000000000000000000000000000000000000000602082015250565b600061456b60248361325d565b91506145768261450f565b604082019050919050565b6000602082019050818103600083015261459a8161455e565b9050919050565b7f4552433939383a2063616c6c6572206973206e6f74206f776e6572206e6f722060008201527f617070726f766564000000000000000000000000000000000000000000000000602082015250565b60006145fd60288361325d565b9150614608826145a1565b604082019050919050565b6000602082019050818103600083015261462c816145f0565b9050919050565b7f4e487b7100000000000000000000000000000000000000000000000000000000600052603260045260246000fd5b600081519050919050565b600082825260208201905092915050565b600061468982614662565b614693818561466d565b93506146a381856020860161326e565b6146ac81613298565b840191505092915050565b600060a0820190506146cc6000830188613336565b6146d96020830187613336565b81810360408301526146eb8186613a30565b905081810360608301526146ff8185613a30565b90508181036080830152614713818461467e565b90509695505050505050565b600060408201905081810360008301526147398185613a30565b9050818103602083015261474d8184613a30565b90509392505050565b600060a08201905061476b6000830188613336565b6147786020830187613336565b614785604083018661316d565b614792606083018561316d565b81810360808301526147a4818461467e565b90509695505050505050565b60006040820190506147c5600083018561316d565b6147d2602083018461316d565b9392505050565b60006080820190506147ee6000830187613336565b6147fb6020830186613336565b614808604083018561316d565b818103606083015261481a818461467e565b905095945050505050565b7f4552433732313a20696e76616c696420746f6b656e2049440000000000000000600082015250565b600061485b60188361325d565b915061486682614825565b602082019050919050565b6000602082019050818103600083015261488a8161484e565b9050919050565b7f4552433732313a2061646472657373207a65726f206973206e6f74206120766160008201527f6c6964206f776e65720000000000000000000000000000000000000000000000602082015250565b60006148ed60298361325d565b91506148f882614891565b604082019050919050565b6000602082019050818103600083015261491c816148e0565b9050919050565b7f455243313135353a2069647320616e642076616c756573206c656e677468206d60008201527f69736d6174636800000000000000000000000000000000000000000000000000602082015250565b600061497f60278361325d565b915061498a82614923565b604082019050919050565b600060208201905081810360008301526149ae81614972565b9050919050565b600081905092915050565b60006149cb82613252565b6149d581856149b5565b93506149e581856020860161326e565b80840191505092915050565b60006149fd82856149c0565b9150614a0982846149c0565b91508190509392505050565b6000614a208261310a565b9150614a2b8361310a565b9250828201905080821115614a4357614a4261405e565b5b92915050565b7f4552433732313a207472616e736665722066726f6d20696e636f72726563742060008201527f6f776e6572000000000000000000000000000000000000000000000000000000602082015250565b6000614aa560258361325d565b9150614ab082614a49565b604082019050919050565b60006020820190508181036000830152614ad481614a98565b9050919050565b7f4552433732313a207472616e7366657220746f20746865207a65726f2061646460008201527f7265737300000000000000000000000000000000000000000000000000000000602082015250565b6000614b3760248361325d565b9150614b4282614adb565b604082019050919050565b60006020820190508181036000830152614b6681614b2a565b9050919050565b7f4552433939383a20696e73756666696369656e74206368696c642062616c616e60008201527f636520666f72207472616e736665720000000000000000000000000000000000602082015250565b6000614bc9602f8361325d565b9150614bd482614b6d565b604082019050919050565b60006020820190508181036000830152614bf881614bbc565b9050919050565b7f4552433732313a20617070726f766520746f2063616c6c657200000000000000600082015250565b6000614c3560198361325d565b9150614c4082614bff565b602082019050919050565b60006020820190508181036000830152614c6481614c28565b9050919050565b7f4552433732313a207472616e7366657220746f206e6f6e20455243373231526560008201527f63656976657220696d706c656d656e7465720000000000000000000000000000602082015250565b6000614cc760328361325d565b9150614cd282614c6b565b604082019050919050565b60006020820190508181036000830152614cf681614cba565b9050919050565b7f4e487b7100000000000000000000000000000000000000000000000000000000600052601260045260246000fd5b6000614d378261310a565b9150614d428361310a565b925082614d5257614d51614cfd565b5b828204905092915050565b6000614d688261310a565b9150614d738361310a565b925082614d8357614d82614cfd565b5b828206905092915050565b600081519050614d9d816131c3565b92915050565b600060208284031215614db957614db8613100565b5b6000614dc784828501614d8e565b91505092915050565b7f4e487b7100000000000000000000000000000000000000000000000000000000600052603160045260246000fdfea2646970667358221220c08251be03be035581f326e935bac1f0fafea8bbe15e004f0702538fb078e59c64736f6c63430008110033",
  "immutableReferences": {},
  "source": "// SPDX-License-Identifier: UNLICENSED\n\npragma solidity ^0.8.0;\n\n/*\n// for remix\nimport \"https://github.com/OpenZeppelin/openzeppelin-contracts/blob/master/contracts/token/ERC1155/ERC1155.sol\";\nimport \"https://github.com/OpenZeppelin/openzeppelin-contracts/blob/master/contracts/token/ERC1155/ERC1155Receiver.sol\";\nimport \"https://github.com/OpenZeppelin/openzeppelin-contracts/blob/master/contracts/token/ERC721/ERC721.sol\";\nimport \"https://github.com/OpenZeppelin/openzeppelin-contracts/blob/master/contracts/utils/EnumerableSet.sol\";\n*/\n\nimport \"@openzeppelin/contracts/token/ERC1155/ERC1155.sol\";\nimport \"@openzeppelin/contracts/token/ERC1155/IERC1155Receiver.sol\";\nimport \"@openzeppelin/contracts/token/ERC721/ERC721.sol\";\nimport \"@openzeppelin/contracts/token/ERC721/IERC721Receiver.sol\";\nimport \"@openzeppelin/contracts/utils/structs/EnumerableSet.sol\";\n\nimport \"./IERC998ERC1155TopDown.sol\";\n\ncontract ERC998ERC1155TopDown is ERC721, IERC1155Receiver, IERC998ERC1155TopDown, IERC721Receiver {\n    using EnumerableSet for EnumerableSet.AddressSet;\n    using EnumerableSet for EnumerableSet.UintSet;\n\n    mapping(uint256 => mapping(address => mapping(uint256 => uint256))) public _balances;\n    mapping(address => mapping(uint256 => EnumerableSet.UintSet)) private _holdersOf;\n\n    mapping(uint256 => EnumerableSet.AddressSet) private _childContract;\n    mapping(uint256 => mapping(address => EnumerableSet.UintSet)) private _childsForChildContract;\n\n    mapping(uint256 => bool) public isERC721;\n    mapping(uint256 => bool) public isERC1155;\n    \n    // mapping from tokenID to IPFS hash\n    mapping(uint256 => string) public token_URI;\n\n    uint256[] public rootOwners;\n\n    constructor(string memory name, string memory symbol, string memory baseURI) ERC721(name, symbol) public {\n        _baseURI();\n    }\n\n    // set tokenURI\n    function setTokenURI(uint256 tokenId, string memory _tokenURI) public {\n        token_URI[tokenId] = _tokenURI;\n    }\n\n    // get tokenURI\n    function getTokenURI(uint256 tokenId) public view returns (string memory) {\n        return token_URI[tokenId];\n    }\n\n\n    /**\n     * @dev Gives child balance for a specific child contract and child id .\n     */\n    function childBalance(uint256 tokenId, address childContract, uint256 childTokenId) external view override returns(uint256) {\n        return _balances[tokenId][childContract][childTokenId];\n    }\n\n    /**\n     * @dev Gives list of child contract where token ID has childs.\n     */\n    function childContractsFor(uint256 tokenId) override external view returns (address[] memory) {\n        address[] memory childContracts = new address[](_childContract[tokenId].length());\n\n        for(uint256 i = 0; i < _childContract[tokenId].length(); i++) {\n            childContracts[i] = _childContract[tokenId].at(i);\n        }\n\n        return childContracts;\n    }\n\n    /**\n     * @dev Gives list of owned child ID on a child contract by parent token ID and child contract.\n     */\n    function childIdsOwned(uint256 tokenId, address childContract) override external view returns (uint256[] memory) {\n        uint256[] memory childTokenIds = new uint256[](_childsForChildContract[tokenId][childContract].length());\n\n        for(uint256 i = 0; i < _childsForChildContract[tokenId][childContract].length(); i++) {\n            childTokenIds[i] = _childsForChildContract[tokenId][childContract].at(i);\n        }\n\n        return childTokenIds;\n    }\n\n    /**\n     * @dev set root owner\n     */\n    function setRootOwner(uint256 id) public {\n        rootOwners.push(id);\n    }\n\n    /**\n     * @dev gets root owners\n     */\n    function getRootOwners() external view returns(uint256 [] memory){\n        return rootOwners;\n    }\n\n    // /**\n    //  * @dev gets root owner for child\n    //  */\n    // function getRootOwnerID(uint256 childID, address childContract) external view returns(uint256){\n    //     uint256 ro = 0;\n    //     for(uint256 i = 0; i < rootOwners.length; i++){\n    //         uint256[] memory childTokenIds = childIdsOwned(i, childContract);\n    //         for(uint256 j = 0; j < childTokenIds.length; j++){\n    //             if(j == childID){\n    //                 ro = i;\n    //             }\n    //         }\n    //     }\n\n    //     return ro;\n    // }\n\n    /**\n     * @dev Transfers child token from a token ID.\n     */\n    function safeTransferChildFrom(uint256 fromTokenId, address to, address childContract, uint256 childTokenId, uint256 amount, bytes memory data) public override {\n        require(to != address(0), \"ERC998: transfer to the zero address\");\n\n        address operator = _msgSender();\n        // uint256 o = _holdersOf[childContract][childTokenId];\n        require(\n            ownerOf(fromTokenId) == operator ||\n            isApprovedForAll(ownerOf(fromTokenId), operator),\n            \"ERC998: caller is not owner nor approved\"\n        );\n\n        _beforeChildTransfer(operator, fromTokenId, to, childContract, _asSingletonArray(childTokenId), _asSingletonArray(amount), data);\n\n        _removeChild(fromTokenId, childContract, childTokenId, amount);\n\n        // TODO: maybe check if to == this\n        if(isERC1155[childTokenId]){\n            ERC1155(childContract).safeTransferFrom(address(this), to, childTokenId, amount, data);\n            emit TransferSingleChild(fromTokenId, to, childContract, childTokenId, amount);\n        } else {\n            ERC721(childContract).safeTransferFrom(address(this), to, childTokenId, data);\n            emit TransferSingleChild(fromTokenId, to, childContract, childTokenId, amount);\n        }\n        \n       \n        \n        \n    }\n\n\n\n\n    /**\n     * @dev Returns the owner of the token specified by tokenId. Wrapper function for ERC721 function ownerOf(). \n    */\n    function getOwner(uint256 tokenID) external view returns(address){\n        return ownerOf(tokenID);\n    }\n\n\n    /**\n     * @dev Sets isERC1155 array \n    */\n    function setIsERC1155(uint256 tokenID) public {\n        isERC1155[tokenID] = true;\n    }\n\n    /**\n     * @dev gets true if tokenID is ERC1155\n    */\n    function getIsERC1155(uint256 tokenID) external view returns(bool) {\n        return isERC1155[tokenID];\n    }\n    \n\n    /**\n     * @dev Returns the contract address of the child token ID, given a parent and child token ID.\n     */\n    function getChildContract(uint256 tokenID, uint256 childTokenID) external view returns(address){\n\n        for(uint256 i = 0; i < _childContract[tokenID].length(); i++) {\n            if (_childsForChildContract[tokenID][_childContract[tokenID].at(i)].contains(childTokenID)){\n                return _childContract[tokenID].at(i);\n            }\n        }\n\n        return address(0);\n    }\n\n    /**\n     * @dev Wrapper function to get message sender.\n     */\n    function getMsgSender() external view returns(address){\n        return _msgSender();\n    }\n\n\n\n    /**\n     * @dev Transfers batch of child tokens from a token ID.\n     */\n    function safeBatchTransferChildFrom(uint256 fromTokenId, address to, address childContract, uint256[] memory childTokenIds, uint256[] memory amounts, bytes memory data) public override {\n        require(childTokenIds.length == amounts.length, \"ERC998: ids and amounts length mismatch\");\n        require(to != address(0), \"ERC998: transfer to the zero address\");\n\n        address operator = _msgSender();\n        require(\n            ownerOf(fromTokenId) == operator ||\n            isApprovedForAll(ownerOf(fromTokenId), operator),\n            \"ERC998: caller is not owner nor approved\"\n        );\n\n        _beforeChildTransfer(operator, fromTokenId, to, childContract, childTokenIds, amounts, data);\n\n        for (uint256 i = 0; i < childTokenIds.length; ++i) {\n            uint256 childTokenId = childTokenIds[i];\n            uint256 amount = amounts[i];\n\n            _removeChild(fromTokenId, childContract, childTokenId, amount);\n        }\n        ERC1155(childContract).safeBatchTransferFrom(address(this), to, childTokenIds, amounts, data);\n        emit TransferBatchChild(fromTokenId, to, childContract, childTokenIds, amounts);\n    }\n\n    /**\n     * @dev Receives a child token, the receiver token ID must be encoded in the\n     * field data.\n     */\n    function onERC1155Received(address operator, address from, uint256 id, uint256 amount, bytes memory data) virtual public override returns(bytes4) {\n        require(data.length == 32, \"ERC998: data must contain the unique uint256 tokenId to transfer the child token to\");\n        _beforeChildTransfer(operator, 0, address(this), from, _asSingletonArray(id), _asSingletonArray(amount), data);\n\n        uint256 _receiverTokenId;\n        uint256 _index = msg.data.length - 32;\n        assembly {_receiverTokenId := calldataload(_index)}\n\n        _receiveChild(_receiverTokenId, msg.sender, id, amount);\n        emit ReceivedChild(from, _receiverTokenId, msg.sender, id, amount);\n\n        return this.onERC1155Received.selector;\n    }\n\n    /**\n     * @dev Receives a child 998 token, the receiver token ID must be encoded in the\n     * field data.\n     */\n    function onERC721Received(address operator, address from, uint256 tokenId, bytes memory data) virtual public override returns(bytes4) {\n        require(data.length == 32, \"ERC998: data must contain the unique uint256 tokenId to transfer the child token to\");\n\n        uint256 _receiverTokenId;\n        uint256 _index = msg.data.length - 32;\n        assembly {_receiverTokenId := calldataload(_index)}\n\n        _receiveChild(_receiverTokenId, msg.sender, tokenId, 1);\n        emit ReceivedChild(from, _receiverTokenId, msg.sender, tokenId, 1);\n\n        return this.onERC721Received.selector;\n    }\n\n    /**\n     * @dev Receives a batch of child tokens, the receiver token ID must be\n     * encoded in the field data.\n     */\n    function onERC1155BatchReceived(address operator, address from, uint256[] memory ids, uint256[] memory values, bytes memory data) virtual public override returns(bytes4) {\n        require(data.length == 32, \"ERC998: data must contain the unique uint256 tokenId to transfer the child token to\");\n        require(ids.length == values.length, \"ERC1155: ids and values length mismatch\");\n        _beforeChildTransfer(operator, 0, address(this), from, ids, values, data);\n\n        uint256 _receiverTokenId;\n        uint256 _index = msg.data.length - 32;\n        assembly {_receiverTokenId := calldataload(_index)}\n        for(uint256 i = 0; i < ids.length; i++) {\n            _receiveChild(_receiverTokenId, msg.sender, ids[i], values[i]);\n            emit ReceivedChild(from, _receiverTokenId, msg.sender, ids[i], values[i]);\n        }\n        return this.onERC1155BatchReceived.selector;\n    }\n\n    function _receiveChild(uint256 tokenId, address childContract, uint256 childTokenId, uint256 amount) internal virtual {\n        if(!_childContract[tokenId].contains(childContract)) {\n            _childContract[tokenId].add(childContract);\n        }\n        if(_balances[tokenId][childContract][childTokenId] == 0) {\n            _childsForChildContract[tokenId][childContract].add(childTokenId);\n        }\n        _balances[tokenId][childContract][childTokenId] += amount;\n    }\n\n    function _removeChild(uint256 tokenId, address childContract, uint256 childTokenId, uint256 amount) internal virtual {\n        require(amount != 0 || _balances[tokenId][childContract][childTokenId] >= amount, \"ERC998: insufficient child balance for transfer\");\n        _balances[tokenId][childContract][childTokenId] -= amount;\n        if(_balances[tokenId][childContract][childTokenId] == 0) {\n            _holdersOf[childContract][childTokenId].remove(tokenId);\n            _childsForChildContract[tokenId][childContract].remove(childTokenId);\n            if(_childsForChildContract[tokenId][childContract].length() == 0) {\n                _childContract[tokenId].remove(childContract);\n            }\n        }\n    }\n\n    function _beforeChildTransfer(\n        address operator,\n        uint256 fromTokenId,\n        address to,\n        address childContract,\n        uint256[] memory ids,\n        uint256[] memory amounts,\n        bytes memory data\n    )\n        internal virtual\n    { }\n\n    function _asSingletonArray(uint256 element) private pure returns (uint256[] memory) {\n        uint256[] memory array = new uint256[](1);\n        array[0] = element;\n\n        return array;\n    }\n}\n",
  "sourcePath": "/Users/moose/Documents/Projects/composo/supp_chain/truffle/contracts/ERC998ERC1155TopDown.sol",
  "compiler": {
    "name": "solc",
    "version": "0.8.17+commit.8df45f5f.Emscripten.clang"
  },
  "schemaVersion": "3.4.7",
  "updatedAt": "2022-11-01T12:46:17.953Z",
  "devdoc": {
    "kind": "dev",
    "methods": {
      "approve(address,uint256)": {
        "details": "See {IERC721-approve}."
      },
      "balanceOf(address)": {
        "details": "See {IERC721-balanceOf}."
      },
      "childBalance(uint256,address,uint256)": {
        "details": "Gives child balance for a specific child contract and child id ."
      },
      "childContractsFor(uint256)": {
        "details": "Gives list of child contract where token ID has childs."
      },
      "childIdsOwned(uint256,address)": {
        "details": "Gives list of owned child ID on a child contract by parent token ID and child contract."
      },
      "getApproved(uint256)": {
        "details": "See {IERC721-getApproved}."
      },
      "getChildContract(uint256,uint256)": {
        "details": "Returns the contract address of the child token ID, given a parent and child token ID."
      },
      "getIsERC1155(uint256)": {
        "details": "gets true if tokenID is ERC1155"
      },
      "getMsgSender()": {
        "details": "Wrapper function to get message sender."
      },
      "getOwner(uint256)": {
        "details": "Returns the owner of the token specified by tokenId. Wrapper function for ERC721 function ownerOf(). "
      },
      "getRootOwners()": {
        "details": "gets root owners"
      },
      "isApprovedForAll(address,address)": {
        "details": "See {IERC721-isApprovedForAll}."
      },
      "name()": {
        "details": "See {IERC721Metadata-name}."
      },
      "onERC1155BatchReceived(address,address,uint256[],uint256[],bytes)": {
        "details": "Receives a batch of child tokens, the receiver token ID must be encoded in the field data."
      },
      "onERC1155Received(address,address,uint256,uint256,bytes)": {
        "details": "Receives a child token, the receiver token ID must be encoded in the field data."
      },
      "onERC721Received(address,address,uint256,bytes)": {
        "details": "Receives a child 998 token, the receiver token ID must be encoded in the field data."
      },
      "ownerOf(uint256)": {
        "details": "See {IERC721-ownerOf}."
      },
      "safeBatchTransferChildFrom(uint256,address,address,uint256[],uint256[],bytes)": {
        "details": "Transfers batch of child tokens from a token ID."
      },
      "safeTransferChildFrom(uint256,address,address,uint256,uint256,bytes)": {
        "details": "Transfers child token from a token ID."
      },
      "safeTransferFrom(address,address,uint256)": {
        "details": "See {IERC721-safeTransferFrom}."
      },
      "safeTransferFrom(address,address,uint256,bytes)": {
        "details": "See {IERC721-safeTransferFrom}."
      },
      "setApprovalForAll(address,bool)": {
        "details": "See {IERC721-setApprovalForAll}."
      },
      "setIsERC1155(uint256)": {
        "details": "Sets isERC1155 array "
      },
      "setRootOwner(uint256)": {
        "details": "set root owner"
      },
      "supportsInterface(bytes4)": {
        "details": "See {IERC165-supportsInterface}."
      },
      "symbol()": {
        "details": "See {IERC721Metadata-symbol}."
      },
      "tokenURI(uint256)": {
        "details": "See {IERC721Metadata-tokenURI}."
      },
      "transferFrom(address,address,uint256)": {
        "details": "See {IERC721-transferFrom}."
      }
    },
    "version": 1
  },
  "userdoc": {
    "kind": "user",
    "methods": {},
    "version": 1
  }
}