{
  "contractName": "ERC998ERC1155TopDown",
  "abi": [
    {
      "inputs": [
        {
          "internalType": "string",
          "name": "name",
          "type": "string"
        },
        {
          "internalType": "string",
          "name": "symbol",
          "type": "string"
        },
        {
          "internalType": "string",
          "name": "baseURI",
          "type": "string"
        }
      ],
      "stateMutability": "nonpayable",
      "type": "constructor"
    },
    {
      "anonymous": false,
      "inputs": [
        {
          "indexed": true,
          "internalType": "address",
          "name": "owner",
          "type": "address"
        },
        {
          "indexed": true,
          "internalType": "address",
          "name": "approved",
          "type": "address"
        },
        {
          "indexed": true,
          "internalType": "uint256",
          "name": "tokenId",
          "type": "uint256"
        }
      ],
      "name": "Approval",
      "type": "event"
    },
    {
      "anonymous": false,
      "inputs": [
        {
          "indexed": true,
          "internalType": "address",
          "name": "owner",
          "type": "address"
        },
        {
          "indexed": true,
          "internalType": "address",
          "name": "operator",
          "type": "address"
        },
        {
          "indexed": false,
          "internalType": "bool",
          "name": "approved",
          "type": "bool"
        }
      ],
      "name": "ApprovalForAll",
      "type": "event"
    },
    {
      "anonymous": false,
      "inputs": [
        {
          "indexed": true,
          "internalType": "address",
          "name": "from",
          "type": "address"
        },
        {
          "indexed": true,
          "internalType": "uint256",
          "name": "toTokenId",
          "type": "uint256"
        },
        {
          "indexed": true,
          "internalType": "address",
          "name": "childContract",
          "type": "address"
        },
        {
          "indexed": false,
          "internalType": "uint256",
          "name": "childTokenId",
          "type": "uint256"
        },
        {
          "indexed": false,
          "internalType": "uint256",
          "name": "amount",
          "type": "uint256"
        }
      ],
      "name": "ReceivedChild",
      "type": "event"
    },
    {
      "anonymous": false,
      "inputs": [
        {
          "indexed": true,
          "internalType": "address",
          "name": "from",
          "type": "address"
        },
        {
          "indexed": true,
          "internalType": "address",
          "name": "to",
          "type": "address"
        },
        {
          "indexed": true,
          "internalType": "uint256",
          "name": "tokenId",
          "type": "uint256"
        }
      ],
      "name": "Transfer",
      "type": "event"
    },
    {
      "anonymous": false,
      "inputs": [
        {
          "indexed": true,
          "internalType": "uint256",
          "name": "fromTokenId",
          "type": "uint256"
        },
        {
          "indexed": true,
          "internalType": "address",
          "name": "to",
          "type": "address"
        },
        {
          "indexed": true,
          "internalType": "address",
          "name": "childContract",
          "type": "address"
        },
        {
          "indexed": false,
          "internalType": "uint256[]",
          "name": "childTokenIds",
          "type": "uint256[]"
        },
        {
          "indexed": false,
          "internalType": "uint256[]",
          "name": "amounts",
          "type": "uint256[]"
        }
      ],
      "name": "TransferBatchChild",
      "type": "event"
    },
    {
      "anonymous": false,
      "inputs": [
        {
          "indexed": true,
          "internalType": "uint256",
          "name": "fromTokenId",
          "type": "uint256"
        },
        {
          "indexed": true,
          "internalType": "address",
          "name": "to",
          "type": "address"
        },
        {
          "indexed": true,
          "internalType": "address",
          "name": "childContract",
          "type": "address"
        },
        {
          "indexed": false,
          "internalType": "uint256",
          "name": "childTokenId",
          "type": "uint256"
        },
        {
          "indexed": false,
          "internalType": "uint256",
          "name": "amount",
          "type": "uint256"
        }
      ],
      "name": "TransferSingleChild",
      "type": "event"
    },
    {
      "inputs": [
        {
          "internalType": "uint256",
          "name": "",
          "type": "uint256"
        },
        {
          "internalType": "address",
          "name": "",
          "type": "address"
        },
        {
          "internalType": "uint256",
          "name": "",
          "type": "uint256"
        }
      ],
      "name": "_balances",
      "outputs": [
        {
          "internalType": "uint256",
          "name": "",
          "type": "uint256"
        }
      ],
      "stateMutability": "view",
      "type": "function",
      "constant": true
    },
    {
      "inputs": [
        {
          "internalType": "address",
          "name": "to",
          "type": "address"
        },
        {
          "internalType": "uint256",
          "name": "tokenId",
          "type": "uint256"
        }
      ],
      "name": "approve",
      "outputs": [],
      "stateMutability": "nonpayable",
      "type": "function"
    },
    {
      "inputs": [
        {
          "internalType": "address",
          "name": "owner",
          "type": "address"
        }
      ],
      "name": "balanceOf",
      "outputs": [
        {
          "internalType": "uint256",
          "name": "",
          "type": "uint256"
        }
      ],
      "stateMutability": "view",
      "type": "function",
      "constant": true
    },
    {
      "inputs": [
        {
          "internalType": "uint256",
          "name": "tokenId",
          "type": "uint256"
        }
      ],
      "name": "getApproved",
      "outputs": [
        {
          "internalType": "address",
          "name": "",
          "type": "address"
        }
      ],
      "stateMutability": "view",
      "type": "function",
      "constant": true
    },
    {
      "inputs": [
        {
          "internalType": "address",
          "name": "owner",
          "type": "address"
        },
        {
          "internalType": "address",
          "name": "operator",
          "type": "address"
        }
      ],
      "name": "isApprovedForAll",
      "outputs": [
        {
          "internalType": "bool",
          "name": "",
          "type": "bool"
        }
      ],
      "stateMutability": "view",
      "type": "function",
      "constant": true
    },
    {
      "inputs": [
        {
          "internalType": "uint256",
          "name": "",
          "type": "uint256"
        }
      ],
      "name": "isERC1155",
      "outputs": [
        {
          "internalType": "bool",
          "name": "",
          "type": "bool"
        }
      ],
      "stateMutability": "view",
      "type": "function",
      "constant": true
    },
    {
      "inputs": [
        {
          "internalType": "uint256",
          "name": "",
          "type": "uint256"
        }
      ],
      "name": "isERC721",
      "outputs": [
        {
          "internalType": "bool",
          "name": "",
          "type": "bool"
        }
      ],
      "stateMutability": "view",
      "type": "function",
      "constant": true
    },
    {
      "inputs": [],
      "name": "name",
      "outputs": [
        {
          "internalType": "string",
          "name": "",
          "type": "string"
        }
      ],
      "stateMutability": "view",
      "type": "function",
      "constant": true
    },
    {
      "inputs": [
        {
          "internalType": "uint256",
          "name": "tokenId",
          "type": "uint256"
        }
      ],
      "name": "ownerOf",
      "outputs": [
        {
          "internalType": "address",
          "name": "",
          "type": "address"
        }
      ],
      "stateMutability": "view",
      "type": "function",
      "constant": true
    },
    {
      "inputs": [
        {
          "internalType": "address",
          "name": "from",
          "type": "address"
        },
        {
          "internalType": "address",
          "name": "to",
          "type": "address"
        },
        {
          "internalType": "uint256",
          "name": "tokenId",
          "type": "uint256"
        }
      ],
      "name": "safeTransferFrom",
      "outputs": [],
      "stateMutability": "nonpayable",
      "type": "function"
    },
    {
      "inputs": [
        {
          "internalType": "address",
          "name": "from",
          "type": "address"
        },
        {
          "internalType": "address",
          "name": "to",
          "type": "address"
        },
        {
          "internalType": "uint256",
          "name": "tokenId",
          "type": "uint256"
        },
        {
          "internalType": "bytes",
          "name": "data",
          "type": "bytes"
        }
      ],
      "name": "safeTransferFrom",
      "outputs": [],
      "stateMutability": "nonpayable",
      "type": "function"
    },
    {
      "inputs": [
        {
          "internalType": "address",
          "name": "operator",
          "type": "address"
        },
        {
          "internalType": "bool",
          "name": "approved",
          "type": "bool"
        }
      ],
      "name": "setApprovalForAll",
      "outputs": [],
      "stateMutability": "nonpayable",
      "type": "function"
    },
    {
      "inputs": [
        {
          "internalType": "bytes4",
          "name": "interfaceId",
          "type": "bytes4"
        }
      ],
      "name": "supportsInterface",
      "outputs": [
        {
          "internalType": "bool",
          "name": "",
          "type": "bool"
        }
      ],
      "stateMutability": "view",
      "type": "function",
      "constant": true
    },
    {
      "inputs": [],
      "name": "symbol",
      "outputs": [
        {
          "internalType": "string",
          "name": "",
          "type": "string"
        }
      ],
      "stateMutability": "view",
      "type": "function",
      "constant": true
    },
    {
      "inputs": [
        {
          "internalType": "uint256",
          "name": "tokenId",
          "type": "uint256"
        }
      ],
      "name": "tokenURI",
      "outputs": [
        {
          "internalType": "string",
          "name": "",
          "type": "string"
        }
      ],
      "stateMutability": "view",
      "type": "function",
      "constant": true
    },
    {
      "inputs": [
        {
          "internalType": "address",
          "name": "from",
          "type": "address"
        },
        {
          "internalType": "address",
          "name": "to",
          "type": "address"
        },
        {
          "internalType": "uint256",
          "name": "tokenId",
          "type": "uint256"
        }
      ],
      "name": "transferFrom",
      "outputs": [],
      "stateMutability": "nonpayable",
      "type": "function"
    },
    {
      "inputs": [
        {
          "internalType": "uint256",
          "name": "tokenId",
          "type": "uint256"
        },
        {
          "internalType": "address",
          "name": "childContract",
          "type": "address"
        },
        {
          "internalType": "uint256",
          "name": "childTokenId",
          "type": "uint256"
        }
      ],
      "name": "childBalance",
      "outputs": [
        {
          "internalType": "uint256",
          "name": "",
          "type": "uint256"
        }
      ],
      "stateMutability": "view",
      "type": "function",
      "constant": true
    },
    {
      "inputs": [
        {
          "internalType": "uint256",
          "name": "tokenId",
          "type": "uint256"
        }
      ],
      "name": "childContractsFor",
      "outputs": [
        {
          "internalType": "address[]",
          "name": "",
          "type": "address[]"
        }
      ],
      "stateMutability": "view",
      "type": "function",
      "constant": true
    },
    {
      "inputs": [
        {
          "internalType": "uint256",
          "name": "tokenId",
          "type": "uint256"
        },
        {
          "internalType": "address",
          "name": "childContract",
          "type": "address"
        }
      ],
      "name": "childIdsOwned",
      "outputs": [
        {
          "internalType": "uint256[]",
          "name": "",
          "type": "uint256[]"
        }
      ],
      "stateMutability": "view",
      "type": "function",
      "constant": true
    },
    {
      "inputs": [
        {
          "internalType": "uint256",
          "name": "fromTokenId",
          "type": "uint256"
        },
        {
          "internalType": "address",
          "name": "to",
          "type": "address"
        },
        {
          "internalType": "address",
          "name": "childContract",
          "type": "address"
        },
        {
          "internalType": "uint256",
          "name": "childTokenId",
          "type": "uint256"
        },
        {
          "internalType": "uint256",
          "name": "amount",
          "type": "uint256"
        },
        {
          "internalType": "bytes",
          "name": "data",
          "type": "bytes"
        }
      ],
      "name": "safeTransferChildFrom",
      "outputs": [],
      "stateMutability": "nonpayable",
      "type": "function"
    },
    {
      "inputs": [
        {
          "internalType": "uint256",
          "name": "tokenID",
          "type": "uint256"
        }
      ],
      "name": "getOwner",
      "outputs": [
        {
          "internalType": "address",
          "name": "",
          "type": "address"
        }
      ],
      "stateMutability": "view",
      "type": "function",
      "constant": true
    },
    {
      "inputs": [
        {
          "internalType": "uint256",
          "name": "tokenID",
          "type": "uint256"
        }
      ],
      "name": "setIsERC721",
      "outputs": [],
      "stateMutability": "nonpayable",
      "type": "function"
    },
    {
      "inputs": [
        {
          "internalType": "uint256",
          "name": "tokenID",
          "type": "uint256"
        }
      ],
      "name": "getIsERC721",
      "outputs": [
        {
          "internalType": "bool",
          "name": "",
          "type": "bool"
        }
      ],
      "stateMutability": "view",
      "type": "function",
      "constant": true
    },
    {
      "inputs": [
        {
          "internalType": "uint256",
          "name": "tokenID",
          "type": "uint256"
        }
      ],
      "name": "setIsERC1155",
      "outputs": [],
      "stateMutability": "nonpayable",
      "type": "function"
    },
    {
      "inputs": [
        {
          "internalType": "uint256",
          "name": "tokenID",
          "type": "uint256"
        }
      ],
      "name": "getIsERC1155",
      "outputs": [
        {
          "internalType": "bool",
          "name": "",
          "type": "bool"
        }
      ],
      "stateMutability": "view",
      "type": "function",
      "constant": true
    },
    {
      "inputs": [
        {
          "internalType": "uint256",
          "name": "tokenID",
          "type": "uint256"
        },
        {
          "internalType": "uint256",
          "name": "childTokenID",
          "type": "uint256"
        }
      ],
      "name": "getChildContract",
      "outputs": [
        {
          "internalType": "address",
          "name": "",
          "type": "address"
        }
      ],
      "stateMutability": "view",
      "type": "function",
      "constant": true
    },
    {
      "inputs": [],
      "name": "getMsgSender",
      "outputs": [
        {
          "internalType": "address",
          "name": "",
          "type": "address"
        }
      ],
      "stateMutability": "view",
      "type": "function",
      "constant": true
    },
    {
      "inputs": [
        {
          "internalType": "uint256",
          "name": "fromTokenId",
          "type": "uint256"
        },
        {
          "internalType": "address",
          "name": "to",
          "type": "address"
        },
        {
          "internalType": "address",
          "name": "childContract",
          "type": "address"
        },
        {
          "internalType": "uint256[]",
          "name": "childTokenIds",
          "type": "uint256[]"
        },
        {
          "internalType": "uint256[]",
          "name": "amounts",
          "type": "uint256[]"
        },
        {
          "internalType": "bytes",
          "name": "data",
          "type": "bytes"
        }
      ],
      "name": "safeBatchTransferChildFrom",
      "outputs": [],
      "stateMutability": "nonpayable",
      "type": "function"
    },
    {
      "inputs": [
        {
          "internalType": "address",
          "name": "operator",
          "type": "address"
        },
        {
          "internalType": "address",
          "name": "from",
          "type": "address"
        },
        {
          "internalType": "uint256",
          "name": "id",
          "type": "uint256"
        },
        {
          "internalType": "uint256",
          "name": "amount",
          "type": "uint256"
        },
        {
          "internalType": "bytes",
          "name": "data",
          "type": "bytes"
        }
      ],
      "name": "onERC1155Received",
      "outputs": [
        {
          "internalType": "bytes4",
          "name": "",
          "type": "bytes4"
        }
      ],
      "stateMutability": "nonpayable",
      "type": "function"
    },
    {
      "inputs": [
        {
          "internalType": "address",
          "name": "operator",
          "type": "address"
        },
        {
          "internalType": "address",
          "name": "from",
          "type": "address"
        },
        {
          "internalType": "uint256",
          "name": "tokenId",
          "type": "uint256"
        },
        {
          "internalType": "bytes",
          "name": "data",
          "type": "bytes"
        }
      ],
      "name": "onERC721Received",
      "outputs": [
        {
          "internalType": "bytes4",
          "name": "",
          "type": "bytes4"
        }
      ],
      "stateMutability": "nonpayable",
      "type": "function"
    },
    {
      "inputs": [
        {
          "internalType": "address",
          "name": "operator",
          "type": "address"
        },
        {
          "internalType": "address",
          "name": "from",
          "type": "address"
        },
        {
          "internalType": "uint256[]",
          "name": "ids",
          "type": "uint256[]"
        },
        {
          "internalType": "uint256[]",
          "name": "values",
          "type": "uint256[]"
        },
        {
          "internalType": "bytes",
          "name": "data",
          "type": "bytes"
        }
      ],
      "name": "onERC1155BatchReceived",
      "outputs": [
        {
          "internalType": "bytes4",
          "name": "",
          "type": "bytes4"
        }
      ],
      "stateMutability": "nonpayable",
      "type": "function"
    }
  ],
  "bytecode": "0x60806040523480156200001157600080fd5b5060405162004d5f38038062004d5f833981810160405281019062000037919062000223565b828281600090816200004a919062000527565b5080600190816200005c919062000527565b5050506200006f6200007960201b60201c565b505050506200060e565b606060405180602001604052806000815250905090565b6000604051905090565b600080fd5b600080fd5b600080fd5b600080fd5b6000601f19601f8301169050919050565b7f4e487b7100000000000000000000000000000000000000000000000000000000600052604160045260246000fd5b620000f982620000ae565b810181811067ffffffffffffffff821117156200011b576200011a620000bf565b5b80604052505050565b60006200013062000090565b90506200013e8282620000ee565b919050565b600067ffffffffffffffff821115620001615762000160620000bf565b5b6200016c82620000ae565b9050602081019050919050565b60005b83811015620001995780820151818401526020810190506200017c565b60008484015250505050565b6000620001bc620001b68462000143565b62000124565b905082815260208101848484011115620001db57620001da620000a9565b5b620001e884828562000179565b509392505050565b600082601f830112620002085762000207620000a4565b5b81516200021a848260208601620001a5565b91505092915050565b6000806000606084860312156200023f576200023e6200009a565b5b600084015167ffffffffffffffff81111562000260576200025f6200009f565b5b6200026e86828701620001f0565b935050602084015167ffffffffffffffff8111156200029257620002916200009f565b5b620002a086828701620001f0565b925050604084015167ffffffffffffffff811115620002c457620002c36200009f565b5b620002d286828701620001f0565b9150509250925092565b600081519050919050565b7f4e487b7100000000000000000000000000000000000000000000000000000000600052602260045260246000fd5b600060028204905060018216806200032f57607f821691505b602082108103620003455762000344620002e7565b5b50919050565b60008190508160005260206000209050919050565b60006020601f8301049050919050565b600082821b905092915050565b600060088302620003af7fffffffffffffffffffffffffffffffffffffffffffffffffffffffffffffffff8262000370565b620003bb868362000370565b95508019841693508086168417925050509392505050565b6000819050919050565b6000819050919050565b60006200040862000402620003fc84620003d3565b620003dd565b620003d3565b9050919050565b6000819050919050565b6200042483620003e7565b6200043c62000433826200040f565b8484546200037d565b825550505050565b600090565b6200045362000444565b6200046081848462000419565b505050565b5b8181101562000488576200047c60008262000449565b60018101905062000466565b5050565b601f821115620004d757620004a1816200034b565b620004ac8462000360565b81016020851015620004bc578190505b620004d4620004cb8562000360565b83018262000465565b50505b505050565b600082821c905092915050565b6000620004fc60001984600802620004dc565b1980831691505092915050565b6000620005178383620004e9565b9150826002028217905092915050565b6200053282620002dc565b67ffffffffffffffff8111156200054e576200054d620000bf565b5b6200055a825462000316565b620005678282856200048c565b600060209050601f8311600181146200059f57600084156200058a578287015190505b62000596858262000509565b86555062000606565b601f198416620005af866200034b565b60005b82811015620005d957848901518255600182019150602085019450602081019050620005b2565b86831015620005f95784890151620005f5601f891682620004e9565b8355505b6001600288020188555050505b505050505050565b614741806200061e6000396000f3fe608060405234801561001057600080fd5b50600436106101e55760003560e01c806370a082311161010f578063b88d4fde116100a2578063e2edee2b11610071578063e2edee2b14610624578063e985e9c514610640578063eeaf2f0914610670578063f23a6e61146106a0576101e5565b8063b88d4fde14610578578063bc197c8114610594578063c41a360a146105c4578063c87b56dd146105f4576101e5565b806395d89b41116100de57806395d89b41146104de5780639fb64d83146104fc578063a22cb4651461052c578063a899a1cc14610548576101e5565b806370a08231146104305780637a6ce2e114610460578063849c968c1461047e57806389e7e2f2146104ae576101e5565b806332085b651161018757806360d4d23a1161015657806360d4d23a146103845780636352211e146103b45780636748d53a146103e45780636f9bc25b14610400576101e5565b806332085b651461030057806342842e0e1461031c57806342cf6e74146103385780635fa0302114610354576101e5565b8063095ea7b3116101c3578063095ea7b314610268578063150b7a021461028457806317dd7623146102b457806323b872dd146102e4576101e5565b806301ffc9a7146101ea57806306fdde031461021a578063081812fc14610238575b600080fd5b61020460048036038101906101ff9190612ddf565b6106d0565b6040516102119190612e27565b60405180910390f35b6102226107b2565b60405161022f9190612ed2565b60405180910390f35b610252600480360381019061024d9190612f2a565b610844565b60405161025f9190612f98565b60405180910390f35b610282600480360381019061027d9190612fdf565b61088a565b005b61029e60048036038101906102999190613154565b6109a1565b6040516102ab91906131e6565b60405180910390f35b6102ce60048036038101906102c99190613201565b610a8b565b6040516102db9190612f98565b60405180910390f35b6102fe60048036038101906102f99190613241565b610b8c565b005b61031a6004803603810190610315919061335c565b610bec565b005b61033660048036038101906103319190613241565b610e97565b005b610352600480360381019061034d919061343d565b610eb7565b005b61036e600480360381019061036991906134e6565b6110d0565b60405161037b91906135e4565b60405180910390f35b61039e60048036038101906103999190613606565b611277565b6040516103ab9190613668565b60405180910390f35b6103ce60048036038101906103c99190612f2a565b6112e4565b6040516103db9190612f98565b60405180910390f35b6103fe60048036038101906103f99190612f2a565b611395565b005b61041a60048036038101906104159190612f2a565b6113c4565b6040516104279190612e27565b60405180910390f35b61044a60048036038101906104459190613683565b6113e4565b6040516104579190613668565b60405180910390f35b61046861149b565b6040516104759190612f98565b60405180910390f35b61049860048036038101906104939190612f2a565b6114aa565b6040516104a59190612e27565b60405180910390f35b6104c860048036038101906104c39190612f2a565b6114d4565b6040516104d5919061376e565b60405180910390f35b6104e66115f1565b6040516104f39190612ed2565b60405180910390f35b61051660048036038101906105119190612f2a565b611683565b6040516105239190612e27565b60405180910390f35b610546600480360381019061054191906137bc565b6116a3565b005b610562600480360381019061055d9190612f2a565b6116b9565b60405161056f9190612e27565b60405180910390f35b610592600480360381019061058d9190613154565b6116e3565b005b6105ae60048036038101906105a991906137fc565b611745565b6040516105bb91906131e6565b60405180910390f35b6105de60048036038101906105d99190612f2a565b61190a565b6040516105eb9190612f98565b60405180910390f35b61060e60048036038101906106099190612f2a565b61191c565b60405161061b9190612ed2565b60405180910390f35b61063e60048036038101906106399190612f2a565b611984565b005b61065a600480360381019061065591906138cb565b6119b3565b6040516106679190612e27565b60405180910390f35b61068a60048036038101906106859190613606565b611a47565b6040516106979190613668565b60405180910390f35b6106ba60048036038101906106b5919061390b565b611a79565b6040516106c791906131e6565b60405180910390f35b60007f80ac58cd000000000000000000000000000000000000000000000000000000007bffffffffffffffffffffffffffffffffffffffffffffffffffffffff1916827bffffffffffffffffffffffffffffffffffffffffffffffffffffffff1916148061079b57507f5b5e139f000000000000000000000000000000000000000000000000000000007bffffffffffffffffffffffffffffffffffffffffffffffffffffffff1916827bffffffffffffffffffffffffffffffffffffffffffffffffffffffff1916145b806107ab57506107aa82611b82565b5b9050919050565b6060600080546107c1906139d1565b80601f01602080910402602001604051908101604052809291908181526020018280546107ed906139d1565b801561083a5780601f1061080f5761010080835404028352916020019161083a565b820191906000526020600020905b81548152906001019060200180831161081d57829003601f168201915b5050505050905090565b600061084f82611bec565b6004600083815260200190815260200160002060009054906101000a900473ffffffffffffffffffffffffffffffffffffffff169050919050565b6000610895826112e4565b90508073ffffffffffffffffffffffffffffffffffffffff168373ffffffffffffffffffffffffffffffffffffffff1603610905576040517f08c379a00000000000000000000000000000000000000000000000000000000081526004016108fc90613a74565b60405180910390fd5b8073ffffffffffffffffffffffffffffffffffffffff16610924611c37565b73ffffffffffffffffffffffffffffffffffffffff16148061095357506109528161094d611c37565b6119b3565b5b610992576040517f08c379a000000000000000000000000000000000000000000000000000000000815260040161098990613b06565b60405180910390fd5b61099c8383611c3f565b505050565b600060208251146109e7576040517f08c379a00000000000000000000000000000000000000000000000000000000081526004016109de90613bbe565b60405180910390fd5b600080602060003690506109fb9190613c0d565b905080359150610a0e8233876001611cf8565b3373ffffffffffffffffffffffffffffffffffffffff16828773ffffffffffffffffffffffffffffffffffffffff167fa18753b0660a8be2cdae03468c860b47c2926433ab16917f323544652803032d886001604051610a6f929190613c86565b60405180910390a463150b7a0260e01b92505050949350505050565b600080600090505b610aae60086000868152602001908152602001600020611e93565b811015610b8057610b3b83600960008781526020019081526020016000206000610af385600860008b8152602001908152602001600020611ea890919063ffffffff16565b73ffffffffffffffffffffffffffffffffffffffff1673ffffffffffffffffffffffffffffffffffffffff168152602001908152602001600020611ec290919063ffffffff16565b15610b6d57610b658160086000878152602001908152602001600020611ea890919063ffffffff16565b915050610b86565b8080610b7890613caf565b915050610a93565b50600090505b92915050565b610b9d610b97611c37565b82611edc565b610bdc576040517f08c379a0000000000000000000000000000000000000000000000000000000008152600401610bd390613d69565b60405180910390fd5b610be7838383611f71565b505050565b8151835114610c30576040517f08c379a0000000000000000000000000000000000000000000000000000000008152600401610c2790613dfb565b60405180910390fd5b600073ffffffffffffffffffffffffffffffffffffffff168573ffffffffffffffffffffffffffffffffffffffff1603610c9f576040517f08c379a0000000000000000000000000000000000000000000000000000000008152600401610c9690613e8d565b60405180910390fd5b6000610ca9611c37565b90508073ffffffffffffffffffffffffffffffffffffffff16610ccb886112e4565b73ffffffffffffffffffffffffffffffffffffffff161480610cfb5750610cfa610cf4886112e4565b826119b3565b5b610d3a576040517f08c379a0000000000000000000000000000000000000000000000000000000008152600401610d3190613f1f565b60405180910390fd5b610d49818888888888886121d7565b60005b8451811015610db2576000858281518110610d6a57610d69613f3f565b5b602002602001015190506000858381518110610d8957610d88613f3f565b5b60200260200101519050610d9f8a8984846121e0565b505080610dab90613caf565b9050610d4c565b508473ffffffffffffffffffffffffffffffffffffffff16632eb2c2d630888787876040518663ffffffff1660e01b8152600401610df4959493929190613fc3565b600060405180830381600087803b158015610e0e57600080fd5b505af1158015610e22573d6000803e3d6000fd5b505050508473ffffffffffffffffffffffffffffffffffffffff168673ffffffffffffffffffffffffffffffffffffffff16887f5572be9c1bc39e4e277a34f64ccd0e84456dac3f33b0b1c458c12c402c6326a98787604051610e8692919061402b565b60405180910390a450505050505050565b610eb2838383604051806020016040528060008152506116e3565b505050565b600073ffffffffffffffffffffffffffffffffffffffff168573ffffffffffffffffffffffffffffffffffffffff1603610f26576040517f08c379a0000000000000000000000000000000000000000000000000000000008152600401610f1d90613e8d565b60405180910390fd5b6000610f30611c37565b90508073ffffffffffffffffffffffffffffffffffffffff16610f52886112e4565b73ffffffffffffffffffffffffffffffffffffffff161480610f825750610f81610f7b886112e4565b826119b3565b5b610fc1576040517f08c379a0000000000000000000000000000000000000000000000000000000008152600401610fb890613f1f565b60405180910390fd5b610fe081888888610fd1896124c4565b610fda896124c4565b886121d7565b610fec878686866121e0565b8473ffffffffffffffffffffffffffffffffffffffff1663f242432a30888787876040518663ffffffff1660e01b815260040161102d959493929190614062565b600060405180830381600087803b15801561104757600080fd5b505af115801561105b573d6000803e3d6000fd5b505050508473ffffffffffffffffffffffffffffffffffffffff168673ffffffffffffffffffffffffffffffffffffffff16887f9d6259404dec52b3d5d220f5b8e5d05cc05ec908e1bc320aa46793e3091e519487876040516110bf9291906140bc565b60405180910390a450505050505050565b6060600061112c6009600086815260200190815260200160002060008573ffffffffffffffffffffffffffffffffffffffff1673ffffffffffffffffffffffffffffffffffffffff16815260200190815260200160002061253e565b67ffffffffffffffff81111561114557611144613029565b5b6040519080825280602002602001820160405280156111735781602001602082028036833780820191505090505b50905060005b6111d16009600087815260200190815260200160002060008673ffffffffffffffffffffffffffffffffffffffff1673ffffffffffffffffffffffffffffffffffffffff16815260200190815260200160002061253e565b81101561126c5761123a816009600088815260200190815260200160002060008773ffffffffffffffffffffffffffffffffffffffff1673ffffffffffffffffffffffffffffffffffffffff16815260200190815260200160002061255390919063ffffffff16565b82828151811061124d5761124c613f3f565b5b602002602001018181525050808061126490613caf565b915050611179565b508091505092915050565b60006006600085815260200190815260200160002060008473ffffffffffffffffffffffffffffffffffffffff1673ffffffffffffffffffffffffffffffffffffffff16815260200190815260200160002060008381526020019081526020016000205490509392505050565b6000806002600084815260200190815260200160002060009054906101000a900473ffffffffffffffffffffffffffffffffffffffff169050600073ffffffffffffffffffffffffffffffffffffffff168173ffffffffffffffffffffffffffffffffffffffff160361138c576040517f08c379a000000000000000000000000000000000000000000000000000000000815260040161138390614131565b60405180910390fd5b80915050919050565b6001600a600083815260200190815260200160002060006101000a81548160ff02191690831515021790555050565b600b6020528060005260406000206000915054906101000a900460ff1681565b60008073ffffffffffffffffffffffffffffffffffffffff168273ffffffffffffffffffffffffffffffffffffffff1603611454576040517f08c379a000000000000000000000000000000000000000000000000000000000815260040161144b906141c3565b60405180910390fd5b600360008373ffffffffffffffffffffffffffffffffffffffff1673ffffffffffffffffffffffffffffffffffffffff168152602001908152602001600020549050919050565b60006114a5611c37565b905090565b6000600b600083815260200190815260200160002060009054906101000a900460ff169050919050565b606060006114f360086000858152602001908152602001600020611e93565b67ffffffffffffffff81111561150c5761150b613029565b5b60405190808252806020026020018201604052801561153a5781602001602082028036833780820191505090505b50905060005b61155b60086000868152602001908152602001600020611e93565b8110156115e7576115878160086000878152602001908152602001600020611ea890919063ffffffff16565b82828151811061159a57611599613f3f565b5b602002602001019073ffffffffffffffffffffffffffffffffffffffff16908173ffffffffffffffffffffffffffffffffffffffff168152505080806115df90613caf565b915050611540565b5080915050919050565b606060018054611600906139d1565b80601f016020809104026020016040519081016040528092919081815260200182805461162c906139d1565b80156116795780601f1061164e57610100808354040283529160200191611679565b820191906000526020600020905b81548152906001019060200180831161165c57829003601f168201915b5050505050905090565b600a6020528060005260406000206000915054906101000a900460ff1681565b6116b56116ae611c37565b838361256d565b5050565b6000600a600083815260200190815260200160002060009054906101000a900460ff169050919050565b6116f46116ee611c37565b83611edc565b611733576040517f08c379a000000000000000000000000000000000000000000000000000000000815260040161172a90613d69565b60405180910390fd5b61173f848484846126d9565b50505050565b6000602082511461178b576040517f08c379a000000000000000000000000000000000000000000000000000000000815260040161178290613bbe565b60405180910390fd5b82518451146117cf576040517f08c379a00000000000000000000000000000000000000000000000000000000081526004016117c690614255565b60405180910390fd5b6117df86600030888888886121d7565b600080602060003690506117f39190613c0d565b90508035915060005b86518110156118f457611845833389848151811061181d5761181c613f3f565b5b602002602001015189858151811061183857611837613f3f565b5b6020026020010151611cf8565b3373ffffffffffffffffffffffffffffffffffffffff16838973ffffffffffffffffffffffffffffffffffffffff167fa18753b0660a8be2cdae03468c860b47c2926433ab16917f323544652803032d8a85815181106118a8576118a7613f3f565b5b60200260200101518a86815181106118c3576118c2613f3f565b5b60200260200101516040516118d99291906140bc565b60405180910390a480806118ec90613caf565b9150506117fc565b5063bc197c8160e01b9250505095945050505050565b6000611915826112e4565b9050919050565b606061192782611bec565b6000611931612735565b90506000815111611951576040518060200160405280600081525061197c565b8061195b8461274c565b60405160200161196c9291906142b1565b6040516020818303038152906040525b915050919050565b6001600b600083815260200190815260200160002060006101000a81548160ff02191690831515021790555050565b6000600560008473ffffffffffffffffffffffffffffffffffffffff1673ffffffffffffffffffffffffffffffffffffffff16815260200190815260200160002060008373ffffffffffffffffffffffffffffffffffffffff1673ffffffffffffffffffffffffffffffffffffffff16815260200190815260200160002060009054906101000a900460ff16905092915050565b600660205282600052604060002060205281600052604060002060205280600052604060002060009250925050505481565b60006020825114611abf576040517f08c379a0000000000000000000000000000000000000000000000000000000008152600401611ab690613bbe565b60405180910390fd5b611adf8660003088611ad0896124c4565b611ad9896124c4565b886121d7565b60008060206000369050611af39190613c0d565b905080359150611b0582338888611cf8565b3373ffffffffffffffffffffffffffffffffffffffff16828873ffffffffffffffffffffffffffffffffffffffff167fa18753b0660a8be2cdae03468c860b47c2926433ab16917f323544652803032d8989604051611b659291906140bc565b60405180910390a463f23a6e6160e01b9250505095945050505050565b60007f01ffc9a7000000000000000000000000000000000000000000000000000000007bffffffffffffffffffffffffffffffffffffffffffffffffffffffff1916827bffffffffffffffffffffffffffffffffffffffffffffffffffffffff1916149050919050565b611bf5816128ac565b611c34576040517f08c379a0000000000000000000000000000000000000000000000000000000008152600401611c2b90614131565b60405180910390fd5b50565b600033905090565b816004600083815260200190815260200160002060006101000a81548173ffffffffffffffffffffffffffffffffffffffff021916908373ffffffffffffffffffffffffffffffffffffffff160217905550808273ffffffffffffffffffffffffffffffffffffffff16611cb2836112e4565b73ffffffffffffffffffffffffffffffffffffffff167f8c5be1e5ebec7d5bd14f71427d1e84f3dd0314c0f7b2291e5b200ac8c7c3b92560405160405180910390a45050565b611d1d836008600087815260200190815260200160002061291890919063ffffffff16565b611d4857611d46836008600087815260200190815260200160002061294890919063ffffffff16565b505b60006006600086815260200190815260200160002060008573ffffffffffffffffffffffffffffffffffffffff1673ffffffffffffffffffffffffffffffffffffffff16815260200190815260200160002060008481526020019081526020016000205403611e1557611e13826009600087815260200190815260200160002060008673ffffffffffffffffffffffffffffffffffffffff1673ffffffffffffffffffffffffffffffffffffffff16815260200190815260200160002061297890919063ffffffff16565b505b806006600086815260200190815260200160002060008573ffffffffffffffffffffffffffffffffffffffff1673ffffffffffffffffffffffffffffffffffffffff16815260200190815260200160002060008481526020019081526020016000206000828254611e8691906142d5565b9250508190555050505050565b6000611ea182600001612992565b9050919050565b6000611eb783600001836129a3565b60001c905092915050565b6000611ed4836000018360001b6129ce565b905092915050565b600080611ee8836112e4565b90508073ffffffffffffffffffffffffffffffffffffffff168473ffffffffffffffffffffffffffffffffffffffff161480611f2a5750611f2981856119b3565b5b80611f6857508373ffffffffffffffffffffffffffffffffffffffff16611f5084610844565b73ffffffffffffffffffffffffffffffffffffffff16145b91505092915050565b8273ffffffffffffffffffffffffffffffffffffffff16611f91826112e4565b73ffffffffffffffffffffffffffffffffffffffff1614611fe7576040517f08c379a0000000000000000000000000000000000000000000000000000000008152600401611fde9061437b565b60405180910390fd5b600073ffffffffffffffffffffffffffffffffffffffff168273ffffffffffffffffffffffffffffffffffffffff1603612056576040517f08c379a000000000000000000000000000000000000000000000000000000000815260040161204d9061440d565b60405180910390fd5b6120618383836129f1565b61206c600082611c3f565b6001600360008573ffffffffffffffffffffffffffffffffffffffff1673ffffffffffffffffffffffffffffffffffffffff16815260200190815260200160002060008282546120bc9190613c0d565b925050819055506001600360008473ffffffffffffffffffffffffffffffffffffffff1673ffffffffffffffffffffffffffffffffffffffff168152602001908152602001600020600082825461211391906142d5565b92505081905550816002600083815260200190815260200160002060006101000a81548173ffffffffffffffffffffffffffffffffffffffff021916908373ffffffffffffffffffffffffffffffffffffffff160217905550808273ffffffffffffffffffffffffffffffffffffffff168473ffffffffffffffffffffffffffffffffffffffff167fddf252ad1be2c89b69c2b068fc378daa952ba7f163c4a11628f55a4df523b3ef60405160405180910390a46121d28383836129f6565b505050565b50505050505050565b6000811415806122515750806006600086815260200190815260200160002060008573ffffffffffffffffffffffffffffffffffffffff1673ffffffffffffffffffffffffffffffffffffffff16815260200190815260200160002060008481526020019081526020016000205410155b612290576040517f08c379a00000000000000000000000000000000000000000000000000000000081526004016122879061449f565b60405180910390fd5b806006600086815260200190815260200160002060008573ffffffffffffffffffffffffffffffffffffffff1673ffffffffffffffffffffffffffffffffffffffff168152602001908152602001600020600084815260200190815260200160002060008282546123019190613c0d565b9250508190555060006006600086815260200190815260200160002060008573ffffffffffffffffffffffffffffffffffffffff1673ffffffffffffffffffffffffffffffffffffffff168152602001908152602001600020600084815260200190815260200160002054036124be576123d384600760008673ffffffffffffffffffffffffffffffffffffffff1673ffffffffffffffffffffffffffffffffffffffff16815260200190815260200160002060008581526020019081526020016000206129fb90919063ffffffff16565b50612436826009600087815260200190815260200160002060008673ffffffffffffffffffffffffffffffffffffffff1673ffffffffffffffffffffffffffffffffffffffff1681526020019081526020016000206129fb90919063ffffffff16565b5060006124916009600087815260200190815260200160002060008673ffffffffffffffffffffffffffffffffffffffff1673ffffffffffffffffffffffffffffffffffffffff16815260200190815260200160002061253e565b036124bd576124bb8360086000878152602001908152602001600020612a1590919063ffffffff16565b505b5b50505050565b60606000600167ffffffffffffffff8111156124e3576124e2613029565b5b6040519080825280602002602001820160405280156125115781602001602082028036833780820191505090505b509050828160008151811061252957612528613f3f565b5b60200260200101818152505080915050919050565b600061254c82600001612992565b9050919050565b600061256283600001836129a3565b60001c905092915050565b8173ffffffffffffffffffffffffffffffffffffffff168373ffffffffffffffffffffffffffffffffffffffff16036125db576040517f08c379a00000000000000000000000000000000000000000000000000000000081526004016125d29061450b565b60405180910390fd5b80600560008573ffffffffffffffffffffffffffffffffffffffff1673ffffffffffffffffffffffffffffffffffffffff16815260200190815260200160002060008473ffffffffffffffffffffffffffffffffffffffff1673ffffffffffffffffffffffffffffffffffffffff16815260200190815260200160002060006101000a81548160ff0219169083151502179055508173ffffffffffffffffffffffffffffffffffffffff168373ffffffffffffffffffffffffffffffffffffffff167f17307eab39ab6107e8899845ad3d59bd9653f200f220920489ca2b5937696c31836040516126cc9190612e27565b60405180910390a3505050565b6126e4848484611f71565b6126f084848484612a45565b61272f576040517f08c379a00000000000000000000000000000000000000000000000000000000081526004016127269061459d565b60405180910390fd5b50505050565b606060405180602001604052806000815250905090565b606060008203612793576040518060400160405280600181526020017f300000000000000000000000000000000000000000000000000000000000000081525090506128a7565b600082905060005b600082146127c55780806127ae90613caf565b915050600a826127be91906145ec565b915061279b565b60008167ffffffffffffffff8111156127e1576127e0613029565b5b6040519080825280601f01601f1916602001820160405280156128135781602001600182028036833780820191505090505b5090505b600085146128a05760018261282c9190613c0d565b9150600a8561283b919061461d565b603061284791906142d5565b60f81b81838151811061285d5761285c613f3f565b5b60200101907effffffffffffffffffffffffffffffffffffffffffffffffffffffffffffff1916908160001a905350600a8561289991906145ec565b9450612817565b8093505050505b919050565b60008073ffffffffffffffffffffffffffffffffffffffff166002600084815260200190815260200160002060009054906101000a900473ffffffffffffffffffffffffffffffffffffffff1673ffffffffffffffffffffffffffffffffffffffff1614159050919050565b6000612940836000018373ffffffffffffffffffffffffffffffffffffffff1660001b6129ce565b905092915050565b6000612970836000018373ffffffffffffffffffffffffffffffffffffffff1660001b612bcc565b905092915050565b600061298a836000018360001b612bcc565b905092915050565b600081600001805490509050919050565b60008260000182815481106129bb576129ba613f3f565b5b9060005260206000200154905092915050565b600080836001016000848152602001908152602001600020541415905092915050565b505050565b505050565b6000612a0d836000018360001b612c3c565b905092915050565b6000612a3d836000018373ffffffffffffffffffffffffffffffffffffffff1660001b612c3c565b905092915050565b6000612a668473ffffffffffffffffffffffffffffffffffffffff16612d50565b15612bbf578373ffffffffffffffffffffffffffffffffffffffff1663150b7a02612a8f611c37565b8786866040518563ffffffff1660e01b8152600401612ab1949392919061464e565b6020604051808303816000875af1925050508015612aed57506040513d601f19601f82011682018060405250810190612aea91906146af565b60015b612b6f573d8060008114612b1d576040519150601f19603f3d011682016040523d82523d6000602084013e612b22565b606091505b506000815103612b67576040517f08c379a0000000000000000000000000000000000000000000000000000000008152600401612b5e9061459d565b60405180910390fd5b805181602001fd5b63150b7a0260e01b7bffffffffffffffffffffffffffffffffffffffffffffffffffffffff1916817bffffffffffffffffffffffffffffffffffffffffffffffffffffffff191614915050612bc4565b600190505b949350505050565b6000612bd883836129ce565b612c31578260000182908060018154018082558091505060019003906000526020600020016000909190919091505582600001805490508360010160008481526020019081526020016000208190555060019050612c36565b600090505b92915050565b60008083600101600084815260200190815260200160002054905060008114612d44576000600182612c6e9190613c0d565b9050600060018660000180549050612c869190613c0d565b9050818114612cf5576000866000018281548110612ca757612ca6613f3f565b5b9060005260206000200154905080876000018481548110612ccb57612cca613f3f565b5b90600052602060002001819055508387600101600083815260200190815260200160002081905550505b85600001805480612d0957612d086146dc565b5b600190038181906000526020600020016000905590558560010160008681526020019081526020016000206000905560019350505050612d4a565b60009150505b92915050565b6000808273ffffffffffffffffffffffffffffffffffffffff163b119050919050565b6000604051905090565b600080fd5b600080fd5b60007fffffffff0000000000000000000000000000000000000000000000000000000082169050919050565b612dbc81612d87565b8114612dc757600080fd5b50565b600081359050612dd981612db3565b92915050565b600060208284031215612df557612df4612d7d565b5b6000612e0384828501612dca565b91505092915050565b60008115159050919050565b612e2181612e0c565b82525050565b6000602082019050612e3c6000830184612e18565b92915050565b600081519050919050565b600082825260208201905092915050565b60005b83811015612e7c578082015181840152602081019050612e61565b60008484015250505050565b6000601f19601f8301169050919050565b6000612ea482612e42565b612eae8185612e4d565b9350612ebe818560208601612e5e565b612ec781612e88565b840191505092915050565b60006020820190508181036000830152612eec8184612e99565b905092915050565b6000819050919050565b612f0781612ef4565b8114612f1257600080fd5b50565b600081359050612f2481612efe565b92915050565b600060208284031215612f4057612f3f612d7d565b5b6000612f4e84828501612f15565b91505092915050565b600073ffffffffffffffffffffffffffffffffffffffff82169050919050565b6000612f8282612f57565b9050919050565b612f9281612f77565b82525050565b6000602082019050612fad6000830184612f89565b92915050565b612fbc81612f77565b8114612fc757600080fd5b50565b600081359050612fd981612fb3565b92915050565b60008060408385031215612ff657612ff5612d7d565b5b600061300485828601612fca565b925050602061301585828601612f15565b9150509250929050565b600080fd5b600080fd5b7f4e487b7100000000000000000000000000000000000000000000000000000000600052604160045260246000fd5b61306182612e88565b810181811067ffffffffffffffff821117156130805761307f613029565b5b80604052505050565b6000613093612d73565b905061309f8282613058565b919050565b600067ffffffffffffffff8211156130bf576130be613029565b5b6130c882612e88565b9050602081019050919050565b82818337600083830152505050565b60006130f76130f2846130a4565b613089565b90508281526020810184848401111561311357613112613024565b5b61311e8482856130d5565b509392505050565b600082601f83011261313b5761313a61301f565b5b813561314b8482602086016130e4565b91505092915050565b6000806000806080858703121561316e5761316d612d7d565b5b600061317c87828801612fca565b945050602061318d87828801612fca565b935050604061319e87828801612f15565b925050606085013567ffffffffffffffff8111156131bf576131be612d82565b5b6131cb87828801613126565b91505092959194509250565b6131e081612d87565b82525050565b60006020820190506131fb60008301846131d7565b92915050565b6000806040838503121561321857613217612d7d565b5b600061322685828601612f15565b925050602061323785828601612f15565b9150509250929050565b60008060006060848603121561325a57613259612d7d565b5b600061326886828701612fca565b935050602061327986828701612fca565b925050604061328a86828701612f15565b9150509250925092565b600067ffffffffffffffff8211156132af576132ae613029565b5b602082029050602081019050919050565b600080fd5b60006132d86132d384613294565b613089565b905080838252602082019050602084028301858111156132fb576132fa6132c0565b5b835b8181101561332457806133108882612f15565b8452602084019350506020810190506132fd565b5050509392505050565b600082601f8301126133435761334261301f565b5b81356133538482602086016132c5565b91505092915050565b60008060008060008060c0878903121561337957613378612d7d565b5b600061338789828a01612f15565b965050602061339889828a01612fca565b95505060406133a989828a01612fca565b945050606087013567ffffffffffffffff8111156133ca576133c9612d82565b5b6133d689828a0161332e565b935050608087013567ffffffffffffffff8111156133f7576133f6612d82565b5b61340389828a0161332e565b92505060a087013567ffffffffffffffff81111561342457613423612d82565b5b61343089828a01613126565b9150509295509295509295565b60008060008060008060c0878903121561345a57613459612d7d565b5b600061346889828a01612f15565b965050602061347989828a01612fca565b955050604061348a89828a01612fca565b945050606061349b89828a01612f15565b93505060806134ac89828a01612f15565b92505060a087013567ffffffffffffffff8111156134cd576134cc612d82565b5b6134d989828a01613126565b9150509295509295509295565b600080604083850312156134fd576134fc612d7d565b5b600061350b85828601612f15565b925050602061351c85828601612fca565b9150509250929050565b600081519050919050565b600082825260208201905092915050565b6000819050602082019050919050565b61355b81612ef4565b82525050565b600061356d8383613552565b60208301905092915050565b6000602082019050919050565b600061359182613526565b61359b8185613531565b93506135a683613542565b8060005b838110156135d75781516135be8882613561565b97506135c983613579565b9250506001810190506135aa565b5085935050505092915050565b600060208201905081810360008301526135fe8184613586565b905092915050565b60008060006060848603121561361f5761361e612d7d565b5b600061362d86828701612f15565b935050602061363e86828701612fca565b925050604061364f86828701612f15565b9150509250925092565b61366281612ef4565b82525050565b600060208201905061367d6000830184613659565b92915050565b60006020828403121561369957613698612d7d565b5b60006136a784828501612fca565b91505092915050565b600081519050919050565b600082825260208201905092915050565b6000819050602082019050919050565b6136e581612f77565b82525050565b60006136f783836136dc565b60208301905092915050565b6000602082019050919050565b600061371b826136b0565b61372581856136bb565b9350613730836136cc565b8060005b8381101561376157815161374888826136eb565b975061375383613703565b925050600181019050613734565b5085935050505092915050565b600060208201905081810360008301526137888184613710565b905092915050565b61379981612e0c565b81146137a457600080fd5b50565b6000813590506137b681613790565b92915050565b600080604083850312156137d3576137d2612d7d565b5b60006137e185828601612fca565b92505060206137f2858286016137a7565b9150509250929050565b600080600080600060a0868803121561381857613817612d7d565b5b600061382688828901612fca565b955050602061383788828901612fca565b945050604086013567ffffffffffffffff81111561385857613857612d82565b5b6138648882890161332e565b935050606086013567ffffffffffffffff81111561388557613884612d82565b5b6138918882890161332e565b925050608086013567ffffffffffffffff8111156138b2576138b1612d82565b5b6138be88828901613126565b9150509295509295909350565b600080604083850312156138e2576138e1612d7d565b5b60006138f085828601612fca565b925050602061390185828601612fca565b9150509250929050565b600080600080600060a0868803121561392757613926612d7d565b5b600061393588828901612fca565b955050602061394688828901612fca565b945050604061395788828901612f15565b935050606061396888828901612f15565b925050608086013567ffffffffffffffff81111561398957613988612d82565b5b61399588828901613126565b9150509295509295909350565b7f4e487b7100000000000000000000000000000000000000000000000000000000600052602260045260246000fd5b600060028204905060018216806139e957607f821691505b6020821081036139fc576139fb6139a2565b5b50919050565b7f4552433732313a20617070726f76616c20746f2063757272656e74206f776e6560008201527f7200000000000000000000000000000000000000000000000000000000000000602082015250565b6000613a5e602183612e4d565b9150613a6982613a02565b604082019050919050565b60006020820190508181036000830152613a8d81613a51565b9050919050565b7f4552433732313a20617070726f76652063616c6c6572206973206e6f7420746f60008201527f6b656e206f776e6572206e6f7220617070726f76656420666f7220616c6c0000602082015250565b6000613af0603e83612e4d565b9150613afb82613a94565b604082019050919050565b60006020820190508181036000830152613b1f81613ae3565b9050919050565b7f4552433939383a2064617461206d75737420636f6e7461696e2074686520756e60008201527f697175652075696e7432353620746f6b656e496420746f207472616e7366657260208201527f20746865206368696c6420746f6b656e20746f00000000000000000000000000604082015250565b6000613ba8605383612e4d565b9150613bb382613b26565b606082019050919050565b60006020820190508181036000830152613bd781613b9b565b9050919050565b7f4e487b7100000000000000000000000000000000000000000000000000000000600052601160045260246000fd5b6000613c1882612ef4565b9150613c2383612ef4565b9250828203905081811115613c3b57613c3a613bde565b5b92915050565b6000819050919050565b6000819050919050565b6000613c70613c6b613c6684613c41565b613c4b565b612ef4565b9050919050565b613c8081613c55565b82525050565b6000604082019050613c9b6000830185613659565b613ca86020830184613c77565b9392505050565b6000613cba82612ef4565b91507fffffffffffffffffffffffffffffffffffffffffffffffffffffffffffffffff8203613cec57613ceb613bde565b5b600182019050919050565b7f4552433732313a2063616c6c6572206973206e6f7420746f6b656e206f776e6560008201527f72206e6f7220617070726f766564000000000000000000000000000000000000602082015250565b6000613d53602e83612e4d565b9150613d5e82613cf7565b604082019050919050565b60006020820190508181036000830152613d8281613d46565b9050919050565b7f4552433939383a2069647320616e6420616d6f756e7473206c656e677468206d60008201527f69736d6174636800000000000000000000000000000000000000000000000000602082015250565b6000613de5602783612e4d565b9150613df082613d89565b604082019050919050565b60006020820190508181036000830152613e1481613dd8565b9050919050565b7f4552433939383a207472616e7366657220746f20746865207a65726f2061646460008201527f7265737300000000000000000000000000000000000000000000000000000000602082015250565b6000613e77602483612e4d565b9150613e8282613e1b565b604082019050919050565b60006020820190508181036000830152613ea681613e6a565b9050919050565b7f4552433939383a2063616c6c6572206973206e6f74206f776e6572206e6f722060008201527f617070726f766564000000000000000000000000000000000000000000000000602082015250565b6000613f09602883612e4d565b9150613f1482613ead565b604082019050919050565b60006020820190508181036000830152613f3881613efc565b9050919050565b7f4e487b7100000000000000000000000000000000000000000000000000000000600052603260045260246000fd5b600081519050919050565b600082825260208201905092915050565b6000613f9582613f6e565b613f9f8185613f79565b9350613faf818560208601612e5e565b613fb881612e88565b840191505092915050565b600060a082019050613fd86000830188612f89565b613fe56020830187612f89565b8181036040830152613ff78186613586565b9050818103606083015261400b8185613586565b9050818103608083015261401f8184613f8a565b90509695505050505050565b600060408201905081810360008301526140458185613586565b905081810360208301526140598184613586565b90509392505050565b600060a0820190506140776000830188612f89565b6140846020830187612f89565b6140916040830186613659565b61409e6060830185613659565b81810360808301526140b08184613f8a565b90509695505050505050565b60006040820190506140d16000830185613659565b6140de6020830184613659565b9392505050565b7f4552433732313a20696e76616c696420746f6b656e2049440000000000000000600082015250565b600061411b601883612e4d565b9150614126826140e5565b602082019050919050565b6000602082019050818103600083015261414a8161410e565b9050919050565b7f4552433732313a2061646472657373207a65726f206973206e6f74206120766160008201527f6c6964206f776e65720000000000000000000000000000000000000000000000602082015250565b60006141ad602983612e4d565b91506141b882614151565b604082019050919050565b600060208201905081810360008301526141dc816141a0565b9050919050565b7f455243313135353a2069647320616e642076616c756573206c656e677468206d60008201527f69736d6174636800000000000000000000000000000000000000000000000000602082015250565b600061423f602783612e4d565b915061424a826141e3565b604082019050919050565b6000602082019050818103600083015261426e81614232565b9050919050565b600081905092915050565b600061428b82612e42565b6142958185614275565b93506142a5818560208601612e5e565b80840191505092915050565b60006142bd8285614280565b91506142c98284614280565b91508190509392505050565b60006142e082612ef4565b91506142eb83612ef4565b925082820190508082111561430357614302613bde565b5b92915050565b7f4552433732313a207472616e736665722066726f6d20696e636f72726563742060008201527f6f776e6572000000000000000000000000000000000000000000000000000000602082015250565b6000614365602583612e4d565b915061437082614309565b604082019050919050565b6000602082019050818103600083015261439481614358565b9050919050565b7f4552433732313a207472616e7366657220746f20746865207a65726f2061646460008201527f7265737300000000000000000000000000000000000000000000000000000000602082015250565b60006143f7602483612e4d565b91506144028261439b565b604082019050919050565b60006020820190508181036000830152614426816143ea565b9050919050565b7f4552433939383a20696e73756666696369656e74206368696c642062616c616e60008201527f636520666f72207472616e736665720000000000000000000000000000000000602082015250565b6000614489602f83612e4d565b91506144948261442d565b604082019050919050565b600060208201905081810360008301526144b88161447c565b9050919050565b7f4552433732313a20617070726f766520746f2063616c6c657200000000000000600082015250565b60006144f5601983612e4d565b9150614500826144bf565b602082019050919050565b60006020820190508181036000830152614524816144e8565b9050919050565b7f4552433732313a207472616e7366657220746f206e6f6e20455243373231526560008201527f63656976657220696d706c656d656e7465720000000000000000000000000000602082015250565b6000614587603283612e4d565b91506145928261452b565b604082019050919050565b600060208201905081810360008301526145b68161457a565b9050919050565b7f4e487b7100000000000000000000000000000000000000000000000000000000600052601260045260246000fd5b60006145f782612ef4565b915061460283612ef4565b925082614612576146116145bd565b5b828204905092915050565b600061462882612ef4565b915061463383612ef4565b925082614643576146426145bd565b5b828206905092915050565b60006080820190506146636000830187612f89565b6146706020830186612f89565b61467d6040830185613659565b818103606083015261468f8184613f8a565b905095945050505050565b6000815190506146a981612db3565b92915050565b6000602082840312156146c5576146c4612d7d565b5b60006146d38482850161469a565b91505092915050565b7f4e487b7100000000000000000000000000000000000000000000000000000000600052603160045260246000fdfea264697066735822122042ce340f3ce5405ec702342a3d6dd4f91e20f42a3bb91ce985481122b8d03cfe64736f6c63430008110033",
  "immutableReferences": {},
  "source": "// SPDX-License-Identifier: UNLICENSED\r\n\r\npragma solidity ^0.8.0;\r\n\r\n/*\r\n// for remix\r\nimport \"https://github.com/OpenZeppelin/openzeppelin-contracts/blob/master/contracts/token/ERC1155/ERC1155.sol\";\r\nimport \"https://github.com/OpenZeppelin/openzeppelin-contracts/blob/master/contracts/token/ERC1155/ERC1155Receiver.sol\";\r\nimport \"https://github.com/OpenZeppelin/openzeppelin-contracts/blob/master/contracts/token/ERC721/ERC721.sol\";\r\nimport \"https://github.com/OpenZeppelin/openzeppelin-contracts/blob/master/contracts/utils/EnumerableSet.sol\";\r\n*/\r\n\r\nimport \"@openzeppelin/contracts/token/ERC1155/ERC1155.sol\";\r\nimport \"@openzeppelin/contracts/token/ERC1155/IERC1155Receiver.sol\";\r\nimport \"@openzeppelin/contracts/token/ERC721/ERC721.sol\";\r\nimport \"@openzeppelin/contracts/token/ERC721/IERC721Receiver.sol\";\r\nimport \"@openzeppelin/contracts/utils/structs/EnumerableSet.sol\";\r\n\r\nimport \"./IERC998ERC1155TopDown.sol\";\r\n\r\ncontract ERC998ERC1155TopDown is ERC721, IERC1155Receiver, IERC998ERC1155TopDown, IERC721Receiver {\r\n    using EnumerableSet for EnumerableSet.AddressSet;\r\n    using EnumerableSet for EnumerableSet.UintSet;\r\n\r\n    mapping(uint256 => mapping(address => mapping(uint256 => uint256))) public _balances;\r\n    mapping(address => mapping(uint256 => EnumerableSet.UintSet)) private _holdersOf;\r\n\r\n    mapping(uint256 => EnumerableSet.AddressSet) private _childContract;\r\n    mapping(uint256 => mapping(address => EnumerableSet.UintSet)) private _childsForChildContract;\r\n\r\n    mapping(uint256 => bool) public isERC721;\r\n    mapping(uint256 => bool) public isERC1155;\r\n\r\n    constructor(string memory name, string memory symbol, string memory baseURI) ERC721(name, symbol) public {\r\n        _baseURI();\r\n    }\r\n\r\n    /**\r\n     * @dev Gives child balance for a specific child contract and child id .\r\n     */\r\n    function childBalance(uint256 tokenId, address childContract, uint256 childTokenId) external view override returns(uint256) {\r\n        return _balances[tokenId][childContract][childTokenId];\r\n    }\r\n\r\n    /**\r\n     * @dev Gives list of child contract where token ID has childs.\r\n     */\r\n    function childContractsFor(uint256 tokenId) override external view returns (address[] memory) {\r\n        address[] memory childContracts = new address[](_childContract[tokenId].length());\r\n\r\n        for(uint256 i = 0; i < _childContract[tokenId].length(); i++) {\r\n            childContracts[i] = _childContract[tokenId].at(i);\r\n        }\r\n\r\n        return childContracts;\r\n    }\r\n\r\n    /**\r\n     * @dev Gives list of owned child ID on a child contract by parent token ID and child contract.\r\n     */\r\n    function childIdsOwned(uint256 tokenId, address childContract) override external view returns (uint256[] memory) {\r\n        uint256[] memory childTokenIds = new uint256[](_childsForChildContract[tokenId][childContract].length());\r\n\r\n        for(uint256 i = 0; i < _childsForChildContract[tokenId][childContract].length(); i++) {\r\n            childTokenIds[i] = _childsForChildContract[tokenId][childContract].at(i);\r\n        }\r\n\r\n        return childTokenIds;\r\n    }\r\n\r\n    /**\r\n     * @dev Transfers child token from a token ID.\r\n     */\r\n    function safeTransferChildFrom(uint256 fromTokenId, address to, address childContract, uint256 childTokenId, uint256 amount, bytes memory data) public override {\r\n        require(to != address(0), \"ERC998: transfer to the zero address\");\r\n\r\n        address operator = _msgSender();\r\n        require(\r\n            ownerOf(fromTokenId) == operator ||\r\n            isApprovedForAll(ownerOf(fromTokenId), operator),\r\n            \"ERC998: caller is not owner nor approved\"\r\n        );\r\n\r\n        _beforeChildTransfer(operator, fromTokenId, to, childContract, _asSingletonArray(childTokenId), _asSingletonArray(amount), data);\r\n\r\n        _removeChild(fromTokenId, childContract, childTokenId, amount);\r\n\r\n        // TODO: maybe check if to == this\r\n        ERC1155(childContract).safeTransferFrom(address(this), to, childTokenId, amount, data);\r\n        emit TransferSingleChild(fromTokenId, to, childContract, childTokenId, amount);\r\n    }\r\n\r\n    /**\r\n     * @dev Returns the owner of the token specified by tokenId. Wrapper function for ERC721 function ownerOf(). \r\n    */\r\n    function getOwner(uint256 tokenID) external view returns(address){\r\n        return ownerOf(tokenID);\r\n    }\r\n\r\n    function setIsERC721(uint256 tokenID) public {\r\n        isERC721[tokenID] = true;\r\n    }\r\n\r\n    function getIsERC721(uint256 tokenID) external view returns(bool) {\r\n        return isERC721[tokenID];\r\n    }\r\n\r\n    function setIsERC1155(uint256 tokenID) public {\r\n        isERC1155[tokenID] = true;\r\n    }\r\n\r\n    function getIsERC1155(uint256 tokenID) external view returns(bool) {\r\n        return isERC1155[tokenID];\r\n    }\r\n\r\n    /**\r\n     * @dev Returns the contract address of the child token ID, given a parent and child token ID.\r\n     */\r\n    function getChildContract(uint256 tokenID, uint256 childTokenID) external view returns(address){\r\n\r\n        for(uint256 i = 0; i < _childContract[tokenID].length(); i++) {\r\n            if (_childsForChildContract[tokenID][_childContract[tokenID].at(i)].contains(childTokenID)){\r\n                return _childContract[tokenID].at(i);\r\n            }\r\n        }\r\n\r\n        return address(0);\r\n    }\r\n\r\n    /**\r\n     * @dev Wrapper function to get message sender.\r\n     */\r\n    function getMsgSender() external view returns(address){\r\n        return _msgSender();\r\n    }\r\n\r\n\r\n\r\n    /**\r\n     * @dev Transfers batch of child tokens from a token ID.\r\n     */\r\n    function safeBatchTransferChildFrom(uint256 fromTokenId, address to, address childContract, uint256[] memory childTokenIds, uint256[] memory amounts, bytes memory data) public override {\r\n        require(childTokenIds.length == amounts.length, \"ERC998: ids and amounts length mismatch\");\r\n        require(to != address(0), \"ERC998: transfer to the zero address\");\r\n\r\n        address operator = _msgSender();\r\n        require(\r\n            ownerOf(fromTokenId) == operator ||\r\n            isApprovedForAll(ownerOf(fromTokenId), operator),\r\n            \"ERC998: caller is not owner nor approved\"\r\n        );\r\n\r\n        _beforeChildTransfer(operator, fromTokenId, to, childContract, childTokenIds, amounts, data);\r\n\r\n        for (uint256 i = 0; i < childTokenIds.length; ++i) {\r\n            uint256 childTokenId = childTokenIds[i];\r\n            uint256 amount = amounts[i];\r\n\r\n            _removeChild(fromTokenId, childContract, childTokenId, amount);\r\n        }\r\n        ERC1155(childContract).safeBatchTransferFrom(address(this), to, childTokenIds, amounts, data);\r\n        emit TransferBatchChild(fromTokenId, to, childContract, childTokenIds, amounts);\r\n    }\r\n\r\n    /**\r\n     * @dev Receives a child token, the receiver token ID must be encoded in the\r\n     * field data.\r\n     */\r\n    function onERC1155Received(address operator, address from, uint256 id, uint256 amount, bytes memory data) virtual public override returns(bytes4) {\r\n        require(data.length == 32, \"ERC998: data must contain the unique uint256 tokenId to transfer the child token to\");\r\n        _beforeChildTransfer(operator, 0, address(this), from, _asSingletonArray(id), _asSingletonArray(amount), data);\r\n\r\n        uint256 _receiverTokenId;\r\n        uint256 _index = msg.data.length - 32;\r\n        assembly {_receiverTokenId := calldataload(_index)}\r\n\r\n        _receiveChild(_receiverTokenId, msg.sender, id, amount);\r\n        emit ReceivedChild(from, _receiverTokenId, msg.sender, id, amount);\r\n\r\n        return this.onERC1155Received.selector;\r\n    }\r\n\r\n    /**\r\n     * @dev Receives a child token, the receiver token ID must be encoded in the\r\n     * field data.\r\n     */\r\n    function onERC721Received(address operator, address from, uint256 tokenId, bytes memory data) virtual public override returns(bytes4) {\r\n        require(data.length == 32, \"ERC998: data must contain the unique uint256 tokenId to transfer the child token to\");\r\n\r\n        uint256 _receiverTokenId;\r\n        uint256 _index = msg.data.length - 32;\r\n        assembly {_receiverTokenId := calldataload(_index)}\r\n\r\n        _receiveChild(_receiverTokenId, msg.sender, tokenId, 1);\r\n        emit ReceivedChild(from, _receiverTokenId, msg.sender, tokenId, 1);\r\n\r\n        return this.onERC721Received.selector;\r\n    }\r\n\r\n    /**\r\n     * @dev Receives a batch of child tokens, the receiver token ID must be\r\n     * encoded in the field data.\r\n     */\r\n    function onERC1155BatchReceived(address operator, address from, uint256[] memory ids, uint256[] memory values, bytes memory data) virtual public override returns(bytes4) {\r\n        require(data.length == 32, \"ERC998: data must contain the unique uint256 tokenId to transfer the child token to\");\r\n        require(ids.length == values.length, \"ERC1155: ids and values length mismatch\");\r\n        _beforeChildTransfer(operator, 0, address(this), from, ids, values, data);\r\n\r\n        uint256 _receiverTokenId;\r\n        uint256 _index = msg.data.length - 32;\r\n        assembly {_receiverTokenId := calldataload(_index)}\r\n        for(uint256 i = 0; i < ids.length; i++) {\r\n            _receiveChild(_receiverTokenId, msg.sender, ids[i], values[i]);\r\n            emit ReceivedChild(from, _receiverTokenId, msg.sender, ids[i], values[i]);\r\n        }\r\n        return this.onERC1155BatchReceived.selector;\r\n    }\r\n\r\n    function _receiveChild(uint256 tokenId, address childContract, uint256 childTokenId, uint256 amount) internal virtual {\r\n        if(!_childContract[tokenId].contains(childContract)) {\r\n            _childContract[tokenId].add(childContract);\r\n        }\r\n        if(_balances[tokenId][childContract][childTokenId] == 0) {\r\n            _childsForChildContract[tokenId][childContract].add(childTokenId);\r\n        }\r\n        _balances[tokenId][childContract][childTokenId] += amount;\r\n    }\r\n\r\n    function _removeChild(uint256 tokenId, address childContract, uint256 childTokenId, uint256 amount) internal virtual {\r\n        require(amount != 0 || _balances[tokenId][childContract][childTokenId] >= amount, \"ERC998: insufficient child balance for transfer\");\r\n        _balances[tokenId][childContract][childTokenId] -= amount;\r\n        if(_balances[tokenId][childContract][childTokenId] == 0) {\r\n            _holdersOf[childContract][childTokenId].remove(tokenId);\r\n            _childsForChildContract[tokenId][childContract].remove(childTokenId);\r\n            if(_childsForChildContract[tokenId][childContract].length() == 0) {\r\n                _childContract[tokenId].remove(childContract);\r\n            }\r\n        }\r\n    }\r\n\r\n    function _beforeChildTransfer(\r\n        address operator,\r\n        uint256 fromTokenId,\r\n        address to,\r\n        address childContract,\r\n        uint256[] memory ids,\r\n        uint256[] memory amounts,\r\n        bytes memory data\r\n    )\r\n        internal virtual\r\n    { }\r\n\r\n    function _asSingletonArray(uint256 element) private pure returns (uint256[] memory) {\r\n        uint256[] memory array = new uint256[](1);\r\n        array[0] = element;\r\n\r\n        return array;\r\n    }\r\n}\r\n",
  "sourcePath": "C:\\Users\\prami\\Documents\\Thesis\\supp_chain\\truffle\\contracts\\ERC998ERC1155TopDown.sol",
  "compiler": {
    "name": "solc",
    "version": "0.8.17+commit.8df45f5f.Emscripten.clang"
  },
  "schemaVersion": "3.4.10",
  "updatedAt": "2022-10-31T13:30:07.509Z",
  "networkType": "ethereum",
  "devdoc": {
    "kind": "dev",
    "methods": {
      "approve(address,uint256)": {
        "details": "See {IERC721-approve}."
      },
      "balanceOf(address)": {
        "details": "See {IERC721-balanceOf}."
      },
      "childBalance(uint256,address,uint256)": {
        "details": "Gives child balance for a specific child contract and child id ."
      },
      "childContractsFor(uint256)": {
        "details": "Gives list of child contract where token ID has childs."
      },
      "childIdsOwned(uint256,address)": {
        "details": "Gives list of owned child ID on a child contract by parent token ID and child contract."
      },
      "getApproved(uint256)": {
        "details": "See {IERC721-getApproved}."
      },
      "getChildContract(uint256,uint256)": {
        "details": "Returns the contract address of the child token ID, given a parent and child token ID."
      },
      "getMsgSender()": {
        "details": "Wrapper function to get message sender."
      },
      "getOwner(uint256)": {
        "details": "Returns the owner of the token specified by tokenId. Wrapper function for ERC721 function ownerOf(). "
      },
      "isApprovedForAll(address,address)": {
        "details": "See {IERC721-isApprovedForAll}."
      },
      "name()": {
        "details": "See {IERC721Metadata-name}."
      },
      "onERC1155BatchReceived(address,address,uint256[],uint256[],bytes)": {
        "details": "Receives a batch of child tokens, the receiver token ID must be encoded in the field data."
      },
      "onERC1155Received(address,address,uint256,uint256,bytes)": {
        "details": "Receives a child token, the receiver token ID must be encoded in the field data."
      },
      "onERC721Received(address,address,uint256,bytes)": {
        "details": "Receives a child token, the receiver token ID must be encoded in the field data."
      },
      "ownerOf(uint256)": {
        "details": "See {IERC721-ownerOf}."
      },
      "safeBatchTransferChildFrom(uint256,address,address,uint256[],uint256[],bytes)": {
        "details": "Transfers batch of child tokens from a token ID."
      },
      "safeTransferChildFrom(uint256,address,address,uint256,uint256,bytes)": {
        "details": "Transfers child token from a token ID."
      },
      "safeTransferFrom(address,address,uint256)": {
        "details": "See {IERC721-safeTransferFrom}."
      },
      "safeTransferFrom(address,address,uint256,bytes)": {
        "details": "See {IERC721-safeTransferFrom}."
      },
      "setApprovalForAll(address,bool)": {
        "details": "See {IERC721-setApprovalForAll}."
      },
      "supportsInterface(bytes4)": {
        "details": "See {IERC165-supportsInterface}."
      },
      "symbol()": {
        "details": "See {IERC721Metadata-symbol}."
      },
      "tokenURI(uint256)": {
        "details": "See {IERC721Metadata-tokenURI}."
      },
      "transferFrom(address,address,uint256)": {
        "details": "See {IERC721-transferFrom}."
      }
    },
    "version": 1
  },
  "userdoc": {
    "kind": "user",
    "methods": {},
    "version": 1
  }
}