{
  "contractName": "ERC998ERC1155TopDown",
  "abi": [
    {
      "inputs": [
        {
          "internalType": "string",
          "name": "name",
          "type": "string"
        },
        {
          "internalType": "string",
          "name": "symbol",
          "type": "string"
        },
        {
          "internalType": "string",
          "name": "baseURI",
          "type": "string"
        }
      ],
      "stateMutability": "nonpayable",
      "type": "constructor"
    },
    {
      "anonymous": false,
      "inputs": [
        {
          "indexed": true,
          "internalType": "address",
          "name": "owner",
          "type": "address"
        },
        {
          "indexed": true,
          "internalType": "address",
          "name": "approved",
          "type": "address"
        },
        {
          "indexed": true,
          "internalType": "uint256",
          "name": "tokenId",
          "type": "uint256"
        }
      ],
      "name": "Approval",
      "type": "event"
    },
    {
      "anonymous": false,
      "inputs": [
        {
          "indexed": true,
          "internalType": "address",
          "name": "owner",
          "type": "address"
        },
        {
          "indexed": true,
          "internalType": "address",
          "name": "operator",
          "type": "address"
        },
        {
          "indexed": false,
          "internalType": "bool",
          "name": "approved",
          "type": "bool"
        }
      ],
      "name": "ApprovalForAll",
      "type": "event"
    },
    {
      "anonymous": false,
      "inputs": [
        {
          "indexed": true,
          "internalType": "address",
          "name": "from",
          "type": "address"
        },
        {
          "indexed": true,
          "internalType": "uint256",
          "name": "toTokenId",
          "type": "uint256"
        },
        {
          "indexed": true,
          "internalType": "address",
          "name": "childContract",
          "type": "address"
        },
        {
          "indexed": false,
          "internalType": "uint256",
          "name": "childTokenId",
          "type": "uint256"
        },
        {
          "indexed": false,
          "internalType": "uint256",
          "name": "amount",
          "type": "uint256"
        }
      ],
      "name": "ReceivedChild",
      "type": "event"
    },
    {
      "anonymous": false,
      "inputs": [
        {
          "indexed": true,
          "internalType": "address",
          "name": "from",
          "type": "address"
        },
        {
          "indexed": true,
          "internalType": "address",
          "name": "to",
          "type": "address"
        },
        {
          "indexed": true,
          "internalType": "uint256",
          "name": "tokenId",
          "type": "uint256"
        }
      ],
      "name": "Transfer",
      "type": "event"
    },
    {
      "anonymous": false,
      "inputs": [
        {
          "indexed": true,
          "internalType": "uint256",
          "name": "fromTokenId",
          "type": "uint256"
        },
        {
          "indexed": true,
          "internalType": "address",
          "name": "to",
          "type": "address"
        },
        {
          "indexed": true,
          "internalType": "address",
          "name": "childContract",
          "type": "address"
        },
        {
          "indexed": false,
          "internalType": "uint256[]",
          "name": "childTokenIds",
          "type": "uint256[]"
        },
        {
          "indexed": false,
          "internalType": "uint256[]",
          "name": "amounts",
          "type": "uint256[]"
        }
      ],
      "name": "TransferBatchChild",
      "type": "event"
    },
    {
      "anonymous": false,
      "inputs": [
        {
          "indexed": true,
          "internalType": "uint256",
          "name": "fromTokenId",
          "type": "uint256"
        },
        {
          "indexed": true,
          "internalType": "address",
          "name": "to",
          "type": "address"
        },
        {
          "indexed": true,
          "internalType": "address",
          "name": "childContract",
          "type": "address"
        },
        {
          "indexed": false,
          "internalType": "uint256",
          "name": "childTokenId",
          "type": "uint256"
        },
        {
          "indexed": false,
          "internalType": "uint256",
          "name": "amount",
          "type": "uint256"
        }
      ],
      "name": "TransferSingleChild",
      "type": "event"
    },
    {
      "inputs": [
        {
          "internalType": "uint256",
          "name": "",
          "type": "uint256"
        },
        {
          "internalType": "address",
          "name": "",
          "type": "address"
        },
        {
          "internalType": "uint256",
          "name": "",
          "type": "uint256"
        }
      ],
      "name": "_balances",
      "outputs": [
        {
          "internalType": "uint256",
          "name": "",
          "type": "uint256"
        }
      ],
      "stateMutability": "view",
      "type": "function",
      "constant": true
    },
    {
      "inputs": [
        {
          "internalType": "address",
          "name": "to",
          "type": "address"
        },
        {
          "internalType": "uint256",
          "name": "tokenId",
          "type": "uint256"
        }
      ],
      "name": "approve",
      "outputs": [],
      "stateMutability": "nonpayable",
      "type": "function"
    },
    {
      "inputs": [
        {
          "internalType": "address",
          "name": "owner",
          "type": "address"
        }
      ],
      "name": "balanceOf",
      "outputs": [
        {
          "internalType": "uint256",
          "name": "",
          "type": "uint256"
        }
      ],
      "stateMutability": "view",
      "type": "function",
      "constant": true
    },
    {
      "inputs": [
        {
          "internalType": "uint256",
          "name": "tokenId",
          "type": "uint256"
        }
      ],
      "name": "getApproved",
      "outputs": [
        {
          "internalType": "address",
          "name": "",
          "type": "address"
        }
      ],
      "stateMutability": "view",
      "type": "function",
      "constant": true
    },
    {
      "inputs": [
        {
          "internalType": "address",
          "name": "owner",
          "type": "address"
        },
        {
          "internalType": "address",
          "name": "operator",
          "type": "address"
        }
      ],
      "name": "isApprovedForAll",
      "outputs": [
        {
          "internalType": "bool",
          "name": "",
          "type": "bool"
        }
      ],
      "stateMutability": "view",
      "type": "function",
      "constant": true
    },
    {
      "inputs": [
        {
          "internalType": "uint256",
          "name": "",
          "type": "uint256"
        }
      ],
      "name": "isERC1155",
      "outputs": [
        {
          "internalType": "bool",
          "name": "",
          "type": "bool"
        }
      ],
      "stateMutability": "view",
      "type": "function",
      "constant": true
    },
    {
      "inputs": [
        {
          "internalType": "uint256",
          "name": "",
          "type": "uint256"
        }
      ],
      "name": "isERC721",
      "outputs": [
        {
          "internalType": "bool",
          "name": "",
          "type": "bool"
        }
      ],
      "stateMutability": "view",
      "type": "function",
      "constant": true
    },
    {
      "inputs": [],
      "name": "name",
      "outputs": [
        {
          "internalType": "string",
          "name": "",
          "type": "string"
        }
      ],
      "stateMutability": "view",
      "type": "function",
      "constant": true
    },
    {
      "inputs": [
        {
          "internalType": "uint256",
          "name": "tokenId",
          "type": "uint256"
        }
      ],
      "name": "ownerOf",
      "outputs": [
        {
          "internalType": "address",
          "name": "",
          "type": "address"
        }
      ],
      "stateMutability": "view",
      "type": "function",
      "constant": true
    },
    {
      "inputs": [
        {
          "internalType": "address",
          "name": "from",
          "type": "address"
        },
        {
          "internalType": "address",
          "name": "to",
          "type": "address"
        },
        {
          "internalType": "uint256",
          "name": "tokenId",
          "type": "uint256"
        }
      ],
      "name": "safeTransferFrom",
      "outputs": [],
      "stateMutability": "nonpayable",
      "type": "function"
    },
    {
      "inputs": [
        {
          "internalType": "address",
          "name": "from",
          "type": "address"
        },
        {
          "internalType": "address",
          "name": "to",
          "type": "address"
        },
        {
          "internalType": "uint256",
          "name": "tokenId",
          "type": "uint256"
        },
        {
          "internalType": "bytes",
          "name": "data",
          "type": "bytes"
        }
      ],
      "name": "safeTransferFrom",
      "outputs": [],
      "stateMutability": "nonpayable",
      "type": "function"
    },
    {
      "inputs": [
        {
          "internalType": "address",
          "name": "operator",
          "type": "address"
        },
        {
          "internalType": "bool",
          "name": "approved",
          "type": "bool"
        }
      ],
      "name": "setApprovalForAll",
      "outputs": [],
      "stateMutability": "nonpayable",
      "type": "function"
    },
    {
      "inputs": [
        {
          "internalType": "bytes4",
          "name": "interfaceId",
          "type": "bytes4"
        }
      ],
      "name": "supportsInterface",
      "outputs": [
        {
          "internalType": "bool",
          "name": "",
          "type": "bool"
        }
      ],
      "stateMutability": "view",
      "type": "function",
      "constant": true
    },
    {
      "inputs": [],
      "name": "symbol",
      "outputs": [
        {
          "internalType": "string",
          "name": "",
          "type": "string"
        }
      ],
      "stateMutability": "view",
      "type": "function",
      "constant": true
    },
    {
      "inputs": [
        {
          "internalType": "uint256",
          "name": "tokenId",
          "type": "uint256"
        }
      ],
      "name": "tokenURI",
      "outputs": [
        {
          "internalType": "string",
          "name": "",
          "type": "string"
        }
      ],
      "stateMutability": "view",
      "type": "function",
      "constant": true
    },
    {
      "inputs": [
        {
          "internalType": "address",
          "name": "from",
          "type": "address"
        },
        {
          "internalType": "address",
          "name": "to",
          "type": "address"
        },
        {
          "internalType": "uint256",
          "name": "tokenId",
          "type": "uint256"
        }
      ],
      "name": "transferFrom",
      "outputs": [],
      "stateMutability": "nonpayable",
      "type": "function"
    },
    {
      "inputs": [
        {
          "internalType": "uint256",
          "name": "tokenId",
          "type": "uint256"
        },
        {
          "internalType": "address",
          "name": "childContract",
          "type": "address"
        },
        {
          "internalType": "uint256",
          "name": "childTokenId",
          "type": "uint256"
        }
      ],
      "name": "childBalance",
      "outputs": [
        {
          "internalType": "uint256",
          "name": "",
          "type": "uint256"
        }
      ],
      "stateMutability": "view",
      "type": "function",
      "constant": true
    },
    {
      "inputs": [
        {
          "internalType": "uint256",
          "name": "tokenId",
          "type": "uint256"
        }
      ],
      "name": "childContractsFor",
      "outputs": [
        {
          "internalType": "address[]",
          "name": "",
          "type": "address[]"
        }
      ],
      "stateMutability": "view",
      "type": "function",
      "constant": true
    },
    {
      "inputs": [
        {
          "internalType": "uint256",
          "name": "tokenId",
          "type": "uint256"
        },
        {
          "internalType": "address",
          "name": "childContract",
          "type": "address"
        }
      ],
      "name": "childIdsOwned",
      "outputs": [
        {
          "internalType": "uint256[]",
          "name": "",
          "type": "uint256[]"
        }
      ],
      "stateMutability": "view",
      "type": "function",
      "constant": true
    },
    {
      "inputs": [
        {
          "internalType": "uint256",
          "name": "fromTokenId",
          "type": "uint256"
        },
        {
          "internalType": "address",
          "name": "to",
          "type": "address"
        },
        {
          "internalType": "address",
          "name": "childContract",
          "type": "address"
        },
        {
          "internalType": "uint256",
          "name": "childTokenId",
          "type": "uint256"
        },
        {
          "internalType": "uint256",
          "name": "amount",
          "type": "uint256"
        },
        {
          "internalType": "bytes",
          "name": "data",
          "type": "bytes"
        }
      ],
      "name": "safeTransferChildFrom",
      "outputs": [],
      "stateMutability": "nonpayable",
      "type": "function"
    },
    {
      "inputs": [
        {
          "internalType": "uint256",
          "name": "tokenID",
          "type": "uint256"
        }
      ],
      "name": "getOwner",
      "outputs": [
        {
          "internalType": "address",
          "name": "",
          "type": "address"
        }
      ],
      "stateMutability": "view",
      "type": "function",
      "constant": true
    },
    {
      "inputs": [
        {
          "internalType": "uint256",
          "name": "tokenID",
          "type": "uint256"
        },
        {
          "internalType": "uint256",
          "name": "childTokenID",
          "type": "uint256"
        }
      ],
      "name": "getChildContract",
      "outputs": [
        {
          "internalType": "address",
          "name": "",
          "type": "address"
        }
      ],
      "stateMutability": "view",
      "type": "function",
      "constant": true
    },
    {
      "inputs": [],
      "name": "getMsgSender",
      "outputs": [
        {
          "internalType": "address",
          "name": "",
          "type": "address"
        }
      ],
      "stateMutability": "view",
      "type": "function",
      "constant": true
    },
    {
      "inputs": [
        {
          "internalType": "uint256",
          "name": "fromTokenId",
          "type": "uint256"
        },
        {
          "internalType": "address",
          "name": "to",
          "type": "address"
        },
        {
          "internalType": "address",
          "name": "childContract",
          "type": "address"
        },
        {
          "internalType": "uint256[]",
          "name": "childTokenIds",
          "type": "uint256[]"
        },
        {
          "internalType": "uint256[]",
          "name": "amounts",
          "type": "uint256[]"
        },
        {
          "internalType": "bytes",
          "name": "data",
          "type": "bytes"
        }
      ],
      "name": "safeBatchTransferChildFrom",
      "outputs": [],
      "stateMutability": "nonpayable",
      "type": "function"
    },
    {
      "inputs": [
        {
          "internalType": "address",
          "name": "operator",
          "type": "address"
        },
        {
          "internalType": "address",
          "name": "from",
          "type": "address"
        },
        {
          "internalType": "uint256",
          "name": "id",
          "type": "uint256"
        },
        {
          "internalType": "uint256",
          "name": "amount",
          "type": "uint256"
        },
        {
          "internalType": "bytes",
          "name": "data",
          "type": "bytes"
        }
      ],
      "name": "onERC1155Received",
      "outputs": [
        {
          "internalType": "bytes4",
          "name": "",
          "type": "bytes4"
        }
      ],
      "stateMutability": "nonpayable",
      "type": "function"
    },
    {
      "inputs": [
        {
          "internalType": "address",
          "name": "operator",
          "type": "address"
        },
        {
          "internalType": "address",
          "name": "from",
          "type": "address"
        },
        {
          "internalType": "uint256",
          "name": "tokenId",
          "type": "uint256"
        },
        {
          "internalType": "bytes",
          "name": "data",
          "type": "bytes"
        }
      ],
      "name": "onERC721Received",
      "outputs": [
        {
          "internalType": "bytes4",
          "name": "",
          "type": "bytes4"
        }
      ],
      "stateMutability": "nonpayable",
      "type": "function"
    },
    {
      "inputs": [
        {
          "internalType": "address",
          "name": "operator",
          "type": "address"
        },
        {
          "internalType": "address",
          "name": "from",
          "type": "address"
        },
        {
          "internalType": "uint256[]",
          "name": "ids",
          "type": "uint256[]"
        },
        {
          "internalType": "uint256[]",
          "name": "values",
          "type": "uint256[]"
        },
        {
          "internalType": "bytes",
          "name": "data",
          "type": "bytes"
        }
      ],
      "name": "onERC1155BatchReceived",
      "outputs": [
        {
          "internalType": "bytes4",
          "name": "",
          "type": "bytes4"
        }
      ],
      "stateMutability": "nonpayable",
      "type": "function"
    }
  ],
  "bytecode": "0x60806040523480156200001157600080fd5b5060405162004bd938038062004bd9833981810160405281019062000037919062000223565b828281600090816200004a919062000527565b5080600190816200005c919062000527565b5050506200006f6200007960201b60201c565b505050506200060e565b606060405180602001604052806000815250905090565b6000604051905090565b600080fd5b600080fd5b600080fd5b600080fd5b6000601f19601f8301169050919050565b7f4e487b7100000000000000000000000000000000000000000000000000000000600052604160045260246000fd5b620000f982620000ae565b810181811067ffffffffffffffff821117156200011b576200011a620000bf565b5b80604052505050565b60006200013062000090565b90506200013e8282620000ee565b919050565b600067ffffffffffffffff821115620001615762000160620000bf565b5b6200016c82620000ae565b9050602081019050919050565b60005b83811015620001995780820151818401526020810190506200017c565b60008484015250505050565b6000620001bc620001b68462000143565b62000124565b905082815260208101848484011115620001db57620001da620000a9565b5b620001e884828562000179565b509392505050565b600082601f830112620002085762000207620000a4565b5b81516200021a848260208601620001a5565b91505092915050565b6000806000606084860312156200023f576200023e6200009a565b5b600084015167ffffffffffffffff81111562000260576200025f6200009f565b5b6200026e86828701620001f0565b935050602084015167ffffffffffffffff8111156200029257620002916200009f565b5b620002a086828701620001f0565b925050604084015167ffffffffffffffff811115620002c457620002c36200009f565b5b620002d286828701620001f0565b9150509250925092565b600081519050919050565b7f4e487b7100000000000000000000000000000000000000000000000000000000600052602260045260246000fd5b600060028204905060018216806200032f57607f821691505b602082108103620003455762000344620002e7565b5b50919050565b60008190508160005260206000209050919050565b60006020601f8301049050919050565b600082821b905092915050565b600060088302620003af7fffffffffffffffffffffffffffffffffffffffffffffffffffffffffffffffff8262000370565b620003bb868362000370565b95508019841693508086168417925050509392505050565b6000819050919050565b6000819050919050565b60006200040862000402620003fc84620003d3565b620003dd565b620003d3565b9050919050565b6000819050919050565b6200042483620003e7565b6200043c62000433826200040f565b8484546200037d565b825550505050565b600090565b6200045362000444565b6200046081848462000419565b505050565b5b8181101562000488576200047c60008262000449565b60018101905062000466565b5050565b601f821115620004d757620004a1816200034b565b620004ac8462000360565b81016020851015620004bc578190505b620004d4620004cb8562000360565b83018262000465565b50505b505050565b600082821c905092915050565b6000620004fc60001984600802620004dc565b1980831691505092915050565b6000620005178383620004e9565b9150826002028217905092915050565b6200053282620002dc565b67ffffffffffffffff8111156200054e576200054d620000bf565b5b6200055a825462000316565b620005678282856200048c565b600060209050601f8311600181146200059f57600084156200058a578287015190505b62000596858262000509565b86555062000606565b601f198416620005af866200034b565b60005b82811015620005d957848901518255600182019150602085019450602081019050620005b2565b86831015620005f95784890151620005f5601f891682620004e9565b8355505b6001600288020188555050505b505050505050565b6145bb806200061e6000396000f3fe608060405234801561001057600080fd5b50600436106101a95760003560e01c80636f9bc25b116100f9578063b88d4fde11610097578063c87b56dd11610071578063c87b56dd1461053c578063e985e9c51461056c578063eeaf2f091461059c578063f23a6e61146105cc576101a9565b8063b88d4fde146104c0578063bc197c81146104dc578063c41a360a1461050c576101a9565b806389e7e2f2116100d357806389e7e2f21461042657806395d89b41146104565780639fb64d8314610474578063a22cb465146104a4576101a9565b80636f9bc25b146103a857806370a08231146103d85780637a6ce2e114610408576101a9565b806323b872dd1161016657806342cf6e741161014057806342cf6e74146102fc5780635fa030211461031857806360d4d23a146103485780636352211e14610378576101a9565b806323b872dd146102a857806332085b65146102c457806342842e0e146102e0576101a9565b806301ffc9a7146101ae57806306fdde03146101de578063081812fc146101fc578063095ea7b31461022c578063150b7a021461024857806317dd762314610278575b600080fd5b6101c860048036038101906101c39190612c59565b6105fc565b6040516101d59190612ca1565b60405180910390f35b6101e66106de565b6040516101f39190612d4c565b60405180910390f35b61021660048036038101906102119190612da4565b610770565b6040516102239190612e12565b60405180910390f35b61024660048036038101906102419190612e59565b6107b6565b005b610262600480360381019061025d9190612fce565b6108cd565b60405161026f9190613060565b60405180910390f35b610292600480360381019061028d919061307b565b6109b7565b60405161029f9190612e12565b60405180910390f35b6102c260048036038101906102bd91906130bb565b610ab8565b005b6102de60048036038101906102d991906131d6565b610b18565b005b6102fa60048036038101906102f591906130bb565b610dc3565b005b610316600480360381019061031191906132b7565b610de3565b005b610332600480360381019061032d9190613360565b610ffc565b60405161033f919061345e565b60405180910390f35b610362600480360381019061035d9190613480565b6111a3565b60405161036f91906134e2565b60405180910390f35b610392600480360381019061038d9190612da4565b611210565b60405161039f9190612e12565b60405180910390f35b6103c260048036038101906103bd9190612da4565b6112c1565b6040516103cf9190612ca1565b60405180910390f35b6103f260048036038101906103ed91906134fd565b6112e1565b6040516103ff91906134e2565b60405180910390f35b610410611398565b60405161041d9190612e12565b60405180910390f35b610440600480360381019061043b9190612da4565b6113a7565b60405161044d91906135e8565b60405180910390f35b61045e6114c4565b60405161046b9190612d4c565b60405180910390f35b61048e60048036038101906104899190612da4565b611556565b60405161049b9190612ca1565b60405180910390f35b6104be60048036038101906104b99190613636565b611576565b005b6104da60048036038101906104d59190612fce565b61158c565b005b6104f660048036038101906104f19190613676565b6115ee565b6040516105039190613060565b60405180910390f35b61052660048036038101906105219190612da4565b6117b3565b6040516105339190612e12565b60405180910390f35b61055660048036038101906105519190612da4565b6117c5565b6040516105639190612d4c565b60405180910390f35b61058660048036038101906105819190613745565b61182d565b6040516105939190612ca1565b60405180910390f35b6105b660048036038101906105b19190613480565b6118c1565b6040516105c391906134e2565b60405180910390f35b6105e660048036038101906105e19190613785565b6118f3565b6040516105f39190613060565b60405180910390f35b60007f80ac58cd000000000000000000000000000000000000000000000000000000007bffffffffffffffffffffffffffffffffffffffffffffffffffffffff1916827bffffffffffffffffffffffffffffffffffffffffffffffffffffffff191614806106c757507f5b5e139f000000000000000000000000000000000000000000000000000000007bffffffffffffffffffffffffffffffffffffffffffffffffffffffff1916827bffffffffffffffffffffffffffffffffffffffffffffffffffffffff1916145b806106d757506106d6826119fc565b5b9050919050565b6060600080546106ed9061384b565b80601f01602080910402602001604051908101604052809291908181526020018280546107199061384b565b80156107665780601f1061073b57610100808354040283529160200191610766565b820191906000526020600020905b81548152906001019060200180831161074957829003601f168201915b5050505050905090565b600061077b82611a66565b6004600083815260200190815260200160002060009054906101000a900473ffffffffffffffffffffffffffffffffffffffff169050919050565b60006107c182611210565b90508073ffffffffffffffffffffffffffffffffffffffff168373ffffffffffffffffffffffffffffffffffffffff1603610831576040517f08c379a0000000000000000000000000000000000000000000000000000000008152600401610828906138ee565b60405180910390fd5b8073ffffffffffffffffffffffffffffffffffffffff16610850611ab1565b73ffffffffffffffffffffffffffffffffffffffff16148061087f575061087e81610879611ab1565b61182d565b5b6108be576040517f08c379a00000000000000000000000000000000000000000000000000000000081526004016108b590613980565b60405180910390fd5b6108c88383611ab9565b505050565b60006020825114610913576040517f08c379a000000000000000000000000000000000000000000000000000000000815260040161090a90613a38565b60405180910390fd5b600080602060003690506109279190613a87565b90508035915061093a8233876001611b72565b3373ffffffffffffffffffffffffffffffffffffffff16828773ffffffffffffffffffffffffffffffffffffffff167fa18753b0660a8be2cdae03468c860b47c2926433ab16917f323544652803032d88600160405161099b929190613b00565b60405180910390a463150b7a0260e01b92505050949350505050565b600080600090505b6109da60086000868152602001908152602001600020611d0d565b811015610aac57610a6783600960008781526020019081526020016000206000610a1f85600860008b8152602001908152602001600020611d2290919063ffffffff16565b73ffffffffffffffffffffffffffffffffffffffff1673ffffffffffffffffffffffffffffffffffffffff168152602001908152602001600020611d3c90919063ffffffff16565b15610a9957610a918160086000878152602001908152602001600020611d2290919063ffffffff16565b915050610ab2565b8080610aa490613b29565b9150506109bf565b50600090505b92915050565b610ac9610ac3611ab1565b82611d56565b610b08576040517f08c379a0000000000000000000000000000000000000000000000000000000008152600401610aff90613be3565b60405180910390fd5b610b13838383611deb565b505050565b8151835114610b5c576040517f08c379a0000000000000000000000000000000000000000000000000000000008152600401610b5390613c75565b60405180910390fd5b600073ffffffffffffffffffffffffffffffffffffffff168573ffffffffffffffffffffffffffffffffffffffff1603610bcb576040517f08c379a0000000000000000000000000000000000000000000000000000000008152600401610bc290613d07565b60405180910390fd5b6000610bd5611ab1565b90508073ffffffffffffffffffffffffffffffffffffffff16610bf788611210565b73ffffffffffffffffffffffffffffffffffffffff161480610c275750610c26610c2088611210565b8261182d565b5b610c66576040517f08c379a0000000000000000000000000000000000000000000000000000000008152600401610c5d90613d99565b60405180910390fd5b610c7581888888888888612051565b60005b8451811015610cde576000858281518110610c9657610c95613db9565b5b602002602001015190506000858381518110610cb557610cb4613db9565b5b60200260200101519050610ccb8a89848461205a565b505080610cd790613b29565b9050610c78565b508473ffffffffffffffffffffffffffffffffffffffff16632eb2c2d630888787876040518663ffffffff1660e01b8152600401610d20959493929190613e3d565b600060405180830381600087803b158015610d3a57600080fd5b505af1158015610d4e573d6000803e3d6000fd5b505050508473ffffffffffffffffffffffffffffffffffffffff168673ffffffffffffffffffffffffffffffffffffffff16887f5572be9c1bc39e4e277a34f64ccd0e84456dac3f33b0b1c458c12c402c6326a98787604051610db2929190613ea5565b60405180910390a450505050505050565b610dde8383836040518060200160405280600081525061158c565b505050565b600073ffffffffffffffffffffffffffffffffffffffff168573ffffffffffffffffffffffffffffffffffffffff1603610e52576040517f08c379a0000000000000000000000000000000000000000000000000000000008152600401610e4990613d07565b60405180910390fd5b6000610e5c611ab1565b90508073ffffffffffffffffffffffffffffffffffffffff16610e7e88611210565b73ffffffffffffffffffffffffffffffffffffffff161480610eae5750610ead610ea788611210565b8261182d565b5b610eed576040517f08c379a0000000000000000000000000000000000000000000000000000000008152600401610ee490613d99565b60405180910390fd5b610f0c81888888610efd8961233e565b610f068961233e565b88612051565b610f188786868661205a565b8473ffffffffffffffffffffffffffffffffffffffff1663f242432a30888787876040518663ffffffff1660e01b8152600401610f59959493929190613edc565b600060405180830381600087803b158015610f7357600080fd5b505af1158015610f87573d6000803e3d6000fd5b505050508473ffffffffffffffffffffffffffffffffffffffff168673ffffffffffffffffffffffffffffffffffffffff16887f9d6259404dec52b3d5d220f5b8e5d05cc05ec908e1bc320aa46793e3091e51948787604051610feb929190613f36565b60405180910390a450505050505050565b606060006110586009600086815260200190815260200160002060008573ffffffffffffffffffffffffffffffffffffffff1673ffffffffffffffffffffffffffffffffffffffff1681526020019081526020016000206123b8565b67ffffffffffffffff81111561107157611070612ea3565b5b60405190808252806020026020018201604052801561109f5781602001602082028036833780820191505090505b50905060005b6110fd6009600087815260200190815260200160002060008673ffffffffffffffffffffffffffffffffffffffff1673ffffffffffffffffffffffffffffffffffffffff1681526020019081526020016000206123b8565b81101561119857611166816009600088815260200190815260200160002060008773ffffffffffffffffffffffffffffffffffffffff1673ffffffffffffffffffffffffffffffffffffffff1681526020019081526020016000206123cd90919063ffffffff16565b82828151811061117957611178613db9565b5b602002602001018181525050808061119090613b29565b9150506110a5565b508091505092915050565b60006006600085815260200190815260200160002060008473ffffffffffffffffffffffffffffffffffffffff1673ffffffffffffffffffffffffffffffffffffffff16815260200190815260200160002060008381526020019081526020016000205490509392505050565b6000806002600084815260200190815260200160002060009054906101000a900473ffffffffffffffffffffffffffffffffffffffff169050600073ffffffffffffffffffffffffffffffffffffffff168173ffffffffffffffffffffffffffffffffffffffff16036112b8576040517f08c379a00000000000000000000000000000000000000000000000000000000081526004016112af90613fab565b60405180910390fd5b80915050919050565b600b6020528060005260406000206000915054906101000a900460ff1681565b60008073ffffffffffffffffffffffffffffffffffffffff168273ffffffffffffffffffffffffffffffffffffffff1603611351576040517f08c379a00000000000000000000000000000000000000000000000000000000081526004016113489061403d565b60405180910390fd5b600360008373ffffffffffffffffffffffffffffffffffffffff1673ffffffffffffffffffffffffffffffffffffffff168152602001908152602001600020549050919050565b60006113a2611ab1565b905090565b606060006113c660086000858152602001908152602001600020611d0d565b67ffffffffffffffff8111156113df576113de612ea3565b5b60405190808252806020026020018201604052801561140d5781602001602082028036833780820191505090505b50905060005b61142e60086000868152602001908152602001600020611d0d565b8110156114ba5761145a8160086000878152602001908152602001600020611d2290919063ffffffff16565b82828151811061146d5761146c613db9565b5b602002602001019073ffffffffffffffffffffffffffffffffffffffff16908173ffffffffffffffffffffffffffffffffffffffff168152505080806114b290613b29565b915050611413565b5080915050919050565b6060600180546114d39061384b565b80601f01602080910402602001604051908101604052809291908181526020018280546114ff9061384b565b801561154c5780601f106115215761010080835404028352916020019161154c565b820191906000526020600020905b81548152906001019060200180831161152f57829003601f168201915b5050505050905090565b600a6020528060005260406000206000915054906101000a900460ff1681565b611588611581611ab1565b83836123e7565b5050565b61159d611597611ab1565b83611d56565b6115dc576040517f08c379a00000000000000000000000000000000000000000000000000000000081526004016115d390613be3565b60405180910390fd5b6115e884848484612553565b50505050565b60006020825114611634576040517f08c379a000000000000000000000000000000000000000000000000000000000815260040161162b90613a38565b60405180910390fd5b8251845114611678576040517f08c379a000000000000000000000000000000000000000000000000000000000815260040161166f906140cf565b60405180910390fd5b6116888660003088888888612051565b6000806020600036905061169c9190613a87565b90508035915060005b865181101561179d576116ee83338984815181106116c6576116c5613db9565b5b60200260200101518985815181106116e1576116e0613db9565b5b6020026020010151611b72565b3373ffffffffffffffffffffffffffffffffffffffff16838973ffffffffffffffffffffffffffffffffffffffff167fa18753b0660a8be2cdae03468c860b47c2926433ab16917f323544652803032d8a858151811061175157611750613db9565b5b60200260200101518a868151811061176c5761176b613db9565b5b6020026020010151604051611782929190613f36565b60405180910390a4808061179590613b29565b9150506116a5565b5063bc197c8160e01b9250505095945050505050565b60006117be82611210565b9050919050565b60606117d082611a66565b60006117da6125af565b905060008151116117fa5760405180602001604052806000815250611825565b80611804846125c6565b60405160200161181592919061412b565b6040516020818303038152906040525b915050919050565b6000600560008473ffffffffffffffffffffffffffffffffffffffff1673ffffffffffffffffffffffffffffffffffffffff16815260200190815260200160002060008373ffffffffffffffffffffffffffffffffffffffff1673ffffffffffffffffffffffffffffffffffffffff16815260200190815260200160002060009054906101000a900460ff16905092915050565b600660205282600052604060002060205281600052604060002060205280600052604060002060009250925050505481565b60006020825114611939576040517f08c379a000000000000000000000000000000000000000000000000000000000815260040161193090613a38565b60405180910390fd5b611959866000308861194a8961233e565b6119538961233e565b88612051565b6000806020600036905061196d9190613a87565b90508035915061197f82338888611b72565b3373ffffffffffffffffffffffffffffffffffffffff16828873ffffffffffffffffffffffffffffffffffffffff167fa18753b0660a8be2cdae03468c860b47c2926433ab16917f323544652803032d89896040516119df929190613f36565b60405180910390a463f23a6e6160e01b9250505095945050505050565b60007f01ffc9a7000000000000000000000000000000000000000000000000000000007bffffffffffffffffffffffffffffffffffffffffffffffffffffffff1916827bffffffffffffffffffffffffffffffffffffffffffffffffffffffff1916149050919050565b611a6f81612726565b611aae576040517f08c379a0000000000000000000000000000000000000000000000000000000008152600401611aa590613fab565b60405180910390fd5b50565b600033905090565b816004600083815260200190815260200160002060006101000a81548173ffffffffffffffffffffffffffffffffffffffff021916908373ffffffffffffffffffffffffffffffffffffffff160217905550808273ffffffffffffffffffffffffffffffffffffffff16611b2c83611210565b73ffffffffffffffffffffffffffffffffffffffff167f8c5be1e5ebec7d5bd14f71427d1e84f3dd0314c0f7b2291e5b200ac8c7c3b92560405160405180910390a45050565b611b97836008600087815260200190815260200160002061279290919063ffffffff16565b611bc257611bc083600860008781526020019081526020016000206127c290919063ffffffff16565b505b60006006600086815260200190815260200160002060008573ffffffffffffffffffffffffffffffffffffffff1673ffffffffffffffffffffffffffffffffffffffff16815260200190815260200160002060008481526020019081526020016000205403611c8f57611c8d826009600087815260200190815260200160002060008673ffffffffffffffffffffffffffffffffffffffff1673ffffffffffffffffffffffffffffffffffffffff1681526020019081526020016000206127f290919063ffffffff16565b505b806006600086815260200190815260200160002060008573ffffffffffffffffffffffffffffffffffffffff1673ffffffffffffffffffffffffffffffffffffffff16815260200190815260200160002060008481526020019081526020016000206000828254611d00919061414f565b9250508190555050505050565b6000611d1b8260000161280c565b9050919050565b6000611d31836000018361281d565b60001c905092915050565b6000611d4e836000018360001b612848565b905092915050565b600080611d6283611210565b90508073ffffffffffffffffffffffffffffffffffffffff168473ffffffffffffffffffffffffffffffffffffffff161480611da45750611da3818561182d565b5b80611de257508373ffffffffffffffffffffffffffffffffffffffff16611dca84610770565b73ffffffffffffffffffffffffffffffffffffffff16145b91505092915050565b8273ffffffffffffffffffffffffffffffffffffffff16611e0b82611210565b73ffffffffffffffffffffffffffffffffffffffff1614611e61576040517f08c379a0000000000000000000000000000000000000000000000000000000008152600401611e58906141f5565b60405180910390fd5b600073ffffffffffffffffffffffffffffffffffffffff168273ffffffffffffffffffffffffffffffffffffffff1603611ed0576040517f08c379a0000000000000000000000000000000000000000000000000000000008152600401611ec790614287565b60405180910390fd5b611edb83838361286b565b611ee6600082611ab9565b6001600360008573ffffffffffffffffffffffffffffffffffffffff1673ffffffffffffffffffffffffffffffffffffffff1681526020019081526020016000206000828254611f369190613a87565b925050819055506001600360008473ffffffffffffffffffffffffffffffffffffffff1673ffffffffffffffffffffffffffffffffffffffff1681526020019081526020016000206000828254611f8d919061414f565b92505081905550816002600083815260200190815260200160002060006101000a81548173ffffffffffffffffffffffffffffffffffffffff021916908373ffffffffffffffffffffffffffffffffffffffff160217905550808273ffffffffffffffffffffffffffffffffffffffff168473ffffffffffffffffffffffffffffffffffffffff167fddf252ad1be2c89b69c2b068fc378daa952ba7f163c4a11628f55a4df523b3ef60405160405180910390a461204c838383612870565b505050565b50505050505050565b6000811415806120cb5750806006600086815260200190815260200160002060008573ffffffffffffffffffffffffffffffffffffffff1673ffffffffffffffffffffffffffffffffffffffff16815260200190815260200160002060008481526020019081526020016000205410155b61210a576040517f08c379a000000000000000000000000000000000000000000000000000000000815260040161210190614319565b60405180910390fd5b806006600086815260200190815260200160002060008573ffffffffffffffffffffffffffffffffffffffff1673ffffffffffffffffffffffffffffffffffffffff1681526020019081526020016000206000848152602001908152602001600020600082825461217b9190613a87565b9250508190555060006006600086815260200190815260200160002060008573ffffffffffffffffffffffffffffffffffffffff1673ffffffffffffffffffffffffffffffffffffffff168152602001908152602001600020600084815260200190815260200160002054036123385761224d84600760008673ffffffffffffffffffffffffffffffffffffffff1673ffffffffffffffffffffffffffffffffffffffff168152602001908152602001600020600085815260200190815260200160002061287590919063ffffffff16565b506122b0826009600087815260200190815260200160002060008673ffffffffffffffffffffffffffffffffffffffff1673ffffffffffffffffffffffffffffffffffffffff16815260200190815260200160002061287590919063ffffffff16565b50600061230b6009600087815260200190815260200160002060008673ffffffffffffffffffffffffffffffffffffffff1673ffffffffffffffffffffffffffffffffffffffff1681526020019081526020016000206123b8565b0361233757612335836008600087815260200190815260200160002061288f90919063ffffffff16565b505b5b50505050565b60606000600167ffffffffffffffff81111561235d5761235c612ea3565b5b60405190808252806020026020018201604052801561238b5781602001602082028036833780820191505090505b50905082816000815181106123a3576123a2613db9565b5b60200260200101818152505080915050919050565b60006123c68260000161280c565b9050919050565b60006123dc836000018361281d565b60001c905092915050565b8173ffffffffffffffffffffffffffffffffffffffff168373ffffffffffffffffffffffffffffffffffffffff1603612455576040517f08c379a000000000000000000000000000000000000000000000000000000000815260040161244c90614385565b60405180910390fd5b80600560008573ffffffffffffffffffffffffffffffffffffffff1673ffffffffffffffffffffffffffffffffffffffff16815260200190815260200160002060008473ffffffffffffffffffffffffffffffffffffffff1673ffffffffffffffffffffffffffffffffffffffff16815260200190815260200160002060006101000a81548160ff0219169083151502179055508173ffffffffffffffffffffffffffffffffffffffff168373ffffffffffffffffffffffffffffffffffffffff167f17307eab39ab6107e8899845ad3d59bd9653f200f220920489ca2b5937696c31836040516125469190612ca1565b60405180910390a3505050565b61255e848484611deb565b61256a848484846128bf565b6125a9576040517f08c379a00000000000000000000000000000000000000000000000000000000081526004016125a090614417565b60405180910390fd5b50505050565b606060405180602001604052806000815250905090565b60606000820361260d576040518060400160405280600181526020017f30000000000000000000000000000000000000000000000000000000000000008152509050612721565b600082905060005b6000821461263f57808061262890613b29565b915050600a826126389190614466565b9150612615565b60008167ffffffffffffffff81111561265b5761265a612ea3565b5b6040519080825280601f01601f19166020018201604052801561268d5781602001600182028036833780820191505090505b5090505b6000851461271a576001826126a69190613a87565b9150600a856126b59190614497565b60306126c1919061414f565b60f81b8183815181106126d7576126d6613db9565b5b60200101907effffffffffffffffffffffffffffffffffffffffffffffffffffffffffffff1916908160001a905350600a856127139190614466565b9450612691565b8093505050505b919050565b60008073ffffffffffffffffffffffffffffffffffffffff166002600084815260200190815260200160002060009054906101000a900473ffffffffffffffffffffffffffffffffffffffff1673ffffffffffffffffffffffffffffffffffffffff1614159050919050565b60006127ba836000018373ffffffffffffffffffffffffffffffffffffffff1660001b612848565b905092915050565b60006127ea836000018373ffffffffffffffffffffffffffffffffffffffff1660001b612a46565b905092915050565b6000612804836000018360001b612a46565b905092915050565b600081600001805490509050919050565b600082600001828154811061283557612834613db9565b5b9060005260206000200154905092915050565b600080836001016000848152602001908152602001600020541415905092915050565b505050565b505050565b6000612887836000018360001b612ab6565b905092915050565b60006128b7836000018373ffffffffffffffffffffffffffffffffffffffff1660001b612ab6565b905092915050565b60006128e08473ffffffffffffffffffffffffffffffffffffffff16612bca565b15612a39578373ffffffffffffffffffffffffffffffffffffffff1663150b7a02612909611ab1565b8786866040518563ffffffff1660e01b815260040161292b94939291906144c8565b6020604051808303816000875af192505050801561296757506040513d601f19601f820116820180604052508101906129649190614529565b60015b6129e9573d8060008114612997576040519150601f19603f3d011682016040523d82523d6000602084013e61299c565b606091505b5060008151036129e1576040517f08c379a00000000000000000000000000000000000000000000000000000000081526004016129d890614417565b60405180910390fd5b805181602001fd5b63150b7a0260e01b7bffffffffffffffffffffffffffffffffffffffffffffffffffffffff1916817bffffffffffffffffffffffffffffffffffffffffffffffffffffffff191614915050612a3e565b600190505b949350505050565b6000612a528383612848565b612aab578260000182908060018154018082558091505060019003906000526020600020016000909190919091505582600001805490508360010160008481526020019081526020016000208190555060019050612ab0565b600090505b92915050565b60008083600101600084815260200190815260200160002054905060008114612bbe576000600182612ae89190613a87565b9050600060018660000180549050612b009190613a87565b9050818114612b6f576000866000018281548110612b2157612b20613db9565b5b9060005260206000200154905080876000018481548110612b4557612b44613db9565b5b90600052602060002001819055508387600101600083815260200190815260200160002081905550505b85600001805480612b8357612b82614556565b5b600190038181906000526020600020016000905590558560010160008681526020019081526020016000206000905560019350505050612bc4565b60009150505b92915050565b6000808273ffffffffffffffffffffffffffffffffffffffff163b119050919050565b6000604051905090565b600080fd5b600080fd5b60007fffffffff0000000000000000000000000000000000000000000000000000000082169050919050565b612c3681612c01565b8114612c4157600080fd5b50565b600081359050612c5381612c2d565b92915050565b600060208284031215612c6f57612c6e612bf7565b5b6000612c7d84828501612c44565b91505092915050565b60008115159050919050565b612c9b81612c86565b82525050565b6000602082019050612cb66000830184612c92565b92915050565b600081519050919050565b600082825260208201905092915050565b60005b83811015612cf6578082015181840152602081019050612cdb565b60008484015250505050565b6000601f19601f8301169050919050565b6000612d1e82612cbc565b612d288185612cc7565b9350612d38818560208601612cd8565b612d4181612d02565b840191505092915050565b60006020820190508181036000830152612d668184612d13565b905092915050565b6000819050919050565b612d8181612d6e565b8114612d8c57600080fd5b50565b600081359050612d9e81612d78565b92915050565b600060208284031215612dba57612db9612bf7565b5b6000612dc884828501612d8f565b91505092915050565b600073ffffffffffffffffffffffffffffffffffffffff82169050919050565b6000612dfc82612dd1565b9050919050565b612e0c81612df1565b82525050565b6000602082019050612e276000830184612e03565b92915050565b612e3681612df1565b8114612e4157600080fd5b50565b600081359050612e5381612e2d565b92915050565b60008060408385031215612e7057612e6f612bf7565b5b6000612e7e85828601612e44565b9250506020612e8f85828601612d8f565b9150509250929050565b600080fd5b600080fd5b7f4e487b7100000000000000000000000000000000000000000000000000000000600052604160045260246000fd5b612edb82612d02565b810181811067ffffffffffffffff82111715612efa57612ef9612ea3565b5b80604052505050565b6000612f0d612bed565b9050612f198282612ed2565b919050565b600067ffffffffffffffff821115612f3957612f38612ea3565b5b612f4282612d02565b9050602081019050919050565b82818337600083830152505050565b6000612f71612f6c84612f1e565b612f03565b905082815260208101848484011115612f8d57612f8c612e9e565b5b612f98848285612f4f565b509392505050565b600082601f830112612fb557612fb4612e99565b5b8135612fc5848260208601612f5e565b91505092915050565b60008060008060808587031215612fe857612fe7612bf7565b5b6000612ff687828801612e44565b945050602061300787828801612e44565b935050604061301887828801612d8f565b925050606085013567ffffffffffffffff81111561303957613038612bfc565b5b61304587828801612fa0565b91505092959194509250565b61305a81612c01565b82525050565b60006020820190506130756000830184613051565b92915050565b6000806040838503121561309257613091612bf7565b5b60006130a085828601612d8f565b92505060206130b185828601612d8f565b9150509250929050565b6000806000606084860312156130d4576130d3612bf7565b5b60006130e286828701612e44565b93505060206130f386828701612e44565b925050604061310486828701612d8f565b9150509250925092565b600067ffffffffffffffff82111561312957613128612ea3565b5b602082029050602081019050919050565b600080fd5b600061315261314d8461310e565b612f03565b905080838252602082019050602084028301858111156131755761317461313a565b5b835b8181101561319e578061318a8882612d8f565b845260208401935050602081019050613177565b5050509392505050565b600082601f8301126131bd576131bc612e99565b5b81356131cd84826020860161313f565b91505092915050565b60008060008060008060c087890312156131f3576131f2612bf7565b5b600061320189828a01612d8f565b965050602061321289828a01612e44565b955050604061322389828a01612e44565b945050606087013567ffffffffffffffff81111561324457613243612bfc565b5b61325089828a016131a8565b935050608087013567ffffffffffffffff81111561327157613270612bfc565b5b61327d89828a016131a8565b92505060a087013567ffffffffffffffff81111561329e5761329d612bfc565b5b6132aa89828a01612fa0565b9150509295509295509295565b60008060008060008060c087890312156132d4576132d3612bf7565b5b60006132e289828a01612d8f565b96505060206132f389828a01612e44565b955050604061330489828a01612e44565b945050606061331589828a01612d8f565b935050608061332689828a01612d8f565b92505060a087013567ffffffffffffffff81111561334757613346612bfc565b5b61335389828a01612fa0565b9150509295509295509295565b6000806040838503121561337757613376612bf7565b5b600061338585828601612d8f565b925050602061339685828601612e44565b9150509250929050565b600081519050919050565b600082825260208201905092915050565b6000819050602082019050919050565b6133d581612d6e565b82525050565b60006133e783836133cc565b60208301905092915050565b6000602082019050919050565b600061340b826133a0565b61341581856133ab565b9350613420836133bc565b8060005b8381101561345157815161343888826133db565b9750613443836133f3565b925050600181019050613424565b5085935050505092915050565b600060208201905081810360008301526134788184613400565b905092915050565b60008060006060848603121561349957613498612bf7565b5b60006134a786828701612d8f565b93505060206134b886828701612e44565b92505060406134c986828701612d8f565b9150509250925092565b6134dc81612d6e565b82525050565b60006020820190506134f760008301846134d3565b92915050565b60006020828403121561351357613512612bf7565b5b600061352184828501612e44565b91505092915050565b600081519050919050565b600082825260208201905092915050565b6000819050602082019050919050565b61355f81612df1565b82525050565b60006135718383613556565b60208301905092915050565b6000602082019050919050565b60006135958261352a565b61359f8185613535565b93506135aa83613546565b8060005b838110156135db5781516135c28882613565565b97506135cd8361357d565b9250506001810190506135ae565b5085935050505092915050565b60006020820190508181036000830152613602818461358a565b905092915050565b61361381612c86565b811461361e57600080fd5b50565b6000813590506136308161360a565b92915050565b6000806040838503121561364d5761364c612bf7565b5b600061365b85828601612e44565b925050602061366c85828601613621565b9150509250929050565b600080600080600060a0868803121561369257613691612bf7565b5b60006136a088828901612e44565b95505060206136b188828901612e44565b945050604086013567ffffffffffffffff8111156136d2576136d1612bfc565b5b6136de888289016131a8565b935050606086013567ffffffffffffffff8111156136ff576136fe612bfc565b5b61370b888289016131a8565b925050608086013567ffffffffffffffff81111561372c5761372b612bfc565b5b61373888828901612fa0565b9150509295509295909350565b6000806040838503121561375c5761375b612bf7565b5b600061376a85828601612e44565b925050602061377b85828601612e44565b9150509250929050565b600080600080600060a086880312156137a1576137a0612bf7565b5b60006137af88828901612e44565b95505060206137c088828901612e44565b94505060406137d188828901612d8f565b93505060606137e288828901612d8f565b925050608086013567ffffffffffffffff81111561380357613802612bfc565b5b61380f88828901612fa0565b9150509295509295909350565b7f4e487b7100000000000000000000000000000000000000000000000000000000600052602260045260246000fd5b6000600282049050600182168061386357607f821691505b6020821081036138765761387561381c565b5b50919050565b7f4552433732313a20617070726f76616c20746f2063757272656e74206f776e6560008201527f7200000000000000000000000000000000000000000000000000000000000000602082015250565b60006138d8602183612cc7565b91506138e38261387c565b604082019050919050565b60006020820190508181036000830152613907816138cb565b9050919050565b7f4552433732313a20617070726f76652063616c6c6572206973206e6f7420746f60008201527f6b656e206f776e6572206e6f7220617070726f76656420666f7220616c6c0000602082015250565b600061396a603e83612cc7565b91506139758261390e565b604082019050919050565b600060208201905081810360008301526139998161395d565b9050919050565b7f4552433939383a2064617461206d75737420636f6e7461696e2074686520756e60008201527f697175652075696e7432353620746f6b656e496420746f207472616e7366657260208201527f20746865206368696c6420746f6b656e20746f00000000000000000000000000604082015250565b6000613a22605383612cc7565b9150613a2d826139a0565b606082019050919050565b60006020820190508181036000830152613a5181613a15565b9050919050565b7f4e487b7100000000000000000000000000000000000000000000000000000000600052601160045260246000fd5b6000613a9282612d6e565b9150613a9d83612d6e565b9250828203905081811115613ab557613ab4613a58565b5b92915050565b6000819050919050565b6000819050919050565b6000613aea613ae5613ae084613abb565b613ac5565b612d6e565b9050919050565b613afa81613acf565b82525050565b6000604082019050613b1560008301856134d3565b613b226020830184613af1565b9392505050565b6000613b3482612d6e565b91507fffffffffffffffffffffffffffffffffffffffffffffffffffffffffffffffff8203613b6657613b65613a58565b5b600182019050919050565b7f4552433732313a2063616c6c6572206973206e6f7420746f6b656e206f776e6560008201527f72206e6f7220617070726f766564000000000000000000000000000000000000602082015250565b6000613bcd602e83612cc7565b9150613bd882613b71565b604082019050919050565b60006020820190508181036000830152613bfc81613bc0565b9050919050565b7f4552433939383a2069647320616e6420616d6f756e7473206c656e677468206d60008201527f69736d6174636800000000000000000000000000000000000000000000000000602082015250565b6000613c5f602783612cc7565b9150613c6a82613c03565b604082019050919050565b60006020820190508181036000830152613c8e81613c52565b9050919050565b7f4552433939383a207472616e7366657220746f20746865207a65726f2061646460008201527f7265737300000000000000000000000000000000000000000000000000000000602082015250565b6000613cf1602483612cc7565b9150613cfc82613c95565b604082019050919050565b60006020820190508181036000830152613d2081613ce4565b9050919050565b7f4552433939383a2063616c6c6572206973206e6f74206f776e6572206e6f722060008201527f617070726f766564000000000000000000000000000000000000000000000000602082015250565b6000613d83602883612cc7565b9150613d8e82613d27565b604082019050919050565b60006020820190508181036000830152613db281613d76565b9050919050565b7f4e487b7100000000000000000000000000000000000000000000000000000000600052603260045260246000fd5b600081519050919050565b600082825260208201905092915050565b6000613e0f82613de8565b613e198185613df3565b9350613e29818560208601612cd8565b613e3281612d02565b840191505092915050565b600060a082019050613e526000830188612e03565b613e5f6020830187612e03565b8181036040830152613e718186613400565b90508181036060830152613e858185613400565b90508181036080830152613e998184613e04565b90509695505050505050565b60006040820190508181036000830152613ebf8185613400565b90508181036020830152613ed38184613400565b90509392505050565b600060a082019050613ef16000830188612e03565b613efe6020830187612e03565b613f0b60408301866134d3565b613f1860608301856134d3565b8181036080830152613f2a8184613e04565b90509695505050505050565b6000604082019050613f4b60008301856134d3565b613f5860208301846134d3565b9392505050565b7f4552433732313a20696e76616c696420746f6b656e2049440000000000000000600082015250565b6000613f95601883612cc7565b9150613fa082613f5f565b602082019050919050565b60006020820190508181036000830152613fc481613f88565b9050919050565b7f4552433732313a2061646472657373207a65726f206973206e6f74206120766160008201527f6c6964206f776e65720000000000000000000000000000000000000000000000602082015250565b6000614027602983612cc7565b915061403282613fcb565b604082019050919050565b600060208201905081810360008301526140568161401a565b9050919050565b7f455243313135353a2069647320616e642076616c756573206c656e677468206d60008201527f69736d6174636800000000000000000000000000000000000000000000000000602082015250565b60006140b9602783612cc7565b91506140c48261405d565b604082019050919050565b600060208201905081810360008301526140e8816140ac565b9050919050565b600081905092915050565b600061410582612cbc565b61410f81856140ef565b935061411f818560208601612cd8565b80840191505092915050565b600061413782856140fa565b915061414382846140fa565b91508190509392505050565b600061415a82612d6e565b915061416583612d6e565b925082820190508082111561417d5761417c613a58565b5b92915050565b7f4552433732313a207472616e736665722066726f6d20696e636f72726563742060008201527f6f776e6572000000000000000000000000000000000000000000000000000000602082015250565b60006141df602583612cc7565b91506141ea82614183565b604082019050919050565b6000602082019050818103600083015261420e816141d2565b9050919050565b7f4552433732313a207472616e7366657220746f20746865207a65726f2061646460008201527f7265737300000000000000000000000000000000000000000000000000000000602082015250565b6000614271602483612cc7565b915061427c82614215565b604082019050919050565b600060208201905081810360008301526142a081614264565b9050919050565b7f4552433939383a20696e73756666696369656e74206368696c642062616c616e60008201527f636520666f72207472616e736665720000000000000000000000000000000000602082015250565b6000614303602f83612cc7565b915061430e826142a7565b604082019050919050565b60006020820190508181036000830152614332816142f6565b9050919050565b7f4552433732313a20617070726f766520746f2063616c6c657200000000000000600082015250565b600061436f601983612cc7565b915061437a82614339565b602082019050919050565b6000602082019050818103600083015261439e81614362565b9050919050565b7f4552433732313a207472616e7366657220746f206e6f6e20455243373231526560008201527f63656976657220696d706c656d656e7465720000000000000000000000000000602082015250565b6000614401603283612cc7565b915061440c826143a5565b604082019050919050565b60006020820190508181036000830152614430816143f4565b9050919050565b7f4e487b7100000000000000000000000000000000000000000000000000000000600052601260045260246000fd5b600061447182612d6e565b915061447c83612d6e565b92508261448c5761448b614437565b5b828204905092915050565b60006144a282612d6e565b91506144ad83612d6e565b9250826144bd576144bc614437565b5b828206905092915050565b60006080820190506144dd6000830187612e03565b6144ea6020830186612e03565b6144f760408301856134d3565b81810360608301526145098184613e04565b905095945050505050565b60008151905061452381612c2d565b92915050565b60006020828403121561453f5761453e612bf7565b5b600061454d84828501614514565b91505092915050565b7f4e487b7100000000000000000000000000000000000000000000000000000000600052603160045260246000fdfea2646970667358221220fed8d057de4a8f0800053b99602d6d04eccbb6dd518d2a4276cdade9105d272864736f6c63430008110033",
  "immutableReferences": {},
  "source": "// SPDX-License-Identifier: UNLICENSED\n\npragma solidity ^0.8.0;\n\n/*\n// for remix\nimport \"https://github.com/OpenZeppelin/openzeppelin-contracts/blob/master/contracts/token/ERC1155/ERC1155.sol\";\nimport \"https://github.com/OpenZeppelin/openzeppelin-contracts/blob/master/contracts/token/ERC1155/ERC1155Receiver.sol\";\nimport \"https://github.com/OpenZeppelin/openzeppelin-contracts/blob/master/contracts/token/ERC721/ERC721.sol\";\nimport \"https://github.com/OpenZeppelin/openzeppelin-contracts/blob/master/contracts/utils/EnumerableSet.sol\";\n*/\n\nimport \"@openzeppelin/contracts/token/ERC1155/ERC1155.sol\";\nimport \"@openzeppelin/contracts/token/ERC1155/IERC1155Receiver.sol\";\nimport \"@openzeppelin/contracts/token/ERC721/ERC721.sol\";\nimport \"@openzeppelin/contracts/token/ERC721/IERC721Receiver.sol\";\nimport \"@openzeppelin/contracts/utils/structs/EnumerableSet.sol\";\n\nimport \"./IERC998ERC1155TopDown.sol\";\n\ncontract ERC998ERC1155TopDown is ERC721, IERC1155Receiver, IERC998ERC1155TopDown, IERC721Receiver {\n    using EnumerableSet for EnumerableSet.AddressSet;\n    using EnumerableSet for EnumerableSet.UintSet;\n\n    mapping(uint256 => mapping(address => mapping(uint256 => uint256))) public _balances;\n    mapping(address => mapping(uint256 => EnumerableSet.UintSet)) private _holdersOf;\n\n    mapping(uint256 => EnumerableSet.AddressSet) private _childContract;\n    mapping(uint256 => mapping(address => EnumerableSet.UintSet)) private _childsForChildContract;\n\n    mapping(uint256 => bool) public isERC721;\n    mapping(uint256 => bool) public isERC1155;\n\n    constructor(string memory name, string memory symbol, string memory baseURI) ERC721(name, symbol) public {\n        _baseURI();\n    }\n\n    /**\n     * @dev Gives child balance for a specific child contract and child id .\n     */\n    function childBalance(uint256 tokenId, address childContract, uint256 childTokenId) external view override returns(uint256) {\n        return _balances[tokenId][childContract][childTokenId];\n    }\n\n    /**\n     * @dev Gives list of child contract where token ID has childs.\n     */\n    function childContractsFor(uint256 tokenId) override external view returns (address[] memory) {\n        address[] memory childContracts = new address[](_childContract[tokenId].length());\n\n        for(uint256 i = 0; i < _childContract[tokenId].length(); i++) {\n            childContracts[i] = _childContract[tokenId].at(i);\n        }\n\n        return childContracts;\n    }\n\n    /**\n     * @dev Gives list of owned child ID on a child contract by parent token ID and child contract.\n     */\n    function childIdsOwned(uint256 tokenId, address childContract) override external view returns (uint256[] memory) {\n        uint256[] memory childTokenIds = new uint256[](_childsForChildContract[tokenId][childContract].length());\n\n        for(uint256 i = 0; i < _childsForChildContract[tokenId][childContract].length(); i++) {\n            childTokenIds[i] = _childsForChildContract[tokenId][childContract].at(i);\n        }\n\n        return childTokenIds;\n    }\n\n    /**\n     * @dev Transfers child token from a token ID.\n     */\n    function safeTransferChildFrom(uint256 fromTokenId, address to, address childContract, uint256 childTokenId, uint256 amount, bytes memory data) public override {\n        require(to != address(0), \"ERC998: transfer to the zero address\");\n\n        address operator = _msgSender();\n        require(\n            ownerOf(fromTokenId) == operator ||\n            isApprovedForAll(ownerOf(fromTokenId), operator),\n            \"ERC998: caller is not owner nor approved\"\n        );\n\n        _beforeChildTransfer(operator, fromTokenId, to, childContract, _asSingletonArray(childTokenId), _asSingletonArray(amount), data);\n\n        _removeChild(fromTokenId, childContract, childTokenId, amount);\n\n        // TODO: maybe check if to == this\n        ERC1155(childContract).safeTransferFrom(address(this), to, childTokenId, amount, data);\n        emit TransferSingleChild(fromTokenId, to, childContract, childTokenId, amount);\n    }\n\n    /**\n     * @dev Returns the owner of the token specified by tokenId. Wrapper function for ERC721 function ownerOf(). \n    */\n    function getOwner(uint256 tokenID) external view returns(address){\n        return ownerOf(tokenID);\n    }\n\n    \n\n    /**\n     * @dev Returns the contract address of the child token ID, given a parent and child token ID.\n     */\n    function getChildContract(uint256 tokenID, uint256 childTokenID) external view returns(address){\n\n        for(uint256 i = 0; i < _childContract[tokenID].length(); i++) {\n            if (_childsForChildContract[tokenID][_childContract[tokenID].at(i)].contains(childTokenID)){\n                return _childContract[tokenID].at(i);\n            }\n        }\n\n        return address(0);\n    }\n\n    /**\n     * @dev Wrapper function to get message sender.\n     */\n    function getMsgSender() external view returns(address){\n        return _msgSender();\n    }\n\n\n\n    /**\n     * @dev Transfers batch of child tokens from a token ID.\n     */\n    function safeBatchTransferChildFrom(uint256 fromTokenId, address to, address childContract, uint256[] memory childTokenIds, uint256[] memory amounts, bytes memory data) public override {\n        require(childTokenIds.length == amounts.length, \"ERC998: ids and amounts length mismatch\");\n        require(to != address(0), \"ERC998: transfer to the zero address\");\n\n        address operator = _msgSender();\n        require(\n            ownerOf(fromTokenId) == operator ||\n            isApprovedForAll(ownerOf(fromTokenId), operator),\n            \"ERC998: caller is not owner nor approved\"\n        );\n\n        _beforeChildTransfer(operator, fromTokenId, to, childContract, childTokenIds, amounts, data);\n\n        for (uint256 i = 0; i < childTokenIds.length; ++i) {\n            uint256 childTokenId = childTokenIds[i];\n            uint256 amount = amounts[i];\n\n            _removeChild(fromTokenId, childContract, childTokenId, amount);\n        }\n        ERC1155(childContract).safeBatchTransferFrom(address(this), to, childTokenIds, amounts, data);\n        emit TransferBatchChild(fromTokenId, to, childContract, childTokenIds, amounts);\n    }\n\n    /**\n     * @dev Receives a child token, the receiver token ID must be encoded in the\n     * field data.\n     */\n    function onERC1155Received(address operator, address from, uint256 id, uint256 amount, bytes memory data) virtual public override returns(bytes4) {\n        require(data.length == 32, \"ERC998: data must contain the unique uint256 tokenId to transfer the child token to\");\n        _beforeChildTransfer(operator, 0, address(this), from, _asSingletonArray(id), _asSingletonArray(amount), data);\n\n        uint256 _receiverTokenId;\n        uint256 _index = msg.data.length - 32;\n        assembly {_receiverTokenId := calldataload(_index)}\n\n        _receiveChild(_receiverTokenId, msg.sender, id, amount);\n        emit ReceivedChild(from, _receiverTokenId, msg.sender, id, amount);\n\n        return this.onERC1155Received.selector;\n    }\n\n    /**\n     * @dev Receives a child token, the receiver token ID must be encoded in the\n     * field data.\n     */\n    function onERC721Received(address operator, address from, uint256 tokenId, bytes memory data) virtual public override returns(bytes4) {\n        require(data.length == 32, \"ERC998: data must contain the unique uint256 tokenId to transfer the child token to\");\n\n        uint256 _receiverTokenId;\n        uint256 _index = msg.data.length - 32;\n        assembly {_receiverTokenId := calldataload(_index)}\n\n        _receiveChild(_receiverTokenId, msg.sender, tokenId, 1);\n        emit ReceivedChild(from, _receiverTokenId, msg.sender, tokenId, 1);\n\n        return this.onERC721Received.selector;\n    }\n\n    /**\n     * @dev Receives a batch of child tokens, the receiver token ID must be\n     * encoded in the field data.\n     */\n    function onERC1155BatchReceived(address operator, address from, uint256[] memory ids, uint256[] memory values, bytes memory data) virtual public override returns(bytes4) {\n        require(data.length == 32, \"ERC998: data must contain the unique uint256 tokenId to transfer the child token to\");\n        require(ids.length == values.length, \"ERC1155: ids and values length mismatch\");\n        _beforeChildTransfer(operator, 0, address(this), from, ids, values, data);\n\n        uint256 _receiverTokenId;\n        uint256 _index = msg.data.length - 32;\n        assembly {_receiverTokenId := calldataload(_index)}\n        for(uint256 i = 0; i < ids.length; i++) {\n            _receiveChild(_receiverTokenId, msg.sender, ids[i], values[i]);\n            emit ReceivedChild(from, _receiverTokenId, msg.sender, ids[i], values[i]);\n        }\n        return this.onERC1155BatchReceived.selector;\n    }\n\n    function _receiveChild(uint256 tokenId, address childContract, uint256 childTokenId, uint256 amount) internal virtual {\n        if(!_childContract[tokenId].contains(childContract)) {\n            _childContract[tokenId].add(childContract);\n        }\n        if(_balances[tokenId][childContract][childTokenId] == 0) {\n            _childsForChildContract[tokenId][childContract].add(childTokenId);\n        }\n        _balances[tokenId][childContract][childTokenId] += amount;\n    }\n\n    function _removeChild(uint256 tokenId, address childContract, uint256 childTokenId, uint256 amount) internal virtual {\n        require(amount != 0 || _balances[tokenId][childContract][childTokenId] >= amount, \"ERC998: insufficient child balance for transfer\");\n        _balances[tokenId][childContract][childTokenId] -= amount;\n        if(_balances[tokenId][childContract][childTokenId] == 0) {\n            _holdersOf[childContract][childTokenId].remove(tokenId);\n            _childsForChildContract[tokenId][childContract].remove(childTokenId);\n            if(_childsForChildContract[tokenId][childContract].length() == 0) {\n                _childContract[tokenId].remove(childContract);\n            }\n        }\n    }\n\n    function _beforeChildTransfer(\n        address operator,\n        uint256 fromTokenId,\n        address to,\n        address childContract,\n        uint256[] memory ids,\n        uint256[] memory amounts,\n        bytes memory data\n    )\n        internal virtual\n    { }\n\n    function _asSingletonArray(uint256 element) private pure returns (uint256[] memory) {\n        uint256[] memory array = new uint256[](1);\n        array[0] = element;\n\n        return array;\n    }\n}\n",
  "sourcePath": "/Users/moose/Documents/Projects/composo/supp_chain/truffle/contracts/ERC998ERC1155TopDown.sol",
  "compiler": {
    "name": "solc",
    "version": "0.8.17+commit.8df45f5f.Emscripten.clang"
  },
  "schemaVersion": "3.4.7",
  "updatedAt": "2022-10-31T12:49:19.033Z",
  "networkType": "ethereum",
  "devdoc": {
    "kind": "dev",
    "methods": {
      "approve(address,uint256)": {
        "details": "See {IERC721-approve}."
      },
      "balanceOf(address)": {
        "details": "See {IERC721-balanceOf}."
      },
      "childBalance(uint256,address,uint256)": {
        "details": "Gives child balance for a specific child contract and child id ."
      },
      "childContractsFor(uint256)": {
        "details": "Gives list of child contract where token ID has childs."
      },
      "childIdsOwned(uint256,address)": {
        "details": "Gives list of owned child ID on a child contract by parent token ID and child contract."
      },
      "getApproved(uint256)": {
        "details": "See {IERC721-getApproved}."
      },
      "getChildContract(uint256,uint256)": {
        "details": "Returns the contract address of the child token ID, given a parent and child token ID."
      },
      "getMsgSender()": {
        "details": "Wrapper function to get message sender."
      },
      "getOwner(uint256)": {
        "details": "Returns the owner of the token specified by tokenId. Wrapper function for ERC721 function ownerOf(). "
      },
      "isApprovedForAll(address,address)": {
        "details": "See {IERC721-isApprovedForAll}."
      },
      "name()": {
        "details": "See {IERC721Metadata-name}."
      },
      "onERC1155BatchReceived(address,address,uint256[],uint256[],bytes)": {
        "details": "Receives a batch of child tokens, the receiver token ID must be encoded in the field data."
      },
      "onERC1155Received(address,address,uint256,uint256,bytes)": {
        "details": "Receives a child token, the receiver token ID must be encoded in the field data."
      },
      "onERC721Received(address,address,uint256,bytes)": {
        "details": "Receives a child token, the receiver token ID must be encoded in the field data."
      },
      "ownerOf(uint256)": {
        "details": "See {IERC721-ownerOf}."
      },
      "safeBatchTransferChildFrom(uint256,address,address,uint256[],uint256[],bytes)": {
        "details": "Transfers batch of child tokens from a token ID."
      },
      "safeTransferChildFrom(uint256,address,address,uint256,uint256,bytes)": {
        "details": "Transfers child token from a token ID."
      },
      "safeTransferFrom(address,address,uint256)": {
        "details": "See {IERC721-safeTransferFrom}."
      },
      "safeTransferFrom(address,address,uint256,bytes)": {
        "details": "See {IERC721-safeTransferFrom}."
      },
      "setApprovalForAll(address,bool)": {
        "details": "See {IERC721-setApprovalForAll}."
      },
      "supportsInterface(bytes4)": {
        "details": "See {IERC165-supportsInterface}."
      },
      "symbol()": {
        "details": "See {IERC721Metadata-symbol}."
      },
      "tokenURI(uint256)": {
        "details": "See {IERC721Metadata-tokenURI}."
      },
      "transferFrom(address,address,uint256)": {
        "details": "See {IERC721-transferFrom}."
      }
    },
    "version": 1
  },
  "userdoc": {
    "kind": "user",
    "methods": {},
    "version": 1
  }
}