{
  "contractName": "ERC998ERC1155TopDownPresetMinterPauser",
  "abi": [
    {
      "inputs": [
        {
          "internalType": "string",
          "name": "name",
          "type": "string"
        },
        {
          "internalType": "string",
          "name": "symbol",
          "type": "string"
        },
        {
          "internalType": "string",
          "name": "baseURI",
          "type": "string"
        }
      ],
      "stateMutability": "nonpayable",
      "type": "constructor"
    },
    {
      "anonymous": false,
      "inputs": [
        {
          "indexed": true,
          "internalType": "address",
          "name": "owner",
          "type": "address"
        },
        {
          "indexed": true,
          "internalType": "address",
          "name": "approved",
          "type": "address"
        },
        {
          "indexed": true,
          "internalType": "uint256",
          "name": "tokenId",
          "type": "uint256"
        }
      ],
      "name": "Approval",
      "type": "event"
    },
    {
      "anonymous": false,
      "inputs": [
        {
          "indexed": true,
          "internalType": "address",
          "name": "owner",
          "type": "address"
        },
        {
          "indexed": true,
          "internalType": "address",
          "name": "operator",
          "type": "address"
        },
        {
          "indexed": false,
          "internalType": "bool",
          "name": "approved",
          "type": "bool"
        }
      ],
      "name": "ApprovalForAll",
      "type": "event"
    },
    {
      "anonymous": false,
      "inputs": [
        {
          "indexed": false,
          "internalType": "address",
          "name": "account",
          "type": "address"
        }
      ],
      "name": "Paused",
      "type": "event"
    },
    {
      "anonymous": false,
      "inputs": [
        {
          "indexed": true,
          "internalType": "address",
          "name": "from",
          "type": "address"
        },
        {
          "indexed": true,
          "internalType": "uint256",
          "name": "toTokenId",
          "type": "uint256"
        },
        {
          "indexed": true,
          "internalType": "address",
          "name": "childContract",
          "type": "address"
        },
        {
          "indexed": false,
          "internalType": "uint256",
          "name": "childTokenId",
          "type": "uint256"
        },
        {
          "indexed": false,
          "internalType": "uint256",
          "name": "amount",
          "type": "uint256"
        }
      ],
      "name": "ReceivedChild",
      "type": "event"
    },
    {
      "anonymous": false,
      "inputs": [
        {
          "indexed": true,
          "internalType": "bytes32",
          "name": "role",
          "type": "bytes32"
        },
        {
          "indexed": true,
          "internalType": "bytes32",
          "name": "previousAdminRole",
          "type": "bytes32"
        },
        {
          "indexed": true,
          "internalType": "bytes32",
          "name": "newAdminRole",
          "type": "bytes32"
        }
      ],
      "name": "RoleAdminChanged",
      "type": "event"
    },
    {
      "anonymous": false,
      "inputs": [
        {
          "indexed": true,
          "internalType": "bytes32",
          "name": "role",
          "type": "bytes32"
        },
        {
          "indexed": true,
          "internalType": "address",
          "name": "account",
          "type": "address"
        },
        {
          "indexed": true,
          "internalType": "address",
          "name": "sender",
          "type": "address"
        }
      ],
      "name": "RoleGranted",
      "type": "event"
    },
    {
      "anonymous": false,
      "inputs": [
        {
          "indexed": true,
          "internalType": "bytes32",
          "name": "role",
          "type": "bytes32"
        },
        {
          "indexed": true,
          "internalType": "address",
          "name": "account",
          "type": "address"
        },
        {
          "indexed": true,
          "internalType": "address",
          "name": "sender",
          "type": "address"
        }
      ],
      "name": "RoleRevoked",
      "type": "event"
    },
    {
      "anonymous": false,
      "inputs": [
        {
          "indexed": true,
          "internalType": "address",
          "name": "from",
          "type": "address"
        },
        {
          "indexed": true,
          "internalType": "address",
          "name": "to",
          "type": "address"
        },
        {
          "indexed": true,
          "internalType": "uint256",
          "name": "tokenId",
          "type": "uint256"
        }
      ],
      "name": "Transfer",
      "type": "event"
    },
    {
      "anonymous": false,
      "inputs": [
        {
          "indexed": true,
          "internalType": "uint256",
          "name": "fromTokenId",
          "type": "uint256"
        },
        {
          "indexed": true,
          "internalType": "address",
          "name": "to",
          "type": "address"
        },
        {
          "indexed": true,
          "internalType": "address",
          "name": "childContract",
          "type": "address"
        },
        {
          "indexed": false,
          "internalType": "uint256[]",
          "name": "childTokenIds",
          "type": "uint256[]"
        },
        {
          "indexed": false,
          "internalType": "uint256[]",
          "name": "amounts",
          "type": "uint256[]"
        }
      ],
      "name": "TransferBatchChild",
      "type": "event"
    },
    {
      "anonymous": false,
      "inputs": [
        {
          "indexed": true,
          "internalType": "uint256",
          "name": "fromTokenId",
          "type": "uint256"
        },
        {
          "indexed": true,
          "internalType": "address",
          "name": "to",
          "type": "address"
        },
        {
          "indexed": true,
          "internalType": "address",
          "name": "childContract",
          "type": "address"
        },
        {
          "indexed": false,
          "internalType": "uint256",
          "name": "childTokenId",
          "type": "uint256"
        },
        {
          "indexed": false,
          "internalType": "uint256",
          "name": "amount",
          "type": "uint256"
        }
      ],
      "name": "TransferSingleChild",
      "type": "event"
    },
    {
      "anonymous": false,
      "inputs": [
        {
          "indexed": false,
          "internalType": "address",
          "name": "account",
          "type": "address"
        }
      ],
      "name": "Unpaused",
      "type": "event"
    },
    {
      "inputs": [],
      "name": "DEFAULT_ADMIN_ROLE",
      "outputs": [
        {
          "internalType": "bytes32",
          "name": "",
          "type": "bytes32"
        }
      ],
      "stateMutability": "view",
      "type": "function"
    },
    {
      "inputs": [],
      "name": "MINTER_ROLE",
      "outputs": [
        {
          "internalType": "bytes32",
          "name": "",
          "type": "bytes32"
        }
      ],
      "stateMutability": "view",
      "type": "function"
    },
    {
      "inputs": [],
      "name": "PAUSER_ROLE",
      "outputs": [
        {
          "internalType": "bytes32",
          "name": "",
          "type": "bytes32"
        }
      ],
      "stateMutability": "view",
      "type": "function"
    },
    {
      "inputs": [
        {
          "internalType": "uint256",
          "name": "",
          "type": "uint256"
        },
        {
          "internalType": "address",
          "name": "",
          "type": "address"
        },
        {
          "internalType": "uint256",
          "name": "",
          "type": "uint256"
        }
      ],
      "name": "_balances",
      "outputs": [
        {
          "internalType": "uint256",
          "name": "",
          "type": "uint256"
        }
      ],
      "stateMutability": "view",
      "type": "function"
    },
    {
      "inputs": [
        {
          "internalType": "address",
          "name": "to",
          "type": "address"
        },
        {
          "internalType": "uint256",
          "name": "tokenId",
          "type": "uint256"
        }
      ],
      "name": "approve",
      "outputs": [],
      "stateMutability": "nonpayable",
      "type": "function"
    },
    {
      "inputs": [
        {
          "internalType": "address",
          "name": "owner",
          "type": "address"
        }
      ],
      "name": "balanceOf",
      "outputs": [
        {
          "internalType": "uint256",
          "name": "",
          "type": "uint256"
        }
      ],
      "stateMutability": "view",
      "type": "function"
    },
    {
      "inputs": [
        {
          "internalType": "uint256",
          "name": "tokenId",
          "type": "uint256"
        },
        {
          "internalType": "address",
          "name": "childContract",
          "type": "address"
        },
        {
          "internalType": "uint256",
          "name": "childTokenId",
          "type": "uint256"
        }
      ],
      "name": "childBalance",
      "outputs": [
        {
          "internalType": "uint256",
          "name": "",
          "type": "uint256"
        }
      ],
      "stateMutability": "view",
      "type": "function"
    },
    {
      "inputs": [
        {
          "internalType": "uint256",
          "name": "tokenId",
          "type": "uint256"
        }
      ],
      "name": "childContractsFor",
      "outputs": [
        {
          "internalType": "address[]",
          "name": "",
          "type": "address[]"
        }
      ],
      "stateMutability": "view",
      "type": "function"
    },
    {
      "inputs": [
        {
          "internalType": "uint256",
          "name": "tokenId",
          "type": "uint256"
        },
        {
          "internalType": "address",
          "name": "childContract",
          "type": "address"
        }
      ],
      "name": "childIdsOwned",
      "outputs": [
        {
          "internalType": "uint256[]",
          "name": "",
          "type": "uint256[]"
        }
      ],
      "stateMutability": "view",
      "type": "function"
    },
    {
      "inputs": [
        {
          "internalType": "uint256",
          "name": "tokenId",
          "type": "uint256"
        }
      ],
      "name": "getApproved",
      "outputs": [
        {
          "internalType": "address",
          "name": "",
          "type": "address"
        }
      ],
      "stateMutability": "view",
      "type": "function"
    },
    {
      "inputs": [
        {
          "internalType": "uint256",
          "name": "tokenID",
          "type": "uint256"
        },
        {
          "internalType": "uint256",
          "name": "childTokenID",
          "type": "uint256"
        }
      ],
      "name": "getChildContract",
      "outputs": [
        {
          "internalType": "address",
          "name": "",
          "type": "address"
        }
      ],
      "stateMutability": "view",
      "type": "function"
    },
    {
      "inputs": [
        {
          "internalType": "uint256",
          "name": "tokenID",
          "type": "uint256"
        }
      ],
      "name": "getIsERC1155",
      "outputs": [
        {
          "internalType": "bool",
          "name": "",
          "type": "bool"
        }
      ],
      "stateMutability": "view",
      "type": "function"
    },
    {
      "inputs": [],
      "name": "getMsgSender",
      "outputs": [
        {
          "internalType": "address",
          "name": "",
          "type": "address"
        }
      ],
      "stateMutability": "view",
      "type": "function"
    },
    {
      "inputs": [
        {
          "internalType": "uint256",
          "name": "tokenID",
          "type": "uint256"
        }
      ],
      "name": "getOwner",
      "outputs": [
        {
          "internalType": "address",
          "name": "",
          "type": "address"
        }
      ],
      "stateMutability": "view",
      "type": "function"
    },
    {
      "inputs": [
        {
          "internalType": "bytes32",
          "name": "role",
          "type": "bytes32"
        }
      ],
      "name": "getRoleAdmin",
      "outputs": [
        {
          "internalType": "bytes32",
          "name": "",
          "type": "bytes32"
        }
      ],
      "stateMutability": "view",
      "type": "function"
    },
    {
      "inputs": [],
      "name": "getRootOwners",
      "outputs": [
        {
          "internalType": "uint256[]",
          "name": "",
          "type": "uint256[]"
        }
      ],
      "stateMutability": "view",
      "type": "function"
    },
    {
      "inputs": [
        {
          "internalType": "uint256",
          "name": "tokenId",
          "type": "uint256"
        }
      ],
      "name": "getTokenURI",
      "outputs": [
        {
          "internalType": "string",
          "name": "",
          "type": "string"
        }
      ],
      "stateMutability": "view",
      "type": "function"
    },
    {
      "inputs": [],
      "name": "getRootOwners",
      "outputs": [
        {
          "internalType": "uint256[]",
          "name": "",
          "type": "uint256[]"
        }
      ],
      "stateMutability": "view",
      "type": "function",
      "constant": true
    },
    {
      "inputs": [
        {
          "internalType": "bytes32",
          "name": "role",
          "type": "bytes32"
        },
        {
          "internalType": "address",
          "name": "account",
          "type": "address"
        }
      ],
      "name": "grantRole",
      "outputs": [],
      "stateMutability": "nonpayable",
      "type": "function"
    },
    {
      "inputs": [
        {
          "internalType": "bytes32",
          "name": "role",
          "type": "bytes32"
        },
        {
          "internalType": "address",
          "name": "account",
          "type": "address"
        }
      ],
      "name": "hasRole",
      "outputs": [
        {
          "internalType": "bool",
          "name": "",
          "type": "bool"
        }
      ],
      "stateMutability": "view",
      "type": "function"
    },
    {
      "inputs": [
        {
          "internalType": "address",
          "name": "owner",
          "type": "address"
        },
        {
          "internalType": "address",
          "name": "operator",
          "type": "address"
        }
      ],
      "name": "isApprovedForAll",
      "outputs": [
        {
          "internalType": "bool",
          "name": "",
          "type": "bool"
        }
      ],
      "stateMutability": "view",
      "type": "function"
    },
    {
      "inputs": [
        {
          "internalType": "uint256",
          "name": "",
          "type": "uint256"
        }
      ],
      "name": "isERC1155",
      "outputs": [
        {
          "internalType": "bool",
          "name": "",
          "type": "bool"
        }
      ],
      "stateMutability": "view",
      "type": "function"
    },
    {
      "inputs": [
        {
          "internalType": "uint256",
          "name": "",
          "type": "uint256"
        }
      ],
      "name": "isERC721",
      "outputs": [
        {
          "internalType": "bool",
          "name": "",
          "type": "bool"
        }
      ],
      "stateMutability": "view",
      "type": "function"
    },
    {
      "inputs": [],
      "name": "name",
      "outputs": [
        {
          "internalType": "string",
          "name": "",
          "type": "string"
        }
      ],
      "stateMutability": "view",
      "type": "function"
    },
    {
      "inputs": [
        {
          "internalType": "address",
          "name": "operator",
          "type": "address"
        },
        {
          "internalType": "address",
          "name": "from",
          "type": "address"
        },
        {
          "internalType": "uint256[]",
          "name": "ids",
          "type": "uint256[]"
        },
        {
          "internalType": "uint256[]",
          "name": "values",
          "type": "uint256[]"
        },
        {
          "internalType": "bytes",
          "name": "data",
          "type": "bytes"
        }
      ],
      "name": "onERC1155BatchReceived",
      "outputs": [
        {
          "internalType": "bytes4",
          "name": "",
          "type": "bytes4"
        }
      ],
      "stateMutability": "nonpayable",
      "type": "function"
    },
    {
      "inputs": [
        {
          "internalType": "address",
          "name": "operator",
          "type": "address"
        },
        {
          "internalType": "address",
          "name": "from",
          "type": "address"
        },
        {
          "internalType": "uint256",
          "name": "id",
          "type": "uint256"
        },
        {
          "internalType": "uint256",
          "name": "amount",
          "type": "uint256"
        },
        {
          "internalType": "bytes",
          "name": "data",
          "type": "bytes"
        }
      ],
      "name": "onERC1155Received",
      "outputs": [
        {
          "internalType": "bytes4",
          "name": "",
          "type": "bytes4"
        }
      ],
      "stateMutability": "nonpayable",
      "type": "function"
    },
    {
      "inputs": [
        {
          "internalType": "address",
          "name": "operator",
          "type": "address"
        },
        {
          "internalType": "address",
          "name": "from",
          "type": "address"
        },
        {
          "internalType": "uint256",
          "name": "tokenId",
          "type": "uint256"
        },
        {
          "internalType": "bytes",
          "name": "data",
          "type": "bytes"
        }
      ],
      "name": "onERC721Received",
      "outputs": [
        {
          "internalType": "bytes4",
          "name": "",
          "type": "bytes4"
        }
      ],
      "stateMutability": "nonpayable",
      "type": "function"
    },
    {
      "inputs": [
        {
          "internalType": "uint256",
          "name": "tokenId",
          "type": "uint256"
        }
      ],
      "name": "ownerOf",
      "outputs": [
        {
          "internalType": "address",
          "name": "",
          "type": "address"
        }
      ],
      "stateMutability": "view",
      "type": "function"
    },
    {
      "inputs": [],
      "name": "paused",
      "outputs": [
        {
          "internalType": "bool",
          "name": "",
          "type": "bool"
        }
      ],
      "stateMutability": "view",
      "type": "function"
    },
    {
      "inputs": [
        {
          "internalType": "bytes32",
          "name": "role",
          "type": "bytes32"
        },
        {
          "internalType": "address",
          "name": "account",
          "type": "address"
        }
      ],
      "name": "renounceRole",
      "outputs": [],
      "stateMutability": "nonpayable",
      "type": "function"
    },
    {
      "inputs": [
        {
          "internalType": "bytes32",
          "name": "role",
          "type": "bytes32"
        },
        {
          "internalType": "address",
          "name": "account",
          "type": "address"
        }
      ],
      "name": "revokeRole",
      "outputs": [],
      "stateMutability": "nonpayable",
      "type": "function"
    },
    {
      "inputs": [
        {
          "internalType": "uint256",
          "name": "",
          "type": "uint256"
        }
      ],
      "name": "rootOwners",
      "outputs": [
        {
          "internalType": "uint256",
          "name": "",
          "type": "uint256"
        }
      ],
      "stateMutability": "view",
      "type": "function",
      "constant": true
    },
    {
      "inputs": [
        {
          "internalType": "uint256",
          "name": "fromTokenId",
          "type": "uint256"
        },
        {
          "internalType": "address",
          "name": "to",
          "type": "address"
        },
        {
          "internalType": "address",
          "name": "childContract",
          "type": "address"
        },
        {
          "internalType": "uint256[]",
          "name": "childTokenIds",
          "type": "uint256[]"
        },
        {
          "internalType": "uint256[]",
          "name": "amounts",
          "type": "uint256[]"
        },
        {
          "internalType": "bytes",
          "name": "data",
          "type": "bytes"
        }
      ],
      "name": "safeBatchTransferChildFrom",
      "outputs": [],
      "stateMutability": "nonpayable",
      "type": "function"
    },
    {
      "inputs": [
        {
          "internalType": "uint256",
          "name": "fromTokenId",
          "type": "uint256"
        },
        {
          "internalType": "uint256",
          "name": "root",
          "type": "uint256"
        },
        {
          "internalType": "address",
          "name": "to",
          "type": "address"
        },
        {
          "internalType": "address",
          "name": "childContract",
          "type": "address"
        },
        {
          "internalType": "uint256",
          "name": "childTokenId",
          "type": "uint256"
        },
        {
          "internalType": "uint256",
          "name": "amount",
          "type": "uint256"
        },
        {
          "internalType": "bytes",
          "name": "data",
          "type": "bytes"
        }
      ],
      "name": "safeTransferChildFrom",
      "outputs": [],
      "stateMutability": "nonpayable",
      "type": "function"
    },
    {
      "inputs": [
        {
          "internalType": "address",
          "name": "from",
          "type": "address"
        },
        {
          "internalType": "address",
          "name": "to",
          "type": "address"
        },
        {
          "internalType": "uint256",
          "name": "tokenId",
          "type": "uint256"
        }
      ],
      "name": "safeTransferFrom",
      "outputs": [],
      "stateMutability": "nonpayable",
      "type": "function"
    },
    {
      "inputs": [
        {
          "internalType": "address",
          "name": "from",
          "type": "address"
        },
        {
          "internalType": "address",
          "name": "to",
          "type": "address"
        },
        {
          "internalType": "uint256",
          "name": "tokenId",
          "type": "uint256"
        },
        {
          "internalType": "bytes",
          "name": "data",
          "type": "bytes"
        }
      ],
      "name": "safeTransferFrom",
      "outputs": [],
      "stateMutability": "nonpayable",
      "type": "function"
    },
    {
      "inputs": [
        {
          "internalType": "address",
          "name": "operator",
          "type": "address"
        },
        {
          "internalType": "bool",
          "name": "approved",
          "type": "bool"
        }
      ],
      "name": "setApprovalForAll",
      "outputs": [],
      "stateMutability": "nonpayable",
      "type": "function"
    },
    {
      "inputs": [
        {
          "internalType": "uint256",
          "name": "tokenID",
          "type": "uint256"
        }
      ],
      "name": "setIsERC1155",
      "outputs": [],
      "stateMutability": "nonpayable",
      "type": "function"
    },
    {
      "inputs": [
        {
          "internalType": "uint256",
          "name": "id",
          "type": "uint256"
        }
      ],
      "name": "setRootOwner",
      "outputs": [],
      "stateMutability": "nonpayable",
      "type": "function"
    },
    {
      "inputs": [],
      "name": "symbol",
      "outputs": [
        {
          "internalType": "string",
          "name": "",
          "type": "string"
        }
      ],
      "stateMutability": "view",
      "type": "function"
    },
    {
      "inputs": [
        {
          "internalType": "uint256",
          "name": "tokenId",
          "type": "uint256"
        }
      ],
      "name": "tokenURI",
      "outputs": [
        {
          "internalType": "string",
          "name": "",
          "type": "string"
        }
      ],
      "stateMutability": "view",
      "type": "function"
    },
    {
      "inputs": [
        {
          "internalType": "uint256",
          "name": "",
          "type": "uint256"
        }
      ],
      "name": "token_URI",
      "outputs": [
        {
          "internalType": "string",
          "name": "",
          "type": "string"
        }
      ],
      "stateMutability": "view",
      "type": "function"
    },
    {
      "inputs": [
        {
          "internalType": "address",
          "name": "from",
          "type": "address"
        },
        {
          "internalType": "address",
          "name": "to",
          "type": "address"
        },
        {
          "internalType": "uint256",
          "name": "tokenId",
          "type": "uint256"
        }
      ],
      "name": "transferFrom",
      "outputs": [],
      "stateMutability": "nonpayable",
      "type": "function"
    },
    {
      "inputs": [
        {
          "internalType": "address",
          "name": "to",
          "type": "address"
        },
        {
          "internalType": "uint256",
          "name": "tokenId",
          "type": "uint256"
        }
      ],
      "name": "mint",
      "outputs": [],
      "stateMutability": "nonpayable",
      "type": "function"
    },
    {
      "inputs": [
        {
          "internalType": "uint256",
          "name": "tokenId",
          "type": "uint256"
        }
      ],
      "name": "burn",
      "outputs": [],
      "stateMutability": "nonpayable",
      "type": "function"
    },
    {
      "inputs": [],
      "name": "pause",
      "outputs": [],
      "stateMutability": "nonpayable",
      "type": "function"
    },
    {
      "inputs": [],
      "name": "unpause",
      "outputs": [],
      "stateMutability": "nonpayable",
      "type": "function"
    },
    {
      "inputs": [
        {
          "internalType": "bytes4",
          "name": "interfaceId",
          "type": "bytes4"
        }
      ],
      "name": "supportsInterface",
      "outputs": [
        {
          "internalType": "bool",
          "name": "",
          "type": "bool"
        }
      ],
      "stateMutability": "view",
      "type": "function"
    }
  ],
  "bytecode": "0x60806040523480156200001157600080fd5b50604051620067f8380380620067f8833981810160405281019062000037919062000463565b828282828281600190816200004d919062000767565b5080600290816200005f919062000767565b505050620000726200014060201b60201c565b505050506000600e60006101000a81548160ff021916908315150217905550620000b56000801b620000a96200015760201b60201c565b6200015f60201b60201c565b620000f67f9f2df0fed2c77648de5860a4cc508cd0818c85b8b8a1ab4ceeef8d981c8956a6620000ea6200015760201b60201c565b6200015f60201b60201c565b620001377f65d7a28e3265b37a6474929f336521b332c1681b933f6cb9f3376673440d862a6200012b6200015760201b60201c565b6200015f60201b60201c565b5050506200084e565b606060405180602001604052806000815250905090565b600033905090565b6200017182826200017560201b60201c565b5050565b6200018782826200026660201b60201c565b6200026257600160008084815260200190815260200160002060000160008373ffffffffffffffffffffffffffffffffffffffff1673ffffffffffffffffffffffffffffffffffffffff16815260200190815260200160002060006101000a81548160ff021916908315150217905550620002076200015760201b60201c565b73ffffffffffffffffffffffffffffffffffffffff168173ffffffffffffffffffffffffffffffffffffffff16837f2f8788117e7eff1d82e926ec794901d17c78024a50270940304540a733656f0d60405160405180910390a45b5050565b600080600084815260200190815260200160002060000160008373ffffffffffffffffffffffffffffffffffffffff1673ffffffffffffffffffffffffffffffffffffffff16815260200190815260200160002060009054906101000a900460ff16905092915050565b6000604051905090565b600080fd5b600080fd5b600080fd5b600080fd5b6000601f19601f8301169050919050565b7f4e487b7100000000000000000000000000000000000000000000000000000000600052604160045260246000fd5b6200033982620002ee565b810181811067ffffffffffffffff821117156200035b576200035a620002ff565b5b80604052505050565b600062000370620002d0565b90506200037e82826200032e565b919050565b600067ffffffffffffffff821115620003a157620003a0620002ff565b5b620003ac82620002ee565b9050602081019050919050565b60005b83811015620003d9578082015181840152602081019050620003bc565b60008484015250505050565b6000620003fc620003f68462000383565b62000364565b9050828152602081018484840111156200041b576200041a620002e9565b5b62000428848285620003b9565b509392505050565b600082601f830112620004485762000447620002e4565b5b81516200045a848260208601620003e5565b91505092915050565b6000806000606084860312156200047f576200047e620002da565b5b600084015167ffffffffffffffff811115620004a0576200049f620002df565b5b620004ae8682870162000430565b935050602084015167ffffffffffffffff811115620004d257620004d1620002df565b5b620004e08682870162000430565b925050604084015167ffffffffffffffff811115620005045762000503620002df565b5b620005128682870162000430565b9150509250925092565b600081519050919050565b7f4e487b7100000000000000000000000000000000000000000000000000000000600052602260045260246000fd5b600060028204905060018216806200056f57607f821691505b60208210810362000585576200058462000527565b5b50919050565b60008190508160005260206000209050919050565b60006020601f8301049050919050565b600082821b905092915050565b600060088302620005ef7fffffffffffffffffffffffffffffffffffffffffffffffffffffffffffffffff82620005b0565b620005fb8683620005b0565b95508019841693508086168417925050509392505050565b6000819050919050565b6000819050919050565b600062000648620006426200063c8462000613565b6200061d565b62000613565b9050919050565b6000819050919050565b620006648362000627565b6200067c62000673826200064f565b848454620005bd565b825550505050565b600090565b6200069362000684565b620006a081848462000659565b505050565b5b81811015620006c857620006bc60008262000689565b600181019050620006a6565b5050565b601f8211156200071757620006e1816200058b565b620006ec84620005a0565b81016020851015620006fc578190505b620007146200070b85620005a0565b830182620006a5565b50505b505050565b600082821c905092915050565b60006200073c600019846008026200071c565b1980831691505092915050565b600062000757838362000729565b9150826002028217905092915050565b62000772826200051c565b67ffffffffffffffff8111156200078e576200078d620002ff565b5b6200079a825462000556565b620007a7828285620006cc565b600060209050601f831160018114620007df5760008415620007ca578287015190505b620007d6858262000749565b86555062000846565b601f198416620007ef866200058b565b60005b828110156200081957848901518255600182019150602085019450602081019050620007f2565b8683101562000839578489015162000835601f89168262000729565b8355505b6001600288020188555050505b505050505050565b615f9a806200085e6000396000f3fe608060405234801561001057600080fd5b506004361061027e5760003560e01c806370a082311161015c578063a22cb465116100ce578063d547741f11610087578063d547741f14610819578063e2edee2b14610835578063e63ab1e914610851578063e985e9c51461086f578063eeaf2f091461089f578063f23a6e61146108cf5761027e565b8063a22cb46514610733578063b88d4fde1461074f578063bc197c811461076b578063c41a360a1461079b578063c87b56dd146107cb578063d5391393146107fb5761027e565b806389e7e2f21161012057806389e7e2f21461064b5780638f1cc0de1461067b57806391d148541461069757806395d89b41146106c75780639fb64d83146106e5578063a217fddf146107155761027e565b806370a08231146105a75780637a6ce2e1146105d75780637a7c792f146105f55780638456cb5914610611578063849c968c1461061b5761027e565b806336568abe116101f55780635c975abb116101b95780635c975abb146104ab5780635fa03021146104c957806360d4d23a146104f95780636352211e1461052957806366ceb7b8146105595780636f9bc25b146105775761027e565b806336568abe146104315780633f4ba83a1461044d57806340c10f191461045757806342842e0e1461047357806342966c681461048f5761027e565b8063150b7a0211610247578063150b7a021461034d57806317dd76231461037d57806323b872dd146103ad578063248a9ca3146103c95780632f2ff15d146103f957806332085b65146104155761027e565b80626174ca1461028357806301ffc9a7146102b357806306fdde03146102e3578063081812fc14610301578063095ea7b314610331575b600080fd5b61029d60048036038101906102989190613e6f565b6108ff565b6040516102aa9190613eab565b60405180910390f35b6102cd60048036038101906102c89190613f1e565b610923565b6040516102da9190613f66565b60405180910390f35b6102eb610935565b6040516102f89190614011565b60405180910390f35b61031b60048036038101906103169190613e6f565b6109c7565b6040516103289190614074565b60405180910390f35b61034b600480360381019061034691906140bb565b610a0d565b005b61036760048036038101906103629190614230565b610b24565b60405161037491906142c2565b60405180910390f35b610397600480360381019061039291906142dd565b610c0e565b6040516103a49190614074565b60405180910390f35b6103c760048036038101906103c2919061431d565b610d0f565b005b6103e360048036038101906103de91906143a6565b610d6f565b6040516103f091906143e2565b60405180910390f35b610413600480360381019061040e91906143fd565b610d8e565b005b61042f600480360381019061042a9190614505565b610daf565b005b61044b600480360381019061044691906143fd565b61105a565b005b6104556110dd565b005b610471600480360381019061046c91906140bb565b611157565b005b61048d6004803603810190610488919061431d565b611165565b005b6104a960048036038101906104a49190613e6f565b611185565b005b6104b36111e1565b6040516104c09190613f66565b60405180910390f35b6104e360048036038101906104de91906145e6565b6111f8565b6040516104f091906146e4565b60405180910390f35b610513600480360381019061050e9190614706565b61139f565b6040516105209190613eab565b60405180910390f35b610543600480360381019061053e9190613e6f565b61140c565b6040516105509190614074565b60405180910390f35b6105616114bd565b60405161056e91906146e4565b60405180910390f35b610591600480360381019061058c9190613e6f565b611515565b60405161059e9190613f66565b60405180910390f35b6105c160048036038101906105bc9190614759565b611535565b6040516105ce9190613eab565b60405180910390f35b6105df6115ec565b6040516105ec9190614074565b60405180910390f35b61060f600480360381019061060a9190613e6f565b6115fb565b005b610619611627565b005b61063560048036038101906106309190613e6f565b6116a1565b6040516106429190613f66565b60405180910390f35b61066560048036038101906106609190613e6f565b6116cb565b6040516106729190614844565b60405180910390f35b61069560048036038101906106909190614866565b6117e8565b005b6106b160048036038101906106ac91906143fd565b611aee565b6040516106be9190613f66565b60405180910390f35b6106cf611b58565b6040516106dc9190614011565b60405180910390f35b6106ff60048036038101906106fa9190613e6f565b611bea565b60405161070c9190613f66565b60405180910390f35b61071d611c0a565b60405161072a91906143e2565b60405180910390f35b61074d60048036038101906107489190614950565b611c11565b005b61076960048036038101906107649190614230565b611c27565b005b61078560048036038101906107809190614990565b611c89565b60405161079291906142c2565b60405180910390f35b6107b560048036038101906107b09190613e6f565b611e4e565b6040516107c29190614074565b60405180910390f35b6107e560048036038101906107e09190613e6f565b611e60565b6040516107f29190614011565b60405180910390f35b610803611ec8565b60405161081091906143e2565b60405180910390f35b610833600480360381019061082e91906143fd565b611eec565b005b61084f600480360381019061084a9190613e6f565b611f0d565b005b610859611f3c565b60405161086691906143e2565b60405180910390f35b61088960048036038101906108849190614a5f565b611f60565b6040516108969190613f66565b60405180910390f35b6108b960048036038101906108b49190614706565b611ff4565b6040516108c69190613eab565b60405180910390f35b6108e960048036038101906108e49190614a9f565b612026565b6040516108f691906142c2565b60405180910390f35b600d818154811061090f57600080fd5b906000526020600020016000915090505481565b600061092e8261212f565b9050919050565b60606001805461094490614b65565b80601f016020809104026020016040519081016040528092919081815260200182805461097090614b65565b80156109bd5780601f10610992576101008083540402835291602001916109bd565b820191906000526020600020905b8154815290600101906020018083116109a057829003601f168201915b5050505050905090565b60006109d282612211565b6005600083815260200190815260200160002060009054906101000a900473ffffffffffffffffffffffffffffffffffffffff169050919050565b6000610a188261140c565b90508073ffffffffffffffffffffffffffffffffffffffff168373ffffffffffffffffffffffffffffffffffffffff1603610a88576040517f08c379a0000000000000000000000000000000000000000000000000000000008152600401610a7f90614c08565b60405180910390fd5b8073ffffffffffffffffffffffffffffffffffffffff16610aa761225c565b73ffffffffffffffffffffffffffffffffffffffff161480610ad65750610ad581610ad061225c565b611f60565b5b610b15576040517f08c379a0000000000000000000000000000000000000000000000000000000008152600401610b0c90614c9a565b60405180910390fd5b610b1f8383612264565b505050565b60006020825114610b6a576040517f08c379a0000000000000000000000000000000000000000000000000000000008152600401610b6190614d52565b60405180910390fd5b60008060206000369050610b7e9190614da1565b905080359150610b91823387600161231d565b3373ffffffffffffffffffffffffffffffffffffffff16828773ffffffffffffffffffffffffffffffffffffffff167fa18753b0660a8be2cdae03468c860b47c2926433ab16917f323544652803032d886001604051610bf2929190614e1a565b60405180910390a463150b7a0260e01b92505050949350505050565b600080600090505b610c31600960008681526020019081526020016000206124b8565b811015610d0357610cbe83600a60008781526020019081526020016000206000610c7685600960008b81526020019081526020016000206124cd90919063ffffffff16565b73ffffffffffffffffffffffffffffffffffffffff1673ffffffffffffffffffffffffffffffffffffffff1681526020019081526020016000206124e790919063ffffffff16565b15610cf057610ce881600960008781526020019081526020016000206124cd90919063ffffffff16565b915050610d09565b8080610cfb90614e43565b915050610c16565b50600090505b92915050565b610d20610d1a61225c565b82612501565b610d5f576040517f08c379a0000000000000000000000000000000000000000000000000000000008152600401610d5690614efd565b60405180910390fd5b610d6a838383612596565b505050565b6000806000838152602001908152602001600020600101549050919050565b610d9782610d6f565b610da0816127fc565b610daa8383612810565b505050565b8151835114610df3576040517f08c379a0000000000000000000000000000000000000000000000000000000008152600401610dea90614f8f565b60405180910390fd5b600073ffffffffffffffffffffffffffffffffffffffff168573ffffffffffffffffffffffffffffffffffffffff1603610e62576040517f08c379a0000000000000000000000000000000000000000000000000000000008152600401610e5990615021565b60405180910390fd5b6000610e6c61225c565b90508073ffffffffffffffffffffffffffffffffffffffff16610e8e8861140c565b73ffffffffffffffffffffffffffffffffffffffff161480610ebe5750610ebd610eb78861140c565b82611f60565b5b610efd576040517f08c379a0000000000000000000000000000000000000000000000000000000008152600401610ef4906150b3565b60405180910390fd5b610f0c818888888888886128f0565b60005b8451811015610f75576000858281518110610f2d57610f2c6150d3565b5b602002602001015190506000858381518110610f4c57610f4b6150d3565b5b60200260200101519050610f628a898484612950565b505080610f6e90614e43565b9050610f0f565b508473ffffffffffffffffffffffffffffffffffffffff16632eb2c2d630888787876040518663ffffffff1660e01b8152600401610fb7959493929190615157565b600060405180830381600087803b158015610fd157600080fd5b505af1158015610fe5573d6000803e3d6000fd5b505050508473ffffffffffffffffffffffffffffffffffffffff168673ffffffffffffffffffffffffffffffffffffffff16887f5572be9c1bc39e4e277a34f64ccd0e84456dac3f33b0b1c458c12c402c6326a987876040516110499291906151bf565b60405180910390a450505050505050565b61106261225c565b73ffffffffffffffffffffffffffffffffffffffff168173ffffffffffffffffffffffffffffffffffffffff16146110cf576040517f08c379a00000000000000000000000000000000000000000000000000000000081526004016110c690615268565b60405180910390fd5b6110d98282612c28565b5050565b61110e7f65d7a28e3265b37a6474929f336521b332c1681b933f6cb9f3376673440d862a61110961225c565b611aee565b61114d576040517f08c379a0000000000000000000000000000000000000000000000000000000008152600401611144906152fa565b60405180910390fd5b611155612d09565b565b6111618282612d6c565b5050565b61118083838360405180602001604052806000815250611c27565b505050565b61119661119061225c565b82612501565b6111d5576040517f08c379a00000000000000000000000000000000000000000000000000000000081526004016111cc9061538c565b60405180910390fd5b6111de81612f45565b50565b6000600e60009054906101000a900460ff16905090565b60606000611254600a600086815260200190815260200160002060008573ffffffffffffffffffffffffffffffffffffffff1673ffffffffffffffffffffffffffffffffffffffff168152602001908152602001600020613062565b67ffffffffffffffff81111561126d5761126c614105565b5b60405190808252806020026020018201604052801561129b5781602001602082028036833780820191505090505b50905060005b6112f9600a600087815260200190815260200160002060008673ffffffffffffffffffffffffffffffffffffffff1673ffffffffffffffffffffffffffffffffffffffff168152602001908152602001600020613062565b8110156113945761136281600a600088815260200190815260200160002060008773ffffffffffffffffffffffffffffffffffffffff1673ffffffffffffffffffffffffffffffffffffffff16815260200190815260200160002061307790919063ffffffff16565b828281518110611375576113746150d3565b5b602002602001018181525050808061138c90614e43565b9150506112a1565b508091505092915050565b60006007600085815260200190815260200160002060008473ffffffffffffffffffffffffffffffffffffffff1673ffffffffffffffffffffffffffffffffffffffff16815260200190815260200160002060008381526020019081526020016000205490509392505050565b6000806003600084815260200190815260200160002060009054906101000a900473ffffffffffffffffffffffffffffffffffffffff169050600073ffffffffffffffffffffffffffffffffffffffff168173ffffffffffffffffffffffffffffffffffffffff16036114b4576040517f08c379a00000000000000000000000000000000000000000000000000000000081526004016114ab906153f8565b60405180910390fd5b80915050919050565b6060600d80548060200260200160405190810160405280929190818152602001828054801561150b57602002820191906000526020600020905b8154815260200190600101908083116114f7575b5050505050905090565b600c6020528060005260406000206000915054906101000a900460ff1681565b60008073ffffffffffffffffffffffffffffffffffffffff168273ffffffffffffffffffffffffffffffffffffffff16036115a5576040517f08c379a000000000000000000000000000000000000000000000000000000000815260040161159c9061548a565b60405180910390fd5b600460008373ffffffffffffffffffffffffffffffffffffffff1673ffffffffffffffffffffffffffffffffffffffff168152602001908152602001600020549050919050565b60006115f661225c565b905090565b600d81908060018154018082558091505060019003906000526020600020016000909190919091505550565b6116587f65d7a28e3265b37a6474929f336521b332c1681b933f6cb9f3376673440d862a61165361225c565b611aee565b611697576040517f08c379a000000000000000000000000000000000000000000000000000000000815260040161168e9061551c565b60405180910390fd5b61169f613091565b565b6000600c600083815260200190815260200160002060009054906101000a900460ff169050919050565b606060006116ea600960008581526020019081526020016000206124b8565b67ffffffffffffffff81111561170357611702614105565b5b6040519080825280602002602001820160405280156117315781602001602082028036833780820191505090505b50905060005b611752600960008681526020019081526020016000206124b8565b8110156117de5761177e81600960008781526020019081526020016000206124cd90919063ffffffff16565b828281518110611791576117906150d3565b5b602002602001019073ffffffffffffffffffffffffffffffffffffffff16908173ffffffffffffffffffffffffffffffffffffffff168152505080806117d690614e43565b915050611737565b5080915050919050565b600073ffffffffffffffffffffffffffffffffffffffff168573ffffffffffffffffffffffffffffffffffffffff1603611857576040517f08c379a000000000000000000000000000000000000000000000000000000000815260040161184e90615021565b60405180910390fd5b600061186161225c565b90508073ffffffffffffffffffffffffffffffffffffffff166118838861140c565b73ffffffffffffffffffffffffffffffffffffffff16146118d9576040517f08c379a00000000000000000000000000000000000000000000000000000000081526004016118d0906150b3565b60405180910390fd5b6118f8818988886118e9896130f4565b6118f2896130f4565b886128f0565b61190488868686612950565b600c600085815260200190815260200160002060009054906101000a900460ff1615611a0a578473ffffffffffffffffffffffffffffffffffffffff1663f242432a30888787876040518663ffffffff1660e01b815260040161196b95949392919061553c565b600060405180830381600087803b15801561198557600080fd5b505af1158015611999573d6000803e3d6000fd5b505050508473ffffffffffffffffffffffffffffffffffffffff168673ffffffffffffffffffffffffffffffffffffffff16897f9d6259404dec52b3d5d220f5b8e5d05cc05ec908e1bc320aa46793e3091e519487876040516119fd929190615596565b60405180910390a4611ae4565b8473ffffffffffffffffffffffffffffffffffffffff1663b88d4fde308887866040518563ffffffff1660e01b8152600401611a4994939291906155bf565b600060405180830381600087803b158015611a6357600080fd5b505af1158015611a77573d6000803e3d6000fd5b505050508473ffffffffffffffffffffffffffffffffffffffff168673ffffffffffffffffffffffffffffffffffffffff16897f9d6259404dec52b3d5d220f5b8e5d05cc05ec908e1bc320aa46793e3091e51948787604051611adb929190615596565b60405180910390a45b5050505050505050565b600080600084815260200190815260200160002060000160008373ffffffffffffffffffffffffffffffffffffffff1673ffffffffffffffffffffffffffffffffffffffff16815260200190815260200160002060009054906101000a900460ff16905092915050565b606060028054611b6790614b65565b80601f0160208091040260200160405190810160405280929190818152602001828054611b9390614b65565b8015611be05780601f10611bb557610100808354040283529160200191611be0565b820191906000526020600020905b815481529060010190602001808311611bc357829003601f168201915b5050505050905090565b600b6020528060005260406000206000915054906101000a900460ff1681565b6000801b81565b611c23611c1c61225c565b838361316e565b5050565b611c38611c3261225c565b83612501565b611c77576040517f08c379a0000000000000000000000000000000000000000000000000000000008152600401611c6e90614efd565b60405180910390fd5b611c83848484846132da565b50505050565b60006020825114611ccf576040517f08c379a0000000000000000000000000000000000000000000000000000000008152600401611cc690614d52565b60405180910390fd5b8251845114611d13576040517f08c379a0000000000000000000000000000000000000000000000000000000008152600401611d0a9061567d565b60405180910390fd5b611d2386600030888888886128f0565b60008060206000369050611d379190614da1565b90508035915060005b8651811015611e3857611d898333898481518110611d6157611d606150d3565b5b6020026020010151898581518110611d7c57611d7b6150d3565b5b602002602001015161231d565b3373ffffffffffffffffffffffffffffffffffffffff16838973ffffffffffffffffffffffffffffffffffffffff167fa18753b0660a8be2cdae03468c860b47c2926433ab16917f323544652803032d8a8581518110611dec57611deb6150d3565b5b60200260200101518a8681518110611e0757611e066150d3565b5b6020026020010151604051611e1d929190615596565b60405180910390a48080611e3090614e43565b915050611d40565b5063bc197c8160e01b9250505095945050505050565b6000611e598261140c565b9050919050565b6060611e6b82612211565b6000611e75613336565b90506000815111611e955760405180602001604052806000815250611ec0565b80611e9f8461334d565b604051602001611eb09291906156d9565b6040516020818303038152906040525b915050919050565b7f9f2df0fed2c77648de5860a4cc508cd0818c85b8b8a1ab4ceeef8d981c8956a681565b611ef582610d6f565b611efe816127fc565b611f088383612c28565b505050565b6001600c600083815260200190815260200160002060006101000a81548160ff02191690831515021790555050565b7f65d7a28e3265b37a6474929f336521b332c1681b933f6cb9f3376673440d862a81565b6000600660008473ffffffffffffffffffffffffffffffffffffffff1673ffffffffffffffffffffffffffffffffffffffff16815260200190815260200160002060008373ffffffffffffffffffffffffffffffffffffffff1673ffffffffffffffffffffffffffffffffffffffff16815260200190815260200160002060009054906101000a900460ff16905092915050565b600760205282600052604060002060205281600052604060002060205280600052604060002060009250925050505481565b6000602082511461206c576040517f08c379a000000000000000000000000000000000000000000000000000000000815260040161206390614d52565b60405180910390fd5b61208c866000308861207d896130f4565b612086896130f4565b886128f0565b600080602060003690506120a09190614da1565b9050803591506120b28233888861231d565b3373ffffffffffffffffffffffffffffffffffffffff16828873ffffffffffffffffffffffffffffffffffffffff167fa18753b0660a8be2cdae03468c860b47c2926433ab16917f323544652803032d8989604051612112929190615596565b60405180910390a463f23a6e6160e01b9250505095945050505050565b60007f80ac58cd000000000000000000000000000000000000000000000000000000007bffffffffffffffffffffffffffffffffffffffffffffffffffffffff1916827bffffffffffffffffffffffffffffffffffffffffffffffffffffffff191614806121fa57507f5b5e139f000000000000000000000000000000000000000000000000000000007bffffffffffffffffffffffffffffffffffffffffffffffffffffffff1916827bffffffffffffffffffffffffffffffffffffffffffffffffffffffff1916145b8061220a5750612209826134ad565b5b9050919050565b61221a81613527565b612259576040517f08c379a0000000000000000000000000000000000000000000000000000000008152600401612250906153f8565b60405180910390fd5b50565b600033905090565b816005600083815260200190815260200160002060006101000a81548173ffffffffffffffffffffffffffffffffffffffff021916908373ffffffffffffffffffffffffffffffffffffffff160217905550808273ffffffffffffffffffffffffffffffffffffffff166122d78361140c565b73ffffffffffffffffffffffffffffffffffffffff167f8c5be1e5ebec7d5bd14f71427d1e84f3dd0314c0f7b2291e5b200ac8c7c3b92560405160405180910390a45050565b612342836009600087815260200190815260200160002061359390919063ffffffff16565b61236d5761236b83600960008781526020019081526020016000206135c390919063ffffffff16565b505b60006007600086815260200190815260200160002060008573ffffffffffffffffffffffffffffffffffffffff1673ffffffffffffffffffffffffffffffffffffffff1681526020019081526020016000206000848152602001908152602001600020540361243a5761243882600a600087815260200190815260200160002060008673ffffffffffffffffffffffffffffffffffffffff1673ffffffffffffffffffffffffffffffffffffffff1681526020019081526020016000206135f390919063ffffffff16565b505b806007600086815260200190815260200160002060008573ffffffffffffffffffffffffffffffffffffffff1673ffffffffffffffffffffffffffffffffffffffff168152602001908152602001600020600084815260200190815260200160002060008282546124ab91906156fd565b9250508190555050505050565b60006124c68260000161360d565b9050919050565b60006124dc836000018361361e565b60001c905092915050565b60006124f9836000018360001b613649565b905092915050565b60008061250d8361140c565b90508073ffffffffffffffffffffffffffffffffffffffff168473ffffffffffffffffffffffffffffffffffffffff16148061254f575061254e8185611f60565b5b8061258d57508373ffffffffffffffffffffffffffffffffffffffff16612575846109c7565b73ffffffffffffffffffffffffffffffffffffffff16145b91505092915050565b8273ffffffffffffffffffffffffffffffffffffffff166125b68261140c565b73ffffffffffffffffffffffffffffffffffffffff161461260c576040517f08c379a0000000000000000000000000000000000000000000000000000000008152600401612603906157a3565b60405180910390fd5b600073ffffffffffffffffffffffffffffffffffffffff168273ffffffffffffffffffffffffffffffffffffffff160361267b576040517f08c379a000000000000000000000000000000000000000000000000000000000815260040161267290615835565b60405180910390fd5b61268683838361366c565b612691600082612264565b6001600460008573ffffffffffffffffffffffffffffffffffffffff1673ffffffffffffffffffffffffffffffffffffffff16815260200190815260200160002060008282546126e19190614da1565b925050819055506001600460008473ffffffffffffffffffffffffffffffffffffffff1673ffffffffffffffffffffffffffffffffffffffff168152602001908152602001600020600082825461273891906156fd565b92505081905550816003600083815260200190815260200160002060006101000a81548173ffffffffffffffffffffffffffffffffffffffff021916908373ffffffffffffffffffffffffffffffffffffffff160217905550808273ffffffffffffffffffffffffffffffffffffffff168473ffffffffffffffffffffffffffffffffffffffff167fddf252ad1be2c89b69c2b068fc378daa952ba7f163c4a11628f55a4df523b3ef60405160405180910390a46127f78383836136c4565b505050565b61280d8161280861225c565b6136c9565b50565b61281a8282611aee565b6128ec57600160008084815260200190815260200160002060000160008373ffffffffffffffffffffffffffffffffffffffff1673ffffffffffffffffffffffffffffffffffffffff16815260200190815260200160002060006101000a81548160ff02191690831515021790555061289161225c565b73ffffffffffffffffffffffffffffffffffffffff168173ffffffffffffffffffffffffffffffffffffffff16837f2f8788117e7eff1d82e926ec794901d17c78024a50270940304540a733656f0d60405160405180910390a45b5050565b6128f86111e1565b15612938576040517f08c379a000000000000000000000000000000000000000000000000000000000815260040161292f906158c7565b60405180910390fd5b61294787878787878787613766565b50505050505050565b806007600086815260200190815260200160002060008573ffffffffffffffffffffffffffffffffffffffff1673ffffffffffffffffffffffffffffffffffffffff16815260200190815260200160002060008481526020019081526020016000205410156129f4576040517f08c379a00000000000000000000000000000000000000000000000000000000081526004016129eb90615959565b60405180910390fd5b806007600086815260200190815260200160002060008573ffffffffffffffffffffffffffffffffffffffff1673ffffffffffffffffffffffffffffffffffffffff16815260200190815260200160002060008481526020019081526020016000206000828254612a659190614da1565b9250508190555060006007600086815260200190815260200160002060008573ffffffffffffffffffffffffffffffffffffffff1673ffffffffffffffffffffffffffffffffffffffff16815260200190815260200160002060008481526020019081526020016000205403612c2257612b3784600860008673ffffffffffffffffffffffffffffffffffffffff1673ffffffffffffffffffffffffffffffffffffffff168152602001908152602001600020600085815260200190815260200160002061376f90919063ffffffff16565b50612b9a82600a600087815260200190815260200160002060008673ffffffffffffffffffffffffffffffffffffffff1673ffffffffffffffffffffffffffffffffffffffff16815260200190815260200160002061376f90919063ffffffff16565b506000612bf5600a600087815260200190815260200160002060008673ffffffffffffffffffffffffffffffffffffffff1673ffffffffffffffffffffffffffffffffffffffff168152602001908152602001600020613062565b03612c2157612c1f836009600087815260200190815260200160002061378990919063ffffffff16565b505b5b50505050565b612c328282611aee565b15612d0557600080600084815260200190815260200160002060000160008373ffffffffffffffffffffffffffffffffffffffff1673ffffffffffffffffffffffffffffffffffffffff16815260200190815260200160002060006101000a81548160ff021916908315150217905550612caa61225c565b73ffffffffffffffffffffffffffffffffffffffff168173ffffffffffffffffffffffffffffffffffffffff16837ff6391f5c32d9c69d2a47ea670b442974b53935d1edc7fd64eb21e047a839171b60405160405180910390a45b5050565b612d116137b9565b6000600e60006101000a81548160ff0219169083151502179055507f5db9ee0a495bf2e6ff9c91a7834c1ba4fdd244a5e8aa4e537bd38aeae4b073aa612d5561225c565b604051612d629190614074565b60405180910390a1565b600073ffffffffffffffffffffffffffffffffffffffff168273ffffffffffffffffffffffffffffffffffffffff1603612ddb576040517f08c379a0000000000000000000000000000000000000000000000000000000008152600401612dd2906159c5565b60405180910390fd5b612de481613527565b15612e24576040517f08c379a0000000000000000000000000000000000000000000000000000000008152600401612e1b90615a31565b60405180910390fd5b612e306000838361366c565b6001600460008473ffffffffffffffffffffffffffffffffffffffff1673ffffffffffffffffffffffffffffffffffffffff1681526020019081526020016000206000828254612e8091906156fd565b92505081905550816003600083815260200190815260200160002060006101000a81548173ffffffffffffffffffffffffffffffffffffffff021916908373ffffffffffffffffffffffffffffffffffffffff160217905550808273ffffffffffffffffffffffffffffffffffffffff16600073ffffffffffffffffffffffffffffffffffffffff167fddf252ad1be2c89b69c2b068fc378daa952ba7f163c4a11628f55a4df523b3ef60405160405180910390a4612f41600083836136c4565b5050565b6000612f508261140c565b9050612f5e8160008461366c565b612f69600083612264565b6001600460008373ffffffffffffffffffffffffffffffffffffffff1673ffffffffffffffffffffffffffffffffffffffff1681526020019081526020016000206000828254612fb99190614da1565b925050819055506003600083815260200190815260200160002060006101000a81549073ffffffffffffffffffffffffffffffffffffffff021916905581600073ffffffffffffffffffffffffffffffffffffffff168273ffffffffffffffffffffffffffffffffffffffff167fddf252ad1be2c89b69c2b068fc378daa952ba7f163c4a11628f55a4df523b3ef60405160405180910390a461305e816000846136c4565b5050565b60006130708260000161360d565b9050919050565b6000613086836000018361361e565b60001c905092915050565b613099613802565b6001600e60006101000a81548160ff0219169083151502179055507f62e78cea01bee320cd4e420270b5ea74000d11b0c9f74754ebdbfc544b05a2586130dd61225c565b6040516130ea9190614074565b60405180910390a1565b60606000600167ffffffffffffffff81111561311357613112614105565b5b6040519080825280602002602001820160405280156131415781602001602082028036833780820191505090505b5090508281600081518110613159576131586150d3565b5b60200260200101818152505080915050919050565b8173ffffffffffffffffffffffffffffffffffffffff168373ffffffffffffffffffffffffffffffffffffffff16036131dc576040517f08c379a00000000000000000000000000000000000000000000000000000000081526004016131d390615a9d565b60405180910390fd5b80600660008573ffffffffffffffffffffffffffffffffffffffff1673ffffffffffffffffffffffffffffffffffffffff16815260200190815260200160002060008473ffffffffffffffffffffffffffffffffffffffff1673ffffffffffffffffffffffffffffffffffffffff16815260200190815260200160002060006101000a81548160ff0219169083151502179055508173ffffffffffffffffffffffffffffffffffffffff168373ffffffffffffffffffffffffffffffffffffffff167f17307eab39ab6107e8899845ad3d59bd9653f200f220920489ca2b5937696c31836040516132cd9190613f66565b60405180910390a3505050565b6132e5848484612596565b6132f18484848461384c565b613330576040517f08c379a000000000000000000000000000000000000000000000000000000000815260040161332790615b2f565b60405180910390fd5b50505050565b606060405180602001604052806000815250905090565b606060008203613394576040518060400160405280600181526020017f300000000000000000000000000000000000000000000000000000000000000081525090506134a8565b600082905060005b600082146133c65780806133af90614e43565b915050600a826133bf9190615b7e565b915061339c565b60008167ffffffffffffffff8111156133e2576133e1614105565b5b6040519080825280601f01601f1916602001820160405280156134145781602001600182028036833780820191505090505b5090505b600085146134a15760018261342d9190614da1565b9150600a8561343c9190615baf565b603061344891906156fd565b60f81b81838151811061345e5761345d6150d3565b5b60200101907effffffffffffffffffffffffffffffffffffffffffffffffffffffffffffff1916908160001a905350600a8561349a9190615b7e565b9450613418565b8093505050505b919050565b60007f7965db0b000000000000000000000000000000000000000000000000000000007bffffffffffffffffffffffffffffffffffffffffffffffffffffffff1916827bffffffffffffffffffffffffffffffffffffffffffffffffffffffff19161480613520575061351f826139d3565b5b9050919050565b60008073ffffffffffffffffffffffffffffffffffffffff166003600084815260200190815260200160002060009054906101000a900473ffffffffffffffffffffffffffffffffffffffff1673ffffffffffffffffffffffffffffffffffffffff1614159050919050565b60006135bb836000018373ffffffffffffffffffffffffffffffffffffffff1660001b613649565b905092915050565b60006135eb836000018373ffffffffffffffffffffffffffffffffffffffff1660001b613a3d565b905092915050565b6000613605836000018360001b613a3d565b905092915050565b600081600001805490509050919050565b6000826000018281548110613636576136356150d3565b5b9060005260206000200154905092915050565b600080836001016000848152602001908152602001600020541415905092915050565b6136746111e1565b156136b4576040517f08c379a00000000000000000000000000000000000000000000000000000000081526004016136ab90615c52565b60405180910390fd5b6136bf838383613aad565b505050565b505050565b6136d38282611aee565b613762576136f88173ffffffffffffffffffffffffffffffffffffffff166014613ab2565b6137068360001c6020613ab2565b604051602001613717929190615d0a565b6040516020818303038152906040526040517f08c379a00000000000000000000000000000000000000000000000000000000081526004016137599190614011565b60405180910390fd5b5050565b50505050505050565b6000613781836000018360001b613cee565b905092915050565b60006137b1836000018373ffffffffffffffffffffffffffffffffffffffff1660001b613cee565b905092915050565b6137c16111e1565b613800576040517f08c379a00000000000000000000000000000000000000000000000000000000081526004016137f790615d90565b60405180910390fd5b565b61380a6111e1565b1561384a576040517f08c379a000000000000000000000000000000000000000000000000000000000815260040161384190615dfc565b60405180910390fd5b565b600061386d8473ffffffffffffffffffffffffffffffffffffffff16613e02565b156139c6578373ffffffffffffffffffffffffffffffffffffffff1663150b7a0261389661225c565b8786866040518563ffffffff1660e01b81526004016138b894939291906155bf565b6020604051808303816000875af19250505080156138f457506040513d601f19601f820116820180604052508101906138f19190615e31565b60015b613976573d8060008114613924576040519150601f19603f3d011682016040523d82523d6000602084013e613929565b606091505b50600081510361396e576040517f08c379a000000000000000000000000000000000000000000000000000000000815260040161396590615b2f565b60405180910390fd5b805181602001fd5b63150b7a0260e01b7bffffffffffffffffffffffffffffffffffffffffffffffffffffffff1916817bffffffffffffffffffffffffffffffffffffffffffffffffffffffff1916149150506139cb565b600190505b949350505050565b60007f01ffc9a7000000000000000000000000000000000000000000000000000000007bffffffffffffffffffffffffffffffffffffffffffffffffffffffff1916827bffffffffffffffffffffffffffffffffffffffffffffffffffffffff1916149050919050565b6000613a498383613649565b613aa2578260000182908060018154018082558091505060019003906000526020600020016000909190919091505582600001805490508360010160008481526020019081526020016000208190555060019050613aa7565b600090505b92915050565b505050565b606060006002836002613ac59190615e5e565b613acf91906156fd565b67ffffffffffffffff811115613ae857613ae7614105565b5b6040519080825280601f01601f191660200182016040528015613b1a5781602001600182028036833780820191505090505b5090507f300000000000000000000000000000000000000000000000000000000000000081600081518110613b5257613b516150d3565b5b60200101907effffffffffffffffffffffffffffffffffffffffffffffffffffffffffffff1916908160001a9053507f780000000000000000000000000000000000000000000000000000000000000081600181518110613bb657613bb56150d3565b5b60200101907effffffffffffffffffffffffffffffffffffffffffffffffffffffffffffff1916908160001a90535060006001846002613bf69190615e5e565b613c0091906156fd565b90505b6001811115613ca0577f3031323334353637383961626364656600000000000000000000000000000000600f861660108110613c4257613c416150d3565b5b1a60f81b828281518110613c5957613c586150d3565b5b60200101907effffffffffffffffffffffffffffffffffffffffffffffffffffffffffffff1916908160001a905350600485901c945080613c9990615ea0565b9050613c03565b5060008414613ce4576040517f08c379a0000000000000000000000000000000000000000000000000000000008152600401613cdb90615f15565b60405180910390fd5b8091505092915050565b60008083600101600084815260200190815260200160002054905060008114613df6576000600182613d209190614da1565b9050600060018660000180549050613d389190614da1565b9050818114613da7576000866000018281548110613d5957613d586150d3565b5b9060005260206000200154905080876000018481548110613d7d57613d7c6150d3565b5b90600052602060002001819055508387600101600083815260200190815260200160002081905550505b85600001805480613dbb57613dba615f35565b5b600190038181906000526020600020016000905590558560010160008681526020019081526020016000206000905560019350505050613dfc565b60009150505b92915050565b6000808273ffffffffffffffffffffffffffffffffffffffff163b119050919050565b6000604051905090565b600080fd5b600080fd5b6000819050919050565b613e4c81613e39565b8114613e5757600080fd5b50565b600081359050613e6981613e43565b92915050565b600060208284031215613e8557613e84613e2f565b5b6000613e9384828501613e5a565b91505092915050565b613ea581613e39565b82525050565b6000602082019050613ec06000830184613e9c565b92915050565b60007fffffffff0000000000000000000000000000000000000000000000000000000082169050919050565b613efb81613ec6565b8114613f0657600080fd5b50565b600081359050613f1881613ef2565b92915050565b600060208284031215613f3457613f33613e2f565b5b6000613f4284828501613f09565b91505092915050565b60008115159050919050565b613f6081613f4b565b82525050565b6000602082019050613f7b6000830184613f57565b92915050565b600081519050919050565b600082825260208201905092915050565b60005b83811015613fbb578082015181840152602081019050613fa0565b60008484015250505050565b6000601f19601f8301169050919050565b6000613fe382613f81565b613fed8185613f8c565b9350613ffd818560208601613f9d565b61400681613fc7565b840191505092915050565b6000602082019050818103600083015261402b8184613fd8565b905092915050565b600073ffffffffffffffffffffffffffffffffffffffff82169050919050565b600061405e82614033565b9050919050565b61406e81614053565b82525050565b60006020820190506140896000830184614065565b92915050565b61409881614053565b81146140a357600080fd5b50565b6000813590506140b58161408f565b92915050565b600080604083850312156140d2576140d1613e2f565b5b60006140e0858286016140a6565b92505060206140f185828601613e5a565b9150509250929050565b600080fd5b600080fd5b7f4e487b7100000000000000000000000000000000000000000000000000000000600052604160045260246000fd5b61413d82613fc7565b810181811067ffffffffffffffff8211171561415c5761415b614105565b5b80604052505050565b600061416f613e25565b905061417b8282614134565b919050565b600067ffffffffffffffff82111561419b5761419a614105565b5b6141a482613fc7565b9050602081019050919050565b82818337600083830152505050565b60006141d36141ce84614180565b614165565b9050828152602081018484840111156141ef576141ee614100565b5b6141fa8482856141b1565b509392505050565b600082601f830112614217576142166140fb565b5b81356142278482602086016141c0565b91505092915050565b6000806000806080858703121561424a57614249613e2f565b5b6000614258878288016140a6565b9450506020614269878288016140a6565b935050604061427a87828801613e5a565b925050606085013567ffffffffffffffff81111561429b5761429a613e34565b5b6142a787828801614202565b91505092959194509250565b6142bc81613ec6565b82525050565b60006020820190506142d760008301846142b3565b92915050565b600080604083850312156142f4576142f3613e2f565b5b600061430285828601613e5a565b925050602061431385828601613e5a565b9150509250929050565b60008060006060848603121561433657614335613e2f565b5b6000614344868287016140a6565b9350506020614355868287016140a6565b925050604061436686828701613e5a565b9150509250925092565b6000819050919050565b61438381614370565b811461438e57600080fd5b50565b6000813590506143a08161437a565b92915050565b6000602082840312156143bc576143bb613e2f565b5b60006143ca84828501614391565b91505092915050565b6143dc81614370565b82525050565b60006020820190506143f760008301846143d3565b92915050565b6000806040838503121561441457614413613e2f565b5b600061442285828601614391565b9250506020614433858286016140a6565b9150509250929050565b600067ffffffffffffffff82111561445857614457614105565b5b602082029050602081019050919050565b600080fd5b600061448161447c8461443d565b614165565b905080838252602082019050602084028301858111156144a4576144a3614469565b5b835b818110156144cd57806144b98882613e5a565b8452602084019350506020810190506144a6565b5050509392505050565b600082601f8301126144ec576144eb6140fb565b5b81356144fc84826020860161446e565b91505092915050565b60008060008060008060c0878903121561452257614521613e2f565b5b600061453089828a01613e5a565b965050602061454189828a016140a6565b955050604061455289828a016140a6565b945050606087013567ffffffffffffffff81111561457357614572613e34565b5b61457f89828a016144d7565b935050608087013567ffffffffffffffff8111156145a05761459f613e34565b5b6145ac89828a016144d7565b92505060a087013567ffffffffffffffff8111156145cd576145cc613e34565b5b6145d989828a01614202565b9150509295509295509295565b600080604083850312156145fd576145fc613e2f565b5b600061460b85828601613e5a565b925050602061461c858286016140a6565b9150509250929050565b600081519050919050565b600082825260208201905092915050565b6000819050602082019050919050565b61465b81613e39565b82525050565b600061466d8383614652565b60208301905092915050565b6000602082019050919050565b600061469182614626565b61469b8185614631565b93506146a683614642565b8060005b838110156146d75781516146be8882614661565b97506146c983614679565b9250506001810190506146aa565b5085935050505092915050565b600060208201905081810360008301526146fe8184614686565b905092915050565b60008060006060848603121561471f5761471e613e2f565b5b600061472d86828701613e5a565b935050602061473e868287016140a6565b925050604061474f86828701613e5a565b9150509250925092565b60006020828403121561476f5761476e613e2f565b5b600061477d848285016140a6565b91505092915050565b600081519050919050565b600082825260208201905092915050565b6000819050602082019050919050565b6147bb81614053565b82525050565b60006147cd83836147b2565b60208301905092915050565b6000602082019050919050565b60006147f182614786565b6147fb8185614791565b9350614806836147a2565b8060005b8381101561483757815161481e88826147c1565b9750614829836147d9565b92505060018101905061480a565b5085935050505092915050565b6000602082019050818103600083015261485e81846147e6565b905092915050565b600080600080600080600060e0888a03121561488557614884613e2f565b5b60006148938a828b01613e5a565b97505060206148a48a828b01613e5a565b96505060406148b58a828b016140a6565b95505060606148c68a828b016140a6565b94505060806148d78a828b01613e5a565b93505060a06148e88a828b01613e5a565b92505060c088013567ffffffffffffffff81111561490957614908613e34565b5b6149158a828b01614202565b91505092959891949750929550565b61492d81613f4b565b811461493857600080fd5b50565b60008135905061494a81614924565b92915050565b6000806040838503121561496757614966613e2f565b5b6000614975858286016140a6565b92505060206149868582860161493b565b9150509250929050565b600080600080600060a086880312156149ac576149ab613e2f565b5b60006149ba888289016140a6565b95505060206149cb888289016140a6565b945050604086013567ffffffffffffffff8111156149ec576149eb613e34565b5b6149f8888289016144d7565b935050606086013567ffffffffffffffff811115614a1957614a18613e34565b5b614a25888289016144d7565b925050608086013567ffffffffffffffff811115614a4657614a45613e34565b5b614a5288828901614202565b9150509295509295909350565b60008060408385031215614a7657614a75613e2f565b5b6000614a84858286016140a6565b9250506020614a95858286016140a6565b9150509250929050565b600080600080600060a08688031215614abb57614aba613e2f565b5b6000614ac9888289016140a6565b9550506020614ada888289016140a6565b9450506040614aeb88828901613e5a565b9350506060614afc88828901613e5a565b925050608086013567ffffffffffffffff811115614b1d57614b1c613e34565b5b614b2988828901614202565b9150509295509295909350565b7f4e487b7100000000000000000000000000000000000000000000000000000000600052602260045260246000fd5b60006002820490506001821680614b7d57607f821691505b602082108103614b9057614b8f614b36565b5b50919050565b7f4552433732313a20617070726f76616c20746f2063757272656e74206f776e6560008201527f7200000000000000000000000000000000000000000000000000000000000000602082015250565b6000614bf2602183613f8c565b9150614bfd82614b96565b604082019050919050565b60006020820190508181036000830152614c2181614be5565b9050919050565b7f4552433732313a20617070726f76652063616c6c6572206973206e6f7420746f60008201527f6b656e206f776e6572206e6f7220617070726f76656420666f7220616c6c0000602082015250565b6000614c84603e83613f8c565b9150614c8f82614c28565b604082019050919050565b60006020820190508181036000830152614cb381614c77565b9050919050565b7f4552433939383a2064617461206d75737420636f6e7461696e2074686520756e60008201527f697175652075696e7432353620746f6b656e496420746f207472616e7366657260208201527f20746865206368696c6420746f6b656e20746f00000000000000000000000000604082015250565b6000614d3c605383613f8c565b9150614d4782614cba565b606082019050919050565b60006020820190508181036000830152614d6b81614d2f565b9050919050565b7f4e487b7100000000000000000000000000000000000000000000000000000000600052601160045260246000fd5b6000614dac82613e39565b9150614db783613e39565b9250828203905081811115614dcf57614dce614d72565b5b92915050565b6000819050919050565b6000819050919050565b6000614e04614dff614dfa84614dd5565b614ddf565b613e39565b9050919050565b614e1481614de9565b82525050565b6000604082019050614e2f6000830185613e9c565b614e3c6020830184614e0b565b9392505050565b6000614e4e82613e39565b91507fffffffffffffffffffffffffffffffffffffffffffffffffffffffffffffffff8203614e8057614e7f614d72565b5b600182019050919050565b7f4552433732313a2063616c6c6572206973206e6f7420746f6b656e206f776e6560008201527f72206e6f7220617070726f766564000000000000000000000000000000000000602082015250565b6000614ee7602e83613f8c565b9150614ef282614e8b565b604082019050919050565b60006020820190508181036000830152614f1681614eda565b9050919050565b7f4552433939383a2069647320616e6420616d6f756e7473206c656e677468206d60008201527f69736d6174636800000000000000000000000000000000000000000000000000602082015250565b6000614f79602783613f8c565b9150614f8482614f1d565b604082019050919050565b60006020820190508181036000830152614fa881614f6c565b9050919050565b7f4552433939383a207472616e7366657220746f20746865207a65726f2061646460008201527f7265737300000000000000000000000000000000000000000000000000000000602082015250565b600061500b602483613f8c565b915061501682614faf565b604082019050919050565b6000602082019050818103600083015261503a81614ffe565b9050919050565b7f4552433939383a2063616c6c6572206973206e6f74206f776e6572206e6f722060008201527f617070726f766564000000000000000000000000000000000000000000000000602082015250565b600061509d602883613f8c565b91506150a882615041565b604082019050919050565b600060208201905081810360008301526150cc81615090565b9050919050565b7f4e487b7100000000000000000000000000000000000000000000000000000000600052603260045260246000fd5b600081519050919050565b600082825260208201905092915050565b600061512982615102565b615133818561510d565b9350615143818560208601613f9d565b61514c81613fc7565b840191505092915050565b600060a08201905061516c6000830188614065565b6151796020830187614065565b818103604083015261518b8186614686565b9050818103606083015261519f8185614686565b905081810360808301526151b3818461511e565b90509695505050505050565b600060408201905081810360008301526151d98185614686565b905081810360208301526151ed8184614686565b90509392505050565b7f416363657373436f6e74726f6c3a2063616e206f6e6c792072656e6f756e636560008201527f20726f6c657320666f722073656c660000000000000000000000000000000000602082015250565b6000615252602f83613f8c565b915061525d826151f6565b604082019050919050565b6000602082019050818103600083015261528181615245565b9050919050565b7f4552433732315072657365744d696e7465725061757365724175746f49643a2060008201527f6d75737420686176652070617573657220726f6c6520746f20756e7061757365602082015250565b60006152e4604083613f8c565b91506152ef82615288565b604082019050919050565b60006020820190508181036000830152615313816152d7565b9050919050565b7f4552433732314275726e61626c653a2063616c6c6572206973206e6f74206f7760008201527f6e6572206e6f7220617070726f76656400000000000000000000000000000000602082015250565b6000615376603083613f8c565b91506153818261531a565b604082019050919050565b600060208201905081810360008301526153a581615369565b9050919050565b7f4552433732313a20696e76616c696420746f6b656e2049440000000000000000600082015250565b60006153e2601883613f8c565b91506153ed826153ac565b602082019050919050565b60006020820190508181036000830152615411816153d5565b9050919050565b7f4552433732313a2061646472657373207a65726f206973206e6f74206120766160008201527f6c6964206f776e65720000000000000000000000000000000000000000000000602082015250565b6000615474602983613f8c565b915061547f82615418565b604082019050919050565b600060208201905081810360008301526154a381615467565b9050919050565b7f4552433732315072657365744d696e7465725061757365724175746f49643a2060008201527f6d75737420686176652070617573657220726f6c6520746f2070617573650000602082015250565b6000615506603e83613f8c565b9150615511826154aa565b604082019050919050565b60006020820190508181036000830152615535816154f9565b9050919050565b600060a0820190506155516000830188614065565b61555e6020830187614065565b61556b6040830186613e9c565b6155786060830185613e9c565b818103608083015261558a818461511e565b90509695505050505050565b60006040820190506155ab6000830185613e9c565b6155b86020830184613e9c565b9392505050565b60006080820190506155d46000830187614065565b6155e16020830186614065565b6155ee6040830185613e9c565b8181036060830152615600818461511e565b905095945050505050565b7f455243313135353a2069647320616e642076616c756573206c656e677468206d60008201527f69736d6174636800000000000000000000000000000000000000000000000000602082015250565b6000615667602783613f8c565b91506156728261560b565b604082019050919050565b600060208201905081810360008301526156968161565a565b9050919050565b600081905092915050565b60006156b382613f81565b6156bd818561569d565b93506156cd818560208601613f9d565b80840191505092915050565b60006156e582856156a8565b91506156f182846156a8565b91508190509392505050565b600061570882613e39565b915061571383613e39565b925082820190508082111561572b5761572a614d72565b5b92915050565b7f4552433732313a207472616e736665722066726f6d20696e636f72726563742060008201527f6f776e6572000000000000000000000000000000000000000000000000000000602082015250565b600061578d602583613f8c565b915061579882615731565b604082019050919050565b600060208201905081810360008301526157bc81615780565b9050919050565b7f4552433732313a207472616e7366657220746f20746865207a65726f2061646460008201527f7265737300000000000000000000000000000000000000000000000000000000602082015250565b600061581f602483613f8c565b915061582a826157c3565b604082019050919050565b6000602082019050818103600083015261584e81615812565b9050919050565b7f4552433939385061757361626c653a206368696c64207472616e73666572207760008201527f68696c6520706175736564000000000000000000000000000000000000000000602082015250565b60006158b1602b83613f8c565b91506158bc82615855565b604082019050919050565b600060208201905081810360008301526158e0816158a4565b9050919050565b7f4552433939383a20696e73756666696369656e74206368696c642062616c616e60008201527f636520666f72207472616e736665720000000000000000000000000000000000602082015250565b6000615943602f83613f8c565b915061594e826158e7565b604082019050919050565b6000602082019050818103600083015261597281615936565b9050919050565b7f4552433732313a206d696e7420746f20746865207a65726f2061646472657373600082015250565b60006159af602083613f8c565b91506159ba82615979565b602082019050919050565b600060208201905081810360008301526159de816159a2565b9050919050565b7f4552433732313a20746f6b656e20616c7265616479206d696e74656400000000600082015250565b6000615a1b601c83613f8c565b9150615a26826159e5565b602082019050919050565b60006020820190508181036000830152615a4a81615a0e565b9050919050565b7f4552433732313a20617070726f766520746f2063616c6c657200000000000000600082015250565b6000615a87601983613f8c565b9150615a9282615a51565b602082019050919050565b60006020820190508181036000830152615ab681615a7a565b9050919050565b7f4552433732313a207472616e7366657220746f206e6f6e20455243373231526560008201527f63656976657220696d706c656d656e7465720000000000000000000000000000602082015250565b6000615b19603283613f8c565b9150615b2482615abd565b604082019050919050565b60006020820190508181036000830152615b4881615b0c565b9050919050565b7f4e487b7100000000000000000000000000000000000000000000000000000000600052601260045260246000fd5b6000615b8982613e39565b9150615b9483613e39565b925082615ba457615ba3615b4f565b5b828204905092915050565b6000615bba82613e39565b9150615bc583613e39565b925082615bd557615bd4615b4f565b5b828206905092915050565b7f4552433732315061757361626c653a20746f6b656e207472616e73666572207760008201527f68696c6520706175736564000000000000000000000000000000000000000000602082015250565b6000615c3c602b83613f8c565b9150615c4782615be0565b604082019050919050565b60006020820190508181036000830152615c6b81615c2f565b9050919050565b7f416363657373436f6e74726f6c3a206163636f756e7420000000000000000000600082015250565b6000615ca860178361569d565b9150615cb382615c72565b601782019050919050565b7f206973206d697373696e6720726f6c6520000000000000000000000000000000600082015250565b6000615cf460118361569d565b9150615cff82615cbe565b601182019050919050565b6000615d1582615c9b565b9150615d2182856156a8565b9150615d2c82615ce7565b9150615d3882846156a8565b91508190509392505050565b7f5061757361626c653a206e6f7420706175736564000000000000000000000000600082015250565b6000615d7a601483613f8c565b9150615d8582615d44565b602082019050919050565b60006020820190508181036000830152615da981615d6d565b9050919050565b7f5061757361626c653a2070617573656400000000000000000000000000000000600082015250565b6000615de6601083613f8c565b9150615df182615db0565b602082019050919050565b60006020820190508181036000830152615e1581615dd9565b9050919050565b600081519050615e2b81613ef2565b92915050565b600060208284031215615e4757615e46613e2f565b5b6000615e5584828501615e1c565b91505092915050565b6000615e6982613e39565b9150615e7483613e39565b9250828202615e8281613e39565b91508282048414831517615e9957615e98614d72565b5b5092915050565b6000615eab82613e39565b915060008203615ebe57615ebd614d72565b5b600182039050919050565b7f537472696e67733a20686578206c656e67746820696e73756666696369656e74600082015250565b6000615eff602083613f8c565b9150615f0a82615ec9565b602082019050919050565b60006020820190508181036000830152615f2e81615ef2565b9050919050565b7f4e487b7100000000000000000000000000000000000000000000000000000000600052603160045260246000fdfea264697066735822122076822d73241f887ee63e08b014ed38d1fda6d9f9bccafe0efd488f8380a648df64736f6c63430008110033",
  "immutableReferences": {},
  "source": "// SPDX-License-Identifier: MIT\r\n\r\npragma solidity ^0.8.0;\r\n\r\n/* import \"https://github.com/OpenZeppelin/openzeppelin-contracts/blob/master/contracts/access/AccessControl.sol\";\r\nimport \"https://github.com/OpenZeppelin/openzeppelin-contracts/blob/master/contracts/GSN/Context.sol\";\r\nimport \"https://github.com/OpenZeppelin/openzeppelin-contracts/blob/master/contracts/utils/Pausable.sol\"; */\r\n\r\nimport \"@openzeppelin/contracts/access/AccessControl.sol\";\r\nimport \"@openzeppelin/contracts/utils/Context.sol\";\r\nimport \"@openzeppelin/contracts/security/Pausable.sol\";\r\n\r\nimport \"./ERC998ERC1155TopDown.sol\";\r\n\r\n/**\r\n * @dev {ERC998} token, including:\r\n *\r\n *  - ability for holders to burn (destroy) their tokens\r\n *  - a minter role that allows for token minting (creation)\r\n *  - a pauser role that allows to stop all token transfers\r\n *\r\n * This contract uses {AccessControl} to lock permissioned functions using the\r\n * different roles - head to its documentation for details.\r\n *\r\n * The account that deploys the contract will be granted the minter and pauser\r\n * roles, as well as the default admin role, which will let it grant both minter\r\n * and pauser roles to other accounts.\r\n */\r\ncontract ERC998ERC1155TopDownPresetMinterPauser is Context, AccessControl, ERC998ERC1155TopDown, Pausable {\r\n    bytes32 public constant MINTER_ROLE = keccak256(\"MINTER_ROLE\");\r\n    bytes32 public constant PAUSER_ROLE = keccak256(\"PAUSER_ROLE\");\r\n\r\n    /**\r\n     * @dev Grants `DEFAULT_ADMIN_ROLE`, `MINTER_ROLE` and `PAUSER_ROLE` to the\r\n     * account that deploys the contract.\r\n     *\r\n     * Token URIs will be autogenerated based on `baseURI` and their token IDs.\r\n     * See {ERC721-tokenURI}.\r\n     */\r\n    constructor(string memory name, string memory symbol, string memory baseURI) public ERC998ERC1155TopDown(name, symbol, baseURI) {\r\n        _setupRole(DEFAULT_ADMIN_ROLE, _msgSender());\r\n        _setupRole(MINTER_ROLE, _msgSender());\r\n        _setupRole(PAUSER_ROLE, _msgSender());\r\n    }\r\n\r\n    /**\r\n     * @dev Creates a new token for `to`. The token URI autogenerated based on\r\n     * the base URI passed at construction and the token ID.\r\n     *\r\n     * See {ERC721-_mint}.\r\n     *\r\n     * Requirements:\r\n     *\r\n     * - the caller must have the `MINTER_ROLE`.\r\n     */\r\n    function mint(address to, uint256 tokenId) public virtual {\r\n        //require(hasRole(MINTER_ROLE, _msgSender()), \"ERC721: must have minter role to mint in ERC998\");\r\n\r\n        // We cannot just use balanceOf to create the new tokenId because tokens\r\n        // can be burned (destroyed), so we need a separate counter.\r\n        _mint(to, tokenId);\r\n    }\r\n\r\n\r\n    /**\r\n     * @dev Burns `tokenId`. See {ERC721-_burn}.\r\n     *\r\n     * Requirements:\r\n     *\r\n     * - The caller must own `tokenId` or be an approved operator.\r\n     */\r\n    function burn(uint256 tokenId) public virtual {\r\n        //solhint-disable-next-line max-line-length\r\n        require(_isApprovedOrOwner(_msgSender(), tokenId), \"ERC721Burnable: caller is not owner nor approved\");\r\n        _burn(tokenId);\r\n    }\r\n\r\n    /**\r\n     * @dev Pauses all token transfers.\r\n     *\r\n     * See {ERC721Pausable} and {Pausable-_pause}.\r\n     *\r\n     * Requirements:\r\n     *\r\n     * - the caller must have the `PAUSER_ROLE`.\r\n     */\r\n    function pause() public virtual {\r\n        require(hasRole(PAUSER_ROLE, _msgSender()), \"ERC721PresetMinterPauserAutoId: must have pauser role to pause\");\r\n        _pause();\r\n    }\r\n\r\n    /**\r\n     * @dev Unpauses all token transfers.\r\n     *\r\n     * See {ERC721Pausable} and {Pausable-_unpause}.\r\n     *\r\n     * Requirements:\r\n     *\r\n     * - the caller must have the `PAUSER_ROLE`.\r\n     */\r\n    function unpause() public virtual {\r\n        require(hasRole(PAUSER_ROLE, _msgSender()), \"ERC721PresetMinterPauserAutoId: must have pauser role to unpause\");\r\n        _unpause();\r\n    }\r\n\r\n    /**\r\n     * @dev See {ERC721-_beforeTokenTransfer}.\r\n     *\r\n     * Requirements:\r\n     *\r\n     * - the contract must not be paused.\r\n     */\r\n    function _beforeTokenTransfer(address from, address to, uint256 tokenId) internal virtual override {\r\n        require(!paused(), \"ERC721Pausable: token transfer while paused\");\r\n\r\n        super._beforeTokenTransfer(from, to, tokenId);\r\n    }\r\n\r\n    function _beforeChildTransfer(\r\n        address operator,\r\n        uint256 fromTokenId,\r\n        address to,\r\n        address childContract,\r\n        uint256[] memory ids,\r\n        uint256[] memory amounts,\r\n        bytes memory data\r\n    )\r\n        internal virtual override\r\n    {\r\n        require(!paused(), \"ERC998Pausable: child transfer while paused\");\r\n\r\n        super._beforeChildTransfer(operator, fromTokenId, to, childContract, ids, amounts, data);\r\n    }\r\n\r\n    function supportsInterface(bytes4 interfaceId) public view virtual override(ERC721, IERC165, AccessControl) returns (bool) {\r\n        return super.supportsInterface(interfaceId);\r\n    }\r\n}\r\n",
  "sourcePath": "C:\\Users\\prami\\OneDrive\\Desktop\\Thesis\\composo\\supp_chain\\truffle\\contracts\\ERC998ERC1155TopDownPresetMinterPauser.sol",
  "compiler": {
    "name": "solc",
    "version": "0.8.17+commit.8df45f5f.Emscripten.clang"
  },
  "schemaVersion": "3.4.10",
  "updatedAt": "2022-11-01T15:30:14.413Z",
  "networkType": "ethereum",
  "devdoc": {
    "details": "{ERC998} token, including:  - ability for holders to burn (destroy) their tokens  - a minter role that allows for token minting (creation)  - a pauser role that allows to stop all token transfers This contract uses {AccessControl} to lock permissioned functions using the different roles - head to its documentation for details. The account that deploys the contract will be granted the minter and pauser roles, as well as the default admin role, which will let it grant both minter and pauser roles to other accounts.",
    "kind": "dev",
    "methods": {
      "approve(address,uint256)": {
        "details": "See {IERC721-approve}."
      },
      "balanceOf(address)": {
        "details": "See {IERC721-balanceOf}."
      },
      "burn(uint256)": {
        "details": "Burns `tokenId`. See {ERC721-_burn}. Requirements: - The caller must own `tokenId` or be an approved operator."
      },
      "childBalance(uint256,address,uint256)": {
        "details": "Gives child balance for a specific child contract and child id ."
      },
      "childContractsFor(uint256)": {
        "details": "Gives list of child contract where token ID has childs."
      },
      "childIdsOwned(uint256,address)": {
        "details": "Gives list of owned child ID on a child contract by parent token ID and child contract."
      },
      "constructor": {
        "details": "Grants `DEFAULT_ADMIN_ROLE`, `MINTER_ROLE` and `PAUSER_ROLE` to the account that deploys the contract. Token URIs will be autogenerated based on `baseURI` and their token IDs. See {ERC721-tokenURI}."
      },
      "getApproved(uint256)": {
        "details": "See {IERC721-getApproved}."
      },
      "getChildContract(uint256,uint256)": {
        "details": "Returns the contract address of the child token ID, given a parent and child token ID."
      },
      "getIsERC1155(uint256)": {
        "details": "gets true if tokenID is ERC1155"
      },
      "getMsgSender()": {
        "details": "Wrapper function to get message sender."
      },
      "getOwner(uint256)": {
        "details": "Returns the owner of the token specified by tokenId. Wrapper function for ERC721 function ownerOf(). "
      },
      "getRoleAdmin(bytes32)": {
        "details": "Returns the admin role that controls `role`. See {grantRole} and {revokeRole}. To change a role's admin, use {_setRoleAdmin}."
      },
      "getRootOwners()": {
        "details": "gets root owners"
      },
      "grantRole(bytes32,address)": {
        "details": "Grants `role` to `account`. If `account` had not been already granted `role`, emits a {RoleGranted} event. Requirements: - the caller must have ``role``'s admin role. May emit a {RoleGranted} event."
      },
      "hasRole(bytes32,address)": {
        "details": "Returns `true` if `account` has been granted `role`."
      },
      "isApprovedForAll(address,address)": {
        "details": "See {IERC721-isApprovedForAll}."
      },
      "mint(address,uint256)": {
        "details": "Creates a new token for `to`. The token URI autogenerated based on the base URI passed at construction and the token ID. See {ERC721-_mint}. Requirements: - the caller must have the `MINTER_ROLE`."
      },
      "name()": {
        "details": "See {IERC721Metadata-name}."
      },
      "onERC1155BatchReceived(address,address,uint256[],uint256[],bytes)": {
        "details": "Receives a batch of child tokens, the receiver token ID must be encoded in the field data."
      },
      "onERC1155Received(address,address,uint256,uint256,bytes)": {
        "details": "Receives a child token, the receiver token ID must be encoded in the field data."
      },
      "onERC721Received(address,address,uint256,bytes)": {
        "details": "Receives a child 998 token, the receiver token ID must be encoded in the field data."
      },
      "ownerOf(uint256)": {
        "details": "See {IERC721-ownerOf}."
      },
      "pause()": {
        "details": "Pauses all token transfers. See {ERC721Pausable} and {Pausable-_pause}. Requirements: - the caller must have the `PAUSER_ROLE`."
      },
      "paused()": {
        "details": "Returns true if the contract is paused, and false otherwise."
      },
      "renounceRole(bytes32,address)": {
        "details": "Revokes `role` from the calling account. Roles are often managed via {grantRole} and {revokeRole}: this function's purpose is to provide a mechanism for accounts to lose their privileges if they are compromised (such as when a trusted device is misplaced). If the calling account had been revoked `role`, emits a {RoleRevoked} event. Requirements: - the caller must be `account`. May emit a {RoleRevoked} event."
      },
      "revokeRole(bytes32,address)": {
        "details": "Revokes `role` from `account`. If `account` had been granted `role`, emits a {RoleRevoked} event. Requirements: - the caller must have ``role``'s admin role. May emit a {RoleRevoked} event."
      },
      "safeBatchTransferChildFrom(uint256,address,address,uint256[],uint256[],bytes)": {
        "details": "Transfers batch of child tokens from a token ID."
      },
      "safeTransferChildFrom(uint256,uint256,address,address,uint256,uint256,bytes)": {
        "details": "Transfers child token from a token ID."
      },
      "safeTransferFrom(address,address,uint256)": {
        "details": "See {IERC721-safeTransferFrom}."
      },
      "safeTransferFrom(address,address,uint256,bytes)": {
        "details": "See {IERC721-safeTransferFrom}."
      },
      "setApprovalForAll(address,bool)": {
        "details": "See {IERC721-setApprovalForAll}."
      },
      "setIsERC1155(uint256)": {
        "details": "Sets isERC1155 array "
      },
      "setRootOwner(uint256)": {
        "details": "set root owner"
      },
      "symbol()": {
        "details": "See {IERC721Metadata-symbol}."
      },
      "tokenURI(uint256)": {
        "details": "See {IERC721Metadata-tokenURI}."
      },
      "transferFrom(address,address,uint256)": {
        "details": "See {IERC721-transferFrom}."
      },
      "unpause()": {
        "details": "Unpauses all token transfers. See {ERC721Pausable} and {Pausable-_unpause}. Requirements: - the caller must have the `PAUSER_ROLE`."
      }
    },
    "version": 1
  },
  "userdoc": {
    "kind": "user",
    "methods": {},
    "version": 1
  }
}