{
  "contractName": "ERC998ERC1155TopDown",
  "abi": [
    {
      "inputs": [
        {
          "internalType": "string",
          "name": "name",
          "type": "string"
        },
        {
          "internalType": "string",
          "name": "symbol",
          "type": "string"
        },
        {
          "internalType": "string",
          "name": "baseURI",
          "type": "string"
        }
      ],
      "stateMutability": "nonpayable",
      "type": "constructor"
    },
    {
      "anonymous": false,
      "inputs": [
        {
          "indexed": true,
          "internalType": "address",
          "name": "owner",
          "type": "address"
        },
        {
          "indexed": true,
          "internalType": "address",
          "name": "approved",
          "type": "address"
        },
        {
          "indexed": true,
          "internalType": "uint256",
          "name": "tokenId",
          "type": "uint256"
        }
      ],
      "name": "Approval",
      "type": "event"
    },
    {
      "anonymous": false,
      "inputs": [
        {
          "indexed": true,
          "internalType": "address",
          "name": "owner",
          "type": "address"
        },
        {
          "indexed": true,
          "internalType": "address",
          "name": "operator",
          "type": "address"
        },
        {
          "indexed": false,
          "internalType": "bool",
          "name": "approved",
          "type": "bool"
        }
      ],
      "name": "ApprovalForAll",
      "type": "event"
    },
    {
      "anonymous": false,
      "inputs": [
        {
          "indexed": true,
          "internalType": "address",
          "name": "from",
          "type": "address"
        },
        {
          "indexed": true,
          "internalType": "uint256",
          "name": "toTokenId",
          "type": "uint256"
        },
        {
          "indexed": true,
          "internalType": "address",
          "name": "childContract",
          "type": "address"
        },
        {
          "indexed": false,
          "internalType": "uint256",
          "name": "childTokenId",
          "type": "uint256"
        },
        {
          "indexed": false,
          "internalType": "uint256",
          "name": "amount",
          "type": "uint256"
        }
      ],
      "name": "ReceivedChild",
      "type": "event"
    },
    {
      "anonymous": false,
      "inputs": [
        {
          "indexed": true,
          "internalType": "address",
          "name": "from",
          "type": "address"
        },
        {
          "indexed": true,
          "internalType": "address",
          "name": "to",
          "type": "address"
        },
        {
          "indexed": true,
          "internalType": "uint256",
          "name": "tokenId",
          "type": "uint256"
        }
      ],
      "name": "Transfer",
      "type": "event"
    },
    {
      "anonymous": false,
      "inputs": [
        {
          "indexed": true,
          "internalType": "uint256",
          "name": "fromTokenId",
          "type": "uint256"
        },
        {
          "indexed": true,
          "internalType": "address",
          "name": "to",
          "type": "address"
        },
        {
          "indexed": true,
          "internalType": "address",
          "name": "childContract",
          "type": "address"
        },
        {
          "indexed": false,
          "internalType": "uint256[]",
          "name": "childTokenIds",
          "type": "uint256[]"
        },
        {
          "indexed": false,
          "internalType": "uint256[]",
          "name": "amounts",
          "type": "uint256[]"
        }
      ],
      "name": "TransferBatchChild",
      "type": "event"
    },
    {
      "anonymous": false,
      "inputs": [
        {
          "indexed": true,
          "internalType": "uint256",
          "name": "fromTokenId",
          "type": "uint256"
        },
        {
          "indexed": true,
          "internalType": "address",
          "name": "to",
          "type": "address"
        },
        {
          "indexed": true,
          "internalType": "address",
          "name": "childContract",
          "type": "address"
        },
        {
          "indexed": false,
          "internalType": "uint256",
          "name": "childTokenId",
          "type": "uint256"
        },
        {
          "indexed": false,
          "internalType": "uint256",
          "name": "amount",
          "type": "uint256"
        }
      ],
      "name": "TransferSingleChild",
      "type": "event"
    },
    {
      "inputs": [
        {
          "internalType": "uint256",
          "name": "",
          "type": "uint256"
        },
        {
          "internalType": "address",
          "name": "",
          "type": "address"
        },
        {
          "internalType": "uint256",
          "name": "",
          "type": "uint256"
        }
      ],
      "name": "_balances",
      "outputs": [
        {
          "internalType": "uint256",
          "name": "",
          "type": "uint256"
        }
      ],
      "stateMutability": "view",
      "type": "function",
      "constant": true
    },
    {
      "inputs": [
        {
          "internalType": "address",
          "name": "to",
          "type": "address"
        },
        {
          "internalType": "uint256",
          "name": "tokenId",
          "type": "uint256"
        }
      ],
      "name": "approve",
      "outputs": [],
      "stateMutability": "nonpayable",
      "type": "function"
    },
    {
      "inputs": [
        {
          "internalType": "address",
          "name": "owner",
          "type": "address"
        }
      ],
      "name": "balanceOf",
      "outputs": [
        {
          "internalType": "uint256",
          "name": "",
          "type": "uint256"
        }
      ],
      "stateMutability": "view",
      "type": "function",
      "constant": true
    },
    {
      "inputs": [
        {
          "internalType": "uint256",
          "name": "tokenId",
          "type": "uint256"
        }
      ],
      "name": "getApproved",
      "outputs": [
        {
          "internalType": "address",
          "name": "",
          "type": "address"
        }
      ],
      "stateMutability": "view",
      "type": "function",
      "constant": true
    },
    {
      "inputs": [
        {
          "internalType": "address",
          "name": "owner",
          "type": "address"
        },
        {
          "internalType": "address",
          "name": "operator",
          "type": "address"
        }
      ],
      "name": "isApprovedForAll",
      "outputs": [
        {
          "internalType": "bool",
          "name": "",
          "type": "bool"
        }
      ],
      "stateMutability": "view",
      "type": "function",
      "constant": true
    },
    {
      "inputs": [
        {
          "internalType": "uint256",
          "name": "",
          "type": "uint256"
        }
      ],
      "name": "isERC1155",
      "outputs": [
        {
          "internalType": "bool",
          "name": "",
          "type": "bool"
        }
      ],
      "stateMutability": "view",
      "type": "function",
      "constant": true
    },
    {
      "inputs": [
        {
          "internalType": "uint256",
          "name": "",
          "type": "uint256"
        }
      ],
      "name": "isERC721",
      "outputs": [
        {
          "internalType": "bool",
          "name": "",
          "type": "bool"
        }
      ],
      "stateMutability": "view",
      "type": "function",
      "constant": true
    },
    {
      "inputs": [],
      "name": "name",
      "outputs": [
        {
          "internalType": "string",
          "name": "",
          "type": "string"
        }
      ],
      "stateMutability": "view",
      "type": "function",
      "constant": true
    },
    {
      "inputs": [
        {
          "internalType": "uint256",
          "name": "tokenId",
          "type": "uint256"
        }
      ],
      "name": "ownerOf",
      "outputs": [
        {
          "internalType": "address",
          "name": "",
          "type": "address"
        }
      ],
      "stateMutability": "view",
      "type": "function",
      "constant": true
    },
    {
      "inputs": [
        {
          "internalType": "address",
          "name": "from",
          "type": "address"
        },
        {
          "internalType": "address",
          "name": "to",
          "type": "address"
        },
        {
          "internalType": "uint256",
          "name": "tokenId",
          "type": "uint256"
        }
      ],
      "name": "safeTransferFrom",
      "outputs": [],
      "stateMutability": "nonpayable",
      "type": "function"
    },
    {
      "inputs": [
        {
          "internalType": "address",
          "name": "from",
          "type": "address"
        },
        {
          "internalType": "address",
          "name": "to",
          "type": "address"
        },
        {
          "internalType": "uint256",
          "name": "tokenId",
          "type": "uint256"
        },
        {
          "internalType": "bytes",
          "name": "data",
          "type": "bytes"
        }
      ],
      "name": "safeTransferFrom",
      "outputs": [],
      "stateMutability": "nonpayable",
      "type": "function"
    },
    {
      "inputs": [
        {
          "internalType": "address",
          "name": "operator",
          "type": "address"
        },
        {
          "internalType": "bool",
          "name": "approved",
          "type": "bool"
        }
      ],
      "name": "setApprovalForAll",
      "outputs": [],
      "stateMutability": "nonpayable",
      "type": "function"
    },
    {
      "inputs": [
        {
          "internalType": "bytes4",
          "name": "interfaceId",
          "type": "bytes4"
        }
      ],
      "name": "supportsInterface",
      "outputs": [
        {
          "internalType": "bool",
          "name": "",
          "type": "bool"
        }
      ],
      "stateMutability": "view",
      "type": "function",
      "constant": true
    },
    {
      "inputs": [],
      "name": "symbol",
      "outputs": [
        {
          "internalType": "string",
          "name": "",
          "type": "string"
        }
      ],
      "stateMutability": "view",
      "type": "function",
      "constant": true
    },
    {
      "inputs": [
        {
          "internalType": "uint256",
          "name": "tokenId",
          "type": "uint256"
        }
      ],
      "name": "tokenURI",
      "outputs": [
        {
          "internalType": "string",
          "name": "",
          "type": "string"
        }
      ],
      "stateMutability": "view",
      "type": "function",
      "constant": true
    },
    {
      "inputs": [
        {
          "internalType": "address",
          "name": "from",
          "type": "address"
        },
        {
          "internalType": "address",
          "name": "to",
          "type": "address"
        },
        {
          "internalType": "uint256",
          "name": "tokenId",
          "type": "uint256"
        }
      ],
      "name": "transferFrom",
      "outputs": [],
      "stateMutability": "nonpayable",
      "type": "function"
    },
    {
      "inputs": [
        {
          "internalType": "uint256",
          "name": "tokenId",
          "type": "uint256"
        },
        {
          "internalType": "address",
          "name": "childContract",
          "type": "address"
        },
        {
          "internalType": "uint256",
          "name": "childTokenId",
          "type": "uint256"
        }
      ],
      "name": "childBalance",
      "outputs": [
        {
          "internalType": "uint256",
          "name": "",
          "type": "uint256"
        }
      ],
      "stateMutability": "view",
      "type": "function",
      "constant": true
    },
    {
      "inputs": [
        {
          "internalType": "uint256",
          "name": "tokenId",
          "type": "uint256"
        }
      ],
      "name": "childContractsFor",
      "outputs": [
        {
          "internalType": "address[]",
          "name": "",
          "type": "address[]"
        }
      ],
      "stateMutability": "view",
      "type": "function",
      "constant": true
    },
    {
      "inputs": [
        {
          "internalType": "uint256",
          "name": "tokenId",
          "type": "uint256"
        },
        {
          "internalType": "address",
          "name": "childContract",
          "type": "address"
        }
      ],
      "name": "childIdsOwned",
      "outputs": [
        {
          "internalType": "uint256[]",
          "name": "",
          "type": "uint256[]"
        }
      ],
      "stateMutability": "view",
      "type": "function",
      "constant": true
    },
    {
      "inputs": [
        {
          "internalType": "uint256",
          "name": "fromTokenId",
          "type": "uint256"
        },
        {
          "internalType": "address",
          "name": "to",
          "type": "address"
        },
        {
          "internalType": "address",
          "name": "childContract",
          "type": "address"
        },
        {
          "internalType": "uint256",
          "name": "childTokenId",
          "type": "uint256"
        },
        {
          "internalType": "uint256",
          "name": "amount",
          "type": "uint256"
        },
        {
          "internalType": "bytes",
          "name": "data",
          "type": "bytes"
        }
      ],
      "name": "safeTransferChildFrom",
      "outputs": [],
      "stateMutability": "nonpayable",
      "type": "function"
    },
    {
      "inputs": [
        {
          "internalType": "uint256",
          "name": "tokenID",
          "type": "uint256"
        }
      ],
      "name": "getOwner",
      "outputs": [
        {
          "internalType": "address",
          "name": "",
          "type": "address"
        }
      ],
      "stateMutability": "view",
      "type": "function",
      "constant": true
    },
    {
      "inputs": [
        {
          "internalType": "uint256",
          "name": "tokenID",
          "type": "uint256"
        }
      ],
      "name": "setIsERC1155",
      "outputs": [],
      "stateMutability": "nonpayable",
      "type": "function"
    },
    {
      "inputs": [
        {
          "internalType": "uint256",
          "name": "tokenID",
          "type": "uint256"
        }
      ],
      "name": "getIsERC1155",
      "outputs": [
        {
          "internalType": "bool",
          "name": "",
          "type": "bool"
        }
      ],
      "stateMutability": "view",
      "type": "function",
      "constant": true
    },
    {
      "inputs": [
        {
          "internalType": "uint256",
          "name": "tokenID",
          "type": "uint256"
        },
        {
          "internalType": "uint256",
          "name": "childTokenID",
          "type": "uint256"
        }
      ],
      "name": "getChildContract",
      "outputs": [
        {
          "internalType": "address",
          "name": "",
          "type": "address"
        }
      ],
      "stateMutability": "view",
      "type": "function",
      "constant": true
    },
    {
      "inputs": [],
      "name": "getMsgSender",
      "outputs": [
        {
          "internalType": "address",
          "name": "",
          "type": "address"
        }
      ],
      "stateMutability": "view",
      "type": "function",
      "constant": true
    },
    {
      "inputs": [
        {
          "internalType": "uint256",
          "name": "fromTokenId",
          "type": "uint256"
        },
        {
          "internalType": "address",
          "name": "to",
          "type": "address"
        },
        {
          "internalType": "address",
          "name": "childContract",
          "type": "address"
        },
        {
          "internalType": "uint256[]",
          "name": "childTokenIds",
          "type": "uint256[]"
        },
        {
          "internalType": "uint256[]",
          "name": "amounts",
          "type": "uint256[]"
        },
        {
          "internalType": "bytes",
          "name": "data",
          "type": "bytes"
        }
      ],
      "name": "safeBatchTransferChildFrom",
      "outputs": [],
      "stateMutability": "nonpayable",
      "type": "function"
    },
    {
      "inputs": [
        {
          "internalType": "address",
          "name": "operator",
          "type": "address"
        },
        {
          "internalType": "address",
          "name": "from",
          "type": "address"
        },
        {
          "internalType": "uint256",
          "name": "id",
          "type": "uint256"
        },
        {
          "internalType": "uint256",
          "name": "amount",
          "type": "uint256"
        },
        {
          "internalType": "bytes",
          "name": "data",
          "type": "bytes"
        }
      ],
      "name": "onERC1155Received",
      "outputs": [
        {
          "internalType": "bytes4",
          "name": "",
          "type": "bytes4"
        }
      ],
      "stateMutability": "nonpayable",
      "type": "function"
    },
    {
      "inputs": [
        {
          "internalType": "address",
          "name": "operator",
          "type": "address"
        },
        {
          "internalType": "address",
          "name": "from",
          "type": "address"
        },
        {
          "internalType": "uint256",
          "name": "tokenId",
          "type": "uint256"
        },
        {
          "internalType": "bytes",
          "name": "data",
          "type": "bytes"
        }
      ],
      "name": "onERC721Received",
      "outputs": [
        {
          "internalType": "bytes4",
          "name": "",
          "type": "bytes4"
        }
      ],
      "stateMutability": "nonpayable",
      "type": "function"
    },
    {
      "inputs": [
        {
          "internalType": "address",
          "name": "operator",
          "type": "address"
        },
        {
          "internalType": "address",
          "name": "from",
          "type": "address"
        },
        {
          "internalType": "uint256[]",
          "name": "ids",
          "type": "uint256[]"
        },
        {
          "internalType": "uint256[]",
          "name": "values",
          "type": "uint256[]"
        },
        {
          "internalType": "bytes",
          "name": "data",
          "type": "bytes"
        }
      ],
      "name": "onERC1155BatchReceived",
      "outputs": [
        {
          "internalType": "bytes4",
          "name": "",
          "type": "bytes4"
        }
      ],
      "stateMutability": "nonpayable",
      "type": "function"
    }
  ],
  "bytecode": "0x60806040523480156200001157600080fd5b5060405162004da938038062004da9833981810160405281019062000037919062000223565b828281600090816200004a919062000527565b5080600190816200005c919062000527565b5050506200006f6200007960201b60201c565b505050506200060e565b606060405180602001604052806000815250905090565b6000604051905090565b600080fd5b600080fd5b600080fd5b600080fd5b6000601f19601f8301169050919050565b7f4e487b7100000000000000000000000000000000000000000000000000000000600052604160045260246000fd5b620000f982620000ae565b810181811067ffffffffffffffff821117156200011b576200011a620000bf565b5b80604052505050565b60006200013062000090565b90506200013e8282620000ee565b919050565b600067ffffffffffffffff821115620001615762000160620000bf565b5b6200016c82620000ae565b9050602081019050919050565b60005b83811015620001995780820151818401526020810190506200017c565b60008484015250505050565b6000620001bc620001b68462000143565b62000124565b905082815260208101848484011115620001db57620001da620000a9565b5b620001e884828562000179565b509392505050565b600082601f830112620002085762000207620000a4565b5b81516200021a848260208601620001a5565b91505092915050565b6000806000606084860312156200023f576200023e6200009a565b5b600084015167ffffffffffffffff81111562000260576200025f6200009f565b5b6200026e86828701620001f0565b935050602084015167ffffffffffffffff8111156200029257620002916200009f565b5b620002a086828701620001f0565b925050604084015167ffffffffffffffff811115620002c457620002c36200009f565b5b620002d286828701620001f0565b9150509250925092565b600081519050919050565b7f4e487b7100000000000000000000000000000000000000000000000000000000600052602260045260246000fd5b600060028204905060018216806200032f57607f821691505b602082108103620003455762000344620002e7565b5b50919050565b60008190508160005260206000209050919050565b60006020601f8301049050919050565b600082821b905092915050565b600060088302620003af7fffffffffffffffffffffffffffffffffffffffffffffffffffffffffffffffff8262000370565b620003bb868362000370565b95508019841693508086168417925050509392505050565b6000819050919050565b6000819050919050565b60006200040862000402620003fc84620003d3565b620003dd565b620003d3565b9050919050565b6000819050919050565b6200042483620003e7565b6200043c62000433826200040f565b8484546200037d565b825550505050565b600090565b6200045362000444565b6200046081848462000419565b505050565b5b8181101562000488576200047c60008262000449565b60018101905062000466565b5050565b601f821115620004d757620004a1816200034b565b620004ac8462000360565b81016020851015620004bc578190505b620004d4620004cb8562000360565b83018262000465565b50505b505050565b600082821c905092915050565b6000620004fc60001984600802620004dc565b1980831691505092915050565b6000620005178383620004e9565b9150826002028217905092915050565b6200053282620002dc565b67ffffffffffffffff8111156200054e576200054d620000bf565b5b6200055a825462000316565b620005678282856200048c565b600060209050601f8311600181146200059f57600084156200058a578287015190505b62000596858262000509565b86555062000606565b601f198416620005af866200034b565b60005b82811015620005d957848901518255600182019150602085019450602081019050620005b2565b86831015620005f95784890151620005f5601f891682620004e9565b8355505b6001600288020188555050505b505050505050565b61478b806200061e6000396000f3fe608060405234801561001057600080fd5b50600436106101cf5760003560e01c806370a0823111610104578063b88d4fde116100a2578063e2edee2b11610071578063e2edee2b146105c2578063e985e9c5146105de578063eeaf2f091461060e578063f23a6e611461063e576101cf565b8063b88d4fde14610516578063bc197c8114610532578063c41a360a14610562578063c87b56dd14610592576101cf565b806389e7e2f2116100de57806389e7e2f21461047c57806395d89b41146104ac5780639fb64d83146104ca578063a22cb465146104fa576101cf565b806370a08231146103fe5780637a6ce2e11461042e578063849c968c1461044c576101cf565b806332085b65116101715780635fa030211161014b5780635fa030211461033e57806360d4d23a1461036e5780636352211e1461039e5780636f9bc25b146103ce576101cf565b806332085b65146102ea57806342842e0e1461030657806342cf6e7414610322576101cf565b8063095ea7b3116101ad578063095ea7b314610252578063150b7a021461026e57806317dd76231461029e57806323b872dd146102ce576101cf565b806301ffc9a7146101d457806306fdde0314610204578063081812fc14610222575b600080fd5b6101ee60048036038101906101e99190612e29565b61066e565b6040516101fb9190612e71565b60405180910390f35b61020c610750565b6040516102199190612f1c565b60405180910390f35b61023c60048036038101906102379190612f74565b6107e2565b6040516102499190612fe2565b60405180910390f35b61026c60048036038101906102679190613029565b610828565b005b6102886004803603810190610283919061319e565b61093f565b6040516102959190613230565b60405180910390f35b6102b860048036038101906102b3919061324b565b610a29565b6040516102c59190612fe2565b60405180910390f35b6102e860048036038101906102e3919061328b565b610b2a565b005b61030460048036038101906102ff91906133a6565b610b8a565b005b610320600480360381019061031b919061328b565b610e35565b005b61033c60048036038101906103379190613487565b610e55565b005b61035860048036038101906103539190613530565b611173565b604051610365919061362e565b60405180910390f35b61038860048036038101906103839190613650565b61131a565b60405161039591906136b2565b60405180910390f35b6103b860048036038101906103b39190612f74565b611387565b6040516103c59190612fe2565b60405180910390f35b6103e860048036038101906103e39190612f74565b611438565b6040516103f59190612e71565b60405180910390f35b610418600480360381019061041391906136cd565b611458565b60405161042591906136b2565b60405180910390f35b61043661150f565b6040516104439190612fe2565b60405180910390f35b61046660048036038101906104619190612f74565b61151e565b6040516104739190612e71565b60405180910390f35b61049660048036038101906104919190612f74565b611548565b6040516104a391906137b8565b60405180910390f35b6104b4611665565b6040516104c19190612f1c565b60405180910390f35b6104e460048036038101906104df9190612f74565b6116f7565b6040516104f19190612e71565b60405180910390f35b610514600480360381019061050f9190613806565b611717565b005b610530600480360381019061052b919061319e565b61172d565b005b61054c60048036038101906105479190613846565b61178f565b6040516105599190613230565b60405180910390f35b61057c60048036038101906105779190612f74565b611954565b6040516105899190612fe2565b60405180910390f35b6105ac60048036038101906105a79190612f74565b611966565b6040516105b99190612f1c565b60405180910390f35b6105dc60048036038101906105d79190612f74565b6119ce565b005b6105f860048036038101906105f39190613915565b6119fd565b6040516106059190612e71565b60405180910390f35b61062860048036038101906106239190613650565b611a91565b60405161063591906136b2565b60405180910390f35b61065860048036038101906106539190613955565b611ac3565b6040516106659190613230565b60405180910390f35b60007f80ac58cd000000000000000000000000000000000000000000000000000000007bffffffffffffffffffffffffffffffffffffffffffffffffffffffff1916827bffffffffffffffffffffffffffffffffffffffffffffffffffffffff1916148061073957507f5b5e139f000000000000000000000000000000000000000000000000000000007bffffffffffffffffffffffffffffffffffffffffffffffffffffffff1916827bffffffffffffffffffffffffffffffffffffffffffffffffffffffff1916145b80610749575061074882611bcc565b5b9050919050565b60606000805461075f90613a1b565b80601f016020809104026020016040519081016040528092919081815260200182805461078b90613a1b565b80156107d85780601f106107ad576101008083540402835291602001916107d8565b820191906000526020600020905b8154815290600101906020018083116107bb57829003601f168201915b5050505050905090565b60006107ed82611c36565b6004600083815260200190815260200160002060009054906101000a900473ffffffffffffffffffffffffffffffffffffffff169050919050565b600061083382611387565b90508073ffffffffffffffffffffffffffffffffffffffff168373ffffffffffffffffffffffffffffffffffffffff16036108a3576040517f08c379a000000000000000000000000000000000000000000000000000000000815260040161089a90613abe565b60405180910390fd5b8073ffffffffffffffffffffffffffffffffffffffff166108c2611c81565b73ffffffffffffffffffffffffffffffffffffffff1614806108f157506108f0816108eb611c81565b6119fd565b5b610930576040517f08c379a000000000000000000000000000000000000000000000000000000000815260040161092790613b50565b60405180910390fd5b61093a8383611c89565b505050565b60006020825114610985576040517f08c379a000000000000000000000000000000000000000000000000000000000815260040161097c90613c08565b60405180910390fd5b600080602060003690506109999190613c57565b9050803591506109ac8233876001611d42565b3373ffffffffffffffffffffffffffffffffffffffff16828773ffffffffffffffffffffffffffffffffffffffff167fa18753b0660a8be2cdae03468c860b47c2926433ab16917f323544652803032d886001604051610a0d929190613cd0565b60405180910390a463150b7a0260e01b92505050949350505050565b600080600090505b610a4c60086000868152602001908152602001600020611edd565b811015610b1e57610ad983600960008781526020019081526020016000206000610a9185600860008b8152602001908152602001600020611ef290919063ffffffff16565b73ffffffffffffffffffffffffffffffffffffffff1673ffffffffffffffffffffffffffffffffffffffff168152602001908152602001600020611f0c90919063ffffffff16565b15610b0b57610b038160086000878152602001908152602001600020611ef290919063ffffffff16565b915050610b24565b8080610b1690613cf9565b915050610a31565b50600090505b92915050565b610b3b610b35611c81565b82611f26565b610b7a576040517f08c379a0000000000000000000000000000000000000000000000000000000008152600401610b7190613db3565b60405180910390fd5b610b85838383611fbb565b505050565b8151835114610bce576040517f08c379a0000000000000000000000000000000000000000000000000000000008152600401610bc590613e45565b60405180910390fd5b600073ffffffffffffffffffffffffffffffffffffffff168573ffffffffffffffffffffffffffffffffffffffff1603610c3d576040517f08c379a0000000000000000000000000000000000000000000000000000000008152600401610c3490613ed7565b60405180910390fd5b6000610c47611c81565b90508073ffffffffffffffffffffffffffffffffffffffff16610c6988611387565b73ffffffffffffffffffffffffffffffffffffffff161480610c995750610c98610c9288611387565b826119fd565b5b610cd8576040517f08c379a0000000000000000000000000000000000000000000000000000000008152600401610ccf90613f69565b60405180910390fd5b610ce781888888888888612221565b60005b8451811015610d50576000858281518110610d0857610d07613f89565b5b602002602001015190506000858381518110610d2757610d26613f89565b5b60200260200101519050610d3d8a89848461222a565b505080610d4990613cf9565b9050610cea565b508473ffffffffffffffffffffffffffffffffffffffff16632eb2c2d630888787876040518663ffffffff1660e01b8152600401610d9295949392919061400d565b600060405180830381600087803b158015610dac57600080fd5b505af1158015610dc0573d6000803e3d6000fd5b505050508473ffffffffffffffffffffffffffffffffffffffff168673ffffffffffffffffffffffffffffffffffffffff16887f5572be9c1bc39e4e277a34f64ccd0e84456dac3f33b0b1c458c12c402c6326a98787604051610e24929190614075565b60405180910390a450505050505050565b610e508383836040518060200160405280600081525061172d565b505050565b600073ffffffffffffffffffffffffffffffffffffffff168573ffffffffffffffffffffffffffffffffffffffff1603610ec4576040517f08c379a0000000000000000000000000000000000000000000000000000000008152600401610ebb90613ed7565b60405180910390fd5b6000610ece611c81565b90508073ffffffffffffffffffffffffffffffffffffffff16610ef088611387565b73ffffffffffffffffffffffffffffffffffffffff161480610f205750610f1f610f1988611387565b826119fd565b5b610f5f576040517f08c379a0000000000000000000000000000000000000000000000000000000008152600401610f5690613f69565b60405180910390fd5b610f7e81888888610f6f8961250e565b610f788961250e565b88612221565b610f8a8786868661222a565b600b600085815260200190815260200160002060009054906101000a900460ff1615611090578473ffffffffffffffffffffffffffffffffffffffff1663f242432a30888787876040518663ffffffff1660e01b8152600401610ff19594939291906140ac565b600060405180830381600087803b15801561100b57600080fd5b505af115801561101f573d6000803e3d6000fd5b505050508473ffffffffffffffffffffffffffffffffffffffff168673ffffffffffffffffffffffffffffffffffffffff16887f9d6259404dec52b3d5d220f5b8e5d05cc05ec908e1bc320aa46793e3091e51948787604051611083929190614106565b60405180910390a461116a565b8473ffffffffffffffffffffffffffffffffffffffff1663b88d4fde308887866040518563ffffffff1660e01b81526004016110cf949392919061412f565b600060405180830381600087803b1580156110e957600080fd5b505af11580156110fd573d6000803e3d6000fd5b505050508473ffffffffffffffffffffffffffffffffffffffff168673ffffffffffffffffffffffffffffffffffffffff16887f9d6259404dec52b3d5d220f5b8e5d05cc05ec908e1bc320aa46793e3091e51948787604051611161929190614106565b60405180910390a45b50505050505050565b606060006111cf6009600086815260200190815260200160002060008573ffffffffffffffffffffffffffffffffffffffff1673ffffffffffffffffffffffffffffffffffffffff168152602001908152602001600020612588565b67ffffffffffffffff8111156111e8576111e7613073565b5b6040519080825280602002602001820160405280156112165781602001602082028036833780820191505090505b50905060005b6112746009600087815260200190815260200160002060008673ffffffffffffffffffffffffffffffffffffffff1673ffffffffffffffffffffffffffffffffffffffff168152602001908152602001600020612588565b81101561130f576112dd816009600088815260200190815260200160002060008773ffffffffffffffffffffffffffffffffffffffff1673ffffffffffffffffffffffffffffffffffffffff16815260200190815260200160002061259d90919063ffffffff16565b8282815181106112f0576112ef613f89565b5b602002602001018181525050808061130790613cf9565b91505061121c565b508091505092915050565b60006006600085815260200190815260200160002060008473ffffffffffffffffffffffffffffffffffffffff1673ffffffffffffffffffffffffffffffffffffffff16815260200190815260200160002060008381526020019081526020016000205490509392505050565b6000806002600084815260200190815260200160002060009054906101000a900473ffffffffffffffffffffffffffffffffffffffff169050600073ffffffffffffffffffffffffffffffffffffffff168173ffffffffffffffffffffffffffffffffffffffff160361142f576040517f08c379a0000000000000000000000000000000000000000000000000000000008152600401611426906141c7565b60405180910390fd5b80915050919050565b600b6020528060005260406000206000915054906101000a900460ff1681565b60008073ffffffffffffffffffffffffffffffffffffffff168273ffffffffffffffffffffffffffffffffffffffff16036114c8576040517f08c379a00000000000000000000000000000000000000000000000000000000081526004016114bf90614259565b60405180910390fd5b600360008373ffffffffffffffffffffffffffffffffffffffff1673ffffffffffffffffffffffffffffffffffffffff168152602001908152602001600020549050919050565b6000611519611c81565b905090565b6000600b600083815260200190815260200160002060009054906101000a900460ff169050919050565b6060600061156760086000858152602001908152602001600020611edd565b67ffffffffffffffff8111156115805761157f613073565b5b6040519080825280602002602001820160405280156115ae5781602001602082028036833780820191505090505b50905060005b6115cf60086000868152602001908152602001600020611edd565b81101561165b576115fb8160086000878152602001908152602001600020611ef290919063ffffffff16565b82828151811061160e5761160d613f89565b5b602002602001019073ffffffffffffffffffffffffffffffffffffffff16908173ffffffffffffffffffffffffffffffffffffffff1681525050808061165390613cf9565b9150506115b4565b5080915050919050565b60606001805461167490613a1b565b80601f01602080910402602001604051908101604052809291908181526020018280546116a090613a1b565b80156116ed5780601f106116c2576101008083540402835291602001916116ed565b820191906000526020600020905b8154815290600101906020018083116116d057829003601f168201915b5050505050905090565b600a6020528060005260406000206000915054906101000a900460ff1681565b611729611722611c81565b83836125b7565b5050565b61173e611738611c81565b83611f26565b61177d576040517f08c379a000000000000000000000000000000000000000000000000000000000815260040161177490613db3565b60405180910390fd5b61178984848484612723565b50505050565b600060208251146117d5576040517f08c379a00000000000000000000000000000000000000000000000000000000081526004016117cc90613c08565b60405180910390fd5b8251845114611819576040517f08c379a0000000000000000000000000000000000000000000000000000000008152600401611810906142eb565b60405180910390fd5b6118298660003088888888612221565b6000806020600036905061183d9190613c57565b90508035915060005b865181101561193e5761188f833389848151811061186757611866613f89565b5b602002602001015189858151811061188257611881613f89565b5b6020026020010151611d42565b3373ffffffffffffffffffffffffffffffffffffffff16838973ffffffffffffffffffffffffffffffffffffffff167fa18753b0660a8be2cdae03468c860b47c2926433ab16917f323544652803032d8a85815181106118f2576118f1613f89565b5b60200260200101518a868151811061190d5761190c613f89565b5b6020026020010151604051611923929190614106565b60405180910390a4808061193690613cf9565b915050611846565b5063bc197c8160e01b9250505095945050505050565b600061195f82611387565b9050919050565b606061197182611c36565b600061197b61277f565b9050600081511161199b57604051806020016040528060008152506119c6565b806119a584612796565b6040516020016119b6929190614347565b6040516020818303038152906040525b915050919050565b6001600b600083815260200190815260200160002060006101000a81548160ff02191690831515021790555050565b6000600560008473ffffffffffffffffffffffffffffffffffffffff1673ffffffffffffffffffffffffffffffffffffffff16815260200190815260200160002060008373ffffffffffffffffffffffffffffffffffffffff1673ffffffffffffffffffffffffffffffffffffffff16815260200190815260200160002060009054906101000a900460ff16905092915050565b600660205282600052604060002060205281600052604060002060205280600052604060002060009250925050505481565b60006020825114611b09576040517f08c379a0000000000000000000000000000000000000000000000000000000008152600401611b0090613c08565b60405180910390fd5b611b298660003088611b1a8961250e565b611b238961250e565b88612221565b60008060206000369050611b3d9190613c57565b905080359150611b4f82338888611d42565b3373ffffffffffffffffffffffffffffffffffffffff16828873ffffffffffffffffffffffffffffffffffffffff167fa18753b0660a8be2cdae03468c860b47c2926433ab16917f323544652803032d8989604051611baf929190614106565b60405180910390a463f23a6e6160e01b9250505095945050505050565b60007f01ffc9a7000000000000000000000000000000000000000000000000000000007bffffffffffffffffffffffffffffffffffffffffffffffffffffffff1916827bffffffffffffffffffffffffffffffffffffffffffffffffffffffff1916149050919050565b611c3f816128f6565b611c7e576040517f08c379a0000000000000000000000000000000000000000000000000000000008152600401611c75906141c7565b60405180910390fd5b50565b600033905090565b816004600083815260200190815260200160002060006101000a81548173ffffffffffffffffffffffffffffffffffffffff021916908373ffffffffffffffffffffffffffffffffffffffff160217905550808273ffffffffffffffffffffffffffffffffffffffff16611cfc83611387565b73ffffffffffffffffffffffffffffffffffffffff167f8c5be1e5ebec7d5bd14f71427d1e84f3dd0314c0f7b2291e5b200ac8c7c3b92560405160405180910390a45050565b611d67836008600087815260200190815260200160002061296290919063ffffffff16565b611d9257611d90836008600087815260200190815260200160002061299290919063ffffffff16565b505b60006006600086815260200190815260200160002060008573ffffffffffffffffffffffffffffffffffffffff1673ffffffffffffffffffffffffffffffffffffffff16815260200190815260200160002060008481526020019081526020016000205403611e5f57611e5d826009600087815260200190815260200160002060008673ffffffffffffffffffffffffffffffffffffffff1673ffffffffffffffffffffffffffffffffffffffff1681526020019081526020016000206129c290919063ffffffff16565b505b806006600086815260200190815260200160002060008573ffffffffffffffffffffffffffffffffffffffff1673ffffffffffffffffffffffffffffffffffffffff16815260200190815260200160002060008481526020019081526020016000206000828254611ed0919061436b565b9250508190555050505050565b6000611eeb826000016129dc565b9050919050565b6000611f0183600001836129ed565b60001c905092915050565b6000611f1e836000018360001b612a18565b905092915050565b600080611f3283611387565b90508073ffffffffffffffffffffffffffffffffffffffff168473ffffffffffffffffffffffffffffffffffffffff161480611f745750611f7381856119fd565b5b80611fb257508373ffffffffffffffffffffffffffffffffffffffff16611f9a846107e2565b73ffffffffffffffffffffffffffffffffffffffff16145b91505092915050565b8273ffffffffffffffffffffffffffffffffffffffff16611fdb82611387565b73ffffffffffffffffffffffffffffffffffffffff1614612031576040517f08c379a000000000000000000000000000000000000000000000000000000000815260040161202890614411565b60405180910390fd5b600073ffffffffffffffffffffffffffffffffffffffff168273ffffffffffffffffffffffffffffffffffffffff16036120a0576040517f08c379a0000000000000000000000000000000000000000000000000000000008152600401612097906144a3565b60405180910390fd5b6120ab838383612a3b565b6120b6600082611c89565b6001600360008573ffffffffffffffffffffffffffffffffffffffff1673ffffffffffffffffffffffffffffffffffffffff16815260200190815260200160002060008282546121069190613c57565b925050819055506001600360008473ffffffffffffffffffffffffffffffffffffffff1673ffffffffffffffffffffffffffffffffffffffff168152602001908152602001600020600082825461215d919061436b565b92505081905550816002600083815260200190815260200160002060006101000a81548173ffffffffffffffffffffffffffffffffffffffff021916908373ffffffffffffffffffffffffffffffffffffffff160217905550808273ffffffffffffffffffffffffffffffffffffffff168473ffffffffffffffffffffffffffffffffffffffff167fddf252ad1be2c89b69c2b068fc378daa952ba7f163c4a11628f55a4df523b3ef60405160405180910390a461221c838383612a40565b505050565b50505050505050565b60008114158061229b5750806006600086815260200190815260200160002060008573ffffffffffffffffffffffffffffffffffffffff1673ffffffffffffffffffffffffffffffffffffffff16815260200190815260200160002060008481526020019081526020016000205410155b6122da576040517f08c379a00000000000000000000000000000000000000000000000000000000081526004016122d190614535565b60405180910390fd5b806006600086815260200190815260200160002060008573ffffffffffffffffffffffffffffffffffffffff1673ffffffffffffffffffffffffffffffffffffffff1681526020019081526020016000206000848152602001908152602001600020600082825461234b9190613c57565b9250508190555060006006600086815260200190815260200160002060008573ffffffffffffffffffffffffffffffffffffffff1673ffffffffffffffffffffffffffffffffffffffff168152602001908152602001600020600084815260200190815260200160002054036125085761241d84600760008673ffffffffffffffffffffffffffffffffffffffff1673ffffffffffffffffffffffffffffffffffffffff1681526020019081526020016000206000858152602001908152602001600020612a4590919063ffffffff16565b50612480826009600087815260200190815260200160002060008673ffffffffffffffffffffffffffffffffffffffff1673ffffffffffffffffffffffffffffffffffffffff168152602001908152602001600020612a4590919063ffffffff16565b5060006124db6009600087815260200190815260200160002060008673ffffffffffffffffffffffffffffffffffffffff1673ffffffffffffffffffffffffffffffffffffffff168152602001908152602001600020612588565b03612507576125058360086000878152602001908152602001600020612a5f90919063ffffffff16565b505b5b50505050565b60606000600167ffffffffffffffff81111561252d5761252c613073565b5b60405190808252806020026020018201604052801561255b5781602001602082028036833780820191505090505b509050828160008151811061257357612572613f89565b5b60200260200101818152505080915050919050565b6000612596826000016129dc565b9050919050565b60006125ac83600001836129ed565b60001c905092915050565b8173ffffffffffffffffffffffffffffffffffffffff168373ffffffffffffffffffffffffffffffffffffffff1603612625576040517f08c379a000000000000000000000000000000000000000000000000000000000815260040161261c906145a1565b60405180910390fd5b80600560008573ffffffffffffffffffffffffffffffffffffffff1673ffffffffffffffffffffffffffffffffffffffff16815260200190815260200160002060008473ffffffffffffffffffffffffffffffffffffffff1673ffffffffffffffffffffffffffffffffffffffff16815260200190815260200160002060006101000a81548160ff0219169083151502179055508173ffffffffffffffffffffffffffffffffffffffff168373ffffffffffffffffffffffffffffffffffffffff167f17307eab39ab6107e8899845ad3d59bd9653f200f220920489ca2b5937696c31836040516127169190612e71565b60405180910390a3505050565b61272e848484611fbb565b61273a84848484612a8f565b612779576040517f08c379a000000000000000000000000000000000000000000000000000000000815260040161277090614633565b60405180910390fd5b50505050565b606060405180602001604052806000815250905090565b6060600082036127dd576040518060400160405280600181526020017f300000000000000000000000000000000000000000000000000000000000000081525090506128f1565b600082905060005b6000821461280f5780806127f890613cf9565b915050600a826128089190614682565b91506127e5565b60008167ffffffffffffffff81111561282b5761282a613073565b5b6040519080825280601f01601f19166020018201604052801561285d5781602001600182028036833780820191505090505b5090505b600085146128ea576001826128769190613c57565b9150600a8561288591906146b3565b6030612891919061436b565b60f81b8183815181106128a7576128a6613f89565b5b60200101907effffffffffffffffffffffffffffffffffffffffffffffffffffffffffffff1916908160001a905350600a856128e39190614682565b9450612861565b8093505050505b919050565b60008073ffffffffffffffffffffffffffffffffffffffff166002600084815260200190815260200160002060009054906101000a900473ffffffffffffffffffffffffffffffffffffffff1673ffffffffffffffffffffffffffffffffffffffff1614159050919050565b600061298a836000018373ffffffffffffffffffffffffffffffffffffffff1660001b612a18565b905092915050565b60006129ba836000018373ffffffffffffffffffffffffffffffffffffffff1660001b612c16565b905092915050565b60006129d4836000018360001b612c16565b905092915050565b600081600001805490509050919050565b6000826000018281548110612a0557612a04613f89565b5b9060005260206000200154905092915050565b600080836001016000848152602001908152602001600020541415905092915050565b505050565b505050565b6000612a57836000018360001b612c86565b905092915050565b6000612a87836000018373ffffffffffffffffffffffffffffffffffffffff1660001b612c86565b905092915050565b6000612ab08473ffffffffffffffffffffffffffffffffffffffff16612d9a565b15612c09578373ffffffffffffffffffffffffffffffffffffffff1663150b7a02612ad9611c81565b8786866040518563ffffffff1660e01b8152600401612afb949392919061412f565b6020604051808303816000875af1925050508015612b3757506040513d601f19601f82011682018060405250810190612b3491906146f9565b60015b612bb9573d8060008114612b67576040519150601f19603f3d011682016040523d82523d6000602084013e612b6c565b606091505b506000815103612bb1576040517f08c379a0000000000000000000000000000000000000000000000000000000008152600401612ba890614633565b60405180910390fd5b805181602001fd5b63150b7a0260e01b7bffffffffffffffffffffffffffffffffffffffffffffffffffffffff1916817bffffffffffffffffffffffffffffffffffffffffffffffffffffffff191614915050612c0e565b600190505b949350505050565b6000612c228383612a18565b612c7b578260000182908060018154018082558091505060019003906000526020600020016000909190919091505582600001805490508360010160008481526020019081526020016000208190555060019050612c80565b600090505b92915050565b60008083600101600084815260200190815260200160002054905060008114612d8e576000600182612cb89190613c57565b9050600060018660000180549050612cd09190613c57565b9050818114612d3f576000866000018281548110612cf157612cf0613f89565b5b9060005260206000200154905080876000018481548110612d1557612d14613f89565b5b90600052602060002001819055508387600101600083815260200190815260200160002081905550505b85600001805480612d5357612d52614726565b5b600190038181906000526020600020016000905590558560010160008681526020019081526020016000206000905560019350505050612d94565b60009150505b92915050565b6000808273ffffffffffffffffffffffffffffffffffffffff163b119050919050565b6000604051905090565b600080fd5b600080fd5b60007fffffffff0000000000000000000000000000000000000000000000000000000082169050919050565b612e0681612dd1565b8114612e1157600080fd5b50565b600081359050612e2381612dfd565b92915050565b600060208284031215612e3f57612e3e612dc7565b5b6000612e4d84828501612e14565b91505092915050565b60008115159050919050565b612e6b81612e56565b82525050565b6000602082019050612e866000830184612e62565b92915050565b600081519050919050565b600082825260208201905092915050565b60005b83811015612ec6578082015181840152602081019050612eab565b60008484015250505050565b6000601f19601f8301169050919050565b6000612eee82612e8c565b612ef88185612e97565b9350612f08818560208601612ea8565b612f1181612ed2565b840191505092915050565b60006020820190508181036000830152612f368184612ee3565b905092915050565b6000819050919050565b612f5181612f3e565b8114612f5c57600080fd5b50565b600081359050612f6e81612f48565b92915050565b600060208284031215612f8a57612f89612dc7565b5b6000612f9884828501612f5f565b91505092915050565b600073ffffffffffffffffffffffffffffffffffffffff82169050919050565b6000612fcc82612fa1565b9050919050565b612fdc81612fc1565b82525050565b6000602082019050612ff76000830184612fd3565b92915050565b61300681612fc1565b811461301157600080fd5b50565b60008135905061302381612ffd565b92915050565b600080604083850312156130405761303f612dc7565b5b600061304e85828601613014565b925050602061305f85828601612f5f565b9150509250929050565b600080fd5b600080fd5b7f4e487b7100000000000000000000000000000000000000000000000000000000600052604160045260246000fd5b6130ab82612ed2565b810181811067ffffffffffffffff821117156130ca576130c9613073565b5b80604052505050565b60006130dd612dbd565b90506130e982826130a2565b919050565b600067ffffffffffffffff82111561310957613108613073565b5b61311282612ed2565b9050602081019050919050565b82818337600083830152505050565b600061314161313c846130ee565b6130d3565b90508281526020810184848401111561315d5761315c61306e565b5b61316884828561311f565b509392505050565b600082601f83011261318557613184613069565b5b813561319584826020860161312e565b91505092915050565b600080600080608085870312156131b8576131b7612dc7565b5b60006131c687828801613014565b94505060206131d787828801613014565b93505060406131e887828801612f5f565b925050606085013567ffffffffffffffff81111561320957613208612dcc565b5b61321587828801613170565b91505092959194509250565b61322a81612dd1565b82525050565b60006020820190506132456000830184613221565b92915050565b6000806040838503121561326257613261612dc7565b5b600061327085828601612f5f565b925050602061328185828601612f5f565b9150509250929050565b6000806000606084860312156132a4576132a3612dc7565b5b60006132b286828701613014565b93505060206132c386828701613014565b92505060406132d486828701612f5f565b9150509250925092565b600067ffffffffffffffff8211156132f9576132f8613073565b5b602082029050602081019050919050565b600080fd5b600061332261331d846132de565b6130d3565b905080838252602082019050602084028301858111156133455761334461330a565b5b835b8181101561336e578061335a8882612f5f565b845260208401935050602081019050613347565b5050509392505050565b600082601f83011261338d5761338c613069565b5b813561339d84826020860161330f565b91505092915050565b60008060008060008060c087890312156133c3576133c2612dc7565b5b60006133d189828a01612f5f565b96505060206133e289828a01613014565b95505060406133f389828a01613014565b945050606087013567ffffffffffffffff81111561341457613413612dcc565b5b61342089828a01613378565b935050608087013567ffffffffffffffff81111561344157613440612dcc565b5b61344d89828a01613378565b92505060a087013567ffffffffffffffff81111561346e5761346d612dcc565b5b61347a89828a01613170565b9150509295509295509295565b60008060008060008060c087890312156134a4576134a3612dc7565b5b60006134b289828a01612f5f565b96505060206134c389828a01613014565b95505060406134d489828a01613014565b94505060606134e589828a01612f5f565b93505060806134f689828a01612f5f565b92505060a087013567ffffffffffffffff81111561351757613516612dcc565b5b61352389828a01613170565b9150509295509295509295565b6000806040838503121561354757613546612dc7565b5b600061355585828601612f5f565b925050602061356685828601613014565b9150509250929050565b600081519050919050565b600082825260208201905092915050565b6000819050602082019050919050565b6135a581612f3e565b82525050565b60006135b7838361359c565b60208301905092915050565b6000602082019050919050565b60006135db82613570565b6135e5818561357b565b93506135f08361358c565b8060005b8381101561362157815161360888826135ab565b9750613613836135c3565b9250506001810190506135f4565b5085935050505092915050565b6000602082019050818103600083015261364881846135d0565b905092915050565b60008060006060848603121561366957613668612dc7565b5b600061367786828701612f5f565b935050602061368886828701613014565b925050604061369986828701612f5f565b9150509250925092565b6136ac81612f3e565b82525050565b60006020820190506136c760008301846136a3565b92915050565b6000602082840312156136e3576136e2612dc7565b5b60006136f184828501613014565b91505092915050565b600081519050919050565b600082825260208201905092915050565b6000819050602082019050919050565b61372f81612fc1565b82525050565b60006137418383613726565b60208301905092915050565b6000602082019050919050565b6000613765826136fa565b61376f8185613705565b935061377a83613716565b8060005b838110156137ab5781516137928882613735565b975061379d8361374d565b92505060018101905061377e565b5085935050505092915050565b600060208201905081810360008301526137d2818461375a565b905092915050565b6137e381612e56565b81146137ee57600080fd5b50565b600081359050613800816137da565b92915050565b6000806040838503121561381d5761381c612dc7565b5b600061382b85828601613014565b925050602061383c858286016137f1565b9150509250929050565b600080600080600060a0868803121561386257613861612dc7565b5b600061387088828901613014565b955050602061388188828901613014565b945050604086013567ffffffffffffffff8111156138a2576138a1612dcc565b5b6138ae88828901613378565b935050606086013567ffffffffffffffff8111156138cf576138ce612dcc565b5b6138db88828901613378565b925050608086013567ffffffffffffffff8111156138fc576138fb612dcc565b5b61390888828901613170565b9150509295509295909350565b6000806040838503121561392c5761392b612dc7565b5b600061393a85828601613014565b925050602061394b85828601613014565b9150509250929050565b600080600080600060a0868803121561397157613970612dc7565b5b600061397f88828901613014565b955050602061399088828901613014565b94505060406139a188828901612f5f565b93505060606139b288828901612f5f565b925050608086013567ffffffffffffffff8111156139d3576139d2612dcc565b5b6139df88828901613170565b9150509295509295909350565b7f4e487b7100000000000000000000000000000000000000000000000000000000600052602260045260246000fd5b60006002820490506001821680613a3357607f821691505b602082108103613a4657613a456139ec565b5b50919050565b7f4552433732313a20617070726f76616c20746f2063757272656e74206f776e6560008201527f7200000000000000000000000000000000000000000000000000000000000000602082015250565b6000613aa8602183612e97565b9150613ab382613a4c565b604082019050919050565b60006020820190508181036000830152613ad781613a9b565b9050919050565b7f4552433732313a20617070726f76652063616c6c6572206973206e6f7420746f60008201527f6b656e206f776e6572206e6f7220617070726f76656420666f7220616c6c0000602082015250565b6000613b3a603e83612e97565b9150613b4582613ade565b604082019050919050565b60006020820190508181036000830152613b6981613b2d565b9050919050565b7f4552433939383a2064617461206d75737420636f6e7461696e2074686520756e60008201527f697175652075696e7432353620746f6b656e496420746f207472616e7366657260208201527f20746865206368696c6420746f6b656e20746f00000000000000000000000000604082015250565b6000613bf2605383612e97565b9150613bfd82613b70565b606082019050919050565b60006020820190508181036000830152613c2181613be5565b9050919050565b7f4e487b7100000000000000000000000000000000000000000000000000000000600052601160045260246000fd5b6000613c6282612f3e565b9150613c6d83612f3e565b9250828203905081811115613c8557613c84613c28565b5b92915050565b6000819050919050565b6000819050919050565b6000613cba613cb5613cb084613c8b565b613c95565b612f3e565b9050919050565b613cca81613c9f565b82525050565b6000604082019050613ce560008301856136a3565b613cf26020830184613cc1565b9392505050565b6000613d0482612f3e565b91507fffffffffffffffffffffffffffffffffffffffffffffffffffffffffffffffff8203613d3657613d35613c28565b5b600182019050919050565b7f4552433732313a2063616c6c6572206973206e6f7420746f6b656e206f776e6560008201527f72206e6f7220617070726f766564000000000000000000000000000000000000602082015250565b6000613d9d602e83612e97565b9150613da882613d41565b604082019050919050565b60006020820190508181036000830152613dcc81613d90565b9050919050565b7f4552433939383a2069647320616e6420616d6f756e7473206c656e677468206d60008201527f69736d6174636800000000000000000000000000000000000000000000000000602082015250565b6000613e2f602783612e97565b9150613e3a82613dd3565b604082019050919050565b60006020820190508181036000830152613e5e81613e22565b9050919050565b7f4552433939383a207472616e7366657220746f20746865207a65726f2061646460008201527f7265737300000000000000000000000000000000000000000000000000000000602082015250565b6000613ec1602483612e97565b9150613ecc82613e65565b604082019050919050565b60006020820190508181036000830152613ef081613eb4565b9050919050565b7f4552433939383a2063616c6c6572206973206e6f74206f776e6572206e6f722060008201527f617070726f766564000000000000000000000000000000000000000000000000602082015250565b6000613f53602883612e97565b9150613f5e82613ef7565b604082019050919050565b60006020820190508181036000830152613f8281613f46565b9050919050565b7f4e487b7100000000000000000000000000000000000000000000000000000000600052603260045260246000fd5b600081519050919050565b600082825260208201905092915050565b6000613fdf82613fb8565b613fe98185613fc3565b9350613ff9818560208601612ea8565b61400281612ed2565b840191505092915050565b600060a0820190506140226000830188612fd3565b61402f6020830187612fd3565b818103604083015261404181866135d0565b9050818103606083015261405581856135d0565b905081810360808301526140698184613fd4565b90509695505050505050565b6000604082019050818103600083015261408f81856135d0565b905081810360208301526140a381846135d0565b90509392505050565b600060a0820190506140c16000830188612fd3565b6140ce6020830187612fd3565b6140db60408301866136a3565b6140e860608301856136a3565b81810360808301526140fa8184613fd4565b90509695505050505050565b600060408201905061411b60008301856136a3565b61412860208301846136a3565b9392505050565b60006080820190506141446000830187612fd3565b6141516020830186612fd3565b61415e60408301856136a3565b81810360608301526141708184613fd4565b905095945050505050565b7f4552433732313a20696e76616c696420746f6b656e2049440000000000000000600082015250565b60006141b1601883612e97565b91506141bc8261417b565b602082019050919050565b600060208201905081810360008301526141e0816141a4565b9050919050565b7f4552433732313a2061646472657373207a65726f206973206e6f74206120766160008201527f6c6964206f776e65720000000000000000000000000000000000000000000000602082015250565b6000614243602983612e97565b915061424e826141e7565b604082019050919050565b6000602082019050818103600083015261427281614236565b9050919050565b7f455243313135353a2069647320616e642076616c756573206c656e677468206d60008201527f69736d6174636800000000000000000000000000000000000000000000000000602082015250565b60006142d5602783612e97565b91506142e082614279565b604082019050919050565b60006020820190508181036000830152614304816142c8565b9050919050565b600081905092915050565b600061432182612e8c565b61432b818561430b565b935061433b818560208601612ea8565b80840191505092915050565b60006143538285614316565b915061435f8284614316565b91508190509392505050565b600061437682612f3e565b915061438183612f3e565b925082820190508082111561439957614398613c28565b5b92915050565b7f4552433732313a207472616e736665722066726f6d20696e636f72726563742060008201527f6f776e6572000000000000000000000000000000000000000000000000000000602082015250565b60006143fb602583612e97565b91506144068261439f565b604082019050919050565b6000602082019050818103600083015261442a816143ee565b9050919050565b7f4552433732313a207472616e7366657220746f20746865207a65726f2061646460008201527f7265737300000000000000000000000000000000000000000000000000000000602082015250565b600061448d602483612e97565b915061449882614431565b604082019050919050565b600060208201905081810360008301526144bc81614480565b9050919050565b7f4552433939383a20696e73756666696369656e74206368696c642062616c616e60008201527f636520666f72207472616e736665720000000000000000000000000000000000602082015250565b600061451f602f83612e97565b915061452a826144c3565b604082019050919050565b6000602082019050818103600083015261454e81614512565b9050919050565b7f4552433732313a20617070726f766520746f2063616c6c657200000000000000600082015250565b600061458b601983612e97565b915061459682614555565b602082019050919050565b600060208201905081810360008301526145ba8161457e565b9050919050565b7f4552433732313a207472616e7366657220746f206e6f6e20455243373231526560008201527f63656976657220696d706c656d656e7465720000000000000000000000000000602082015250565b600061461d603283612e97565b9150614628826145c1565b604082019050919050565b6000602082019050818103600083015261464c81614610565b9050919050565b7f4e487b7100000000000000000000000000000000000000000000000000000000600052601260045260246000fd5b600061468d82612f3e565b915061469883612f3e565b9250826146a8576146a7614653565b5b828204905092915050565b60006146be82612f3e565b91506146c983612f3e565b9250826146d9576146d8614653565b5b828206905092915050565b6000815190506146f381612dfd565b92915050565b60006020828403121561470f5761470e612dc7565b5b600061471d848285016146e4565b91505092915050565b7f4e487b7100000000000000000000000000000000000000000000000000000000600052603160045260246000fdfea2646970667358221220f23841ecdcbcdc8668fd9f5b70c33a52fcbd10c7688a2532b50f55c6c249297264736f6c63430008110033",
  "immutableReferences": {},
  "source": "// SPDX-License-Identifier: UNLICENSED\r\n\r\npragma solidity ^0.8.0;\r\n\r\n/*\r\n// for remix\r\nimport \"https://github.com/OpenZeppelin/openzeppelin-contracts/blob/master/contracts/token/ERC1155/ERC1155.sol\";\r\nimport \"https://github.com/OpenZeppelin/openzeppelin-contracts/blob/master/contracts/token/ERC1155/ERC1155Receiver.sol\";\r\nimport \"https://github.com/OpenZeppelin/openzeppelin-contracts/blob/master/contracts/token/ERC721/ERC721.sol\";\r\nimport \"https://github.com/OpenZeppelin/openzeppelin-contracts/blob/master/contracts/utils/EnumerableSet.sol\";\r\n*/\r\n\r\nimport \"@openzeppelin/contracts/token/ERC1155/ERC1155.sol\";\r\nimport \"@openzeppelin/contracts/token/ERC1155/IERC1155Receiver.sol\";\r\nimport \"@openzeppelin/contracts/token/ERC721/ERC721.sol\";\r\nimport \"@openzeppelin/contracts/token/ERC721/IERC721Receiver.sol\";\r\nimport \"@openzeppelin/contracts/utils/structs/EnumerableSet.sol\";\r\n\r\nimport \"./IERC998ERC1155TopDown.sol\";\r\n\r\ncontract ERC998ERC1155TopDown is ERC721, IERC1155Receiver, IERC998ERC1155TopDown, IERC721Receiver {\r\n    using EnumerableSet for EnumerableSet.AddressSet;\r\n    using EnumerableSet for EnumerableSet.UintSet;\r\n\r\n    mapping(uint256 => mapping(address => mapping(uint256 => uint256))) public _balances;\r\n    mapping(address => mapping(uint256 => EnumerableSet.UintSet)) private _holdersOf;\r\n\r\n    mapping(uint256 => EnumerableSet.AddressSet) private _childContract;\r\n    mapping(uint256 => mapping(address => EnumerableSet.UintSet)) private _childsForChildContract;\r\n\r\n    mapping(uint256 => bool) public isERC721;\r\n    mapping(uint256 => bool) public isERC1155;\r\n\r\n    constructor(string memory name, string memory symbol, string memory baseURI) ERC721(name, symbol) public {\r\n        _baseURI();\r\n    }\r\n\r\n    /**\r\n     * @dev Gives child balance for a specific child contract and child id .\r\n     */\r\n    function childBalance(uint256 tokenId, address childContract, uint256 childTokenId) external view override returns(uint256) {\r\n        return _balances[tokenId][childContract][childTokenId];\r\n    }\r\n\r\n    /**\r\n     * @dev Gives list of child contract where token ID has childs.\r\n     */\r\n    function childContractsFor(uint256 tokenId) override external view returns (address[] memory) {\r\n        address[] memory childContracts = new address[](_childContract[tokenId].length());\r\n\r\n        for(uint256 i = 0; i < _childContract[tokenId].length(); i++) {\r\n            childContracts[i] = _childContract[tokenId].at(i);\r\n        }\r\n\r\n        return childContracts;\r\n    }\r\n\r\n    /**\r\n     * @dev Gives list of owned child ID on a child contract by parent token ID and child contract.\r\n     */\r\n    function childIdsOwned(uint256 tokenId, address childContract) override external view returns (uint256[] memory) {\r\n        uint256[] memory childTokenIds = new uint256[](_childsForChildContract[tokenId][childContract].length());\r\n\r\n        for(uint256 i = 0; i < _childsForChildContract[tokenId][childContract].length(); i++) {\r\n            childTokenIds[i] = _childsForChildContract[tokenId][childContract].at(i);\r\n        }\r\n\r\n        return childTokenIds;\r\n    }\r\n\r\n    /**\r\n     * @dev Transfers child token from a token ID.\r\n     */\r\n    function safeTransferChildFrom(uint256 fromTokenId, address to, address childContract, uint256 childTokenId, uint256 amount, bytes memory data) public override {\r\n        require(to != address(0), \"ERC998: transfer to the zero address\");\r\n\r\n        address operator = _msgSender();\r\n        require(\r\n            ownerOf(fromTokenId) == operator ||\r\n            isApprovedForAll(ownerOf(fromTokenId), operator),\r\n            \"ERC998: caller is not owner nor approved\"\r\n        );\r\n\r\n        _beforeChildTransfer(operator, fromTokenId, to, childContract, _asSingletonArray(childTokenId), _asSingletonArray(amount), data);\r\n\r\n        _removeChild(fromTokenId, childContract, childTokenId, amount);\r\n\r\n        // TODO: maybe check if to == this\r\n        if(isERC1155[childTokenId]){\r\n            ERC1155(childContract).safeTransferFrom(address(this), to, childTokenId, amount, data);\r\n            emit TransferSingleChild(fromTokenId, to, childContract, childTokenId, amount);\r\n        } else {\r\n            ERC721(childContract).safeTransferFrom(address(this), to, childTokenId, data);\r\n            emit TransferSingleChild(fromTokenId, to, childContract, childTokenId, amount);\r\n        }\r\n        \r\n       \r\n        \r\n        \r\n    }\r\n\r\n    \r\n\r\n\r\n    /**\r\n     * @dev Returns the owner of the token specified by tokenId. Wrapper function for ERC721 function ownerOf(). \r\n    */\r\n    function getOwner(uint256 tokenID) external view returns(address){\r\n        return ownerOf(tokenID);\r\n    }\r\n\r\n\r\n    /**\r\n     * @dev Sets isERC1155 array \r\n    */\r\n    function setIsERC1155(uint256 tokenID) public {\r\n        isERC1155[tokenID] = true;\r\n    }\r\n\r\n    /**\r\n     * @dev gets true if tokenID is ERC1155\r\n    */\r\n    function getIsERC1155(uint256 tokenID) external view returns(bool) {\r\n        return isERC1155[tokenID];\r\n    }\r\n    \r\n\r\n    /**\r\n     * @dev Returns the contract address of the child token ID, given a parent and child token ID.\r\n     */\r\n    function getChildContract(uint256 tokenID, uint256 childTokenID) external view returns(address){\r\n\r\n        for(uint256 i = 0; i < _childContract[tokenID].length(); i++) {\r\n            if (_childsForChildContract[tokenID][_childContract[tokenID].at(i)].contains(childTokenID)){\r\n                return _childContract[tokenID].at(i);\r\n            }\r\n        }\r\n\r\n        return address(0);\r\n    }\r\n\r\n    /**\r\n     * @dev Wrapper function to get message sender.\r\n     */\r\n    function getMsgSender() external view returns(address){\r\n        return _msgSender();\r\n    }\r\n\r\n\r\n\r\n    /**\r\n     * @dev Transfers batch of child tokens from a token ID.\r\n     */\r\n    function safeBatchTransferChildFrom(uint256 fromTokenId, address to, address childContract, uint256[] memory childTokenIds, uint256[] memory amounts, bytes memory data) public override {\r\n        require(childTokenIds.length == amounts.length, \"ERC998: ids and amounts length mismatch\");\r\n        require(to != address(0), \"ERC998: transfer to the zero address\");\r\n\r\n        address operator = _msgSender();\r\n        require(\r\n            ownerOf(fromTokenId) == operator ||\r\n            isApprovedForAll(ownerOf(fromTokenId), operator),\r\n            \"ERC998: caller is not owner nor approved\"\r\n        );\r\n\r\n        _beforeChildTransfer(operator, fromTokenId, to, childContract, childTokenIds, amounts, data);\r\n\r\n        for (uint256 i = 0; i < childTokenIds.length; ++i) {\r\n            uint256 childTokenId = childTokenIds[i];\r\n            uint256 amount = amounts[i];\r\n\r\n            _removeChild(fromTokenId, childContract, childTokenId, amount);\r\n        }\r\n        ERC1155(childContract).safeBatchTransferFrom(address(this), to, childTokenIds, amounts, data);\r\n        emit TransferBatchChild(fromTokenId, to, childContract, childTokenIds, amounts);\r\n    }\r\n\r\n    /**\r\n     * @dev Receives a child token, the receiver token ID must be encoded in the\r\n     * field data.\r\n     */\r\n    function onERC1155Received(address operator, address from, uint256 id, uint256 amount, bytes memory data) virtual public override returns(bytes4) {\r\n        require(data.length == 32, \"ERC998: data must contain the unique uint256 tokenId to transfer the child token to\");\r\n        _beforeChildTransfer(operator, 0, address(this), from, _asSingletonArray(id), _asSingletonArray(amount), data);\r\n\r\n        uint256 _receiverTokenId;\r\n        uint256 _index = msg.data.length - 32;\r\n        assembly {_receiverTokenId := calldataload(_index)}\r\n\r\n        _receiveChild(_receiverTokenId, msg.sender, id, amount);\r\n        emit ReceivedChild(from, _receiverTokenId, msg.sender, id, amount);\r\n\r\n        return this.onERC1155Received.selector;\r\n    }\r\n\r\n    /**\r\n     * @dev Receives a child token, the receiver token ID must be encoded in the\r\n     * field data.\r\n     */\r\n    function onERC721Received(address operator, address from, uint256 tokenId, bytes memory data) virtual public override returns(bytes4) {\r\n        require(data.length == 32, \"ERC998: data must contain the unique uint256 tokenId to transfer the child token to\");\r\n\r\n        uint256 _receiverTokenId;\r\n        uint256 _index = msg.data.length - 32;\r\n        assembly {_receiverTokenId := calldataload(_index)}\r\n\r\n        _receiveChild(_receiverTokenId, msg.sender, tokenId, 1);\r\n        emit ReceivedChild(from, _receiverTokenId, msg.sender, tokenId, 1);\r\n\r\n        return this.onERC721Received.selector;\r\n    }\r\n\r\n    /**\r\n     * @dev Receives a batch of child tokens, the receiver token ID must be\r\n     * encoded in the field data.\r\n     */\r\n    function onERC1155BatchReceived(address operator, address from, uint256[] memory ids, uint256[] memory values, bytes memory data) virtual public override returns(bytes4) {\r\n        require(data.length == 32, \"ERC998: data must contain the unique uint256 tokenId to transfer the child token to\");\r\n        require(ids.length == values.length, \"ERC1155: ids and values length mismatch\");\r\n        _beforeChildTransfer(operator, 0, address(this), from, ids, values, data);\r\n\r\n        uint256 _receiverTokenId;\r\n        uint256 _index = msg.data.length - 32;\r\n        assembly {_receiverTokenId := calldataload(_index)}\r\n        for(uint256 i = 0; i < ids.length; i++) {\r\n            _receiveChild(_receiverTokenId, msg.sender, ids[i], values[i]);\r\n            emit ReceivedChild(from, _receiverTokenId, msg.sender, ids[i], values[i]);\r\n        }\r\n        return this.onERC1155BatchReceived.selector;\r\n    }\r\n\r\n    function _receiveChild(uint256 tokenId, address childContract, uint256 childTokenId, uint256 amount) internal virtual {\r\n        if(!_childContract[tokenId].contains(childContract)) {\r\n            _childContract[tokenId].add(childContract);\r\n        }\r\n        if(_balances[tokenId][childContract][childTokenId] == 0) {\r\n            _childsForChildContract[tokenId][childContract].add(childTokenId);\r\n        }\r\n        _balances[tokenId][childContract][childTokenId] += amount;\r\n    }\r\n\r\n    function _removeChild(uint256 tokenId, address childContract, uint256 childTokenId, uint256 amount) internal virtual {\r\n        require(amount != 0 || _balances[tokenId][childContract][childTokenId] >= amount, \"ERC998: insufficient child balance for transfer\");\r\n        _balances[tokenId][childContract][childTokenId] -= amount;\r\n        if(_balances[tokenId][childContract][childTokenId] == 0) {\r\n            _holdersOf[childContract][childTokenId].remove(tokenId);\r\n            _childsForChildContract[tokenId][childContract].remove(childTokenId);\r\n            if(_childsForChildContract[tokenId][childContract].length() == 0) {\r\n                _childContract[tokenId].remove(childContract);\r\n            }\r\n        }\r\n    }\r\n\r\n    function _beforeChildTransfer(\r\n        address operator,\r\n        uint256 fromTokenId,\r\n        address to,\r\n        address childContract,\r\n        uint256[] memory ids,\r\n        uint256[] memory amounts,\r\n        bytes memory data\r\n    )\r\n        internal virtual\r\n    { }\r\n\r\n    function _asSingletonArray(uint256 element) private pure returns (uint256[] memory) {\r\n        uint256[] memory array = new uint256[](1);\r\n        array[0] = element;\r\n\r\n        return array;\r\n    }\r\n}\r\n",
  "sourcePath": "C:\\Users\\prami\\OneDrive\\Desktop\\Thesis\\composo\\supp_chain\\truffle\\contracts\\ERC998ERC1155TopDown.sol",
  "compiler": {
    "name": "solc",
    "version": "0.8.17+commit.8df45f5f.Emscripten.clang"
  },
  "schemaVersion": "3.4.10",
  "updatedAt": "2022-10-31T16:06:27.051Z",
  "networkType": "ethereum",
  "devdoc": {
    "kind": "dev",
    "methods": {
      "approve(address,uint256)": {
        "details": "See {IERC721-approve}."
      },
      "balanceOf(address)": {
        "details": "See {IERC721-balanceOf}."
      },
      "childBalance(uint256,address,uint256)": {
        "details": "Gives child balance for a specific child contract and child id ."
      },
      "childContractsFor(uint256)": {
        "details": "Gives list of child contract where token ID has childs."
      },
      "childIdsOwned(uint256,address)": {
        "details": "Gives list of owned child ID on a child contract by parent token ID and child contract."
      },
      "getApproved(uint256)": {
        "details": "See {IERC721-getApproved}."
      },
      "getChildContract(uint256,uint256)": {
        "details": "Returns the contract address of the child token ID, given a parent and child token ID."
      },
      "getIsERC1155(uint256)": {
        "details": "gets true if tokenID is ERC1155"
      },
      "getMsgSender()": {
        "details": "Wrapper function to get message sender."
      },
      "getOwner(uint256)": {
        "details": "Returns the owner of the token specified by tokenId. Wrapper function for ERC721 function ownerOf(). "
      },
      "isApprovedForAll(address,address)": {
        "details": "See {IERC721-isApprovedForAll}."
      },
      "name()": {
        "details": "See {IERC721Metadata-name}."
      },
      "onERC1155BatchReceived(address,address,uint256[],uint256[],bytes)": {
        "details": "Receives a batch of child tokens, the receiver token ID must be encoded in the field data."
      },
      "onERC1155Received(address,address,uint256,uint256,bytes)": {
        "details": "Receives a child token, the receiver token ID must be encoded in the field data."
      },
      "onERC721Received(address,address,uint256,bytes)": {
        "details": "Receives a child token, the receiver token ID must be encoded in the field data."
      },
      "ownerOf(uint256)": {
        "details": "See {IERC721-ownerOf}."
      },
      "safeBatchTransferChildFrom(uint256,address,address,uint256[],uint256[],bytes)": {
        "details": "Transfers batch of child tokens from a token ID."
      },
      "safeTransferChildFrom(uint256,address,address,uint256,uint256,bytes)": {
        "details": "Transfers child token from a token ID."
      },
      "safeTransferFrom(address,address,uint256)": {
        "details": "See {IERC721-safeTransferFrom}."
      },
      "safeTransferFrom(address,address,uint256,bytes)": {
        "details": "See {IERC721-safeTransferFrom}."
      },
      "setApprovalForAll(address,bool)": {
        "details": "See {IERC721-setApprovalForAll}."
      },
      "setIsERC1155(uint256)": {
        "details": "Sets isERC1155 array "
      },
      "supportsInterface(bytes4)": {
        "details": "See {IERC165-supportsInterface}."
      },
      "symbol()": {
        "details": "See {IERC721Metadata-symbol}."
      },
      "tokenURI(uint256)": {
        "details": "See {IERC721Metadata-tokenURI}."
      },
      "transferFrom(address,address,uint256)": {
        "details": "See {IERC721-transferFrom}."
      }
    },
    "version": 1
  },
  "userdoc": {
    "kind": "user",
    "methods": {},
    "version": 1
  }
}