{
  "contractName": "ERC998ERC1155TopDown",
  "abi": [
    {
      "inputs": [
        {
          "internalType": "string",
          "name": "name",
          "type": "string"
        },
        {
          "internalType": "string",
          "name": "symbol",
          "type": "string"
        },
        {
          "internalType": "string",
          "name": "baseURI",
          "type": "string"
        }
      ],
      "stateMutability": "nonpayable",
      "type": "constructor"
    },
    {
      "anonymous": false,
      "inputs": [
        {
          "indexed": true,
          "internalType": "address",
          "name": "owner",
          "type": "address"
        },
        {
          "indexed": true,
          "internalType": "address",
          "name": "approved",
          "type": "address"
        },
        {
          "indexed": true,
          "internalType": "uint256",
          "name": "tokenId",
          "type": "uint256"
        }
      ],
      "name": "Approval",
      "type": "event"
    },
    {
      "anonymous": false,
      "inputs": [
        {
          "indexed": true,
          "internalType": "address",
          "name": "owner",
          "type": "address"
        },
        {
          "indexed": true,
          "internalType": "address",
          "name": "operator",
          "type": "address"
        },
        {
          "indexed": false,
          "internalType": "bool",
          "name": "approved",
          "type": "bool"
        }
      ],
      "name": "ApprovalForAll",
      "type": "event"
    },
    {
      "anonymous": false,
      "inputs": [
        {
          "indexed": true,
          "internalType": "address",
          "name": "from",
          "type": "address"
        },
        {
          "indexed": true,
          "internalType": "uint256",
          "name": "toTokenId",
          "type": "uint256"
        },
        {
          "indexed": true,
          "internalType": "address",
          "name": "childContract",
          "type": "address"
        },
        {
          "indexed": false,
          "internalType": "uint256",
          "name": "childTokenId",
          "type": "uint256"
        },
        {
          "indexed": false,
          "internalType": "uint256",
          "name": "amount",
          "type": "uint256"
        }
      ],
      "name": "ReceivedChild",
      "type": "event"
    },
    {
      "anonymous": false,
      "inputs": [
        {
          "indexed": true,
          "internalType": "address",
          "name": "from",
          "type": "address"
        },
        {
          "indexed": true,
          "internalType": "address",
          "name": "to",
          "type": "address"
        },
        {
          "indexed": true,
          "internalType": "uint256",
          "name": "tokenId",
          "type": "uint256"
        }
      ],
      "name": "Transfer",
      "type": "event"
    },
    {
      "anonymous": false,
      "inputs": [
        {
          "indexed": true,
          "internalType": "uint256",
          "name": "fromTokenId",
          "type": "uint256"
        },
        {
          "indexed": true,
          "internalType": "address",
          "name": "to",
          "type": "address"
        },
        {
          "indexed": true,
          "internalType": "address",
          "name": "childContract",
          "type": "address"
        },
        {
          "indexed": false,
          "internalType": "uint256[]",
          "name": "childTokenIds",
          "type": "uint256[]"
        },
        {
          "indexed": false,
          "internalType": "uint256[]",
          "name": "amounts",
          "type": "uint256[]"
        }
      ],
      "name": "TransferBatchChild",
      "type": "event"
    },
    {
      "anonymous": false,
      "inputs": [
        {
          "indexed": true,
          "internalType": "uint256",
          "name": "fromTokenId",
          "type": "uint256"
        },
        {
          "indexed": true,
          "internalType": "address",
          "name": "to",
          "type": "address"
        },
        {
          "indexed": true,
          "internalType": "address",
          "name": "childContract",
          "type": "address"
        },
        {
          "indexed": false,
          "internalType": "uint256",
          "name": "childTokenId",
          "type": "uint256"
        },
        {
          "indexed": false,
          "internalType": "uint256",
          "name": "amount",
          "type": "uint256"
        }
      ],
      "name": "TransferSingleChild",
      "type": "event"
    },
    {
      "inputs": [
        {
          "internalType": "uint256",
          "name": "",
          "type": "uint256"
        },
        {
          "internalType": "address",
          "name": "",
          "type": "address"
        },
        {
          "internalType": "uint256",
          "name": "",
          "type": "uint256"
        }
      ],
      "name": "_balances",
      "outputs": [
        {
          "internalType": "uint256",
          "name": "",
          "type": "uint256"
        }
      ],
      "stateMutability": "view",
      "type": "function",
      "constant": true
    },
    {
      "inputs": [
        {
          "internalType": "address",
          "name": "to",
          "type": "address"
        },
        {
          "internalType": "uint256",
          "name": "tokenId",
          "type": "uint256"
        }
      ],
      "name": "approve",
      "outputs": [],
      "stateMutability": "nonpayable",
      "type": "function"
    },
    {
      "inputs": [
        {
          "internalType": "address",
          "name": "owner",
          "type": "address"
        }
      ],
      "name": "balanceOf",
      "outputs": [
        {
          "internalType": "uint256",
          "name": "",
          "type": "uint256"
        }
      ],
      "stateMutability": "view",
      "type": "function",
      "constant": true
    },
    {
      "inputs": [
        {
          "internalType": "uint256",
          "name": "tokenId",
          "type": "uint256"
        }
      ],
      "name": "getApproved",
      "outputs": [
        {
          "internalType": "address",
          "name": "",
          "type": "address"
        }
      ],
      "stateMutability": "view",
      "type": "function",
      "constant": true
    },
    {
      "inputs": [
        {
          "internalType": "address",
          "name": "owner",
          "type": "address"
        },
        {
          "internalType": "address",
          "name": "operator",
          "type": "address"
        }
      ],
      "name": "isApprovedForAll",
      "outputs": [
        {
          "internalType": "bool",
          "name": "",
          "type": "bool"
        }
      ],
      "stateMutability": "view",
      "type": "function",
      "constant": true
    },
    {
      "inputs": [
        {
          "internalType": "uint256",
          "name": "",
          "type": "uint256"
        }
      ],
      "name": "isERC1155",
      "outputs": [
        {
          "internalType": "bool",
          "name": "",
          "type": "bool"
        }
      ],
      "stateMutability": "view",
      "type": "function",
      "constant": true
    },
    {
      "inputs": [
        {
          "internalType": "uint256",
          "name": "",
          "type": "uint256"
        }
      ],
      "name": "isERC721",
      "outputs": [
        {
          "internalType": "bool",
          "name": "",
          "type": "bool"
        }
      ],
      "stateMutability": "view",
      "type": "function",
      "constant": true
    },
    {
      "inputs": [],
      "name": "name",
      "outputs": [
        {
          "internalType": "string",
          "name": "",
          "type": "string"
        }
      ],
      "stateMutability": "view",
      "type": "function",
      "constant": true
    },
    {
      "inputs": [
        {
          "internalType": "uint256",
          "name": "tokenId",
          "type": "uint256"
        }
      ],
      "name": "ownerOf",
      "outputs": [
        {
          "internalType": "address",
          "name": "",
          "type": "address"
        }
      ],
      "stateMutability": "view",
      "type": "function",
      "constant": true
    },
    {
      "inputs": [
        {
          "internalType": "uint256",
          "name": "",
          "type": "uint256"
        }
      ],
      "name": "rootOwners",
      "outputs": [
        {
          "internalType": "uint256",
          "name": "",
          "type": "uint256"
        }
      ],
      "stateMutability": "view",
      "type": "function",
      "constant": true
    },
    {
      "inputs": [
        {
          "internalType": "address",
          "name": "from",
          "type": "address"
        },
        {
          "internalType": "address",
          "name": "to",
          "type": "address"
        },
        {
          "internalType": "uint256",
          "name": "tokenId",
          "type": "uint256"
        }
      ],
      "name": "safeTransferFrom",
      "outputs": [],
      "stateMutability": "nonpayable",
      "type": "function"
    },
    {
      "inputs": [
        {
          "internalType": "address",
          "name": "from",
          "type": "address"
        },
        {
          "internalType": "address",
          "name": "to",
          "type": "address"
        },
        {
          "internalType": "uint256",
          "name": "tokenId",
          "type": "uint256"
        },
        {
          "internalType": "bytes",
          "name": "data",
          "type": "bytes"
        }
      ],
      "name": "safeTransferFrom",
      "outputs": [],
      "stateMutability": "nonpayable",
      "type": "function"
    },
    {
      "inputs": [
        {
          "internalType": "address",
          "name": "operator",
          "type": "address"
        },
        {
          "internalType": "bool",
          "name": "approved",
          "type": "bool"
        }
      ],
      "name": "setApprovalForAll",
      "outputs": [],
      "stateMutability": "nonpayable",
      "type": "function"
    },
    {
      "inputs": [
        {
          "internalType": "bytes4",
          "name": "interfaceId",
          "type": "bytes4"
        }
      ],
      "name": "supportsInterface",
      "outputs": [
        {
          "internalType": "bool",
          "name": "",
          "type": "bool"
        }
      ],
      "stateMutability": "view",
      "type": "function",
      "constant": true
    },
    {
      "inputs": [],
      "name": "symbol",
      "outputs": [
        {
          "internalType": "string",
          "name": "",
          "type": "string"
        }
      ],
      "stateMutability": "view",
      "type": "function",
      "constant": true
    },
    {
      "inputs": [
        {
          "internalType": "uint256",
          "name": "tokenId",
          "type": "uint256"
        }
      ],
      "name": "tokenURI",
      "outputs": [
        {
          "internalType": "string",
          "name": "",
          "type": "string"
        }
      ],
      "stateMutability": "view",
      "type": "function",
      "constant": true
    },
    {
      "inputs": [
        {
          "internalType": "uint256",
          "name": "",
          "type": "uint256"
        }
      ],
      "name": "token_URI",
      "outputs": [
        {
          "internalType": "string",
          "name": "",
          "type": "string"
        }
      ],
      "stateMutability": "view",
      "type": "function",
      "constant": true
    },
    {
      "inputs": [
        {
          "internalType": "address",
          "name": "from",
          "type": "address"
        },
        {
          "internalType": "address",
          "name": "to",
          "type": "address"
        },
        {
          "internalType": "uint256",
          "name": "tokenId",
          "type": "uint256"
        }
      ],
      "name": "transferFrom",
      "outputs": [],
      "stateMutability": "nonpayable",
      "type": "function"
    },
    {
      "inputs": [
        {
          "internalType": "uint256",
          "name": "tokenId",
          "type": "uint256"
        },
        {
          "internalType": "string",
          "name": "_tokenURI",
          "type": "string"
        }
      ],
      "name": "setTokenURI",
      "outputs": [],
      "stateMutability": "nonpayable",
      "type": "function"
    },
    {
      "inputs": [
        {
          "internalType": "uint256",
          "name": "tokenId",
          "type": "uint256"
        }
      ],
      "name": "getTokenURI",
      "outputs": [
        {
          "internalType": "string",
          "name": "",
          "type": "string"
        }
      ],
      "stateMutability": "view",
      "type": "function",
      "constant": true
    },
    {
      "inputs": [
        {
          "internalType": "uint256",
          "name": "tokenId",
          "type": "uint256"
        },
        {
          "internalType": "address",
          "name": "childContract",
          "type": "address"
        },
        {
          "internalType": "uint256",
          "name": "childTokenId",
          "type": "uint256"
        }
      ],
      "name": "childBalance",
      "outputs": [
        {
          "internalType": "uint256",
          "name": "",
          "type": "uint256"
        }
      ],
      "stateMutability": "view",
      "type": "function",
      "constant": true
    },
    {
      "inputs": [
        {
          "internalType": "uint256",
          "name": "tokenId",
          "type": "uint256"
        }
      ],
      "name": "childContractsFor",
      "outputs": [
        {
          "internalType": "address[]",
          "name": "",
          "type": "address[]"
        }
      ],
      "stateMutability": "view",
      "type": "function",
      "constant": true
    },
    {
      "inputs": [
        {
          "internalType": "uint256",
          "name": "tokenId",
          "type": "uint256"
        },
        {
          "internalType": "address",
          "name": "childContract",
          "type": "address"
        }
      ],
      "name": "childIdsOwned",
      "outputs": [
        {
          "internalType": "uint256[]",
          "name": "",
          "type": "uint256[]"
        }
      ],
      "stateMutability": "view",
      "type": "function",
      "constant": true
    },
    {
      "inputs": [
        {
          "internalType": "uint256",
          "name": "id",
          "type": "uint256"
        }
      ],
      "name": "setRootOwner",
      "outputs": [],
      "stateMutability": "nonpayable",
      "type": "function"
    },
    {
      "inputs": [],
      "name": "getRootOwners",
      "outputs": [
        {
          "internalType": "uint256[]",
          "name": "",
          "type": "uint256[]"
        }
      ],
      "stateMutability": "view",
      "type": "function",
      "constant": true
    },
    {
      "inputs": [
        {
          "internalType": "uint256",
          "name": "fromTokenId",
          "type": "uint256"
        },
        {
          "internalType": "uint256",
          "name": "root",
          "type": "uint256"
        },
        {
          "internalType": "address",
          "name": "to",
          "type": "address"
        },
        {
          "internalType": "address",
          "name": "childContract",
          "type": "address"
        },
        {
          "internalType": "uint256",
          "name": "childTokenId",
          "type": "uint256"
        },
        {
          "internalType": "uint256",
          "name": "amount",
          "type": "uint256"
        },
        {
          "internalType": "bytes",
          "name": "data",
          "type": "bytes"
        }
      ],
      "name": "safeTransferChildFrom",
      "outputs": [],
      "stateMutability": "nonpayable",
      "type": "function"
    },
    {
      "inputs": [
        {
          "internalType": "uint256",
          "name": "tokenID",
          "type": "uint256"
        }
      ],
      "name": "getOwner",
      "outputs": [
        {
          "internalType": "address",
          "name": "",
          "type": "address"
        }
      ],
      "stateMutability": "view",
      "type": "function",
      "constant": true
    },
    {
      "inputs": [
        {
          "internalType": "uint256",
          "name": "tokenID",
          "type": "uint256"
        }
      ],
      "name": "setIsERC1155",
      "outputs": [],
      "stateMutability": "nonpayable",
      "type": "function"
    },
    {
      "inputs": [
        {
          "internalType": "uint256",
          "name": "tokenID",
          "type": "uint256"
        }
      ],
      "name": "getIsERC1155",
      "outputs": [
        {
          "internalType": "bool",
          "name": "",
          "type": "bool"
        }
      ],
      "stateMutability": "view",
      "type": "function",
      "constant": true
    },
    {
      "inputs": [
        {
          "internalType": "uint256",
          "name": "tokenID",
          "type": "uint256"
        },
        {
          "internalType": "uint256",
          "name": "childTokenID",
          "type": "uint256"
        }
      ],
      "name": "getChildContract",
      "outputs": [
        {
          "internalType": "address",
          "name": "",
          "type": "address"
        }
      ],
      "stateMutability": "view",
      "type": "function",
      "constant": true
    },
    {
      "inputs": [],
      "name": "getMsgSender",
      "outputs": [
        {
          "internalType": "address",
          "name": "",
          "type": "address"
        }
      ],
      "stateMutability": "view",
      "type": "function",
      "constant": true
    },
    {
      "inputs": [
        {
          "internalType": "uint256",
          "name": "fromTokenId",
          "type": "uint256"
        },
        {
          "internalType": "address",
          "name": "to",
          "type": "address"
        },
        {
          "internalType": "address",
          "name": "childContract",
          "type": "address"
        },
        {
          "internalType": "uint256[]",
          "name": "childTokenIds",
          "type": "uint256[]"
        },
        {
          "internalType": "uint256[]",
          "name": "amounts",
          "type": "uint256[]"
        },
        {
          "internalType": "bytes",
          "name": "data",
          "type": "bytes"
        }
      ],
      "name": "safeBatchTransferChildFrom",
      "outputs": [],
      "stateMutability": "nonpayable",
      "type": "function"
    },
    {
      "inputs": [
        {
          "internalType": "address",
          "name": "operator",
          "type": "address"
        },
        {
          "internalType": "address",
          "name": "from",
          "type": "address"
        },
        {
          "internalType": "uint256",
          "name": "id",
          "type": "uint256"
        },
        {
          "internalType": "uint256",
          "name": "amount",
          "type": "uint256"
        },
        {
          "internalType": "bytes",
          "name": "data",
          "type": "bytes"
        }
      ],
      "name": "onERC1155Received",
      "outputs": [
        {
          "internalType": "bytes4",
          "name": "",
          "type": "bytes4"
        }
      ],
      "stateMutability": "nonpayable",
      "type": "function"
    },
    {
      "inputs": [
        {
          "internalType": "address",
          "name": "operator",
          "type": "address"
        },
        {
          "internalType": "address",
          "name": "from",
          "type": "address"
        },
        {
          "internalType": "uint256",
          "name": "tokenId",
          "type": "uint256"
        },
        {
          "internalType": "bytes",
          "name": "data",
          "type": "bytes"
        }
      ],
      "name": "onERC721Received",
      "outputs": [
        {
          "internalType": "bytes4",
          "name": "",
          "type": "bytes4"
        }
      ],
      "stateMutability": "nonpayable",
      "type": "function"
    },
    {
      "inputs": [
        {
          "internalType": "address",
          "name": "operator",
          "type": "address"
        },
        {
          "internalType": "address",
          "name": "from",
          "type": "address"
        },
        {
          "internalType": "uint256[]",
          "name": "ids",
          "type": "uint256[]"
        },
        {
          "internalType": "uint256[]",
          "name": "values",
          "type": "uint256[]"
        },
        {
          "internalType": "bytes",
          "name": "data",
          "type": "bytes"
        }
      ],
      "name": "onERC1155BatchReceived",
      "outputs": [
        {
          "internalType": "bytes4",
          "name": "",
          "type": "bytes4"
        }
      ],
      "stateMutability": "nonpayable",
      "type": "function"
    }
  ],
  "bytecode": "0x60806040523480156200001157600080fd5b50604051620032a7380380620032a7833981016040819052620000349162000169565b82826000620000448382620002a2565b506001620000538282620002a2565b5050506200006f62000079640100000000026401000000009004565b5050505062000374565b60408051602081019091526000815290565b7f4e487b7100000000000000000000000000000000000000000000000000000000600052604160045260246000fd5b600082601f830112620000cc57600080fd5b81516001604060020a0380821115620000e957620000e96200008b565b604051601f8301601f19908116603f011681019082821181831017156200011457620001146200008b565b816040528381526020925086838588010111156200013157600080fd5b600091505b8382101562000155578582018301518183018401529082019062000136565b600093810190920192909252949350505050565b6000806000606084860312156200017f57600080fd5b83516001604060020a03808211156200019757600080fd5b620001a587838801620000ba565b94506020860151915080821115620001bc57600080fd5b620001ca87838801620000ba565b93506040860151915080821115620001e157600080fd5b50620001f086828701620000ba565b9150509250925092565b6002810460018216806200020f57607f821691505b60208210810362000249577f4e487b7100000000000000000000000000000000000000000000000000000000600052602260045260246000fd5b50919050565b601f8211156200029d576000818152602081206020601f86010481016020861015620002785750805b6020601f860104820191505b81811015620002995782815560010162000284565b5050505b505050565b81516001604060020a03811115620002be57620002be6200008b565b620002d681620002cf8454620001fa565b846200024f565b602080601f831160018114620003125760008415620002f55750858301515b60028086026008870290910a600019041982161786555062000299565b600085815260208120601f198616915b82811015620003435788860151825594840194600190910190840162000322565b50858210156200036457878501516008601f88160260020a60001904191681555b5050505050600202600101905550565b612f2380620003846000396000f3fe608060405234801561001057600080fd5b506004361061022d576000357c0100000000000000000000000000000000000000000000000000000000900480636f9bc25b11610142578063a22cb465116100ca578063c87b56dd11610099578063c87b56dd14610545578063e2edee2b14610558578063e985e9c514610581578063eeaf2f0914610594578063f23a6e61146105c557600080fd5b8063a22cb465146104f9578063b88d4fde1461050c578063bc197c811461051f578063c41a360a1461053257600080fd5b8063849c968c11610111578063849c968c1461047857806389e7e2f21461049b5780638f1cc0de146104bb57806395d89b41146104ce5780639fb64d83146104d657600080fd5b80636f9bc25b146103f957806370a082311461041c5780637a6ce2e11461042f5780637a7c792f1461043557600080fd5b806317dd7623116101c557806342842e0e1161019457806342842e0e1461036e5780635fa030211461038157806360d4d23a146103a15780636352211e146103de57806366ceb7b8146103f157600080fd5b806317dd76231461032257806323b872dd1461033557806332085b65146103485780633bb3a24d1461035b57600080fd5b8063095ea7b311610201578063095ea7b3146102bb5780630ef347a5146102d0578063150b7a02146102e3578063162094c41461030f57600080fd5b80626174ca1461023257806301ffc9a71461025857806306fdde031461027b578063081812fc14610290575b600080fd5b61024561024036600461228c565b6105d8565b6040519081526020015b60405180910390f35b61026b6102663660046122bb565b6105f9565b604051901515815260200161024f565b610283610696565b60405161024f9190612328565b6102a361029e36600461228c565b610728565b604051600160a060020a03909116815260200161024f565b6102ce6102c9366004612357565b61074f565b005b6102836102de36600461228c565b61088b565b6102f66102f1366004612443565b610925565b604051600160e060020a0319909116815260200161024f565b6102ce61031d3660046124ab565b6109e2565b6102a3610330366004612506565b6109fa565b6102ce610343366004612528565b610aa5565b6102ce6103563660046125e3565b610ad9565b61028361036936600461228c565b610d06565b6102ce61037c366004612528565b610da8565b61039461038f366004612695565b610dc3565b60405161024f91906126fc565b6102456103af36600461270f565b6000928352600660209081526040808520600160a060020a039490941685529281528284209184525290205490565b6102a36103ec36600461228c565b610ece565b610394610f36565b61026b61040736600461228c565b600b6020526000908152604090205460ff1681565b61024561042a366004612734565b610f8d565b336102a3565b6102ce61044336600461228c565b600d80546001810182556000919091527fd7b6990105719101dabeb77144f2a3385c8033acd3af97e9423a695e81ad1eb50155565b61026b61048636600461228c565b6000908152600b602052604090205460ff1690565b6104ae6104a936600461228c565b61102a565b60405161024f919061274f565b6102ce6104c936600461279c565b611105565b610283611360565b61026b6104e436600461228c565b600a6020526000908152604090205460ff1681565b6102ce610507366004612821565b61136f565b6102ce61051a366004612443565b61137e565b6102f661052d36600461285d565b6113b9565b6102a361054036600461228c565b611580565b61028361055336600461228c565b61158b565b6102ce61056636600461228c565b6000908152600b60205260409020805460ff19166001179055565b61026b61058f366004612907565b6115ff565b6102456105a236600461270f565b600660209081526000938452604080852082529284528284209052825290205481565b6102f66105d3366004612931565b61162d565b600d81815481106105e857600080fd5b600091825260209091200154905081565b6000600160e060020a031982167f80ac58cd00000000000000000000000000000000000000000000000000000000148061065c5750600160e060020a031982167f5b5e139f00000000000000000000000000000000000000000000000000000000145b8061069057507f01ffc9a700000000000000000000000000000000000000000000000000000000600160e060020a03198316145b92915050565b6060600080546106a590612996565b80601f01602080910402602001604051908101604052809291908181526020018280546106d190612996565b801561071e5780601f106106f35761010080835404028352916020019161071e565b820191906000526020600020905b81548152906001019060200180831161070157829003601f168201915b5050505050905090565b6000610733826116f9565b50600090815260046020526040902054600160a060020a031690565b600061075a82610ece565b905080600160a060020a031683600160a060020a0316036107eb5760405160e560020a62461bcd02815260206004820152602160248201527f4552433732313a20617070726f76616c20746f2063757272656e74206f776e6560448201527f720000000000000000000000000000000000000000000000000000000000000060648201526084015b60405180910390fd5b33600160a060020a0382161480610807575061080781336115ff565b61087c5760405160e560020a62461bcd02815260206004820152603e60248201527f4552433732313a20617070726f76652063616c6c6572206973206e6f7420746f60448201527f6b656e206f776e6572206e6f7220617070726f76656420666f7220616c6c000060648201526084016107e2565b6108868383611763565b505050565b600c60205260009081526040902080546108a490612996565b80601f01602080910402602001604051908101604052809291908181526020018280546108d090612996565b801561091d5780601f106108f25761010080835404028352916020019161091d565b820191906000526020600020905b81548152906001019060200180831161090057829003601f168201915b505050505081565b6000815160201461094b5760405160e560020a62461bcd0281526004016107e2906129d3565b600080610959602036612a6f565b90508035915061096c82338760016117de565b604080518681526001602082015233918491600160a060020a038a16917fa18753b0660a8be2cdae03468c860b47c2926433ab16917f323544652803032d910160405180910390a4507f150b7a02000000000000000000000000000000000000000000000000000000009150505b949350505050565b6000828152600c602052604090206108868282612ac8565b6000805b6000848152600860205260409020610a15906118b8565b811015610a9b57600084815260096020908152604080832060089092528220610a6492869291610a4590866118c2565b600160a060020a031681526020810191909152604001600020906118ce565b15610a89576000848152600860205260409020610a8190826118c2565b915050610690565b80610a9381612b8e565b9150506109fe565b5060009392505050565b610aaf33826118e6565b610ace5760405160e560020a62461bcd0281526004016107e290612ba7565b610886838383611944565b8151835114610b535760405160e560020a62461bcd02815260206004820152602760248201527f4552433939383a2069647320616e6420616d6f756e7473206c656e677468206d60448201527f69736d617463680000000000000000000000000000000000000000000000000060648201526084016107e2565b600160a060020a038516610b7c5760405160e560020a62461bcd0281526004016107e290612c04565b3380610b8788610ece565b600160a060020a03161480610ba95750610ba9610ba388610ece565b826115ff565b610bc85760405160e560020a62461bcd0281526004016107e290612c61565b60005b8451811015610c2f576000858281518110610be857610be8612cbe565b602002602001015190506000858381518110610c0657610c06612cbe565b60200260200101519050610c1c8a898484611b24565b505080610c2890612b8e565b9050610bcb565b506040517f2eb2c2d6000000000000000000000000000000000000000000000000000000008152600160a060020a03861690632eb2c2d690610c7d9030908a90899089908990600401612cd7565b600060405180830381600087803b158015610c9757600080fd5b505af1158015610cab573d6000803e3d6000fd5b5050505084600160a060020a031686600160a060020a0316887f5572be9c1bc39e4e277a34f64ccd0e84456dac3f33b0b1c458c12c402c6326a98787604051610cf5929190612d35565b60405180910390a450505050505050565b6000818152600c60205260409020805460609190610d2390612996565b80601f0160208091040260200160405190810160405280929190818152602001828054610d4f90612996565b8015610d9c5780601f10610d7157610100808354040283529160200191610d9c565b820191906000526020600020905b815481529060010190602001808311610d7f57829003601f168201915b50505050509050919050565b6108868383836040518060200160405280600081525061137e565b6000828152600960209081526040808320600160a060020a0385168452909152812060609190610df2906118b8565b67ffffffffffffffff811115610e0a57610e0a612381565b604051908082528060200260200182016040528015610e33578160200160208202803683370190505b50905060005b6000858152600960209081526040808320600160a060020a03881684529091529020610e64906118b8565b811015610ec6576000858152600960209081526040808320600160a060020a03881684529091529020610e9790826118c2565b828281518110610ea957610ea9612cbe565b602090810291909101015280610ebe81612b8e565b915050610e39565b509392505050565b600081815260026020526040812054600160a060020a0316806106905760405160e560020a62461bcd02815260206004820152601860248201527f4552433732313a20696e76616c696420746f6b656e204944000000000000000060448201526064016107e2565b6060600d80548060200260200160405190810160405280929190818152602001828054801561071e57602002820191906000526020600020905b815481526020019060010190808311610f70575050505050905090565b6000600160a060020a03821661100e5760405160e560020a62461bcd02815260206004820152602960248201527f4552433732313a2061646472657373207a65726f206973206e6f74206120766160448201527f6c6964206f776e6572000000000000000000000000000000000000000000000060648201526084016107e2565b50600160a060020a031660009081526003602052604090205490565b600081815260086020526040812060609190611045906118b8565b67ffffffffffffffff81111561105d5761105d612381565b604051908082528060200260200182016040528015611086578160200160208202803683370190505b50905060005b60008481526008602052604090206110a3906118b8565b8110156110fe5760008481526008602052604090206110c290826118c2565b8282815181106110d4576110d4612cbe565b600160a060020a0390921660209283029190910190910152806110f681612b8e565b91505061108c565b5092915050565b600160a060020a03851661112e5760405160e560020a62461bcd0281526004016107e290612c04565b338061113988610ece565b600160a060020a0316146111625760405160e560020a62461bcd0281526004016107e290612c61565b6111838189888861117289611ce3565b61117b89611ce3565b505050505050565b61118f88868686611b24565b6000848152600b602052604090205460ff1615611281576040517ff242432a000000000000000000000000000000000000000000000000000000008152600160a060020a0386169063f242432a906111f39030908a90899089908990600401612d63565b600060405180830381600087803b15801561120d57600080fd5b505af1158015611221573d6000803e3d6000fd5b5050505084600160a060020a031686600160a060020a0316897f9d6259404dec52b3d5d220f5b8e5d05cc05ec908e1bc320aa46793e3091e51948787604051611274929190918252602082015260400190565b60405180910390a4611356565b6040517fb88d4fde000000000000000000000000000000000000000000000000000000008152600160a060020a0386169063b88d4fde906112cc9030908a9089908890600401612d9b565b600060405180830381600087803b1580156112e657600080fd5b505af11580156112fa573d6000803e3d6000fd5b5050505084600160a060020a031686600160a060020a0316897f9d6259404dec52b3d5d220f5b8e5d05cc05ec908e1bc320aa46793e3091e5194878760405161134d929190918252602082015260400190565b60405180910390a45b5050505050505050565b6060600180546106a590612996565b61137a338383611d2e565b5050565b61138833836118e6565b6113a75760405160e560020a62461bcd0281526004016107e290612ba7565b6113b384848484611dff565b50505050565b600081516020146113df5760405160e560020a62461bcd0281526004016107e2906129d3565b82518451146114595760405160e560020a62461bcd02815260206004820152602760248201527f455243313135353a2069647320616e642076616c756573206c656e677468206d60448201527f69736d617463680000000000000000000000000000000000000000000000000060648201526084016107e2565b600080611467602036612a6f565b90508035915060005b8651811015611552576114b7833389848151811061149057611490612cbe565b60200260200101518985815181106114aa576114aa612cbe565b60200260200101516117de565b33600160a060020a03168389600160a060020a03167fa18753b0660a8be2cdae03468c860b47c2926433ab16917f323544652803032d8a85815181106114ff576114ff612cbe565b60200260200101518a868151811061151957611519612cbe565b6020026020010151604051611538929190918252602082015260400190565b60405180910390a48061154a81612b8e565b915050611470565b507fbc197c810000000000000000000000000000000000000000000000000000000098975050505050505050565b600061069082610ece565b6060611596826116f9565b60006115ad60408051602081019091526000815290565b905060008151116115cd57604051806020016040528060008152506115f8565b806115d784611e35565b6040516020016115e8929190612dd7565b6040516020818303038152906040525b9392505050565b600160a060020a03918216600090815260056020908152604080832093909416825291909152205460ff1690565b600081516020146116535760405160e560020a62461bcd0281526004016107e2906129d3565b611664866000308861117289611ce3565b600080611672602036612a6f565b905080359150611684823388886117de565b604080518781526020810187905233918491600160a060020a038b16917fa18753b0660a8be2cdae03468c860b47c2926433ab16917f323544652803032d910160405180910390a4507ff23a6e6100000000000000000000000000000000000000000000000000000000979650505050505050565b600081815260026020526040902054600160a060020a03166117605760405160e560020a62461bcd02815260206004820152601860248201527f4552433732313a20696e76616c696420746f6b656e204944000000000000000060448201526064016107e2565b50565b6000818152600460205260409020805473ffffffffffffffffffffffffffffffffffffffff1916600160a060020a03841690811790915581906117a582610ece565b600160a060020a03167f8c5be1e5ebec7d5bd14f71427d1e84f3dd0314c0f7b2291e5b200ac8c7c3b92560405160405180910390a45050565b60008481526008602052604090206117f69084611f89565b6118145760008481526008602052604090206118129084611fab565b505b6000848152600660209081526040808320600160a060020a038716845282528083208584529091528120549003611873576000848152600960209081526040808320600160a060020a038716845290915290206118719083611fc0565b505b6000848152600660209081526040808320600160a060020a03871684528252808320858452909152812080548392906118ad908490612e06565b909155505050505050565b6000610690825490565b60006115f88383611fcc565b600081815260018301602052604081205415156115f8565b6000806118f283610ece565b905080600160a060020a031684600160a060020a03161480611919575061191981856115ff565b806109da575083600160a060020a031661193284610728565b600160a060020a031614949350505050565b82600160a060020a031661195782610ece565b600160a060020a0316146119d65760405160e560020a62461bcd02815260206004820152602560248201527f4552433732313a207472616e736665722066726f6d20696e636f72726563742060448201527f6f776e657200000000000000000000000000000000000000000000000000000060648201526084016107e2565b600160a060020a038216611a545760405160e560020a62461bcd028152602060048201526024808201527f4552433732313a207472616e7366657220746f20746865207a65726f2061646460448201527f726573730000000000000000000000000000000000000000000000000000000060648201526084016107e2565b611a5f600082611763565b600160a060020a0383166000908152600360205260408120805460019290611a88908490612a6f565b9091555050600160a060020a0382166000908152600360205260408120805460019290611ab6908490612e06565b9091555050600081815260026020526040808220805473ffffffffffffffffffffffffffffffffffffffff1916600160a060020a0386811691821790925591518493918716917fddf252ad1be2c89b69c2b068fc378daa952ba7f163c4a11628f55a4df523b3ef91a4505050565b6000848152600660209081526040808320600160a060020a03871684528252808320858452909152902054811115611bc75760405160e560020a62461bcd02815260206004820152602f60248201527f4552433939383a20696e73756666696369656e74206368696c642062616c616e60448201527f636520666f72207472616e73666572000000000000000000000000000000000060648201526084016107e2565b6000848152600660209081526040808320600160a060020a0387168452825280832085845290915281208054839290611c01908490612a6f565b90915550506000848152600660209081526040808320600160a060020a0387168452825280832085845290915281205490036113b357600160a060020a03831660009081526007602090815260408083208584529091529020611c649085611ff6565b506000848152600960209081526040808320600160a060020a03871684529091529020611c919083611ff6565b506000848152600960209081526040808320600160a060020a03871684529091529020611cbd906118b8565b6000036113b3576000848152600860205260409020611cdc9084612002565b5050505050565b60408051600180825281830190925260609160009190602080830190803683370190505090508281600081518110611d1d57611d1d612cbe565b602090810291909101015292915050565b81600160a060020a031683600160a060020a031603611d925760405160e560020a62461bcd02815260206004820152601960248201527f4552433732313a20617070726f766520746f2063616c6c65720000000000000060448201526064016107e2565b600160a060020a03838116600081815260056020908152604080832094871680845294825291829020805460ff191686151590811790915591519182527f17307eab39ab6107e8899845ad3d59bd9653f200f220920489ca2b5937696c31910160405180910390a3505050565b611e0a848484611944565b611e1684848484612017565b6113b35760405160e560020a62461bcd0281526004016107e290612e19565b606081600003611e7857505060408051808201909152600181527f3000000000000000000000000000000000000000000000000000000000000000602082015290565b8160005b8115611ea25780611e8c81612b8e565b9150611e9b9050600a83612e8f565b9150611e7c565b60008167ffffffffffffffff811115611ebd57611ebd612381565b6040519080825280601f01601f191660200182016040528015611ee7576020820181803683370190505b5090505b84156109da57611efc600183612a6f565b9150611f09600a86612ea3565b611f14906030612e06565b7f010000000000000000000000000000000000000000000000000000000000000002818381518110611f4857611f48612cbe565b60200101907effffffffffffffffffffffffffffffffffffffffffffffffffffffffffffff1916908160001a905350611f82600a86612e8f565b9450611eeb565b600160a060020a038116600090815260018301602052604081205415156115f8565b60006115f883600160a060020a03841661214a565b60006115f8838361214a565b6000826000018281548110611fe357611fe3612cbe565b9060005260206000200154905092915050565b60006115f88383612199565b60006115f883600160a060020a038416612199565b6000600160a060020a0384163b15612142576040517f150b7a02000000000000000000000000000000000000000000000000000000008152600160a060020a0385169063150b7a0290612074903390899088908890600401612d9b565b6020604051808303816000875af19250505080156120af575060408051601f3d908101601f191682019092526120ac91810190612eb7565b60015b61210f573d8080156120dd576040519150601f19603f3d011682016040523d82523d6000602084013e6120e2565b606091505b5080516000036121075760405160e560020a62461bcd0281526004016107e290612e19565b805181602001fd5b600160e060020a0319167f150b7a02000000000000000000000000000000000000000000000000000000001490506109da565b5060016109da565b600081815260018301602052604081205461219157508154600181810184556000848152602080822090930184905584548482528286019093526040902091909155610690565b506000610690565b600081815260018301602052604081205480156122825760006121bd600183612a6f565b85549091506000906121d190600190612a6f565b90508181146122365760008660000182815481106121f1576121f1612cbe565b906000526020600020015490508087600001848154811061221457612214612cbe565b6000918252602080832090910192909255918252600188019052604090208390555b855486908061224757612247612ed4565b600190038181906000526020600020016000905590558560010160008681526020019081526020016000206000905560019350505050610690565b6000915050610690565b60006020828403121561229e57600080fd5b5035919050565b600160e060020a03198116811461176057600080fd5b6000602082840312156122cd57600080fd5b81356115f8816122a5565b60005b838110156122f35781810151838201526020016122db565b50506000910152565b600081518084526123148160208601602086016122d8565b601f01601f19169290920160200192915050565b6020815260006115f860208301846122fc565b8035600160a060020a038116811461235257600080fd5b919050565b6000806040838503121561236a57600080fd5b6123738361233b565b946020939093013593505050565b60e060020a634e487b7102600052604160045260246000fd5b604051601f8201601f1916810167ffffffffffffffff811182821017156123c3576123c3612381565b604052919050565b600067ffffffffffffffff8311156123e5576123e5612381565b6123f8601f8401601f191660200161239a565b905082815283838301111561240c57600080fd5b828260208301376000602084830101529392505050565b600082601f83011261243457600080fd5b6115f8838335602085016123cb565b6000806000806080858703121561245957600080fd5b6124628561233b565b93506124706020860161233b565b925060408501359150606085013567ffffffffffffffff81111561249357600080fd5b61249f87828801612423565b91505092959194509250565b600080604083850312156124be57600080fd5b82359150602083013567ffffffffffffffff8111156124dc57600080fd5b8301601f810185136124ed57600080fd5b6124fc858235602084016123cb565b9150509250929050565b6000806040838503121561251957600080fd5b50508035926020909101359150565b60008060006060848603121561253d57600080fd5b6125468461233b565b92506125546020850161233b565b9150604084013590509250925092565b600082601f83011261257557600080fd5b8135602067ffffffffffffffff82111561259157612591612381565b80820261259f82820161239a565b92835284810182019282810190878511156125b957600080fd5b83870192505b848310156125d8578235825291830191908301906125bf565b979650505050505050565b60008060008060008060c087890312156125fc57600080fd5b8635955061260c6020880161233b565b945061261a6040880161233b565b9350606087013567ffffffffffffffff8082111561263757600080fd5b6126438a838b01612564565b9450608089013591508082111561265957600080fd5b6126658a838b01612564565b935060a089013591508082111561267b57600080fd5b5061268889828a01612423565b9150509295509295509295565b600080604083850312156126a857600080fd5b823591506126b86020840161233b565b90509250929050565b600081518084526020808501945080840160005b838110156126f1578151875295820195908201906001016126d5565b509495945050505050565b6020815260006115f860208301846126c1565b60008060006060848603121561272457600080fd5b833592506125546020850161233b565b60006020828403121561274657600080fd5b6115f88261233b565b6020808252825182820181905260009190848201906040850190845b81811015612790578351600160a060020a03168352928401929184019160010161276b565b50909695505050505050565b600080600080600080600060e0888a0312156127b757600080fd5b87359650602088013595506127ce6040890161233b565b94506127dc6060890161233b565b93506080880135925060a0880135915060c088013567ffffffffffffffff81111561280657600080fd5b6128128a828b01612423565b91505092959891949750929550565b6000806040838503121561283457600080fd5b61283d8361233b565b91506020830135801515811461285257600080fd5b809150509250929050565b600080600080600060a0868803121561287557600080fd5b61287e8661233b565b945061288c6020870161233b565b9350604086013567ffffffffffffffff808211156128a957600080fd5b6128b589838a01612564565b945060608801359150808211156128cb57600080fd5b6128d789838a01612564565b935060808801359150808211156128ed57600080fd5b506128fa88828901612423565b9150509295509295909350565b6000806040838503121561291a57600080fd5b6129238361233b565b91506126b86020840161233b565b600080600080600060a0868803121561294957600080fd5b6129528661233b565b94506129606020870161233b565b93506040860135925060608601359150608086013567ffffffffffffffff81111561298a57600080fd5b6128fa88828901612423565b6002810460018216806129aa57607f821691505b6020821081036129cd5760e060020a634e487b7102600052602260045260246000fd5b50919050565b60208082526053908201527f4552433939383a2064617461206d75737420636f6e7461696e2074686520756e60408201527f697175652075696e7432353620746f6b656e496420746f207472616e7366657260608201527f20746865206368696c6420746f6b656e20746f00000000000000000000000000608082015260a00190565b60e060020a634e487b7102600052601160045260246000fd5b8181038181111561069057610690612a56565b601f821115610886576000818152602081206020601f86010481016020861015612aa95750805b6020601f860104820191505b8181101561117b57828155600101612ab5565b815167ffffffffffffffff811115612ae257612ae2612381565b612af681612af08454612996565b84612a82565b602080601f831160018114612b2f5760008415612b135750858301515b60028086026008870290910a600019041982161786555061117b565b600085815260208120601f198616915b82811015612b5e57888601518255948401946001909101908401612b3f565b5085821015612b7e57878501516008601f88160260020a60001904191681555b5050505050600202600101905550565b600060018201612ba057612ba0612a56565b5060010190565b6020808252602e908201527f4552433732313a2063616c6c6572206973206e6f7420746f6b656e206f776e6560408201527f72206e6f7220617070726f766564000000000000000000000000000000000000606082015260800190565b60208082526024908201527f4552433939383a207472616e7366657220746f20746865207a65726f2061646460408201527f7265737300000000000000000000000000000000000000000000000000000000606082015260800190565b60208082526028908201527f4552433939383a2063616c6c6572206973206e6f74206f776e6572206e6f722060408201527f617070726f766564000000000000000000000000000000000000000000000000606082015260800190565b60e060020a634e487b7102600052603260045260246000fd5b6000600160a060020a03808816835280871660208401525060a06040830152612d0360a08301866126c1565b8281036060840152612d1581866126c1565b90508281036080840152612d2981856122fc565b98975050505050505050565b604081526000612d4860408301856126c1565b8281036020840152612d5a81856126c1565b95945050505050565b6000600160a060020a03808816835280871660208401525084604083015283606083015260a060808301526125d860a08301846122fc565b6000600160a060020a03808716835280861660208401525083604083015260806060830152612dcd60808301846122fc565b9695505050505050565b60008351612de98184602088016122d8565b835190830190612dfd8183602088016122d8565b01949350505050565b8082018082111561069057610690612a56565b60208082526032908201527f4552433732313a207472616e7366657220746f206e6f6e20455243373231526560408201527f63656976657220696d706c656d656e7465720000000000000000000000000000606082015260800190565b60e060020a634e487b7102600052601260045260246000fd5b600082612e9e57612e9e612e76565b500490565b600082612eb257612eb2612e76565b500690565b600060208284031215612ec957600080fd5b81516115f8816122a5565b60e060020a634e487b7102600052603160045260246000fdfea26469706673582212201d45309dc44459945715ab9985be5e80cb4a13d577b49dd661d34ea0311327c264736f6c63430008110033",
  "immutableReferences": {},
  "source": "// SPDX-License-Identifier: UNLICENSED\n\npragma solidity ^0.8.0;\n\n/*\n// for remix\nimport \"https://github.com/OpenZeppelin/openzeppelin-contracts/blob/master/contracts/token/ERC1155/ERC1155.sol\";\nimport \"https://github.com/OpenZeppelin/openzeppelin-contracts/blob/master/contracts/token/ERC1155/ERC1155Receiver.sol\";\nimport \"https://github.com/OpenZeppelin/openzeppelin-contracts/blob/master/contracts/token/ERC721/ERC721.sol\";\nimport \"https://github.com/OpenZeppelin/openzeppelin-contracts/blob/master/contracts/utils/EnumerableSet.sol\";\n*/\n\nimport \"@openzeppelin/contracts/token/ERC1155/ERC1155.sol\";\nimport \"@openzeppelin/contracts/token/ERC1155/IERC1155Receiver.sol\";\nimport \"@openzeppelin/contracts/token/ERC721/ERC721.sol\";\nimport \"@openzeppelin/contracts/token/ERC721/IERC721Receiver.sol\";\nimport \"@openzeppelin/contracts/utils/structs/EnumerableSet.sol\";\n\nimport \"./IERC998ERC1155TopDown.sol\";\n\ncontract ERC998ERC1155TopDown is ERC721, IERC1155Receiver, IERC998ERC1155TopDown, IERC721Receiver {\n    using EnumerableSet for EnumerableSet.AddressSet;\n    using EnumerableSet for EnumerableSet.UintSet;\n\n    mapping(uint256 => mapping(address => mapping(uint256 => uint256))) public _balances;\n    mapping(address => mapping(uint256 => EnumerableSet.UintSet)) private _holdersOf;\n\n    mapping(uint256 => EnumerableSet.AddressSet) private _childContract;\n    mapping(uint256 => mapping(address => EnumerableSet.UintSet)) private _childsForChildContract;\n\n    mapping(uint256 => bool) public isERC721;\n    mapping(uint256 => bool) public isERC1155;\n    \n    // mapping from tokenID to IPFS hash\n    mapping(uint256 => string) public token_URI;\n\n    uint256[] public rootOwners;\n\n    constructor(string memory name, string memory symbol, string memory baseURI) ERC721(name, symbol) public {\n        _baseURI();\n    }\n\n    // set tokenURI\n    function setTokenURI(uint256 tokenId, string memory _tokenURI) public {\n        token_URI[tokenId] = _tokenURI;\n    }\n\n    // get tokenURI\n    function getTokenURI(uint256 tokenId) public view returns (string memory) {\n        return token_URI[tokenId];\n    }\n\n\n    /**\n     * @dev Gives child balance for a specific child contract and child id .\n     */\n    function childBalance(uint256 tokenId, address childContract, uint256 childTokenId) external view override returns(uint256) {\n        return _balances[tokenId][childContract][childTokenId];\n    }\n\n    /**\n     * @dev Gives list of child contract where token ID has childs.\n     */\n    function childContractsFor(uint256 tokenId) override external view returns (address[] memory) {\n        address[] memory childContracts = new address[](_childContract[tokenId].length());\n\n        for(uint256 i = 0; i < _childContract[tokenId].length(); i++) {\n            childContracts[i] = _childContract[tokenId].at(i);\n        }\n\n        return childContracts;\n    }\n\n    /**\n     * @dev Gives list of owned child ID on a child contract by parent token ID and child contract.\n     */\n    function childIdsOwned(uint256 tokenId, address childContract) override external view returns (uint256[] memory) {\n        uint256[] memory childTokenIds = new uint256[](_childsForChildContract[tokenId][childContract].length());\n\n        for(uint256 i = 0; i < _childsForChildContract[tokenId][childContract].length(); i++) {\n            childTokenIds[i] = _childsForChildContract[tokenId][childContract].at(i);\n        }\n\n        return childTokenIds;\n    }\n\n    /**\n     * @dev set root owner\n     */\n    function setRootOwner(uint256 id) public {\n        rootOwners.push(id);\n    }\n\n    /**\n     * @dev gets root owners\n     */\n    function getRootOwners() external view returns(uint256 [] memory){\n        return rootOwners;\n    }\n\n    // /**\n    //  * @dev gets root owner for child\n    //  */\n    // function getRootOwnerID(uint256 childID, address childContract) external view returns(uint256){\n    //     uint256 ro = 0;\n    //     for(uint256 i = 0; i < rootOwners.length; i++){\n    //         uint256[] memory childTokenIds = childIdsOwned(i, childContract);\n    //         for(uint256 j = 0; j < childTokenIds.length; j++){\n    //             if(j == childID){\n    //                 ro = i;\n    //             }\n    //         }\n    //     }\n\n    //     return ro;\n    // }\n\n    /**\n     * @dev Transfers child token from a token ID.\n     */\n    function safeTransferChildFrom(uint256 fromTokenId, uint256 root, address to, address childContract, uint256 childTokenId, uint256 amount, bytes memory data) public override {\n        require(to != address(0), \"ERC998: transfer to the zero address\");\n\n        address operator = _msgSender();\n        // uint256 o = _holdersOf[childContract][childTokenId];\n        require(\n            ownerOf(root) == operator,\n            \"ERC998: caller is not owner nor approved\"\n        );\n\n        _beforeChildTransfer(operator, fromTokenId, to, childContract, _asSingletonArray(childTokenId), _asSingletonArray(amount), data);\n\n        _removeChild(fromTokenId, childContract, childTokenId, amount);\n\n        // TODO: maybe check if to == this\n        if(isERC1155[childTokenId]){\n            ERC1155(childContract).safeTransferFrom(address(this), to, childTokenId, amount, data);\n            emit TransferSingleChild(fromTokenId, to, childContract, childTokenId, amount);\n        } else {\n            ERC721(childContract).safeTransferFrom(address(this), to, childTokenId, data);\n            emit TransferSingleChild(fromTokenId, to, childContract, childTokenId, amount);\n        }\n        \n       \n        \n        \n    }\n\n\n\n\n    /**\n     * @dev Returns the owner of the token specified by tokenId. Wrapper function for ERC721 function ownerOf(). \n    */\n    function getOwner(uint256 tokenID) external view returns(address){\n        return ownerOf(tokenID);\n    }\n\n\n    /**\n     * @dev Sets isERC1155 array \n    */\n    function setIsERC1155(uint256 tokenID) public {\n        isERC1155[tokenID] = true;\n    }\n\n    // /**\n    //  * @dev gets true if tokenID is ERC721\n    // */\n    // function getIsERC721(uint256 tokenID) external view returns(bool) {\n    //     return isERC721[tokenID];\n    // }\n\n    // /**\n    //  * @dev Sets isERC721 array \n    // */\n    // function setIsERC721(uint256 tokenID) public {\n    //     isERC721[tokenID] = true;\n    // }\n\n    /**\n     * @dev gets true if tokenID is ERC1155\n    */\n    function getIsERC1155(uint256 tokenID) external view returns(bool) {\n        return isERC1155[tokenID];\n    }\n    \n\n    /**\n     * @dev Returns the contract address of the child token ID, given a parent and child token ID.\n     */\n    function getChildContract(uint256 tokenID, uint256 childTokenID) external view returns(address){\n\n        for(uint256 i = 0; i < _childContract[tokenID].length(); i++) {\n            if (_childsForChildContract[tokenID][_childContract[tokenID].at(i)].contains(childTokenID)){\n                return _childContract[tokenID].at(i);\n            }\n        }\n\n        return address(0);\n    }\n\n    /**\n     * @dev Wrapper function to get message sender.\n     */\n    function getMsgSender() external view returns(address){\n        return _msgSender();\n    }\n\n\n\n    /**\n     * @dev Transfers batch of child tokens from a token ID.\n     */\n    function safeBatchTransferChildFrom(uint256 fromTokenId, address to, address childContract, uint256[] memory childTokenIds, uint256[] memory amounts, bytes memory data) public override {\n        require(childTokenIds.length == amounts.length, \"ERC998: ids and amounts length mismatch\");\n        require(to != address(0), \"ERC998: transfer to the zero address\");\n\n        address operator = _msgSender();\n        require(\n            ownerOf(fromTokenId) == operator ||\n            isApprovedForAll(ownerOf(fromTokenId), operator),\n            \"ERC998: caller is not owner nor approved\"\n        );\n\n        _beforeChildTransfer(operator, fromTokenId, to, childContract, childTokenIds, amounts, data);\n\n        for (uint256 i = 0; i < childTokenIds.length; ++i) {\n            uint256 childTokenId = childTokenIds[i];\n            uint256 amount = amounts[i];\n\n            _removeChild(fromTokenId, childContract, childTokenId, amount);\n        }\n        ERC1155(childContract).safeBatchTransferFrom(address(this), to, childTokenIds, amounts, data);\n        emit TransferBatchChild(fromTokenId, to, childContract, childTokenIds, amounts);\n    }\n\n    /**\n     * @dev Receives a child token, the receiver token ID must be encoded in the\n     * field data.\n     */\n    function onERC1155Received(address operator, address from, uint256 id, uint256 amount, bytes memory data) virtual public override returns(bytes4) {\n        require(data.length == 32, \"ERC998: data must contain the unique uint256 tokenId to transfer the child token to\");\n        _beforeChildTransfer(operator, 0, address(this), from, _asSingletonArray(id), _asSingletonArray(amount), data);\n\n        uint256 _receiverTokenId;\n        uint256 _index = msg.data.length - 32;\n        assembly {_receiverTokenId := calldataload(_index)}\n\n        _receiveChild(_receiverTokenId, msg.sender, id, amount);\n        emit ReceivedChild(from, _receiverTokenId, msg.sender, id, amount);\n\n        return this.onERC1155Received.selector;\n    }\n\n    /**\n     * @dev Receives a child 998 token, the receiver token ID must be encoded in the\n     * field data.\n     */\n    function onERC721Received(address operator, address from, uint256 tokenId, bytes memory data) virtual public override returns(bytes4) {\n        require(data.length == 32, \"ERC998: data must contain the unique uint256 tokenId to transfer the child token to\");\n\n        uint256 _receiverTokenId;\n        uint256 _index = msg.data.length - 32;\n        assembly {_receiverTokenId := calldataload(_index)}\n\n        _receiveChild(_receiverTokenId, msg.sender, tokenId, 1);\n        emit ReceivedChild(from, _receiverTokenId, msg.sender, tokenId, 1);\n\n        return this.onERC721Received.selector;\n    }\n\n    /**\n     * @dev Receives a batch of child tokens, the receiver token ID must be\n     * encoded in the field data.\n     */\n    function onERC1155BatchReceived(address operator, address from, uint256[] memory ids, uint256[] memory values, bytes memory data) virtual public override returns(bytes4) {\n        require(data.length == 32, \"ERC998: data must contain the unique uint256 tokenId to transfer the child token to\");\n        require(ids.length == values.length, \"ERC1155: ids and values length mismatch\");\n        _beforeChildTransfer(operator, 0, address(this), from, ids, values, data);\n\n        uint256 _receiverTokenId;\n        uint256 _index = msg.data.length - 32;\n        assembly {_receiverTokenId := calldataload(_index)}\n        for(uint256 i = 0; i < ids.length; i++) {\n            _receiveChild(_receiverTokenId, msg.sender, ids[i], values[i]);\n            emit ReceivedChild(from, _receiverTokenId, msg.sender, ids[i], values[i]);\n        }\n        return this.onERC1155BatchReceived.selector;\n    }\n\n    function _receiveChild(uint256 tokenId, address childContract, uint256 childTokenId, uint256 amount) internal virtual {\n        if(!_childContract[tokenId].contains(childContract)) {\n            _childContract[tokenId].add(childContract);\n        }\n        if(_balances[tokenId][childContract][childTokenId] == 0) {\n            _childsForChildContract[tokenId][childContract].add(childTokenId);\n        }\n        _balances[tokenId][childContract][childTokenId] += amount;\n    }\n\n    function _removeChild(uint256 tokenId, address childContract, uint256 childTokenId, uint256 amount) internal virtual {\n        require(_balances[tokenId][childContract][childTokenId] >= amount, \"ERC998: insufficient child balance for transfer\");\n        _balances[tokenId][childContract][childTokenId] -= amount;\n        if(_balances[tokenId][childContract][childTokenId] == 0) {\n            _holdersOf[childContract][childTokenId].remove(tokenId);\n            _childsForChildContract[tokenId][childContract].remove(childTokenId);\n            if(_childsForChildContract[tokenId][childContract].length() == 0) {\n                _childContract[tokenId].remove(childContract);\n            }\n        }\n    }\n\n    function _beforeChildTransfer(\n        address operator,\n        uint256 fromTokenId,\n        address to,\n        address childContract,\n        uint256[] memory ids,\n        uint256[] memory amounts,\n        bytes memory data\n    )\n        internal virtual\n    { }\n\n    function _asSingletonArray(uint256 element) private pure returns (uint256[] memory) {\n        uint256[] memory array = new uint256[](1);\n        array[0] = element;\n\n        return array;\n    }\n}\n",
  "sourcePath": "/Users/moose/Documents/Projects/composo/supp_chain/truffle/contracts/ERC998ERC1155TopDown.sol",
  "compiler": {
    "name": "solc",
    "version": "0.8.17+commit.8df45f5f.Emscripten.clang"
  },
  "schemaVersion": "3.4.7",
  "updatedAt": "2022-11-09T06:01:05.864Z",
  "networkType": "ethereum",
  "devdoc": {
    "kind": "dev",
    "methods": {
      "approve(address,uint256)": {
        "details": "See {IERC721-approve}."
      },
      "balanceOf(address)": {
        "details": "See {IERC721-balanceOf}."
      },
      "childBalance(uint256,address,uint256)": {
        "details": "Gives child balance for a specific child contract and child id ."
      },
      "childContractsFor(uint256)": {
        "details": "Gives list of child contract where token ID has childs."
      },
      "childIdsOwned(uint256,address)": {
        "details": "Gives list of owned child ID on a child contract by parent token ID and child contract."
      },
      "getApproved(uint256)": {
        "details": "See {IERC721-getApproved}."
      },
      "getChildContract(uint256,uint256)": {
        "details": "Returns the contract address of the child token ID, given a parent and child token ID."
      },
      "getIsERC1155(uint256)": {
        "details": "gets true if tokenID is ERC1155"
      },
      "getMsgSender()": {
        "details": "Wrapper function to get message sender."
      },
      "getOwner(uint256)": {
        "details": "Returns the owner of the token specified by tokenId. Wrapper function for ERC721 function ownerOf(). "
      },
      "getRootOwners()": {
        "details": "gets root owners"
      },
      "isApprovedForAll(address,address)": {
        "details": "See {IERC721-isApprovedForAll}."
      },
      "name()": {
        "details": "See {IERC721Metadata-name}."
      },
      "onERC1155BatchReceived(address,address,uint256[],uint256[],bytes)": {
        "details": "Receives a batch of child tokens, the receiver token ID must be encoded in the field data."
      },
      "onERC1155Received(address,address,uint256,uint256,bytes)": {
        "details": "Receives a child token, the receiver token ID must be encoded in the field data."
      },
      "onERC721Received(address,address,uint256,bytes)": {
        "details": "Receives a child 998 token, the receiver token ID must be encoded in the field data."
      },
      "ownerOf(uint256)": {
        "details": "See {IERC721-ownerOf}."
      },
      "safeBatchTransferChildFrom(uint256,address,address,uint256[],uint256[],bytes)": {
        "details": "Transfers batch of child tokens from a token ID."
      },
      "safeTransferChildFrom(uint256,uint256,address,address,uint256,uint256,bytes)": {
        "details": "Transfers child token from a token ID."
      },
      "safeTransferFrom(address,address,uint256)": {
        "details": "See {IERC721-safeTransferFrom}."
      },
      "safeTransferFrom(address,address,uint256,bytes)": {
        "details": "See {IERC721-safeTransferFrom}."
      },
      "setApprovalForAll(address,bool)": {
        "details": "See {IERC721-setApprovalForAll}."
      },
      "setIsERC1155(uint256)": {
        "details": "Sets isERC1155 array "
      },
      "setRootOwner(uint256)": {
        "details": "set root owner"
      },
      "supportsInterface(bytes4)": {
        "details": "See {IERC165-supportsInterface}."
      },
      "symbol()": {
        "details": "See {IERC721Metadata-symbol}."
      },
      "tokenURI(uint256)": {
        "details": "See {IERC721Metadata-tokenURI}."
      },
      "transferFrom(address,address,uint256)": {
        "details": "See {IERC721-transferFrom}."
      }
    },
    "version": 1
  },
  "userdoc": {
    "kind": "user",
    "methods": {},
    "version": 1
  }
}