{
  "contractName": "ERC998ERC1155TopDownPresetMinterPauser",
  "abi": [
    {
      "inputs": [
        {
          "internalType": "string",
          "name": "name",
          "type": "string"
        },
        {
          "internalType": "string",
          "name": "symbol",
          "type": "string"
        },
        {
          "internalType": "string",
          "name": "baseURI",
          "type": "string"
        }
      ],
      "stateMutability": "nonpayable",
      "type": "constructor"
    },
    {
      "anonymous": false,
      "inputs": [
        {
          "indexed": true,
          "internalType": "address",
          "name": "owner",
          "type": "address"
        },
        {
          "indexed": true,
          "internalType": "address",
          "name": "approved",
          "type": "address"
        },
        {
          "indexed": true,
          "internalType": "uint256",
          "name": "tokenId",
          "type": "uint256"
        }
      ],
      "name": "Approval",
      "type": "event"
    },
    {
      "anonymous": false,
      "inputs": [
        {
          "indexed": true,
          "internalType": "address",
          "name": "owner",
          "type": "address"
        },
        {
          "indexed": true,
          "internalType": "address",
          "name": "operator",
          "type": "address"
        },
        {
          "indexed": false,
          "internalType": "bool",
          "name": "approved",
          "type": "bool"
        }
      ],
      "name": "ApprovalForAll",
      "type": "event"
    },
    {
      "anonymous": false,
      "inputs": [
        {
          "indexed": false,
          "internalType": "address",
          "name": "account",
          "type": "address"
        }
      ],
      "name": "Paused",
      "type": "event"
    },
    {
      "anonymous": false,
      "inputs": [
        {
          "indexed": true,
          "internalType": "address",
          "name": "from",
          "type": "address"
        },
        {
          "indexed": true,
          "internalType": "uint256",
          "name": "toTokenId",
          "type": "uint256"
        },
        {
          "indexed": true,
          "internalType": "address",
          "name": "childContract",
          "type": "address"
        },
        {
          "indexed": false,
          "internalType": "uint256",
          "name": "childTokenId",
          "type": "uint256"
        },
        {
          "indexed": false,
          "internalType": "uint256",
          "name": "amount",
          "type": "uint256"
        }
      ],
      "name": "ReceivedChild",
      "type": "event"
    },
    {
      "anonymous": false,
      "inputs": [
        {
          "indexed": true,
          "internalType": "bytes32",
          "name": "role",
          "type": "bytes32"
        },
        {
          "indexed": true,
          "internalType": "bytes32",
          "name": "previousAdminRole",
          "type": "bytes32"
        },
        {
          "indexed": true,
          "internalType": "bytes32",
          "name": "newAdminRole",
          "type": "bytes32"
        }
      ],
      "name": "RoleAdminChanged",
      "type": "event"
    },
    {
      "anonymous": false,
      "inputs": [
        {
          "indexed": true,
          "internalType": "bytes32",
          "name": "role",
          "type": "bytes32"
        },
        {
          "indexed": true,
          "internalType": "address",
          "name": "account",
          "type": "address"
        },
        {
          "indexed": true,
          "internalType": "address",
          "name": "sender",
          "type": "address"
        }
      ],
      "name": "RoleGranted",
      "type": "event"
    },
    {
      "anonymous": false,
      "inputs": [
        {
          "indexed": true,
          "internalType": "bytes32",
          "name": "role",
          "type": "bytes32"
        },
        {
          "indexed": true,
          "internalType": "address",
          "name": "account",
          "type": "address"
        },
        {
          "indexed": true,
          "internalType": "address",
          "name": "sender",
          "type": "address"
        }
      ],
      "name": "RoleRevoked",
      "type": "event"
    },
    {
      "anonymous": false,
      "inputs": [
        {
          "indexed": true,
          "internalType": "address",
          "name": "from",
          "type": "address"
        },
        {
          "indexed": true,
          "internalType": "address",
          "name": "to",
          "type": "address"
        },
        {
          "indexed": true,
          "internalType": "uint256",
          "name": "tokenId",
          "type": "uint256"
        }
      ],
      "name": "Transfer",
      "type": "event"
    },
    {
      "anonymous": false,
      "inputs": [
        {
          "indexed": true,
          "internalType": "uint256",
          "name": "fromTokenId",
          "type": "uint256"
        },
        {
          "indexed": true,
          "internalType": "address",
          "name": "to",
          "type": "address"
        },
        {
          "indexed": true,
          "internalType": "address",
          "name": "childContract",
          "type": "address"
        },
        {
          "indexed": false,
          "internalType": "uint256[]",
          "name": "childTokenIds",
          "type": "uint256[]"
        },
        {
          "indexed": false,
          "internalType": "uint256[]",
          "name": "amounts",
          "type": "uint256[]"
        }
      ],
      "name": "TransferBatchChild",
      "type": "event"
    },
    {
      "anonymous": false,
      "inputs": [
        {
          "indexed": true,
          "internalType": "uint256",
          "name": "fromTokenId",
          "type": "uint256"
        },
        {
          "indexed": true,
          "internalType": "address",
          "name": "to",
          "type": "address"
        },
        {
          "indexed": true,
          "internalType": "address",
          "name": "childContract",
          "type": "address"
        },
        {
          "indexed": false,
          "internalType": "uint256",
          "name": "childTokenId",
          "type": "uint256"
        },
        {
          "indexed": false,
          "internalType": "uint256",
          "name": "amount",
          "type": "uint256"
        }
      ],
      "name": "TransferSingleChild",
      "type": "event"
    },
    {
      "anonymous": false,
      "inputs": [
        {
          "indexed": false,
          "internalType": "address",
          "name": "account",
          "type": "address"
        }
      ],
      "name": "Unpaused",
      "type": "event"
    },
    {
      "inputs": [],
      "name": "DEFAULT_ADMIN_ROLE",
      "outputs": [
        {
          "internalType": "bytes32",
          "name": "",
          "type": "bytes32"
        }
      ],
      "stateMutability": "view",
      "type": "function",
      "constant": true
    },
    {
      "inputs": [],
      "name": "MINTER_ROLE",
      "outputs": [
        {
          "internalType": "bytes32",
          "name": "",
          "type": "bytes32"
        }
      ],
      "stateMutability": "view",
      "type": "function",
      "constant": true
    },
    {
      "inputs": [],
      "name": "PAUSER_ROLE",
      "outputs": [
        {
          "internalType": "bytes32",
          "name": "",
          "type": "bytes32"
        }
      ],
      "stateMutability": "view",
      "type": "function",
      "constant": true
    },
    {
      "inputs": [
        {
          "internalType": "uint256",
          "name": "",
          "type": "uint256"
        },
        {
          "internalType": "address",
          "name": "",
          "type": "address"
        },
        {
          "internalType": "uint256",
          "name": "",
          "type": "uint256"
        }
      ],
      "name": "_balances",
      "outputs": [
        {
          "internalType": "uint256",
          "name": "",
          "type": "uint256"
        }
      ],
      "stateMutability": "view",
      "type": "function",
      "constant": true
    },
    {
      "inputs": [
        {
          "internalType": "address",
          "name": "to",
          "type": "address"
        },
        {
          "internalType": "uint256",
          "name": "tokenId",
          "type": "uint256"
        }
      ],
      "name": "approve",
      "outputs": [],
      "stateMutability": "nonpayable",
      "type": "function"
    },
    {
      "inputs": [
        {
          "internalType": "address",
          "name": "owner",
          "type": "address"
        }
      ],
      "name": "balanceOf",
      "outputs": [
        {
          "internalType": "uint256",
          "name": "",
          "type": "uint256"
        }
      ],
      "stateMutability": "view",
      "type": "function",
      "constant": true
    },
    {
      "inputs": [
        {
          "internalType": "uint256",
          "name": "tokenId",
          "type": "uint256"
        },
        {
          "internalType": "address",
          "name": "childContract",
          "type": "address"
        },
        {
          "internalType": "uint256",
          "name": "childTokenId",
          "type": "uint256"
        }
      ],
      "name": "childBalance",
      "outputs": [
        {
          "internalType": "uint256",
          "name": "",
          "type": "uint256"
        }
      ],
      "stateMutability": "view",
      "type": "function",
      "constant": true
    },
    {
      "inputs": [
        {
          "internalType": "uint256",
          "name": "tokenId",
          "type": "uint256"
        }
      ],
      "name": "childContractsFor",
      "outputs": [
        {
          "internalType": "address[]",
          "name": "",
          "type": "address[]"
        }
      ],
      "stateMutability": "view",
      "type": "function",
      "constant": true
    },
    {
      "inputs": [
        {
          "internalType": "uint256",
          "name": "tokenId",
          "type": "uint256"
        },
        {
          "internalType": "address",
          "name": "childContract",
          "type": "address"
        }
      ],
      "name": "childIdsOwned",
      "outputs": [
        {
          "internalType": "uint256[]",
          "name": "",
          "type": "uint256[]"
        }
      ],
      "stateMutability": "view",
      "type": "function",
      "constant": true
    },
    {
      "inputs": [
        {
          "internalType": "uint256",
          "name": "tokenId",
          "type": "uint256"
        }
      ],
      "name": "getApproved",
      "outputs": [
        {
          "internalType": "address",
          "name": "",
          "type": "address"
        }
      ],
      "stateMutability": "view",
      "type": "function",
      "constant": true
    },
    {
      "inputs": [
        {
          "internalType": "uint256",
          "name": "tokenID",
          "type": "uint256"
        },
        {
          "internalType": "uint256",
          "name": "childTokenID",
          "type": "uint256"
        }
      ],
      "name": "getChildContract",
      "outputs": [
        {
          "internalType": "address",
          "name": "",
          "type": "address"
        }
      ],
      "stateMutability": "view",
      "type": "function",
      "constant": true
    },
    {
      "inputs": [],
      "name": "getMsgSender",
      "outputs": [
        {
          "internalType": "address",
          "name": "",
          "type": "address"
        }
      ],
      "stateMutability": "view",
      "type": "function",
      "constant": true
    },
    {
      "inputs": [
        {
          "internalType": "uint256",
          "name": "tokenID",
          "type": "uint256"
        }
      ],
      "name": "getOwner",
      "outputs": [
        {
          "internalType": "address",
          "name": "",
          "type": "address"
        }
      ],
      "stateMutability": "view",
      "type": "function",
      "constant": true
    },
    {
      "inputs": [
        {
          "internalType": "bytes32",
          "name": "role",
          "type": "bytes32"
        }
      ],
      "name": "getRoleAdmin",
      "outputs": [
        {
          "internalType": "bytes32",
          "name": "",
          "type": "bytes32"
        }
      ],
      "stateMutability": "view",
      "type": "function",
      "constant": true
    },
    {
      "inputs": [
        {
          "internalType": "bytes32",
          "name": "role",
          "type": "bytes32"
        },
        {
          "internalType": "address",
          "name": "account",
          "type": "address"
        }
      ],
      "name": "grantRole",
      "outputs": [],
      "stateMutability": "nonpayable",
      "type": "function"
    },
    {
      "inputs": [
        {
          "internalType": "bytes32",
          "name": "role",
          "type": "bytes32"
        },
        {
          "internalType": "address",
          "name": "account",
          "type": "address"
        }
      ],
      "name": "hasRole",
      "outputs": [
        {
          "internalType": "bool",
          "name": "",
          "type": "bool"
        }
      ],
      "stateMutability": "view",
      "type": "function",
      "constant": true
    },
    {
      "inputs": [
        {
          "internalType": "address",
          "name": "owner",
          "type": "address"
        },
        {
          "internalType": "address",
          "name": "operator",
          "type": "address"
        }
      ],
      "name": "isApprovedForAll",
      "outputs": [
        {
          "internalType": "bool",
          "name": "",
          "type": "bool"
        }
      ],
      "stateMutability": "view",
      "type": "function",
      "constant": true
    },
    {
      "inputs": [],
      "name": "name",
      "outputs": [
        {
          "internalType": "string",
          "name": "",
          "type": "string"
        }
      ],
      "stateMutability": "view",
      "type": "function",
      "constant": true
    },
    {
      "inputs": [
        {
          "internalType": "address",
          "name": "operator",
          "type": "address"
        },
        {
          "internalType": "address",
          "name": "from",
          "type": "address"
        },
        {
          "internalType": "uint256[]",
          "name": "ids",
          "type": "uint256[]"
        },
        {
          "internalType": "uint256[]",
          "name": "values",
          "type": "uint256[]"
        },
        {
          "internalType": "bytes",
          "name": "data",
          "type": "bytes"
        }
      ],
      "name": "onERC1155BatchReceived",
      "outputs": [
        {
          "internalType": "bytes4",
          "name": "",
          "type": "bytes4"
        }
      ],
      "stateMutability": "nonpayable",
      "type": "function"
    },
    {
      "inputs": [
        {
          "internalType": "address",
          "name": "operator",
          "type": "address"
        },
        {
          "internalType": "address",
          "name": "from",
          "type": "address"
        },
        {
          "internalType": "uint256",
          "name": "id",
          "type": "uint256"
        },
        {
          "internalType": "uint256",
          "name": "amount",
          "type": "uint256"
        },
        {
          "internalType": "bytes",
          "name": "data",
          "type": "bytes"
        }
      ],
      "name": "onERC1155Received",
      "outputs": [
        {
          "internalType": "bytes4",
          "name": "",
          "type": "bytes4"
        }
      ],
      "stateMutability": "nonpayable",
      "type": "function"
    },
    {
      "inputs": [
        {
          "internalType": "address",
          "name": "operator",
          "type": "address"
        },
        {
          "internalType": "address",
          "name": "from",
          "type": "address"
        },
        {
          "internalType": "uint256",
          "name": "tokenId",
          "type": "uint256"
        },
        {
          "internalType": "bytes",
          "name": "data",
          "type": "bytes"
        }
      ],
      "name": "onERC721Received",
      "outputs": [
        {
          "internalType": "bytes4",
          "name": "",
          "type": "bytes4"
        }
      ],
      "stateMutability": "nonpayable",
      "type": "function"
    },
    {
      "inputs": [
        {
          "internalType": "uint256",
          "name": "tokenId",
          "type": "uint256"
        }
      ],
      "name": "ownerOf",
      "outputs": [
        {
          "internalType": "address",
          "name": "",
          "type": "address"
        }
      ],
      "stateMutability": "view",
      "type": "function",
      "constant": true
    },
    {
      "inputs": [],
      "name": "paused",
      "outputs": [
        {
          "internalType": "bool",
          "name": "",
          "type": "bool"
        }
      ],
      "stateMutability": "view",
      "type": "function",
      "constant": true
    },
    {
      "inputs": [
        {
          "internalType": "bytes32",
          "name": "role",
          "type": "bytes32"
        },
        {
          "internalType": "address",
          "name": "account",
          "type": "address"
        }
      ],
      "name": "renounceRole",
      "outputs": [],
      "stateMutability": "nonpayable",
      "type": "function"
    },
    {
      "inputs": [
        {
          "internalType": "bytes32",
          "name": "role",
          "type": "bytes32"
        },
        {
          "internalType": "address",
          "name": "account",
          "type": "address"
        }
      ],
      "name": "revokeRole",
      "outputs": [],
      "stateMutability": "nonpayable",
      "type": "function"
    },
    {
      "inputs": [
        {
          "internalType": "uint256",
          "name": "fromTokenId",
          "type": "uint256"
        },
        {
          "internalType": "address",
          "name": "to",
          "type": "address"
        },
        {
          "internalType": "address",
          "name": "childContract",
          "type": "address"
        },
        {
          "internalType": "uint256[]",
          "name": "childTokenIds",
          "type": "uint256[]"
        },
        {
          "internalType": "uint256[]",
          "name": "amounts",
          "type": "uint256[]"
        },
        {
          "internalType": "bytes",
          "name": "data",
          "type": "bytes"
        }
      ],
      "name": "safeBatchTransferChildFrom",
      "outputs": [],
      "stateMutability": "nonpayable",
      "type": "function"
    },
    {
      "inputs": [
        {
          "internalType": "uint256",
          "name": "fromTokenId",
          "type": "uint256"
        },
        {
          "internalType": "address",
          "name": "to",
          "type": "address"
        },
        {
          "internalType": "address",
          "name": "childContract",
          "type": "address"
        },
        {
          "internalType": "uint256",
          "name": "childTokenId",
          "type": "uint256"
        },
        {
          "internalType": "uint256",
          "name": "amount",
          "type": "uint256"
        },
        {
          "internalType": "bytes",
          "name": "data",
          "type": "bytes"
        }
      ],
      "name": "safeTransferChildFrom",
      "outputs": [],
      "stateMutability": "nonpayable",
      "type": "function"
    },
    {
      "inputs": [
        {
          "internalType": "address",
          "name": "from",
          "type": "address"
        },
        {
          "internalType": "address",
          "name": "to",
          "type": "address"
        },
        {
          "internalType": "uint256",
          "name": "tokenId",
          "type": "uint256"
        }
      ],
      "name": "safeTransferFrom",
      "outputs": [],
      "stateMutability": "nonpayable",
      "type": "function"
    },
    {
      "inputs": [
        {
          "internalType": "address",
          "name": "from",
          "type": "address"
        },
        {
          "internalType": "address",
          "name": "to",
          "type": "address"
        },
        {
          "internalType": "uint256",
          "name": "tokenId",
          "type": "uint256"
        },
        {
          "internalType": "bytes",
          "name": "data",
          "type": "bytes"
        }
      ],
      "name": "safeTransferFrom",
      "outputs": [],
      "stateMutability": "nonpayable",
      "type": "function"
    },
    {
      "inputs": [
        {
          "internalType": "address",
          "name": "operator",
          "type": "address"
        },
        {
          "internalType": "bool",
          "name": "approved",
          "type": "bool"
        }
      ],
      "name": "setApprovalForAll",
      "outputs": [],
      "stateMutability": "nonpayable",
      "type": "function"
    },
    {
      "inputs": [],
      "name": "symbol",
      "outputs": [
        {
          "internalType": "string",
          "name": "",
          "type": "string"
        }
      ],
      "stateMutability": "view",
      "type": "function",
      "constant": true
    },
    {
      "inputs": [
        {
          "internalType": "uint256",
          "name": "tokenId",
          "type": "uint256"
        }
      ],
      "name": "tokenURI",
      "outputs": [
        {
          "internalType": "string",
          "name": "",
          "type": "string"
        }
      ],
      "stateMutability": "view",
      "type": "function",
      "constant": true
    },
    {
      "inputs": [
        {
          "internalType": "address",
          "name": "from",
          "type": "address"
        },
        {
          "internalType": "address",
          "name": "to",
          "type": "address"
        },
        {
          "internalType": "uint256",
          "name": "tokenId",
          "type": "uint256"
        }
      ],
      "name": "transferFrom",
      "outputs": [],
      "stateMutability": "nonpayable",
      "type": "function"
    },
    {
      "inputs": [
        {
          "internalType": "address",
          "name": "to",
          "type": "address"
        },
        {
          "internalType": "uint256",
          "name": "tokenId",
          "type": "uint256"
        }
      ],
      "name": "mint",
      "outputs": [],
      "stateMutability": "nonpayable",
      "type": "function"
    },
    {
      "inputs": [
        {
          "internalType": "uint256",
          "name": "tokenId",
          "type": "uint256"
        }
      ],
      "name": "burn",
      "outputs": [],
      "stateMutability": "nonpayable",
      "type": "function"
    },
    {
      "inputs": [],
      "name": "pause",
      "outputs": [],
      "stateMutability": "nonpayable",
      "type": "function"
    },
    {
      "inputs": [],
      "name": "unpause",
      "outputs": [],
      "stateMutability": "nonpayable",
      "type": "function"
    },
    {
      "inputs": [
        {
          "internalType": "bytes4",
          "name": "interfaceId",
          "type": "bytes4"
        }
      ],
      "name": "supportsInterface",
      "outputs": [
        {
          "internalType": "bool",
          "name": "",
          "type": "bool"
        }
      ],
      "stateMutability": "view",
      "type": "function",
      "constant": true
    }
  ],
  "bytecode": "0x60806040523480156200001157600080fd5b506040516200645f3803806200645f833981810160405281019062000037919062000463565b828282828281600190816200004d919062000767565b5080600290816200005f919062000767565b505050620000726200014060201b60201c565b505050506000600b60006101000a81548160ff021916908315150217905550620000b56000801b620000a96200015760201b60201c565b6200015f60201b60201c565b620000f67f9f2df0fed2c77648de5860a4cc508cd0818c85b8b8a1ab4ceeef8d981c8956a6620000ea6200015760201b60201c565b6200015f60201b60201c565b620001377f65d7a28e3265b37a6474929f336521b332c1681b933f6cb9f3376673440d862a6200012b6200015760201b60201c565b6200015f60201b60201c565b5050506200084e565b606060405180602001604052806000815250905090565b600033905090565b6200017182826200017560201b60201c565b5050565b6200018782826200026660201b60201c565b6200026257600160008084815260200190815260200160002060000160008373ffffffffffffffffffffffffffffffffffffffff1673ffffffffffffffffffffffffffffffffffffffff16815260200190815260200160002060006101000a81548160ff021916908315150217905550620002076200015760201b60201c565b73ffffffffffffffffffffffffffffffffffffffff168173ffffffffffffffffffffffffffffffffffffffff16837f2f8788117e7eff1d82e926ec794901d17c78024a50270940304540a733656f0d60405160405180910390a45b5050565b600080600084815260200190815260200160002060000160008373ffffffffffffffffffffffffffffffffffffffff1673ffffffffffffffffffffffffffffffffffffffff16815260200190815260200160002060009054906101000a900460ff16905092915050565b6000604051905090565b600080fd5b600080fd5b600080fd5b600080fd5b6000601f19601f8301169050919050565b7f4e487b7100000000000000000000000000000000000000000000000000000000600052604160045260246000fd5b6200033982620002ee565b810181811067ffffffffffffffff821117156200035b576200035a620002ff565b5b80604052505050565b600062000370620002d0565b90506200037e82826200032e565b919050565b600067ffffffffffffffff821115620003a157620003a0620002ff565b5b620003ac82620002ee565b9050602081019050919050565b60005b83811015620003d9578082015181840152602081019050620003bc565b60008484015250505050565b6000620003fc620003f68462000383565b62000364565b9050828152602081018484840111156200041b576200041a620002e9565b5b62000428848285620003b9565b509392505050565b600082601f830112620004485762000447620002e4565b5b81516200045a848260208601620003e5565b91505092915050565b6000806000606084860312156200047f576200047e620002da565b5b600084015167ffffffffffffffff811115620004a0576200049f620002df565b5b620004ae8682870162000430565b935050602084015167ffffffffffffffff811115620004d257620004d1620002df565b5b620004e08682870162000430565b925050604084015167ffffffffffffffff811115620005045762000503620002df565b5b620005128682870162000430565b9150509250925092565b600081519050919050565b7f4e487b7100000000000000000000000000000000000000000000000000000000600052602260045260246000fd5b600060028204905060018216806200056f57607f821691505b60208210810362000585576200058462000527565b5b50919050565b60008190508160005260206000209050919050565b60006020601f8301049050919050565b600082821b905092915050565b600060088302620005ef7fffffffffffffffffffffffffffffffffffffffffffffffffffffffffffffffff82620005b0565b620005fb8683620005b0565b95508019841693508086168417925050509392505050565b6000819050919050565b6000819050919050565b600062000648620006426200063c8462000613565b6200061d565b62000613565b9050919050565b6000819050919050565b620006648362000627565b6200067c62000673826200064f565b848454620005bd565b825550505050565b600090565b6200069362000684565b620006a081848462000659565b505050565b5b81811015620006c857620006bc60008262000689565b600181019050620006a6565b5050565b601f8211156200071757620006e1816200058b565b620006ec84620005a0565b81016020851015620006fc578190505b620007146200070b85620005a0565b830182620006a5565b50505b505050565b600082821c905092915050565b60006200073c600019846008026200071c565b1980831691505092915050565b600062000757838362000729565b9150826002028217905092915050565b62000772826200051c565b67ffffffffffffffff8111156200078e576200078d620002ff565b5b6200079a825462000556565b620007a7828285620006cc565b600060209050601f831160018114620007df5760008415620007ca578287015190505b620007d6858262000749565b86555062000846565b601f198416620007ef866200058b565b60005b828110156200081957848901518255600182019150602085019450602081019050620007f2565b8683101562000839578489015162000835601f89168262000729565b8355505b6001600288020188555050505b505050505050565b615c01806200085e6000396000f3fe608060405234801561001057600080fd5b50600436106102325760003560e01c80636352211e11610130578063b88d4fde116100b8578063d547741f1161007c578063d547741f146106d3578063e63ab1e9146106ef578063e985e9c51461070d578063eeaf2f091461073d578063f23a6e611461076d57610232565b8063b88d4fde14610609578063bc197c8114610625578063c41a360a14610655578063c87b56dd14610685578063d5391393146106b557610232565b806389e7e2f2116100ff57806389e7e2f21461055157806391d148541461058157806395d89b41146105b1578063a217fddf146105cf578063a22cb465146105ed57610232565b80636352211e146104c957806370a08231146104f95780637a6ce2e1146105295780638456cb591461054757610232565b806332085b65116101be57806342966c681161018257806342966c681461041357806342cf6e741461042f5780635c975abb1461044b5780635fa030211461046957806360d4d23a1461049957610232565b806332085b651461039957806336568abe146103b55780633f4ba83a146103d157806340c10f19146103db57806342842e0e146103f757610232565b8063150b7a0211610205578063150b7a02146102d157806317dd76231461030157806323b872dd14610331578063248a9ca31461034d5780632f2ff15d1461037d57610232565b806301ffc9a71461023757806306fdde0314610267578063081812fc14610285578063095ea7b3146102b5575b600080fd5b610251600480360381019061024c9190613b0d565b61079d565b60405161025e9190613b55565b60405180910390f35b61026f6107af565b60405161027c9190613c00565b60405180910390f35b61029f600480360381019061029a9190613c58565b610841565b6040516102ac9190613cc6565b60405180910390f35b6102cf60048036038101906102ca9190613d0d565b610887565b005b6102eb60048036038101906102e69190613e82565b61099e565b6040516102f89190613f14565b60405180910390f35b61031b60048036038101906103169190613f2f565b610a88565b6040516103289190613cc6565b60405180910390f35b61034b60048036038101906103469190613f6f565b610b89565b005b61036760048036038101906103629190613ff8565b610be9565b6040516103749190614034565b60405180910390f35b6103976004803603810190610392919061404f565b610c08565b005b6103b360048036038101906103ae9190614157565b610c29565b005b6103cf60048036038101906103ca919061404f565b610ed4565b005b6103d9610f57565b005b6103f560048036038101906103f09190613d0d565b610fd1565b005b610411600480360381019061040c9190613f6f565b610fdf565b005b61042d60048036038101906104289190613c58565b610fff565b005b61044960048036038101906104449190614238565b61105b565b005b610453611274565b6040516104609190613b55565b60405180910390f35b610483600480360381019061047e91906142e1565b61128b565b60405161049091906143df565b60405180910390f35b6104b360048036038101906104ae9190614401565b611432565b6040516104c09190614463565b60405180910390f35b6104e360048036038101906104de9190613c58565b61149f565b6040516104f09190613cc6565b60405180910390f35b610513600480360381019061050e919061447e565b611550565b6040516105209190614463565b60405180910390f35b610531611607565b60405161053e9190613cc6565b60405180910390f35b61054f611616565b005b61056b60048036038101906105669190613c58565b611690565b6040516105789190614569565b60405180910390f35b61059b6004803603810190610596919061404f565b6117ad565b6040516105a89190613b55565b60405180910390f35b6105b9611817565b6040516105c69190613c00565b60405180910390f35b6105d76118a9565b6040516105e49190614034565b60405180910390f35b610607600480360381019061060291906145b7565b6118b0565b005b610623600480360381019061061e9190613e82565b6118c6565b005b61063f600480360381019061063a91906145f7565b611928565b60405161064c9190613f14565b60405180910390f35b61066f600480360381019061066a9190613c58565b611aed565b60405161067c9190613cc6565b60405180910390f35b61069f600480360381019061069a9190613c58565b611aff565b6040516106ac9190613c00565b60405180910390f35b6106bd611b67565b6040516106ca9190614034565b60405180910390f35b6106ed60048036038101906106e8919061404f565b611b8b565b005b6106f7611bac565b6040516107049190614034565b60405180910390f35b610727600480360381019061072291906146c6565b611bd0565b6040516107349190613b55565b60405180910390f35b61075760048036038101906107529190614401565b611c64565b6040516107649190614463565b60405180910390f35b61078760048036038101906107829190614706565b611c96565b6040516107949190613f14565b60405180910390f35b60006107a882611d9f565b9050919050565b6060600180546107be906147cc565b80601f01602080910402602001604051908101604052809291908181526020018280546107ea906147cc565b80156108375780601f1061080c57610100808354040283529160200191610837565b820191906000526020600020905b81548152906001019060200180831161081a57829003601f168201915b5050505050905090565b600061084c82611e81565b6005600083815260200190815260200160002060009054906101000a900473ffffffffffffffffffffffffffffffffffffffff169050919050565b60006108928261149f565b90508073ffffffffffffffffffffffffffffffffffffffff168373ffffffffffffffffffffffffffffffffffffffff1603610902576040517f08c379a00000000000000000000000000000000000000000000000000000000081526004016108f99061486f565b60405180910390fd5b8073ffffffffffffffffffffffffffffffffffffffff16610921611ecc565b73ffffffffffffffffffffffffffffffffffffffff161480610950575061094f8161094a611ecc565b611bd0565b5b61098f576040517f08c379a000000000000000000000000000000000000000000000000000000000815260040161098690614901565b60405180910390fd5b6109998383611ed4565b505050565b600060208251146109e4576040517f08c379a00000000000000000000000000000000000000000000000000000000081526004016109db906149b9565b60405180910390fd5b600080602060003690506109f89190614a08565b905080359150610a0b8233876001611f8d565b3373ffffffffffffffffffffffffffffffffffffffff16828773ffffffffffffffffffffffffffffffffffffffff167fa18753b0660a8be2cdae03468c860b47c2926433ab16917f323544652803032d886001604051610a6c929190614a81565b60405180910390a463150b7a0260e01b92505050949350505050565b600080600090505b610aab60096000868152602001908152602001600020612128565b811015610b7d57610b3883600a60008781526020019081526020016000206000610af085600960008b815260200190815260200160002061213d90919063ffffffff16565b73ffffffffffffffffffffffffffffffffffffffff1673ffffffffffffffffffffffffffffffffffffffff16815260200190815260200160002061215790919063ffffffff16565b15610b6a57610b62816009600087815260200190815260200160002061213d90919063ffffffff16565b915050610b83565b8080610b7590614aaa565b915050610a90565b50600090505b92915050565b610b9a610b94611ecc565b82612171565b610bd9576040517f08c379a0000000000000000000000000000000000000000000000000000000008152600401610bd090614b64565b60405180910390fd5b610be4838383612206565b505050565b6000806000838152602001908152602001600020600101549050919050565b610c1182610be9565b610c1a8161246c565b610c248383612480565b505050565b8151835114610c6d576040517f08c379a0000000000000000000000000000000000000000000000000000000008152600401610c6490614bf6565b60405180910390fd5b600073ffffffffffffffffffffffffffffffffffffffff168573ffffffffffffffffffffffffffffffffffffffff1603610cdc576040517f08c379a0000000000000000000000000000000000000000000000000000000008152600401610cd390614c88565b60405180910390fd5b6000610ce6611ecc565b90508073ffffffffffffffffffffffffffffffffffffffff16610d088861149f565b73ffffffffffffffffffffffffffffffffffffffff161480610d385750610d37610d318861149f565b82611bd0565b5b610d77576040517f08c379a0000000000000000000000000000000000000000000000000000000008152600401610d6e90614d1a565b60405180910390fd5b610d8681888888888888612560565b60005b8451811015610def576000858281518110610da757610da6614d3a565b5b602002602001015190506000858381518110610dc657610dc5614d3a565b5b60200260200101519050610ddc8a8984846125c0565b505080610de890614aaa565b9050610d89565b508473ffffffffffffffffffffffffffffffffffffffff16632eb2c2d630888787876040518663ffffffff1660e01b8152600401610e31959493929190614dbe565b600060405180830381600087803b158015610e4b57600080fd5b505af1158015610e5f573d6000803e3d6000fd5b505050508473ffffffffffffffffffffffffffffffffffffffff168673ffffffffffffffffffffffffffffffffffffffff16887f5572be9c1bc39e4e277a34f64ccd0e84456dac3f33b0b1c458c12c402c6326a98787604051610ec3929190614e26565b60405180910390a450505050505050565b610edc611ecc565b73ffffffffffffffffffffffffffffffffffffffff168173ffffffffffffffffffffffffffffffffffffffff1614610f49576040517f08c379a0000000000000000000000000000000000000000000000000000000008152600401610f4090614ecf565b60405180910390fd5b610f5382826128a4565b5050565b610f887f65d7a28e3265b37a6474929f336521b332c1681b933f6cb9f3376673440d862a610f83611ecc565b6117ad565b610fc7576040517f08c379a0000000000000000000000000000000000000000000000000000000008152600401610fbe90614f61565b60405180910390fd5b610fcf612985565b565b610fdb82826129e8565b5050565b610ffa838383604051806020016040528060008152506118c6565b505050565b61101061100a611ecc565b82612171565b61104f576040517f08c379a000000000000000000000000000000000000000000000000000000000815260040161104690614ff3565b60405180910390fd5b61105881612bc1565b50565b600073ffffffffffffffffffffffffffffffffffffffff168573ffffffffffffffffffffffffffffffffffffffff16036110ca576040517f08c379a00000000000000000000000000000000000000000000000000000000081526004016110c190614c88565b60405180910390fd5b60006110d4611ecc565b90508073ffffffffffffffffffffffffffffffffffffffff166110f68861149f565b73ffffffffffffffffffffffffffffffffffffffff161480611126575061112561111f8861149f565b82611bd0565b5b611165576040517f08c379a000000000000000000000000000000000000000000000000000000000815260040161115c90614d1a565b60405180910390fd5b6111848188888861117589612cde565b61117e89612cde565b88612560565b611190878686866125c0565b8473ffffffffffffffffffffffffffffffffffffffff1663f242432a30888787876040518663ffffffff1660e01b81526004016111d1959493929190615013565b600060405180830381600087803b1580156111eb57600080fd5b505af11580156111ff573d6000803e3d6000fd5b505050508473ffffffffffffffffffffffffffffffffffffffff168673ffffffffffffffffffffffffffffffffffffffff16887f9d6259404dec52b3d5d220f5b8e5d05cc05ec908e1bc320aa46793e3091e5194878760405161126392919061506d565b60405180910390a450505050505050565b6000600b60009054906101000a900460ff16905090565b606060006112e7600a600086815260200190815260200160002060008573ffffffffffffffffffffffffffffffffffffffff1673ffffffffffffffffffffffffffffffffffffffff168152602001908152602001600020612d58565b67ffffffffffffffff811115611300576112ff613d57565b5b60405190808252806020026020018201604052801561132e5781602001602082028036833780820191505090505b50905060005b61138c600a600087815260200190815260200160002060008673ffffffffffffffffffffffffffffffffffffffff1673ffffffffffffffffffffffffffffffffffffffff168152602001908152602001600020612d58565b811015611427576113f581600a600088815260200190815260200160002060008773ffffffffffffffffffffffffffffffffffffffff1673ffffffffffffffffffffffffffffffffffffffff168152602001908152602001600020612d6d90919063ffffffff16565b82828151811061140857611407614d3a565b5b602002602001018181525050808061141f90614aaa565b915050611334565b508091505092915050565b60006007600085815260200190815260200160002060008473ffffffffffffffffffffffffffffffffffffffff1673ffffffffffffffffffffffffffffffffffffffff16815260200190815260200160002060008381526020019081526020016000205490509392505050565b6000806003600084815260200190815260200160002060009054906101000a900473ffffffffffffffffffffffffffffffffffffffff169050600073ffffffffffffffffffffffffffffffffffffffff168173ffffffffffffffffffffffffffffffffffffffff1603611547576040517f08c379a000000000000000000000000000000000000000000000000000000000815260040161153e906150e2565b60405180910390fd5b80915050919050565b60008073ffffffffffffffffffffffffffffffffffffffff168273ffffffffffffffffffffffffffffffffffffffff16036115c0576040517f08c379a00000000000000000000000000000000000000000000000000000000081526004016115b790615174565b60405180910390fd5b600460008373ffffffffffffffffffffffffffffffffffffffff1673ffffffffffffffffffffffffffffffffffffffff168152602001908152602001600020549050919050565b6000611611611ecc565b905090565b6116477f65d7a28e3265b37a6474929f336521b332c1681b933f6cb9f3376673440d862a611642611ecc565b6117ad565b611686576040517f08c379a000000000000000000000000000000000000000000000000000000000815260040161167d90615206565b60405180910390fd5b61168e612d87565b565b606060006116af60096000858152602001908152602001600020612128565b67ffffffffffffffff8111156116c8576116c7613d57565b5b6040519080825280602002602001820160405280156116f65781602001602082028036833780820191505090505b50905060005b61171760096000868152602001908152602001600020612128565b8110156117a357611743816009600087815260200190815260200160002061213d90919063ffffffff16565b82828151811061175657611755614d3a565b5b602002602001019073ffffffffffffffffffffffffffffffffffffffff16908173ffffffffffffffffffffffffffffffffffffffff1681525050808061179b90614aaa565b9150506116fc565b5080915050919050565b600080600084815260200190815260200160002060000160008373ffffffffffffffffffffffffffffffffffffffff1673ffffffffffffffffffffffffffffffffffffffff16815260200190815260200160002060009054906101000a900460ff16905092915050565b606060028054611826906147cc565b80601f0160208091040260200160405190810160405280929190818152602001828054611852906147cc565b801561189f5780601f106118745761010080835404028352916020019161189f565b820191906000526020600020905b81548152906001019060200180831161188257829003601f168201915b5050505050905090565b6000801b81565b6118c26118bb611ecc565b8383612dea565b5050565b6118d76118d1611ecc565b83612171565b611916576040517f08c379a000000000000000000000000000000000000000000000000000000000815260040161190d90614b64565b60405180910390fd5b61192284848484612f56565b50505050565b6000602082511461196e576040517f08c379a0000000000000000000000000000000000000000000000000000000008152600401611965906149b9565b60405180910390fd5b82518451146119b2576040517f08c379a00000000000000000000000000000000000000000000000000000000081526004016119a990615298565b60405180910390fd5b6119c28660003088888888612560565b600080602060003690506119d69190614a08565b90508035915060005b8651811015611ad757611a288333898481518110611a00576119ff614d3a565b5b6020026020010151898581518110611a1b57611a1a614d3a565b5b6020026020010151611f8d565b3373ffffffffffffffffffffffffffffffffffffffff16838973ffffffffffffffffffffffffffffffffffffffff167fa18753b0660a8be2cdae03468c860b47c2926433ab16917f323544652803032d8a8581518110611a8b57611a8a614d3a565b5b60200260200101518a8681518110611aa657611aa5614d3a565b5b6020026020010151604051611abc92919061506d565b60405180910390a48080611acf90614aaa565b9150506119df565b5063bc197c8160e01b9250505095945050505050565b6000611af88261149f565b9050919050565b6060611b0a82611e81565b6000611b14612fb2565b90506000815111611b345760405180602001604052806000815250611b5f565b80611b3e84612fc9565b604051602001611b4f9291906152f4565b6040516020818303038152906040525b915050919050565b7f9f2df0fed2c77648de5860a4cc508cd0818c85b8b8a1ab4ceeef8d981c8956a681565b611b9482610be9565b611b9d8161246c565b611ba783836128a4565b505050565b7f65d7a28e3265b37a6474929f336521b332c1681b933f6cb9f3376673440d862a81565b6000600660008473ffffffffffffffffffffffffffffffffffffffff1673ffffffffffffffffffffffffffffffffffffffff16815260200190815260200160002060008373ffffffffffffffffffffffffffffffffffffffff1673ffffffffffffffffffffffffffffffffffffffff16815260200190815260200160002060009054906101000a900460ff16905092915050565b600760205282600052604060002060205281600052604060002060205280600052604060002060009250925050505481565b60006020825114611cdc576040517f08c379a0000000000000000000000000000000000000000000000000000000008152600401611cd3906149b9565b60405180910390fd5b611cfc8660003088611ced89612cde565b611cf689612cde565b88612560565b60008060206000369050611d109190614a08565b905080359150611d2282338888611f8d565b3373ffffffffffffffffffffffffffffffffffffffff16828873ffffffffffffffffffffffffffffffffffffffff167fa18753b0660a8be2cdae03468c860b47c2926433ab16917f323544652803032d8989604051611d8292919061506d565b60405180910390a463f23a6e6160e01b9250505095945050505050565b60007f80ac58cd000000000000000000000000000000000000000000000000000000007bffffffffffffffffffffffffffffffffffffffffffffffffffffffff1916827bffffffffffffffffffffffffffffffffffffffffffffffffffffffff19161480611e6a57507f5b5e139f000000000000000000000000000000000000000000000000000000007bffffffffffffffffffffffffffffffffffffffffffffffffffffffff1916827bffffffffffffffffffffffffffffffffffffffffffffffffffffffff1916145b80611e7a5750611e7982613129565b5b9050919050565b611e8a816131a3565b611ec9576040517f08c379a0000000000000000000000000000000000000000000000000000000008152600401611ec0906150e2565b60405180910390fd5b50565b600033905090565b816005600083815260200190815260200160002060006101000a81548173ffffffffffffffffffffffffffffffffffffffff021916908373ffffffffffffffffffffffffffffffffffffffff160217905550808273ffffffffffffffffffffffffffffffffffffffff16611f478361149f565b73ffffffffffffffffffffffffffffffffffffffff167f8c5be1e5ebec7d5bd14f71427d1e84f3dd0314c0f7b2291e5b200ac8c7c3b92560405160405180910390a45050565b611fb2836009600087815260200190815260200160002061320f90919063ffffffff16565b611fdd57611fdb836009600087815260200190815260200160002061323f90919063ffffffff16565b505b60006007600086815260200190815260200160002060008573ffffffffffffffffffffffffffffffffffffffff1673ffffffffffffffffffffffffffffffffffffffff168152602001908152602001600020600084815260200190815260200160002054036120aa576120a882600a600087815260200190815260200160002060008673ffffffffffffffffffffffffffffffffffffffff1673ffffffffffffffffffffffffffffffffffffffff16815260200190815260200160002061326f90919063ffffffff16565b505b806007600086815260200190815260200160002060008573ffffffffffffffffffffffffffffffffffffffff1673ffffffffffffffffffffffffffffffffffffffff1681526020019081526020016000206000848152602001908152602001600020600082825461211b9190615318565b9250508190555050505050565b600061213682600001613289565b9050919050565b600061214c836000018361329a565b60001c905092915050565b6000612169836000018360001b6132c5565b905092915050565b60008061217d8361149f565b90508073ffffffffffffffffffffffffffffffffffffffff168473ffffffffffffffffffffffffffffffffffffffff1614806121bf57506121be8185611bd0565b5b806121fd57508373ffffffffffffffffffffffffffffffffffffffff166121e584610841565b73ffffffffffffffffffffffffffffffffffffffff16145b91505092915050565b8273ffffffffffffffffffffffffffffffffffffffff166122268261149f565b73ffffffffffffffffffffffffffffffffffffffff161461227c576040517f08c379a0000000000000000000000000000000000000000000000000000000008152600401612273906153be565b60405180910390fd5b600073ffffffffffffffffffffffffffffffffffffffff168273ffffffffffffffffffffffffffffffffffffffff16036122eb576040517f08c379a00000000000000000000000000000000000000000000000000000000081526004016122e290615450565b60405180910390fd5b6122f68383836132e8565b612301600082611ed4565b6001600460008573ffffffffffffffffffffffffffffffffffffffff1673ffffffffffffffffffffffffffffffffffffffff16815260200190815260200160002060008282546123519190614a08565b925050819055506001600460008473ffffffffffffffffffffffffffffffffffffffff1673ffffffffffffffffffffffffffffffffffffffff16815260200190815260200160002060008282546123a89190615318565b92505081905550816003600083815260200190815260200160002060006101000a81548173ffffffffffffffffffffffffffffffffffffffff021916908373ffffffffffffffffffffffffffffffffffffffff160217905550808273ffffffffffffffffffffffffffffffffffffffff168473ffffffffffffffffffffffffffffffffffffffff167fddf252ad1be2c89b69c2b068fc378daa952ba7f163c4a11628f55a4df523b3ef60405160405180910390a4612467838383613340565b505050565b61247d81612478611ecc565b613345565b50565b61248a82826117ad565b61255c57600160008084815260200190815260200160002060000160008373ffffffffffffffffffffffffffffffffffffffff1673ffffffffffffffffffffffffffffffffffffffff16815260200190815260200160002060006101000a81548160ff021916908315150217905550612501611ecc565b73ffffffffffffffffffffffffffffffffffffffff168173ffffffffffffffffffffffffffffffffffffffff16837f2f8788117e7eff1d82e926ec794901d17c78024a50270940304540a733656f0d60405160405180910390a45b5050565b612568611274565b156125a8576040517f08c379a000000000000000000000000000000000000000000000000000000000815260040161259f906154e2565b60405180910390fd5b6125b7878787878787876133e2565b50505050505050565b6000811415806126315750806007600086815260200190815260200160002060008573ffffffffffffffffffffffffffffffffffffffff1673ffffffffffffffffffffffffffffffffffffffff16815260200190815260200160002060008481526020019081526020016000205410155b612670576040517f08c379a000000000000000000000000000000000000000000000000000000000815260040161266790615574565b60405180910390fd5b806007600086815260200190815260200160002060008573ffffffffffffffffffffffffffffffffffffffff1673ffffffffffffffffffffffffffffffffffffffff168152602001908152602001600020600084815260200190815260200160002060008282546126e19190614a08565b9250508190555060006007600086815260200190815260200160002060008573ffffffffffffffffffffffffffffffffffffffff1673ffffffffffffffffffffffffffffffffffffffff1681526020019081526020016000206000848152602001908152602001600020540361289e576127b384600860008673ffffffffffffffffffffffffffffffffffffffff1673ffffffffffffffffffffffffffffffffffffffff16815260200190815260200160002060008581526020019081526020016000206133eb90919063ffffffff16565b5061281682600a600087815260200190815260200160002060008673ffffffffffffffffffffffffffffffffffffffff1673ffffffffffffffffffffffffffffffffffffffff1681526020019081526020016000206133eb90919063ffffffff16565b506000612871600a600087815260200190815260200160002060008673ffffffffffffffffffffffffffffffffffffffff1673ffffffffffffffffffffffffffffffffffffffff168152602001908152602001600020612d58565b0361289d5761289b836009600087815260200190815260200160002061340590919063ffffffff16565b505b5b50505050565b6128ae82826117ad565b1561298157600080600084815260200190815260200160002060000160008373ffffffffffffffffffffffffffffffffffffffff1673ffffffffffffffffffffffffffffffffffffffff16815260200190815260200160002060006101000a81548160ff021916908315150217905550612926611ecc565b73ffffffffffffffffffffffffffffffffffffffff168173ffffffffffffffffffffffffffffffffffffffff16837ff6391f5c32d9c69d2a47ea670b442974b53935d1edc7fd64eb21e047a839171b60405160405180910390a45b5050565b61298d613435565b6000600b60006101000a81548160ff0219169083151502179055507f5db9ee0a495bf2e6ff9c91a7834c1ba4fdd244a5e8aa4e537bd38aeae4b073aa6129d1611ecc565b6040516129de9190613cc6565b60405180910390a1565b600073ffffffffffffffffffffffffffffffffffffffff168273ffffffffffffffffffffffffffffffffffffffff1603612a57576040517f08c379a0000000000000000000000000000000000000000000000000000000008152600401612a4e906155e0565b60405180910390fd5b612a60816131a3565b15612aa0576040517f08c379a0000000000000000000000000000000000000000000000000000000008152600401612a979061564c565b60405180910390fd5b612aac600083836132e8565b6001600460008473ffffffffffffffffffffffffffffffffffffffff1673ffffffffffffffffffffffffffffffffffffffff1681526020019081526020016000206000828254612afc9190615318565b92505081905550816003600083815260200190815260200160002060006101000a81548173ffffffffffffffffffffffffffffffffffffffff021916908373ffffffffffffffffffffffffffffffffffffffff160217905550808273ffffffffffffffffffffffffffffffffffffffff16600073ffffffffffffffffffffffffffffffffffffffff167fddf252ad1be2c89b69c2b068fc378daa952ba7f163c4a11628f55a4df523b3ef60405160405180910390a4612bbd60008383613340565b5050565b6000612bcc8261149f565b9050612bda816000846132e8565b612be5600083611ed4565b6001600460008373ffffffffffffffffffffffffffffffffffffffff1673ffffffffffffffffffffffffffffffffffffffff1681526020019081526020016000206000828254612c359190614a08565b925050819055506003600083815260200190815260200160002060006101000a81549073ffffffffffffffffffffffffffffffffffffffff021916905581600073ffffffffffffffffffffffffffffffffffffffff168273ffffffffffffffffffffffffffffffffffffffff167fddf252ad1be2c89b69c2b068fc378daa952ba7f163c4a11628f55a4df523b3ef60405160405180910390a4612cda81600084613340565b5050565b60606000600167ffffffffffffffff811115612cfd57612cfc613d57565b5b604051908082528060200260200182016040528015612d2b5781602001602082028036833780820191505090505b5090508281600081518110612d4357612d42614d3a565b5b60200260200101818152505080915050919050565b6000612d6682600001613289565b9050919050565b6000612d7c836000018361329a565b60001c905092915050565b612d8f61347e565b6001600b60006101000a81548160ff0219169083151502179055507f62e78cea01bee320cd4e420270b5ea74000d11b0c9f74754ebdbfc544b05a258612dd3611ecc565b604051612de09190613cc6565b60405180910390a1565b8173ffffffffffffffffffffffffffffffffffffffff168373ffffffffffffffffffffffffffffffffffffffff1603612e58576040517f08c379a0000000000000000000000000000000000000000000000000000000008152600401612e4f906156b8565b60405180910390fd5b80600660008573ffffffffffffffffffffffffffffffffffffffff1673ffffffffffffffffffffffffffffffffffffffff16815260200190815260200160002060008473ffffffffffffffffffffffffffffffffffffffff1673ffffffffffffffffffffffffffffffffffffffff16815260200190815260200160002060006101000a81548160ff0219169083151502179055508173ffffffffffffffffffffffffffffffffffffffff168373ffffffffffffffffffffffffffffffffffffffff167f17307eab39ab6107e8899845ad3d59bd9653f200f220920489ca2b5937696c3183604051612f499190613b55565b60405180910390a3505050565b612f61848484612206565b612f6d848484846134c8565b612fac576040517f08c379a0000000000000000000000000000000000000000000000000000000008152600401612fa39061574a565b60405180910390fd5b50505050565b606060405180602001604052806000815250905090565b606060008203613010576040518060400160405280600181526020017f30000000000000000000000000000000000000000000000000000000000000008152509050613124565b600082905060005b6000821461304257808061302b90614aaa565b915050600a8261303b9190615799565b9150613018565b60008167ffffffffffffffff81111561305e5761305d613d57565b5b6040519080825280601f01601f1916602001820160405280156130905781602001600182028036833780820191505090505b5090505b6000851461311d576001826130a99190614a08565b9150600a856130b891906157ca565b60306130c49190615318565b60f81b8183815181106130da576130d9614d3a565b5b60200101907effffffffffffffffffffffffffffffffffffffffffffffffffffffffffffff1916908160001a905350600a856131169190615799565b9450613094565b8093505050505b919050565b60007f7965db0b000000000000000000000000000000000000000000000000000000007bffffffffffffffffffffffffffffffffffffffffffffffffffffffff1916827bffffffffffffffffffffffffffffffffffffffffffffffffffffffff1916148061319c575061319b8261364f565b5b9050919050565b60008073ffffffffffffffffffffffffffffffffffffffff166003600084815260200190815260200160002060009054906101000a900473ffffffffffffffffffffffffffffffffffffffff1673ffffffffffffffffffffffffffffffffffffffff1614159050919050565b6000613237836000018373ffffffffffffffffffffffffffffffffffffffff1660001b6132c5565b905092915050565b6000613267836000018373ffffffffffffffffffffffffffffffffffffffff1660001b6136b9565b905092915050565b6000613281836000018360001b6136b9565b905092915050565b600081600001805490509050919050565b60008260000182815481106132b2576132b1614d3a565b5b9060005260206000200154905092915050565b600080836001016000848152602001908152602001600020541415905092915050565b6132f0611274565b15613330576040517f08c379a00000000000000000000000000000000000000000000000000000000081526004016133279061586d565b60405180910390fd5b61333b838383613729565b505050565b505050565b61334f82826117ad565b6133de576133748173ffffffffffffffffffffffffffffffffffffffff16601461372e565b6133828360001c602061372e565b604051602001613393929190615925565b6040516020818303038152906040526040517f08c379a00000000000000000000000000000000000000000000000000000000081526004016133d59190613c00565b60405180910390fd5b5050565b50505050505050565b60006133fd836000018360001b61396a565b905092915050565b600061342d836000018373ffffffffffffffffffffffffffffffffffffffff1660001b61396a565b905092915050565b61343d611274565b61347c576040517f08c379a0000000000000000000000000000000000000000000000000000000008152600401613473906159ab565b60405180910390fd5b565b613486611274565b156134c6576040517f08c379a00000000000000000000000000000000000000000000000000000000081526004016134bd90615a17565b60405180910390fd5b565b60006134e98473ffffffffffffffffffffffffffffffffffffffff16613a7e565b15613642578373ffffffffffffffffffffffffffffffffffffffff1663150b7a02613512611ecc565b8786866040518563ffffffff1660e01b81526004016135349493929190615a37565b6020604051808303816000875af192505050801561357057506040513d601f19601f8201168201806040525081019061356d9190615a98565b60015b6135f2573d80600081146135a0576040519150601f19603f3d011682016040523d82523d6000602084013e6135a5565b606091505b5060008151036135ea576040517f08c379a00000000000000000000000000000000000000000000000000000000081526004016135e19061574a565b60405180910390fd5b805181602001fd5b63150b7a0260e01b7bffffffffffffffffffffffffffffffffffffffffffffffffffffffff1916817bffffffffffffffffffffffffffffffffffffffffffffffffffffffff191614915050613647565b600190505b949350505050565b60007f01ffc9a7000000000000000000000000000000000000000000000000000000007bffffffffffffffffffffffffffffffffffffffffffffffffffffffff1916827bffffffffffffffffffffffffffffffffffffffffffffffffffffffff1916149050919050565b60006136c583836132c5565b61371e578260000182908060018154018082558091505060019003906000526020600020016000909190919091505582600001805490508360010160008481526020019081526020016000208190555060019050613723565b600090505b92915050565b505050565b6060600060028360026137419190615ac5565b61374b9190615318565b67ffffffffffffffff81111561376457613763613d57565b5b6040519080825280601f01601f1916602001820160405280156137965781602001600182028036833780820191505090505b5090507f3000000000000000000000000000000000000000000000000000000000000000816000815181106137ce576137cd614d3a565b5b60200101907effffffffffffffffffffffffffffffffffffffffffffffffffffffffffffff1916908160001a9053507f78000000000000000000000000000000000000000000000000000000000000008160018151811061383257613831614d3a565b5b60200101907effffffffffffffffffffffffffffffffffffffffffffffffffffffffffffff1916908160001a905350600060018460026138729190615ac5565b61387c9190615318565b90505b600181111561391c577f3031323334353637383961626364656600000000000000000000000000000000600f8616601081106138be576138bd614d3a565b5b1a60f81b8282815181106138d5576138d4614d3a565b5b60200101907effffffffffffffffffffffffffffffffffffffffffffffffffffffffffffff1916908160001a905350600485901c94508061391590615b07565b905061387f565b5060008414613960576040517f08c379a000000000000000000000000000000000000000000000000000000000815260040161395790615b7c565b60405180910390fd5b8091505092915050565b60008083600101600084815260200190815260200160002054905060008114613a7257600060018261399c9190614a08565b90506000600186600001805490506139b49190614a08565b9050818114613a235760008660000182815481106139d5576139d4614d3a565b5b90600052602060002001549050808760000184815481106139f9576139f8614d3a565b5b90600052602060002001819055508387600101600083815260200190815260200160002081905550505b85600001805480613a3757613a36615b9c565b5b600190038181906000526020600020016000905590558560010160008681526020019081526020016000206000905560019350505050613a78565b60009150505b92915050565b6000808273ffffffffffffffffffffffffffffffffffffffff163b119050919050565b6000604051905090565b600080fd5b600080fd5b60007fffffffff0000000000000000000000000000000000000000000000000000000082169050919050565b613aea81613ab5565b8114613af557600080fd5b50565b600081359050613b0781613ae1565b92915050565b600060208284031215613b2357613b22613aab565b5b6000613b3184828501613af8565b91505092915050565b60008115159050919050565b613b4f81613b3a565b82525050565b6000602082019050613b6a6000830184613b46565b92915050565b600081519050919050565b600082825260208201905092915050565b60005b83811015613baa578082015181840152602081019050613b8f565b60008484015250505050565b6000601f19601f8301169050919050565b6000613bd282613b70565b613bdc8185613b7b565b9350613bec818560208601613b8c565b613bf581613bb6565b840191505092915050565b60006020820190508181036000830152613c1a8184613bc7565b905092915050565b6000819050919050565b613c3581613c22565b8114613c4057600080fd5b50565b600081359050613c5281613c2c565b92915050565b600060208284031215613c6e57613c6d613aab565b5b6000613c7c84828501613c43565b91505092915050565b600073ffffffffffffffffffffffffffffffffffffffff82169050919050565b6000613cb082613c85565b9050919050565b613cc081613ca5565b82525050565b6000602082019050613cdb6000830184613cb7565b92915050565b613cea81613ca5565b8114613cf557600080fd5b50565b600081359050613d0781613ce1565b92915050565b60008060408385031215613d2457613d23613aab565b5b6000613d3285828601613cf8565b9250506020613d4385828601613c43565b9150509250929050565b600080fd5b600080fd5b7f4e487b7100000000000000000000000000000000000000000000000000000000600052604160045260246000fd5b613d8f82613bb6565b810181811067ffffffffffffffff82111715613dae57613dad613d57565b5b80604052505050565b6000613dc1613aa1565b9050613dcd8282613d86565b919050565b600067ffffffffffffffff821115613ded57613dec613d57565b5b613df682613bb6565b9050602081019050919050565b82818337600083830152505050565b6000613e25613e2084613dd2565b613db7565b905082815260208101848484011115613e4157613e40613d52565b5b613e4c848285613e03565b509392505050565b600082601f830112613e6957613e68613d4d565b5b8135613e79848260208601613e12565b91505092915050565b60008060008060808587031215613e9c57613e9b613aab565b5b6000613eaa87828801613cf8565b9450506020613ebb87828801613cf8565b9350506040613ecc87828801613c43565b925050606085013567ffffffffffffffff811115613eed57613eec613ab0565b5b613ef987828801613e54565b91505092959194509250565b613f0e81613ab5565b82525050565b6000602082019050613f296000830184613f05565b92915050565b60008060408385031215613f4657613f45613aab565b5b6000613f5485828601613c43565b9250506020613f6585828601613c43565b9150509250929050565b600080600060608486031215613f8857613f87613aab565b5b6000613f9686828701613cf8565b9350506020613fa786828701613cf8565b9250506040613fb886828701613c43565b9150509250925092565b6000819050919050565b613fd581613fc2565b8114613fe057600080fd5b50565b600081359050613ff281613fcc565b92915050565b60006020828403121561400e5761400d613aab565b5b600061401c84828501613fe3565b91505092915050565b61402e81613fc2565b82525050565b60006020820190506140496000830184614025565b92915050565b6000806040838503121561406657614065613aab565b5b600061407485828601613fe3565b925050602061408585828601613cf8565b9150509250929050565b600067ffffffffffffffff8211156140aa576140a9613d57565b5b602082029050602081019050919050565b600080fd5b60006140d36140ce8461408f565b613db7565b905080838252602082019050602084028301858111156140f6576140f56140bb565b5b835b8181101561411f578061410b8882613c43565b8452602084019350506020810190506140f8565b5050509392505050565b600082601f83011261413e5761413d613d4d565b5b813561414e8482602086016140c0565b91505092915050565b60008060008060008060c0878903121561417457614173613aab565b5b600061418289828a01613c43565b965050602061419389828a01613cf8565b95505060406141a489828a01613cf8565b945050606087013567ffffffffffffffff8111156141c5576141c4613ab0565b5b6141d189828a01614129565b935050608087013567ffffffffffffffff8111156141f2576141f1613ab0565b5b6141fe89828a01614129565b92505060a087013567ffffffffffffffff81111561421f5761421e613ab0565b5b61422b89828a01613e54565b9150509295509295509295565b60008060008060008060c0878903121561425557614254613aab565b5b600061426389828a01613c43565b965050602061427489828a01613cf8565b955050604061428589828a01613cf8565b945050606061429689828a01613c43565b93505060806142a789828a01613c43565b92505060a087013567ffffffffffffffff8111156142c8576142c7613ab0565b5b6142d489828a01613e54565b9150509295509295509295565b600080604083850312156142f8576142f7613aab565b5b600061430685828601613c43565b925050602061431785828601613cf8565b9150509250929050565b600081519050919050565b600082825260208201905092915050565b6000819050602082019050919050565b61435681613c22565b82525050565b6000614368838361434d565b60208301905092915050565b6000602082019050919050565b600061438c82614321565b614396818561432c565b93506143a18361433d565b8060005b838110156143d25781516143b9888261435c565b97506143c483614374565b9250506001810190506143a5565b5085935050505092915050565b600060208201905081810360008301526143f98184614381565b905092915050565b60008060006060848603121561441a57614419613aab565b5b600061442886828701613c43565b935050602061443986828701613cf8565b925050604061444a86828701613c43565b9150509250925092565b61445d81613c22565b82525050565b60006020820190506144786000830184614454565b92915050565b60006020828403121561449457614493613aab565b5b60006144a284828501613cf8565b91505092915050565b600081519050919050565b600082825260208201905092915050565b6000819050602082019050919050565b6144e081613ca5565b82525050565b60006144f283836144d7565b60208301905092915050565b6000602082019050919050565b6000614516826144ab565b61452081856144b6565b935061452b836144c7565b8060005b8381101561455c57815161454388826144e6565b975061454e836144fe565b92505060018101905061452f565b5085935050505092915050565b60006020820190508181036000830152614583818461450b565b905092915050565b61459481613b3a565b811461459f57600080fd5b50565b6000813590506145b18161458b565b92915050565b600080604083850312156145ce576145cd613aab565b5b60006145dc85828601613cf8565b92505060206145ed858286016145a2565b9150509250929050565b600080600080600060a0868803121561461357614612613aab565b5b600061462188828901613cf8565b955050602061463288828901613cf8565b945050604086013567ffffffffffffffff81111561465357614652613ab0565b5b61465f88828901614129565b935050606086013567ffffffffffffffff8111156146805761467f613ab0565b5b61468c88828901614129565b925050608086013567ffffffffffffffff8111156146ad576146ac613ab0565b5b6146b988828901613e54565b9150509295509295909350565b600080604083850312156146dd576146dc613aab565b5b60006146eb85828601613cf8565b92505060206146fc85828601613cf8565b9150509250929050565b600080600080600060a0868803121561472257614721613aab565b5b600061473088828901613cf8565b955050602061474188828901613cf8565b945050604061475288828901613c43565b935050606061476388828901613c43565b925050608086013567ffffffffffffffff81111561478457614783613ab0565b5b61479088828901613e54565b9150509295509295909350565b7f4e487b7100000000000000000000000000000000000000000000000000000000600052602260045260246000fd5b600060028204905060018216806147e457607f821691505b6020821081036147f7576147f661479d565b5b50919050565b7f4552433732313a20617070726f76616c20746f2063757272656e74206f776e6560008201527f7200000000000000000000000000000000000000000000000000000000000000602082015250565b6000614859602183613b7b565b9150614864826147fd565b604082019050919050565b600060208201905081810360008301526148888161484c565b9050919050565b7f4552433732313a20617070726f76652063616c6c6572206973206e6f7420746f60008201527f6b656e206f776e6572206e6f7220617070726f76656420666f7220616c6c0000602082015250565b60006148eb603e83613b7b565b91506148f68261488f565b604082019050919050565b6000602082019050818103600083015261491a816148de565b9050919050565b7f4552433939383a2064617461206d75737420636f6e7461696e2074686520756e60008201527f697175652075696e7432353620746f6b656e496420746f207472616e7366657260208201527f20746865206368696c6420746f6b656e20746f00000000000000000000000000604082015250565b60006149a3605383613b7b565b91506149ae82614921565b606082019050919050565b600060208201905081810360008301526149d281614996565b9050919050565b7f4e487b7100000000000000000000000000000000000000000000000000000000600052601160045260246000fd5b6000614a1382613c22565b9150614a1e83613c22565b9250828203905081811115614a3657614a356149d9565b5b92915050565b6000819050919050565b6000819050919050565b6000614a6b614a66614a6184614a3c565b614a46565b613c22565b9050919050565b614a7b81614a50565b82525050565b6000604082019050614a966000830185614454565b614aa36020830184614a72565b9392505050565b6000614ab582613c22565b91507fffffffffffffffffffffffffffffffffffffffffffffffffffffffffffffffff8203614ae757614ae66149d9565b5b600182019050919050565b7f4552433732313a2063616c6c6572206973206e6f7420746f6b656e206f776e6560008201527f72206e6f7220617070726f766564000000000000000000000000000000000000602082015250565b6000614b4e602e83613b7b565b9150614b5982614af2565b604082019050919050565b60006020820190508181036000830152614b7d81614b41565b9050919050565b7f4552433939383a2069647320616e6420616d6f756e7473206c656e677468206d60008201527f69736d6174636800000000000000000000000000000000000000000000000000602082015250565b6000614be0602783613b7b565b9150614beb82614b84565b604082019050919050565b60006020820190508181036000830152614c0f81614bd3565b9050919050565b7f4552433939383a207472616e7366657220746f20746865207a65726f2061646460008201527f7265737300000000000000000000000000000000000000000000000000000000602082015250565b6000614c72602483613b7b565b9150614c7d82614c16565b604082019050919050565b60006020820190508181036000830152614ca181614c65565b9050919050565b7f4552433939383a2063616c6c6572206973206e6f74206f776e6572206e6f722060008201527f617070726f766564000000000000000000000000000000000000000000000000602082015250565b6000614d04602883613b7b565b9150614d0f82614ca8565b604082019050919050565b60006020820190508181036000830152614d3381614cf7565b9050919050565b7f4e487b7100000000000000000000000000000000000000000000000000000000600052603260045260246000fd5b600081519050919050565b600082825260208201905092915050565b6000614d9082614d69565b614d9a8185614d74565b9350614daa818560208601613b8c565b614db381613bb6565b840191505092915050565b600060a082019050614dd36000830188613cb7565b614de06020830187613cb7565b8181036040830152614df28186614381565b90508181036060830152614e068185614381565b90508181036080830152614e1a8184614d85565b90509695505050505050565b60006040820190508181036000830152614e408185614381565b90508181036020830152614e548184614381565b90509392505050565b7f416363657373436f6e74726f6c3a2063616e206f6e6c792072656e6f756e636560008201527f20726f6c657320666f722073656c660000000000000000000000000000000000602082015250565b6000614eb9602f83613b7b565b9150614ec482614e5d565b604082019050919050565b60006020820190508181036000830152614ee881614eac565b9050919050565b7f4552433732315072657365744d696e7465725061757365724175746f49643a2060008201527f6d75737420686176652070617573657220726f6c6520746f20756e7061757365602082015250565b6000614f4b604083613b7b565b9150614f5682614eef565b604082019050919050565b60006020820190508181036000830152614f7a81614f3e565b9050919050565b7f4552433732314275726e61626c653a2063616c6c6572206973206e6f74206f7760008201527f6e6572206e6f7220617070726f76656400000000000000000000000000000000602082015250565b6000614fdd603083613b7b565b9150614fe882614f81565b604082019050919050565b6000602082019050818103600083015261500c81614fd0565b9050919050565b600060a0820190506150286000830188613cb7565b6150356020830187613cb7565b6150426040830186614454565b61504f6060830185614454565b81810360808301526150618184614d85565b90509695505050505050565b60006040820190506150826000830185614454565b61508f6020830184614454565b9392505050565b7f4552433732313a20696e76616c696420746f6b656e2049440000000000000000600082015250565b60006150cc601883613b7b565b91506150d782615096565b602082019050919050565b600060208201905081810360008301526150fb816150bf565b9050919050565b7f4552433732313a2061646472657373207a65726f206973206e6f74206120766160008201527f6c6964206f776e65720000000000000000000000000000000000000000000000602082015250565b600061515e602983613b7b565b915061516982615102565b604082019050919050565b6000602082019050818103600083015261518d81615151565b9050919050565b7f4552433732315072657365744d696e7465725061757365724175746f49643a2060008201527f6d75737420686176652070617573657220726f6c6520746f2070617573650000602082015250565b60006151f0603e83613b7b565b91506151fb82615194565b604082019050919050565b6000602082019050818103600083015261521f816151e3565b9050919050565b7f455243313135353a2069647320616e642076616c756573206c656e677468206d60008201527f69736d6174636800000000000000000000000000000000000000000000000000602082015250565b6000615282602783613b7b565b915061528d82615226565b604082019050919050565b600060208201905081810360008301526152b181615275565b9050919050565b600081905092915050565b60006152ce82613b70565b6152d881856152b8565b93506152e8818560208601613b8c565b80840191505092915050565b600061530082856152c3565b915061530c82846152c3565b91508190509392505050565b600061532382613c22565b915061532e83613c22565b9250828201905080821115615346576153456149d9565b5b92915050565b7f4552433732313a207472616e736665722066726f6d20696e636f72726563742060008201527f6f776e6572000000000000000000000000000000000000000000000000000000602082015250565b60006153a8602583613b7b565b91506153b38261534c565b604082019050919050565b600060208201905081810360008301526153d78161539b565b9050919050565b7f4552433732313a207472616e7366657220746f20746865207a65726f2061646460008201527f7265737300000000000000000000000000000000000000000000000000000000602082015250565b600061543a602483613b7b565b9150615445826153de565b604082019050919050565b600060208201905081810360008301526154698161542d565b9050919050565b7f4552433939385061757361626c653a206368696c64207472616e73666572207760008201527f68696c6520706175736564000000000000000000000000000000000000000000602082015250565b60006154cc602b83613b7b565b91506154d782615470565b604082019050919050565b600060208201905081810360008301526154fb816154bf565b9050919050565b7f4552433939383a20696e73756666696369656e74206368696c642062616c616e60008201527f636520666f72207472616e736665720000000000000000000000000000000000602082015250565b600061555e602f83613b7b565b915061556982615502565b604082019050919050565b6000602082019050818103600083015261558d81615551565b9050919050565b7f4552433732313a206d696e7420746f20746865207a65726f2061646472657373600082015250565b60006155ca602083613b7b565b91506155d582615594565b602082019050919050565b600060208201905081810360008301526155f9816155bd565b9050919050565b7f4552433732313a20746f6b656e20616c7265616479206d696e74656400000000600082015250565b6000615636601c83613b7b565b915061564182615600565b602082019050919050565b6000602082019050818103600083015261566581615629565b9050919050565b7f4552433732313a20617070726f766520746f2063616c6c657200000000000000600082015250565b60006156a2601983613b7b565b91506156ad8261566c565b602082019050919050565b600060208201905081810360008301526156d181615695565b9050919050565b7f4552433732313a207472616e7366657220746f206e6f6e20455243373231526560008201527f63656976657220696d706c656d656e7465720000000000000000000000000000602082015250565b6000615734603283613b7b565b915061573f826156d8565b604082019050919050565b6000602082019050818103600083015261576381615727565b9050919050565b7f4e487b7100000000000000000000000000000000000000000000000000000000600052601260045260246000fd5b60006157a482613c22565b91506157af83613c22565b9250826157bf576157be61576a565b5b828204905092915050565b60006157d582613c22565b91506157e083613c22565b9250826157f0576157ef61576a565b5b828206905092915050565b7f4552433732315061757361626c653a20746f6b656e207472616e73666572207760008201527f68696c6520706175736564000000000000000000000000000000000000000000602082015250565b6000615857602b83613b7b565b9150615862826157fb565b604082019050919050565b600060208201905081810360008301526158868161584a565b9050919050565b7f416363657373436f6e74726f6c3a206163636f756e7420000000000000000000600082015250565b60006158c36017836152b8565b91506158ce8261588d565b601782019050919050565b7f206973206d697373696e6720726f6c6520000000000000000000000000000000600082015250565b600061590f6011836152b8565b915061591a826158d9565b601182019050919050565b6000615930826158b6565b915061593c82856152c3565b915061594782615902565b915061595382846152c3565b91508190509392505050565b7f5061757361626c653a206e6f7420706175736564000000000000000000000000600082015250565b6000615995601483613b7b565b91506159a08261595f565b602082019050919050565b600060208201905081810360008301526159c481615988565b9050919050565b7f5061757361626c653a2070617573656400000000000000000000000000000000600082015250565b6000615a01601083613b7b565b9150615a0c826159cb565b602082019050919050565b60006020820190508181036000830152615a30816159f4565b9050919050565b6000608082019050615a4c6000830187613cb7565b615a596020830186613cb7565b615a666040830185614454565b8181036060830152615a788184614d85565b905095945050505050565b600081519050615a9281613ae1565b92915050565b600060208284031215615aae57615aad613aab565b5b6000615abc84828501615a83565b91505092915050565b6000615ad082613c22565b9150615adb83613c22565b9250828202615ae981613c22565b91508282048414831517615b0057615aff6149d9565b5b5092915050565b6000615b1282613c22565b915060008203615b2557615b246149d9565b5b600182039050919050565b7f537472696e67733a20686578206c656e67746820696e73756666696369656e74600082015250565b6000615b66602083613b7b565b9150615b7182615b30565b602082019050919050565b60006020820190508181036000830152615b9581615b59565b9050919050565b7f4e487b7100000000000000000000000000000000000000000000000000000000600052603160045260246000fdfea264697066735822122032633a00a8d95366b812631faddfec67f2d10ca5b687658a68da5e1bf022233964736f6c63430008110033",
  "immutableReferences": {},
  "source": "// SPDX-License-Identifier: MIT\n\npragma solidity ^0.8.0;\n\n/* import \"https://github.com/OpenZeppelin/openzeppelin-contracts/blob/master/contracts/access/AccessControl.sol\";\nimport \"https://github.com/OpenZeppelin/openzeppelin-contracts/blob/master/contracts/GSN/Context.sol\";\nimport \"https://github.com/OpenZeppelin/openzeppelin-contracts/blob/master/contracts/utils/Pausable.sol\"; */\n\nimport \"@openzeppelin/contracts/access/AccessControl.sol\";\nimport \"@openzeppelin/contracts/utils/Context.sol\";\nimport \"@openzeppelin/contracts/security/Pausable.sol\";\n\nimport \"./ERC998ERC1155TopDown.sol\";\n\n/**\n * @dev {ERC998} token, including:\n *\n *  - ability for holders to burn (destroy) their tokens\n *  - a minter role that allows for token minting (creation)\n *  - a pauser role that allows to stop all token transfers\n *\n * This contract uses {AccessControl} to lock permissioned functions using the\n * different roles - head to its documentation for details.\n *\n * The account that deploys the contract will be granted the minter and pauser\n * roles, as well as the default admin role, which will let it grant both minter\n * and pauser roles to other accounts.\n */\ncontract ERC998ERC1155TopDownPresetMinterPauser is Context, AccessControl, ERC998ERC1155TopDown, Pausable {\n    bytes32 public constant MINTER_ROLE = keccak256(\"MINTER_ROLE\");\n    bytes32 public constant PAUSER_ROLE = keccak256(\"PAUSER_ROLE\");\n\n    /**\n     * @dev Grants `DEFAULT_ADMIN_ROLE`, `MINTER_ROLE` and `PAUSER_ROLE` to the\n     * account that deploys the contract.\n     *\n     * Token URIs will be autogenerated based on `baseURI` and their token IDs.\n     * See {ERC721-tokenURI}.\n     */\n    constructor(string memory name, string memory symbol, string memory baseURI) public ERC998ERC1155TopDown(name, symbol, baseURI) {\n        _setupRole(DEFAULT_ADMIN_ROLE, _msgSender());\n        _setupRole(MINTER_ROLE, _msgSender());\n        _setupRole(PAUSER_ROLE, _msgSender());\n    }\n\n    /**\n     * @dev Creates a new token for `to`. The token URI autogenerated based on\n     * the base URI passed at construction and the token ID.\n     *\n     * See {ERC721-_mint}.\n     *\n     * Requirements:\n     *\n     * - the caller must have the `MINTER_ROLE`.\n     */\n    function mint(address to, uint256 tokenId) public virtual {\n        //require(hasRole(MINTER_ROLE, _msgSender()), \"ERC721: must have minter role to mint in ERC998\");\n\n        // We cannot just use balanceOf to create the new tokenId because tokens\n        // can be burned (destroyed), so we need a separate counter.\n        _mint(to, tokenId);\n    }\n\n\n    /**\n     * @dev Burns `tokenId`. See {ERC721-_burn}.\n     *\n     * Requirements:\n     *\n     * - The caller must own `tokenId` or be an approved operator.\n     */\n    function burn(uint256 tokenId) public virtual {\n        //solhint-disable-next-line max-line-length\n        require(_isApprovedOrOwner(_msgSender(), tokenId), \"ERC721Burnable: caller is not owner nor approved\");\n        _burn(tokenId);\n    }\n\n    /**\n     * @dev Pauses all token transfers.\n     *\n     * See {ERC721Pausable} and {Pausable-_pause}.\n     *\n     * Requirements:\n     *\n     * - the caller must have the `PAUSER_ROLE`.\n     */\n    function pause() public virtual {\n        require(hasRole(PAUSER_ROLE, _msgSender()), \"ERC721PresetMinterPauserAutoId: must have pauser role to pause\");\n        _pause();\n    }\n\n    /**\n     * @dev Unpauses all token transfers.\n     *\n     * See {ERC721Pausable} and {Pausable-_unpause}.\n     *\n     * Requirements:\n     *\n     * - the caller must have the `PAUSER_ROLE`.\n     */\n    function unpause() public virtual {\n        require(hasRole(PAUSER_ROLE, _msgSender()), \"ERC721PresetMinterPauserAutoId: must have pauser role to unpause\");\n        _unpause();\n    }\n\n    /**\n     * @dev See {ERC721-_beforeTokenTransfer}.\n     *\n     * Requirements:\n     *\n     * - the contract must not be paused.\n     */\n    function _beforeTokenTransfer(address from, address to, uint256 tokenId) internal virtual override {\n        require(!paused(), \"ERC721Pausable: token transfer while paused\");\n\n        super._beforeTokenTransfer(from, to, tokenId);\n    }\n\n    function _beforeChildTransfer(\n        address operator,\n        uint256 fromTokenId,\n        address to,\n        address childContract,\n        uint256[] memory ids,\n        uint256[] memory amounts,\n        bytes memory data\n    )\n        internal virtual override\n    {\n        require(!paused(), \"ERC998Pausable: child transfer while paused\");\n\n        super._beforeChildTransfer(operator, fromTokenId, to, childContract, ids, amounts, data);\n    }\n\n    function supportsInterface(bytes4 interfaceId) public view virtual override(ERC721, IERC165, AccessControl) returns (bool) {\n        return super.supportsInterface(interfaceId);\n    }\n}\n",
  "sourcePath": "/Users/moose/Documents/Projects/composo/supp_chain/truffle/contracts/ERC998ERC1155TopDownPresetMinterPauser.sol",
  "compiler": {
    "name": "solc",
    "version": "0.8.17+commit.8df45f5f.Emscripten.clang"
  },
  "schemaVersion": "3.4.7",
  "updatedAt": "2022-10-25T01:32:10.176Z",
  "networkType": "ethereum",
  "devdoc": {
    "details": "{ERC998} token, including:  - ability for holders to burn (destroy) their tokens  - a minter role that allows for token minting (creation)  - a pauser role that allows to stop all token transfers This contract uses {AccessControl} to lock permissioned functions using the different roles - head to its documentation for details. The account that deploys the contract will be granted the minter and pauser roles, as well as the default admin role, which will let it grant both minter and pauser roles to other accounts.",
    "kind": "dev",
    "methods": {
      "approve(address,uint256)": {
        "details": "See {IERC721-approve}."
      },
      "balanceOf(address)": {
        "details": "See {IERC721-balanceOf}."
      },
      "burn(uint256)": {
        "details": "Burns `tokenId`. See {ERC721-_burn}. Requirements: - The caller must own `tokenId` or be an approved operator."
      },
      "childBalance(uint256,address,uint256)": {
        "details": "Gives child balance for a specific child contract and child id ."
      },
      "childContractsFor(uint256)": {
        "details": "Gives list of child contract where token ID has childs."
      },
      "childIdsOwned(uint256,address)": {
        "details": "Gives list of owned child ID on a child contract by parent token ID and child contract."
      },
      "constructor": {
        "details": "Grants `DEFAULT_ADMIN_ROLE`, `MINTER_ROLE` and `PAUSER_ROLE` to the account that deploys the contract. Token URIs will be autogenerated based on `baseURI` and their token IDs. See {ERC721-tokenURI}."
      },
      "getApproved(uint256)": {
        "details": "See {IERC721-getApproved}."
      },
      "getChildContract(uint256,uint256)": {
        "details": "Returns the contract address of the child token ID, given a parent and child token ID."
      },
      "getMsgSender()": {
        "details": "Wrapper function to get message sender."
      },
      "getOwner(uint256)": {
        "details": "Returns the owner of the token specified by tokenId. Wrapper function for ERC721 function ownerOf(). "
      },
      "getRoleAdmin(bytes32)": {
        "details": "Returns the admin role that controls `role`. See {grantRole} and {revokeRole}. To change a role's admin, use {_setRoleAdmin}."
      },
      "grantRole(bytes32,address)": {
        "details": "Grants `role` to `account`. If `account` had not been already granted `role`, emits a {RoleGranted} event. Requirements: - the caller must have ``role``'s admin role. May emit a {RoleGranted} event."
      },
      "hasRole(bytes32,address)": {
        "details": "Returns `true` if `account` has been granted `role`."
      },
      "isApprovedForAll(address,address)": {
        "details": "See {IERC721-isApprovedForAll}."
      },
      "mint(address,uint256)": {
        "details": "Creates a new token for `to`. The token URI autogenerated based on the base URI passed at construction and the token ID. See {ERC721-_mint}. Requirements: - the caller must have the `MINTER_ROLE`."
      },
      "name()": {
        "details": "See {IERC721Metadata-name}."
      },
      "onERC1155BatchReceived(address,address,uint256[],uint256[],bytes)": {
        "details": "Receives a batch of child tokens, the receiver token ID must be encoded in the field data."
      },
      "onERC1155Received(address,address,uint256,uint256,bytes)": {
        "details": "Receives a child token, the receiver token ID must be encoded in the field data."
      },
      "onERC721Received(address,address,uint256,bytes)": {
        "details": "Receives a child token, the receiver token ID must be encoded in the field data."
      },
      "ownerOf(uint256)": {
        "details": "See {IERC721-ownerOf}."
      },
      "pause()": {
        "details": "Pauses all token transfers. See {ERC721Pausable} and {Pausable-_pause}. Requirements: - the caller must have the `PAUSER_ROLE`."
      },
      "paused()": {
        "details": "Returns true if the contract is paused, and false otherwise."
      },
      "renounceRole(bytes32,address)": {
        "details": "Revokes `role` from the calling account. Roles are often managed via {grantRole} and {revokeRole}: this function's purpose is to provide a mechanism for accounts to lose their privileges if they are compromised (such as when a trusted device is misplaced). If the calling account had been revoked `role`, emits a {RoleRevoked} event. Requirements: - the caller must be `account`. May emit a {RoleRevoked} event."
      },
      "revokeRole(bytes32,address)": {
        "details": "Revokes `role` from `account`. If `account` had been granted `role`, emits a {RoleRevoked} event. Requirements: - the caller must have ``role``'s admin role. May emit a {RoleRevoked} event."
      },
      "safeBatchTransferChildFrom(uint256,address,address,uint256[],uint256[],bytes)": {
        "details": "Transfers batch of child tokens from a token ID."
      },
      "safeTransferChildFrom(uint256,address,address,uint256,uint256,bytes)": {
        "details": "Transfers child token from a token ID."
      },
      "safeTransferFrom(address,address,uint256)": {
        "details": "See {IERC721-safeTransferFrom}."
      },
      "safeTransferFrom(address,address,uint256,bytes)": {
        "details": "See {IERC721-safeTransferFrom}."
      },
      "setApprovalForAll(address,bool)": {
        "details": "See {IERC721-setApprovalForAll}."
      },
      "symbol()": {
        "details": "See {IERC721Metadata-symbol}."
      },
      "tokenURI(uint256)": {
        "details": "See {IERC721Metadata-tokenURI}."
      },
      "transferFrom(address,address,uint256)": {
        "details": "See {IERC721-transferFrom}."
      },
      "unpause()": {
        "details": "Unpauses all token transfers. See {ERC721Pausable} and {Pausable-_unpause}. Requirements: - the caller must have the `PAUSER_ROLE`."
      }
    },
    "version": 1
  },
  "userdoc": {
    "kind": "user",
    "methods": {},
    "version": 1
  }
}