{
  "contractName": "ERC998ERC1155TopDown",
  "abi": [
    {
      "inputs": [
        {
          "internalType": "string",
          "name": "name",
          "type": "string"
        },
        {
          "internalType": "string",
          "name": "symbol",
          "type": "string"
        },
        {
          "internalType": "string",
          "name": "baseURI",
          "type": "string"
        }
      ],
      "stateMutability": "nonpayable",
      "type": "constructor"
    },
    {
      "anonymous": false,
      "inputs": [
        {
          "indexed": true,
          "internalType": "address",
          "name": "owner",
          "type": "address"
        },
        {
          "indexed": true,
          "internalType": "address",
          "name": "approved",
          "type": "address"
        },
        {
          "indexed": true,
          "internalType": "uint256",
          "name": "tokenId",
          "type": "uint256"
        }
      ],
      "name": "Approval",
      "type": "event"
    },
    {
      "anonymous": false,
      "inputs": [
        {
          "indexed": true,
          "internalType": "address",
          "name": "owner",
          "type": "address"
        },
        {
          "indexed": true,
          "internalType": "address",
          "name": "operator",
          "type": "address"
        },
        {
          "indexed": false,
          "internalType": "bool",
          "name": "approved",
          "type": "bool"
        }
      ],
      "name": "ApprovalForAll",
      "type": "event"
    },
    {
      "anonymous": false,
      "inputs": [
        {
          "indexed": true,
          "internalType": "address",
          "name": "from",
          "type": "address"
        },
        {
          "indexed": true,
          "internalType": "uint256",
          "name": "toTokenId",
          "type": "uint256"
        },
        {
          "indexed": true,
          "internalType": "address",
          "name": "childContract",
          "type": "address"
        },
        {
          "indexed": false,
          "internalType": "uint256",
          "name": "childTokenId",
          "type": "uint256"
        },
        {
          "indexed": false,
          "internalType": "uint256",
          "name": "amount",
          "type": "uint256"
        }
      ],
      "name": "ReceivedChild",
      "type": "event"
    },
    {
      "anonymous": false,
      "inputs": [
        {
          "indexed": true,
          "internalType": "address",
          "name": "from",
          "type": "address"
        },
        {
          "indexed": true,
          "internalType": "address",
          "name": "to",
          "type": "address"
        },
        {
          "indexed": true,
          "internalType": "uint256",
          "name": "tokenId",
          "type": "uint256"
        }
      ],
      "name": "Transfer",
      "type": "event"
    },
    {
      "anonymous": false,
      "inputs": [
        {
          "indexed": true,
          "internalType": "uint256",
          "name": "fromTokenId",
          "type": "uint256"
        },
        {
          "indexed": true,
          "internalType": "address",
          "name": "to",
          "type": "address"
        },
        {
          "indexed": true,
          "internalType": "address",
          "name": "childContract",
          "type": "address"
        },
        {
          "indexed": false,
          "internalType": "uint256[]",
          "name": "childTokenIds",
          "type": "uint256[]"
        },
        {
          "indexed": false,
          "internalType": "uint256[]",
          "name": "amounts",
          "type": "uint256[]"
        }
      ],
      "name": "TransferBatchChild",
      "type": "event"
    },
    {
      "anonymous": false,
      "inputs": [
        {
          "indexed": true,
          "internalType": "uint256",
          "name": "fromTokenId",
          "type": "uint256"
        },
        {
          "indexed": true,
          "internalType": "address",
          "name": "to",
          "type": "address"
        },
        {
          "indexed": true,
          "internalType": "address",
          "name": "childContract",
          "type": "address"
        },
        {
          "indexed": false,
          "internalType": "uint256",
          "name": "childTokenId",
          "type": "uint256"
        },
        {
          "indexed": false,
          "internalType": "uint256",
          "name": "amount",
          "type": "uint256"
        }
      ],
      "name": "TransferSingleChild",
      "type": "event"
    },
    {
      "inputs": [
        {
          "internalType": "address",
          "name": "to",
          "type": "address"
        },
        {
          "internalType": "uint256",
          "name": "tokenId",
          "type": "uint256"
        }
      ],
      "name": "approve",
      "outputs": [],
      "stateMutability": "nonpayable",
      "type": "function"
    },
    {
      "inputs": [
        {
          "internalType": "address",
          "name": "owner",
          "type": "address"
        }
      ],
      "name": "balanceOf",
      "outputs": [
        {
          "internalType": "uint256",
          "name": "",
          "type": "uint256"
        }
      ],
      "stateMutability": "view",
      "type": "function"
    },
    {
      "inputs": [],
      "name": "baseURI",
      "outputs": [
        {
          "internalType": "string",
          "name": "",
          "type": "string"
        }
      ],
      "stateMutability": "view",
      "type": "function"
    },
    {
      "inputs": [
        {
          "internalType": "uint256",
          "name": "tokenId",
          "type": "uint256"
        }
      ],
      "name": "getApproved",
      "outputs": [
        {
          "internalType": "address",
          "name": "",
          "type": "address"
        }
      ],
      "stateMutability": "view",
      "type": "function"
    },
    {
      "inputs": [
        {
          "internalType": "address",
          "name": "owner",
          "type": "address"
        },
        {
          "internalType": "address",
          "name": "operator",
          "type": "address"
        }
      ],
      "name": "isApprovedForAll",
      "outputs": [
        {
          "internalType": "bool",
          "name": "",
          "type": "bool"
        }
      ],
      "stateMutability": "view",
      "type": "function"
    },
    {
      "inputs": [],
      "name": "name",
      "outputs": [
        {
          "internalType": "string",
          "name": "",
          "type": "string"
        }
      ],
      "stateMutability": "view",
      "type": "function"
    },
    {
      "inputs": [
        {
          "internalType": "uint256",
          "name": "tokenId",
          "type": "uint256"
        }
      ],
      "name": "ownerOf",
      "outputs": [
        {
          "internalType": "address",
          "name": "",
          "type": "address"
        }
      ],
      "stateMutability": "view",
      "type": "function"
    },
    {
      "inputs": [
        {
          "internalType": "address",
          "name": "from",
          "type": "address"
        },
        {
          "internalType": "address",
          "name": "to",
          "type": "address"
        },
        {
          "internalType": "uint256",
          "name": "tokenId",
          "type": "uint256"
        }
      ],
      "name": "safeTransferFrom",
      "outputs": [],
      "stateMutability": "nonpayable",
      "type": "function"
    },
    {
      "inputs": [
        {
          "internalType": "address",
          "name": "from",
          "type": "address"
        },
        {
          "internalType": "address",
          "name": "to",
          "type": "address"
        },
        {
          "internalType": "uint256",
          "name": "tokenId",
          "type": "uint256"
        },
        {
          "internalType": "bytes",
          "name": "_data",
          "type": "bytes"
        }
      ],
      "name": "safeTransferFrom",
      "outputs": [],
      "stateMutability": "nonpayable",
      "type": "function"
    },
    {
      "inputs": [
        {
          "internalType": "address",
          "name": "operator",
          "type": "address"
        },
        {
          "internalType": "bool",
          "name": "approved",
          "type": "bool"
        }
      ],
      "name": "setApprovalForAll",
      "outputs": [],
      "stateMutability": "nonpayable",
      "type": "function"
    },
    {
      "inputs": [
        {
          "internalType": "bytes4",
          "name": "interfaceId",
          "type": "bytes4"
        }
      ],
      "name": "supportsInterface",
      "outputs": [
        {
          "internalType": "bool",
          "name": "",
          "type": "bool"
        }
      ],
      "stateMutability": "view",
      "type": "function"
    },
    {
      "inputs": [],
      "name": "symbol",
      "outputs": [
        {
          "internalType": "string",
          "name": "",
          "type": "string"
        }
      ],
      "stateMutability": "view",
      "type": "function"
    },
    {
      "inputs": [
        {
          "internalType": "uint256",
          "name": "index",
          "type": "uint256"
        }
      ],
      "name": "tokenByIndex",
      "outputs": [
        {
          "internalType": "uint256",
          "name": "",
          "type": "uint256"
        }
      ],
      "stateMutability": "view",
      "type": "function"
    },
    {
      "inputs": [
        {
          "internalType": "address",
          "name": "owner",
          "type": "address"
        },
        {
          "internalType": "uint256",
          "name": "index",
          "type": "uint256"
        }
      ],
      "name": "tokenOfOwnerByIndex",
      "outputs": [
        {
          "internalType": "uint256",
          "name": "",
          "type": "uint256"
        }
      ],
      "stateMutability": "view",
      "type": "function"
    },
    {
      "inputs": [
        {
          "internalType": "uint256",
          "name": "tokenId",
          "type": "uint256"
        }
      ],
      "name": "tokenURI",
      "outputs": [
        {
          "internalType": "string",
          "name": "",
          "type": "string"
        }
      ],
      "stateMutability": "view",
      "type": "function"
    },
    {
      "inputs": [],
      "name": "totalSupply",
      "outputs": [
        {
          "internalType": "uint256",
          "name": "",
          "type": "uint256"
        }
      ],
      "stateMutability": "view",
      "type": "function"
    },
    {
      "inputs": [
        {
          "internalType": "address",
          "name": "from",
          "type": "address"
        },
        {
          "internalType": "address",
          "name": "to",
          "type": "address"
        },
        {
          "internalType": "uint256",
          "name": "tokenId",
          "type": "uint256"
        }
      ],
      "name": "transferFrom",
      "outputs": [],
      "stateMutability": "nonpayable",
      "type": "function"
    },
    {
      "inputs": [
        {
          "internalType": "uint256",
          "name": "tokenId",
          "type": "uint256"
        },
        {
          "internalType": "address",
          "name": "childContract",
          "type": "address"
        },
        {
          "internalType": "uint256",
          "name": "childTokenId",
          "type": "uint256"
        }
      ],
      "name": "childBalance",
      "outputs": [
        {
          "internalType": "uint256",
          "name": "",
          "type": "uint256"
        }
      ],
      "stateMutability": "view",
      "type": "function"
    },
    {
      "inputs": [
        {
          "internalType": "uint256",
          "name": "tokenId",
          "type": "uint256"
        }
      ],
      "name": "childContractsFor",
      "outputs": [
        {
          "internalType": "address[]",
          "name": "",
          "type": "address[]"
        }
      ],
      "stateMutability": "view",
      "type": "function"
    },
    {
      "inputs": [
        {
          "internalType": "uint256",
          "name": "tokenId",
          "type": "uint256"
        },
        {
          "internalType": "address",
          "name": "childContract",
          "type": "address"
        }
      ],
      "name": "childIdsForOn",
      "outputs": [
        {
          "internalType": "uint256[]",
          "name": "",
          "type": "uint256[]"
        }
      ],
      "stateMutability": "view",
      "type": "function"
    },
    {
      "inputs": [
        {
          "internalType": "uint256",
          "name": "fromTokenId",
          "type": "uint256"
        },
        {
          "internalType": "address",
          "name": "to",
          "type": "address"
        },
        {
          "internalType": "address",
          "name": "childContract",
          "type": "address"
        },
        {
          "internalType": "uint256",
          "name": "childTokenId",
          "type": "uint256"
        },
        {
          "internalType": "uint256",
          "name": "amount",
          "type": "uint256"
        },
        {
          "internalType": "bytes",
          "name": "data",
          "type": "bytes"
        }
      ],
      "name": "safeTransferChildFrom",
      "outputs": [],
      "stateMutability": "nonpayable",
      "type": "function"
    },
    {
      "inputs": [
        {
          "internalType": "uint256",
          "name": "fromTokenId",
          "type": "uint256"
        },
        {
          "internalType": "address",
          "name": "to",
          "type": "address"
        },
        {
          "internalType": "address",
          "name": "childContract",
          "type": "address"
        },
        {
          "internalType": "uint256[]",
          "name": "childTokenIds",
          "type": "uint256[]"
        },
        {
          "internalType": "uint256[]",
          "name": "amounts",
          "type": "uint256[]"
        },
        {
          "internalType": "bytes",
          "name": "data",
          "type": "bytes"
        }
      ],
      "name": "safeBatchTransferChildFrom",
      "outputs": [],
      "stateMutability": "nonpayable",
      "type": "function"
    },
    {
      "inputs": [
        {
          "internalType": "address",
          "name": "operator",
          "type": "address"
        },
        {
          "internalType": "address",
          "name": "from",
          "type": "address"
        },
        {
          "internalType": "uint256",
          "name": "id",
          "type": "uint256"
        },
        {
          "internalType": "uint256",
          "name": "amount",
          "type": "uint256"
        },
        {
          "internalType": "bytes",
          "name": "data",
          "type": "bytes"
        }
      ],
      "name": "onERC1155Received",
      "outputs": [
        {
          "internalType": "bytes4",
          "name": "",
          "type": "bytes4"
        }
      ],
      "stateMutability": "nonpayable",
      "type": "function"
    },
    {
      "inputs": [
        {
          "internalType": "address",
          "name": "operator",
          "type": "address"
        },
        {
          "internalType": "address",
          "name": "from",
          "type": "address"
        },
        {
          "internalType": "uint256[]",
          "name": "ids",
          "type": "uint256[]"
        },
        {
          "internalType": "uint256[]",
          "name": "values",
          "type": "uint256[]"
        },
        {
          "internalType": "bytes",
          "name": "data",
          "type": "bytes"
        }
      ],
      "name": "onERC1155BatchReceived",
      "outputs": [
        {
          "internalType": "bytes4",
          "name": "",
          "type": "bytes4"
        }
      ],
      "stateMutability": "nonpayable",
      "type": "function"
    }
  ],
  "bytecode": "0x60806040523480156200001157600080fd5b506040516200498838038062004988833981810160405260608110156200003757600080fd5b81019080805160405193929190846401000000008211156200005857600080fd5b838201915060208201858111156200006f57600080fd5b82518660018202830111640100000000821117156200008d57600080fd5b8083526020830192505050908051906020019080838360005b83811015620000c3578082015181840152602081019050620000a6565b50505050905090810190601f168015620000f15780820380516001836020036101000a031916815260200191505b50604052602001805160405193929190846401000000008211156200011557600080fd5b838201915060208201858111156200012c57600080fd5b82518660018202830111640100000000821117156200014a57600080fd5b8083526020830192505050908051906020019080838360005b838110156200018057808201518184015260208101905062000163565b50505050905090810190601f168015620001ae5780820380516001836020036101000a031916815260200191505b5060405260200180516040519392919084640100000000821115620001d257600080fd5b83820191506020820185811115620001e957600080fd5b82518660018202830111640100000000821117156200020757600080fd5b8083526020830192505050908051906020019080838360005b838110156200023d57808201518184015260208101905062000220565b50505050905090810190601f1680156200026b5780820380516001836020036101000a031916815260200191505b5060405250505082826200028c6301ffc9a760e01b6200034360201b60201c565b8160069080519060200190620002a492919062000468565b508060079080519060200190620002bd92919062000468565b50620002d66380ac58cd60e01b6200034360201b60201c565b620002ee635b5e139f60e01b6200034360201b60201c565b6200030663780e9d6360e01b6200034360201b60201c565b50506200032963bc197c8160e01b63f23a6e6160e01b186200034360201b60201c565b6200033a816200044c60201b60201c565b50505062000517565b63ffffffff60e01b817bffffffffffffffffffffffffffffffffffffffffffffffffffffffff19161415620003e0576040517f08c379a000000000000000000000000000000000000000000000000000000000815260040180806020018281038252601c8152602001807f4552433136353a20696e76616c696420696e746572666163652069640000000081525060200191505060405180910390fd5b6001600080837bffffffffffffffffffffffffffffffffffffffffffffffffffffffff19167bffffffffffffffffffffffffffffffffffffffffffffffffffffffff1916815260200190815260200160002060006101000a81548160ff02191690831515021790555050565b80600990805190602001906200046492919062000468565b5050565b828054600181600116156101000203166002900490600052602060002090601f016020900481019282601f10620004ab57805160ff1916838001178555620004dc565b82800160010185558215620004dc579182015b82811115620004db578251825591602001919060010190620004be565b5b509050620004eb9190620004ef565b5090565b6200051491905b8082111562000510576000816000905550600101620004f6565b5090565b90565b61446180620005276000396000f3fe608060405234801561001057600080fd5b50600436106101585760003560e01c806360d4d23a116100c3578063a22cb4651161007c578063a22cb46514610b43578063b88d4fde14610b93578063bc197c8114610c98578063c87b56dd14610f0d578063e985e9c514610fb4578063f23a6e611461103057610158565b806360d4d23a146108885780636352211e146108f45780636c0360eb1461096257806370a08231146109e557806389e7e2f214610a3d57806395d89b4114610ac057610158565b80632676608c116101155780632676608c1461038d5780632f745c591461043057806332085b651461049257806342842e0e146106bf57806342cf6e741461072d5780634f6ccce71461084657610158565b806301ffc9a71461015d57806306fdde03146101c2578063081812fc14610245578063095ea7b3146102b357806318160ddd1461030157806323b872dd1461031f575b600080fd5b6101a86004803603602081101561017357600080fd5b8101908080357bffffffffffffffffffffffffffffffffffffffffffffffffffffffff19169060200190929190505050611191565b604051808215151515815260200191505060405180910390f35b6101ca6111f8565b6040518080602001828103825283818151815260200191508051906020019080838360005b8381101561020a5780820151818401526020810190506101ef565b50505050905090810190601f1680156102375780820380516001836020036101000a031916815260200191505b509250505060405180910390f35b6102716004803603602081101561025b57600080fd5b810190808035906020019092919050505061129a565b604051808273ffffffffffffffffffffffffffffffffffffffff1673ffffffffffffffffffffffffffffffffffffffff16815260200191505060405180910390f35b6102ff600480360360408110156102c957600080fd5b81019080803573ffffffffffffffffffffffffffffffffffffffff16906020019092919080359060200190929190505050611335565b005b610309611479565b6040518082815260200191505060405180910390f35b61038b6004803603606081101561033557600080fd5b81019080803573ffffffffffffffffffffffffffffffffffffffff169060200190929190803573ffffffffffffffffffffffffffffffffffffffff1690602001909291908035906020019092919050505061148a565b005b6103d9600480360360408110156103a357600080fd5b8101908080359060200190929190803573ffffffffffffffffffffffffffffffffffffffff169060200190929190505050611500565b6040518080602001828103825283818151815260200191508051906020019060200280838360005b8381101561041c578082015181840152602081019050610401565b505050509050019250505060405180910390f35b61047c6004803603604081101561044657600080fd5b81019080803573ffffffffffffffffffffffffffffffffffffffff16906020019092919080359060200190929190505050611683565b6040518082815260200191505060405180910390f35b6106bd600480360360c08110156104a857600080fd5b8101908080359060200190929190803573ffffffffffffffffffffffffffffffffffffffff169060200190929190803573ffffffffffffffffffffffffffffffffffffffff1690602001909291908035906020019064010000000081111561050f57600080fd5b82018360208201111561052157600080fd5b8035906020019184602083028401116401000000008311171561054357600080fd5b919080806020026020016040519081016040528093929190818152602001838360200280828437600081840152601f19601f820116905080830192505050505050509192919290803590602001906401000000008111156105a357600080fd5b8201836020820111156105b557600080fd5b803590602001918460208302840111640100000000831117156105d757600080fd5b919080806020026020016040519081016040528093929190818152602001838360200280828437600081840152601f19601f8201169050808301925050505050505091929192908035906020019064010000000081111561063757600080fd5b82018360208201111561064957600080fd5b8035906020019184600183028401116401000000008311171561066b57600080fd5b91908080601f016020809104026020016040519081016040528093929190818152602001838380828437600081840152601f19601f8201169050808301925050505050505091929192905050506116de565b005b61072b600480360360608110156106d557600080fd5b81019080803573ffffffffffffffffffffffffffffffffffffffff169060200190929190803573ffffffffffffffffffffffffffffffffffffffff16906020019092919080359060200190929190505050611b9a565b005b610844600480360360c081101561074357600080fd5b8101908080359060200190929190803573ffffffffffffffffffffffffffffffffffffffff169060200190929190803573ffffffffffffffffffffffffffffffffffffffff1690602001909291908035906020019092919080359060200190929190803590602001906401000000008111156107be57600080fd5b8201836020820111156107d057600080fd5b803590602001918460018302840111640100000000831117156107f257600080fd5b91908080601f016020809104026020016040519081016040528093929190818152602001838380828437600081840152601f19601f820116905080830192505050505050509192919290505050611bba565b005b6108726004803603602081101561085c57600080fd5b8101908080359060200190929190505050611edb565b6040518082815260200191505060405180910390f35b6108de6004803603606081101561089e57600080fd5b8101908080359060200190929190803573ffffffffffffffffffffffffffffffffffffffff16906020019092919080359060200190929190505050611efe565b6040518082815260200191505060405180910390f35b6109206004803603602081101561090a57600080fd5b8101908080359060200190929190505050611f6b565b604051808273ffffffffffffffffffffffffffffffffffffffff1673ffffffffffffffffffffffffffffffffffffffff16815260200191505060405180910390f35b61096a611fa2565b6040518080602001828103825283818151815260200191508051906020019080838360005b838110156109aa57808201518184015260208101905061098f565b50505050905090810190601f1680156109d75780820380516001836020036101000a031916815260200191505b509250505060405180910390f35b610a27600480360360208110156109fb57600080fd5b81019080803573ffffffffffffffffffffffffffffffffffffffff169060200190929190505050612044565b6040518082815260200191505060405180910390f35b610a6960048036036020811015610a5357600080fd5b8101908080359060200190929190505050612119565b6040518080602001828103825283818151815260200191508051906020019060200280838360005b83811015610aac578082015181840152602081019050610a91565b505050509050019250505060405180910390f35b610ac8612212565b6040518080602001828103825283818151815260200191508051906020019080838360005b83811015610b08578082015181840152602081019050610aed565b50505050905090810190601f168015610b355780820380516001836020036101000a031916815260200191505b509250505060405180910390f35b610b9160048036036040811015610b5957600080fd5b81019080803573ffffffffffffffffffffffffffffffffffffffff1690602001909291908035151590602001909291905050506122b4565b005b610c9660048036036080811015610ba957600080fd5b81019080803573ffffffffffffffffffffffffffffffffffffffff169060200190929190803573ffffffffffffffffffffffffffffffffffffffff1690602001909291908035906020019092919080359060200190640100000000811115610c1057600080fd5b820183602082011115610c2257600080fd5b80359060200191846001830284011164010000000083111715610c4457600080fd5b91908080601f016020809104026020016040519081016040528093929190818152602001838380828437600081840152601f19601f82011690508083019250505050505050919291929050505061246c565b005b610eb9600480360360a0811015610cae57600080fd5b81019080803573ffffffffffffffffffffffffffffffffffffffff169060200190929190803573ffffffffffffffffffffffffffffffffffffffff16906020019092919080359060200190640100000000811115610d0b57600080fd5b820183602082011115610d1d57600080fd5b80359060200191846020830284011164010000000083111715610d3f57600080fd5b919080806020026020016040519081016040528093929190818152602001838360200280828437600081840152601f19601f82011690508083019250505050505050919291929080359060200190640100000000811115610d9f57600080fd5b820183602082011115610db157600080fd5b80359060200191846020830284011164010000000083111715610dd357600080fd5b919080806020026020016040519081016040528093929190818152602001838360200280828437600081840152601f19601f82011690508083019250505050505050919291929080359060200190640100000000811115610e3357600080fd5b820183602082011115610e4557600080fd5b80359060200191846001830284011164010000000083111715610e6757600080fd5b91908080601f016020809104026020016040519081016040528093929190818152602001838380828437600081840152601f19601f8201169050808301925050505050505091929192905050506124e4565b60405180827bffffffffffffffffffffffffffffffffffffffffffffffffffffffff19167bffffffffffffffffffffffffffffffffffffffffffffffffffffffff1916815260200191505060405180910390f35b610f3960048036036020811015610f2357600080fd5b81019080803590602001909291905050506126b3565b6040518080602001828103825283818151815260200191508051906020019080838360005b83811015610f79578082015181840152602081019050610f5e565b50505050905090810190601f168015610fa65780820380516001836020036101000a031916815260200191505b509250505060405180910390f35b61101660048036036040811015610fca57600080fd5b81019080803573ffffffffffffffffffffffffffffffffffffffff169060200190929190803573ffffffffffffffffffffffffffffffffffffffff16906020019092919050505061299c565b604051808215151515815260200191505060405180910390f35b61113d600480360360a081101561104657600080fd5b81019080803573ffffffffffffffffffffffffffffffffffffffff169060200190929190803573ffffffffffffffffffffffffffffffffffffffff1690602001909291908035906020019092919080359060200190929190803590602001906401000000008111156110b757600080fd5b8201836020820111156110c957600080fd5b803590602001918460018302840111640100000000831117156110eb57600080fd5b91908080601f016020809104026020016040519081016040528093929190818152602001838380828437600081840152601f19601f820116905080830192505050505050509192919290505050612a30565b60405180827bffffffffffffffffffffffffffffffffffffffffffffffffffffffff19167bffffffffffffffffffffffffffffffffffffffffffffffffffffffff1916815260200191505060405180910390f35b6000806000837bffffffffffffffffffffffffffffffffffffffffffffffffffffffff19167bffffffffffffffffffffffffffffffffffffffffffffffffffffffff1916815260200190815260200160002060009054906101000a900460ff169050919050565b606060068054600181600116156101000203166002900480601f0160208091040260200160405190810160405280929190818152602001828054600181600116156101000203166002900480156112905780601f1061126557610100808354040283529160200191611290565b820191906000526020600020905b81548152906001019060200180831161127357829003601f168201915b5050505050905090565b60006112a582612b4c565b6112fa576040517f08c379a000000000000000000000000000000000000000000000000000000000815260040180806020018281038252602c815260200180614308602c913960400191505060405180910390fd5b6004600083815260200190815260200160002060009054906101000a900473ffffffffffffffffffffffffffffffffffffffff169050919050565b600061134082611f6b565b90508073ffffffffffffffffffffffffffffffffffffffff168373ffffffffffffffffffffffffffffffffffffffff1614156113c7576040517f08c379a000000000000000000000000000000000000000000000000000000000815260040180806020018281038252602181526020018061438c6021913960400191505060405180910390fd5b8073ffffffffffffffffffffffffffffffffffffffff166113e6612b69565b73ffffffffffffffffffffffffffffffffffffffff16148061141557506114148161140f612b69565b61299c565b5b61146a576040517f08c379a000000000000000000000000000000000000000000000000000000000815260040180806020018281038252603881526020018061425b6038913960400191505060405180910390fd5b6114748383612b71565b505050565b60006114856002612c2a565b905090565b61149b611495612b69565b82612c3f565b6114f0576040517f08c379a00000000000000000000000000000000000000000000000000000000081526004018080602001828103825260318152602001806143d46031913960400191505060405180910390fd5b6114fb838383612d33565b505050565b60608061155b600d600086815260200190815260200160002060008573ffffffffffffffffffffffffffffffffffffffff1673ffffffffffffffffffffffffffffffffffffffff168152602001908152602001600020612f76565b6040519080825280602002602001820160405280156115895781602001602082028036833780820191505090505b50905060008090505b6115ea600d600087815260200190815260200160002060008673ffffffffffffffffffffffffffffffffffffffff1673ffffffffffffffffffffffffffffffffffffffff168152602001908152602001600020612f76565b8110156116785761165381600d600088815260200190815260200160002060008773ffffffffffffffffffffffffffffffffffffffff1673ffffffffffffffffffffffffffffffffffffffff168152602001908152602001600020612f8b90919063ffffffff16565b82828151811061165f57fe5b6020026020010181815250508080600101915050611592565b508091505092915050565b60006116d682600160008673ffffffffffffffffffffffffffffffffffffffff1673ffffffffffffffffffffffffffffffffffffffff168152602001908152602001600020612f8b90919063ffffffff16565b905092915050565b8151835114611738576040517f08c379a00000000000000000000000000000000000000000000000000000000081526004018080602001828103825260278152602001806144056027913960400191505060405180910390fd5b600073ffffffffffffffffffffffffffffffffffffffff168573ffffffffffffffffffffffffffffffffffffffff1614156117be576040517f08c379a000000000000000000000000000000000000000000000000000000000815260040180806020018281038252602481526020018061420b6024913960400191505060405180910390fd5b60006117c8612b69565b90508073ffffffffffffffffffffffffffffffffffffffff166117ea88611f6b565b73ffffffffffffffffffffffffffffffffffffffff16148061181a575061181961181388611f6b565b8261299c565b5b61186f576040517f08c379a000000000000000000000000000000000000000000000000000000000815260040180806020018281038252602881526020018061410b6028913960400191505060405180910390fd5b61187e81888888888888612fa5565b60008090505b84518110156118d657600085828151811061189b57fe5b6020026020010151905060008583815181106118b357fe5b602002602001015190506118c98a898484612fae565b5050806001019050611884565b508473ffffffffffffffffffffffffffffffffffffffff16632eb2c2d630888787876040518663ffffffff1660e01b8152600401808673ffffffffffffffffffffffffffffffffffffffff1673ffffffffffffffffffffffffffffffffffffffff1681526020018573ffffffffffffffffffffffffffffffffffffffff1673ffffffffffffffffffffffffffffffffffffffff168152602001806020018060200180602001848103845287818151815260200191508051906020019060200280838360005b838110156119b657808201518184015260208101905061199b565b50505050905001848103835286818151815260200191508051906020019060200280838360005b838110156119f85780820151818401526020810190506119dd565b50505050905001848103825285818151815260200191508051906020019080838360005b83811015611a37578082015181840152602081019050611a1c565b50505050905090810190601f168015611a645780820380516001836020036101000a031916815260200191505b5098505050505050505050600060405180830381600087803b158015611a8957600080fd5b505af1158015611a9d573d6000803e3d6000fd5b505050508473ffffffffffffffffffffffffffffffffffffffff168673ffffffffffffffffffffffffffffffffffffffff16887f5572be9c1bc39e4e277a34f64ccd0e84456dac3f33b0b1c458c12c402c6326a98787604051808060200180602001838103835285818151815260200191508051906020019060200280838360005b83811015611b3a578082015181840152602081019050611b1f565b50505050905001838103825284818151815260200191508051906020019060200280838360005b83811015611b7c578082015181840152602081019050611b61565b5050505090500194505050505060405180910390a450505050505050565b611bb58383836040518060200160405280600081525061246c565b505050565b600073ffffffffffffffffffffffffffffffffffffffff168573ffffffffffffffffffffffffffffffffffffffff161415611c40576040517f08c379a000000000000000000000000000000000000000000000000000000000815260040180806020018281038252602481526020018061420b6024913960400191505060405180910390fd5b6000611c4a612b69565b90508073ffffffffffffffffffffffffffffffffffffffff16611c6c88611f6b565b73ffffffffffffffffffffffffffffffffffffffff161480611c9c5750611c9b611c9588611f6b565b8261299c565b5b611cf1576040517f08c379a000000000000000000000000000000000000000000000000000000000815260040180806020018281038252602881526020018061410b6028913960400191505060405180910390fd5b611d1081888888611d01896132a1565b611d0a896132a1565b88612fa5565b611d1c87868686612fae565b8473ffffffffffffffffffffffffffffffffffffffff1663f242432a30888787876040518663ffffffff1660e01b8152600401808673ffffffffffffffffffffffffffffffffffffffff1673ffffffffffffffffffffffffffffffffffffffff1681526020018573ffffffffffffffffffffffffffffffffffffffff1673ffffffffffffffffffffffffffffffffffffffff16815260200184815260200183815260200180602001828103825283818151815260200191508051906020019080838360005b83811015611dfc578082015181840152602081019050611de1565b50505050905090810190601f168015611e295780820380516001836020036101000a031916815260200191505b509650505050505050600060405180830381600087803b158015611e4c57600080fd5b505af1158015611e60573d6000803e3d6000fd5b505050508473ffffffffffffffffffffffffffffffffffffffff168673ffffffffffffffffffffffffffffffffffffffff16887f9d6259404dec52b3d5d220f5b8e5d05cc05ec908e1bc320aa46793e3091e51948787604051808381526020018281526020019250505060405180910390a450505050505050565b600080611ef28360026132fa90919063ffffffff16565b50905080915050919050565b6000600a600085815260200190815260200160002060008473ffffffffffffffffffffffffffffffffffffffff1673ffffffffffffffffffffffffffffffffffffffff16815260200190815260200160002060008381526020019081526020016000205490509392505050565b6000611f9b826040518060600160405280602981526020016142bd6029913960026133299092919063ffffffff16565b9050919050565b606060098054600181600116156101000203166002900480601f01602080910402602001604051908101604052809291908181526020018280546001816001161561010002031660029004801561203a5780601f1061200f5761010080835404028352916020019161203a565b820191906000526020600020905b81548152906001019060200180831161201d57829003601f168201915b5050505050905090565b60008073ffffffffffffffffffffffffffffffffffffffff168273ffffffffffffffffffffffffffffffffffffffff1614156120cb576040517f08c379a000000000000000000000000000000000000000000000000000000000815260040180806020018281038252602a815260200180614293602a913960400191505060405180910390fd5b612112600160008473ffffffffffffffffffffffffffffffffffffffff1673ffffffffffffffffffffffffffffffffffffffff168152602001908152602001600020612f76565b9050919050565b606080612137600c6000858152602001908152602001600020613348565b6040519080825280602002602001820160405280156121655781602001602082028036833780820191505090505b50905060008090505b612189600c6000868152602001908152602001600020613348565b811015612208576121b581600c600087815260200190815260200160002061335d90919063ffffffff16565b8282815181106121c157fe5b602002602001019073ffffffffffffffffffffffffffffffffffffffff16908173ffffffffffffffffffffffffffffffffffffffff1681525050808060010191505061216e565b5080915050919050565b606060078054600181600116156101000203166002900480601f0160208091040260200160405190810160405280929190818152602001828054600181600116156101000203166002900480156122aa5780601f1061227f576101008083540402835291602001916122aa565b820191906000526020600020905b81548152906001019060200180831161228d57829003601f168201915b5050505050905090565b6122bc612b69565b73ffffffffffffffffffffffffffffffffffffffff168273ffffffffffffffffffffffffffffffffffffffff16141561235d576040517f08c379a00000000000000000000000000000000000000000000000000000000081526004018080602001828103825260198152602001807f4552433732313a20617070726f766520746f2063616c6c65720000000000000081525060200191505060405180910390fd5b806005600061236a612b69565b73ffffffffffffffffffffffffffffffffffffffff1673ffffffffffffffffffffffffffffffffffffffff16815260200190815260200160002060008473ffffffffffffffffffffffffffffffffffffffff1673ffffffffffffffffffffffffffffffffffffffff16815260200190815260200160002060006101000a81548160ff0219169083151502179055508173ffffffffffffffffffffffffffffffffffffffff16612417612b69565b73ffffffffffffffffffffffffffffffffffffffff167f17307eab39ab6107e8899845ad3d59bd9653f200f220920489ca2b5937696c3183604051808215151515815260200191505060405180910390a35050565b61247d612477612b69565b83612c3f565b6124d2576040517f08c379a00000000000000000000000000000000000000000000000000000000081526004018080602001828103825260318152602001806143d46031913960400191505060405180910390fd5b6124de84848484613377565b50505050565b60006020825114612540576040517f08c379a00000000000000000000000000000000000000000000000000000000081526004018080602001828103825260538152602001806141946053913960600191505060405180910390fd5b825184511461259a576040517f08c379a00000000000000000000000000000000000000000000000000000000081526004018080602001828103825260278152602001806143ad6027913960400191505060405180910390fd5b6125aa8660003088888888612fa5565b600080602060003690500390508035915060008090505b865181101561269d576125fc83338984815181106125db57fe5b60200260200101518985815181106125ef57fe5b60200260200101516133e9565b3373ffffffffffffffffffffffffffffffffffffffff16838973ffffffffffffffffffffffffffffffffffffffff167fa18753b0660a8be2cdae03468c860b47c2926433ab16917f323544652803032d8a858151811061265857fe5b60200260200101518a868151811061266c57fe5b6020026020010151604051808381526020018281526020019250505060405180910390a480806001019150506125c1565b5063bc197c8160e01b9250505095945050505050565b60606126be82612b4c565b612713576040517f08c379a000000000000000000000000000000000000000000000000000000000815260040180806020018281038252602f81526020018061435d602f913960400191505060405180910390fd5b6060600860008481526020019081526020016000208054600181600116156101000203166002900480601f0160208091040260200160405190810160405280929190818152602001828054600181600116156101000203166002900480156127bc5780601f10612791576101008083540402835291602001916127bc565b820191906000526020600020905b81548152906001019060200180831161279f57829003601f168201915b505050505090506000600980546001816001161561010002031660029004905014156127eb5780915050612997565b6000815111156128c45760098160405160200180838054600181600116156101000203166002900480156128565780601f10612834576101008083540402835291820191612856565b820191906000526020600020905b815481529060010190602001808311612842575b505082805190602001908083835b602083106128875780518252602082019150602081019050602083039250612864565b6001836020036101000a03801982511681845116808217855250505050505090500192505050604051602081830303815290604052915050612997565b60096128cf8461357c565b604051602001808380546001816001161561010002031660029004801561292d5780601f1061290b57610100808354040283529182019161292d565b820191906000526020600020905b815481529060010190602001808311612919575b505082805190602001908083835b6020831061295e578051825260208201915060208101905060208303925061293b565b6001836020036101000a038019825116818451168082178552505050505050905001925050506040516020818303038152906040529150505b919050565b6000600560008473ffffffffffffffffffffffffffffffffffffffff1673ffffffffffffffffffffffffffffffffffffffff16815260200190815260200160002060008373ffffffffffffffffffffffffffffffffffffffff1673ffffffffffffffffffffffffffffffffffffffff16815260200190815260200160002060009054906101000a900460ff16905092915050565b60006020825114612a8c576040517f08c379a00000000000000000000000000000000000000000000000000000000081526004018080602001828103825260538152602001806141946053913960600191505060405180910390fd5b612aac8660003088612a9d896132a1565b612aa6896132a1565b88612fa5565b6000806020600036905003905080359150612ac9823388886133e9565b3373ffffffffffffffffffffffffffffffffffffffff16828873ffffffffffffffffffffffffffffffffffffffff167fa18753b0660a8be2cdae03468c860b47c2926433ab16917f323544652803032d8989604051808381526020018281526020019250505060405180910390a463f23a6e6160e01b9250505095945050505050565b6000612b628260026136ac90919063ffffffff16565b9050919050565b600033905090565b816004600083815260200190815260200160002060006101000a81548173ffffffffffffffffffffffffffffffffffffffff021916908373ffffffffffffffffffffffffffffffffffffffff160217905550808273ffffffffffffffffffffffffffffffffffffffff16612be483611f6b565b73ffffffffffffffffffffffffffffffffffffffff167f8c5be1e5ebec7d5bd14f71427d1e84f3dd0314c0f7b2291e5b200ac8c7c3b92560405160405180910390a45050565b6000612c38826000016136c6565b9050919050565b6000612c4a82612b4c565b612c9f576040517f08c379a000000000000000000000000000000000000000000000000000000000815260040180806020018281038252602c81526020018061422f602c913960400191505060405180910390fd5b6000612caa83611f6b565b90508073ffffffffffffffffffffffffffffffffffffffff168473ffffffffffffffffffffffffffffffffffffffff161480612d1957508373ffffffffffffffffffffffffffffffffffffffff16612d018461129a565b73ffffffffffffffffffffffffffffffffffffffff16145b80612d2a5750612d29818561299c565b5b91505092915050565b8273ffffffffffffffffffffffffffffffffffffffff16612d5382611f6b565b73ffffffffffffffffffffffffffffffffffffffff1614612dbf576040517f08c379a00000000000000000000000000000000000000000000000000000000081526004018080602001828103825260298152602001806143346029913960400191505060405180910390fd5b600073ffffffffffffffffffffffffffffffffffffffff168273ffffffffffffffffffffffffffffffffffffffff161415612e45576040517f08c379a00000000000000000000000000000000000000000000000000000000081526004018080602001828103825260248152602001806141e76024913960400191505060405180910390fd5b612e508383836136d7565b612e5b600082612b71565b612eac81600160008673ffffffffffffffffffffffffffffffffffffffff1673ffffffffffffffffffffffffffffffffffffffff1681526020019081526020016000206136dc90919063ffffffff16565b50612efe81600160008573ffffffffffffffffffffffffffffffffffffffff1673ffffffffffffffffffffffffffffffffffffffff1681526020019081526020016000206136f690919063ffffffff16565b50612f15818360026137109092919063ffffffff16565b50808273ffffffffffffffffffffffffffffffffffffffff168473ffffffffffffffffffffffffffffffffffffffff167fddf252ad1be2c89b69c2b068fc378daa952ba7f163c4a11628f55a4df523b3ef60405160405180910390a4505050565b6000612f8482600001613745565b9050919050565b6000612f9a8360000183613756565b60001c905092915050565b50505050505050565b60008114158061301f575080600a600086815260200190815260200160002060008573ffffffffffffffffffffffffffffffffffffffff1673ffffffffffffffffffffffffffffffffffffffff16815260200190815260200160002060008481526020019081526020016000205410155b613074576040517f08c379a000000000000000000000000000000000000000000000000000000000815260040180806020018281038252602f815260200180614165602f913960400191505060405180910390fd5b80600a600086815260200190815260200160002060008573ffffffffffffffffffffffffffffffffffffffff1673ffffffffffffffffffffffffffffffffffffffff1681526020019081526020016000206000848152602001908152602001600020600082825403925050819055506000600a600086815260200190815260200160002060008573ffffffffffffffffffffffffffffffffffffffff1673ffffffffffffffffffffffffffffffffffffffff168152602001908152602001600020600084815260200190815260200160002054141561329b576131af84600b60008673ffffffffffffffffffffffffffffffffffffffff1673ffffffffffffffffffffffffffffffffffffffff16815260200190815260200160002060008581526020019081526020016000206136dc90919063ffffffff16565b5061321282600d600087815260200190815260200160002060008673ffffffffffffffffffffffffffffffffffffffff1673ffffffffffffffffffffffffffffffffffffffff1681526020019081526020016000206136dc90919063ffffffff16565b50600061326d600d600087815260200190815260200160002060008673ffffffffffffffffffffffffffffffffffffffff1673ffffffffffffffffffffffffffffffffffffffff168152602001908152602001600020612f76565b141561329a5761329883600c60008781526020019081526020016000206137d990919063ffffffff16565b505b5b50505050565b60608060016040519080825280602002602001820160405280156132d45781602001602082028036833780820191505090505b50905082816000815181106132e557fe5b60200260200101818152505080915050919050565b60008060008061330d8660000186613809565b915091508160001c8160001c8090509350935050509250929050565b600061333c846000018460001b846138a2565b60001c90509392505050565b600061335682600001613745565b9050919050565b600061336c8360000183613756565b60001c905092915050565b613382848484612d33565b61338e84848484613998565b6133e3576040517f08c379a00000000000000000000000000000000000000000000000000000000081526004018080602001828103825260328152602001806141336032913960400191505060405180910390fd5b50505050565b61340e83600c6000878152602001908152602001600020613bdd90919063ffffffff16565b6134395761343783600c6000878152602001908152602001600020613c0d90919063ffffffff16565b505b6000600a600086815260200190815260200160002060008573ffffffffffffffffffffffffffffffffffffffff1673ffffffffffffffffffffffffffffffffffffffff16815260200190815260200160002060008481526020019081526020016000205414156135075761350582600d600087815260200190815260200160002060008673ffffffffffffffffffffffffffffffffffffffff1673ffffffffffffffffffffffffffffffffffffffff1681526020019081526020016000206136f690919063ffffffff16565b505b80600a600086815260200190815260200160002060008573ffffffffffffffffffffffffffffffffffffffff1673ffffffffffffffffffffffffffffffffffffffff16815260200190815260200160002060008481526020019081526020016000206000828254019250508190555050505050565b606060008214156135c4576040518060400160405280600181526020017f300000000000000000000000000000000000000000000000000000000000000081525090506136a7565b600082905060005b600082146135ee578080600101915050600a82816135e657fe5b0491506135cc565b6060816040519080825280601f01601f1916602001820160405280156136235781602001600182028036833780820191505090505b50905060006001830390508593505b6000841461369f57600a848161364457fe5b0660300160f81b8282806001900393508151811061365e57fe5b60200101907effffffffffffffffffffffffffffffffffffffffffffffffffffffffffffff1916908160001a905350600a848161369757fe5b049350613632565b819450505050505b919050565b60006136be836000018360001b613c3d565b905092915050565b600081600001805490509050919050565b505050565b60006136ee836000018360001b613c60565b905092915050565b6000613708836000018360001b613d48565b905092915050565b600061373c846000018460001b8473ffffffffffffffffffffffffffffffffffffffff1660001b613db8565b90509392505050565b600081600001805490509050919050565b6000818360000180549050116137b7576040517f08c379a00000000000000000000000000000000000000000000000000000000081526004018080602001828103825260228152602001806140e96022913960400191505060405180910390fd5b8260000182815481106137c657fe5b9060005260206000200154905092915050565b6000613801836000018373ffffffffffffffffffffffffffffffffffffffff1660001b613c60565b905092915050565b6000808284600001805490501161386b576040517f08c379a00000000000000000000000000000000000000000000000000000000081526004018080602001828103825260228152602001806142e66022913960400191505060405180910390fd5b600084600001848154811061387c57fe5b906000526020600020906002020190508060000154816001015492509250509250929050565b60008084600101600085815260200190815260200160002054905060008114158390613969576040517f08c379a00000000000000000000000000000000000000000000000000000000081526004018080602001828103825283818151815260200191508051906020019080838360005b8381101561392e578082015181840152602081019050613913565b50505050905090810190601f16801561395b5780820380516001836020036101000a031916815260200191505b509250505060405180910390fd5b5084600001600182038154811061397c57fe5b9060005260206000209060020201600101549150509392505050565b60006139b98473ffffffffffffffffffffffffffffffffffffffff16613e94565b6139c65760019050613bd5565b6060613b5c63150b7a0260e01b6139db612b69565b888787604051602401808573ffffffffffffffffffffffffffffffffffffffff1673ffffffffffffffffffffffffffffffffffffffff1681526020018473ffffffffffffffffffffffffffffffffffffffff1673ffffffffffffffffffffffffffffffffffffffff16815260200183815260200180602001828103825283818151815260200191508051906020019080838360005b83811015613a8b578082015181840152602081019050613a70565b50505050905090810190601f168015613ab85780820380516001836020036101000a031916815260200191505b5095505050505050604051602081830303815290604052907bffffffffffffffffffffffffffffffffffffffffffffffffffffffff19166020820180517bffffffffffffffffffffffffffffffffffffffffffffffffffffffff8381831617835250505050604051806060016040528060328152602001614133603291398773ffffffffffffffffffffffffffffffffffffffff16613ea79092919063ffffffff16565b90506000818060200190516020811015613b7557600080fd5b8101908080519060200190929190505050905063150b7a0260e01b7bffffffffffffffffffffffffffffffffffffffffffffffffffffffff1916817bffffffffffffffffffffffffffffffffffffffffffffffffffffffff191614925050505b949350505050565b6000613c05836000018373ffffffffffffffffffffffffffffffffffffffff1660001b613ebf565b905092915050565b6000613c35836000018373ffffffffffffffffffffffffffffffffffffffff1660001b613d48565b905092915050565b600080836001016000848152602001908152602001600020541415905092915050565b60008083600101600084815260200190815260200160002054905060008114613d3c5760006001820390506000600186600001805490500390506000866000018281548110613cab57fe5b9060005260206000200154905080876000018481548110613cc857fe5b9060005260206000200181905550600183018760010160008381526020019081526020016000208190555086600001805480613d0057fe5b60019003818190600052602060002001600090559055866001016000878152602001908152602001600020600090556001945050505050613d42565b60009150505b92915050565b6000613d548383613ebf565b613dad578260000182908060018154018082558091505060019003906000526020600020016000909190919091505582600001805490508360010160008481526020019081526020016000208190555060019050613db2565b600090505b92915050565b6000808460010160008581526020019081526020016000205490506000811415613e5f57846000016040518060400160405280868152602001858152509080600181540180825580915050600190039060005260206000209060020201600090919091909150600082015181600001556020820151816001015550508460000180549050856001016000868152602001908152602001600020819055506001915050613e8d565b82856000016001830381548110613e7257fe5b90600052602060002090600202016001018190555060009150505b9392505050565b600080823b905060008111915050919050565b6060613eb68484600085613ee2565b90509392505050565b600080836001016000848152602001908152602001600020541415905092915050565b6060613eed85613e94565b613f5f576040517f08c379a000000000000000000000000000000000000000000000000000000000815260040180806020018281038252601d8152602001807f416464726573733a2063616c6c20746f206e6f6e2d636f6e747261637400000081525060200191505060405180910390fd5b600060608673ffffffffffffffffffffffffffffffffffffffff1685876040518082805190602001908083835b60208310613faf5780518252602082019150602081019050602083039250613f8c565b6001836020036101000a03801982511681845116808217855250505050505090500191505060006040518083038185875af1925050503d8060008114614011576040519150601f19603f3d011682016040523d82523d6000602084013e614016565b606091505b5091509150811561402b5780925050506140e0565b60008151111561403e5780518082602001fd5b836040517f08c379a00000000000000000000000000000000000000000000000000000000081526004018080602001828103825283818151815260200191508051906020019080838360005b838110156140a557808201518184015260208101905061408a565b50505050905090810190601f1680156140d25780820380516001836020036101000a031916815260200191505b509250505060405180910390fd5b94935050505056fe456e756d657261626c655365743a20696e646578206f7574206f6620626f756e64734552433939383a2063616c6c6572206973206e6f74206f776e6572206e6f7220617070726f7665644552433732313a207472616e7366657220746f206e6f6e20455243373231526563656976657220696d706c656d656e7465724552433939383a20696e73756666696369656e74206368696c642062616c616e636520666f72207472616e736665724552433939383a2064617461206d75737420636f6e7461696e2074686520756e697175652075696e7432353620746f6b656e496420746f207472616e7366657220746865206368696c6420746f6b656e20746f4552433732313a207472616e7366657220746f20746865207a65726f20616464726573734552433939383a207472616e7366657220746f20746865207a65726f20616464726573734552433732313a206f70657261746f7220717565727920666f72206e6f6e6578697374656e7420746f6b656e4552433732313a20617070726f76652063616c6c6572206973206e6f74206f776e6572206e6f7220617070726f76656420666f7220616c6c4552433732313a2062616c616e636520717565727920666f7220746865207a65726f20616464726573734552433732313a206f776e657220717565727920666f72206e6f6e6578697374656e7420746f6b656e456e756d657261626c654d61703a20696e646578206f7574206f6620626f756e64734552433732313a20617070726f76656420717565727920666f72206e6f6e6578697374656e7420746f6b656e4552433732313a207472616e73666572206f6620746f6b656e2074686174206973206e6f74206f776e4552433732314d657461646174613a2055524920717565727920666f72206e6f6e6578697374656e7420746f6b656e4552433732313a20617070726f76616c20746f2063757272656e74206f776e6572455243313135353a2069647320616e642076616c756573206c656e677468206d69736d617463684552433732313a207472616e736665722063616c6c6572206973206e6f74206f776e6572206e6f7220617070726f7665644552433939383a2069647320616e6420616d6f756e7473206c656e677468206d69736d61746368a26469706673582212200088b17106582102d6d0b55ba74d77e426e9aea2ec03305aa762535729adf7dc64736f6c63430006030033",
  "source": "// SPDX-License-Identifier: UNLICENSED\n\npragma solidity ^0.6.0;\n\n/*\n// for remix\nimport \"https://github.com/OpenZeppelin/openzeppelin-contracts/blob/master/contracts/token/ERC1155/ERC1155.sol\";\nimport \"https://github.com/OpenZeppelin/openzeppelin-contracts/blob/master/contracts/token/ERC1155/ERC1155Receiver.sol\";\nimport \"https://github.com/OpenZeppelin/openzeppelin-contracts/blob/master/contracts/token/ERC721/ERC721.sol\";\nimport \"https://github.com/OpenZeppelin/openzeppelin-contracts/blob/master/contracts/utils/EnumerableSet.sol\";\n*/\n\nimport \"@openzeppelin/contracts/token/ERC1155/ERC1155.sol\";\nimport \"@openzeppelin/contracts/token/ERC1155/ERC1155Receiver.sol\";\nimport \"@openzeppelin/contracts/token/ERC721/ERC721.sol\";\nimport \"@openzeppelin/contracts/utils/EnumerableSet.sol\";\n\nimport \"./IERC998ERC1155TopDown.sol\";\n\ncontract ERC998ERC1155TopDown is ERC721, ERC1155Receiver, IERC998ERC1155TopDown {\n    using EnumerableSet for EnumerableSet.AddressSet;\n    using EnumerableSet for EnumerableSet.UintSet;\n\n    mapping(uint256 => mapping(address => mapping(uint256 => uint256))) private _balances;\n    mapping(address => mapping(uint256 => EnumerableSet.UintSet)) private _holdersOf;\n\n    mapping(uint256 => EnumerableSet.AddressSet) private _childContract;\n    mapping(uint256 => mapping(address => EnumerableSet.UintSet)) private _childsForChildContract;\n\n    constructor(string memory name, string memory symbol, string memory baseURI) ERC721(name, symbol) public {\n        _setBaseURI(baseURI);\n    }\n\n    /**\n     * @dev Gives child balance for a specific child contract and child id .\n     */\n    function childBalance(uint256 tokenId, address childContract, uint256 childTokenId) external view override returns(uint256) {\n        return _balances[tokenId][childContract][childTokenId];\n    }\n\n    /**\n     * @dev Gives list of child contract where token ID has childs.\n     */\n    function childContractsFor(uint256 tokenId) override external view returns (address[] memory) {\n        address[] memory childContracts = new address[](_childContract[tokenId].length());\n\n        for(uint256 i = 0; i < _childContract[tokenId].length(); i++) {\n            childContracts[i] = _childContract[tokenId].at(i);\n        }\n\n        return childContracts;\n    }\n\n    /**\n     * @dev Gives list of owned child ID on a child contract by token ID.\n     */\n    function childIdsForOn(uint256 tokenId, address childContract) override external view returns (uint256[] memory) {\n        uint256[] memory childTokenIds = new uint256[](_childsForChildContract[tokenId][childContract].length());\n\n        for(uint256 i = 0; i < _childsForChildContract[tokenId][childContract].length(); i++) {\n            childTokenIds[i] = _childsForChildContract[tokenId][childContract].at(i);\n        }\n\n        return childTokenIds;\n    }\n\n    /**\n     * @dev Transfers child token from a token ID.\n     */\n    function safeTransferChildFrom(uint256 fromTokenId, address to, address childContract, uint256 childTokenId, uint256 amount, bytes memory data) public override {\n        require(to != address(0), \"ERC998: transfer to the zero address\");\n\n        address operator = _msgSender();\n        require(\n            ownerOf(fromTokenId) == operator ||\n            isApprovedForAll(ownerOf(fromTokenId), operator),\n            \"ERC998: caller is not owner nor approved\"\n        );\n\n        _beforeChildTransfer(operator, fromTokenId, to, childContract, _asSingletonArray(childTokenId), _asSingletonArray(amount), data);\n\n        _removeChild(fromTokenId, childContract, childTokenId, amount);\n\n        // TODO: maybe check if to == this\n        ERC1155(childContract).safeTransferFrom(address(this), to, childTokenId, amount, data);\n        TransferSingleChild(fromTokenId, to, childContract, childTokenId, amount);\n    }\n\n    /**\n     * @dev Transfers batch of child tokens from a token ID.\n     */\n    function safeBatchTransferChildFrom(uint256 fromTokenId, address to, address childContract, uint256[] memory childTokenIds, uint256[] memory amounts, bytes memory data) public override {\n        require(childTokenIds.length == amounts.length, \"ERC998: ids and amounts length mismatch\");\n        require(to != address(0), \"ERC998: transfer to the zero address\");\n\n        address operator = _msgSender();\n        require(\n            ownerOf(fromTokenId) == operator ||\n            isApprovedForAll(ownerOf(fromTokenId), operator),\n            \"ERC998: caller is not owner nor approved\"\n        );\n\n        _beforeChildTransfer(operator, fromTokenId, to, childContract, childTokenIds, amounts, data);\n\n        for (uint256 i = 0; i < childTokenIds.length; ++i) {\n            uint256 childTokenId = childTokenIds[i];\n            uint256 amount = amounts[i];\n\n            _removeChild(fromTokenId, childContract, childTokenId, amount);\n        }\n        ERC1155(childContract).safeBatchTransferFrom(address(this), to, childTokenIds, amounts, data);\n        TransferBatchChild(fromTokenId, to, childContract, childTokenIds, amounts);\n    }\n\n    /**\n     * @dev Receives a child token, the receiver token ID must be encoded in the\n     * field data.\n     */\n    function onERC1155Received(address operator, address from, uint256 id, uint256 amount, bytes memory data) virtual public override returns(bytes4) {\n        require(data.length == 32, \"ERC998: data must contain the unique uint256 tokenId to transfer the child token to\");\n        _beforeChildTransfer(operator, 0, address(this), from, _asSingletonArray(id), _asSingletonArray(amount), data);\n\n        uint256 _receiverTokenId;\n        uint256 _index = msg.data.length - 32;\n        assembly {_receiverTokenId := calldataload(_index)}\n\n        _receiveChild(_receiverTokenId, msg.sender, id, amount);\n        ReceivedChild(from, _receiverTokenId, msg.sender, id, amount);\n\n        return this.onERC1155Received.selector;\n    }\n\n    /**\n     * @dev Receives a batch of child tokens, the receiver token ID must be\n     * encoded in the field data.\n     */\n    function onERC1155BatchReceived(address operator, address from, uint256[] memory ids, uint256[] memory values, bytes memory data) virtual public override returns(bytes4) {\n        require(data.length == 32, \"ERC998: data must contain the unique uint256 tokenId to transfer the child token to\");\n        require(ids.length == values.length, \"ERC1155: ids and values length mismatch\");\n        _beforeChildTransfer(operator, 0, address(this), from, ids, values, data);\n\n        uint256 _receiverTokenId;\n        uint256 _index = msg.data.length - 32;\n        assembly {_receiverTokenId := calldataload(_index)}\n        for(uint256 i = 0; i < ids.length; i++) {\n            _receiveChild(_receiverTokenId, msg.sender, ids[i], values[i]);\n            ReceivedChild(from, _receiverTokenId, msg.sender, ids[i], values[i]);\n        }\n        return this.onERC1155BatchReceived.selector;\n    }\n\n    function _receiveChild(uint256 tokenId, address childContract, uint256 childTokenId, uint256 amount) internal virtual {\n        if(!_childContract[tokenId].contains(childContract)) {\n            _childContract[tokenId].add(childContract);\n        }\n        if(_balances[tokenId][childContract][childTokenId] == 0) {\n            _childsForChildContract[tokenId][childContract].add(childTokenId);\n        }\n        _balances[tokenId][childContract][childTokenId] += amount;\n    }\n\n    function _removeChild(uint256 tokenId, address childContract, uint256 childTokenId, uint256 amount) internal virtual {\n        require(amount != 0 || _balances[tokenId][childContract][childTokenId] >= amount, \"ERC998: insufficient child balance for transfer\");\n        _balances[tokenId][childContract][childTokenId] -= amount;\n        if(_balances[tokenId][childContract][childTokenId] == 0) {\n            _holdersOf[childContract][childTokenId].remove(tokenId);\n            _childsForChildContract[tokenId][childContract].remove(childTokenId);\n            if(_childsForChildContract[tokenId][childContract].length() == 0) {\n                _childContract[tokenId].remove(childContract);\n            }\n        }\n    }\n\n    function _beforeChildTransfer(\n        address operator,\n        uint256 fromTokenId,\n        address to,\n        address childContract,\n        uint256[] memory ids,\n        uint256[] memory amounts,\n        bytes memory data\n    )\n        internal virtual\n    { }\n\n    function _asSingletonArray(uint256 element) private pure returns (uint256[] memory) {\n        uint256[] memory array = new uint256[](1);\n        array[0] = element;\n\n        return array;\n    }\n}\n",
  "sourcePath": "/Users/moose/Documents/Projects/composo/ERC998-ERC1155-TopDown/contracts/ERC998ERC1155TopDown.sol",
  "compiler": {
    "name": "solc",
    "version": "0.6.3+commit.8dda9521.Emscripten.clang"
  },
  "schemaVersion": "3.4.7",
  "updatedAt": "2022-10-15T12:07:11.918Z",
  "devdoc": {
    "methods": {
      "approve(address,uint256)": {
        "details": "See {IERC721-approve}."
      },
      "balanceOf(address)": {
        "details": "See {IERC721-balanceOf}."
      },
      "baseURI()": {
        "details": "Returns the base URI set via {_setBaseURI}. This will be automatically added as a prefix in {tokenURI} to each token's URI, or to the token ID if no specific URI is set for that token ID."
      },
      "childBalance(uint256,address,uint256)": {
        "details": "Gives child balance for a specific child contract and child id ."
      },
      "childContractsFor(uint256)": {
        "details": "Gives list of child contract where token ID has childs."
      },
      "childIdsForOn(uint256,address)": {
        "details": "Gives list of owned child ID on a child contract by token ID."
      },
      "getApproved(uint256)": {
        "details": "See {IERC721-getApproved}."
      },
      "isApprovedForAll(address,address)": {
        "details": "See {IERC721-isApprovedForAll}."
      },
      "name()": {
        "details": "See {IERC721Metadata-name}."
      },
      "onERC1155BatchReceived(address,address,uint256[],uint256[],bytes)": {
        "details": "Receives a batch of child tokens, the receiver token ID must be encoded in the field data."
      },
      "onERC1155Received(address,address,uint256,uint256,bytes)": {
        "details": "Receives a child token, the receiver token ID must be encoded in the field data."
      },
      "ownerOf(uint256)": {
        "details": "See {IERC721-ownerOf}."
      },
      "safeBatchTransferChildFrom(uint256,address,address,uint256[],uint256[],bytes)": {
        "details": "Transfers batch of child tokens from a token ID."
      },
      "safeTransferChildFrom(uint256,address,address,uint256,uint256,bytes)": {
        "details": "Transfers child token from a token ID."
      },
      "safeTransferFrom(address,address,uint256)": {
        "details": "See {IERC721-safeTransferFrom}."
      },
      "safeTransferFrom(address,address,uint256,bytes)": {
        "details": "See {IERC721-safeTransferFrom}."
      },
      "setApprovalForAll(address,bool)": {
        "details": "See {IERC721-setApprovalForAll}."
      },
      "supportsInterface(bytes4)": {
        "details": "See {IERC165-supportsInterface}.     * Time complexity O(1), guaranteed to always use less than 30 000 gas."
      },
      "symbol()": {
        "details": "See {IERC721Metadata-symbol}."
      },
      "tokenByIndex(uint256)": {
        "details": "See {IERC721Enumerable-tokenByIndex}."
      },
      "tokenOfOwnerByIndex(address,uint256)": {
        "details": "See {IERC721Enumerable-tokenOfOwnerByIndex}."
      },
      "tokenURI(uint256)": {
        "details": "See {IERC721Metadata-tokenURI}."
      },
      "totalSupply()": {
        "details": "See {IERC721Enumerable-totalSupply}."
      },
      "transferFrom(address,address,uint256)": {
        "details": "See {IERC721-transferFrom}."
      }
    }
  },
  "userdoc": {
    "methods": {}
  }
}